:100000000C9472000C9493000C9493000C94930045
:100010000C9493000C9493000C9493000C94930014
:100020000C9493000C9493000C9493000C94930004
:100030000C9493000C9493000C9493000C94A900DE
:100040000C9493000C9493000C9493000C949300E4
:100050000C9493000C9493000C9493000C949300D4
:100060000C9493000C9413010C944C010C94930089
:100070000C9493000C9493000C9493000C949300B4
:100080000C9493000C9493000C9493000C949300A4
:100090000C9493000C9493000C9493000C94930094
:1000A0000C9493000C9493000C9493000C94930084
:1000B0000C9493000C9493000C9493000C94930074
:1000C0000C9493000C9493000C9493000C94930064
:1000D0000C9493000C9493000C9493000C94930054
:1000E0000C94930011241FBECFEFD1E2DEBFCDBF31
:1000F00000E00CBF12E0A0E0B2E0E6E7F4E000E0D0
:100100000BBF02C007900D92A432B107D9F723E0CC
:10011000A4E2B2E001C01D92AE32B207E1F70E9444
:100120001D020C9439020C940000F894E1EBF0E00D
:10013000108282E88093B200B898A0E7B0E08C917A
:1001400081608C931092B000808185608083789468
:1001500008951F920F920FB60F9211240BB60F92B3
:100160002F933F934F935F936F937F938F939F93BF
:10017000AF93BF93EF93FF93809126029091270254
:1001800001969093270280932602809126029091F7
:100190002702883E934088F08091240290912502A6
:1001A0000196909325028093240280E092E00E94C1
:1001B000ED01109227021092260282E88093B2008D
:1001C000B898FF91EF91BF91AF919F918F917F91DF
:1001D0006F915F914F913F912F910F900BBE0F90B8
:1001E0000FBE0F901F901895E1E0F1E080818062D2
:1001F0008083E2E0F1E08081806280830895E2E024
:10020000F1E080818F7D80830895E2E0F1E08081DC
:100210008062808308950E949701911102C081112C
:1002200008958FEF08951F920F920FB60F92112429
:100230000BB60F922F933F934F935F938F939F93A0
:10024000EF93FF932091C0003091C60028718091F8
:100250002A0290E001968F7799274091290250E079
:100260008417950739F080932A02FC01E35DFD4F66
:10027000308301C022E020932802FF91EF919F91EB
:100280008F915F914F913F912F910F900BBE0F90E7
:100290000FBE0F901F9018951F920F920FB60F92DE
:1002A00011240BB60F928F939F93EF93FF9390912E
:1002B0002C0280912B02981779F080912B0290E00C
:1002C00001968F77992780932B02FC01E355FD4F10
:1002D00080818093C60005C08091C1008F7D80938E
:1002E000C100FF91EF919F918F910F900BBE0F90E6
:1002F0000FBE0F901F901895F89410922C02109238
:100300002B0210922A0210922902789497FF04C0BF
:1003100022E02093C0009F779093C5008093C40093
:1003200088E98093C10086E08093C2000895F89424
:1003300090912A0280912902981304C0789480E059
:1003400091E0089578948091290290E001968F774A
:10035000992780932902FC01E35DFD4F2081809164
:10036000280290E0982F8827820F911D0895F89415
:1003700090912A0280912902981304C0789480E019
:1003800091E008957894E0912902F0E03196EF77BA
:10039000FF27E35DFD4F20818091280290E0982F98
:1003A0008827820F911D089520912C0230E02F5F45
:1003B0003F4F2F77332740912B0250E0241735070A
:1003C000D1F3F901E355FD4F808320932C028091F6
:1003D000C10080628093C1000895CF93DF93EC0148
:1003E0008991882319F00E94D401FACFDF91CF912F
:1003F0000895CF93DF93FC018491EF012196882328
:1004000021F00E94D401FE01F7CFDF91CF91089532
:10041000F89480912A0220912902789490E08058E3
:100420009F4F821B91098F7799270895F8948091A7
:10043000290280932A02789408950E94F4000E9471
:10044000950088E090E00E947C010E9416020E94C4
:100450000B0180932D038F3F11F00E94D4018091F6
:10046000240280FD03C00E94FF00F1CF0E9405011D
:06047000EECFF894FFCF6F
:1004760054782066726F6D2041546D656761203235
:100486003536303E2048656C6C6F2045535033320C
:04049600210A000037
:00000001FF
