:100000000C94C8000C9418070C94E9000C94E900B7
:100010000C94E9000C9480090C945B090C94E900A1
:100020000C94E9000C94E9000C94E9000C94E900AC
:100030000C94E9000C94E9000C94E9000C94120B68
:100040000C94E9000C94E9000C94E9000C94E9008C
:100050000C94E9000C94E9000C94E9000C94E9007C
:100060000C94E9000C94860B0C94BF0B0C94E900E3
:100070000C94E9000C94E9000C94E9000C94E9005C
:100080000C94E9000C94E9000C94E9000C94E9004C
:100090000C94E9000C94E9000C94E9000C94E9003C
:1000A0000C94E9000C94E9000C94E9000C94E9002C
:1000B0000C94E9000C94E9000C94E9000C94E9001C
:1000C0000C94E9000C94E9000C94E9000C94E9000C
:1000D0000C94E9000C94E9000C94900C0C94C90C5D
:1000E0000C94E900A702AC02BA02CC02D102DF02F2
:1000F000F10207634236B79BD8A71A39685618AE83
:10010000BAAB558C1D3CB7CC5763BD6DEDFD753E4C
:10011000F6177231BF000000803F08000000BE9259
:100120002449123EABAAAA2ABECDCCCC4C3E00003C
:100130000080BEABAAAAAA3E00000000BF000000DB
:10014000803F0000000000084178D3BB4387D113F3
:100150003D190E3CC3BD4282AD2B3E68EC8276BE9B
:10016000D98FE1A93E4C80EFFFBE01C4FF7F3F0065
:10017000000000000C94BA020C94DF020C94AC0254
:100180000C94A7020C94F1020C94CC020C94D102B2
:1001900011241FBECFEFD1E2DEBFCDBF00E00CBF08
:1001A00012E0A0E0B2E0EAEDF2E200E00BBF02C034
:1001B00007900D92AA3FB107D9F725E0AAEFB2E068
:1001C00001C01D92A535B207E1F70E949A0D0C946B
:1001D0006B110C9400009C01261B370BE4E6E29F98
:1001E000C001E39F900D11249A01261B370BB90122
:1001F0000E94B30D77FD05C06536710524F4862F86
:10020000089580E0089584E60895CF9383E00E94E6
:10021000A20680930D0382E00E94A20680930C0345
:1002200081E00E94A206C82F80930B034091030334
:1002300050910403609104027091050280910D03B6
:1002400090E00E94EB0080930A03409101035091DB
:10025000020360910202709103028C2F90E00E94D1
:10026000EB00809308034091FF02509100036091DE
:1002700000027091010280910C0390E00E94EB005B
:1002800080930903CF9108950E94050180910D0389
:1002900090E020910303309104032817390724F4D8
:1002A000909304038093030320910402309105028C
:1002B0008217930724F4909305028093040280919F
:1002C0000C0390E02091FF023091000328173907BA
:1002D00024F4909300038093FF0220910002309158
:1002E00001028217930724F4909301028093000285
:1002F00080910B0390E020910103309102032817B5
:10030000390724F4909302038093010320910202A1
:10031000309103028217930724F490930302809391
:100320000202089581E00E94D9090E94BA096DE78E
:100330008DE70E94F90A80E00E94D9098A3591056B
:100340001CF40E944401F7CF81E00E94D9090E9469
:10035000B30980E00E94D909843B91051CF40E94F6
:100360004401F7CF81E00E94D9090E94BA0980E0D8
:100370000E94D9098A3591051CF40E944401F7CFE7
:100380000C94D5098F929F92AF92BF92CF92DF9239
:10039000EF92FF920E940501E0900803F12CC090BB
:1003A0000A03D12CB7016C197D09072E000C880BAC
:1003B000990B0E94E60E4B015C0180910903B60186
:1003C000680F711D6E0D7F1D072E000C880B990B99
:1003D0000E94E60E20E030E040E85FE30E94D00D8E
:1003E0009B01AC01C501B4010E943C0E20E030E04D
:1003F0004FE753E40E94720F4B015C019B01AC017B
:1004000060910E0370910F0380911003909111037E
:100410000E94CF0D2FE632E143E05BE30E94720FB2
:100420000E94AE0E6B017C0120E030E040E05FE313
:10043000C501B4010E94720F0E94AE0EC60ED71EF7
:1004400080920E0390920F03A0921003B0921103BA
:1004500068EC70E06C197D09C60188539F4F6F3FAF
:10046000710509F02CF477FF05C060E070E002C070
:100470006FEF70E08F3F910509F02CF497FF05C0F6
:1004800080E090E002C08FEF90E0FF90EF90DF906F
:10049000CF90BF90AF909F908F900C94F90AEF92FD
:1004A000FF920F931F93CF93DF9300E010E0C0E023
:1004B000D0E0E82EF12C0E151F050CF0A7C080919E
:1004C0000C03803108F49FC080910D03803108F047
:1004D0009AC080910B03803108F095C00E940501FD
:1004E00091E080910D038B3008F090E09093FE0234
:1004F00081E020910B032B3008F080E08093FD0217
:1005000041E020910C032B3008F040E04093FC02C6
:10051000990F990F440F492BE42FE82BE093FB022E
:100520004E2FEE0F550B660B770BFA013197E73024
:10053000F10530F48827EE58FF4F8F4F0C94C70D0C
:100540000E94A5096FEA8DE70E94F90AB8CF0E94C0
:10055000C1096DE780E012C00E94A5096AEA8AEA33
:100560000E94F90A2FEF8FE392E0215080409040E3
:10057000E1F746C00E94B3096FEA8DE70E94F90ACD
:100580002FEF8FE392E0215080409040E1F700C0D0
:100590000000C1E0D0E093CF0E94C60960E08DE783
:1005A00012C00E94A5096FEA8FEA0E94F90A2FEF94
:1005B0008FE794E0215080409040E1F721C00E94F5
:1005C000BA096DE78FEA0E94F90A2FEF8FE392E0F4
:1005D000215080409040E1F700C00000C0E0D0E032
:1005E0006ECF209719F40E94BA0902C00E94B30985
:1005F0006DE78DE70E94F90A8FEF97E40197F1F715
:1006000000C000005CCF0F5F1F4F55CF8FE590E01B
:100610000E94A10ADF91CF911F910F91FF90EF905F
:100620000C94D5090F931F93CF93DF93082F0E944B
:10063000A509C0E0D0E010E0C017D107D4F40E94B3
:10064000C20180910C038D31D0F380910D038D3167
:1006500020F480910B038D3190F30E94D50968EC52
:1006600088EC0E94F90A8FE590E00E94A10A219689
:10067000E3CFDF91CF911F910F9108956FEA8FEA39
:100680000E94F90A85E590E00E94B50A6FEA8FEAB8
:100690000E94F90A0E94B3090E94050180910C038F
:1006A0008031D0F30C94D5096FEA8FEA0E94F90AE1
:1006B00085E590E00E94BF0A6FEA8FEA0E94F90A7E
:1006C0000E94BA090E94050180910C038031D0F389
:1006D0000C94D5090E947F060E9486060E941D0484
:1006E0000E9492040E9440070E9451070E9408093C
:1006F0000E940F090E941A090E9421090E942F09D5
:100700000C947E0B81E00E94120366E472E086E0A6
:1007100092E00E94641186E092E00E94840B81E0E6
:100720000E9412036FE472E086E092E00E9464117E
:1007300086E092E00E94840B6FEA8FEA0E94F90A39
:100740008AE590E00E94B50A68E572E086E092E0F2
:100750000E94641186E092E00E94840B68EC88ECB1
:100760000E94F90A84EB90E00E94A10A6CE672E014
:1007700086E092E00E94641186E092E00E94840B81
:100780000E94B9080E947C0B0E94C1040E94B90813
:100790000E94EE0484EB90E00E94AB0A64E872E0F1
:1007A00086E092E00E94641186E092E00E94840B51
:1007B0000E943E0361E972E086E092E00E946411CB
:1007C00086E092E00E94840B81E00E94120366E4BE
:1007D00072E086E092E00E94641186E092E00E945E
:1007E000840B81E00E9412036BE972E086E092E0E4
:1007F0000E94641186E092E00E94840B8AEA92E0F3
:100800000C942A050E946A030E9492010E94740BB4
:10081000833541F40E94C10483E50E94EE040E94E6
:1008200082030AC02FEF8FE794E021508040904070
:10083000E1F700C00000EACFFFCF87B1876087B93A
:1008400087B1806F87B988B1887F88B988B18F7088
:1008500088B9089586E69EE00197F1F70000409878
:10086000419880E388B9429AEFEFF7E43197F1F7C6
:1008700000C000004298E6E6FEE03197F1F7000084
:100880004098419888B9429AEFEFF7E43197F1F731
:1008900000C000004298E6E6FEE03197F1F7000064
:1008A0004098419888B9429A8FEF97E40197F1F701
:1008B00000C000004298E6E6FEE03197F1F7000044
:1008C0004098419880E288B9429A8FEF97E4019767
:1008D000F1F700C000004298089598B19F7098B950
:1008E00098B1282F207F922B98B940984198429A2E
:1008F000EFEFF7E43197F1F700C00000429898B1AC
:100900009F7098B998B18295807F892B88B940985B
:100910004198429A8FEF97E40197F1F700C00000E9
:10092000429808950E942A0486E69EE00197F1F716
:10093000000088E20E946D0481E00E946D0486E060
:100940000E946D048EE00E946D0480E80C946D049A
:1009500080E80C946D04982F862F923059F01CF487
:10096000913031F00895933039F0943039F0089592
:10097000815805C0815403C08D5601C08D520C941E
:100980006D0481E00C946D04CF93C42F0E94AB04DE
:1009900088B18F7088B988B19C2F907F892B88B9D6
:1009A000409A4198429A8FEF97E40197F1F700C07F
:1009B00000004298C295C07F88B18F7088B988B115
:1009C000C82BC8B9409A4198429A8FEF97E4019793
:1009D000F1F700C000004298CF91089598B19F7040
:1009E00098B998B1282F207F922B98B9409A4198B6
:1009F000429AEFEFF7E43197F1F700C00000429818
:100A00008295807F98B19F7098B998B1892B88B9E9
:100A1000409A4198429A8FEF97E40197F1F700C00E
:100A20000000429808950F931F93CF93DF93D82F20
:100A3000C62F8A01F80141918F01442331F06C2FB8
:100A40008D2F0E94C404CF5FF5CFDF91CF911F910E
:100A50000F910895CF93DF93EC018991882319F0CA
:100A60000E94EE04FACFDF91CF910895EF92FF92AA
:100A70000F931F93CF93DF93D82FC62F8A0179014D
:100A80000E94AB0417FF09C01195019511094DE2B1
:100A90006C2F8D2F0E94C404CF5FDD2311F0C11194
:100AA00003C00E94A80404C06C2F8D2F0E94AB04C9
:100AB00085E0E816F10409F07FC0C80160E177E243
:100AC0000E94B30DAB01405D5F4F50931303409301
:100AD00012036C2F8D2F0E94C404CF5FC80168EEF3
:100AE00073E00E94B30DCB0170931D0360931C0350
:100AF0006AE070E00E949F0DAC01405D5F4F509333
:100B00001503409314036C2F8D2F0E94C404CF5FF4
:100B1000C80164E670E00E94B30DCB0170931D0321
:100B200060931C036AE070E00E949F0DAC01405D81
:100B30005F4F50931703409316036C2F8D2F0E9425
:100B4000C404CF5F2AE030E0C801B9010E94B30DB0
:100B5000CB0170931D0360931C03B9010E949F0D8C
:100B6000AC01405D5F4F50931903409318036C2F05
:100B70008D2F0E94C404CF5FC8016AE070E00E941C
:100B8000B30DAC01405D5F4F50931B0340931A03BC
:100B90006C2F8D2F0E94C404CF5F86E0E816F1040D
:100BA000FCF045E46C2F8D2FDF91CF911F910F91B9
:100BB000FF90EF900C94C40484E0E816F10409F46B
:100BC0008DCF83E0E816F10409F4A2CF82E0E816A5
:100BD000F10409F4B7CF81E0E816F104F1F6CCCFC7
:100BE000DF91CF911F910F91FF90EF9008950F9398
:100BF0001F93CF93DF938A01E901882311F06111DC
:100C000003C00E94A80402C00E94AB04C530D105F5
:100C100009F061C0C80160E177E20E949F0DCB013D
:100C2000C09690931303809312030E94EE04C801B0
:100C300068EE73E00E949F0DCB0170931D036093DB
:100C40001C036AE070E00E949F0DC096909315030C
:100C5000809314030E94EE04C80164E670E00E94D1
:100C60009F0DCB0170931D0360931C036AE070E03D
:100C70000E949F0DC09690931703809316030E94C5
:100C8000EE042AE030E0C801B9010E949F0DCB01BB
:100C900070931D0360931C03B9010E949F0DC096C1
:100CA00090931903809318030E94EE04C8016AE030
:100CB00070E00E949F0DC09690931B0380931A03CF
:100CC0000E94EE042697B4F085E4DF91CF911F9146
:100CD0000F910C94EE04C430D10509F4A8CFC330B1
:100CE000D10509F4B9CFC230D10559F2C130D105CF
:100CF00049F7DCCFDF91CF911F910F91089510BA82
:100D000011BA10920701109208010895EAE7F0E085
:100D1000808186688083808186788083EBE7F0E03D
:100D20008081807B8083ECE7F0E080818076808327
:100D300080818064808380818062808380B78068C6
:100D400080BF0895883028F090917B009860909340
:100D50007B0090917C008770892B80937C00809130
:100D60007A00806480937A0080917A0084FFFCCFBF
:100D70008091790090917A00906190937A0090919F
:100D80007B00977F90937B0090917C00907E909366
:100D90007C000895682F70E080E090E00E94E40EEF
:100DA0002FEE39EC43E95FE30E94DF0F9B01AC01BA
:100DB00060E070E080E89FE30E943C0E2AE939EF92
:100DC0004EE255E40E94720F20E030E040E251E430
:100DD0000E94720F0E94AE0ECB016132734010F080
:100DE00080E293E00895CF93DF93C82FD62F842F0E
:100DF0000E94A20680932B03482F50E023E030E0AE
:100E00006D2F8C2FDF91CF910C9436058AB18E6FA8
:100E10008AB9589A08950E941D040C940607F89404
:100E2000E9E6F0E0808182608083E89A7894089512
:100E30001F920F920FB60F9211248F939F93AF932F
:100E4000BF938091380390913903A0913A03B091F8
:100E50003B030196A11DB11D809338039093390384
:100E6000A0933A03B0933B03BF91AF919F918F91B1
:100E70000F900FBE0F901F9018955C9A5D9A089581
:100E8000F8940E9406070E940F0778940C943D077F
:100E90005E985F9808955E9A5F9A08955E985F9A4B
:100EA00008955E9A5F9808950E944807109238034B
:100EB0001092390310923A0310923B032FEF8FE701
:100EC00094E0215080409040E1F700C00000809104
:100ED000380390913903A0913A03B0913B0380937A
:100EE000340390933503A0933603B093370361E046
:100EF00081E00E94AB0463EB72E088E292E00E9422
:100F0000641188E292E00E942A05409134035091D6
:100F10003503609136037091370325E030E061E0DE
:100F200082E00E94F7052FEF8FEF9CE22150804076
:100F30009040E1F700C0000081E00C946D040E9435
:100F40004B07109238031092390310923A03109213
:100F50003B032FEF8FE794E0215080409040E1F772
:100F600000C000008091380390913903A0913A03AA
:100F7000B0913B0380932C0390932D03A0932E03F9
:100F8000B0932F0361E081E00E94AB046EEB72E04E
:100F900088E292E00E94641188E292E00E942A05B1
:100FA00040912C0350912D0360912E0370912F03DB
:100FB00025E030E061E082E00E94F7052FEF8FEF3F
:100FC0009CE2215080409040E1F700C0000081E0A9
:100FD0000C946D040E944E0710923803109239034E
:100FE00010923A0310923B032FEF8FE794E02150C9
:100FF00080409040E1F700C000008091380390915C
:101000003903A0913A03B0913B038093300390934E
:101010003103A0933203B093330361E081E00E9477
:10102000AB046BEC72E088E292E00E94641188E20B
:1010300092E00E942A054091300350913103609163
:1010400032037091330325E030E061E082E00E94DA
:10105000F7052FEF8FEF9CE2215080409040E1F7A1
:1010600000C0000081E00C946D040E9448071092BB
:1010700038031092390310923A0310923B032FEF7A
:101080008FE794E0215080409040E1F700C00000DD
:101090008091380390913903A0913A03B0913B03BA
:1010A0008093340390933503A0933603B0933703B2
:1010B000609134037091350380913603909137032A
:1010C00008950E944B071092380310923903109232
:1010D0003A0310923B032FEF8FE794E021508040BA
:1010E0009040E1F700C000008091380390913903EF
:1010F000A0913A03B0913B0380932C0390932D036E
:10110000A0932E03B0932F0360912C0370912D03B5
:1011100080912E0390912F0308950E944E07109204
:1011200038031092390310923A0310923B032FEFC9
:101130008FE794E0215080409040E1F700C000002C
:101140008091380390913903A0913A03B0913B0309
:101150008093300390933103A0933203B093330311
:101160006091300370913103809132039091330389
:1011700008958F929F92AF92BF92CF92DF92EF929B
:10118000FF920E9435086B017C010E948D084B0183
:101190005C010E94610827E0C21626E1D206E10444
:1011A000F10430F0623022E172078105910500F50B
:1011B0008C149D04AE04BF0428F46C157D058E05C7
:1011C0009F05C0F0C814D904EA04FB0428F468158C
:1011D00079058A059B0580F086169706A806B9064C
:1011E00068F4C616D706E806F90640F487E407C097
:1011F00087E505C082E503C082E401C080E3FF907B
:10120000EF90DF90CF90BF90AF909F908F90089518
:1012100081B18F6081B982B1807F82B90895EAE09F
:10122000F1E0808188618083EBE0F1E0808188617A
:10123000808308958DB18F7C8DB98EB180638EB916
:101240000895F8948DB380638DBBEAE6F0E0808169
:101250008A60808380818A7F808378940895E1E228
:10126000F1E010828FEF8093250191E090932401AB
:10127000109229018093280110922B0180932A015A
:10128000A0E2B1E08C91806A8C938C918F7A8C93E0
:101290008C9181608C938C918D7F8C938081886000
:1012A000808380818F7E8083808183608083808142
:1012B0008B7F808308951F920F920FB60F92112497
:1012C0008F939F93AF93BF9380913E0390913F0381
:1012D000A0914003B09141030196A11DB11D8093DF
:1012E0003E0390933F03A0934003B0934103BF910B
:1012F000AF919F918F910F900FBE0F901F901895F7
:101300001F920F920FB60F9211248F939F93AF935A
:10131000BF938091420390914303A0914403B09105
:1013200045030196A11DB11D809342039093430391
:10133000A0934403B0934503BF91AF919F918F91C8
:101340000F900FBE0F901F90189582B1867F82B9C3
:1013500082B1866082B9089582B1897F82B982B1F3
:10136000896082B9089582B1857F82B982B1856032
:1013700082B9089582B18A7F82B982B18A6082B9C6
:10138000089582B1887F82B9129A089582B1827FCE
:1013900082B9119A089582B1817F82B9109A089515
:1013A00082B1887F82B9139A089582B1807F82B911
:1013B00008950F931F93813099F410923E03109279
:1013C0003F03109240031092410310924203109287
:1013D0004303109244031092450380E090E029C03B
:1013E00040913E0350913F0360914003709141034F
:1013F0008091420390914303A0914403B09145032F
:101400008A019B01080F191F2A1F3B1FC901B80140
:101410000E94E40E28E431EE42E850E40E94720F8C
:1014200020E030E040E05FE30E94720F0E94AE0EC9
:10143000CB011F910F910895BC0180E090E00E94C4
:10144000E40E28E431EE42E850E40E943C0E0E9493
:10145000B50ECB01A0E0B0E010923E0310923F0326
:1014600010924003109241031092420310924303E2
:10147000109244031092450340913E0350913F0364
:101480006091400370914103481759076A077B0731
:1014900098F440914203509143036091440370914A
:1014A0004503481759076A077B0730F4E6E6FEE074
:1014B0003197F1F70000E0CF0C94D5090F931F93FB
:1014C000BC0180E090E00E94E40E25EE30ED4AEA97
:1014D00050E40E943C0E0E94B50E10923E03109202
:1014E0003F03109240031092410310924203109266
:1014F0004303109244031092450300913E03109160
:101500003F03209140033091410306171707280736
:10151000390798F40091420310914303209144034A
:1015200030914503061717072807390730F4E6E618
:10153000FEE03197F1F70000E0CF1F910F910C947E
:10154000D509CF93DF93EC010E94A509CE01DF916D
:10155000CF910C945E0ACF93DF93EC010E94AC090B
:10156000CE01DF91CF910C945E0ACF93DF93EC0113
:101570000E94B309CE01DF91CF910C941C0ACF9346
:10158000DF93EC010E94BA09CE01DF91CF910C9458
:101590001C0ACF93DF93EC010E94C109CE01880F92
:1015A000991FDF91CF910C941C0ACF93DF93EC012C
:1015B0000E94C609CE01880F991FDF91CF910C942C
:1015C0001C0ACF93DF93EC010E94CB09CE01880F58
:1015D000991FDF91CF910C941C0ACF93DF93EC01FC
:1015E0000E94D009CE01880F991FDF91CF910C94F2
:1015F0001C0A8093280160932A010895F894E1EB76
:10160000F0E0108282E88093B200B898A0E7B0E0E2
:101610008C9181608C931092B00080818560808372
:10162000789408951F920F920FB60F9211240BB663
:101630000F922F933F934F935F936F937F938F936B
:101640009F93AF93BF93EF93FF9380914903909142
:101650004A03019690934A0380934903809149037A
:1016600090914A03883E934088F08091470390917F
:1016700048030196909348038093470387ED92E0D7
:101680000E946A0D10924A031092490382E88093E7
:10169000B200B898FF91EF91BF91AF919F918F9158
:1016A0007F916F915F914F913F912F910F900BBE62
:1016B0000F900FBE0F901F901895E1E0F1E0808130
:1016C00080628083E2E0F1E080818062808308951F
:1016D000E2E0F1E080818F7D80830895E2E0F1E037
:1016E00080818062808308950E94140D911102C050
:1016F000811108958FEF08950C94510D87E090E0CB
:101700000E94F90C0C94930D0C946A0D1F920F9289
:101710000FB60F9211240BB60F922F933F934F9356
:101720005F938F939F93EF93FF932091C00030912D
:10173000C60028718091520490E001968F77992716
:101740004091510450E08417950739F0809352047A
:10175000FC01EB5AFB4F308301C022E02093500480
:10176000FF91EF919F918F915F914F913F912F91B9
:101770000F900BBE0F900FBE0F901F9018951F92E9
:101780000F920FB60F9211240BB60F928F939F9367
:10179000EF93FF939091540480915304981779F03C
:1017A0008091530490E001968F779927809353049A
:1017B000FC01EB52FB4F80818093C60005C08091F5
:1017C000C1008F7D8093C100FF91EF919F918F9118
:1017D0000F900BBE0F900FBE0F901F901895F894AE
:1017E0001092540410925304109252041092510417
:1017F000789497FF04C022E02093C0009F779093D5
:10180000C5008093C40088E98093C10086E080937E
:10181000C2000895F8949091520480915104981355
:1018200004C0789480E091E0089578948091510408
:1018300090E001968F77992780935104FC01EB5A31
:10184000FB4F20818091500490E0982F8827820FD1
:10185000911D0895F8949091520480915104981329
:1018600004C0789480E091E008957894E091510468
:10187000F0E03196EF77FF27EB5AFB4F2081809104
:10188000500490E0982F8827820F911D0895209191
:10189000540430E02F5F3F4F2F773327409153049C
:1018A00050E024173507D1F3F901EB52FB4F808349
:1018B000209354048091C10080628093C1000895F8
:1018C000CF93DF93EC018991882319F00E94470C94
:1018D000FACFDF91CF910895CF93DF93FC018491EC
:1018E000EF012196882321F00E94470CFE01F7CFDB
:1018F000DF91CF910895F894809152042091510482
:10190000789490E080589F4F821B91098F77992798
:101910000895F89480915104809352047894089526
:101920001F920F920FB60F9211240BB60F922F93A6
:101930003F934F935F938F939F93EF93FF932091E8
:10194000300130913601287180914D0390E001966D
:101950008F77992740914C0350E08417950739F011
:1019600080934D03FC01E05BFC4F308301C022E01B
:1019700020934B03FF91EF919F918F915F914F9136
:101980003F912F910F900BBE0F900FBE0F901F90A5
:1019900018951F920F920FB60F9211240BB60F924B
:1019A0008F939F93EF93FF9390914F0380914E03FA
:1019B000981779F080914E0390E001968F779927E0
:1019C00080934E03FC01E053FC4F808180933601ED
:1019D00005C0809131018F7D80933101FF91EF919E
:1019E0009F918F910F900BBE0F900FBE0F901F9085
:1019F0001895F89410924F0310924E0310924D03D5
:101A000010924C03789497FF04C022E02093300199
:101A10009F77909335018093340188E98093310159
:101A200086E0809332010895F89490914D0380915F
:101A30004C03981304C0789480E091E00895789462
:101A400080914C0390E001968F77992780934C0307
:101A5000FC01E05BFC4F208180914B0390E0982FCC
:101A60008827820F911D0895F89490914D038091DD
:101A70004C03981304C0789480E091E00895789422
:101A8000E0914C03F0E03196EF77FF27E05BFC4FED
:101A9000208180914B0390E0982F8827820F911D21
:101AA000089520914F0330E02F5F3F4F2F7733276A
:101AB00040914E0350E024173507D1F3F901E0536C
:101AC000FC4F808320934F0380913101806280938B
:101AD00031010895CF93DF93EC018991882319F0A8
:101AE0000E94510DFACFDF91CF910895CF93DF93EC
:101AF000FC018491EF012196882321F00E94510D71
:101B0000FE01F7CFDF91CF910895F89480914D03B6
:101B100020914C03789490E080589F4F821B91094C
:101B20008F7799270895F89480914C0380934D0303
:101B3000789408950E94020480E090E00895AA1B22
:101B4000BB1B51E107C0AA1FBB1FA617B70710F0A8
:101B5000A61BB70B881F991F5A95A9F780959095DA
:101B6000BC01CD01089597FB072E16F4009407D011
:101B700077FD09D00E949F0D07FC05D03EF490959B
:101B800081959F4F0895709561957F4F0895EE0F51
:101B9000FF1F881F8BBF0790F691E02D19945058B6
:101BA000BB27AA270E94E70D0C94380F0E942A0F2A
:101BB00038F00E94310F20F039F49F3F19F426F4D9
:101BC0000C94270F0EF4E095E7FB0C94210FE92FFE
:101BD0000E94490F58F3BA176207730784079507E5
:101BE00020F079F4A6F50C946B0F0EF4E0950B2E13
:101BF000BA2FA02D0B01B90190010C01CA01A0015F
:101C00001124FF27591B99F0593F50F4503E68F1B9
:101C10001A16F040A22F232F342F4427585FF3CFFA
:101C2000469537952795A795F0405395C9F77EF4CB
:101C30001F16BA0B620B730B840BBAF09150A1F014
:101C4000FF0FBB1F661F771F881FC2F70EC0BA0F9A
:101C5000621F731F841F48F4879577956795B79522
:101C6000F7959E3F08F0B0CF9395880F08F099271D
:101C7000EE0F9795879508950E94500E0C94380F9B
:101C80000E94310F58F00E942A0F40F029F45F3F64
:101C900029F00C94210F51110C946C0F0C94270F08
:101CA0000E94490F68F39923B1F3552391F3951BD3
:101CB000550BBB27AA2762177307840738F09F5F6D
:101CC0005F4F220F331F441FAA1FA9F335D00E2EDA
:101CD0003AF0E0E832D091505040E695001CCAF747
:101CE0002BD0FE2F29D0660F771F881FBB1F26170A
:101CF00037074807AB07B0E809F0BB0B802DBF01E1
:101D0000FF2793585F4F3AF09E3F510578F00C94AF
:101D1000210F0C946C0F5F3FE4F3983ED4F386954B
:101D200077956795B795F7959F5FC9F7880F911DD0
:101D30009695879597F90895E1E0660F771F881FBC
:101D4000BB1F621773078407BA0720F0621B730B6F
:101D5000840BBA0BEE1F88F7E09508950E94B50E2C
:101D60006894B1110C946C0F08950E94510F88F083
:101D70009F5798F0B92F9927B751B0F0E1F0660F4F
:101D8000771F881F991F1AF0BA95C9F714C0B13090
:101D900091F00E946B0FB1E008950C946B0F672FC8
:101DA000782F8827B85F39F0B93FCCF386957795BF
:101DB0006795B395D9F73EF49095809570956195A8
:101DC0007F4F8F4F9F4F0895E89409C097FB3EF4D3
:101DD00090958095709561957F4F8F4F9F4F992378
:101DE000A9F0F92F96E9BB279395F69587957795F6
:101DF0006795B795F111F8CFFAF4BB0F11F460FFB6
:101E00001BC06F5F7F4F8F4F9F4F16C0882311F00D
:101E100096E911C0772321F09EE8872F762F05C021
:101E2000662371F096E8862F70E060E02AF09A95BC
:101E3000660F771F881FDAF7880F9695879597F9B1
:101E4000089597F99F6780E870E060E008959FEF3C
:101E500080EC089500240A94161617061806090641
:101E6000089500240A941216130614060506089510
:101E7000092E0394000C11F4882352F0BB0F40F498
:101E8000BF2B11F460FF04C06F5F7F4F8F4F9F4FD8
:101E9000089557FD9058440F551F59F05F3F71F05A
:101EA0004795880F97FB991F61F09F3F79F08795C1
:101EB0000895121613061406551FF2CF4695F1DF4A
:101EC00008C0161617061806991FF1CF86957105DA
:101ED000610508940895E894BB2766277727CB010E
:101EE00097F908950E94850F0C94380F0E942A0FCD
:101EF00038F00E94310F20F0952311F00C94210F3F
:101F00000C94270F11240C946C0F0E94490F70F34E
:101F1000959FC1F3950F50E0551F629FF001729F8E
:101F2000BB27F00DB11D639FAA27F00DB11DAA1F9D
:101F3000649F6627B00DA11D661F829F2227B00DEA
:101F4000A11D621F739FB00DA11D621F839FA00D75
:101F5000611D221F749F3327A00D611D231F849FC5
:101F6000600D211D822F762F6A2F11249F5750401C
:101F70009AF0F1F088234AF0EE0FFF1FBB1F661F97
:101F8000771F881F91505040A9F79E3F510580F060
:101F90000C94210F0C946C0F5F3FE4F3983ED4F344
:101FA000869577956795B795F795E7959F5FC1F704
:101FB000FE2B880F911D9695879597F90895FA0144
:101FC000EE0FFF1F309621053105A1F16115710556
:101FD00061F48038BFE39B0749F16894903881052C
:101FE00061F08038BFEF9B0741F099234AF5FF3F2E
:101FF000E1053105210519F1E8940894E795D90127
:10200000AA2329F4AB2FBE2FF85FD0F310C0FF5FD7
:1020100070F4A695E0F7F73950F019F0FF3A38F46C
:102020009F779F930DD00F9007FC9058089546F02E
:102030000C94270F60E070E080E89FE308954FE77D
:102040009F775F934F933F932F930E94DA102F91C6
:102050003F914F915F910E94720F0C94371029F4B9
:1020600016F00C94210F0C946B0F0C94270F0E9408
:10207000510FA8F39638A0F707F80F92E8942BE3D6
:102080003AEA48EB5FE70E94880F0F920F920F9297
:102090004DB75EB70F920E942211E2EFF0E00E946E
:1020A00069104F915F91EF91FF91E595EE1FFF1F32
:1020B00049F0FE57E0684427EE0F441FFA95E1F718
:1020C0004195550B0E949C100F9007FE0C949010A8
:1020D0000895DF93CF931F930F93FF92EF92DF92B8
:1020E0007B018C01689406C0DA2EEF010E94850FF7
:1020F000FE01E894A5912591359145915591A6F35E
:10210000EF010E94E70DFE019701A801DA9469F73B
:10211000DF90EF90FF900F911F91CF91DF91089585
:102120009B01AC0160E070E080E89FE30C943C0E02
:102130000C94210F0C9456110E94510FD8F399233F
:10214000C9F3940F511DA3F39150504094F059F0EE
:10215000882332F0660F771F881F91505040C1F7D7
:102160009E3F51052CF7880F911D9695879597F9FD
:1021700008955F3FACF0983E9CF0BB27869577951D
:102180006795B79508F4B1609395C1F7BB0F58F701
:1021900011F460FFE8CF6F5F7F4F8F4F9F4FE3CF0A
:1021A0000C946C0F16F00C9456110C94270F689435
:1021B0000C94210F0E94510FA8F39923C1F3AEF3A1
:1021C000DF93CF931F930F93FF92C92FDD278823AF
:1021D0002AF02197660F771F881FDAF720E030E09A
:1021E00040E85FEB9FE3883920F0803E38F021968D
:1021F0008F770E94D00DEAE1F1E004C00E94D00D7B
:10220000E7E4F1E00E9469108B01BE01EC01FB2EB6
:102210006F5771097595771F880B990B0E94E60E11
:1022200028E132E741E35FE30E94850FAF2D98017B
:10223000AE01FF900F911F91CF91DF910E94E70DAA
:102240000C94380FFA01DC01AA0FBB1F9B01AC01F3
:10225000BF5728F4222733274427507820C0B7518E
:1022600090F4AB2F0024469537952795011CA39534
:10227000D2F3002071F0220F331F441FB395DAF31D
:102280000ED00C94CF0D61307105A0E88A07B946D5
:1022900030F49B01AC016627772788279078309629
:1022A00021F0208331834283538308959F3F31F08F
:1022B000915020F4879577956795B795880F911D74
:1022C0009695879597F90895FB01DC0101900D9291
:0A22D0000020E1F70895F894FFCF15
:1022DA00FF0FFF0FFF0F48656C6C6F2C20492061C0
:1022EA006D20612046697265626972642D2D2D2DFB
:1022FA002D2D2D2D20560A0048656C6C6F20576FC6
:10230A00726C64204920616D2061204669726562A1
:10231A00697264205600317374204E6F6465004DF3
:10232A006964204E6F6465003930204465677265C0
:10233A0065204C656674207475726E0043656E7410
:10234A006572206F6620626C6F636B2072656163D1
:10235A00686564004261636B206F6E206C696E650C
:10236A00004C656674205475726E00537461727401
:10237A00204C6F636174696F6E0046696E69736899
:10238A006564005265642050756C7365730047720A
:10239A0065656E2050756C73657300426C756520B7
:1023AA0050756C7365730054782066726F6D2041A6
:1023BA00546D65676120323536303E2048656C6C55
:0A23CA006F204553503332210A0002
:00000001FF
