:100000000C94C8000C94B1040C94E9000C94E90021
:100010000C94E9000C9419070C94F4060C94E90074
:100020000C94E9000C94E9000C94E9000C94E900AC
:100030000C94E9000C94E9000C94E9000C940A0D6E
:100040000C94E9000C94E9000C94E9000C94E9008C
:100050000C94E9000C94E9000C94E9000C94E9007C
:100060000C94E9000C94C0080C94F9080C94E90075
:100070000C94E9000C94E9000C94E9000C94E9005C
:100080000C94E9000C94E9000C94E9000C94E9004C
:100090000C94E9000C94E9000C94E9000C94E9003C
:1000A0000C94E9000C94E9000C94E9000C94E9002C
:1000B0000C94E9000C94E9000C94E9000C94E9001C
:1000C0000C94E9000C94E9000C94E9000C94E9000C
:1000D0000C94E9000C94E9000C94CA090C94030AEE
:1000E0000C94E900280F2D0F3B0F4D0F520F600F9E
:1000F000720F07634236B79BD8A71A39685618AEF5
:10010000BAAB558C1D3CB7CC5763BD6DEDFD753E4C
:10011000F6177231BF000000803F08000000BE9259
:100120002449123EABAAAA2ABECDCCCC4C3E00003C
:100130000080BEABAAAAAA3E00000000BF000000DB
:10014000803F0000000000084178D3BB4387D113F3
:100150003D190E3CC3BD4282AD2B3E68EC8276BE9B
:10016000D98FE1A93E4C80EFFFBE01C4FF7F3F0065
:10017000000000000C943B0F0C944D0F0C942D0FBD
:100180000C94520F0C94600F0C94720F0C94280F67
:1001900011241FBECFEFD1E2DEBFCDBF00E00CBF08
:1001A00013E0A0E0B2E0EEE4FDE200E00BBF02C02D
:1001B00007900D92A43CB107D9F726E0A4ECB3E078
:1001C00001C01D92AD32B207E1F70E94EB0F0C9413
:1001D000A5160C9400000E9418040E941F040E949F
:1001E000B6010E942B020E94D9040E94EA040E94D8
:1001F000A1060E94A8060E94B3060E94BA060E94A9
:10020000C8060E947C0C0C94B808CF9381E00E9431
:10021000930F60E972E080E092E00E94B51380E005
:1002200092E00E94BE0881E00E94930F6AE972E0AA
:1002300080E092E00E94B51380E092E00E94BE0848
:100240006FEA8FEA0E9492088AE590E00E944E08C9
:1002500064EA72E080E092E00E94B51380E092E0F0
:100260000E94BE0868EC88EC0E94920884EB90E043
:100270000E943A0869EB72E080E092E00E94B513B8
:1002800080E092E00E94BE080E945206C82F0E94A1
:10029000B6080E945A028C2F0E948702C23519F4B8
:1002A0000E945C0C07C0C73419F40E94640C02C0A1
:1002B0000E946C0C84EB90E00E94440862ED72E0B6
:1002C00080E092E00E94B51380E092E00E94BE08B8
:1002D0000E94BF0F60EE72E080E092E00E94B513D2
:1002E00080E092E00E94BE0881E00E94930F60E9E6
:1002F00072E080E092E00E94B51380E092E00E94FC
:10030000BE0881E00E94930F6BEE72E080E092E005
:100310000E94B51380E092E00E94BE086BEF72E08D
:1003200080E092E00E94B51380E092E0CF910C94BF
:10033000C3020E94EB000E94130E65E073E080E0B0
:1003400092E00E94B51380E092E00E94BE080E94F5
:10035000FC0A0E94FC0A0E941A0C8823D1F30E9416
:10036000410C0E9405010E94820CF3CF87B1876087
:1003700087B987B1806F87B988B1887F88B988B11C
:100380008F7088B9089586E69EE00197F1F7000026
:100390004098419880E388B9429AEFEFF7E43197AB
:1003A000F1F700C000004298E6E6FEE03197F1F771
:1003B00000004098419888B9429AEFEFF7E43197EE
:1003C000F1F700C000004298E6E6FEE03197F1F751
:1003D00000004098419888B9429A8FEF97E40197BE
:1003E000F1F700C000004298E6E6FEE03197F1F731
:1003F00000004098419880E288B9429A8FEF97E4D4
:100400000197F1F700C000004298089598B19F70DD
:1004100098B998B1282F207F922B98B9409841988D
:10042000429AEFEFF7E43197F1F700C000004298ED
:1004300098B19F7098B998B18295807F892B88B9BF
:1004400040984198429A8FEF97E40197F1F700C0E6
:100450000000429808950E94C30186E69EE001973D
:10046000F1F7000088E20E94060281E00E94060285
:1004700086E00E9406028EE00E94060280E80C944C
:10048000060280E80C940602982F862F923059F0CD
:100490001CF4913031F00895933039F0943039F0F4
:1004A0000895815805C0815403C08D5601C08D52F6
:1004B0000C94060281E00C940602CF93C42F0E9494
:1004C000440288B18F7088B988B19C2F907F892BA6
:1004D00088B9409A4198429A8FEF97E40197F1F7D3
:1004E00000C000004298C295C07F88B18F7088B963
:1004F00088B1C82BC8B9409A4198429A8FEF97E4C7
:100500000197F1F700C000004298CF91089598B18B
:100510009F7098B998B1282F207F922B98B9409A54
:100520004198429AEFEFF7E43197F1F700C00000ED
:1005300042988295807F98B19F7098B998B1892B25
:1005400088B9409A4198429A8FEF97E40197F1F762
:1005500000C00000429808950F931F93CF93DF933C
:10056000D82FC62F8A01F80141918F01442331F021
:100570006C2F8D2F0E945D02CF5FF5CFDF91CF9161
:100580001F910F910895CF93DF93EC0189918823F8
:1005900019F00E948702FACFDF91CF910895EF9270
:1005A000FF920F931F93CF93DF93D82FC62F8A010B
:1005B00079010E94440217FF09C0119501951109A4
:1005C0004DE26C2F8D2F0E945D02CF5FDD2311F075
:1005D000C11103C00E94410204C06C2F8D2F0E94E4
:1005E000440285E0E816F10409F07FC0C80160E12B
:1005F00077E20E940410AB01405D5F4F5093C5034A
:100600004093C4036C2F8D2F0E945D02CF5FC80101
:1006100068EE73E00E940410CB017093CF036093E7
:10062000CE036AE070E00E94F00FAC01405D5F4FC6
:100630005093C7034093C6036C2F8D2F0E945D0219
:10064000CF5FC80164E670E00E940410CB01709394
:10065000CF036093CE036AE070E00E94F00FAC011C
:10066000405D5F4F5093C9034093C8036C2F8D2F9B
:100670000E945D02CF5F2AE030E0C801B9010E940C
:100680000410CB017093CF036093CE03B9010E9495
:10069000F00FAC01405D5F4F5093CB034093CA0312
:1006A0006C2F8D2F0E945D02CF5FC8016AE070E061
:1006B0000E940410AC01405D5F4F5093CD03409306
:1006C000CC036C2F8D2F0E945D02CF5F86E0E81671
:1006D000F104FCF045E46C2F8D2FDF91CF911F9139
:1006E0000F91FF90EF900C945D0284E0E816F10406
:1006F00009F48DCF83E0E816F10409F4A2CF82E07B
:10070000E816F10409F4B7CF81E0E816F104F1F638
:10071000CCCFDF91CF911F910F91FF90EF90089573
:100720000F931F93CF93DF938A01E901882311F080
:10073000611103C00E94410202C00E944402C53000
:10074000D10509F061C0C80160E177E20E94F00FB5
:10075000CB01C0969093C5038093C4030E94870287
:10076000C80168EE73E00E94F00FCB017093CF03D5
:100770006093CE036AE070E00E94F00FC096909301
:10078000C7038093C6030E948702C80164E670E035
:100790000E94F00FCB017093CF036093CE036AE009
:1007A00070E00E94F00FC0969093C9038093C80335
:1007B0000E9487022AE030E0C801B9010E94F00FD0
:1007C000CB017093CF036093CE03B9010E94F00F69
:1007D000C0969093CB038093CA030E948702C801FE
:1007E0006AE070E00E94F00FC0969093CD03809372
:1007F000CC030E9487022697B4F085E4DF91CF9165
:100800001F910F910C948702C430D10509F4A8CF31
:10081000C330D10509F4B9CFC230D10559F2C13086
:10082000D10549F7DCCFDF91CF911F910F9108954A
:1008300010BA11BA10920701109208010895EAE760
:10084000F0E0808186688083808186788083EBE712
:10085000F0E08081807B8083ECE7F0E0808180762F
:10086000808380818064808380818062808380B780
:10087000806880BF0895883028F090917B00986050
:1008800090937B0090917C008770892B80937C00F3
:1008900080917A00806480937A0080917A0084FF4E
:1008A000FCCF8091790090917A00906190937A00CA
:1008B00090917B00977F90937B0090917C00907E3D
:1008C00090937C000895682F70E080E090E00E9493
:1008D00035112FEE39EC43E95FE30E9430129B01A2
:1008E000AC0160E070E080E89FE30E948D102AE98F
:1008F00039EF4EE255E40E94C31120E030E040E2BF
:1009000051E40E94C3110E94FF10CB016132734079
:1009100010F080E293E00895CF93DF93C82FD62F95
:10092000842F0E943B048093DD03482F50E023E096
:1009300030E06D2F8C2FDF91CF910C94CF028AB1D4
:100940008E6F8AB9589A08950E94B6010C949F043C
:10095000F894E9E6F0E0808182608083E89A7894F8
:1009600008951F920F920FB60F9211248F939F93A9
:10097000AF93BF938091EA039091EB03A091EC03B6
:10098000B091ED030196A11DB11D8093EA039093F0
:10099000EB03A093EC03B093ED03BF91AF919F9154
:1009A0008F910F900FBE0F901F9018955C9A5D9AD3
:1009B0000895F8940E949F040E94A80478940C94CF
:1009C000D6045E985F9808955E9A5F9A08955E983F
:1009D0005F9A08955E9A5F9808950E94E1041092CC
:1009E000EA031092EB031092EC031092ED032FEF49
:1009F0008FE794E0215080409040E1F700C0000074
:100A00008091EA039091EB03A091EC03B091ED0388
:100A10008093E6039093E703A093E803B093E90380
:100A200061E081E00E9444026FE073E082E292E0C4
:100A30000E94B51382E292E00E94C3024091E60355
:100A40005091E7036091E8037091E90325E030E0FD
:100A500061E082E00E9490032FEF8FEF9CE2215033
:100A600080409040E1F700C0000081E00C94060255
:100A70000E94E4041092EA031092EB031092EC033C
:100A80001092ED032FEF8FE794E0215080409040CB
:100A9000E1F700C000008091EA039091EB03A09180
:100AA000EC03B091ED038093DE039093DF03A093FA
:100AB000E003B093E10361E081E00E9444026AE157
:100AC00073E082E292E00E94B51382E292E00E941B
:100AD000C3024091DE035091DF036091E003709107
:100AE000E10325E030E061E082E00E9490032FEF17
:100AF0008FEF9CE2215080409040E1F700C0000061
:100B000081E00C9406020E94E7041092EA0310921E
:100B1000EB031092EC031092ED032FEF8FE794E0BC
:100B2000215080409040E1F700C000008091EA032E
:100B30009091EB03A091EC03B091ED038093E2035D
:100B40009093E303A093E403B093E50361E081E0B5
:100B50000E94440267E273E082E292E00E94B513D1
:100B600082E292E00E94C3024091E2035091E303CB
:100B70006091E4037091E50325E030E061E082E0FC
:100B80000E9490032FEF8FEF9CE221508040904015
:100B9000E1F700C0000081E00C9406020E94E1042D
:100BA0001092EA031092EB031092EC031092ED0303
:100BB0002FEF8FE794E0215080409040E1F700C094
:100BC00000008091EA039091EB03A091EC03B091B7
:100BD000ED038093E6039093E703A093E803B093BB
:100BE000E9036091E6037091E7038091E803909137
:100BF000E90308950E94E4041092EA031092EB03C3
:100C00001092EC031092ED032FEF8FE794E0215048
:100C100080409040E1F700C000008091EA0390918D
:100C2000EB03A091EC03B091ED038093DE0390936E
:100C3000DF03A093E003B093E1036091DE037091C2
:100C4000DF038091E0039091E10308950E94E7049F
:100C50001092EA031092EB031092EC031092ED0352
:100C60002FEF8FE794E0215080409040E1F700C0E3
:100C700000008091EA039091EB03A091EC03B09106
:100C8000ED038093E2039093E303A093E403B09316
:100C9000E5036091E2037091E3038091E403909196
:100CA000E50308958F929F92AF92BF92CF92DF9209
:100CB000EF92FF920E94CE056B017C010E942606F6
:100CC0004B015C010E94FA0527E0C21626E1D2061C
:100CD000E104F10430F0623022E1720781059105F0
:100CE00000F58C149D04AE04BF0428F46C157D053A
:100CF0008E059F05C0F0C814D904EA04FB0428F44B
:100D0000681579058A059B0580F086169706A80662
:100D1000B90668F4C616D706E806F90640F487E473
:100D200007C087E505C082E503C082E401C080E317
:100D3000FF90EF90DF90CF90BF90AF909F908F90FB
:100D4000089581B18F6081B982B1807F82B90895A1
:100D5000EAE0F1E0808188618083EBE0F1E080816E
:100D60008861808308958DB18F7C8DB98EB1806349
:100D70008EB90895F8948DB380638DBBEAE6F0E0F8
:100D800080818A60808380818A7F808378940895BF
:100D9000E1E2F1E010828FEF8093250191E09093E2
:100DA0002401109229018093280110922B01809335
:100DB0002A01A0E2B1E08C91806A8C938C918F7AA9
:100DC0008C938C9181608C938C918D7F8C9380819E
:100DD0008860808380818F7E808380818360808330
:100DE00080818B7F808308951F920F920FB60F92A0
:100DF00011248F939F93AF93BF938091F0039091B1
:100E0000F103A091F203B091F3030196A11DB11D6E
:100E10008093F0039093F103A093F203B093F30354
:100E2000BF91AF919F918F910F900FBE0F901F9028
:100E300018951F920F920FB60F9211248F939F93C4
:100E4000AF93BF938091F4039091F503A091F603C3
:100E5000B091F7030196A11DB11D8093F403909307
:100E6000F503A093F603B093F703BF91AF919F9161
:100E70008F910F900FBE0F901F90189582B1867FB3
:100E800082B982B1866082B9089582B1897F82B9C0
:100E900082B1896082B9089582B1857F82B982B1B9
:100EA000856082B9089582B18A7F82B982B18A60F1
:100EB00082B9089582B1887F82B9129A089582B169
:100EC000827F82B9119A089582B1817F82B9109A86
:100ED000089582B1887F82B9139A089582B1807F84
:100EE00082B908950F931F93813099F41092F00303
:100EF0001092F1031092F2031092F3031092F40394
:100F00001092F5031092F6031092F70380E090E040
:100F100029C04091F0035091F1036091F203709168
:100F2000F3038091F4039091F503A091F603B0913F
:100F3000F7038A019B01080F191F2A1F3B1FC901D4
:100F4000B8010E94351128E431EE42E850E40E94D5
:100F5000C31120E030E040E05FE30E94C3110E9433
:100F6000FF10CB011F910F910895BC0180E090E02C
:100F70000E94351128E431EE42E850E40E948D10C1
:100F80000E940611CB01A0E0B0E01092F003109295
:100F9000F1031092F2031092F3031092F4031092F3
:100FA000F5031092F6031092F7034091F00350916D
:100FB000F1036091F2037091F303481759076A0730
:100FC0007B0798F44091F4035091F5036091F60388
:100FD0007091F703481759076A077B0730F4E6E674
:100FE000FEE03197F1F70000E0CF0C946E070F930D
:100FF0001F93BC0180E090E00E94351125EE30ED9A
:101000004AEA50E40E948D100E9406111092F003EB
:101010001092F1031092F2031092F3031092F40372
:101020001092F5031092F6031092F7030091F0036B
:101030001091F1032091F2033091F3030617170783
:101040002807390798F40091F4031091F5032091D3
:10105000F6033091F703061717072807390730F40E
:10106000E6E6FEE03197F1F70000E0CF1F910F9127
:101070000C946E07CF93DF93EC010E943E07CE01E4
:10108000DF91CF910C94F707CF93DF93EC010E948F
:101090004507CE01DF91CF910C94F707CF93DF93F3
:1010A000EC010E944C07CE01DF91CF910C94B50763
:1010B000CF93DF93EC010E945307CE01DF91CF91D4
:1010C0000C94B507CF93DF93EC010E945A07CE0131
:1010D000880F991FDF91CF910C94B507CF93DF93C1
:1010E000EC010E945F07CE01880F991FDF91CF911D
:1010F0000C94B507CF93DF93EC010E946407CE01F7
:10110000880F991FDF91CF910C94B507CF93DF9390
:10111000EC010E946907CE01880F991FDF91CF91E2
:101120000C94B5078093280160932A010895E1E0AB
:10113000F1E0808180628083E2E0F1E08081806282
:1011400080830895E2E0F1E080818F7D80830895BF
:10115000E2E0F1E080818062808308950E944E0A7F
:10116000911102C0811108958FEF08950C948B0A9C
:1011700087E090E00E94330A0C94CD0A0C94A40AF4
:101180001F920F920FB60F9211240BB60F922F934E
:101190003F934F935F938F939F93EF93FF93209190
:1011A000C0003091C60028718091040590E001963E
:1011B0008F7799274091030550E08417950739F000
:1011C00080930405FC01E95FFA4F308301C022E0FF
:1011D00020930205FF91EF919F918F915F914F9125
:1011E0003F912F910F900BBE0F900FBE0F901F904D
:1011F00018951F920F920FB60F9211240BB60F92F3
:101200008F939F93EF93FF9390910605809105052F
:10121000981779F08091050590E001968F779927CE
:1012200080930505FC01E957FA4F80818093C60041
:1012300005C08091C1008F7D8093C100FF91EF9127
:101240009F918F910F900BBE0F900FBE0F901F902C
:101250001895F89410920605109205051092040551
:1012600010920305789497FF04C022E02093C000F9
:101270009F779093C5008093C40088E98093C10054
:1012800086E08093C2000895F894909104058091BF
:101290000305981304C0789480E091E00895789451
:1012A0008091030590E001968F779927809303053D
:1012B000FC01E95FFA4F20818091020590E0982FB0
:1012C0008827820F911D0895F894909104058091CC
:1012D0000305981304C0789480E091E00895789411
:1012E000E0910305F0E03196EF77FF27E95FFA4FD1
:1012F00020818091020590E0982F8827820F911D10
:1013000008952091060530E02F5F3F4F2F77332758
:101310004091050550E024173507D1F3F901E9574D
:10132000FA4F8083209306058091C10080628093EC
:10133000C1000895CF93DF93EC018991882319F0C0
:101340000E948109FACFDF91CF910895CF93DF9367
:10135000FC018491EF012196882321F00E948109EC
:10136000FE01F7CFDF91CF910895F89480910405A5
:1013700020910305789490E080589F4F821B91093B
:101380008F7799270895F894809103058093040539
:10139000789408951F920F920FB60F9211240BB6F6
:1013A0000F922F933F934F935F938F939F93EF935E
:1013B000FF93209130013091360128718091FF0315
:1013C00090E001968F7799274091FE0350E08417B3
:1013D000950739F08093FF03FC01EE5FFB4F3083EC
:1013E00001C022E02093FD03FF91EF919F918F9127
:1013F0005F914F913F912F910F900BBE0F900FBEB9
:101400000F901F9018951F920F920FB60F921124F4
:101410000BB60F928F939F93EF93FF9390910104DC
:1014200080910004981779F08091000490E0019673
:101430008F77992780930004FC01EE57FB4F808142
:101440008093360105C0809131018F7D80933101F9
:10145000FF91EF919F918F910F900BBE0F900FBE58
:101460000F901F901895F8941092010410920004A8
:101470001092FF031092FE03789497FF04C022E0BD
:10148000209330019F77909335018093340188E950
:101490008093310186E0809332010895F894909111
:1014A000FF038091FE03981304C0789480E091E0DC
:1014B000089578948091FE0390E001968F779927A4
:1014C0008093FE03FC01EE5FFB4F20818091FD03C2
:1014D00090E0982F8827820F911D0895F89490919D
:1014E000FF038091FE03981304C0789480E091E09C
:1014F00008957894E091FE03F0E03196EF77FF27AE
:10150000EE5FFB4F20818091FD0390E0982F8827AC
:10151000820F911D08952091010430E02F5F3F4F0D
:101520002F7733274091000450E024173507D1F37B
:10153000F901EE57FB4F8083209301048091310124
:101540008062809331010895CF93DF93EC018991FC
:10155000882319F00E948B0AFACFDF91CF9108956A
:10156000CF93DF93FC018491EF012196882321F032
:101570000E948B0AFE01F7CFDF91CF910895F89476
:101580008091FF032091FE03789490E080589F4F54
:10159000821B91098F7799270895F8948091FE0313
:1015A0008093FF0378940895F894E1EBF0E01082C3
:1015B00082E88093B200B898A0E7B0E08C91816097
:1015C0008C931092B0008081846080837894089519
:1015D000109208061092070610920A061092090649
:1015E000E1EBF0E08081816080830895E1EBF0E041
:1015F00080818E7F80830895CF93DF930E94AE0811
:101600008F3F09F414C1833509F062C063E373E0CE
:1016100080E492E00E94B51380E492E00E94BE084C
:101620002FEF8FE794E0215080409040E1F700C019
:1016300000000E94AE088F3F09F4F9C0282F082E41
:10164000000C330B30936702209366023F938F9315
:101650008FEB93E09F938F93C0E4D2E0DF93CF931F
:101660000E94BC13CE010E94BE089FEF2FE784E0CA
:10167000915020408040E1F700C000000E94AE0879
:101680000F900F900F900F900F900F908F3F09F4D5
:10169000CEC0282F082E000C330B30936502209308
:1016A00064023F938F9385E393E09F938F93DF933F
:1016B000CF930E94BC13CE010E94BE080E94E80A8C
:1016C000109214061092130681E08093120655C002
:1016D000863409F0ACC08FEF9FE724E08150904042
:1016E0002040E1F700C000000E94AE08C82F6AE366
:1016F00073E080E492E00E94B51380E492E00E94DF
:10170000BE08CD3409F042C06CE373E080E492E09F
:101710000E94B51380E492E00E94BE088FEF9FE71D
:1017200024E0815090402040E1F700C000000E947A
:10173000AE088F3F09F47BC0282F082E000C330B16
:1017400030936502209364023F938F9386E393E086
:101750009F938F9380E492E09F938F930E94BC139A
:1017600080E492E00E94BE080E94E80A81E0809333
:1017700013061092140610921206809311060F9011
:101780000F900F900F900F900F9051C0CD3609F031
:101790004EC06FE373E080E492E00E94B51380E4F2
:1017A00092E00E94BE088FEF9FE724E081509040B6
:1017B0002040E1F700C000000E94AE088F3FB9F161
:1017C000282F082E000C330B3093650220936402FF
:1017D0003F938F9386E393E09F938F9380E492E00F
:1017E0009F938F930E94BC1380E492E00E94BE08F6
:1017F00062E473E080E492E00E94B51380E492E03A
:101800000E94BE080E94E80A81E0809314061092AC
:10181000130610921206809311060F900F900F90EE
:101820000F900F900F90DF91CF910C94CD0ADF9124
:10183000CF910895CF93C0911106CC2361F06AE453
:1018400073E080E492E00E94B51380E492E00E948D
:10185000BE08109211068C2FCF91089580916602D8
:101860009091670208958091120608958091130661
:101870000895809114060895809164029091650204
:10188000089567E573E080E492E00E94B51380E478
:1018900092E00C94BE0860E673E080E492E00E945F
:1018A000B51380E492E00E94BE080C94F60A809181
:1018B00007069091080608951092100681E0809323
:1018C0000F0610920E06089581E080931006109284
:1018D0000F0610920E0608951092100610920F0631
:1018E00081E080930E0608959093630280936202D4
:1018F00008953B9A439808950E94D40A0C94790C59
:10190000439A089581E080930D060E94800C809197
:101910001206882309F44BC080910E0694E0899F3B
:101920009001112490910F06892F90E0880F991F44
:10193000822B932B20911006822B81309105A1F0F0
:101940002CF4892B89F567E673E03BC08230910562
:10195000A1F0039749F5809108068F9380910706BF
:101960008F9382E993E011C0809108068F93809154
:1019700007068F9380E893E008C0809108068F9354
:10198000809107068F9389E893E09F938F9380E47B
:1019900092E09F938F930E94BC130F900F900F9033
:1019A0000F900F900F9011C068E973E00AC080910A
:1019B000130681110EC08091140681110AC063EADA
:1019C00073E080E492E00E94B51380E492E00C940E
:1019D000BE08809108068F93809107068F938091AF
:1019E00063028F93809162028F9387EB93E09F93C2
:1019F0008F9380E492E09F938F930E94BC138DB7E6
:101A00009EB708960FB6F8949EBF0FBE8DBFDDCF70
:101A1000439808951F920F920FB60F9211240BB6A0
:101A20000F922F933F934F935F936F937F938F9377
:101A30009F93AF93BF93EF93FF938091090690918B
:101A40000A06019690930A0680930906809109067A
:101A500090910A06883E934040F18091070690914C
:101A600008060196909308068093070610920A06CE
:101A70001092090680910D068823B9F080910B061B
:101A800090910C069C012F5F3F4F30930C062093E2
:101A90000B06029754F00E94080D0E94F60A10925D
:101AA0000D0610920C0610920B0682E88093B2008D
:101AB000B898FF91EF91BF91AF919F918F917F91D6
:101AC0006F915F914F913F912F910F900BBE0F90AF
:101AD0000FBE0F901F9018959C01261B370BE4E654
:101AE000E29FC001E39F900D11249A01261B370B42
:101AF000B9010E94041077FD05C06536710524F414
:101B0000862F089580E0089584E60895CF9383E0BA
:101B10000E943B048093280682E00E943B0480934D
:101B2000270681E00E943B04C82F8093260640913F
:101B30001E0650911F0660916C0270916D0280919B
:101B4000280690E00E946C0D8093250640911C06AB
:101B500050911D0660916A0270916B028C2F90E08B
:101B60000E946C0D8093230640911A0650911B062B
:101B700060916802709169028091270690E00E944E
:101B80006C0D80932406CF9108950E94860D80915C
:101B9000280690E020911E0630911F06281739076D
:101BA00024F490931F0680931E0620916C023091BE
:101BB0006D028217930724F490936D0280936C0258
:101BC0008091270690E020911A0630911B06281775
:101BD000390724F490931B0680931A06209168021B
:101BE000309169028217930724F4909369028093DD
:101BF00068028091260690E020911C0630911D0617
:101C00002817390724F490931D0680931C06209111
:101C10006A0230916B028217930724F490936B024F
:101C200080936A02089581E00E9472070E94530720
:101C30006DE78DE70E94920880E00E9472078A3566
:101C400091051CF40E94C50DF7CF81E00E94720738
:101C50000E944C0780E00E947207843B91051CF4AF
:101C60000E94C50DF7CF81E00E9472070E945307C2
:101C700080E00E9472078A3591051CF40E94C50D10
:101C8000F7CF0C946E078F929F92AF92BF92CF9234
:101C9000DF92EF92FF920E94860DE0902306F12CD6
:101CA000C0902506D12CB7016C197D09072E000CB8
:101CB000880B990B0E9437114B015C01809124061F
:101CC000B601680F711D6E0D7F1D072E000C880B6D
:101CD000990B0E94371120E030E040E85FE30E945A
:101CE00021109B01AC01C501B4010E948D1020E0C0
:101CF00030E04FE753E40E94C3114B015C019B01AC
:101D0000AC016091290670912A0680912B06909172
:101D10002C060E9420102FE632E143E05BE30E9494
:101D2000C3110E94FF106B017C0120E030E040E015
:101D30005FE3C501B4010E94C3110E94FF10C60EEB
:101D4000D71E8092290690922A06A0922B06B09266
:101D50002C0668EC70E06C197D09C60188539F4F12
:101D60006F3F710509F02CF477FF05C060E070E06B
:101D700002C06FEF70E08F3F910509F02CF497FFE0
:101D800005C080E090E002C08FEF90E0FF90EF9000
:101D9000DF90CF90BF90AF909F908F900C9492085F
:101DA000EF92FF920F931F93CF93DF9300E010E029
:101DB000C0E0D0E0E82EF12C0E151F050CF0A7C0F6
:101DC00080912706803108F49FC0809128068031D9
:101DD00008F09AC080912606803108F095C00E94D4
:101DE000860D91E0809128068B3008F090E090936A
:101DF000190681E0209126062B3008F080E08093C0
:101E0000180641E0209127062B3008F040E040936F
:101E10001706990F990F440F492BE42FE82BE093F5
:101E200016064E2FEE0F550B660B770BFA01319706
:101E3000E730F10530F48827EE58FF4F8F4F0C94B0
:101E400018100E943E076FEA8DE70E949208B8CFF3
:101E50000E945A076DE780E012C00E943E076AEABE
:101E60008AEA0E9492082FEF8FE392E0215080408F
:101E70009040E1F746C00E944C076FEA8DE70E9450
:101E800092082FEF8FE392E0215080409040E1F7DD
:101E900000C00000C1E0D0E093CF0E945F0760E087
:101EA0008DE712C00E943E076FEA8FEA0E949208F7
:101EB0002FEF8FE794E0215080409040E1F721C060
:101EC0000E9453076DE78FEA0E9492082FEF8FE37D
:101ED00092E0215080409040E1F700C00000C0E057
:101EE000D0E06ECF209719F40E94530702C00E94E1
:101EF0004C076DE78DE70E9492088FEF97E40197FA
:101F0000F1F700C000005CCF0F5F1F4F55CF8FE58A
:101F100090E00E943A08DF91CF911F910F91FF90BE
:101F2000EF900C946E070F931F93CF93DF93082FBE
:101F30000E943E07C0E0D0E010E0C017D107D4F403
:101F40000E94430E809127068D31D0F380912806A0
:101F50008D3120F4809126068D3190F30E946E071A
:101F600068EC88EC0E9492088FE590E00E943A08A5
:101F70002196E3CFDF91CF911F910F9108956FEAE2
:101F80008FEA0E94920885E590E00E944E086FEA71
:101F90008FEA0E9492080E944C070E94860D809151
:101FA00027068031D0F30C946E076FEA8FEA0E9407
:101FB000920885E590E00E9458086FEA8FEA0E9437
:101FC00092080E9453070E94860D80912706803157
:101FD000D0F30C946E070E94990180E090E0089580
:101FE000AA1BBB1B51E107C0AA1FBB1FA617B7073F
:101FF00010F0A61BB70B881F991F5A95A9F780955B
:102000009095BC01CD01089597FB072E16F400941E
:1020100007D077FD09D00E94F00F07FC05D03EF4F1
:10202000909581959F4F0895709561957F4F089584
:10203000EE0FFF1F881F8BBF0790F691E02D1994BC
:102040005058BB27AA270E9438100C9489110E946F
:102050007B1138F00E94821120F039F49F3F19F46F
:1020600026F40C9478110EF4E095E7FB0C947211B1
:10207000E92F0E949A1158F3BA1762077307840771
:10208000950720F079F4A6F50C94BC110EF4E095B8
:102090000B2EBA2FA02D0B01B90190010C01CA0122
:1020A000A0011124FF27591B99F0593F50F4503ECD
:1020B00068F11A16F040A22F232F342F4427585FBF
:1020C000F3CF469537952795A795F0405395C9F7D7
:1020D0007EF41F16BA0B620B730B840BBAF091508F
:1020E000A1F0FF0FBB1F661F771F881FC2F70EC02E
:1020F000BA0F621F731F841F48F487957795679501
:10210000B795F7959E3F08F0B0CF9395880F08F0EC
:102110009927EE0F9795879508950E94A1100C942A
:1021200089110E94821158F00E947B1140F029F41D
:102130005F3F29F00C94721151110C94BD110C9455
:1021400078110E949A1168F39923B1F3552391F302
:10215000951B550BBB27AA2762177307840738F016
:102160009F5F5F4F220F331F441FAA1FA9F335D073
:102170000E2E3AF0E0E832D091505040E695001C27
:10218000CAF72BD0FE2F29D0660F771F881FBB1FE1
:10219000261737074807AB07B0E809F0BB0B802DBF
:1021A000BF01FF2793585F4F3AF09E3F510578F0EB
:1021B0000C9472110C94BD115F3FE4F3983ED4F37C
:1021C000869577956795B795F7959F5FC9F7880FBF
:1021D000911D9695879597F90895E1E0660F771F11
:1021E000881FBB1F621773078407BA0720F0621BA2
:1021F000730B840BBA0BEE1F88F7E09508950E94CD
:1022000006116894B1110C94BD1108950E94A21199
:1022100088F09F5798F0B92F9927B751B0F0E1F0A7
:10222000660F771F881F991F1AF0BA95C9F714C057
:10223000B13091F00E94BC11B1E008950C94BC1132
:10224000672F782F8827B85F39F0B93FCCF3869590
:1022500077956795B395D9F73EF4909580957095ED
:1022600061957F4F8F4F9F4F0895E89409C097FB6A
:102270003EF490958095709561957F4F8F4F9F4F5D
:102280009923A9F0F92F96E9BB279395F6958795A1
:1022900077956795B795F111F8CFFAF4BB0F11F464
:1022A00060FF1BC06F5F7F4F8F4F9F4F16C088230B
:1022B00011F096E911C0772321F09EE8872F762F41
:1022C00005C0662371F096E8862F70E060E02AF082
:1022D0009A95660F771F881FDAF7880F969587956E
:1022E00097F9089597F99F6780E870E060E0089596
:1022F0009FEF80EC089500240A941616170618061E
:102300000906089500240A941216130614060506F9
:102310000895092E0394000C11F4882352F0BB0F8A
:1023200040F4BF2B11F460FF04C06F5F7F4F8F4FED
:102330009F4F089557FD9058440F551F59F05F3F28
:1023400071F04795880F97FB991F61F09F3F79F0D7
:1023500087950895121613061406551FF2CF469559
:10236000F1DF08C0161617061806991FF1CF8695DB
:102370007105610508940895E894BB2766277727BF
:10238000CB0197F908950E94D6110C9489110E94EF
:102390007B1138F00E94821120F0952311F00C94EB
:1023A00072110C94781111240C94BD110E949A1191
:1023B00070F3959FC1F3950F50E0551F629FF00198
:1023C000729FBB27F00DB11D639FAA27F00DB11DB1
:1023D000AA1F649F6627B00DA11D661F829F22273A
:1023E000B00DA11D621F739FB00DA11D621F839FC1
:1023F000A00D611D221F749F3327A00D611D231F97
:10240000849F600D211D822F762F6A2F11249F57E4
:1024100050409AF0F1F088234AF0EE0FFF1FBB1FE7
:10242000661F771F881F91505040A9F79E3F5105A6
:1024300080F00C9472110C94BD115F3FE4F3983E50
:10244000D4F3869577956795B795F795E7959F5F50
:10245000C1F7FE2B880F911D9695879597F90895E2
:10246000FA01EE0FFF1F309621053105A1F161152C
:10247000710561F48038BFE39B0749F16894903897
:10248000810561F08038BFEF9B0741F099234AF541
:10249000FF3FE1053105210519F1E8940894E7951E
:1024A000D901AA2329F4AB2FBE2FF85FD0F310C0B7
:1024B000FF5F70F4A695E0F7F73950F019F0FF3A96
:1024C00038F49F779F930DD00F9007FC9058089594
:1024D00046F00C94781160E070E080E89FE3089586
:1024E0004FE79F775F934F933F932F930E942B1358
:1024F0002F913F914F915F910E94C3110C948812CC
:1025000029F416F00C9472110C94BC110C947811EF
:102510000E94A211A8F39638A0F707F80F92E8944A
:102520002BE33AEA48EB5FE70E94D9110F920F9232
:102530000F924DB75EB70F920E947313E2EFF0E077
:102540000E94BA124F915F91EF91FF91E595EE1FB6
:10255000FF1F49F0FE57E0684427EE0F441FFA952D
:10256000E1F74195550B0E94ED120F9007FE0C9478
:10257000E1120895DF93CF931F930F93FF92EF9291
:10258000DF927B018C01689406C0DA2EEF010E9475
:10259000D611FE01E894A59125913591459155916B
:1025A000A6F3EF010E943810FE019701A801DA940A
:1025B00069F7DF90EF90FF900F911F91CF91DF911E
:1025C00008959B01AC0160E070E080E89FE30C940B
:1025D0008D100C9472110C94A7130E94A211D8F3C1
:1025E0009923C9F3940F511DA3F39150504094F0D7
:1025F00059F0882332F0660F771F881F91505040A2
:10260000C1F79E3F51052CF7880F911D9695879530
:1026100097F908955F3FACF0983E9CF0BB278695F4
:1026200077956795B79508F4B1609395C1F7BB0F9F
:1026300058F711F460FFE8CF6F5F7F4F8F4F9F4FC8
:10264000E3CF0C94BD1116F00C94A7130C947811E1
:1026500068940C9472110E94A211A8F39923C1F3FB
:10266000AEF3DF93CF931F930F93FF92C92FDD2714
:1026700088232AF02197660F771F881FDAF720E05A
:1026800030E040E85FEB9FE3883920F0803E38F08F
:1026900021968F770E942110EAE1F1E004C00E94A8
:1026A0002110E7E4F1E00E94BA128B01BE01EC01B7
:1026B000FB2E6F5771097595771F880B990B0E9438
:1026C000371128E132E741E35FE30E94D611AF2DD5
:1026D0009801AE01FF900F911F91CF91DF910E9461
:1026E00038100C948911FA01DC01AA0FBB1F9B0161
:1026F000AC01BF5728F4222733274427507820C045
:10270000B75190F4AB2F0024469537952795011CBF
:10271000A395D2F3002071F0220F331F441FB3950D
:10272000DAF30ED00C94201061307105A0E88A070E
:10273000B94630F49B01AC0166277727882790784B
:10274000309621F0208331834283538308959F3F45
:1027500031F0915020F4879577956795B795880F5C
:10276000911D9695879597F90895FB01DC010190DD
:102770000D920020E1F708950F931F93CF93DF93FD
:10278000CDB7DEB72E970FB6F894DEBF0FBECDBF24
:102790000E891F8986E08C831A8309838FEF9FE758
:1027A0009E838D83AE01465E5F4F688D798DCE012D
:1027B00001960E94EB13EF81F885E00FF11F108264
:1027C0002E960FB6F894DEBF0FBECDBFDF91CF912E
:1027D0001F910F9108952F923F924F925F926F92A7
:1027E0007F928F929F92AF92BF92CF92DF92EF92A1
:1027F000FF920F931F93CF93DF93CDB7DEB72B9745
:102800000FB6F894DEBF0FBECDBF6C017B018A010D
:10281000FC0117821682838181FFCCC1CE01019613
:102820003C01F6019381F70193FD859193FF81911E
:102830007F01882309F4BAC1853239F493FD85916B
:1028400093FF81917F01853229F4B60190E00E94C7
:102850000B16E7CF912C212C312CFFE1F315D8F08A
:102860008B3279F038F4803279F08332A1F4232D61
:1028700020611DC08D3261F0803369F4232D216009
:1028800016C0832D8260382EE32DE4603E2E2AC0D0
:10289000F32DF8601DC037FC2DC020ED280F2A3025
:1028A00040F08E32B9F436FC81C1232D2064322EE3
:1028B00019C036FE06C08AE0989E200D1124922E83
:1028C00011C0EAE02E9E200D1124222EF32DF0627D
:1028D0003F2E08C08C3621F4832D8068382E02C02C
:1028E000883641F4F70193FD859193FF81917F0133
:1028F0008111B3CF982F9F7D9554933028F40C5FAE
:102900001F4F9FE399830DC0833631F0833771F0F9
:10291000833509F059C021C0F801808189830E5F99
:102920001F4F88248394912C530113C02801F2E097
:102930004F0E511CF801A080B18036FE03C0692DF6
:1029400070E002C06FEF7FEFC5010E9400164C01DE
:102950008201F32DFF773F2E16C0280122E0420EA0
:10296000511CF801A080B18036FE03C0692D70E0D3
:1029700002C06FEF7FEFC5010E94F5154C01F32DEA
:10298000F0683F2E820133FC1BC0822D90E0881638
:102990009906B0F4B60180E290E00E940B162A94EA
:1029A000F4CFF50137FC859137FE81915F01B601C7
:1029B00090E00E940B1621102A9421E0821A9108BF
:1029C0008114910471F7E8C0843611F0893641F51D
:1029D000F80137FE07C060817181828193810C5FAD
:1029E0001F4F08C060817181072E000C880B990B66
:1029F0000E5F1F4FF32DFF763F2E97FF09C0909576
:102A00008095709561957F4F8F4F9F4FF0683F2E57
:102A10002AE030E0A3010E944716882E861845C0A0
:102A2000853731F4232D2F7EB22E2AE030E025C0E9
:102A3000932D997FB92E8F36C1F018F4883579F02F
:102A4000B5C0803719F0883721F0B0C0E92FE061B8
:102A5000BE2EB4FE0DC0FB2DF460BF2E09C034FEA7
:102A60000AC0292F2660B22E06C028E030E005C03B
:102A700020E130E002C020E132E0F801B7FE07C0FB
:102A800060817181828193810C5F1F4F06C06081DC
:102A9000718180E090E00E5F1F4FA3010E944716F6
:102AA000882E8618FB2DFF773F2E36FE0DC0232D76
:102AB0002E7FA22E891458F434FE0BC032FC09C0BC
:102AC000832D8E7EA82E05C0B82CA32C03C0B82C55
:102AD00001C0B92CA4FE0FC0FE01E80DF11D8081DC
:102AE000803321F49A2D997EA92E09C0A2FE06C03A
:102AF000B394B39404C08A2D867809F0B394A3FCF0
:102B000011C0A0FE06C0B21488F4280C922C9B18A9
:102B10000EC0B21460F4B60180E290E00E940B1681
:102B2000B394F7CFB21418F42B1802C0982C212CB0
:102B3000A4FE10C0B60180E390E00E940B16A2FE36
:102B400017C0A1FC03C088E790E002C088E590E0D0
:102B5000B6010CC08A2D867859F0A1FE02C08BE226
:102B600001C080E2A7FC8DE2B60190E00E940B1646
:102B7000891438F4B60180E390E00E940B169A9411
:102B8000F7CF8A94F301E80DF11D8081B60190E042
:102B90000E940B168110F5CF222009F442CEB60117
:102BA00080E290E00E940B162A94F6CFF60186810F
:102BB000978102C08FEF9FEF2B960FB6F894DEBF80
:102BC0000FBECDBFDF91CF911F910F91FF90EF907E
:102BD000DF90CF90BF90AF909F908F907F906F903D
:102BE0005F904F903F902F900895FC0105906150A9
:102BF00070400110D8F7809590958E0F9F1F089513
:102C0000FC016150704001900110D8F780959095BB
:102C10008E0F9F1F08950F931F93CF93DF93FB0198
:102C2000238121FD03C08FEF9FEF2CC022FF16C030
:102C300046815781248135814217530744F4A0818E
:102C4000B1819D012F5F3F4F318320838C9326817B
:102C500037812F5F3F4F3783268314C08B01EC01F0
:102C6000FB010084F185E02D1995892BE1F6D8014F
:102C700016968D919C911797019617969C938E931B
:102C80001697CE01DF91CF911F910F910895FA0110
:102C9000AA27283051F1203181F1E8946F936E7F9B
:102CA0006E5F7F4F8F4F9F4FAF4FB1E03ED0B4E08C
:102CB0003CD0670F781F891F9A1FA11D680F791FCD
:102CC0008A1F911DA11D6A0F711D811D911DA11DDE
:102CD00020D009F468943F912AE0269F11243019EE
:102CE000305D3193DEF6CF010895462F4770405D89
:102CF0004193B3E00FD0C9F7F6CF462F4F70405D38
:102D00004A3318F0495D31FD4052419302D0A9F792
:102D1000EACFB4E0A6959795879577956795BA958C
:102D2000C9F700976105710508959B01AC010A2E52
:102D300006945795479537952795BA95C9F7620F29
:0E2D4000731F841F951FA01D0895F894FFCFE8
:102D4E0048656C6C6F2C204920616D2061204669AE
:102D5E007265626972642D2D2D2D2D2D2D2D20560F
:102D6E000A0048656C6C6F20576F726C64204920A6
:102D7E00616D206120466972656269726420560039
:102D8E0048656C6C6F2C204920616D20612046696E
:102D9E007265626972642D2D2D2D2D2D2D2D2056CF
:102DAE000A00010001000100FF0FFF0FFF0F486531
:102DBE006C6C6F2C204920616D2061204669726514
:102DCE00626972642D2D2D2D2D2D2D2D20560A006C
:102DDE00317374204E6F64650A004D6964204E6F26
:102DEE0064650A00393020446567726565204C655C
:102DFE006674207475726E0A0043656E7465722077
:102E0E006F6620626C6F636B2072656163686564C8
:102E1E000A004261636B206F6E206C696E650A005A
:102E2E004C656674205475726E0A00537461727428
:102E3E00204C6F636174696F6E0A0046696E697328
:102E4E006865640A0043616C20446F6E650A005227
:102E5E0065642050756C73657300477265656E20EE
:102E6E0050756C73657300426C75652050756C738C
:102E7E0065730053002D25640A0046004D2D006D2C
:102E8E002D00436D642052780A0049735F436D64D0
:102E9E003A747275650A00616363657074656400E7
:102EAE0069676E6F7265004572726F7220696E206F
:102EBE007461736B20636F6D706C6574696F6E00F7
:102ECE006D696E6F722D2564006D616A6F722D25AE
:102EDE0064006E6F2D2564005363616E2D45727212
:102EEE006F72004572726F72206465636F64696EF3
:102EFE0067207461736B0066657463682D25642D9D
:042F0E002564000036
:00000001FF
