:100000000C94B3000C9469060C94D4000C94D400A6
:100010000C94D4000C94D1080C94AC080C94D4002B
:100020000C94D4000C94D4000C94D4000C94D40000
:100030000C94D4000C94D4000C94D4000C94AB0E0B
:100040000C94D4000C94D4000C94D4000C94D400E0
:100050000C94D4000C94D4000C94D4000C94D400D0
:100060000C94D4000C94780A0C94B10A0C94D4002B
:100070000C94D4000C94D4000C94D4000C94D400B0
:100080000C94D4000C94D4000C94D4000C94D400A0
:100090000C94D4000C94D4000C94D4000C94D40090
:1000A0000C94D4000C94D4000C94D4000C94D40080
:1000B0000C94D4000C94D4000C94D4000C94D40070
:1000C0000C94D4000C94D4000C94D4000C94D40060
:1000D0000C94D4000C94D4000C94820B0C94BB0BA5
:1000E0000C94D40007634236B79BD8A71A396856D8
:1000F00018AEBAAB558C1D3CB7CC5763BD6DEDFD4A
:10010000753EF6177231BF000000803F0800000006
:10011000BE922449123EABAAAA2ABECDCCCC4C3EFC
:1001200000000080BEABAAAAAA3E00000000BF00EB
:100130000000803F0000000000084178D3BB4387E7
:10014000D1133D190E3CC3BD4282AD2B3E68EC82FB
:1001500076BED98FE1A93E4C80EFFFBE01C4FF7F80
:100160003F000000000011241FBECFEFD1E2DEBF30
:10017000CDBF00E00CBF16E1A0E0B2E0E8E3F8E399
:1001800000E00BBF02C007900D92A038B107D9F76D
:100190002AE1A0E8B6E101C01D92A638B207E1F756
:1001A0000E9454150C941A1C0C9400000E94D00557
:1001B0000E94D7050E946E030E94E3030E949106ED
:1001C0000E94A2060E9459080E9460080E946B08C3
:1001D0000E9472080E9480080E941D0E0C94700AF2
:1001E000CF9381E00E94B4106EE175E186E092E069
:1001F0000E94161986E092E00E94760A81E00E9431
:10020000B41069E275E186E092E00E94161986E07A
:1002100092E00E94760A6FEA8FEA0E944A0A8AE513
:1002200090E00E94060A64E375E186E092E00E9495
:10023000161986E092E00E94760A68EC88EC0E942B
:100240004A0A84EB90E00E94F2096AE475E186E0D4
:1002500092E00E94161986E092E00E94760A0E94BF
:100260000A08C82F0E946E0A0E9412048C2F0E9456
:100270003F04C23519F40E94620D07C0C73419F457
:100280000E946A0D02C00E94720D84EB90E00E94F1
:10029000FC0964E675E186E092E00E94161986E0AA
:1002A00092E00E94760A0E94F51063E775E186E00D
:1002B00092E00E94161986E092E00E94760A81E0A0
:1002C0000E94B4106EE175E186E092E00E9416197A
:1002D00086E092E00E94760A81E00E94B4106FE707
:1002E00075E186E092E00E94161986E092E00E9495
:1002F000760A60E975E186E092E00E94161986E0D0
:1003000092E0CF910C947B04DF92EF92FF920F93D7
:100310001F93CF93DF930E94B40C0E942E0DD82E12
:10032000882309F4F4C00E94390D882339F10E9412
:10033000100FEC010E94340DBE010E9441148C018B
:100340000E94340DEC010E942012BC01990F880B11
:10035000990B0E949816209102023091030240915D
:100360000402509105020E94EE150E9460167B0166
:100370000E94420DE816F906E4F10FC00E943C0D00
:10038000882371F00E94100FBC018DE40E940413B9
:10039000EC01CF3F8FEFD80761F40E94510DB7C039
:1003A0000E943F0D882341F10E94100FBC018DE691
:1003B000EDCF0E942012BC01990F880B990B0E946F
:1003C000981620910202309103024091040250914C
:1003D00005020E94EE150E9460168B010E94420DDC
:1003E00008171907D4F60E949B118C01CE010E94B8
:1003F0007A0D0E94470D04C002E410E0CBE0D0E08B
:10040000C8010E946A120E94100F8017910709F418
:1004100052C00E94100F0E9425127C010E94100FF2
:10042000B7010E94B8140E9421110E94100FB70159
:100430000E94BE0D81E00E94B4100E94EF1088233C
:10044000B1F10E940D0F853411F487E511C00E94AF
:100450000D0F833511F48EE40BC00E940D0F87350C
:1004600011F485E405C00E940D0F8E3419F483E564
:100470000E94211181E00E94B4100E94100FA80177
:10048000B7010E947F140E94390D882339F00E9421
:10049000100F8C010E94340DB80135C00E943C0D34
:1004A00081112DC00E943F0D811129C0A9CFC70124
:1004B0000E94150FA8CF0234110549F10E941812AD
:1004C0000E945C110E940A08823539F46DE4CE0165
:1004D0000E94A0110E94620D0FC0873439F46DE6AE
:1004E000CE010E94A0110E946A0D06C06EE4CE01EA
:1004F0000E94A0110E94720D0E94230E08C00E944B
:10050000100FBC01CE010E9441148C0179CF8D2DBA
:10051000DF91CF911F910F91FF90EF90DF900895A1
:100520000F931F93CF93DF930E9484018111109248
:100530008216C0918216C11118C00E94FC110E943F
:10054000EF118033D1F50E94100F8C010E94FC1135
:10055000B8010E94411490930102809300020E940E
:100560006A1281E0809382169CC00E94100F0E9444
:10057000251290938116809380160E94100F20916F
:1005800000023091010282179307E1F48234910551
:1005900009F483C00E9418120E945C110E940A088C
:1005A000823509F06EC00E94FC116DE40E94A0111A
:1005B0000E94FC116DE40E947F0D0E940E121092A9
:1005C00082165DC0C0918016D09181160E94100FD6
:1005D000BE010E94BE0DC0918016D09181160E946E
:1005E000100FBE010E94B8140E94211181E00E94E8
:1005F000B4100E94EF108823C9F10E940D0F8534BA
:1006000011F487E511C00E940D0F833511F48EE4BB
:100610000BC00E940D0F873511F485E405C00E94C0
:100620000D0F8E3419F483E50E94211181E00E94A0
:10063000B4100091000210910102C0918016D09177
:1006400081160E94100FA801BE010E947F140E9413
:10065000100FEC010E94FC11BE010E944114909306
:100660000102809300020E946A1206C080918016E7
:10067000909181160E94150F81E080938216C0E050
:1006800010C0873409F099CF0E94FC116DE60E94DA
:10069000A0110E94FC116DE68ECF0E940E121092E6
:1006A00082168C2FDF91CF911F910F9108950E9498
:1006B000D6000E94C10F0E94B40C0E9490028823B1
:1006C000E1F30E94B40C0E942E0D8823D1F30E9406
:1006D000470D0E94F0000E94230EF3CF87B1876080
:1006E00087B987B1806F87B988B1887F88B988B1A9
:1006F0008F7088B9089586E69EE00197F1F70000B3
:100700004098419880E388B9429AEFEFF7E4319737
:10071000F1F700C000004298E6E6FEE03197F1F7FD
:1007200000004098419888B9429AEFEFF7E431977A
:10073000F1F700C000004298E6E6FEE03197F1F7DD
:1007400000004098419888B9429A8FEF97E401974A
:10075000F1F700C000004298E6E6FEE03197F1F7BD
:1007600000004098419880E288B9429A8FEF97E460
:100770000197F1F700C000004298089598B19F706A
:1007800098B998B1282F207F922B98B9409841981A
:10079000429AEFEFF7E43197F1F700C0000042987A
:1007A00098B19F7098B998B18295807F892B88B94C
:1007B00040984198429A8FEF97E40197F1F700C073
:1007C0000000429808950E947B0386E69EE0019710
:1007D000F1F7000088E20E94BE0381E00E94BE03A0
:1007E00086E00E94BE038EE00E94BE0380E80C9467
:1007F000BE0380E80C94BE03982F862F923059F0E8
:100800001CF4913031F00895933039F0943039F080
:100810000895815805C0815403C08D5601C08D5282
:100820000C94BE0381E00C94BE03CF93C42F0E94AE
:10083000FC0388B18F7088B988B19C2F907F892B79
:1008400088B9409A4198429A8FEF97E40197F1F75F
:1008500000C000004298C295C07F88B18F7088B9EF
:1008600088B1C82BC8B9409A4198429A8FEF97E453
:100870000197F1F700C000004298CF91089598B118
:100880009F7098B998B1282F207F922B98B9409AE1
:100890004198429AEFEFF7E43197F1F700C000007A
:1008A00042988295807F98B19F7098B998B1892BB2
:1008B00088B9409A4198429A8FEF97E40197F1F7EF
:1008C00000C00000429808950F931F93CF93DF93C9
:1008D000D82FC62F8A01F80141918F01442331F0AE
:1008E0006C2F8D2F0E941504CF5FF5CFDF91CF9134
:1008F0001F910F910895CF93DF93EC018991882385
:1009000019F00E943F04FACFDF91CF910895EF9242
:10091000FF920F931F93CF93DF93D82FC62F8A0197
:1009200079010E94FC0317FF09C011950195110977
:100930004DE26C2F8D2F0E941504CF5FDD2311F047
:10094000C11103C00E94F90304C06C2F8D2F0E94B7
:10095000FC0385E0E816F10409F07FC0C80160E1FE
:1009600077E20E946D15AB01405D5F4F5093841696
:10097000409383166C2F8D2F0E941504CF5FC80102
:1009800068EE73E00E946D15CB0170938E16609334
:100990008D166AE070E00E945915AC01405D5F4F12
:1009A00050938616409385166C2F8D2F0E94150448
:1009B000CF5FC80164E670E00E946D15CB017093B3
:1009C0008E1660938D166AE070E00E945915AC0196
:1009D000405D5F4F50938816409387166C2F8D2F84
:1009E0000E941504CF5F2AE030E0C801B9010E94DF
:1009F0006D15CB0170938E1660938D16B9010E9410
:100A00005915AC01405D5F4F50938A16409389168B
:100A10006C2F8D2F0E941504CF5FC8016AE070E033
:100A20000E946D15AC01405D5F4F50938C16409352
:100A30008B166C2F8D2F0E941504CF5F86E0E81671
:100A4000F104FCF045E46C2F8D2FDF91CF911F91C5
:100A50000F91FF90EF900C94150484E0E816F104D8
:100A600009F48DCF83E0E816F10409F4A2CF82E007
:100A7000E816F10409F4B7CF81E0E816F104F1F6C5
:100A8000CCCFDF91CF911F910F91FF90EF90089500
:100A90000F931F93CF93DF938A01E901882311F00D
:100AA000611103C00E94F90302C00E94FC03C5301B
:100AB000D10509F061C0C80160E177E20E945915D3
:100AC000CB01C09690938416809383160E943F04B6
:100AD000C80168EE73E00E945915CB0170938E1621
:100AE00060938D166AE070E00E945915C09690934D
:100AF0008616809385160E943F04C80164E670E064
:100B00000E945915CB0170938E1660938D166AE082
:100B100070E00E945915C0969093881680938716AE
:100B20000E943F042AE030E0C801B9010E94591533
:100B3000CB0170938E1660938D16B9010E945915E2
:100B4000C09690938A16809389160E943F04C8012C
:100B50006AE070E00E945915C09690938C168093BD
:100B60008B160E943F042697B4F085E4DF91CF9165
:100B70001F910F910C943F04C430D10509F4A8CF04
:100B8000C330D10509F4B9CFC230D10559F2C13013
:100B9000D10549F7DCCFDF91CF911F910F910895D7
:100BA00010BA11BA10920701109208010895EAE7ED
:100BB000F0E0808186688083808186788083EBE79F
:100BC000F0E08081807B8083ECE7F0E080818076BC
:100BD000808380818064808380818062808380B70D
:100BE000806880BF0895883028F090917B009860DD
:100BF00090937B0090917C008770892B80937C0080
:100C000080917A00806480937A0080917A0084FFDA
:100C1000FCCF8091790090917A00906190937A0056
:100C200090917B00977F90937B0090917C00907EC9
:100C300090937C000895682F70E080E090E00E941F
:100C400096162FEE39EC43E95FE30E9491179B0162
:100C5000AC0160E070E080E89FE30E94EE152AE9B5
:100C600039EF4EE255E40E94241720E030E040E2E4
:100C700051E40E9424170E946016CB016132734038
:100C800010F080E293E00895CF93DF93C82FD62F22
:100C9000842F0E94F30580939C16482F50E023E098
:100CA00030E06D2F8C2FDF91CF910C9487048AB1A7
:100CB0008E6F8AB9589A08950E946E030C94570655
:100CC000F894E9E6F0E0808182608083E89A789485
:100CD00008951F920F920FB60F9211248F939F9336
:100CE000AF93BF938091A9169091AA16A091AB16CD
:100CF000B091AC160196A11DB11D8093A9169093D9
:100D0000AA16A093AB16B093AC16BF91AF919F916A
:100D10008F910F900FBE0F901F9018955C9A5D9A5F
:100D20000895F8940E9457060E94600678940C94E7
:100D30008E065E985F9808955E9A5F9A08955E9811
:100D40005F9A08955E9A5F9808950E94990610929E
:100D5000A9161092AA161092AB161092AC162FEF8D
:100D60008FE794E0215080409040E1F700C0000000
:100D70008091A9169091AA16A091AB16B091AC16CD
:100D80008093A5169093A616A093A716B093A816C5
:100D900061E081E00E94FC036BE975E18DE492E083
:100DA0000E9416198DE492E00E947B044091A516E2
:100DB0005091A6166091A7167091A81625E030E014
:100DC00061E082E00E9448052FEF8FEF9CE2215006
:100DD00080409040E1F700C0000081E00C94BE0329
:100DE0000E949C061092A9161092AA161092AB1699
:100DF0001092AC162FEF8FE794E021508040904086
:100E0000E1F700C000008091A9169091AA16A09168
:100E1000AB16B091AC1680939D1690939E16A0933E
:100E20009F16B093A01661E081E00E94FC0366EA81
:100E300075E18DE492E00E9416198DE492E00E9423
:100E40007B0440919D1650919E1660919F16709163
:100E5000A01625E030E061E082E00E9448052FEF17
:100E60008FEF9CE2215080409040E1F700C00000ED
:100E700081E00C94BE030E949F061092A916109266
:100E8000AA161092AB161092AC162FEF8FE794E0D3
:100E9000215080409040E1F700C000008091A916E9
:100EA0009091AA16A091AB16B091AC168093A116A2
:100EB0009093A216A093A316B093A41661E081E0CC
:100EC0000E94FC0363EB75E18DE492E00E94161929
:100ED0008DE492E00E947B044091A1165091A216ED
:100EE0006091A3167091A41625E030E061E082E0E5
:100EF0000E9448052FEF8FEF9CE2215080409040E8
:100F0000E1F700C0000081E00C94BE030E94990646
:100F10001092A9161092AA161092AB161092AC1647
:100F20002FEF8FE794E0215080409040E1F700C020
:100F300000008091A9169091AA16A091AB16B091CD
:100F4000AC168093A5169093A616A093A716B093FF
:100F5000A8166091A5167091A6168091A71690917B
:100F6000A81608950E949C061092A9161092AA161F
:100F70001092AB161092AC162FEF8FE794E0215031
:100F800080409040E1F700C000008091A916909148
:100F9000AA16A091AB16B091AC1680939D169093B3
:100FA0009E16A0939F16B093A01660919D16709107
:100FB0009E1680919F169091A01608950E949F06FC
:100FC0001092A9161092AA161092AB161092AC1697
:100FD0002FEF8FE794E0215080409040E1F700C070
:100FE00000008091A9169091AA16A091AB16B0911D
:100FF000AC168093A1169093A216A093A316B0935B
:10100000A4166091A1167091A2168091A3169091DA
:10101000A41608958F929F92AF92BF92CF92DF92C3
:10102000EF92FF920E9486076B017C010E94DE070F
:101030004B015C010E94B20727E0C21626E1D206EE
:10104000E104F10430F0623022E17207810591057C
:1010500000F58C149D04AE04BF0428F46C157D05C6
:101060008E059F05C0F0C814D904EA04FB0428F4D7
:10107000681579058A059B0580F086169706A806EF
:10108000B90668F4C616D706E806F90640F487E400
:1010900007C087E505C082E503C082E401C080E3A4
:1010A000FF90EF90DF90CF90BF90AF909F908F9088
:1010B000089581B18F6081B982B1807F82B908952E
:1010C000EAE0F1E0808188618083EBE0F1E08081FB
:1010D0008861808308958DB18F7C8DB98EB18063D6
:1010E0008EB90895F8948DB380638DBBEAE6F0E085
:1010F00080818A60808380818A7F8083789408954C
:10110000E1E2F1E010828FEF8093250191E090936E
:101110002401109229018093280110922B018093C1
:101120002A01A0E2B1E08C91806A8C938C918F7A35
:101130008C938C9181608C938C918D7F8C9380812A
:101140008860808380818F7E8083808183608083BC
:1011500080818B7F808308951F920F920FB60F922C
:1011600011248F939F93AF93BF938091AF1690916B
:10117000B016A091B116B091B2160196A11DB11D85
:101180008093AF169093B016A093B116B093B21699
:10119000BF91AF919F918F910F900FBE0F901F90B5
:1011A00018951F920F920FB60F9211248F939F9351
:1011B000AF93BF938091B3169091B416A091B516DA
:1011C000B091B6160196A11DB11D8093B3169093F0
:1011D000B416A093B516B093B616BF91AF919F9178
:1011E0008F910F900FBE0F901F90189582B1867F40
:1011F00082B982B1866082B9089582B1897F82B94D
:1012000082B1896082B9089582B1857F82B982B145
:10121000856082B9089582B18A7F82B982B18A607D
:1012200082B9089582B1887F82B9129A089582B1F5
:10123000827F82B9119A089582B1817F82B9109A12
:10124000089582B1887F82B9139A089582B1807F10
:1012500082B908950F931F93813099F41092AF16BD
:101260001092B0161092B1161092B2161092B316D8
:101270001092B4161092B5161092B61680E090E057
:1012800029C04091AF165091B0166091B11670917F
:10129000B2168091B3169091B416A091B516B09184
:1012A000B6168A019B01080F191F2A1F3B1FC9018F
:1012B000B8010E94961628E431EE42E850E40E94FC
:1012C000241720E030E040E05FE30E9424170E94F2
:1012D0006016CB011F910F910895BC0180E090E052
:1012E0000E94961628E431EE42E850E40E94EE1582
:1012F0000E946716CB01A0E0B0E01092AF161092EA
:10130000B0161092B1161092B2161092B316109237
:10131000B4161092B5161092B6164091AF165091B1
:10132000B0166091B1167091B216481759076A0746
:101330007B0798F44091B3165091B4166091B5169E
:101340007091B616481759076A077B0730F4E6E62E
:10135000FEE03197F1F70000E0CF0C9426090F93DF
:101360001F93BC0180E090E00E94961625EE30EDC0
:101370004AEA50E40E94EE150E9467161092AF16DA
:101380001092B0161092B1161092B2161092B316B7
:101390001092B4161092B5161092B6160091AF16B0
:1013A0001091B0162091B1163091B216061717079A
:1013B0002807390798F40091B3161091B4162091BC
:1013C000B5163091B616061717072807390730F4F7
:1013D000E6E6FEE03197F1F70000E0CF1F910F91B4
:1013E0000C942609CF93DF93EC010E94F608CE01FE
:1013F000DF91CF910C94AF09CF93DF93EC010E9462
:10140000FD08CE01DF91CF910C94AF09CF93DF930C
:10141000EC010E940409CE01DF91CF910C946D097B
:10142000CF93DF93EC010E940B09CE01DF91CF91A6
:101430000C946D09CF93DF93EC010E941209CE0149
:10144000880F991FDF91CF910C946D09CF93DF9393
:10145000EC010E941709CE01880F991FDF91CF91EF
:101460000C946D09CF93DF93EC010E941C09CE010F
:10147000880F991FDF91CF910C946D09CF93DF9363
:10148000EC010E942109CE01880F991FDF91CF91B5
:101490000C946D098093280160932A010895E1E07E
:1014A000F1E0808180628083E2E0F1E0808180620F
:1014B00080830895E2E0F1E080818F7D808308954C
:1014C000E2E0F1E080818062808308950E94060C52
:1014D000911102C0811108958FEF08950C94430C6F
:1014E00087E090E00E94EB0B0C94850C0C945C0C54
:1014F0001F920F920FB60F9211240BB60F922F93DB
:101500003F934F935F938F939F93EF93FF9320911C
:10151000C0003091C60028718091C31790E00196F9
:101520008F7799274091C21750E08417950739F0BB
:101530008093C317FC01EA53F84E308301C022E0C8
:101540002093C117FF91EF919F918F915F914F91E0
:101550003F912F910F900BBE0F900FBE0F901F90D9
:1015600018951F920F920FB60F9211240BB60F927F
:101570008F939F93EF93FF939091C5178091C4171A
:10158000981779F08091C41790E001968F7799278A
:101590008093C417FC01EA5BF74E80818093C600FC
:1015A00005C08091C1008F7D8093C100FF91EF91B4
:1015B0009F918F910F900BBE0F900FBE0F901F90B9
:1015C0001895F8941092C5171092C4171092C3176B
:1015D0001092C217789497FF04C022E02093C000B5
:1015E0009F779093C5008093C40088E98093C100E1
:1015F00086E08093C2000895F8949091C31780917B
:10160000C217981304C0789480E091E0089578940C
:101610008091C21790E001968F7799278093C21727
:10162000FC01EA53F84E20818091C11790E0982F79
:101630008827820F911D0895F8949091C317809187
:10164000C217981304C0789480E091E008957894CC
:10165000E091C217F0E03196EF77FF27EA53F84E9A
:1016600020818091C11790E0982F8827820F911DCB
:1016700008952091C51730E02F5F3F4F2F77332714
:101680004091C41750E024173507D1F3F901EA5B04
:10169000F74E80832093C5178091C10080628093AC
:1016A000C1000895CF93DF93EC018991882319F04D
:1016B0000E94390BFACFDF91CF910895CF93DF933A
:1016C000FC018491EF012196882321F00E94390BBF
:1016D000FE01F7CFDF91CF910895F8948091C31761
:1016E0002091C217789490E080589F4F821B9109F7
:1016F0008F7799270895F8948091C2178093C31724
:10170000789408951F920F920FB60F9211240BB682
:101710000F922F933F934F935F938F939F93EF93EA
:10172000FF93209130013091360128718091BE16CF
:1017300090E001968F7799274091BD1650E084176D
:10174000950739F08093BE16FC01EF53F94E3083B4
:1017500001C022E02093BC16FF91EF919F918F91E1
:101760005F914F913F912F910F900BBE0F900FBE45
:101770000F901F9018951F920F920FB60F92112481
:101780000BB60F928F939F93EF93FF939091C01698
:101790008091BF16981779F08091BF1690E001965E
:1017A0008F7799278093BF16FC01EF5BF84E8081FD
:1017B0008093360105C0809131018F7D8093310186
:1017C000FF91EF919F918F910F900BBE0F900FBEE5
:1017D0000F901F901895F8941092C0161092BF1693
:1017E0001092BE161092BD16789497FF04C022E0A6
:1017F000209330019F77909335018093340188E9DD
:101800008093310186E0809332010895F89490919D
:10181000BE168091BD16981304C0789480E091E0C4
:10182000089578948091BD1690E001968F7799275E
:101830008093BD16FC01EF53F94E20818091BC16B8
:1018400090E0982F8827820F911D0895F894909129
:10185000BE168091BD16981304C0789480E091E084
:1018600008957894E091BD16F0E03196EF77FF2768
:10187000EF53F94E20818091BC1690E0982F882775
:10188000820F911D08952091C01630E02F5F3F4FC9
:101890002F7733274091BF1650E024173507D1F337
:1018A000F901EF5BF84E80832093C01680913101DF
:1018B0008062809331010895CF93DF93EC01899189
:1018C000882319F00E94430CFACFDF91CF9108953D
:1018D000CF93DF93FC018491EF012196882321F0BF
:1018E0000E94430CFE01F7CFDF91CF910895F89449
:1018F0008091BE162091BD16789490E080589F4F3D
:10190000821B91098F7799270895F8948091BD16CD
:101910008093BE1678940895F894E1EBF0E010827D
:1019200082E88093B200B898A0E7B0E08C91816023
:101930008C931092B00080818460808378940895A5
:101940001092C7181092C6181092C9181092C81891
:10195000E1EBF0E08081816080830895E1EBF0E0CD
:1019600080818E7F808308950E94660A833551F5B9
:101970002FEF8FE794E0215080409040E1F700C0C6
:1019800000000E94660A90E090939902809398026A
:101990002FEF8FE794E0215080409040E1F700C0A6
:1019A00000000E94660A90E090939702809396024E
:1019B0000E94A00C1092D3181092D21881E080934C
:1019C000D11829C0863409F048C02FEF8FE794E082
:1019D000215080409040E1F700C000000E94660A5C
:1019E0008D34E1F42FEF8FE794E021508040904058
:1019F000E1F700C000000E94660A90E09093970211
:101A0000809396020E94A00C81E08093D2181092DD
:101A1000D3181092D1188093D01808958D36E9F418
:101A20002FEF8FE794E0215080409040E1F700C015
:101A300000000E94660A90E09093970280939602BD
:101A40000E94A00C81E08093D3181092D2181092BB
:101A5000D1188093D0180C94850C08958091D018DB
:101A600081111092D0180895809198029091990256
:101A700008958091D11808958091D2180895809189
:101A8000D3180895809196029091970208956FEB74
:101A900075E18BE692E00E9416198BE692E00C94B9
:101AA000760A69EC75E18BE692E00E9416198BE6E6
:101AB00092E00E94760A0C94AE0C8091C618909128
:101AC000C71808951092CF1881E08093CE18109215
:101AD000CD18089581E08093CF181092CE181092FF
:101AE000CD1808951092CF181092CE1881E08093EF
:101AF000CD180895909395028093940208950F93C2
:101B00001F93CF93DF93CDB7DEB764970FB6F894EA
:101B1000DEBF0FBECDBF182F092F6D3419F461ED54
:101B200075E104C06D36F9F465ED75E1CE010196FD
:101B30000E941619CE0101969F938F930F931F93C6
:101B40008BED95E19F938F938BE692E09F938F931C
:101B50000E9431198BE692E00E94760A0FB6F89443
:101B6000DEBF0FBECDBF64960FB6F894DEBF0FBECA
:101B7000CDBFDF91CF911F910F9108957F936F9308
:101B80009F938F938AEE95E19F938F938BE692E0DC
:101B90009F938F930E9431198DB79EB708960FB609
:101BA000F8949EBF0FBE8DBF8BE692E00C94760A30
:101BB000242F042E000C330B3F934F93262F062E19
:101BC000000C330B3F936F939F938F9389EF95E1B5
:101BD0009F938F938BE692E09F938F930E9431198E
:101BE0008DB79EB70A960FB6F8949EBF0FBE8DBFF5
:101BF0008BE692E00C94760A262F062E000C330B0F
:101C00003F936F939F938F938AE096E19F938F9377
:101C10008BE692E09F938F930E9431198DB79EB708
:101C200008960FB6F8949EBF0FBE8DBF8BE692E06C
:101C30000C94760A3B9A439808950E948C0C0C945D
:101C40001A0E439A089581E08093CC180E94210EC9
:101C50008091D118882309F44BC08091CD1894E06D
:101C6000899F900111249091CE18892F90E0880FC0
:101C7000991F822B932B2091CF18822B81309105B5
:101C8000A1F02CF4892B89F568E176E13BC0823024
:101C90009105A1F0049749F58091C7188F93809121
:101CA000C6188F9386E496E111C08091C7188F9370
:101CB0008091C6188F9382E396E108C08091C7187F
:101CC0008F938091C6188F938CE396E19F938F93A7
:101CD0008BE692E09F938F930E9431190F900F90A3
:101CE0000F900F900F900F9011C06DE476E10AC035
:101CF0008091D21881110EC08091D31881110AC031
:101D000069E576E18BE692E00E9416198BE692E097
:101D10000C94760A8091C7188F938091C6188F9380
:101D2000809195028F93809194028F938EE696E135
:101D30009F938F938BE692E09F938F930E9431192C
:101D40008DB79EB708960FB6F8949EBF0FBE8DBF95
:101D5000DDCF439808951F920F920FB60F92112472
:101D60000BB60F922F933F934F935F936F937F9395
:101D70008F939F93AF93BF93EF93FF938091C81876
:101D80009091C91801969093C9188093C8188091B2
:101D9000C8189091C918883E934040F18091C618A8
:101DA0009091C71801969093C7188093C618109207
:101DB000C9181092C8188091CC188823B9F0809166
:101DC000CA189091CB189C012F5F3F4F3093CB18CE
:101DD0002093CA18029754F00E94A90E0E94AE0CDC
:101DE0001092CC181092CB181092CA1882E88093E7
:101DF000B200B898FF91EF91BF91AF919F918F91F1
:101E00007F916F915F914F913F912F910F900BBEFA
:101E10000F900FBE0F901F90189580919A02089511
:101E20008091D5189091D61808959093D6188093E4
:101E3000D51808959C01261B370BE4E6E29FC001EC
:101E4000E39F900D11249A01261B370BB9010E94C4
:101E50006D1577FD05C06536710524F4862F08954C
:101E600080E0089584E60895CF9383E00E94F3050F
:101E70008093E71882E00E94F3058093E61881E0E2
:101E80000E94F305C82F8093E5184091DD1850910A
:101E9000DE186091A7027091A8028091E71890E087
:101EA0000E941A0F8093E4184091DB185091DC18BF
:101EB0006091A5027091A6028C2F90E00E941A0FEB
:101EC0008093E2184091D9185091DA186091A302DA
:101ED0007091A4028091E61890E00E941A0F8093FE
:101EE000E318CF9108950E94340F8091E71890E095
:101EF0002091DD183091DE182817390724F49093CB
:101F0000DE188093DD182091A7023091A802821775
:101F1000930724F49093A8028093A7028091E61877
:101F200090E02091D9183091DA182817390724F455
:101F30009093DA188093D9182091A3023091A402CB
:101F40008217930724F49093A4028093A3028091B4
:101F5000E51890E02091DB183091DC18281739073C
:101F600024F49093DC188093DB182091A502309123
:101F7000A6028217930724F49093A6028093A502E9
:101F8000089581E00E942A090E940B096DE78DE700
:101F90000E944A0A80E00E942A098A3591051CF4B1
:101FA0000E94730FF7CF81E00E942A090E94040962
:101FB00080E00E942A09843B91051CF40E94730F63
:101FC000F7CF81E00E942A090E940B0980E00E945D
:101FD0002A098A3591051CF40E94730FF7CF0C94DF
:101FE00026098F929F92AF92BF92CF92DF92EF928B
:101FF000FF920E94340FE090E218F12CC090E41898
:10200000D12CB7016C197D09072E000C880B990B98
:102010000E9498164B015C018091E318B601680F8D
:10202000711D6E0D7F1D072E000C880B990B0E94F1
:10203000981620E030E040E85FE30E9482159B01A3
:10204000AC01C501B4010E94EE1520E030E04FE77D
:1020500053E40E9424174B015C019B01AC01609189
:10206000EA187091EB188091EC189091ED180E948D
:1020700081152DEC3CEC4CE45DE30E9424170E949A
:1020800060166B017C012AE939E949E15FE3C5018A
:10209000B4010E9424170E946016C60ED71E8092BB
:1020A000EA189092EB18A092EC18B092ED1868EC38
:1020B00070E06C197D09C60188539F4F6F3F710511
:1020C00009F02CF477FF05C060E070E002C06FEF0C
:1020D00070E08F3F910509F02CF497FF05C080E078
:1020E00090E002C08FEF90E0FF90EF90DF90CF90F4
:1020F000BF90AF909F908F900C944A0A81E090E03F
:102100002091E7182A3010F080E090E09C01220F27
:10211000331F220F331F81E090E04091E6184A30D0
:1021200010F080E090E0880F991F822B91E02091C1
:10213000E5182A3008F090E0892B873079F4209157
:10214000E8183091E918C90101969093E918809335
:10215000E81881E02331314034F404C01092E918CA
:102160001092E81880E00895FF920F931F93CF9389
:10217000DF93082F0E94F608C0E0D0E010E0FF24B3
:10218000F394C017D1072CF50E94F10F8091E61847
:102190008D3168F08091E7188D3120F48091E51839
:1021A0008D3128F00E9426091092D41808C00E9490
:1021B0007E10882349F30E942609F092D41868EC17
:1021C00088EC0E944A0A8FE590E00E94F20921966D
:1021D000D8CFDF91CF911F910F91FF9008958091FB
:1021E000D41881111092D41808956FEA8FEA0E94D2
:1021F0004A0A82E390E00E94060A6FEA8FEA0E9490
:102200004A0A0E9404090E94340F8091E618803126
:10221000D0F30C9426096FEA8FEA0E944A0A82E3FF
:1022200090E00E94100A6FEA8FEA0E944A0A0E9418
:102230000B090E94340F8091E6188031D0F30C9482
:102240002609CF9390919A028917A1F1803391F1D9
:10225000C82F9E3449F01CF4953469F029C0933599
:1022600089F09735B1F024C08335C9F08735F1F096
:102270008534F1F418C08335B1F0873581F08E34A0
:10228000B9F414C08E3459F0873569F0853481F47F
:102290000DC08E3441F0833549F0853449F48AE528
:1022A00090E00E94100A0E940B1102C00E94F510DB
:1022B000C0939A02CF910895CF9390919A02891773
:1022C000C1F18033B1F1C82F9E3449F01CF495342C
:1022D00069F02DC0933589F09735B1F028C083356A
:1022E000C9F0873501F1853411F518C08335B1F097
:1022F000873581F08E34D9F416C08E3459F0873585
:1023000069F08534A1F40FC08E3441F0833559F063
:10231000853469F48AE590E00E94100A8AE590E02D
:102320000E94100A04C08AE590E00E94060AC09349
:102330009A02CF91089580916C1990916D1908952A
:102340009C01215031092031310508F047C0FC01C2
:10235000E353FD4F60836D34A1F420916A193091ED
:102360006B1922313105D4F5A9014F5F5F4F5093AE
:102370006B1940936A19220F331FF901E25CF64E84
:102380002BC06D36A1F42091681930916919223162
:10239000310524F5A9014F5F5F4F509369194093B0
:1023A0006819220F331FF901EA5EF64E15C06E342C
:1023B000A9F420916619309167192231310574F41E
:1023C000A9014F5F5F4F5093671940936619220F21
:1023D000331FF901E251F74E9183808308959C01E8
:1023E000215031092031310528F4FC01E353FD4F20
:1023F0008081089580E308958091701990917119FA
:102400008131910544F4880F991FFC01E152FD4F81
:102410008081918108958FEF9FEF089580917019C9
:102420009091711901969093711980937019089584
:10243000E0917219F0917319EF5FFC4F808108955C
:102440008091CB029091CC020895880F991FFC01D6
:10245000EC58F64E808191810895CF93DF93FC0173
:1024600020E030E08FEF9FE74FEF5FE7EB01A991AE
:10247000BE01A11107C0A081B1814A175B0714F00A
:10248000C901AD012F5F3F4F32962334310571F7FB
:10249000DF91CF910895CF93DF93EC01FC01EE0F14
:1024A000FF1FEC58F64E808191818F3F2FEF9207EE
:1024B00071F00E944B12DF93CF938BE796E19F93CD
:1024C0008F930E941D190F900F900F900F90DF9126
:1024D000CF9108956F927F928F929F92AF92BF9209
:1024E000CF92DF92EF92FF920F931F93CF93DF93E0
:1024F000CDB7DEB7C354D1090FB6F894DEBF0FBE17
:10250000CDBFDE011196EAEFF9E12FEF3FE721930E
:1025100031931D924AE1E038F407C9F72FEF3FEFFE
:102520003093751920937419FC01EE0FFF1FE650CC
:10253000F64E1182108202E410E08824839463E452
:10254000962EBE016F5F7F4F8AEF99E10E942D1298
:10255000E1E0F0E0EC0FFD1FE80FF91F808224E7B7
:10256000622E29E1722E989E5001999EB00C112482
:10257000EAEFF9E1DE0111967D0120E030E0BC01D7
:10258000660F771F6650764ED7014D917D01411140
:1025900018C0A9014A0D5B1D4B565C4FDA01DC9057
:1025A000DD2079F0DB014D915C914D0D511DC08016
:1025B000D1804C155D052CF4D3018D939C935183F0
:1025C00040832F5F3F4FB2E06B0E711C3296233475
:1025D0003105D1F60150110909F0B3CFCD5BDF4FC2
:1025E0000FB6F894DEBF0FBECDBFDF91CF911F9124
:1025F0000F91FF90EF90DF90CF90BF90AF909F90A2
:102600008F907F906F9008954F925F926F927F921C
:102610008F929F92AF92BF92CF92DF92EF92FF92F2
:102620000F931F93CF93DF93C82FCB010E946A12A1
:10263000CD3409F058C0E0913E19F0913F1993E074
:10264000EE0FFF1F9A95E1F7EB5FFC4F2081318180
:10265000C0916A19D0916B191C161D060CF0FEC0B2
:10266000C0907219D09073190EE319E148EB5BE04A
:1026700060E070E0AA24AA94BB24BA94F801A19166
:10268000B1918F01FD0183E0EE0FFF1F8A95E1F705
:10269000CF018B5F9C4F3C01490180E090E0F3014A
:1026A000219131913F017901EE0CFF1CF701E650B9
:1026B000F64EE080F180E416F50614F0940103C0B4
:1026C0006C01A7015D0101968430910511F049016B
:1026D000E6CF6F5F7F4FC617D70781F6C09272199A
:1026E000D0927319B1C0CD3609F053C0E0911619DC
:1026F000F091171923E0EE0FFF1F2A95E1F7EB5F2A
:10270000FC4F2081318100916819109169191016D0
:1027100011060CF0A3C0809072199090731996E185
:10272000492E99E1592E48EB5BE0A0E0B0E0AA24E5
:10273000AA94BB24BA94F201C191D1912F01FE0158
:1027400083E0EE0FFF1F8A95E1F7CF018B5F9C4F6F
:102750003C0160E070E0F301E190F1903F0167011E
:10276000CC0CDD1CC6018650964EFC01C080D18089
:10277000C416D50624F44B01A60197015E016F5FD4
:102780007F4F6430710539F711960A171B0799F6C8
:102790004EC0CE3409F050C0E091EE18F091EF1821
:1027A00093E0EE0FFF1F9A95E1F7EB5FFC4F20815E
:1027B0003181C0906619D09067191C141D040CF06B
:1027C0004DC080907219909073190EEE18E148EB8D
:1027D0005BE060E070E0AA24AA94BB24BA94F801FC
:1027E000A191B1918F01FD0183E0EE0FFF1F8A954A
:1027F000E1F7EB5FFC4F80E090E0E190F190E701C2
:10280000CC0FDD1FC650D64E0990D881C02DC417FD
:10281000D50724F44C01AE0197015D010196843087
:10282000910559F76F5F7F4FC616D706C1F68092A4
:1028300072199092731908C020E030E048EB5BE019
:10284000AA24AA94BB24BA945093CC024093CB02FE
:1028500030936D1920936C19C50102C08FEF9FEF63
:10286000DF91CF911F910F91FF90EF90DF90CF906C
:10287000BF90AF909F908F907F906F905F904F90A0
:102880000895CF93DF93EC01CB010E946A12FE0101
:1028900083E0EE0FFF1F8A95E1F7EB5FFC4FD081DD
:1028A000C181709172196091731920E030E048EB9A
:1028B0005BE081919191DC01AA0FBB1FA650B64E3F
:1028C0000D90BC91A02DA417B5071CF08D2F9C2F47
:1028D00003C0722F632FAD012F5F3F4F24303105AE
:1028E00019F0D82FC92FE5CF70937219609373191F
:1028F0005093CC024093CB02DF91CF9108959C017D
:1029000063347105A0F58334910588F5A3E4A89F8D
:10291000F001A99FF00D1124EB56FC4FE60FF71FB5
:102920001082A69FC001A79F900D1124AC014B56A9
:102930005C4FFA01E20FF31F1082FB01EE0FFF1F45
:10294000EC58F64E808191818F3F2FEF920779F0FE
:10295000A89F9001A99F300D11242B563C4FF901DF
:10296000E60FF71F1082FA01E80FF91F1082089591
:102970000F931F93CF93DF939C01FB01009749F0C6
:102980008234910501F1309741F06234710569F4A8
:1029900080C06D33710549F478C0859731F02D33CF
:1029A000310519F4309709F46EC0C9016EE070E08A
:1029B0000E946D15EC018A3091055CF4219780F43A
:1029C000C8E0D0E00DC06532710509F467C08AE047
:1029D00090E065E070E00E946D15EC01CC0FDD1F0A
:1029E000C90101972EE030E0B9010E946D158B01FD
:1029F000000F111F69E070E00E946D15060F171F90
:102A0000CF01B9010E946D158A3091053CF49C01FB
:102A10002150310950F428E030E007C065E070E053
:102A20000E946D159C01220F331FCF0101976EE0AC
:102A300070E00E946D15FB01EE0FFF1F69E070E072
:102A40000E946D156E0F7F1F601B710B2C1B3D0BC1
:102A50006130710521F06F3F8FEF780769F4213005
:102A60003105A9F02F3F8FEF380789F061307105EC
:102A700051F06F3F7F4F49F02130310569F02F3F12
:102A80003F4F29F40BC083E50AC08EE408C080E301
:102A900006C0859709F083CF85E401C087E5DF9103
:102AA000CF911F910F9108950E94570380E090E00D
:102AB0000895AA1BBB1B51E107C0AA1FBB1FA61785
:102AC000B70710F0A61BB70B881F991F5A95A9F7D7
:102AD00080959095BC01CD01089597FB072E16F4C3
:102AE000009407D077FD09D00E94591507FC05D046
:102AF0003EF4909581959F4F0895709561957F4F15
:102B000008955058BB27AA270E9499150C94EA16DD
:102B10000E94DC1638F00E94E31620F039F49F3F43
:102B200019F426F40C94D9160EF4E095E7FB0C94F6
:102B3000D316E92F0E94FB1658F3BA1762077307E2
:102B40008407950720F079F4A6F50C941D170EF470
:102B5000E0950B2EBA2FA02D0B01B90190010C01AD
:102B6000CA01A0011124FF27591B99F0593F50F4C5
:102B7000503E68F11A16F040A22F232F342F44271D
:102B8000585FF3CF469537952795A795F040539515
:102B9000C9F77EF41F16BA0B620B730B840BBAF0E5
:102BA0009150A1F0FF0FBB1F661F771F881FC2F750
:102BB0000EC0BA0F621F731F841F48F48795779564
:102BC0006795B795F7959E3F08F0B0CF9395880F1E
:102BD00008F09927EE0F9795879508950E940216A1
:102BE0000C94EA160E94E31658F00E94DC1640F09E
:102BF00029F45F3F29F00C94D31651110C941E1741
:102C00000C94D9160E94FB1668F39923B1F355234F
:102C100091F3951B550BBB27AA27621773078407EF
:102C200038F09F5F5F4F220F331F441FAA1FA9F385
:102C300035D00E2E3AF0E0E832D091505040E69573
:102C4000001CCAF72BD0FE2F29D0660F771F881FD4
:102C5000BB1F261737074807AB07B0E809F0BB0BC7
:102C6000802DBF01FF2793585F4F3AF09E3F5105DB
:102C700078F00C94D3160C941E175F3FE4F3983E43
:102C8000D4F3869577956795B795F7959F5FC9F7C4
:102C9000880F911D9695879597F90895E1E0660F45
:102CA000771F881FBB1F621773078407BA0720F0BE
:102CB000621B730B840BBA0BEE1F88F7E095089527
:102CC0000E9467166894B1110C941E1708950E9413
:102CD000031788F09F5798F0B92F9927B751B0F094
:102CE000E1F0660F771F881F991F1AF0BA95C9F790
:102CF00014C0B13091F00E941D17B1E008950C94FA
:102D00001D17672F782F8827B85F39F0B93FCCF3AC
:102D1000869577956795B395D9F73EF4909580950C
:102D2000709561957F4F8F4F9F4F0895E89409C02C
:102D300097FB3EF490958095709561957F4F8F4FEE
:102D40009F4F9923A9F0F92F96E9BB279395F69504
:102D5000879577956795B795F111F8CFFAF4BB0F82
:102D600011F460FF1BC06F5F7F4F8F4F9F4F16C0E6
:102D7000882311F096E911C0772321F09EE8872F70
:102D8000762F05C0662371F096E8862F70E060E02C
:102D90002AF09A95660F771F881FDAF7880F9695A5
:102DA000879597F9089597F99F6780E870E060E04C
:102DB00008959FEF80EC089500240A9416161706D4
:102DC00018060906089500240A941216130614061C
:102DD00005060895092E0394000C11F4882352F07F
:102DE000BB0F40F4BF2B11F460FF04C06F5F7F4F37
:102DF0008F4F9F4F089557FD9058440F551F59F01E
:102E00005F3F71F04795880F97FB991F61F09F3FD7
:102E100079F087950895121613061406551FF2CF00
:102E20004695F1DF08C0161617061806991FF1CF50
:102E300086957105610508940895E894BB27662777
:102E40007727CB0197F908950E9437170C94EA165B
:102E50000E94DC1638F00E94E31620F0952311F052
:102E60000C94D3160C94D91611240C941E170E949E
:102E7000FB1670F3959FC1F3950F50E0551F629FAD
:102E8000F001729FBB27F00DB11D639FAA27F00DC3
:102E9000B11DAA1F649F6627B00DA11D661F829FEA
:102EA0002227B00DA11D621F739FB00DA11D621FCF
:102EB000839FA00D611D221F749F3327A00D611DEC
:102EC000231F849F600D211D822F762F6A2F1124CE
:102ED0009F5750409AF0F1F088234AF0EE0FFF1F01
:102EE000BB1F661F771F881F91505040A9F79E3F58
:102EF000510580F00C94D3160C941E175F3FE4F339
:102F0000983ED4F3869577956795B795F795E795AD
:102F10009F5FC1F7FE2B880F911D9695879597F9B6
:102F20000895FA01EE0FFF1F309621053105A1F13A
:102F30006115710561F48038BFE39B0749F168941E
:102F40009038810561F08038BFEF9B0741F09923ED
:102F50004AF5FF3FE1053105210519F1E894089490
:102F6000E795D901AA2329F4AB2FBE2FF85FD0F340
:102F700010C0FF5F70F4A695E0F7F73950F019F034
:102F8000FF3A38F49F779F930DD00F9007FC90582D
:102F9000089546F00C94D91660E070E080E89FE355
:102FA00008954FE79F775F934F933F932F930E942E
:102FB0008C182F913F914F915F910E9424170C9490
:102FC000E91729F416F00C94D3160C941D170C94E1
:102FD000D9160E940317A8F39638A0F707F80F92A6
:102FE000E8942BE33AEA48EB5FE70E943A170F9226
:102FF0000F920F924DB75EB70F920E94D418E4EE75
:10300000F0E00E941B184F915F91EF91FF91E595C1
:10301000EE1FFF1F49F0FE57E0684427EE0F441FE4
:10302000FA95E1F74195550B0E944E180F9007FE57
:103030000C9442180895DF93CF931F930F93FF9240
:10304000EF92DF927B018C01689406C0DA2EEF01CB
:103050000E943717FE01E894A5912591359145917D
:103060005591A6F3EF010E949915FE019701A80161
:10307000DA9469F7DF90EF90FF900F911F91CF9155
:10308000DF9108959B01AC0160E070E080E89FE370
:103090000C94EE150C94D3160C9408190E94031787
:1030A000D8F39923C9F3940F511DA3F391505040C5
:1030B00094F059F0882332F0660F771F881F9150E3
:1030C0005040C1F79E3F51052CF7880F911D9695F2
:1030D000879597F908955F3FACF0983E9CF0BB2729
:1030E000869577956795B79508F4B1609395C1F784
:1030F000BB0F58F711F460FFE8CF6F5F7F4F8F4F22
:103100009F4FE3CF0C941E1716F00C9408190C94E3
:10311000D91668940C94D3160E940317A8F3992328
:10312000C1F3AEF3DF93CF931F930F93FF92C92F99
:10313000DD2788232AF02197660F771F881FDAF78B
:1031400020E030E040E85FEB9FE3883920F0803EEC
:1031500038F021968F770E948215ECE0F1E004C0F0
:103160000E948215E9E3F1E00E941B188B01BE0169
:10317000EC01FB2E6F5771097595771F880B990B22
:103180000E94981628E132E741E35FE30E94371777
:10319000AF2D9801AE01FF900F911F91CF91DF915C
:1031A0000E9499150C94EA16FA01DC01AA0FBB1FC4
:1031B0009B01AC01BF5728F42227332744275078BE
:1031C00020C0B75190F4AB2F002446953795279532
:1031D000011CA395D2F3002071F0220F331F441F6E
:1031E000B395DAF30ED00C94811561307105A0E827
:1031F0008A07B94630F49B01AC01662777278827F8
:103200009078309621F02083318342835383089550
:103210009F3F31F0915020F4879577956795B7954A
:10322000880F911D9695879597F90895FB01DC010C
:1032300001900D920020E1F70895CF93DF93CDB771
:10324000DEB7AE014A5F5F4FFA0161917191AF0144
:103250008091821A9091831A0E946019DF91CF9118
:1032600008950F931F93CF93DF93CDB7DEB72E97BB
:103270000FB6F894DEBF0FBECDBF0E891F8986E062
:103280008C831A8309838FEF9FE79E838D83AE0122
:10329000465E5F4F688D798DCE0101960E94601960
:1032A000EF81F885E00FF11F10822E960FB6F8948B
:1032B000DEBF0FBECDBFDF91CF911F910F9108955B
:1032C0002F923F924F925F926F927F928F929F9236
:1032D000AF92BF92CF92DF92EF92FF920F931F9324
:1032E000CF93DF93CDB7DEB72B970FB6F894DEBF41
:1032F0000FBECDBF6C017B018A01FC0117821682D3
:10330000838181FFCCC1CE0101963C01F6019381FE
:10331000F70193FD859193FF81917F01882309F443
:10332000BAC1853239F493FD859193FF81917F0174
:10333000853229F4B60190E00E94801BE7CF912CE2
:10334000212C312CFFE1F315D8F08B3279F038F4D1
:10335000803279F08332A1F4232D20611DC08D329B
:1033600061F0803369F4232D216016C0832D8260C3
:10337000382EE32DE4603E2E2AC0F32DF8601DC0E8
:1033800037FC2DC020ED280F2A3040F08E32B9F4E2
:1033900036FC81C1232D2064322E19C036FE06C0B2
:1033A0008AE0989E200D1124922E11C0EAE02E9EF4
:1033B000200D1124222EF32DF0623F2E08C08C36F2
:1033C00021F4832D8068382E02C0883641F4F7013D
:1033D00093FD859193FF81917F018111B3CF982F48
:1033E0009F7D9554933028F40C5F1F4F9FE3998382
:1033F0000DC0833631F0833771F0833509F059C041
:1034000021C0F801808189830E5F1F4F8824839437
:10341000912C530113C02801F2E04F0E511CF8010A
:10342000A080B18036FE03C0692D70E002C06FEF4E
:103430007FEFC5010E94751B4C018201F32DFF77C0
:103440003F2E16C0280122E0420E511CF801A08038
:10345000B18036FE03C0692D70E002C06FEF7FEFD0
:10346000C5010E946A1B4C01F32DF0683F2E8201BA
:1034700033FC1BC0822D90E088169906B0F4B6018B
:1034800080E290E00E94801B2A94F4CFF50137FC83
:10349000859137FE81915F01B60190E00E94801B0B
:1034A00021102A9421E0821A91088114910471F765
:1034B000E8C0843611F0893641F5F80137FE07C0BF
:1034C00060817181828193810C5F1F4F08C0608190
:1034D0007181072E000C880B990B0E5F1F4FF32D87
:1034E000FF763F2E97FF09C0909580957095619566
:1034F0007F4F8F4F9F4FF0683F2E2AE030E0A301AF
:103500000E94BC1B882E861845C0853731F4232DB8
:103510002F7EB22E2AE030E025C0932D997FB92E60
:103520008F36C1F018F4883579F0B5C0803719F0BE
:10353000883721F0B0C0E92FE061BE2EB4FE0DC087
:10354000FB2DF460BF2E09C034FE0AC0292F26606F
:10355000B22E06C028E030E005C020E130E002C015
:1035600020E132E0F801B7FE07C0608171818281FD
:1035700093810C5F1F4F06C06081718180E090E0F5
:103580000E5F1F4FA3010E94BC1B882E8618FB2DC7
:10359000FF773F2E36FE0DC0232D2E7FA22E8914DD
:1035A00058F434FE0BC032FC09C0832D8E7EA82E49
:1035B00005C0B82CA32C03C0B82C01C0B92CA4FEA4
:1035C0000FC0FE01E80DF11D8081803321F49A2D9A
:1035D000997EA92E09C0A2FE06C0B394B39404C07C
:1035E0008A2D867809F0B394A3FC11C0A0FE06C012
:1035F000B21488F4280C922C9B180EC0B21460F4FC
:10360000B60180E290E00E94801BB394F7CFB21421
:1036100018F42B1802C0982C212CA4FE10C0B6015F
:1036200080E390E00E94801BA2FE17C0A1FC03C0B3
:1036300088E790E002C088E590E0B6010CC08A2DD2
:10364000867859F0A1FE02C08BE201C080E2A7FC9F
:103650008DE2B60190E00E94801B891438F4B60117
:1036600080E390E00E94801B9A94F7CF8A94F30144
:10367000E80DF11D8081B60190E00E94801B811051
:10368000F5CF222009F442CEB60180E290E00E94FC
:10369000801B2A94F6CFF6018681978102C08FEFB6
:1036A0009FEF2B960FB6F894DEBF0FBECDBFDF9114
:1036B000CF911F910F91FF90EF90DF90CF90BF902F
:1036C000AF909F908F907F906F905F904F903F90C2
:1036D0002F900895FC010590615070400110D8F7BB
:1036E000809590958E0F9F1F0895FC01615070404A
:1036F00001900110D8F7809590958E0F9F1F089527
:103700000F931F93CF93DF93FB01238121FD03C010
:103710008FEF9FEF2CC022FF16C046815781248176
:1037200035814217530744F4A081B1819D012F5F79
:103730003F4F318320838C93268137812F5F3F4F0A
:103740003783268314C08B01EC01FB010084F185D3
:10375000E02D1995892BE1F6D80116968D919C9153
:103760001797019617969C938E931697CE01DF912B
:10377000CF911F910F910895FA01AA27283051F196
:10378000203181F1E8946F936E7F6E5F7F4F8F4F92
:103790009F4FAF4FB1E03ED0B4E03CD0670F781FF1
:1037A000891F9A1FA11D680F791F8A1F911DA11DD6
:1037B0006A0F711D811D911DA11D20D009F468940F
:1037C0003F912AE0269F11243019305D3193DEF6B7
:1037D000CF010895462F4770405D4193B3E00FD06D
:1037E000C9F7F6CF462F4F70405D4A3318F0495D58
:1037F00031FD4052419302D0A9F7EACFB4E0A6953B
:103800009795879577956795BA95C9F7009761055C
:10381000710508959B01AC010A2E069457954795B2
:1038200037952795BA95C9F7620F731F841F951FA7
:08383000A01D0895F894FFCFDC
:103838004200713D8A3E48656C6C6F2C20492061BE
:103848006D20612046697265626972642D2D2D2D87
:103858002D2D2D2D2D2D2D2D2D2D2D2D2D2D2D2D90
:103868002D2D2D2D2D2D2D2D2D2D2D2D2D2D2D2D80
:103878002D2D2D2D2D2D2D2D2D20560A0048656C12
:103888006C6F20576F726C64204920616D20612035
:10389800466972656269726420560048656C6C6F8F
:1038A8002C204920616D2061204669726562697229
:1038B800642D2D2D2D2D2D2D2D2D2D2D2D2D2D2DF9
:1038C80020560A000100010001004E040005000412
:1038D800000000FF0FFF0FFF0F48656C6C6F2C2076
:1038E8004920616D20612046697265626972642DA4
:1038F8002D2D2D2D2D2D2D20560A0010273030303E
:103908003030303030303030303030303030300DD2
:1039180000090005000100020006000A000E000F61
:10392800000B0007000300040008000C0010001141
:10393800004553574E0A0002000B0010000A00020F
:10394800000B0010000B0004000C0012000C000615
:10395800000D0014000D0008000E001600180010DD
:103968000019001E00190012001A0020001A001485
:10397800001B0022001B0016001C00240026001E4D
:103988000027002C002700200028002E00280022F5
:103998000029003000290024002A00320034002CBD
:1039A8000035003A0035002E0036003C0036003065
:1039B8000037003E00370032003800400042004225
:1039C800004200420000000000000000000000006B
:1039D80000000000000000000000000000000000DF
:1039E80000000000000000000000000000000000CF
:1039F80000000000000000000000000000000000BF
:103A080000000100000000000000010000000000AC
:103A1800000001000000000000000000000000009D
:103A2800000000000000000000000000000000008E
:103A3800000000000000000000000000000000007E
:103A4800000000000000000000000000010001006C
:103A5800000000000000000000000000000000005E
:103A6800000000000000000000000000000000004E
:103A7800000000000000000000000000000000003E
:103A8800000000000000000000000000000000002E
:103A9800010001000000000000010000000000001B
:103AA800000000000000000000000000000000000E
:103AB80000000000000000000000000000000000FE
:103AC80000000000000000000000000000000000EE
:103AD80000000000010001000000000000000000DC
:103AE80000000000000000000000000000000000CE
:103AF80000000000000000000000000000000000BE
:103B080000000000000000000000000000000000AD
:103B1800000000000000000001000100000000009B
:103B2800010000000000000000000000000000008C
:103B3800000000000000000000000000000000007D
:103B4800000000000000000000000000000000006D
:103B5800000000000000000000000000010001005B
:103B6800000000000000000000000000000000004D
:103B7800000000000000000000000000000000003D
:103B8800000000000000000000000000000000002D
:103B9800000000000000000000000000000000001D
:103BA800010001000000000100000000000000000A
:103BB80000000000000000000000000000000000FD
:103BC80000000000000000000000000000000000ED
:103BD80000000000000000000000000000000000DD
:103BE80000000000010001000000000000000000CB
:103BF80000000000000000000000000000000000BD
:103C080000000000000000000000000000000000AC
:103C1800000000000000000000000000000000009C
:103C2800000000000000000001000000000001008A
:103C3800000000000000000000000000000000007C
:103C4800000000000000000000000000000000006C
:103C5800000000000000000000000000000000005C
:103C6800000000000100000000000000000000004B
:103C7800000001000000000000000000000000003B
:103C8800000000000000000000000000000000002C
:103C9800000000000000000000000000000000001C
:103CA800000000000000000000010000000000000B
:103CB80000000000000000010000000000000000FB
:103CC80000000000000000000000000000000000EC
:103CD80000000000000000000000000000000000DC
:103CE80000000000000000000000000000000100CB
:103CF80000000000000000000000000001000000BB
:103D080000000000000000000000000000000000AB
:103D1800000000000000000000000000000000009B
:103D2800000000000000000000000000000000008B
:103D3800000000010000000000000000000000007A
:103D4800000100000000000000000000000000006A
:103D5800000000000000000000000000000000005B
:103D6800000000000000000000000000000000004B
:103D7800000000000000000001000000000000003A
:103D8800000000000000010000000000000000002A
:103D9800000000000000000000000000000000001B
:103DA800000000000000000000000000000000000B
:103DB80000000000000000000000000001000000FA
:103DC80000000100000000000000010000000000E9
:103DD80000000000000000000000000000000000DB
:103DE80000000000000000000000000000000000CB
:103DF80000000000000000000000000000000000BB
:103E080000000000010001000000000000000000A8
:103E1800000000000000000000000000000000009A
:103E2800000000000000000000000000000000008A
:103E3800000000000000000000000000000000007A
:103E48000000000100000000010001000000000067
:103E58000001000000000000000000000000000059
:103E6800000000000000000000000000000000004A
:103E7800000000000000000000000000000000003A
:103E88000000000000000000000000000100010028
:103E9800000000000000000000000000000000001A
:103EA800000000000000000000000000000000000A
:103EB80000000000000000000000000000000000FA
:103EC80000000000000000000000010000000000E9
:103ED80001000100000000000100000000000000D7
:103EE80000000000000000000000000000000000CA
:103EF80000000000000000000000000000000000BA
:103F080000000000000000000000000000000000A9
:103F18000000000001000100000000000000000097
:103F28000000000000000000000000000000000089
:103F38000000000000000000000000000000000079
:103F48000000000000000000000000000000000069
:103F58000001000000000000010001000000000155
:103F68000000000000000000000000000000000049
:103F78000000000000000000000000000000000039
:103F88000000000000000000000000000000000029
:103F98000000000000000000000000000100010017
:103FA8000000000000000000000000000000000009
:103FB80000000000000000000000000000000000F9
:103FC80000000000000000000000000000000000E9
:103FD80000000000000000000100000000000000D8
:103FE80001000000000001000000000000000000C7
:103FF80000000000000000000000000000000000B9
:1040080000000000000000000000000000000000A8
:104018000000000000000000000000000100000097
:104028000000000000000000000001000000000087
:104038000000000000000000000000000000000078
:104048000000000000000000000000000000000068
:104058000000000000000000000000000000000058
:104068000001000000000000000000000000000146
:104078000000000000000000000000000000000038
:104088000000000000000000000000000000000028
:104098000000000000000000000000000000000018
:1040A8000000000000000100000000000000000007
:1040B80000000000010000000000000000000000F7
:1040C80000000000000000000000000000000000E8
:1040D80000000000000000000000000000000000D8
:1040E80000000000000000000000000100000000C7
:1040F80000000000000000000001000000000000B7
:1041080000000000000000000000000000000000A7
:104118000000000000000000000000000000000097
:104128000000000000000000000000000000000087
:104138000100000000000000000000000000010075
:104148000000000000000000000000000000000067
:104158000000000000000000000000000000000057
:104168000000000000000000000000000000000047
:104178000000000001000000000001000000000035
:104188000000010000000000000000000000000026
:104198000000000000000000000000000000000017
:1041A8000000000000000000000000000000000007
:1041B80000000000000000000000000001000100F5
:1041C80000000000000000000000000000000000E7
:1041D80000000000000000000000000000000000D7
:1041E80000000000000000000000000000000000C7
:1041F80000000000000000000000000100000000B6
:1042080001000100000000000001000000000000A3
:104218000000000000000000000000000000000096
:104228000000000000000000000000000000000086
:104238000000000000000000000000000000000076
:104248000000000001000100000000000000000064
:104258000000000000000000000000000000000056
:104268000000000000000000000000000000000046
:104278000000000000000000000000000000000036
:104288000000010000000000010001000000000023
:104298000100000000000000000000000000000015
:1042A8000000000000000000000000000000000006
:1042B80000000000000000000000000000000000F6
:1042C80000000000000000000000000001000100E4
:1042D80000000000000000000000000000000000D6
:1042E80000000000000000000000000000000000C6
:1042F80000000000000000000000000000000000B6
:1043080000000000000000000001000000000000A4
:104318000100010000000001000000000000000092
:104328000000000000000000000000000000000085
:104338000000000000000000000000000000000075
:104348000000000000000000000000000000000065
:104358000000000001000100000000000000000053
:104368000000000000000000000000000000000045
:104378000000000000000000000000000000000035
:104388000000000000000000000000000000000025
:104398000100000000000000010000000000010012
:1043A8000000000000000000000000000000000005
:1043B80000000000000001000000000000000000F4
:1043C80000000000000000000000000000000000E5
:1043D80000000000010000000000000000000000D4
:1043E80000000100000000000000000000000000C4
:1043F80000000000000000000000000000000000B5
:1044080000000000000000000000000000000000A4
:104418000000000000000000000100000000000093
:104428000000000000000001000000000000000083
:104438000000000000000000000000000000000074
:104448000000000000000000000000000000000064
:104458000000000000000000000000000000010053
:104468000000000000000000000000000100000043
:104478000000000000000000000000000000000034
:104488000000000000000000000000000000000024
:104498000000000000000000000000000000000014
:1044A8000000000100000000000000000000000003
:1044B80000010000000000000000000000000000F3
:1044C80000000000000000000000000000000000E4
:1044D80000000000000000000000000000000000D4
:1044E80000000000000000000100000000000000C3
:1044F80000000000000001000000000000000000B3
:1045080000000000000000000000000000000000A3
:104518000000000000000000000000000000000093
:104528000000000000000000000000000100000082
:104538000000010000000000000001000000000071
:104548000000000000000000000000000000000063
:104558000000000000000000000000000000000053
:104568000000000000000000000000000000000043
:104578000000000001000100000000000000000031
:104588000000000000000000000000000000000023
:104598000000000000000000000000000000000013
:1045A8000000000000000000000000000000000003
:1045B80000000001000000000100010000000000F0
:1045C80000010000000000000000000000000000E2
:1045D80000000000000000000000000000000000D3
:1045E80000000000000000000000000000000000C3
:1045F80000000000000000000000000001000100B1
:1046080000000000000000000000000000000000A2
:104618000000000000000000000000000000000092
:104628000000000000000000000000000000000082
:104638000000000000000000000001000000000071
:10464800010001000000000001000000000000005F
:104658000000000000000000000000000000000052
:104668000000000000000000000000000000000042
:104678000000000000000000000000000000000032
:104688000000000001000100000000000000000020
:104698000000000000000000000000000000000012
:1046A8000000000000000000000000000000000002
:1046B80000000000000000000000000000000000F2
:1046C80000010000000000000100010000000001DE
:1046D80000000000000000000000000000000000D2
:1046E80000000000000000000000000000000000C2
:1046F80000000000000000000000000000000000B2
:10470800000000000000000000000000010001009F
:104718000000000000000000000000000000000091
:104728000000000000000000000000000000000081
:104738000000000000000000000000000000000071
:104748000000000000000000010000000000000060
:10475800010000000000010000000000000000004F
:104768000000000000000000000000000000000041
:104778000000000000000000000000000000000031
:104788000000000000000000000000000100000020
:104798000000000000000000000001000000000010
:1047A8000000000000000000000000000000000001
:1047B80000000000000000000000000000000000F1
:1047C80000000000000000000000000000000000E1
:1047D80000010000000000000000000000000001CF
:1047E80000000000000000000000000000000000C1
:1047F80000000000000000000000000000000000B1
:1048080000000000000000000000000000000000A0
:10481800000000000000010000000000000000008F
:10482800000000000100000000000000000000007F
:104838000000000000000000000000000000000070
:104848000000000000000000000000000000000060
:10485800000000000000000000000001000000004F
:10486800000000000000000000010000000000003F
:104878000000000000000000000000000000000030
:104888000000000000000000000000000000000020
:104898000000000000000000000000000000000010
:1048A80001000000000000000000000000000100FE
:1048B80000000000000000000000000000000000F0
:1048C80000000000000000000000000000000000E0
:1048D80000000000000000000000000000000000D0
:1048E80000000000010000000000010000000000BE
:1048F80000000000000000000000000000000000B0
:10490800000000000000000000000000000000009F
:10491800000000000000000000000000000000008F
:10492800000000000000000000000000010001007D
:10493800000000000000000000000000000000006F
:10494800000000000000000000000000000000005F
:10495800000000000000000000000000000000004F
:10496800000000000000000000000001000000003E
:10497800010001000000000000000000000000002D
:10498800000000000000000000000000000000001F
:10499800000000000000000000000000000000000F
:1049A80000000000000000000000000000000000FF
:1049B80000000000010001000000000001000000EC
:1049C80000000000000000000000000000000000DF
:1049D80000000000000000000000000000000000CF
:1049E80000000000000000000000000000000000BF
:1049F80000000100000000000100010000000000AC
:104A0800000000000000000000000000000000009E
:104A1800000000000000000000000000000000008E
:104A2800000000000000000000000000000000007E
:104A3800000000000000000000000000010001006C
:104A4800000000000000000000000000000000005E
:104A5800000000000000000000000000000000004E
:104A6800000000000000000000000000000000003E
:104A7800000000000000000000010000000000002D
:104A8800010001000000000000000000000000001C
:104A9800000000000000000000000000000000000E
:104AA80000000000000000000000000000000000FE
:104AB80000000000000000000000000000000000EE
:104AC80000000000010001000000000000000000DC
:104AD80000000000000000000000000000000000CE
:104AE80000000000000000000000000000000000BE
:104AF80000000000000000000000000000000000AE
:104B0800010000000000000001000000000000009B
:104B1800000000000000000000000000000000008D
:104B2800000000000000000000000000000000007D
:104B3800010000000000000000000000000000006C
:104B480000000000000000000000000000003173B9
:104B580074204E6F64650A5E004D6964204E6F6470
:104B6800650A5E00393020446567726565204C65CA
:104B78006674207475726E0A5E0043656E746572A1
:104B8800206F6620626C6F636B2072656163686575
:104B9800640A5E004261636B206F6E206C696E650B
:104BA8000A5E004C656674205475726E0A5E005386
:104BB80074617274204C6F636174696F6E0A5E0071
:104BC80046696E69736865640A5E005265642050C0
:104BD800756C73657300477265656E2050756C73EC
:104BE800657300426C75652050756C736573006160
:104BF800636365707465645E0069676E6F72655E95
:104C08000072656400677265656E007363616E6E3D
:104C180065642D25642D25732100666F7277617296
:104C2800642D25642D25642100726F746174652DCF
:104C380025642D25632D25632100646562726973DF
:104C48002D25642D256321004572726F7220696ECF
:104C5800207461736B20636F6D706C6574696F6E1F
:104C68005E006D696E6F722D25645E006D616A6FFE
:104C7800722D25645E006E6F2D25645E005363619E
:104C88006E2D4572726F725E004572726F7220648B
:104C980065636F64696E67207461736B5E00666537
:104CA8007463682D25642D25645E0025642000004A
:00000001FF
