:100000000C94C8000C94AD080C94E9000C94E90021
:100010000C94E9000C94150B0C94F00A0C94E90074
:100020000C94E9000C94E9000C94E9000C94E900AC
:100030000C94E9000C94E9000C94E9000C94D110A4
:100040000C94E9000C94E9000C94E9000C94E9008C
:100050000C94E9000C94E9000C94E9000C94E9007C
:100060000C94E9000C94BC0C0C94F50C0C94E90075
:100070000C94E9000C94E9000C94E9000C94E9005C
:100080000C94E9000C94E9000C94E9000C94E9004C
:100090000C94E9000C94E9000C94E9000C94E9003C
:1000A0000C94E9000C94E9000C94E9000C94E9002C
:1000B0000C94E9000C94E9000C94E9000C94E9001C
:1000C0000C94E9000C94E9000C94E9000C94E9000C
:1000D0000C94E9000C94E9000C94C60D0C94FF0DEF
:1000E0000C94E900FC1201130F132113261334138F
:1000F000461307634236B79BD8A71A39685618AE1D
:10010000BAAB558C1D3CB7CC5763BD6DEDFD753E4C
:10011000F6177231BF000000803F08000000BE9259
:100120002449123EABAAAA2ABECDCCCC4C3E00003C
:100130000080BEABAAAAAA3E00000000BF000000DB
:10014000803F0000000000084178D3BB4387D113F3
:100150003D190E3CC3BD4282AD2B3E68EC8276BE9B
:10016000D98FE1A93E4C80EFFFBE01C4FF7F3F0065
:10017000000000000C9401130C94FC120C94261344
:100180000C9421130C9434130C940F130C944613F9
:1001900011241FBECFEFD1E2DEBFCDBF00E00CBF08
:1001A00018E1A0E0B2E0E2E7FDE300E00BBF02C02F
:1001B00007900D92A833B107D9F72CE1A8E3B8E175
:1001C00001C01D92A433B207E1F70E94E9170C9415
:1001D000B71E0C9400000E9414080E941B080E9485
:1001E000B2050E9427060E94D5080E94E6080E94D8
:1001F0009D0A0E94A40A0E94AF0A0E94B60A0E94A9
:10020000C40A0E9443100C94B40CCF9381E00E9466
:10021000671367E175E186E092E00E94B31B86E018
:1002200092E00E94BA0C81E00E94671362E275E1DD
:1002300086E092E00E94B31B86E092E00E94BA0C36
:100240006FEA8FEA0E948E0C8AE590E00E944A0CC9
:100250006DE275E186E092E00E94B31B86E092E0D9
:100260000E94BA0C68EC88EC0E948E0C84EB90E043
:100270000E94360C63E475E186E092E00E94B31BB5
:1002800086E092E00E94BA0C0E944E0AC82F0E949B
:10029000B20C0E9456068C2F0E948306C23519F4B8
:1002A0000E94A60F07C0C73419F40E94AE0F02C007
:1002B0000E94B60F84EB90E00E94400C6DE575E162
:1002C00086E092E00E94B31B86E092E00E94BA0CA6
:1002D0000E9493136CE675E186E092E00E94B31BE6
:1002E00086E092E00E94BA0C81E00E94671367E109
:1002F00075E186E092E00E94B31B86E092E00E94E6
:10030000BA0C81E00E94671368E775E186E092E02D
:100310000E94B31B86E092E00E94BA0C69E875E186
:1003200086E092E00E94B31B86E092E0CF910C94AD
:10033000BF067F928F929F92AF92BF92CF92DF9231
:10034000EF92FF920F931F93CF93DF930E94F80ECB
:100350000E94720FD82E882309F463C264E975E104
:1003600086E092E00E94B31B86E092E00E94BA0C05
:100370000E947D0FC82E882309F4A4C00E94361164
:10038000EC010E94780FBE010E94D2168C010E94DF
:10039000780F9F938F9386EA95E19F938F9336E032
:1003A000E32E32E0F32EFF92EF920E94CE1BC701A4
:1003B0000E94BA0C0E94780FEC010E94BE14BC018E
:1003C000990F880B990B0E943519209102023091E8
:1003D000030240910402509105020E948B180E9472
:1003E000FD185B010E94860F0F900F900F900F90E9
:1003F0000F900F90A816B90694F50E94860FC82E8C
:10040000B92E0E94BE14BF92CF92BC01990F880BE7
:10041000990B0E94351920910202309103024091FC
:100420000402509105020E948B180E94FD187F93D0
:100430006F938FEB95E19F938F93FF92EF920E94C2
:10044000CE1BC7010E94BA0C0E948B0F8DB79EB7BE
:1004500008960FB6F8949EBF0FBE8DBF01C10E94D3
:10046000860FEC010E94BE14DF93CF93BC01990F5D
:10047000880B990B0E9435192091020230910302DA
:1004800040910402509105020E948B180E94FD18B1
:100490007F936F9389ED95E19F938F93FF92EF92F6
:1004A0000E94CE1B86E092E00E94BA0C0E94950F3B
:1004B0008DB79EB708960FB6F8949EBF0FBE8DBF3E
:1004C000DC2CAFC10E94800FF82E882309F45DC098
:1004D0000E943611BC018DE40E94A215EC01CF3FB1
:1004E0009FEFD90719F40E94950F9BC10E94BE147B
:1004F000BC01990F880B990B0E94351920910202BB
:100500003091030240910402509105020E948B1821
:100510000E94FD188B010E94860F081719070CF422
:1005200060C00E94860FEC010E94BE14DF93CF933F
:10053000BC01990F880B990B0E943519209102027A
:100540003091030240910402509105020E948B18E1
:100550000E94FD187F936F9389ED95E19F938F9390
:1005600086E092E09F938F930E94CE1B86E092E0FC
:100570000E94BA0C0E94950F8DB79EB708960FB6D1
:10058000F8949EBF0FBE8DBF65C00E94830FF82EEA
:10059000882309F461C00E943611BC018DE60E94D7
:1005A000A215EC01CF3F9FEFD90709F49CCF0E9421
:1005B000BE14BC01990F880B990B0E94351920912C
:1005C00002023091030240910402509105020E9400
:1005D0008B180E94FD188B010E94860F08171907BF
:1005E00034F40E9439148C010E948B0F39C00E9490
:1005F000860FEC010E94BE14DF93CF93BC01990FCC
:10060000880B990B0E943519209102023091030248
:1006100040910402509105020E948B180E94FD181F
:100620007F936F9389ED95E19F938F9386E092E09E
:100630009F938F930E94CE1B86E092E00E94BA0C9B
:100640000E94950F8DB79EB708960FB6F8949EBF7F
:100650000FBE8DBFDF2CE5C002E410E0CBE0D0E0A0
:100660001F930F9380E096E19F938F9386E092E033
:100670009F938F930E94CE1B86E092E00E94BA0C5B
:10068000C8010E9408150F900F900F900F900F90C7
:100690000F908DE1882E86E1982E96E0E92E92E06B
:1006A000F92E21E3A22E26E1B22E0E943611081760
:1006B0001907E1F10E9436110E94C314C82E792E49
:1006C0009F938F939F928F92FF92EF920E94CE1BE7
:1006D00086E092E00E94BA0C0E9436116C2D772DB4
:1006E0000E944D170E94BF130E9436116C2D772D6A
:1006F0000E94021081E00E9467138C2D972D0E94AA
:100700003B117F92CF92BF92AF92FF92EF920E94E5
:10071000CE1B86E092E00E94BA0C8DB79EB70C9675
:100720000FB6F8949EBF0FBE8DBFBFCF0234110528
:1007300009F477C0DF93CF9383E496E19F938F937F
:1007400006E012E01F930F930E94CE1BC8010E9487
:10075000BA0C0E94B6140E94FA1368E576E1C8014B
:100760000E94B31BC8010E94BA0C84EB90E00E9467
:10077000360C0E944E0A0F900F900F900F900F9022
:100780000F90823589F4DF93CF938CE696E19F93A7
:100790008F931F930F930E94CE1B6DE4CE010E9496
:1007A0003E140E94A60F23C0873489F4DF93CF93B1
:1007B0008CE896E19F938F931F930F930E94CE1B1B
:1007C0006DE6CE010E943E140E94AE0F10C0DF9372
:1007D000CF938CEA96E19F938F931F930F930E9480
:1007E000CE1B6EE4CE010E943E140E94B60F0F9005
:1007F0000F900F900F900F900F9086E092E00E9464
:10080000BA0C0E94491084EB90E00E94400C69EC05
:1008100076E186E092E00E94B31B86E092E00E94BF
:10082000BA0C8D2DDF91CF911F910F91FF90EF901A
:10083000DF90CF90BF90AF909F908F907F90089562
:100840000F931F93CF93DF930E9499018111109210
:100850003A18C0913A18C11151C00E949A140E94CE
:100860008D148033E1F50E9436118C010E949A1498
:10087000B8010E94D21680930002909301029F93C8
:100880008F938AED96E19F938F9306E012E01F937A
:100890000F930E94CE1BC8010E94BA0C80910002E7
:1008A000909101020E94081581E080933A180E94FD
:1008B0009A149F938F9389EF96E19F938F931F9341
:1008C0000F930E94CE1BC8010E94BA0C8DB79EB731
:1008D0000C960FB6F8949EBF0FBE8DBF08C10E9444
:1008E000AC1410923A186AE077E186E092E00E9438
:1008F000B31B86E092E00E94BA0CF9C00E94361148
:100900000E94C31490933918809338180E943611AE
:1009100020910002309101028217930709F44DC023
:10092000809139188F93809138188F938DE196E1DB
:100930009F938F93C6E0D2E0DF93CF930E94CE1BAC
:10094000CE010E94BA0C00913818109139180E94FB
:100950003611B8010E940210009138181091391810
:100960000E943611B8010E944D170E94BF1381E00A
:100970000E94671380913818909139180E943B119A
:1009800081E080933A18809139188F9380913818BC
:100990008F9381E396E19F938F93DF93CF930E9490
:1009A000CE1BCE010E94BA0C8DB79EB70C960FB627
:1009B000F8949EBF0FBE8DBF8AC08234910509F4A2
:1009C00088C00E949A149F938F9383E496E19F932B
:1009D0008F93C6E0D2E0DF93CF930E94CE1BCE016F
:1009E0000E94BA0C0E94B6140E94FA1368E576E1E0
:1009F000CE010E94B31BCE010E94BA0C84EB90E0A2
:100A00000E94360C0E944E0A0F900F900F900F908C
:100A10000F900F908235A9F40E949A149F938F93A0
:100A20008CE696E19F938F93DF93CF930E94CE1B2A
:100A30000E949A146DE40E943E140E949A146DE480
:100A400016C08734B9F40E949A149F938F938CE850
:100A500096E19F938F93DF93CF930E94CE1B0E94CA
:100A60009A146DE60E943E140E949A146DE60E944C
:100A7000C30F11C00E949A149F938F938CEA96E142
:100A80009F938F93DF93CF930E94CE1B0E949A1463
:100A90006EE60E943E140F900F900F900F900F90F3
:100AA0000F9086E092E00E94BA0C0E94AC1484EB96
:100AB00090E00E94400C10923A1869EC76E186E0D2
:100AC00092E00E94B31B86E092E00E94BA0CC0E064
:100AD0000EC00E94AC146FE177E186E092E00E94C4
:100AE000B31B86E092E00E94BA0C10923A188C2F49
:100AF000DF91CF911F910F9108950E94EB000E940A
:100B0000E71166E377E186E092E00E94B31B86E09E
:100B100092E00E94BA0C0E94F80E61E477E186E050
:100B200092E00E94B31B86E092E00E94BA0C0E9401
:100B300020048823E1F362E577E186E092E00E94F9
:100B4000B31B86E092E00E94BA0C0E94F80E0E944D
:100B5000720F8823D1F30E948B0F0E9405010E941F
:100B60004910F3CF87B1876087B987B1806F87B9A4
:100B700088B1887F88B988B18F7088B9089586E672
:100B80009EE00197F1F700004098419880E388B912
:100B9000429AEFEFF7E43197F1F700C00000429876
:100BA000E6E6FEE03197F1F700004098419888B9F9
:100BB000429AEFEFF7E43197F1F700C00000429856
:100BC000E6E6FEE03197F1F700004098419888B9D9
:100BD000429A8FEF97E40197F1F700C00000429826
:100BE000E6E6FEE03197F1F700004098419880E298
:100BF00088B9429A8FEF97E40197F1F700C000009F
:100C00004298089598B19F7098B998B1282F207F85
:100C1000922B98B940984198429AEFEFF7E43197B8
:100C2000F1F700C00000429898B19F7098B998B150
:100C30008295807F892B88B940984198429A8FEF9E
:100C400097E40197F1F700C00000429808950E94D0
:100C5000BF0586E69EE00197F1F7000088E20E945A
:100C6000020681E00E94020686E00E9402068EE0F3
:100C70000E94020680E80C94020680E80C940206AA
:100C8000982F862F923059F01CF4913031F008954E
:100C9000933039F0943039F00895815805C081546B
:100CA00003C08D5601C08D520C94020681E00C9455
:100CB0000206CF93C42F0E94400688B18F7088B976
:100CC00088B19C2F907F892B88B9409A4198429A8D
:100CD0008FEF97E40197F1F700C000004298C295AA
:100CE000C07F88B18F7088B988B1C82BC8B9409AC5
:100CF0004198429A8FEF97E40197F1F700C0000006
:100D00004298CF91089598B19F7098B998B1282FC3
:100D1000207F922B98B9409A4198429AEFEFF7E4DE
:100D20003197F1F700C0000042988295807F98B11A
:100D30009F7098B998B1892B88B9409A4198429A86
:100D40008FEF97E40197F1F700C0000042980895F3
:100D50000F931F93CF93DF93D82FC62F8A01F801EB
:100D600041918F01442331F06C2F8D2F0E94590641
:100D7000CF5FF5CFDF91CF911F910F910895CF9362
:100D8000DF93EC018991882319F00E948306FACF42
:100D9000DF91CF910895EF92FF920F931F93CF931E
:100DA000DF93D82FC62F8A0179010E94400617FFD2
:100DB00009C01195019511094DE26C2F8D2F0E94EC
:100DC0005906CF5FDD2311F0C11103C00E943D061B
:100DD00004C06C2F8D2F0E94400685E0E816F104B8
:100DE00009F07FC0C80160E177E20E940218AB0100
:100DF000405D5F4F50933C1840933B186C2F8D2FF4
:100E00000E945906CF5FC80168EE73E00E94021885
:100E1000CB0170934618609345186AE070E00E9419
:100E2000EE17AC01405D5F4F50933E1840933D1864
:100E30006C2F8D2F0E945906CF5FC80164E670E0C9
:100E40000E940218CB0170934618609345186AE01F
:100E500070E00E94EE17AC01405D5F4F5093401868
:100E600040933F186C2F8D2F0E945906CF5F2AE0C8
:100E700030E0C801B9010E940218CB0170934618F6
:100E800060934518B9010E94EE17AC01405D5F4FB9
:100E900050934218409341186C2F8D2F0E94590691
:100EA000CF5FC8016AE070E00E940218AC01405DAB
:100EB0005F4F50934418409343186C2F8D2F0E941E
:100EC0005906CF5F86E0E816F104FCF045E46C2F8C
:100ED0008D2FDF91CF911F910F91FF90EF900C9488
:100EE000590684E0E816F10409F48DCF83E0E81692
:100EF000F10409F4A2CF82E0E816F10409F4B7CFB7
:100F000081E0E816F104F1F6CCCFDF91CF911F918B
:100F10000F91FF90EF9008950F931F93CF93DF935E
:100F20008A01E901882311F0611103C00E943D0686
:100F300002C00E944006C530D10509F061C0C80159
:100F400060E177E20E94EE17CB01C09690933C18C7
:100F500080933B180E948306C80168EE73E00E94EC
:100F6000EE17CB0170934618609345186AE070E065
:100F70000E94EE17C09690933E1880933D180E94F1
:100F80008306C80164E670E00E94EE17CB017093FF
:100F90004618609345186AE070E00E94EE17C0960C
:100FA0009093401880933F180E9483062AE030E017
:100FB000C801B9010E94EE17CB01709346186093E7
:100FC0004518B9010E94EE17C0969093421880937D
:100FD00041180E948306C8016AE070E00E94EE1783
:100FE000C09690934418809343180E9483062697D6
:100FF000B4F085E4DF91CF911F910F910C9483069B
:10100000C430D10509F4A8CFC330D10509F4B9CF54
:10101000C230D10559F2C130D10549F7DCCFDF919B
:10102000CF911F910F91089510BA11BA1092070134
:10103000109208010895EAE7F0E0808186688083D5
:10104000808186788083EBE7F0E08081807B8083FD
:10105000ECE7F0E08081807680838081806480830B
:1010600080818062808380B7806880BF08958830E7
:1010700028F090917B00986090937B0090917C0089
:101080008770892B80937C0080917A0080648093A4
:101090007A0080917A0084FFFCCF80917900909152
:1010A0007A00906190937A0090917B00977F909363
:1010B0007B0090917C00907E90937C000895682F37
:1010C00070E080E090E00E9433192FEE39EC43E9A4
:1010D0005FE30E942E1A9B01AC0160E070E080E8A3
:1010E0009FE30E948B182AE939EF4EE255E40E94F3
:1010F000C11920E030E040E251E40E94C1190E9491
:10110000FD18CB016132734010F080E293E0089546
:10111000CF93DF93C82FD62F842F0E943708809358
:101120005418482F50E023E030E06D2F8C2FDF91D2
:10113000CF910C94CB068AB18E6F8AB9589A0895D4
:101140000E94B2050C949B08F894E9E6F0E08081D7
:1011500082608083E89A789408951F920F920FB668
:101160000F9211248F939F93AF93BF938091611837
:1011700090916218A0916318B09164180196A11D16
:10118000B11D8093611890936218A0936318B09377
:101190006418BF91AF919F918F910F900FBE0F90E8
:1011A0001F9018955C9A5D9A0895F8940E949B0888
:1011B0000E94A40878940C94D2085E985F980895D1
:1011C0005E9A5F9A08955E985F9A08955E9A5F9816
:1011D00008950E94DD081092611810926218109212
:1011E0006318109264182FEF8FE794E0215080402D
:1011F0009040E1F700C00000809161189091621862
:10120000A0916318B091641880935D1890935E1854
:10121000A0935F18B093601861E081E00E944006DF
:1012200064E677E18DE492E00E94B31B8DE492E0E6
:101230000E94BF0640915D1850915E1860915F1842
:101240007091601825E030E061E082E00E948C0738
:101250002FEF8FEF9CE2215080409040E1F700C0DB
:10126000000081E00C9402060E94E00810926118D0
:101270001092621810926318109264182FEF8FE783
:1012800094E0215080409040E1F700C00000809140
:10129000611890916218A0916318B09164188093BE
:1012A000551890935618A0935718B093581861E0AA
:1012B00081E00E9440066FE677E18DE492E00E94B3
:1012C000B31B8DE492E00E94BF06409155185091E7
:1012D0005618609157187091581825E030E061E079
:1012E00082E00E948C072FEF8FEF9CE2215080401C
:1012F0009040E1F700C0000081E00C9402060E94DB
:10130000E3081092611810926218109263181092FC
:1013100064182FEF8FE794E0215080409040E1F770
:1013200000C000008091611890916218A09163182C
:10133000B09164188093591890935A18A0935B1831
:10134000B0935C1861E081E00E9440066CE777E1B1
:101350008DE492E00E94B31B8DE492E00E94BF06F0
:101360004091591850915A1860915B1870915C180F
:1013700025E030E061E082E00E948C072FEF8FEFE4
:101380009CE2215080409040E1F700C0000081E0E5
:101390000C9402060E94DD081092611810926218E7
:1013A00010926318109264182FEF8FE794E0215089
:1013B00080409040E1F700C000008091611890915A
:1013C0006218A0916318B091641880935D1890938F
:1013D0005E18A0935F18B093601860915D187091CB
:1013E0005E1880915F189091601808950E94E0083F
:1013F000109261181092621810926318109264187B
:101400002FEF8FE794E0215080409040E1F700C03B
:1014100000008091611890916218A0916318B091BA
:1014200064188093551890935618A0935718B0934A
:1014300058186091551870915618809157189091CE
:10144000581808950E94E3081092611810926218CB
:1014500010926318109264182FEF8FE794E02150D8
:1014600080409040E1F700C00000809161189091A9
:101470006218A0916318B0916418809359189093E2
:101480005A18A0935B18B0935C186091591870912A
:101490005A1880915B1890915C1808958F929F92D2
:1014A000AF92BF92CF92DF92EF92FF920E94CA0951
:1014B0006B017C010E94220A4B015C010E94F6092B
:1014C00027E0C21626E1D206E104F10430F06230D2
:1014D00022E172078105910500F58C149D04AE048C
:1014E000BF0428F46C157D058E059F05C0F0C81457
:1014F000D904EA04FB0428F4681579058A059B05DC
:1015000080F086169706A806B90668F4C616D706B0
:10151000E806F90640F487E407C087E505C082E5E0
:1015200003C082E401C080E3FF90EF90DF90CF9092
:10153000BF90AF909F908F90089581B18F6081B9D7
:1015400082B1807F82B90895EAE0F1E0808188610C
:101550008083EBE0F1E080818861808308958DB124
:101560008F7C8DB98EB180638EB90895F8948DB358
:1015700080638DBBEAE6F0E080818A6080838081B1
:101580008A7F808378940895E1E2F1E010828FEF02
:101590008093250191E0909324011092290180937A
:1015A000280110922B0180932A01A0E2B1E08C91D6
:1015B000806A8C938C918F7A8C938C9181608C93C0
:1015C0008C918D7F8C9380818860808380818F7ED9
:1015D000808380818360808380818B7F8083089576
:1015E0001F920F920FB60F9211248F939F93AF9378
:1015F000BF938091671890916818A0916918B09175
:101600006A180196A11DB11D809367189093681800
:10161000A0936918B0936A18BF91AF919F918F9171
:101620000F900FBE0F901F9018951F920F920FB63C
:101630000F9211248F939F93AF93BF9380916B1858
:1016400090916C18A0916D18B0916E180196A11D23
:10165000B11D80936B1890936C18A0936D18B09384
:101660006E18BF91AF919F918F910F900FBE0F9009
:101670001F90189582B1867F82B982B1866082B947
:10168000089582B1897F82B982B1896082B9089553
:1016900082B1857F82B982B1856082B9089582B1B5
:1016A0008A7F82B982B18A6082B9089582B1887FC7
:1016B00082B9129A089582B1827F82B9119A0895EF
:1016C00082B1817F82B9109A089582B1887F82B9F0
:1016D000139A089582B1807F82B908950F931F9362
:1016E000813099F410926718109268181092691856
:1016F00010926A1810926B1810926C1810926D1854
:1017000010926E1880E090E029C0409167185091C7
:1017100068186091691870916A1880916B1890919F
:101720006C18A0916D18B0916E188A019B01080F7A
:10173000191F2A1F3B1FC901B8010E94331928E451
:1017400031EE42E850E40E94C11920E030E040E070
:101750005FE30E94C1190E94FD18CB011F910F91F8
:101760000895BC0180E090E00E94331928E431EE36
:1017700042E850E40E948B180E940419CB01A0E0BB
:10178000B0E01092671810926818109269181092C1
:101790006A1810926B1810926C1810926D181092B3
:1017A0006E1840916718509168186091691870918F
:1017B0006A18481759076A077B0798F440916B1815
:1017C00050916C1860916D1870916E1848175907F8
:1017D0006A077B0730F4E6E6FEE03197F1F7000098
:1017E000E0CF0C946A0B0F931F93BC0180E090E054
:1017F0000E94331925EE30ED4AEA50E40E948B181E
:101800000E940419109267181092681810926918B3
:1018100010926A1810926B1810926C1810926D1832
:1018200010926E180091671810916818209169182D
:1018300030916A18061717072807390798F400919E
:101840006B1810916C1820916D1830916E18061756
:1018500017072807390730F4E6E6FEE03197F1F77D
:101860000000E0CF1F910F910C946A0BCF93DF9390
:10187000EC010E943A0BCE01DF91CF910C94F30B57
:10188000CF93DF93EC010E94410BCE01DF91CF910A
:101890000C94F30BCF93DF93EC010E94480BCE0125
:1018A000DF91CF910C94B10BCF93DF93EC010E94A9
:1018B0004F0BCE01DF91CF910C94B10BCF93DF93FF
:1018C000EC010E94560BCE01880F991FDF91CF913A
:1018D0000C94B10BCF93DF93EC010E945B0BCE0114
:1018E000880F991FDF91CF910C94B10BCF93DF93A9
:1018F000EC010E94600BCE01880F991FDF91CF9100
:101900000C94B10BCF93DF93EC010E94650BCE01D9
:10191000880F991FDF91CF910C94B10B8093280110
:1019200060932A010895E1E0F1E080818062808384
:10193000E2E0F1E08081806280830895E2E0F1E0FE
:1019400080818F7D80830895E2E0F1E08081806274
:10195000808308950E944A0E911102C0811108955A
:101960008FEF08950C94870E87E090E00E942F0E71
:101970000C94C90E0C94A00E1F920F920FB60F92EA
:1019800011240BB60F922F933F934F935F938F9336
:101990009F93EF93FF932091C0003091C600287170
:1019A00080917B1990E001968F77992740917A1961
:1019B00050E08417950739F080937B19FC01E258B9
:1019C000F64E308301C022E020937919FF91EF9108
:1019D0009F918F915F914F913F912F910F900BBEEF
:1019E0000F900FBE0F901F9018951F920F920FB679
:1019F0000F9211240BB60F928F939F93EF93FF9347
:101A000090917D1980917C19981779F080917C19BB
:101A100090E001968F77992780937C19FC01E25022
:101A2000F64E80818093C60005C08091C1008F7DF5
:101A30008093C100FF91EF919F918F910F900BBE0A
:101A40000F900FBE0F901F901895F89410927D196B
:101A500010927C1910927B1910927A19789497FF42
:101A600004C022E02093C0009F779093C50080932C
:101A7000C40088E98093C10086E08093C200089585
:101A8000F89490917B1980917A19981304C07894F6
:101A900080E091E00895789480917A1990E0019621
:101AA0008F77992780937A19FC01E258F64E2081AE
:101AB0008091791990E0982F8827820F911D0895C1
:101AC000F89490917B1980917A19981304C07894B6
:101AD00080E091E008957894E0917A19F0E03196F1
:101AE000EF77FF27E258F64E20818091791990E038
:101AF000982F8827820F911D089520917D1930E03D
:101B00002F5F3F4F2F77332740917C1950E02417E8
:101B10003507D1F3F901E250F64E808320937D1909
:101B20008091C10080628093C1000895CF93DF93BC
:101B3000EC018991882319F00E947D0DFACFDF9185
:101B4000CF910895CF93DF93FC018491EF0121960B
:101B5000882321F00E947D0DFE01F7CFDF91CF9108
:101B60000895F89480917B1920917A19789490E0E7
:101B700080589F4F821B91098F7799270895F89479
:101B800080917A1980937B19789408951F920F920F
:101B90000FB60F9211240BB60F922F933F934F93D2
:101BA0005F938F939F93EF93FF9320913001309138
:101BB000360128718091761890E001968F779927E9
:101BC0004091751850E08417950739F08093761886
:101BD000FC01E758F74E308301C022E020937418CF
:101BE000FF91EF919F918F915F914F913F912F9135
:101BF0000F900BBE0F900FBE0F901F9018951F9265
:101C00000F920FB60F9211240BB60F928F939F93E2
:101C1000EF93FF939091781880917718981779F047
:101C20008091771890E001968F77992780937718A5
:101C3000FC01E750F74E80818093360105C080910A
:101C400031018F7D80933101FF91EF919F918F91B1
:101C50000F900BBE0F900FBE0F901F901895F89429
:101C600010927818109277181092761810927518B2
:101C7000789497FF04C022E0209330019F779093DF
:101C800035018093340188E98093310186E08093A7
:101C900032010895F89490917618809175189813F0
:101CA00004C0789480E091E008957894809175184C
:101CB00090E001968F77992780937518FC01E7587B
:101CC000F74E20818091741890E0982F8827820F1A
:101CD000911D0895F8949091761880917518981335
:101CE00004C0789480E091E008957894E0917518AC
:101CF000F0E03196EF77FF27E758F74E208180918B
:101D0000741890E0982F8827820F911D08952091D4
:101D1000781830E02F5F3F4F2F77332740917718A7
:101D200050E024173507D1F3F901E750F74E8083CF
:101D30002093781880913101806280933101089559
:101D4000CF93DF93EC018991882319F00E94870ECD
:101D5000FACFDF91CF910895CF93DF93FC01849167
:101D6000EF012196882321F00E94870EFE01F7CF14
:101D7000DF91CF910895F89480917618209175188D
:101D8000789490E080589F4F821B91098F77992714
:101D90000895F89480917518809376187894089532
:101DA000F894E1EBF0E0108282E88093B200B898FA
:101DB000A0E7B0E08C9181608C931092B00080819C
:101DC000846080837894089510927F1A10927E1A0E
:101DD0001092811A1092801AE1EBF0E0808181600C
:101DE00080830895E1EBF0E080818E7F8083089509
:101DF0000E94AA0C833551F52FEF8FE794E0215014
:101E000080409040E1F700C000000E94AA0C90E0E2
:101E100090939202809391022FEF8FE794E02150EC
:101E200080409040E1F700C000000E94AA0C90E0C2
:101E30009093900280938F020E94E40E10928B1A6E
:101E400010928A1A81E08093891A29C0863409F099
:101E500048C02FEF8FE794E0215080409040E1F799
:101E600000C000000E94AA0C8D34E1F42FEF8FE730
:101E700094E0215080409040E1F700C000000E94B3
:101E8000AA0C90E09093900280938F020E94E40E3F
:101E900081E080938A1A10928B1A1092891A80938B
:101EA000881A08958D36E9F42FEF8FE794E02150DA
:101EB00080409040E1F700C000000E94AA0C90E032
:101EC0009093900280938F020E94E40E81E08093B1
:101ED0008B1A10928A1A1092891A8093881A0C947D
:101EE000C90E08958091881A81111092881A089558
:101EF000809191029091920208958091891A08959B
:101F000080918A1A089580918B1A089580918F028A
:101F100090919002089568E877E18BE692E00E9444
:101F2000B31B8BE692E00C94BA0C62E977E18BE686
:101F300092E00E94B31B8BE692E00E94BA0C0C94D4
:101F4000F20E80917E1A90917F1A08951092871A4E
:101F500081E08093861A1092851A089581E080931B
:101F6000871A1092861A1092851A08951092871A6D
:101F70001092861A81E08093851A089590938E02BC
:101F800080938D0208950F931F93CF93DF93CDB766
:101F9000DEB764970FB6F894DEBF0FBECDBF182F23
:101FA000092F6D3419F46AE977E104C06D36F9F44C
:101FB0006EE977E1CE0101960E94B31BCE01019636
:101FC0009F938F930F931F9384EA97E19F938F932F
:101FD0008BE692E09F938F930E94CE1B8BE692E05C
:101FE0000E94BA0C0FB6F894DEBF0FBECDBF649648
:101FF0000FB6F894DEBF0FBECDBFDF91CF911F911A
:102000000F9108957F936F939F938F9383EB97E145
:102010009F938F938BE692E09F938F930E94CE1BAA
:102020008DB79EB708960FB6F8949EBF0FBE8DBFB2
:102030008BE692E00C94BA0C242F042E000C330B88
:102040003F934F93262F062E000C330B3F936F9335
:102050009F938F9382EC97E19F938F938BE692E00F
:102060009F938F930E94CE1B8DB79EB70A960FB693
:10207000F8949EBF0FBE8DBF8BE692E00C94BA0C15
:102080003B9A439808950E94D00E0C944010439AB6
:10209000089581E08093841A0E9447108091891AE4
:1020A000882309F44BC08091851A94E0899F9001A0
:1020B00011249091861A892F90E0880F991F822B06
:1020C000932B2091871A822B81309105A1F02CF45B
:1020D000892B89F563ED77E13BC082309105A1F052
:1020E000049749F580917F1A8F9380917E1A8F9380
:1020F00081E098E111C080917F1A8F9380917E1AC0
:102100008F938DEE97E108C080917F1A8F93809115
:102110007E1A8F9387EF97E19F938F938BE692E0E0
:102120009F938F930E94CE1B0F900F900F900F9054
:102130000F900F9011C068E078E10AC080918A1A70
:1021400081110EC080918B1A81110AC064E178E17F
:102150008BE692E00E94B31B8BE692E00C94BA0CE3
:1021600080917F1A8F9380917E1A8F9380918E0237
:102170008F9380918D028F9388E298E19F938F9344
:102180008BE692E09F938F930E94CE1B8DB79EB7F4
:1021900008960FB6F8949EBF0FBE8DBFDDCF439853
:1021A00008951F920F920FB60F9211240BB60F9243
:1021B0002F933F934F935F936F937F938F939F934F
:1021C000AF93BF93EF93FF938091801A9091811A00
:1021D00001969093811A8093801A8091801A909131
:1021E000811A883E934040F180917E1A90917F1A27
:1021F000019690937F1A80937E1A1092811A109202
:10220000801A8091841A8823B9F08091821A909163
:10221000831A9C012F5F3F4F3093831A2093821AB9
:10222000029754F00E94CF100E94F20E1092841A6E
:102230001092831A1092821A82E88093B200B898A2
:10224000FF91EF91BF91AF919F918F917F916F918E
:102250005F914F913F912F910F900BBE0F900FBE4A
:102260000F901F9018958091930208958091911A74
:102270009091921A08959093921A8093911A0895CA
:102280009C01261B370BE4E6E29FC001E39F900D03
:1022900011249A01261B370BB9010E94021877FD01
:1022A00005C06536710524F4862F089580E00895F1
:1022B00084E60895CF9383E00E9437088093A31AA1
:1022C00082E00E9437088093A21A81E00E943708BA
:1022D000C82F8093A11A4091991A50919A1A60912F
:1022E000A0027091A1028091A31A90E00E94401177
:1022F0008093A01A4091971A5091981A60919E026B
:1023000070919F028C2F90E00E94401180939E1A42
:102310004091951A5091961A60919C0270919D027D
:102320008091A21A90E00E94401180939F1ACF9151
:1023300008950E945A118091A31A90E02091991A51
:1023400030919A1A2817390724F490939A1A809397
:10235000991A2091A0023091A1028217930724F4C8
:102360009093A1028093A0028091A21A90E0209104
:10237000951A3091961A2817390724F49093961AD3
:102380008093951A20919C0230919D0282179307A9
:1023900024F490939D0280939C028091A11A90E076
:1023A0002091971A3091981A2817390724F490939E
:1023B000981A8093971A20919E0230919F0282175B
:1023C000930724F490939F0280939E02089581E0E6
:1023D0000E946E0B0E944F0B6DE78DE70E948E0CE2
:1023E00080E00E946E0B8A3591051CF40E949911C1
:1023F000F7CF81E00E946E0B0E94480B80E00E94A4
:102400006E0B843B91051CF40E949911F7CF81E07B
:102410000E946E0B0E944F0B80E00E946E0B8A356B
:1024200091051CF40E949911F7CF0C946A0B8F92BE
:102430009F92AF92BF92CF92DF92EF92FF920E9453
:102440005A11E0909E1AF12CC090A01AD12CB7011D
:102450006C197D09072E000C880B990B0E94351909
:102460004B015C0180919F1AB601680F711D6E0DC2
:102470007F1D072E000C880B990B0E94351920E058
:1024800030E040E85FE30E941F189B01AC01C501EA
:10249000B4010E948B1820E030E04FE753E40E9423
:1024A000C1194B015C019B01AC016091A41A7091B0
:1024B000A51A8091A61A9091A71A0E941E182FE6BD
:1024C00032E143E05BE30E94C1190E94FD186B01F9
:1024D0007C0120E030E040E05FE3C501B4010E94F0
:1024E000C1190E94FD18C60ED71E8092A41A9092A0
:1024F000A51AA092A61AB092A71A68EC70E06C19FF
:102500007D09C60188539F4F6F3F710509F02CF478
:1025100077FF05C060E070E002C06FEF70E08F3FB2
:10252000910509F02CF497FF05C080E090E002C00F
:102530008FEF90E0FF90EF90DF90CF90BF90AF9043
:102540009F908F900C948E0CEF92FF920F931F939D
:10255000CF93DF9300E010E0C0E0D0E0E82EF12C54
:102560000E151F050CF0A7C08091A21A803108F447
:102570009FC08091A31A803108F09AC08091A11A5F
:10258000803108F095C00E945A1191E08091A31A01
:102590008B3008F090E09093901A81E02091A11A7E
:1025A0002B3008F080E080938F1A41E02091A21A2E
:1025B0002B3008F040E040938E1A990F990F440F8A
:1025C000492BE42FE82BE0938D1A4E2FEE0F550B7D
:1025D000660B770BFA013197E730F10530F4882765
:1025E000EE58FF4F8F4F0C9416180E943A0B6FEA6B
:1025F0008DE70E948E0CB8CF0E94560B6DE780E0ED
:1026000012C00E943A0B6AEA8AEA0E948E0C2FEFEF
:102610008FE392E0215080409040E1F746C00E9455
:10262000480B6FEA8DE70E948E0C2FEF8FE392E04C
:10263000215080409040E1F700C00000C1E0D0E0B0
:1026400093CF0E945B0B60E08DE712C00E943A0BB3
:102650006FEA8FEA0E948E0C2FEF8FE794E02150F3
:1026600080409040E1F721C00E944F0B6DE78FEA58
:102670000E948E0C2FEF8FE392E02150804090401B
:10268000E1F700C00000C0E0D0E06ECF209719F461
:102690000E944F0B02C00E94480B6DE78DE70E941D
:1026A0008E0C8FEF97E40197F1F700C000005CCF2C
:1026B0000F5F1F4F55CF8FE590E00E94360CDF91E2
:1026C000CF911F910F91FF90EF900C946A0B0F9395
:1026D0001F93CF93DF93082F0E943A0BC0E0D0E006
:1026E00010E0C017D107D4F40E9417128091A21AEB
:1026F0008D31D0F38091A31A8D3120F48091A11AED
:102700008D3190F30E946A0B68EC88EC0E948E0C6D
:102710008FE590E00E94360C2196E3CFDF91CF91B8
:102720001F910F9108956FEA8FEA0E948E0C81E449
:1027300090E00E944A0C6FEA8FEA0E948E0C0E9481
:10274000480B0E945A118091A21A8031D0F30C9448
:102750006A0B6FEA8FEA0E948E0C81E490E00E947F
:10276000540C6FEA8FEA0E948E0C0E944F0B0E945D
:102770005A118091A21A8031D0F30C946A0BCF9336
:10278000909193028917A1F1803391F1C82F9E3463
:1027900049F01CF4953469F029C0933589F09735D8
:1027A000B1F024C08335C9F08735F1F08534F1F4F8
:1027B00018C08335B1F0873581F08E34B9F414C078
:1027C0008E3459F0873569F0853481F40DC08E342C
:1027D00041F0833549F0853449F48AE590E00E9460
:1027E000540C0E94A91302C00E949313C093930239
:1027F000CF910895CF93909193028917C1F18033BF
:10280000B1F1C82F9E3449F01CF4953469F02DC005
:10281000933589F09735B1F028C08335C9F08735F5
:1028200001F1853411F518C08335B1F0873581F099
:102830008E34D9F416C08E3459F0873569F085345A
:10284000A1F40FC08E3441F0833559F0853469F41A
:102850008AE590E00E94540C8AE590E00E94540CB6
:1028600004C08AE590E00E944A0CC0939302CF9185
:10287000089580911A1B90911B1B08959C01215073
:1028800031092031310508F047C0FC01EA53FD4F02
:1028900060836D34A1F42091181B3091191B2231F3
:1028A0003105D4F5A9014F5F5F4F5093191B409339
:1028B000181B220F331FF901E051F54E2BC06D3666
:1028C000A1F42091161B3091171B2231310524F5FC
:1028D000A9014F5F5F4F5093171B4093161B220FA8
:1028E000331FF901E453F54E15C06E34A9F420915D
:1028F000141B3091151B2231310574F4A9014F5F6F
:102900005F4F5093151B4093141B220F331FF90187
:10291000E855F54E9183808308959C01215031093B
:102920002031310528F4FC01EA53FD4F80810895E0
:1029300080E3089580911E1B90911F1B81319105AA
:1029400044F4880F991FFC01E852FD4F808191816A
:1029500008958FEF9FEF089580911E1B90911F1B8C
:10296000019690931F1B80931E1B0895E091201BDE
:10297000F091211BE650FD4F808108958091C402A3
:102980009091C5020895880F991FFC01EE5DF44EE9
:10299000808191810895CF93DF93FC0120E030E0A6
:1029A0008FEF9FE74FEF5FE7EB01A991BE01A11108
:1029B00007C0A081B1814A175B0714F0C901AD01BE
:1029C0002F5F3F4F32962334310571F7DF91CF915E
:1029D0000895CF93DF93EC01FC01EE0FFF1FEE5D36
:1029E000F44E808191818F3F2FEF920771F00E940A
:1029F000E914DF93CF9384E398E19F938F930E9430
:102A0000BA1B0F900F900F900F90DF91CF91089508
:102A10006F927F928F929F92AF92BF92CF92DF92EE
:102A2000EF92FF920F931F93CF93DF93CDB7DEB753
:102A3000C354D1090FB6F894DEBF0FBECDBFDE017F
:102A40001196E8EAFBE12FEF3FE7219331931D92C6
:102A50004CE1EE32F407C9F72FEF3FEF3093231B21
:102A60002093221BFC01EE0FFF1FE855F44E11824C
:102A7000108202E410E08824839463E4962EBE0161
:102A80006F5F7F4F88EA9BE10E94CB14E1E0F0E0AA
:102A9000EC0FFD1FE80FF91F808222E2622E2BE16E
:102AA000722E989E5001999EB00C1124E8EAFBE129
:102AB000DE0111967D0120E030E0BC01660F771F3A
:102AC0006855744ED7014D917D01411118C0A9017F
:102AD0004A0D5B1D42575C4FDA01DC90DD2079F036
:102AE000DB014D915C914D0D511DC080D1804C1585
:102AF0005D052CF4D3018D939C93518340832F5F0C
:102B00003F4FB2E06B0E711C329623343105D1F683
:102B10000150110909F0B3CFCD5BDF4F0FB6F89428
:102B2000DEBF0FBECDBFDF91CF911F910F91FF9000
:102B3000EF90DF90CF90BF90AF909F908F907F905D
:102B40006F9008956F927F928F929F92AF92BF92F3
:102B5000CF92DF92EF92FF920F931F93CF93DF9369
:102B6000C82FCB010E940815CD3409F04FC0E09169
:102B7000F01AF091F11A73E0EE0FFF1F7A95E1F76A
:102B8000E250FD4F20813181C090181BD090191B5D
:102B9000A090201BB090211B00EF1AE148EB5BE0F6
:102BA000A0E0B0E08FEF9FEFAC15BD050CF0D8C0F2
:102BB000F801C191D1918F01FE0163E0EE0FFF1F7B
:102BC0006A95E1F7BF0162507D4F3B01490160E02A
:102BD00070E0F301219131913F017901EE0CFF1C6E
:102BE000F701E855F44EE080F180E416F50614F0A4
:102BF000940103C05B01A701CE016F5F7F4F64307A
:102C0000710511F04901E5CF1196CECFCD3609F00F
:102C100050C0E091CC1AF091CD1A73E0EE0FFF1F77
:102C20007A95E1F7E250FD4F20813181C090181B69
:102C3000D090191BB090201BA090211B0CEC1AE126
:102C400048EB5BE0A0E0B0E08FEF9FEFAC15BD0577
:102C50000CF052C0F801C191D1918F01FE0163E0E7
:102C6000EE0FFF1F6A95E1F7BF0162507D4F3B01F8
:102C7000490160E070E0F301219131913F01790158
:102C8000EE0CFF1CF701E855F44EE080F180E416ED
:102C9000F50614F0940104C0B62EA72EA701CE01AC
:102CA0006F5F7F4F6430710511F04901E4CF1196D9
:102CB000CDCFCE3409F059C0E091A81AF091A91AED
:102CC00073E0EE0FFF1F7A95E1F7E250FD4F208190
:102CD0003181C090181BD090191BB090201BA09080
:102CE000211B08EA1AE148EB5BE0A0E0B0E08FEFBF
:102CF0009FEFAC15BD052CF0B092201BA092211BBC
:102D00003AC0F801C191D1918F01FE0163E0EE0F4D
:102D1000FF1F6A95E1F7BF0162507D4F3B014901FA
:102D200060E070E0F301219131913F017901EE0CF7
:102D3000FF1CF701E855F44EE080F180E416F5063B
:102D400014F0940104C0B62EA72EA701CE016F5F28
:102D50007F4F6430710511F04901E4CF1196C9CF5E
:102D6000A092201BB092211B06C020E030E048EB6F
:102D70005BE08FEF9FEF5093C5024093C402309306
:102D80001B1B20931A1BDF91CF911F910F91FF9076
:102D9000EF90DF90CF90BF90AF909F908F907F90FB
:102DA0006F900895CF93DF93EC01CB010E9408153B
:102DB000FE0183E0EE0FFF1F8A95E1F7E250FD4F21
:102DC000D081C1817091201B6091211B20E030E0F7
:102DD00048EB5BE081919191DC01AA0FBB1FA855E4
:102DE000B44E0D90BC91A02DA417B5071CF08D2FEB
:102DF0009C2F03C0722F632FAD012F5F3F4F2430F4
:102E0000310519F0D82FC92FE5CF7093201B60939F
:102E1000211B5093C5024093C402DF91CF910895C6
:102E20009C0162337105C0F582339105A8F5A3E4D6
:102E3000A89FF001A99FF00D1124E257FC4FE60F67
:102E4000F71F1082A69FC001A79F900D1124AC010F
:102E500042575C4FFA01E20FF31F1082FB01EE0FA5
:102E6000FF1FEE5DF44E808191818F3F2FEF92071F
:102E700079F0A89F9001A99F300D112422573C4F53
:102E8000F901E60FF71F1082FA01E80FF91F10820F
:102E900082E490E00C94081508950F931F93CF934C
:102EA000DF939C01FB01009749F08234910501F109
:102EB000309741F06234710569F480C06D3371055B
:102EC00049F478C0859731F02D33310519F43097E6
:102ED00009F46EC0C9016EE070E00E940218EC01B6
:102EE0008A3091055CF4219780F4C8E0D0E00DC0F1
:102EF0006532710509F467C08AE090E065E070E032
:102F00000E940218EC01CC0FDD1FC90101972EE0D1
:102F100030E0B9010E9402188B01000F111F69E017
:102F200070E00E940218060F171FCF01B9010E941E
:102F300002188A3091053CF49C012150310950F46B
:102F400028E030E007C065E070E00E9402189C01B4
:102F5000220F331FCF0101976EE070E00E9402182C
:102F6000FB01EE0FFF1F69E070E00E9402186E0F78
:102F70007F1F601B710B2C1B3D0B6130710521F015
:102F80006F3F8FEF780769F421303105A9F02F3FAB
:102F90008FEF380789F06130710551F06F3F7F4F37
:102FA00049F02130310569F02F3F3F4F29F40BC024
:102FB00083E50AC08EE408C080E306C0859709F067
:102FC00083CF85E401C087E5DF91CF911F910F91F9
:102FD00008950E947D0580E090E00895AA1BBB1B28
:102FE00051E107C0AA1FBB1FA617B70710F0A61B09
:102FF000B70B881F991F5A95A9F780959095BC012A
:10300000CD01089597FB072E16F4009407D077FDA5
:1030100009D00E94EE1707FC05D03EF490958195EB
:103020009F4F0895709561957F4F0895EE0FFF1F94
:10303000881F8BBF0790F691E02D19945058BB273D
:10304000AA270E9436180C9487190E94791938F023
:103050000E94801920F039F49F3F19F426F40C9453
:1030600076190EF4E095E7FB0C947019E92F0E9495
:10307000981958F3BA17620773078407950720F069
:1030800079F4A6F50C94BA190EF4E0950B2EBA2F2C
:10309000A02D0B01B90190010C01CA01A00111245E
:1030A000FF27591B99F0593F50F4503E68F11A160A
:1030B000F040A22F232F342F4427585FF3CF46959B
:1030C00037952795A795F0405395C9F77EF41F16BD
:1030D000BA0B620B730B840BBAF09150A1F0FF0F87
:1030E000BB1F661F771F881FC2F70EC0BA0F621F73
:1030F000731F841F48F4879577956795B795F79563
:103100009E3F08F0B0CF9395880F08F09927EE0FF7
:103110009795879508950E949F180C9487190E948F
:10312000801958F00E94791940F029F45F3F29F086
:103130000C94701951110C94BB190C9476190E94BF
:10314000981968F39923B1F3552391F3951B550B07
:10315000BB27AA2762177307840738F09F5F5F4F6A
:10316000220F331F441FAA1FA9F335D00E2E3AF0A9
:10317000E0E832D091505040E695001CCAF72BD0C1
:10318000FE2F29D0660F771F881FBB1F2617370712
:103190004807AB07B0E809F0BB0B802DBF01FF2744
:1031A00093585F4F3AF09E3F510578F00C94701998
:1031B0000C94BB195F3FE4F3983ED4F38695779562
:1031C0006795B795F7959F5FC9F7880F911D9695FD
:1031D000879597F90895E1E0660F771F881FBB1F59
:1031E000621773078407BA0720F0621B730B840B06
:1031F000BA0BEE1F88F7E09508950E9404196894B1
:10320000B1110C94BB1908950E94A01988F09F5722
:1032100098F0B92F9927B751B0F0E1F0660F771FFA
:10322000881F991F1AF0BA95C9F714C0B13091F0F0
:103230000E94BA19B1E008950C94BA19672F782F3B
:103240008827B85F39F0B93FCCF3869577956795B5
:10325000B395D9F73EF490958095709561957F4F21
:103260008F4F9F4F0895E89409C097FB3EF49095C7
:103270008095709561957F4F8F4F9F4F9923A9F04F
:10328000F92F96E9BB279395F695879577956795DE
:10329000B795F111F8CFFAF4BB0F11F460FF1BC022
:1032A0006F5F7F4F8F4F9F4F16C0882311F096E9B5
:1032B00011C0772321F09EE8872F762F05C0662363
:1032C00071F096E8862F70E060E02AF09A95660F1C
:1032D000771F881FDAF7880F9695879597F90895D5
:1032E00097F99F6780E870E060E008959FEF80ECB9
:1032F000089500240A94161617061806090608955C
:1033000000240A9412161306140605060895092EC1
:103310000394000C11F4882352F0BB0F40F4BF2B30
:1033200011F460FF04C06F5F7F4F8F4F9F4F089570
:1033300057FD9058440F551F59F05F3F71F0479566
:10334000880F97FB991F61F09F3F79F0879508954B
:10335000121613061406551FF2CF4695F1DF08C06A
:10336000161617061806991FF1CF86957105610587
:1033700008940895E894BB2766277727CB0197F92F
:1033800008950E94D4190C9487190E94791938F075
:103390000E94801920F0952311F00C9470190C9460
:1033A000761911240C94BB190E94981970F3959FFB
:1033B000C1F3950F50E0551F629FF001729FBB272C
:1033C000F00DB11D639FAA27F00DB11DAA1F649FC8
:1033D0006627B00DA11D661F829F2227B00DA11D7B
:1033E000621F739FB00DA11D621F839FA00D611D01
:1033F000221F749F3327A00D611D231F849F600D22
:10340000211D822F762F6A2F11249F5750409AF04A
:10341000F1F088234AF0EE0FFF1FBB1F661F771FD6
:10342000881F91505040A9F79E3F510580F00C94A1
:1034300070190C94BB195F3FE4F3983ED4F3869562
:1034400077956795B795F795E7959F5FC1F7FE2B41
:10345000880F911D9695879597F90895FA01EE0FBB
:10346000FF1F309621053105A1F16115710561F449
:103470008038BFE39B0749F168949038810561F07B
:103480008038BFEF9B0741F099234AF5FF3FE105E4
:103490003105210519F1E8940894E795D901AA238B
:1034A00029F4AB2FBE2FF85FD0F310C0FF5F70F48C
:1034B000A695E0F7F73950F019F0FF3A38F49F7706
:1034C0009F930DD00F9007FC9058089546F00C94F0
:1034D000761960E070E080E89FE308954FE79F77FA
:1034E0005F934F933F932F930E94291B2F913F91FE
:1034F0004F915F910E94C1190C94861A29F416F01D
:103500000C9470190C94BA190C9476190E94A01995
:10351000A8F39638A0F707F80F92E8942BE33AEA5D
:1035200048EB5FE70E94D7190F920F920F924DB7A9
:103530005EB70F920E94711BE2EFF0E00E94B81A92
:103540004F915F91EF91FF91E595EE1FFF1F49F0BD
:10355000FE57E0684427EE0F441FFA95E1F74195C6
:10356000550B0E94EB1A0F9007FE0C94DF1A08957A
:10357000DF93CF931F930F93FF92EF92DF927B0124
:103580008C01689406C0DA2EEF010E94D419FE0166
:10359000E894A5912591359145915591A6F3EF01B8
:1035A0000E943618FE019701A801DA9469F7DF90AE
:1035B000EF90FF900F911F91CF91DF9108959B01A4
:1035C000AC0160E070E080E89FE30C948B180C94F1
:1035D00070190C94A51B0E94A019D8F39923C9F364
:1035E000940F511DA3F39150504094F059F088234B
:1035F00032F0660F771F881F91505040C1F79E3FF1
:1036000051052CF7880F911D9695879597F9089588
:103610005F3FACF0983E9CF0BB2786957795679509
:10362000B79508F4B1609395C1F7BB0F58F711F443
:1036300060FFE8CF6F5F7F4F8F4F9F4FE3CF0C94BA
:10364000BB1916F00C94A51B0C94761968940C9475
:1036500070190E94A019A8F39923C1F3AEF3DF9368
:10366000CF931F930F93FF92C92FDD2788232AF052
:103670002197660F771F881FDAF720E030E040E8D7
:103680005FEB9FE3883920F0803E38F021968F77FA
:103690000E941F18EAE1F1E004C00E941F18E7E44D
:1036A000F1E00E94B81A8B01BE01EC01FB2E6F57AE
:1036B00071097595771F880B990B0E94351928E1C0
:1036C00032E741E35FE30E94D419AF2D9801AE01C8
:1036D000FF900F911F91CF91DF910E9436180C94AB
:1036E0008719FA01DC01AA0FBB1F9B01AC01BF5770
:1036F00028F4222733274427507820C0B75190F46C
:10370000AB2F0024469537952795011CA395D2F33E
:10371000002071F0220F331F441FB395DAF30ED04F
:103720000C941E1861307105A0E88A07B94630F480
:103730009B01AC016627772788279078309621F087
:10374000208331834283538308959F3F31F091500A
:1037500020F4879577956795B795880F911D969575
:10376000879597F90895FB01DC0101900D920020E7
:10377000E1F70895CF93DF93CDB7DEB7AE014A5F8F
:103780005F4FFA0161917191AF018091301C90916E
:10379000311C0E94FD1BDF91CF9108950F931F9361
:1037A000CF93DF93CDB7DEB72E970FB6F894DEBF79
:1037B0000FBECDBF0E891F8986E08C831A830983D3
:1037C0008FEF9FE79E838D83AE01465E5F4F688DCE
:1037D000798DCE0101960E94FD1BEF81F885E00FE7
:1037E000F11F10822E960FB6F894DEBF0FBECDBF2C
:1037F000DF91CF911F910F9108952F923F924F9299
:103800005F926F927F928F929F92AF92BF92CF9270
:10381000DF92EF92FF920F931F93CF93DF93CDB779
:10382000DEB72B970FB6F894DEBF0FBECDBF6C018D
:103830007B018A01FC0117821682838181FFCCC142
:10384000CE0101963C01F6019381F70193FD85912C
:1038500093FF81917F01882309F4BAC1853239F43D
:1038600093FD859193FF81917F01853229F4B60103
:1038700090E00E941D1EE7CF912C212C312CFFE1FE
:10388000F315D8F08B3279F038F4803279F0833246
:10389000A1F4232D20611DC08D3261F0803369F4C5
:1038A000232D216016C0832D8260382EE32DE46025
:1038B0003E2E2AC0F32DF8601DC037FC2DC020ED30
:1038C000280F2A3040F08E32B9F436FC81C1232D06
:1038D0002064322E19C036FE06C08AE0989E200D64
:1038E0001124922E11C0EAE02E9E200D1124222ECA
:1038F000F32DF0623F2E08C08C3621F4832D8068B2
:10390000382E02C0883641F4F70193FD859193FF6C
:1039100081917F018111B3CF982F9F7D9554933072
:1039200028F40C5F1F4F9FE399830DC0833631F05D
:10393000833771F0833509F059C021C0F8018081C7
:1039400089830E5F1F4F88248394912C530113C0E9
:103950002801F2E04F0E511CF801A080B18036FE24
:1039600003C0692D70E002C06FEF7FEFC5010E94B8
:10397000121E4C018201F32DFF773F2E16C0280145
:1039800022E0420E511CF801A080B18036FE03C037
:10399000692D70E002C06FEF7FEFC5010E94071E26
:1039A0004C01F32DF0683F2E820133FC1BC0822DA9
:1039B00090E088169906B0F4B60180E290E00E948B
:1039C0001D1E2A94F4CFF50137FC859137FE8191B5
:1039D0005F01B60190E00E941D1E21102A9421E093
:1039E000821A91088114910471F7E8C0843611F0AD
:1039F000893641F5F80137FE07C060817181828107
:103A000093810C5F1F4F08C060817181072E000CED
:103A1000880B990B0E5F1F4FF32DFF763F2E97FFFC
:103A200009C090958095709561957F4F8F4F9F4FFE
:103A3000F0683F2E2AE030E0A3010E94591E882E34
:103A4000861845C0853731F4232D2F7EB22E2AE00B
:103A500030E025C0932D997FB92E8F36C1F018F430
:103A6000883579F0B5C0803719F0883721F0B0C0BB
:103A7000E92FE061BE2EB4FE0DC0FB2DF460BF2E19
:103A800009C034FE0AC0292F2660B22E06C028E0E5
:103A900030E005C020E130E002C020E132E0F80172
:103AA000B7FE07C060817181828193810C5F1F4FD7
:103AB00006C06081718180E090E00E5F1F4FA3011E
:103AC0000E94591E882E8618FB2DFF773F2E36FE4A
:103AD0000DC0232D2E7FA22E891458F434FE0BC066
:103AE00032FC09C0832D8E7EA82E05C0B82CA32CD5
:103AF00003C0B82C01C0B92CA4FE0FC0FE01E80D14
:103B0000F11D8081803321F49A2D997EA92E09C060
:103B1000A2FE06C0B394B39404C08A2D867809F03F
:103B2000B394A3FC11C0A0FE06C0B21488F4280C04
:103B3000922C9B180EC0B21460F4B60180E290E0A3
:103B40000E941D1EB394F7CFB21418F42B1802C0B4
:103B5000982C212CA4FE10C0B60180E390E00E94B6
:103B60001D1EA2FE17C0A1FC03C088E790E002C0A2
:103B700088E590E0B6010CC08A2D867859F0A1FE48
:103B800002C08BE201C080E2A7FC8DE2B60190E0AA
:103B90000E941D1E891438F4B60180E390E00E9453
:103BA0001D1E9A94F7CF8A94F301E80DF11D8081D0
:103BB000B60190E00E941D1E8110F5CF222009F46D
:103BC00042CEB60180E290E00E941D1E2A94F6CFFC
:103BD000F6018681978102C08FEF9FEF2B960FB67B
:103BE000F894DEBF0FBECDBFDF91CF911F910F9133
:103BF000FF90EF90DF90CF90BF90AF909F908F900D
:103C00007F906F905F904F903F902F900895FC01B0
:103C10000590615070400110D8F7809590958E0FF7
:103C20009F1F0895FC016150704001900110D8F76A
:103C3000809590958E0F9F1F08950F931F93CF939C
:103C4000DF93FB01238121FD03C08FEF9FEF2CC089
:103C500022FF16C0468157812481358142175307C0
:103C600044F4A081B1819D012F5F3F4F31832083B8
:103C70008C93268137812F5F3F4F3783268314C073
:103C80008B01EC01FB010084F185E02D1995892B56
:103C9000E1F6D80116968D919C911797019617968B
:103CA0009C938E931697CE01DF91CF911F910F9128
:103CB0000895FA01AA27283051F1203181F1E894C2
:103CC0006F936E7F6E5F7F4F8F4F9F4FAF4FB1E00F
:103CD0003ED0B4E03CD0670F781F891F9A1FA11D0A
:103CE000680F791F8A1F911DA11D6A0F711D811D0B
:103CF000911DA11D20D009F468943F912AE0269FD0
:103D000011243019305D3193DEF6CF010895462F2E
:103D10004770405D4193B3E00FD0C9F7F6CF462F0F
:103D20004F70405D4A3318F0495D31FD4052419378
:103D300002D0A9F7EACFB4E0A69597958795779535
:103D40006795BA95C9F700976105710508959B01BC
:103D5000AC010A2E06945795479537952795BA9545
:103D6000C9F7620F731F841F951FA01D0895F89453
:023D7000FFCF83
:103D72004200CDCC4C3E48656C6C6F2C20492061D2
:103D82006D20612046697265626972642D2D2D2D48
:103D92002D2D2D2D2D2D2D2D2D2D2D2D2D2D2D2D51
:103DA2002D2D2D2D2D2D2D2D2D2D2D2D2D2D2D2D41
:103DB2002D2D2D2D2D2D2D2D2D20560A0048656CD3
:103DC2006C6F20576F726C64204920616D206120F6
:103DD200466972656269726420560048656C6C6F50
:103DE2002C204920616D20612046697265626972EA
:103DF200642D2D2D2D2D2D2D2D20560A0001000173
:103E02000001004E0400050004000000FF0FFF0F38
:103E1200FF0F48656C6C6F2C204920616D2061207A
:103E220046697265626972642D2D2D2D2D2D2D2D01
:103E320020560A00102730303030303030303030E9
:103E420030303030303030300D00090005000100D4
:103E5200020006000A000E000F000B00070003001C
:103E6200040008000C00100011004553574E0A00D0
:103E720002000B0010000A0002000B0010000B00F1
:103E820004000C0012000C0006000D0014000D00CE
:103E920008000E0016001800100019001E0019007C
:103EA20012001A0020001A0014001B0022001B003E
:103EB20016001C00240026001E0027002C002700EC
:103EC200200028002E0028002200290030002900AE
:103ED20024002A00320034002C0035003A0035005C
:103EE2002E0036003C003600300037003E0037001E
:103EF200320038004000420042004200420000000E
:103F020000000000000000000000000000000000AF
:103F1200000000000000000000000000000000009F
:103F2200000000000000000000000000000000008F
:103F3200000000000000000000000001000000007E
:103F4200000000010000000000000001000000006D
:103F5200000000000000000000000000000000005F
:103F6200000000000000000000000000000000004F
:103F7200000000000000000000000000000000003F
:103F8200000000000001000100000000000000002D
:103F9200000000000000000000000000000000001F
:103FA200000000000000000000000000000000000F
:103FB20000000000000000000000000000000000FF
:103FC20000000000000000000001000100000000ED
:103FD20000000100000000000000000000000000DE
:103FE20000000000000000000000000000000000CF
:103FF20000000000000000000000000000000000BF
:1040020000000000000000000000000000010001AC
:10401200000000000000000000000000000000009E
:10402200000000000000000000000000000000008E
:10403200000000000000000000000000000000007E
:10404200000000000000000000000000000000006E
:10405200000100010000000000010000000000005B
:10406200000000000000000000000000000000004E
:10407200000000000000000000000000000000003E
:10408200000000000000000000000000000000002E
:10409200000000000001000100000000000000001C
:1040A200000000000000000000000000000000000E
:1040B20000000000000000000000000000000000FE
:1040C20000000000000000000000000000000000EE
:1040D20000000000000000000001000100000000DC
:1040E20001000000000000000000000000000000CD
:1040F20000000000000000000000000000000000BE
:1041020000000000000000000000000000000000AD
:10411200000000000000000000000000000100019B
:10412200000000000000000000000000000000008D
:10413200000000000000000000000000000000007D
:10414200000000000000000000000000000000006D
:10415200000000000000000000000000000000005D
:10416200000100000000000100000000000000004B
:10417200000000000000000000000000000000003D
:10418200000000000000000000000000000000002D
:10419200000000000000000000000000000100001C
:1041A200000000000000000000000001000000000C
:1041B20000000000000000000000000000000000FD
:1041C20000000000000000000000000000000000ED
:1041D20000000000000000000000000000000000DD
:1041E20000000100000000000000000000000000CC
:1041F20001000000000000000000000000000000BC
:1042020000000000000000000000000000000000AC
:10421200000000000000000000000000000000009C
:10422200000000000000000100000000000000008B
:10423200000000000001000000000000000000007B
:10424200000000000000000000000000000000006C
:10425200000000000000000000000000000000005C
:10426200000000000000000000000000010000004B
:10427200000000000000000000000100000000003B
:10428200000000000000000000000000000000002C
:10429200000000000000000000000000000000001C
:1042A200000000000000000000000000000000000C
:1042B20000010000000000000000000000000001FA
:1042C20000000000000000000000000000000000EC
:1042D20000000000000000000000000000000000DC
:1042E20000000000000000000000000000000000CC
:1042F20000000000000100000000000100000000BA
:1043020000000001000000000000000000000000AA
:10431200000000000000000000000000000000009B
:10432200000000000000000000000000000000008B
:104332000000000000000000000000000001000179
:10434200000000000000000000000000000000006B
:10435200000000000000000000000000000000005B
:10436200000000000000000000000000000000004B
:10437200000000000000000000000000010000003A
:104382000001000100000000000001000000000028
:10439200000000000000000000000000000000001B
:1043A200000000000000000000000000000000000B
:1043B20000000000000000000000000000000000FB
:1043C20000000000000100010000000000000000E9
:1043D20000000000000000000000000000000000DB
:1043E20000000000000000000000000000000000CB
:1043F20000000000000000000000000000000000BB
:1044020000000001000000000001000100000000A7
:104412000001000000000000000000000000000099
:10442200000000000000000000000000000000008A
:10443200000000000000000000000000000000007A
:104442000000000000000000000000000001000168
:10445200000000000000000000000000000000005A
:10446200000000000000000000000000000000004A
:10447200000000000000000000000000000000003A
:104482000000000000000000000001000000000029
:104492000001000100000000010000000000000017
:1044A200000000000000000000000000000000000A
:1044B20000000000000000000000000000000000FA
:1044C20000000000000000000000000000000000EA
:1044D20000000000000100010000000000000000D8
:1044E20000000000000000000000000000000000CA
:1044F20000000000000000000000000000000000BA
:1045020000000000000000000000000000000000A9
:104512000001000000000000000100000000000196
:104522000000000000000000000000000000000089
:104532000000000000000000000000000000000079
:104542000000000000000000000000000000000069
:104552000000000000010000000000000000000058
:104562000000000100000000000000000000000048
:104572000000000000000000000000000000000039
:104582000000000000000000000000000000000029
:104592000000000000000000000001000000000018
:1045A2000000000000000000010000000000000008
:1045B20000000000000000000000000000000000F9
:1045C20000000000000000000000000000000000E9
:1045D20000000000000000000000000000000001D8
:1045E20000000000000000000000000000010000C8
:1045F20000000000000000000000000000000000B9
:1046020000000000000000000000000000000000A8
:104612000000000000000000000000000000000098
:104622000000000001000000000000000000000087
:104632000000010000000000000000000000000077
:104642000000000000000000000000000000000068
:104652000000000000000000000000000000000058
:104662000000000000000000000100000000000047
:104672000000000000000001000000000000000037
:104682000000000000000000000000000000000028
:104692000000000000000000000000000000000018
:1046A2000000000000000000000000000001000007
:1046B20000000001000000000000000100000000F6
:1046C20000000000000000000000000000000000E8
:1046D20000000000000000000000000000000000D8
:1046E20000000000000000000000000000000000C8
:1046F20000000000000100010000000000000000B6
:1047020000000000000000000000000000000000A7
:104712000000000000000000000000000000000097
:104722000000000000000000000000000000000087
:104732000000000001000000000100010000000074
:104742000000010000000000000000000000000066
:104752000000000000000000000000000000000057
:104762000000000000000000000000000000000047
:104772000000000000000000000000000001000135
:104782000000000000000000000000000000000027
:104792000000000000000000000000000000000017
:1047A2000000000000000000000000000000000007
:1047B20000000000000000000000000100000000F6
:1047C20000010001000000000001000000000000E4
:1047D20000000000000000000000000000000000D7
:1047E20000000000000000000000000000000000C7
:1047F20000000000000000000000000000000000B7
:1048020000000000000100010000000000000000A4
:104812000000000000000000000000000000000096
:104822000000000000000000000000000000000086
:104832000000000000000000000000000000000076
:104842000000010000000000000100010000000063
:104852000100000000000000000000000000000055
:104862000000000000000000000000000000000046
:104872000000000000000000000000000000000036
:104882000000000000000000000000000001000124
:104892000000000000000000000000000000000016
:1048A2000000000000000000000000000000000006
:1048B20000000000000000000000000000000000F6
:1048C20000000000000000000001000000000000E5
:1048D20000010000000000010000000000000000D4
:1048E20000000000000000000000000000000001C5
:1048F20000000000000000000000000000000000B6
:1049020000000000000000000000000000010000A4
:104912000000000000000000000000010000000094
:104922000000000000000000000000000000000085
:104932000000000000000000000000000000000075
:104942000000000000000000000000000000000065
:104952000000010000000000000000000000000054
:104962000100000000000000000000000000000044
:104972000000000000000000000000000000000035
:104982000000000000000000000000000000000025
:104992000000000000000001000000000000000014
:1049A2000000000000010000000000000000000004
:1049B20000000000000000000000000000000000F5
:1049C20000000000000000000000000000000000E5
:1049D20000000000000000000000000001000000D4
:1049E20000000000000000000000010000000000C4
:1049F20000000000000000000000000000000000B5
:104A020000000000000000000000000000000000A4
:104A12000000000000000000000000000000000094
:104A22000001000000000000000000000000000182
:104A32000000000000000000000000000000000074
:104A42000000000000000000000000000000000064
:104A52000000000000000000000000000000000054
:104A62000000000000010000000000010000000042
:104A72000000000100000000000000000000000033
:104A82000000000000000000000000000000000024
:104A92000000000000000000000000000000000014
:104AA2000000000000000000000000000001000102
:104AB20000000000000000000000000000000000F4
:104AC20000000000000000000000000000000000E4
:104AD20000000000000000000000000000000000D4
:104AE20000000000000000000000000001000000C3
:104AF20000010001000000000000010000000000B1
:104B020000000000000000000000000000000000A3
:104B12000000000000000000000000000000000093
:104B22000000000000000000000000000000000083
:104B32000000000000010001000000000000000071
:104B42000000000000000000000000000000000063
:104B52000000000000000000000000000000000053
:104B62000000000000000000000000000000000043
:104B72000000000100000000000100010000000030
:104B82000001000000000000000000000000000022
:104B92000000000000000000000000000000000013
:104BA2000000000000000000000000000000000003
:104BB20000000000000000000000000000010001F1
:104BC20000000000000000000000000000000000E3
:104BD20000000000000000000000000000000000D3
:104BE20000000000000000000000000000000000C3
:104BF20000000000000000000000010000000000B2
:104C0200000100010000000001000000000000009F
:104C12000000000000000000000000000000000092
:104C22000000000000000000000000000000000082
:104C32000000000000000000000000000000000072
:104C42000000000000010001000000000000000060
:104C52000000000000000000000000000000000052
:104C62000000000000000000000000000000000042
:104C72000000000000000000000000000000000032
:104C8200000100000000000000010000000000011F
:104C92000000000000000000000000000000000012
:104CA2000000000000000000000000000000000002
:104CB20000000000000000000000000000000000F2
:104CC20000000000000100000000000000000000E1
:104CD20000000001000000000000000000000000D1
:104CE20000000000000000000000000000000000C2
:104CF20000000000000000000000000000000000B2
:104D020000000000000000000000010000000000A0
:104D12000000000000000000010000000000000090
:104D22000000000000000000000000000000000081
:104D32000000000000000000000000000000000071
:104D42000000000000000000000000000000000160
:104D52000000000000000000000000000001000050
:104D62000000000000000000000000000000000041
:104D72000000000000000000000000000000000031
:104D82000000000000000000000000000000000021
:104D92000000000001000000000000000000000010
:104DA2000000010000000000000000000000000000
:104DB20000000000000000000000000000000000F1
:104DC20000000000000000000000000000000000E1
:104DD20000000000000000000001000000000000D0
:104DE20000000000000000010000000000000000C0
:104DF20000000000000000000000000000000000B1
:104E020000000000000000000000000000000000A0
:104E1200000000000000000000000000000100008F
:104E2200000000010000000000000000000000007F
:104E32000000000000000000000000000000000070
:104E42000000000000000000000000000000000060
:104E52000000000000000000000000000000000050
:104E6200000000000001000100000000000000003E
:104E72000000000000000000000000000000000030
:104E82000000000000000000000000000000000020
:104E92000000000000000000000000000000000010
:104EA20000000000010000000001000100000000FD
:104EB20000000000000000000000000000000000F0
:104EC20000000000000000000000000000000000E0
:104ED20000000000000000000000000000000000D0
:104EE20000000000000000000000000000010001BE
:104EF20000000000000100000000000000000000AF
:104F0200000000000000000000000000000000009F
:104F1200000000000000000000000000000000008F
:104F2200000000000000000000000001000000007E
:104F3200000100010000000000000000000000006D
:104F4200000000000000000000000000000000005F
:104F5200000000000000000000000000000000004F
:104F6200000000000000000000000000000000003F
:104F7200000000000001000100000000000000002D
:104F8200000000000000000000000000000000001F
:104F9200000000000000000000000000000000000F
:104FA20000000000000000000000000000000000FF
:104FB20000000100000000000001000100000000EC
:104FC20000000000000000000000000000000000DF
:104FD20000000000000000000000000000000000CF
:104FE20000000000000000000000000000000000BF
:104FF20000000000000000000000000000010001AD
:10500200000000000000000000000000000000009E
:10501200000000000000000000000000000000008E
:10502200000000000000000000000000000000007E
:10503200000000000000000000010000000000006D
:10504200000100000000000000000000000000005D
:10505200000000000000000000000000000000004E
:10506200000000000000000000010000000000003D
:10507200000000000000000000000000000000002E
:1050820000000000000000317374204E6F64650A56
:105092005E004D6964204E6F64650A5E00393020FF
:1050A200446567726565204C656674207475726E1E
:1050B2000A5E0043656E746572206F6620626C6FD3
:1050C200636B20726561636865640A5E00426163B6
:1050D2006B206F6E206C696E650A5E004C656674AB
:1050E200205475726E0A5E005374617274204C6FA4
:1050F200636174696F6E0A5E0046696E6973686502
:10510200640A5E00436F6D6D616E64205265636573
:10511200697665645E0052657120746F2073636105
:105122006E20506C6F74204E753A25640A5E0043FF
:105132006D64204163637074643A54696D653A200A
:105142002564203E2025645E00436D642052656A1A
:1051520065637465643A54696D6520746F20636F8A
:105162006D703A2025642C20496E3A2025645E0039
:105172005363616E2064696B737472612C204465A1
:105182007374206E6F64653A25640A5E004D6F7613
:10519200696E6720746F206E6F64653A25640A5EDB
:1051A2000052656163686564206E6F64653A2564C8
:1051B2000A5E00506C6F74206E7520256420726543
:1051C20061636865640A5E00526F746174696F6E30
:1051D2002066696E69736865640A5E00506C6F745C
:1051E200206E6F3A2025642077697468204D616AC9
:1051F2006F7220496E6A7572790A5E00506C6F7424
:10520200206E6F3A2025642077697468204D696E9C
:105212006F7220496E6A7572790A5E00506C6F7403
:10522200206E6F3A2025642077697468204E6F20C3
:10523200496E6A7572790A5E00506C6F74207363EE
:10524200616E20636F6D706C5E004265666F7265A1
:105252002064696B737472612C2044657374206ED0
:105262006F64653A25640A5E0044657320506C6F72
:1052720074204E753A25640A5E00506C6F74205398
:1052820063616E20436F6D706C6574650A5E0046E3
:10529200696E616C20476F616C20363620726561E1
:1052A200636865645E0043616C20446F6E650A5EEC
:1052B20000436F6D6D616E64205570646174650AA0
:1052C2005E005461736B324220636F6D706C657463
:1052D200650A5E005265642050756C736573004701
:1052E2007265656E2050756C73657300426C7565EE
:1052F2002050756C736573006163636570746564D7
:105302005E0069676E6F72655E0072656400677247
:1053120065656E007363616E6E65642D25642D256F
:10532200735E00666F72776172642D25642D256449
:105332005E00726F746174652D25642D25632D25C1
:10534200635E004572726F7220696E207461736BC6
:1053520020636F6D706C6574696F6E5E006D696E4F
:105362006F722D25645E006D616A6F722D25645E19
:10537200006E6F2D25645E005363616E2D4572725F
:105382006F725E004572726F72206465636F64694A
:105392006E67207461736B0066657463682D2564A3
:0853A2002D25640025642000A4
:00000001FF
