:100000000C94C8000C948D060C94E9000C94E90043
:100010000C94E9000C94F5080C94D0080C94E900B9
:100020000C94E9000C94E9000C94E9000C94E900AC
:100030000C94E9000C94E9000C94E9000C94CF0EA8
:100040000C94E9000C94E9000C94E9000C94E9008C
:100050000C94E9000C94E9000C94E9000C94E9007C
:100060000C94E9000C949C0A0C94D50A0C94E900B9
:100070000C94E9000C94E9000C94E9000C94E9005C
:100080000C94E9000C94E9000C94E9000C94E9004C
:100090000C94E9000C94E9000C94E9000C94E9003C
:1000A0000C94E9000C94E9000C94E9000C94E9002C
:1000B0000C94E9000C94E9000C94E9000C94E9001C
:1000C0000C94E9000C94E9000C94E9000C94E9000C
:1000D0000C94E9000C94E9000C94A60B0C94DF0B33
:1000E0000C94E900FA10FF100D111F1124113211A8
:1000F000441107634236B79BD8A71A39685618AE21
:10010000BAAB558C1D3CB7CC5763BD6DEDFD753E4C
:10011000F6177231BF000000803F08000000BE9259
:100120002449123EABAAAA2ABECDCCCC4C3E00003C
:100130000080BEABAAAAAA3E00000000BF000000DB
:10014000803F0000000000084178D3BB4387D113F3
:100150003D190E3CC3BD4282AD2B3E68EC8276BE9B
:10016000D98FE1A93E4C80EFFFBE01C4FF7F3F0065
:10017000000000000C94FF100C94FA100C94241151
:100180000C941F110C9432110C940D110C94441109
:1001900011241FBECFEFD1E2DEBFCDBF00E00CBF08
:1001A00016E1A0E0B2E0EAEFF9E300E00BBF02C025
:1001B00007900D92A038B107D9F72AE1A0E8B6E17F
:1001C00001C01D92A938B207E1F70E942D160C94C8
:1001D000FB1C0C9400000E94F4050E94FB050E9489
:1001E00092030E9407040E94B5060E94C6060E9460
:1001F0007D080E9484080E948F080E9496080E9431
:10020000A4080E94410E0C94940ACF9381E00E94AE
:100210008D116EE175E186E092E00E94F71986E0AB
:1002200092E00E949A0A81E00E948D1169E275E1D4
:1002300086E092E00E94F71986E092E00E949A0A16
:100240006FEA8FEA0E946E0A8AE590E00E942A0A0D
:1002500064E375E186E092E00E94F71986E092E09F
:100260000E949A0A68EC88EC0E946E0A84EB90E087
:100270000E94160A6AE475E186E092E00E94F7198E
:1002800086E092E00E949A0A0E942E08C82F0E94DF
:10029000920A0E9436048C2F0E946304C23519F41E
:1002A0000E94860D07C0C73419F40E948E0D02C04B
:1002B0000E94960D84EB90E00E94200A64E675E1AE
:1002C00086E092E00E94F71986E092E00E949A0A86
:1002D0000E94CE1163E775E186E092E00E94F71973
:1002E00086E092E00E949A0A81E00E948D116EE100
:1002F00075E186E092E00E94F71986E092E00E94A4
:100300009A0A81E00E948D116FE775E186E092E024
:100310000E94F71986E092E00E949A0A60E975E16E
:1003200086E092E00E94F71986E092E0CF910C946B
:100330009F04DF92EF92FF920F931F93CF93DF936F
:100340000E94D80C0E94520DD82E882309F4FCC0BC
:100350000E945D0D882339F10E94340FEC010E9448
:10036000580DBE010E941A158C010E94580DEC0117
:100370000E94F912BC01990F880B990B0E94791702
:100380002091020230910302409104025091050233
:100390000E94CF160E9441177B010E94660DE8164D
:1003A000F906E4F10FC00E94600D882371F00E94ED
:1003B000340FBC018DE40E94DD13EC01CF3F8FEFC1
:1003C000D80761F40E94750DBFC00E94630D882399
:1003D00041F10E94340FBC018DE6EDCF0E94F9126D
:1003E000BC01990F880B990B0E947917209102028A
:1003F0003091030240910402509105020E94CF16F1
:100400000E9441178B010E94660D08171907D4F648
:100410000E9474128C01CE010E949E0D0E946B0DF1
:1004200004C002E410E0CBE0D0E0C8010E94431316
:100430000E94340F8017910709F452C00E94340FB4
:100440000E94FE127C010E94340FB7010E94911598
:100450000E94FA110E94340FB7010E94E20D81E060
:100460000E948D110E94C8118823B1F10E94310FA2
:10047000853411F487E511C00E94310F833511F4E2
:100480008EE40BC00E94310F873511F485E405C05E
:100490000E94310F8E3419F483E50E94FA1181E035
:1004A0000E948D110E94340FA801B7010E945815B7
:1004B0000E945D0D882339F00E94340F8C010E9448
:1004C000580DB8013DC00E94600D811135C00E94D9
:1004D000630D811131C0A9CFC7010E94390FA8CF88
:1004E0000234110589F10E94F1120E94351284EB49
:1004F00090E00E94160A0E942E08823539F46DE4BD
:10050000CE010E9479120E94860D0FC0873439F403
:100510006DE6CE010E9479120E948E0D06C06EE437
:10052000CE010E9479120E94960D0E94470E84EB24
:1005300090E00E94200A08C00E94340FBC01CE0146
:100540000E941A158C0171CF8D2DDF91CF911F91D3
:100550000F91FF90EF90DF9008950F931F93CF932B
:10056000DF930E949901811110928216C091821628
:10057000C11119C00E94D5120E94C812803309F01F
:10058000B0C00E94340F8C010E94D512B8010E94A5
:100590001A1590930102809300020E94431381E098
:1005A00080938216A2C00E94340F0E94FE12909384
:1005B0008116809380160E94340F209100023091A2
:1005C00001028217930709F45EC0C0918016D09192
:1005D00081160E94340FBE010E94E20DC091801668
:1005E000D09181160E94340FBE010E9491150E9485
:1005F000FA1181E00E948D110E94C8118823C9F16F
:100600000E94310F853411F487E511C00E94310F2B
:10061000833511F48EE40BC00E94310F873511F43D
:1006200085E405C00E94310F8E3419F483E50E94E1
:10063000FA1181E00E948D110091000210910102D7
:10064000C0918016D09181160E94340FA801BE017E
:100650000E9458150E94340FEC010E94D512BE0171
:100660000E941A1590930102809300020E94431386
:1006700006C080918016909181160E94390F81E00A
:10068000809382162CC08234910559F10E94F11298
:100690000E94351284EB90E00E94160A0E942E08F8
:1006A000823549F40E94D5126DE40E9479120E94AD
:1006B000D5126DE40AC0873451F40E94D5126DE65C
:1006C0000E9479120E94D5126DE60E94A30D0E942D
:1006D000E71284EB90E00E94200A10928216C0E09C
:1006E00004C00E94E712109282168C2FDF91CF91E6
:1006F0001F910F9108950E94EB000E94E50F0E9448
:10070000D80C0E94AD028823E1F30E94D80C0E940D
:10071000520D8823D1F30E946B0D0E9405010E94A7
:10072000470EF3CF87B1876087B987B1806F87B9EC
:1007300088B1887F88B988B18F7088B9089586E6B6
:100740009EE00197F1F700004098419880E388B956
:10075000429AEFEFF7E43197F1F700C000004298BA
:10076000E6E6FEE03197F1F700004098419888B93D
:10077000429AEFEFF7E43197F1F700C0000042989A
:10078000E6E6FEE03197F1F700004098419888B91D
:10079000429A8FEF97E40197F1F700C0000042986A
:1007A000E6E6FEE03197F1F700004098419880E2DC
:1007B00088B9429A8FEF97E40197F1F700C00000E3
:1007C0004298089598B19F7098B998B1282F207FCA
:1007D000922B98B940984198429AEFEFF7E43197FD
:1007E000F1F700C00000429898B19F7098B998B195
:1007F0008295807F892B88B940984198429A8FEFE3
:1008000097E40197F1F700C00000429808950E9414
:100810009F0386E69EE00197F1F7000088E20E94C0
:10082000E20381E00E94E20386E00E94E2038EE0A0
:100830000E94E20380E80C94E20380E80C94E20357
:10084000982F862F923059F01CF4913031F0089592
:10085000933039F0943039F00895815805C08154AF
:1008600003C08D5601C08D520C94E20381E00C94BC
:10087000E203CF93C42F0E94200488B18F7088B9FF
:1008800088B19C2F907F892B88B9409A4198429AD1
:100890008FEF97E40197F1F700C000004298C295EE
:1008A000C07F88B18F7088B988B1C82BC8B9409A09
:1008B0004198429A8FEF97E40197F1F700C000004A
:1008C0004298CF91089598B19F7098B998B1282F08
:1008D000207F922B98B9409A4198429AEFEFF7E423
:1008E0003197F1F700C0000042988295807F98B15F
:1008F0009F7098B998B1892B88B9409A4198429ACB
:100900008FEF97E40197F1F700C000004298089537
:100910000F931F93CF93DF93D82FC62F8A01F8012F
:1009200041918F01442331F06C2F8D2F0E943904A7
:10093000CF5FF5CFDF91CF911F910F910895CF93A6
:10094000DF93EC018991882319F00E946304FACFA8
:10095000DF91CF910895EF92FF920F931F93CF9362
:10096000DF93D82FC62F8A0179010E94200417FF38
:1009700009C01195019511094DE26C2F8D2F0E9430
:100980003904CF5FDD2311F0C11103C00E941D04A3
:1009900004C06C2F8D2F0E94200485E0E816F1041E
:1009A00009F07FC0C80160E177E20E944616AB0102
:1009B000405D5F4F50938416409383166C2F8D2FAC
:1009C0000E943904CF5FC80168EE73E00E944616AA
:1009D000CB0170938E1660938D166AE070E00E94D2
:1009E0003216AC01405D5F4F5093861640938516DA
:1009F0006C2F8D2F0E943904CF5FC80164E670E030
:100A00000E944616CB0170938E1660938D166AE095
:100A100070E00E943216AC01405D5F4F5093881623
:100A2000409387166C2F8D2F0E943904CF5F2AE0E8
:100A300030E0C801B9010E944616CB0170938E16B2
:100A400060938D16B9010E943216AC01405D5F4F74
:100A500050938A16409389166C2F8D2F0E9439046B
:100A6000CF5FC8016AE070E00E944616AC01405DAD
:100A70005F4F50938C1640938B166C2F8D2F0E94D6
:100A80003904CF5F86E0E816F104FCF045E46C2FF2
:100A90008D2FDF91CF911F910F91FF90EF900C94CC
:100AA000390484E0E816F10409F48DCF83E0E816F8
:100AB000F10409F4A2CF82E0E816F10409F4B7CFFB
:100AC00081E0E816F104F1F6CCCFDF91CF911F91D0
:100AD0000F91FF90EF9008950F931F93CF93DF93A3
:100AE0008A01E901882311F0611103C00E941D04ED
:100AF00002C00E942004C530D10509F061C0C801C0
:100B000060E177E20E943216CB01C0969093841682
:100B1000809383160E946304C80168EE73E00E940C
:100B20003216CB0170938E1660938D166AE070E0DA
:100B30000E943216C09690938616809385160E9466
:100B40006304C80164E670E00E943216CB01709322
:100B50008E1660938D166AE070E00E943216C09681
:100B600090938816809387160E9463042AE030E0F1
:100B7000C801B9010E943216CB0170938E166093A2
:100B80008D16B9010E943216C09690938A168093F2
:100B900089160E946304C8016AE070E00E94321660
:100BA000C09690938C1680938B160E9463042697B0
:100BB000B4F085E4DF91CF911F910F910C94630401
:100BC000C430D10509F4A8CFC330D10509F4B9CF99
:100BD000C230D10559F2C130D10549F7DCCFDF91E0
:100BE000CF911F910F91089510BA11BA1092070179
:100BF000109208010895EAE7F0E08081866880831A
:100C0000808186788083EBE7F0E08081807B808341
:100C1000ECE7F0E08081807680838081806480834F
:100C200080818062808380B7806880BF089588302B
:100C300028F090917B00986090937B0090917C00CD
:100C40008770892B80937C0080917A0080648093E8
:100C50007A0080917A0084FFFCCF80917900909196
:100C60007A00906190937A0090917B00977F9093A7
:100C70007B0090917C00907E90937C000895682F7B
:100C800070E080E090E00E9477172FEE39EC43E9A6
:100C90005FE30E9472189B01AC0160E070E080E8A5
:100CA0009FE30E94CF162AE939EF4EE255E40E94F5
:100CB000051820E030E040E251E40E9405180E944F
:100CC0004117CB016132734010F080E293E0089548
:100CD000CF93DF93C82FD62F842F0E9417068093BF
:100CE0009C16482F50E023E030E06D2F8C2FDF91D1
:100CF000CF910C94AB048AB18E6F8AB9589A08953B
:100D00000E9492030C947B06F894E9E6F0E080815F
:100D100082608083E89A789408951F920F920FB6AC
:100D20000F9211248F939F93AF93BF938091A91635
:100D30009091AA16A091AB16B091AC160196A11D88
:100D4000B11D8093A9169093AA16A093AB16B093E9
:100D5000AC16BF91AF919F918F910F900FBE0F90E6
:100D60001F9018955C9A5D9A0895F8940E947B06EE
:100D70000E94840678940C94B2065E985F98089559
:100D80005E9A5F9A08955E985F9A08955E9A5F985A
:100D900008950E94BD061092A9161092AA161092EC
:100DA000AB161092AC162FEF8FE794E021508040E5
:100DB0009040E1F700C000008091A9169091AA161A
:100DC000A091AB16B091AC168093A5169093A61681
:100DD000A093A716B093A81661E081E00E942004BA
:100DE0006BE975E18DE492E00E94F7198DE492E0E1
:100DF0000E949F044091A5165091A6166091A716D7
:100E00007091A81625E030E061E082E00E946C0558
:100E10002FEF8FEF9CE2215080409040E1F700C01F
:100E2000000081E00C94E2030E94C0061092A91613
:100E30001092AA161092AB161092AC162FEF8FE7F5
:100E400094E0215080409040E1F700C00000809184
:100E5000A9169091AA16A091AB16B091AC168093EA
:100E60009D1690939E16A0939F16B093A01661E0D6
:100E700081E00E94200466EA75E18DE492E00E9420
:100E8000F7198DE492E00E949F0440919D165091C5
:100E90009E1660919F167091A01625E030E061E0EB
:100EA00082E00E946C052FEF8FEF9CE22150804082
:100EB0009040E1F700C0000081E00C94E2030E9442
:100EC000C3061092A9161092AA161092AB16109291
:100ED000AC162FEF8FE794E0215080409040E1F76F
:100EE00000C000008091A9169091AA16A091AB169F
:100EF000B091AC168093A1169093A216A093A3165E
:100F0000B093A41661E081E00E94200463EB75E1D8
:100F10008DE492E00E94F7198DE492E00E949F0414
:100F20004091A1165091A2166091A3167091A4163B
:100F300025E030E061E082E00E946C052FEF8FEF4A
:100F40009CE2215080409040E1F700C0000081E029
:100F50000C94E2030E94BD061092A9161092AA16E4
:100F60001092AB161092AC162FEF8FE794E0215041
:100F700080409040E1F700C000008091A916909158
:100F8000AA16A091AB16B091AC168093A5169093BB
:100F9000A616A093A716B093A8166091A5167091F7
:100FA000A6168091A7169091A81608950E94C006D3
:100FB0001092A9161092AA161092AB161092AC16A7
:100FC0002FEF8FE794E0215080409040E1F700C080
:100FD00000008091A9169091AA16A091AB16B0912D
:100FE000AC1680939D1690939E16A0939F16B09377
:100FF000A01660919D1670919E1680919F169091FB
:10100000A01608950E94C3061092A9161092AA165F
:101010001092AB161092AC162FEF8FE794E0215090
:1010200080409040E1F700C000008091A9169091A7
:10103000AA16A091AB16B091AC168093A11690930E
:10104000A216A093A316B093A4166091A116709156
:10105000A2168091A3169091A41608958F929F9244
:10106000AF92BF92CF92DF92EF92FF920E94AA07B7
:101070006B017C010E9402084B015C010E94D607B3
:1010800027E0C21626E1D206E104F10430F0623016
:1010900022E172078105910500F58C149D04AE04D0
:1010A000BF0428F46C157D058E059F05C0F0C8149B
:1010B000D904EA04FB0428F4681579058A059B0520
:1010C00080F086169706A806B90668F4C616D706F5
:1010D000E806F90640F487E407C087E505C082E525
:1010E00003C082E401C080E3FF90EF90DF90CF90D7
:1010F000BF90AF909F908F90089581B18F6081B91C
:1011000082B1807F82B90895EAE0F1E08081886150
:101110008083EBE0F1E080818861808308958DB168
:101120008F7C8DB98EB180638EB90895F8948DB39C
:1011300080638DBBEAE6F0E080818A6080838081F5
:101140008A7F808378940895E1E2F1E010828FEF46
:101150008093250191E090932401109229018093BE
:10116000280110922B0180932A01A0E2B1E08C911A
:10117000806A8C938C918F7A8C938C9181608C9304
:101180008C918D7F8C9380818860808380818F7E1D
:10119000808380818360808380818B7F80830895BA
:1011A0001F920F920FB60F9211248F939F93AF93BC
:1011B000BF938091AF169091B016A091B116B091E7
:1011C000B2160196A11DB11D8093AF169093B01673
:1011D000A093B116B093B216BF91AF919F918F912A
:1011E0000F900FBE0F901F9018951F920F920FB681
:1011F0000F9211248F939F93AF93BF938091B31657
:101200009091B416A091B516B091B6160196A11D95
:10121000B11D8093B3169093B416A093B516B093F6
:10122000B616BF91AF919F918F910F900FBE0F9007
:101230001F90189582B1867F82B982B1866082B98B
:10124000089582B1897F82B982B1896082B9089597
:1012500082B1857F82B982B1856082B9089582B1F9
:101260008A7F82B982B18A6082B9089582B1887F0B
:1012700082B9129A089582B1827F82B9119A089533
:1012800082B1817F82B9109A089582B1887F82B934
:10129000139A089582B1807F82B908950F931F93A6
:1012A000813099F41092AF161092B0161092B116C8
:1012B0001092B2161092B3161092B4161092B51680
:1012C0001092B61680E090E029C04091AF16509180
:1012D000B0166091B1167091B2168091B3169091CC
:1012E000B416A091B516B091B6168A019B01080FED
:1012F000191F2A1F3B1FC901B8010E94771728E454
:1013000031EE42E850E40E94051820E030E040E071
:101310005FE30E9405180E944117CB011F910F91B6
:101320000895BC0180E090E00E94771728E431EE38
:1013300042E850E40E94CF160E944817CB01A0E07B
:10134000B0E01092AF161092B0161092B116109233
:10135000B2161092B3161092B4161092B5161092DF
:10136000B6164091AF165091B0166091B1167091BB
:10137000B216481759076A077B0798F44091B316CD
:101380005091B4166091B5167091B616481759076A
:101390006A077B0730F4E6E6FEE03197F1F70000DC
:1013A000E0CF0C944A090F931F93BC0180E090E0BA
:1013B0000E94771725EE30ED4AEA50E40E94CF16DE
:1013C0000E9448171092AF161092B0161092B116E4
:1013D0001092B2161092B3161092B4161092B5165F
:1013E0001092B6160091AF161091B0162091B1165A
:1013F0003091B216061717072807390798F400919D
:10140000B3161091B4162091B5163091B616061782
:1014100017072807390730F4E6E6FEE03197F1F7C1
:101420000000E0CF1F910F910C944A09CF93DF93F6
:10143000EC010E941A09CE01DF91CF910C94D309DF
:10144000CF93DF93EC010E942109CE01DF91CF9170
:101450000C94D309CF93DF93EC010E942809CE01AD
:10146000DF91CF910C949109CF93DF93EC010E940F
:101470002F09CE01DF91CF910C949109CF93DF9387
:10148000EC010E943609CE01880F991FDF91CF91A0
:101490000C949109CF93DF93EC010E943B09CE019C
:1014A000880F991FDF91CF910C949109CF93DF930F
:1014B000EC010E944009CE01880F991FDF91CF9166
:1014C0000C949109CF93DF93EC010E944509CE0162
:1014D000880F991FDF91CF910C9491098093280177
:1014E00060932A010895E1E0F1E0808180628083C9
:1014F000E2E0F1E08081806280830895E2E0F1E043
:1015000080818F7D80830895E2E0F1E080818062B8
:10151000808308950E942A0C911102C081110895C0
:101520008FEF08950C94670C87E090E00E940F0CF9
:101530000C94A90C0C94800C1F920F920FB60F9272
:1015400011240BB60F922F933F934F935F938F937A
:101550009F93EF93FF932091C0003091C6002871B4
:101560008091C31790E001968F7799274091C21719
:1015700050E08417950739F08093C317FC01EA53B4
:10158000F84E308301C022E02093C117FF91EF9104
:101590009F918F915F914F913F912F910F900BBE33
:1015A0000F900FBE0F901F9018951F920F920FB6BD
:1015B0000F9211240BB60F928F939F93EF93FF938B
:1015C0009091C5178091C417981779F08091C4172E
:1015D00090E001968F7799278093C417FC01EA5B0E
:1015E000F74E80818093C60005C08091C1008F7D39
:1015F0008093C100FF91EF919F918F910F900BBE4F
:101600000F900FBE0F901F901895F8941092C51769
:101610001092C4171092C3171092C217789497FFB4
:1016200004C022E02093C0009F779093C500809370
:10163000C40088E98093C10086E08093C2000895C9
:10164000F8949091C3178091C217981304C07894AE
:1016500080E091E0089578948091C21790E001961F
:101660008F7799278093C217FC01EA53F84E2081A7
:101670008091C11790E0982F8827820F911D0895BF
:10168000F8949091C3178091C217981304C078946E
:1016900080E091E008957894E091C217F0E03196EF
:1016A000EF77FF27EA53F84E20818091C11790E031
:1016B000982F8827820F911D08952091C51730E03B
:1016C0002F5F3F4F2F7733274091C41750E02417E7
:1016D0003507D1F3F901EA5BF74E80832093C517F4
:1016E0008091C10080628093C1000895CF93DF9301
:1016F000EC018991882319F00E945D0BFACFDF91EC
:10170000CF910895CF93DF93FC018491EF0121964F
:10171000882321F00E945D0BFE01F7CFDF91CF916E
:101720000895F8948091C3172091C217789490E09F
:1017300080589F4F821B91098F7799270895F894BD
:101740008091C2178093C317789408951F920F92C7
:101750000FB60F9211240BB60F922F933F934F9316
:101760005F938F939F93EF93FF932091300130917C
:10177000360128718091BE1690E001968F779927E7
:101780004091BD1650E08417950739F08093BE163E
:10179000FC01EF53F94E308301C022E02093BC16C8
:1017A000FF91EF919F918F915F914F913F912F9179
:1017B0000F900BBE0F900FBE0F901F9018951F92A9
:1017C0000F920FB60F9211240BB60F928F939F9327
:1017D000EF93FF939091C0168091BF16981779F000
:1017E0008091BF1690E001968F7799278093BF165E
:1017F000FC01EF5BF84E80818093360105C080913B
:1018000031018F7D80933101FF91EF919F918F91F5
:101810000F900BBE0F900FBE0F901F901895F8946D
:101820001092C0161092BF161092BE161092BD16DE
:10183000789497FF04C022E0209330019F77909323
:1018400035018093340188E98093310186E08093EB
:1018500032010895F8949091BE168091BD169813A8
:1018600004C0789480E091E0089578948091BD164A
:1018700090E001968F7799278093BD16FC01EF5376
:10188000F94E20818091BC1690E0982F8827820F16
:10189000911D0895F8949091BE168091BD169813ED
:1018A00004C0789480E091E008957894E091BD16AA
:1018B000F0E03196EF77FF27EF53F94E20818091CA
:1018C000BC1690E0982F8827820F911D08952091D3
:1018D000C01630E02F5F3F4F2F7733274091BF1660
:1018E00050E024173507D1F3F901EF5BF84E808300
:1018F0002093C01680913101806280933101089558
:10190000CF93DF93EC018991882319F00E94670C33
:10191000FACFDF91CF910895CF93DF93FC018491AB
:10192000EF012196882321F00E94670CFE01F7CF7A
:10193000DF91CF910895F8948091BE162091BD1645
:10194000789490E080589F4F821B91098F77992758
:101950000895F8948091BD168093BE1678940895EA
:10196000F894E1EBF0E0108282E88093B200B8983E
:10197000A0E7B0E08C9181608C931092B0008081E0
:1019800084608083789408951092C7181092C618C6
:101990001092C9181092C818E1EBF0E080818160C4
:1019A00080830895E1EBF0E080818E7F808308954D
:1019B0000E948A0A833551F52FEF8FE794E021507A
:1019C00080409040E1F700C000000E948A0A90E049
:1019D00090939902809398022FEF8FE794E0215023
:1019E00080409040E1F700C000000E948A0A90E029
:1019F00090939702809396020E94C40C1092D31881
:101A00001092D21881E08093D11829C0863409F051
:101A100048C02FEF8FE794E0215080409040E1F7DD
:101A200000C000000E948A0A8D34E1F42FEF8FE796
:101A300094E0215080409040E1F700C000000E94F7
:101A40008A0A90E090939702809396020E94C40CB9
:101A500081E08093D2181092D3181092D1188093FD
:101A6000D01808958D36E9F42FEF8FE794E02150D8
:101A700080409040E1F700C000000E948A0A90E098
:101A800090939702809396020E94C40C81E0809309
:101A9000D3181092D2181092D1188093D0180C94A9
:101AA000A90C08958091D01881111092D018089532
:101AB000809198029091990208958091D11808958B
:101AC0008091D21808958091D3180895809196023C
:101AD0009091970208956FEB75E18BE692E00E947A
:101AE000F7198BE692E00C949A0A69EC75E18BE6A3
:101AF00092E00E94F7198BE692E00E949A0A0C94F9
:101B0000D20C8091C6189091C71808951092CF18E2
:101B100081E08093CE181092CD18089581E08093D3
:101B2000CF181092CE181092CD1808951092CF1899
:101B30001092CE1881E08093CD180895909395026D
:101B40008093940208950F931F93CF93DF93CDB7A3
:101B5000DEB764970FB6F894DEBF0FBECDBF182F67
:101B6000092F6D3419F461ED75E104C06D36F9F497
:101B700065ED75E1CE0101960E94F719CE0101963F
:101B80009F938F930F931F938BED95E19F938F936B
:101B90008BE692E09F938F930E94121A8BE692E05D
:101BA0000E949A0A0FB6F894DEBF0FBECDBF6496AE
:101BB0000FB6F894DEBF0FBECDBFDF91CF911F915E
:101BC0000F9108957F936F939F938F938AEE95E182
:101BD0009F938F938BE692E09F938F930E94121AAC
:101BE0008DB79EB708960FB6F8949EBF0FBE8DBFF7
:101BF0008BE692E00C949A0A242F042E000C330BEF
:101C00003F934F93262F062E000C330B3F936F9379
:101C10009F938F9389EF95E19F938F938BE692E04B
:101C20009F938F930E94121A8DB79EB70A960FB694
:101C3000F8949EBF0FBE8DBF8BE692E00C949A0A7B
:101C4000262F062E000C330B3F936F939F938F9399
:101C50008AE096E19F938F938BE692E09F938F9318
:101C60000E94121A8DB79EB708960FB6F8949EBFC1
:101C70000FBE8DBF8BE692E00C949A0A3B9A439874
:101C800008950E94B00C0C943E0E439A089581E092
:101C90008093CC180E94450E8091D118882309F4B6
:101CA0004BC08091CD1894E0899F900111249091B0
:101CB000CE18892F90E0880F991F822B932B2091AB
:101CC000CF18822B81309105A1F02CF4892B89F556
:101CD00068E176E13BC082309105A1F0049749F5B7
:101CE0008091C7188F938091C6188F9386E496E1F0
:101CF00011C08091C7188F938091C6188F9382E38B
:101D000096E108C08091C7188F938091C6188F9371
:101D10008CE396E19F938F938BE692E09F938F9352
:101D20000E94121A0F900F900F900F900F900F902B
:101D300011C06DE476E10AC08091D21881110EC005
:101D40008091D31881110AC069E576E18BE692E0B3
:101D50000E94F7198BE692E00C949A0A8091C718BA
:101D60008F938091C6188F93809195028F93809165
:101D700094028F938EE696E19F938F938BE692E089
:101D80009F938F930E94121A8DB79EB708960FB635
:101D9000F8949EBF0FBE8DBFDDCF439808951F926C
:101DA0000F920FB60F9211240BB60F922F933F9301
:101DB0004F935F936F937F938F939F93AF93BF9353
:101DC000EF93FF938091C8189091C9180196909352
:101DD000C9188093C8188091C8189091C918883E76
:101DE000934040F18091C6189091C7180196909346
:101DF000C7188093C6181092C9181092C8188091FD
:101E0000CC188823B9F08091CA189091CB189C0106
:101E10002F5F3F4F3093CB182093CA18029754F08E
:101E20000E94CD0E0E94D20C1092CC181092CB18AA
:101E30001092CA1882E88093B200B898FF91EF918F
:101E4000BF91AF919F918F917F916F915F914F91D2
:101E50003F912F910F900BBE0F900FBE0F901F90D0
:101E6000189580919A0208958091DA189091DB1864
:101E700008959093DB188093DA1808959C01261B2F
:101E8000370BE4E6E29FC001E39F900D11249A0115
:101E9000261B370BB9010E94461677FD05C0653633
:101EA000710524F4862F089580E0089584E608954E
:101EB000CF9383E00E9417068093EC1882E00E9483
:101EC00017068093EB1881E00E941706C82F8093B5
:101ED000EA184091E2185091E3186091A7027091BE
:101EE000A8028091EC1890E00E943E0F8093E918C0
:101EF0004091E0185091E1186091A5027091A602FE
:101F00008C2F90E00E943E0F8093E7184091DE18DE
:101F10005091DF186091A3027091A4028091EB1898
:101F200090E00E943E0F8093E818CF9108950E94A0
:101F3000580F8091EC1890E02091E2183091E3184E
:101F40002817390724F49093E3188093E21820911E
:101F5000A7023091A8028217930724F49093A80255
:101F60008093A7028091EB1890E02091DE183091C9
:101F7000DF182817390724F49093DF188093DE18B0
:101F80002091A3023091A4028217930724F4909326
:101F9000A4028093A3028091EA1890E02091E018B7
:101FA0003091E1182817390724F49093E1188093B1
:101FB000E0182091A5023091A6028217930724F41D
:101FC0009093A6028093A502089581E00E944E0995
:101FD0000E942F096DE78DE70E946E0A80E00E9443
:101FE0004E098A3591051CF40E94970FF7CF81E0C6
:101FF0000E944E090E94280980E00E944E09843BFD
:1020000091051CF40E94970FF7CF81E00E944E09C2
:102010000E942F0980E00E944E098A3591051CF428
:102020000E94970FF7CF0C944A098F929F92AF921C
:10203000BF92CF92DF92EF92FF920E94580FE090F2
:10204000E718F12CC090E918D12CB7016C197D0963
:10205000072E000C880B990B0E9479174B015C012D
:102060008091E818B601680F711D6E0D7F1D072E57
:10207000000C880B990B0E94791720E030E040E8B3
:102080005FE30E9463169B01AC01C501B4010E948D
:10209000CF1620E030E04FE753E40E9405184B01D3
:1020A0005C019B01AC016091ED187091EE1880917C
:1020B000EF189091F0180E9462162FE632E143E08B
:1020C0005BE30E9405180E9441176B017C0120E030
:1020D00030E040E05FE3C501B4010E9405180E94B2
:1020E0004117C60ED71E8092ED189092EE18A0925E
:1020F000EF18B092F01868EC70E06C197D09C60119
:1021000088539F4F6F3F710509F02CF477FF05C08E
:1021100060E070E002C06FEF70E08F3F910509F062
:102120002CF497FF05C080E090E002C08FEF90E0B4
:10213000FF90EF90DF90CF90BF90AF909F908F90E7
:102140000C946E0AEF92FF920F931F93CF93DF933D
:1021500000E010E0C0E0D0E0E82EF12C0E151F05E5
:102160000CF0A7C08091EB18803108F49FC08091DB
:10217000EC18803108F09AC08091EA18803108F09C
:1021800095C00E94580F91E08091EC188B3008F0B8
:1021900090E09093D91881E02091EA182B3008F054
:1021A00080E08093D81841E02091EB182B3008F0A4
:1021B00040E04093D718990F990F440F492BE42F13
:1021C000E82BE093D6184E2FEE0F550B660B770BCE
:1021D000FA013197E730F10530F48827EE58FF4FC8
:1021E0008F4F0C945A160E941A096FEA8DE70E94CD
:1021F0006E0AB8CF0E9436096DE780E012C00E94D7
:102200001A096AEA8AEA0E946E0A2FEF8FE392E0C7
:10221000215080409040E1F746C00E9428096FEAB3
:102220008DE70E946E0A2FEF8FE392E021508040ED
:102230009040E1F700C00000C1E0D0E093CF0E94E1
:102240003B0960E08DE712C00E941A096FEA8FEA2D
:102250000E946E0A2FEF8FE794E02150804090405B
:10226000E1F721C00E942F096DE78FEA0E946E0AF4
:102270002FEF8FE392E0215080409040E1F700C0C3
:102280000000C0E0D0E06ECF209719F40E942F0923
:1022900002C00E9428096DE78DE70E946E0A8FEF49
:1022A00097E40197F1F700C000005CCF0F5F1F4F6C
:1022B00055CF8FE590E00E94160ADF91CF911F91D4
:1022C0000F91FF90EF900C944A090E94580F81E003
:1022D00090E02091EC18273011F080E090E09C0114
:1022E000220F331F220F331F81E090E04091EB1843
:1022F000473011F080E090E0880F991F822B2091E9
:10230000EA18275091E0223008F090E0892B91E004
:10231000873009F090E0892F0895FF920F931F9363
:10232000CF93DF93082F0E941A09C0E0D0E010E09D
:10233000FF24F394C017D1072CF50E94151080914B
:10234000EB188D3168F08091EC188D3120F480917C
:10235000EA188D3128F00E944A091092D41808C05A
:102360000E946511882349F30E944A09F092D4180B
:1023700068EC88EC0E946E0A8FE590E00E94160AD5
:102380002196D8CFDF91CF911F910F91FF900895A3
:102390008091D41881111092D41808956FEA8FEAB1
:1023A0000E946E0A81E490E00E942A0A6FEA8FEA96
:1023B0000E946E0A0E9428090E94580F8091EB1813
:1023C0008031D0F30C944A096FEA8FEA0E946E0ABA
:1023D00081E490E00E94340A6FEA8FEA0E946E0A5C
:1023E0000E942F090E94580F8091EB188031D0F382
:1023F0000C944A09CF9390919A028917A1F18033E6
:1024000091F1C82F9E3449F01CF4953469F029C02D
:10241000933589F09735B1F024C08335C9F08735FD
:10242000F1F08534F1F418C08335B1F0873581F0CF
:102430008E34B9F414C08E3459F0873569F0853480
:1024400081F40DC08E3441F0833549F0853449F470
:102450008AE590E00E94340A0E94E41102C00E94C2
:10246000CE11C0939A02CF910895CF9390919A0282
:102470008917C1F18033B1F1C82F9E3449F01CF4A3
:10248000953469F02DC0933589F09735B1F028C0A7
:102490008335C9F0873501F1853411F518C08335CE
:1024A000B1F0873581F08E34D9F416C08E3459F0EE
:1024B000873569F08534A1F40FC08E3441F083353F
:1024C00059F0853469F48AE590E00E94340A8AE57F
:1024D00090E00E94340A04C08AE590E00E942A0A33
:1024E000C0939A02CF91089580916F1990917019BD
:1024F00008959C01215031092031310508F047C071
:10250000FC01E353FD4F60836D34A1F420916D19FC
:1025100030916E1922313105D4F5A9014F5F5F4F1B
:1025200050936E1940936D19220F331FF901EF5B21
:10253000F64E2BC06D36A1F420916B1930916C19B9
:102540002231310524F5A9014F5F5F4F50936C197B
:1025500040936B19220F331FF901E75EF64E15C049
:102560006E34A9F42091691930916A19223131052C
:1025700074F4A9014F5F5F4F50936A194093691932
:10258000220F331FF901EF50F74E91838083089596
:102590009C01215031092031310528F4FC01E3531D
:1025A000FD4F8081089580E3089580917319909183
:1025B00074198131910544F4880F991FFC01E1528F
:1025C000FD4F8081918108958FEF9FEF0895809155
:1025D00073199091741901969093741980937319DB
:1025E0000895E0917519F0917619EF5FFC4F8081A5
:1025F00008958091CB029091CC020895880F991F85
:10260000FC01E958F64E808191810895CF93DF93C4
:10261000FC0120E030E08FEF9FE74FEF5FE7EB0139
:10262000A991BE01A11107C0A081B1814A175B0722
:1026300014F0C901AD012F5F3F4F329623343105AD
:1026400071F7DF91CF910895CF93DF93EC01FC01F7
:10265000EE0FFF1FE958F64E808191818F3F2FEFDB
:10266000920771F00E942413DF93CF938BE796E1DA
:102670009F938F930E94FE190F900F900F900F90D1
:10268000DF91CF9108956F927F928F929F92AF9238
:10269000BF92CF92DF92EF92FF920F931F93CF934F
:1026A000DF93CDB7DEB7C354D1090FB6F894DEBFC0
:1026B0000FBECDBFDE011196EDEFF9E12FEF3FE741
:1026C000219331931D924AE1E338F407C9F72FEFC4
:1026D0003FEF3093781920937719FC01EE0FFF1F1D
:1026E000E350F64E1182108202E410E088248394B5
:1026F00063E4962EBE016F5F7F4F8DEF99E10E94DC
:102700000613E1E0F0E0EC0FFD1FE80FF91F8082F7
:1027100027E7622E29E1722E989E5001999EB00CF7
:102720001124EDEFF9E1DE0111967D0120E030E0AA
:10273000BC01660F771F6350764ED7014D917D0126
:10274000411118C0A9014A0D5B1D4B565C4FDA01BF
:10275000DC90DD2079F0DB014D915C914D0D511D38
:10276000C080D1804C155D052CF4D3018D939C93D2
:10277000518340832F5F3F4FB2E06B0E711C329646
:1027800023343105D1F60150110909F0B3CFCD5BE7
:10279000DF4F0FB6F894DEBF0FBECDBFDF91CF91F4
:1027A0001F910F91FF90EF90DF90CF90BF90AF906F
:1027B0009F908F907F906F9008954F925F926F924D
:1027C0007F928F929F92AF92BF92CF92DF92EF92C1
:1027D000FF920F931F93CF93DF93C82FCB010E94DB
:1027E0004313CD3409F058C0E0914119F0914219DA
:1027F00093E0EE0FFF1F9A95E1F7EB5FFC4F20810E
:102800003181C0916D19D0916E191C161D060CF006
:10281000FEC0C0907519D090761901E419E148EB1B
:102820005BE060E070E0AA24AA94BB24BA94F801AB
:10283000A191B1918F01FD0183E0EE0FFF1F8A95F9
:10284000E1F7CF018B5F9C4F3C01490180E090E0B4
:10285000F301219131913F017901EE0CFF1CF70149
:10286000E350F64EE080F180E416F50614F0940192
:1028700003C06C01A7015D0101968430910511F040
:102880004901E6CF6F5F7F4FC617D70781F6C09229
:102890007519D0927619B1C0CD3609F053C0E091C8
:1028A0001919F0911A1923E0EE0FFF1F2A95E1F78D
:1028B000EB5FFC4F2081318100916B1910916C19F5
:1028C000101611060CF0A3C080907519909076191F
:1028D00099E1492E99E1592E48EB5BE0A0E0B0E088
:1028E000AA24AA94BB24BA94F201C191D1912F01D8
:1028F000FE0183E0EE0FFF1F8A95E1F7CF018B5FAA
:102900009C4F3C0160E070E0F301E190F1903F01E9
:102910006701CC0CDD1CC6018350964EFC01C080C3
:10292000D180C416D50624F44B01A60197015E019F
:102930006F5F7F4F6430710539F711960A171B07D7
:1029400099F64EC0CE3409F050C0E091F118F091E4
:10295000F21893E0EE0FFF1F9A95E1F7EB5FFC4F43
:1029600020813181C0906919D0906A191C141D040E
:102970000CF04DC0809075199090761901EF18E118
:1029800048EB5BE060E070E0AA24AA94BB24BA9410
:10299000F801A191B1918F01FD0183E0EE0FFF1FBE
:1029A0008A95E1F7EB5FFC4F80E090E0E190F190D9
:1029B000E701CC0FDD1FC350D64E0990D881C02D42
:1029C000C417D50724F44C01AE0197015D010196AF
:1029D0008430910559F76F5F7F4FC616D706C1F651
:1029E000809275199092761908C020E030E048EB8B
:1029F0005BE0AA24AA94BB24BA945093CC024093DF
:102A0000CB023093701920936F19C50102C08FEF6C
:102A10009FEFDF91CF911F910F91FF90EF90DF908B
:102A2000CF90BF90AF909F908F907F906F905F906E
:102A30004F900895CF93DF93EC01CB010E94431395
:102A4000FE0183E0EE0FFF1F8A95E1F7EB5FFC4F7D
:102A5000D081C181709175196091761920E030E0C4
:102A600048EB5BE081919191DC01AA0FBB1FA35061
:102A7000B64E0D90BC91A02DA417B5071CF08D2F5C
:102A80009C2F03C0722F632FAD012F5F3F4F243067
:102A9000310519F0D82FC92FE5CF709375196093C0
:102AA00076195093CC024093CB02DF91CF910895D9
:102AB0009C0163347105A0F58334910588F5A3E486
:102AC000A89FF001A99FF00D1124EB56FC4FE60FD3
:102AD000F71F1082A69FC001A79F900D1124AC0183
:102AE0004B565C4FFA01E20FF31F1082FB01EE0F11
:102AF000FF1FE958F64E808191818F3F2FEF92079B
:102B000079F0A89F9001A99F300D11242B563C4FBE
:102B1000F901E60FF71F1082FA01E80FF91F108282
:102B200008950F931F93CF93DF939C01FB010097B0
:102B300049F08234910501F1309741F0623471051A
:102B400069F480C06D33710549F478C0859731F020
:102B50002D33310519F4309709F46EC0C9016EE0C8
:102B600070E00E944616EC018A3091055CF42197D2
:102B700080F4C8E0D0E00DC06532710509F467C08B
:102B80008AE090E065E070E00E944616EC01CC0F10
:102B9000DD1FC90101972EE030E0B9010E94461601
:102BA0008B01000F111F69E070E00E944616060FAE
:102BB000171FCF01B9010E9446168A3091053CF4D7
:102BC0009C012150310950F428E030E007C065E055
:102BD00070E00E9446169C01220F331FCF0101971F
:102BE0006EE070E00E944616FB01EE0FFF1F69E0E9
:102BF00070E00E9446166E0F7F1F601B710B2C1B2E
:102C00003D0B6130710521F06F3F8FEF780769F45C
:102C100021303105A9F02F3F8FEF380789F061305F
:102C2000710551F06F3F7F4F49F02130310569F058
:102C30002F3F3F4F29F40BC083E50AC08EE408C044
:102C400080E306C0859709F083CF85E401C087E55E
:102C5000DF91CF911F910F9108950E947B0380E037
:102C600090E00895AA1BBB1B51E107C0AA1FBB1F20
:102C7000A617B70710F0A61BB70B881F991F5A9508
:102C8000A9F780959095BC01CD01089597FB072E7B
:102C900016F4009407D077FD09D00E94321607FC85
:102CA00005D03EF4909581959F4F0895709561955C
:102CB0007F4F0895EE0FFF1F881F8BBF0790F6917F
:102CC000E02D19945058BB27AA270E947A160C941D
:102CD000CB170E94BD1738F00E94C41720F039F4BA
:102CE0009F3F19F426F40C94BA170EF4E095E7FB15
:102CF0000C94B417E92F0E94DC1758F3BA17620737
:102D000073078407950720F079F4A6F50C94FE1755
:102D10000EF4E0950B2EBA2FA02D0B01B9019001F6
:102D20000C01CA01A0011124FF27591B99F0593F3A
:102D300050F4503E68F11A16F040A22F232F342F82
:102D40004427585FF3CF469537952795A795F040D0
:102D50005395C9F77EF41F16BA0B620B730B840BE5
:102D6000BAF09150A1F0FF0FBB1F661F771F881F9D
:102D7000C2F70EC0BA0F621F731F841F48F48795F5
:102D800077956795B795F7959E3F08F0B0CF9395E7
:102D9000880F08F09927EE0F9795879508950E9460
:102DA000E3160C94CB170E94C41758F00E94BD176D
:102DB00040F029F45F3F29F00C94B41751110C94A2
:102DC000FF170C94BA170E94DC1768F39923B1F32C
:102DD000552391F3951B550BBB27AA276217730741
:102DE000840738F09F5F5F4F220F331F441FAA1FD5
:102DF000A9F335D00E2E3AF0E0E832D09150504091
:102E0000E695001CCAF72BD0FE2F29D0660F771F3E
:102E1000881FBB1F261737074807AB07B0E809F024
:102E2000BB0B802DBF01FF2793585F4F3AF09E3FA9
:102E3000510578F00C94B4170C94FF175F3FE4F33E
:102E4000983ED4F3869577956795B795F7959F5FEC
:102E5000C9F7880F911D9695879597F90895E1E038
:102E6000660F771F881FBB1F621773078407BA0797
:102E700020F0621B730B840BBA0BEE1F88F7E095F2
:102E800008950E9448176894B1110C94FF17089593
:102E90000E94E41788F09F5798F0B92F9927B751EF
:102EA000B0F0E1F0660F771F881F991F1AF0BA95EE
:102EB000C9F714C0B13091F00E94FE17B1E0089537
:102EC0000C94FE17672F782F8827B85F39F0B93F29
:102ED000CCF3869577956795B395D9F73EF49095A1
:102EE0008095709561957F4F8F4F9F4F0895E8941F
:102EF00009C097FB3EF490958095709561957F4F42
:102F00008F4F9F4F9923A9F0F92F96E9BB279395EF
:102F1000F695879577956795B795F111F8CFFAF4FF
:102F2000BB0F11F460FF1BC06F5F7F4F8F4F9F4F30
:102F300016C0882311F096E911C0772321F09EE88E
:102F4000872F762F05C0662371F096E8862F70E0F4
:102F500060E02AF09A95660F771F881FDAF7880FCE
:102F60009695879597F9089597F99F6780E870E09F
:102F700060E008959FEF80EC089500240A941616EF
:102F8000170618060906089500240A941216130657
:102F9000140605060895092E0394000C11F48823E5
:102FA00052F0BB0F40F4BF2B11F460FF04C06F5F01
:102FB0007F4F8F4F9F4F089557FD9058440F551FD7
:102FC00059F05F3F71F04795880F97FB991F61F0AB
:102FD0009F3F79F087950895121613061406551F22
:102FE000F2CF4695F1DF08C0161617061806991F8E
:102FF000F1CF86957105610508940895E894BB2783
:1030000066277727CB0197F908950E9418180C942A
:10301000CB170E94BD1738F00E94C41720F09523EB
:1030200011F00C94B4170C94BA1711240C94FF17D8
:103030000E94DC1770F3959FC1F3950F50E0551F68
:10304000629FF001729FBB27F00DB11D639FAA27FD
:10305000F00DB11DAA1F649F6627B00DA11D661F4C
:10306000829F2227B00DA11D621F739FB00DA11D6D
:10307000621F839FA00D611D221F749F3327A00D27
:10308000611D231F849F600D211D822F762F6A2FC3
:1030900011249F5750409AF0F1F088234AF0EE0F28
:1030A000FF1FBB1F661F771F881F91505040A9F755
:1030B0009E3F510580F00C94B4170C94FF175F3FAE
:1030C000E4F3983ED4F3869577956795B795F79591
:1030D000E7959F5FC1F7FE2B880F911D9695879509
:1030E00097F90895FA01EE0FFF1F3096210531057B
:1030F000A1F16115710561F48038BFE39B0749F1C7
:1031000068949038810561F08038BFEF9B0741F0EB
:1031100099234AF5FF3FE1053105210519F1E894AE
:103120000894E795D901AA2329F4AB2FBE2FF85FA5
:10313000D0F310C0FF5F70F4A695E0F7F73950F0B8
:1031400019F0FF3A38F49F779F930DD00F9007FC4A
:103150009058089546F00C94BA1760E070E080E84B
:103160009FE308954FE79F775F934F933F932F938C
:103170000E946D192F913F914F915F910E94051808
:103180000C94CA1829F416F00C94B4170C94FE177A
:103190000C94BA170E94E417A8F39638A0F707F822
:1031A0000F92E8942BE33AEA48EB5FE70E941B1882
:1031B0000F920F920F924DB75EB70F920E94B51902
:1031C000E2EFF0E00E94FC184F915F91EF91FF91C8
:1031D000E595EE1FFF1F49F0FE57E0684427EE0F0C
:1031E000441FFA95E1F74195550B0E942F190F9056
:1031F00007FE0C9423190895DF93CF931F930F9329
:10320000FF92EF92DF927B018C01689406C0DA2E68
:10321000EF010E941818FE01E894A59125913591BF
:1032200045915591A6F3EF010E947A16FE01970190
:10323000A801DA9469F7DF90EF90FF900F911F914A
:10324000CF91DF9108959B01AC0160E070E080E8D0
:103250009FE30C94CF160C94B4170C94E9190E94B8
:10326000E417D8F39923C9F3940F511DA3F3915098
:10327000504094F059F0882332F0660F771F881F72
:1032800091505040C1F79E3F51052CF7880F911D7A
:103290009695879597F908955F3FACF0983E9CF01E
:1032A000BB27869577956795B79508F4B160939598
:1032B000C1F7BB0F58F711F460FFE8CF6F5F7F4F86
:1032C0008F4F9F4FE3CF0C94FF1716F00C94E91922
:1032D0000C94BA1768940C94B4170E94E417A8F3DE
:1032E0009923C1F3AEF3DF93CF931F930F93FF9214
:1032F000C92FDD2788232AF02197660F771F881FA3
:10330000DAF720E030E040E85FEB9FE3883920F017
:10331000803E38F021968F770E946316EAE1F1E053
:1033200004C00E946316E7E4F1E00E94FC188B01E0
:10333000BE01EC01FB2E6F5771097595771F880B45
:10334000990B0E94791728E132E741E35FE30E947D
:103350001818AF2D9801AE01FF900F911F91CF91DA
:10336000DF910E947A160C94CB17FA01DC01AA0FA8
:10337000BB1F9B01AC01BF5728F4222733274427EA
:10338000507820C0B75190F4AB2F00244695379564
:103390002795011CA395D2F3002071F0220F331F53
:1033A000441FB395DAF30ED00C94621661307105A8
:1033B000A0E88A07B94630F49B01AC01662777275D
:1033C00088279078309621F020833183428353837D
:1033D00008959F3F31F0915020F487957795679538
:1033E000B795880F911D9695879597F90895FB01DC
:1033F000DC0101900D920020E1F70895CF93DF9357
:10340000CDB7DEB7AE014A5F5F4FFA0161917191AE
:10341000AF018091851A9091861A0E94411ADF911E
:10342000CF9108950F931F93CF93DF93CDB7DEB75E
:103430002E970FB6F894DEBF0FBECDBF0E891F8941
:1034400086E08C831A8309838FEF9FE79E838D83A9
:10345000AE01465E5F4F688D798DCE0101960E9468
:10346000411AEF81F885E00FF11F10822E960FB6FA
:10347000F894DEBF0FBECDBFDF91CF911F910F91AA
:1034800008952F923F924F925F926F927F928F9208
:103490009F92AF92BF92CF92DF92EF92FF920F93E3
:1034A0001F93CF93DF93CDB7DEB72B970FB6F8946A
:1034B000DEBF0FBECDBF6C017B018A01FC0117820C
:1034C0001682838181FFCCC1CE0101963C01F601B9
:1034D0009381F70193FD859193FF81917F0188236B
:1034E00009F4BAC1853239F493FD859193FF819136
:1034F0007F01853229F4B60190E00E94611CE7CF7C
:10350000912C212C312CFFE1F315D8F08B3279F07E
:1035100038F4803279F08332A1F4232D20611DC06C
:103520008D3261F0803369F4232D216016C0832D24
:103530008260382EE32DE4603E2E2AC0F32DF86021
:103540001DC037FC2DC020ED280F2A3040F08E32F0
:10355000B9F436FC81C1232D2064322E19C036FE09
:1035600006C08AE0989E200D1124922E11C0EAE038
:103570002E9E200D1124222EF32DF0623F2E08C026
:103580008C3621F4832D8068382E02C0883641F4B1
:10359000F70193FD859193FF81917F018111B3CF55
:1035A000982F9F7D9554933028F40C5F1F4F9FE315
:1035B00099830DC0833631F0833771F0833509F07C
:1035C00059C021C0F801808189830E5F1F4F882474
:1035D0008394912C530113C02801F2E04F0E511C2B
:1035E000F801A080B18036FE03C0692D70E002C0F2
:1035F0006FEF7FEFC5010E94561C4C018201F32D35
:10360000FF773F2E16C0280122E0420E511CF80120
:10361000A080B18036FE03C0692D70E002C06FEF5C
:103620007FEFC5010E944B1C4C01F32DF0683F2E2B
:10363000820133FC1BC0822D90E088169906B0F4FD
:10364000B60180E290E00E94611C2A94F4CFF5015B
:1036500037FC859137FE81915F01B60190E00E94B1
:10366000611C21102A9421E0821A9108811491048E
:1036700071F7E8C0843611F0893641F5F80137FE5C
:1036800007C060817181828193810C5F1F4F08C0E8
:1036900060817181072E000C880B990B0E5F1F4F04
:1036A000F32DFF763F2E97FF09C09095809570957A
:1036B00061957F4F8F4F9F4FF0683F2E2AE030E09B
:1036C000A3010E949D1C882E861845C0853731F4C1
:1036D000232D2F7EB22E2AE030E025C0932D997F36
:1036E000B92E8F36C1F018F4883579F0B5C080371F
:1036F00019F0883721F0B0C0E92FE061BE2EB4FE8A
:103700000DC0FB2DF460BF2E09C034FE0AC0292F66
:103710002660B22E06C028E030E005C020E130E08F
:1037200002C020E132E0F801B7FE07C0608171817C
:10373000828193810C5F1F4F06C06081718180E0A0
:1037400090E00E5F1F4FA3010E949D1C882E8618DB
:10375000FB2DFF773F2E36FE0DC0232D2E7FA22E90
:10376000891458F434FE0BC032FC09C0832D8E7EC0
:10377000A82E05C0B82CA32C03C0B82C01C0B92CAE
:10378000A4FE0FC0FE01E80DF11D8081803321F4FD
:103790009A2D997EA92E09C0A2FE06C0B394B394B7
:1037A00004C08A2D867809F0B394A3FC11C0A0FE52
:1037B00006C0B21488F4280C922C9B180EC0B214C8
:1037C00060F4B60180E290E00E94611CB394F7CFF0
:1037D000B21418F42B1802C0982C212CA4FE10C08F
:1037E000B60180E390E00E94611CA2FE17C0A1FC1C
:1037F00003C088E790E002C088E590E0B6010CC005
:103800008A2D867859F0A1FE02C08BE201C080E2C9
:10381000A7FC8DE2B60190E00E94611C891438F487
:10382000B60180E390E00E94611C9A94F7CF8A94DD
:10383000F301E80DF11D8081B60190E00E94611C4A
:103840008110F5CF222009F442CEB60180E290E04B
:103850000E94611C2A94F6CFF6018681978102C0EE
:103860008FEF9FEF2B960FB6F894DEBF0FBECDBF44
:10387000DF91CF911F910F91FF90EF90DF90CF904C
:10388000BF90AF909F908F907F906F905F904F9080
:103890003F902F900895FC010590615070400110F9
:1038A000D8F7809590958E0F9F1F0895FC01615069
:1038B000704001900110D8F7809590958E0F9F1F52
:1038C00008950F931F93CF93DF93FB01238121FD75
:1038D00003C08FEF9FEF2CC022FF16C04681578197
:1038E000248135814217530744F4A081B1819D01A1
:1038F0002F5F3F4F318320838C93268137812F5F49
:103900003F4F3783268314C08B01EC01FB010084F9
:10391000F185E02D1995892BE1F6D80116968D9148
:103920009C911797019617969C938E931697CE01AC
:10393000DF91CF911F910F910895FA01AA272830A6
:1039400051F1203181F1E8946F936E7F6E5F7F4F6C
:103950008F4F9F4FAF4FB1E03ED0B4E03CD0670FE8
:10396000781F891F9A1FA11D680F791F8A1F911D3B
:10397000A11D6A0F711D811D911DA11D20D009F48B
:1039800068943F912AE0269F11243019305D3193CD
:10399000DEF6CF010895462F4770405D4193B3E0B6
:1039A0000FD0C9F7F6CF462F4F70405D4A3318F05D
:1039B000495D31FD4052419302D0A9F7EACFB4E00E
:1039C000A6959795879577956795BA95C9F70097C6
:1039D0006105710508959B01AC010A2E0694579567
:1039E000479537952795BA95C9F7620F731F841FBE
:0A39F000951FA01D0895F894FFCF65
:1039FA004200713D8A3E48656C6C6F2C20492061FB
:103A0A006D20612046697265626972642D2D2D2DC3
:103A1A002D2D2D2D2D2D2D2D2D2D2D2D2D2D2D2DCC
:103A2A002D2D2D2D2D2D2D2D2D2D2D2D2D2D2D2DBC
:103A3A002D2D2D2D2D2D2D2D2D20560A0048656C4E
:103A4A006C6F20576F726C64204920616D20612071
:103A5A00466972656269726420560048656C6C6FCB
:103A6A002C204920616D2061204669726562697265
:103A7A00642D2D2D2D2D2D2D2D2D2D2D2D2D2D2D35
:103A8A0020560A000100010001004E04000500044E
:103A9A00000000FF0FFF0FFF0F48656C6C6F2C20B2
:103AAA004920616D20612046697265626972642DE0
:103ABA002D2D2D2D2D2D2D20560A0010273030307A
:103ACA003030303030303030303030303030300D0F
:103ADA0000090005000100020006000A000E000F9E
:103AEA00000B0007000300040008000C001000117E
:103AFA00004553574E0A0002000B0010000A00024C
:103B0A00000B0010000B0004000C0012000C000651
:103B1A00000D0014000D0008000E00160018001019
:103B2A000019001E00190012001A0020001A0014C1
:103B3A00001B0022001B0016001C00240026001E89
:103B4A000027002C002700200028002E0028002231
:103B5A000029003000290024002A00320034002CF9
:103B6A000035003A0035002E0036003C00360030A1
:103B7A000037003E00370032003800400042004261
:103B8A0000420042000000000000000000000000A7
:103B9A00000000000000000000000000000000001B
:103BAA00000000000000000000000000000000000B
:103BBA0000000000000000000000000000000000FB
:103BCA0000000100000000000000010000000000E9
:103BDA0000000100000000000000000000000000DA
:103BEA0000000000000000000000000000000000CB
:103BFA0000000000000000000000000000000000BB
:103C0A0000000000000000000000000001000100A8
:103C1A00000000000000000000000000000000009A
:103C2A00000000000000000000000000000000008A
:103C3A00000000000000000000000000000000007A
:103C4A00000000000000000000000000000000006A
:103C5A000100010000000000000100000000000057
:103C6A00000000000000000000000000000000004A
:103C7A00000000000000000000000000000000003A
:103C8A00000000000000000000000000000000002A
:103C9A000000000001000100000000000000000018
:103CAA00000000000000000000000000000000000A
:103CBA0000000000000000000000000000000000FA
:103CCA0000000000000000000000000000000000EA
:103CDA0000000000000000000100010000000000D8
:103CEA0001000000000000000000000000000000C9
:103CFA0000000000000000000000000000000000BA
:103D0A0000000000000000000000000000000000A9
:103D1A000000000000000000000000000100010097
:103D2A000000000000000000000000000000000089
:103D3A000000000000000000000000000000000079
:103D4A000000000000000000000000000000000069
:103D5A000000000000000000000000000000000059
:103D6A000100010000000001000000000000000046
:103D7A000000000000000000000000000000000039
:103D8A000000000000000000000000000000000029
:103D9A000000000000000000000000000000000019
:103DAA000000000001000100000000000000000007
:103DBA0000000000000000000000000000000000F9
:103DCA0000000000000000000000000000000000E9
:103DDA0000000000000000000000000000000000D9
:103DEA0000000000000000000100000000000100C7
:103DFA0000000000000000000000000000000000B9
:103E0A0000000000000000000000000000000000A8
:103E1A000000000000000000000000000000000098
:103E2A000000000001000000000000000000000087
:103E3A000000010000000000000000000000000077
:103E4A000000000000000000000000000000000068
:103E5A000000000000000000000000000000000058
:103E6A000000000000000000000100000000000047
:103E7A000000000000000001000000000000000037
:103E8A000000000000000000000000000000000028
:103E9A000000000000000000000000000000000018
:103EAA000000000000000000000000000000010007
:103EBA0000000000000000000000000001000000F7
:103ECA0000000000000000000000000000000000E8
:103EDA0000000000000000000000000000000000D8
:103EEA0000000000000000000000000000000000C8
:103EFA0000000001000000000000000000000000B7
:103F0A0000010000000000000000000000000000A6
:103F1A000000000000000000000000000000000097
:103F2A000000000000000000000000000000000087
:103F3A000000000000000000010000000000000076
:103F4A000000000000000100000000000000000066
:103F5A000000000000000000000000000000000057
:103F6A000000000000000000000000000000000047
:103F7A000000000000000000000000000100000036
:103F8A000000010000000000000001000000000025
:103F9A000000000000000000000000000000000017
:103FAA000000000000000000000000000000000007
:103FBA0000000000000000000000000000000000F7
:103FCA0000000000010001000000000000000000E5
:103FDA0000000000000000000000000000000000D7
:103FEA0000000000000000000000000000000000C7
:103FFA0000000000000000000000000000000000B7
:10400A0000000001000000000100010000000000A3
:10401A000001000000000000000000000000000095
:10402A000000000000000000000000000000000086
:10403A000000000000000000000000000000000076
:10404A000000000000000000000000000100010064
:10405A000000000000000000000000000000000056
:10406A000000000000000000000000000000000046
:10407A000000000000000000000000000000000036
:10408A000000000000000000000001000000000025
:10409A000100010000000000010000000000000013
:1040AA000000000000000000000000000000000006
:1040BA0000000000000000000000000000000000F6
:1040CA0000000000000000000000000000000000E6
:1040DA0000000000010001000000000000000000D4
:1040EA0000000000000000000000000000000000C6
:1040FA0000000000000000000000000000000000B6
:10410A0000000000000000000000000000000000A5
:10411A000001000000000000010001000000000191
:10412A000000000000000000000000000000000085
:10413A000000000000000000000000000000000075
:10414A000000000000000000000000000000000065
:10415A000000000000000000000000000100010053
:10416A000000000000000000000000000000000045
:10417A000000000000000000000000000000000035
:10418A000000000000000000000000000000000025
:10419A000000000000000000010000000000000014
:1041AA000100000000000100000000000000000003
:1041BA0000000000000000000000000000000000F5
:1041CA0000000000000000000000000000000000E5
:1041DA0000000000000000000000000001000000D4
:1041EA0000000000000000000000010000000000C4
:1041FA0000000000000000000000000000000000B5
:10420A0000000000000000000000000000000000A4
:10421A000000000000000000000000000000000094
:10422A000001000000000000000000000000000182
:10423A000000000000000000000000000000000074
:10424A000000000000000000000000000000000064
:10425A000000000000000000000000000000000054
:10426A000000000000000100000000000000000043
:10427A000000000001000000000000000000000033
:10428A000000000000000000000000000000000024
:10429A000000000000000000000000000000000014
:1042AA000000000000000000000000010000000003
:1042BA0000000000000000000001000000000000F3
:1042CA0000000000000000000000000000000000E4
:1042DA0000000000000000000000000000000000D4
:1042EA0000000000000000000000000000000000C4
:1042FA0001000000000000000000000000000100B2
:10430A0000000000000000000000000000000000A3
:10431A000000000000000000000000000000000093
:10432A000000000000000000000000000000000083
:10433A000000000001000000000001000000000071
:10434A000000010000000000000000000000000062
:10435A000000000000000000000000000000000053
:10436A000000000000000000000000000000000043
:10437A000000000000000000000000000100010031
:10438A000000000000000000000000000000000023
:10439A000000000000000000000000000000000013
:1043AA000000000000000000000000000000000003
:1043BA0000000000000000000000000100000000F2
:1043CA0001000100000000000001000000000000E0
:1043DA0000000000000000000000000000000000D3
:1043EA0000000000000000000000000000000000C3
:1043FA0000000000000000000000000000000000B3
:10440A0000000000010001000000000000000000A0
:10441A000000000000000000000000000000000092
:10442A000000000000000000000000000000000082
:10443A000000000000000000000000000000000072
:10444A00000001000000000001000100000000005F
:10445A000100000000000000000000000000000051
:10446A000000000000000000000000000000000042
:10447A000000000000000000000000000000000032
:10448A000000000000000000000000000100010020
:10449A000000000000000000000000000000000012
:1044AA000000000000000000000000000000000002
:1044BA0000000000000000000000000000000000F2
:1044CA0000000000000000000001000000000000E1
:1044DA0001000100000000010000000000000000CF
:1044EA0000000000000000000000000000000000C2
:1044FA0000000000000000000000000000000000B2
:10450A0000000000000000000000000000000000A1
:10451A00000000000100010000000000000000008F
:10452A000000000000000000000000000000000081
:10453A000000000000000000000000000000000071
:10454A000000000000000000000000000000000061
:10455A00010000000000000001000000000001004E
:10456A000000000000000000000000000000000041
:10457A000000000000000100000000000000000030
:10458A000000000000000000000000000000000021
:10459A000000000001000000000000000000000010
:1045AA000000010000000000000000000000000000
:1045BA0000000000000000000000000000000000F1
:1045CA0000000000000000000000000000000000E1
:1045DA0000000000000000000001000000000000D0
:1045EA0000000000000000010000000000000000C0
:1045FA0000000000000000000000000000000000B1
:10460A0000000000000000000000000000000000A0
:10461A00000000000000000000000000000001008F
:10462A00000000000000000000000000010000007F
:10463A000000000000000000000000000000000070
:10464A000000000000000000000000000000000060
:10465A000000000000000000000000000000000050
:10466A00000000010000000000000000000000003F
:10467A00000100000000000000000000000000002F
:10468A000000000000000000000000000000000020
:10469A000000000000000000000000000000000010
:1046AA0000000000000000000100000000000000FF
:1046BA0000000000000001000000000000000000EF
:1046CA0000000000000000000000000000000000E0
:1046DA0000000000000000000000000000000000D0
:1046EA0000000000000000000000000001000000BF
:1046FA0000000100000000000000010000000000AE
:10470A00000000000000000000000000000000009F
:10471A00000000000000000000000000000000008F
:10472A00000000000000000000000000000000007F
:10473A00000000000100010000000000000000006D
:10474A00000000000000000000000000000000005F
:10475A00000000000000000000000000000000004F
:10476A00000000000000000000000000000000003F
:10477A00000000010000000001000100000000002C
:10478A00000100000000000000000000000000001E
:10479A00000000000000000000000000000000000F
:1047AA0000000000000000000000000000000000FF
:1047BA0000000000000000000000000001000100ED
:1047CA0000000000000000000000000000000000DF
:1047DA0000000000000000000000000000000000CF
:1047EA0000000000000000000000000000000000BF
:1047FA0000000000000000000000010000000000AE
:10480A00010001000000000001000000000000009B
:10481A00000000000000000000000000000000008E
:10482A00000000000000000000000000000000007E
:10483A00000000000000000000000000000000006E
:10484A00000000000100010000000000000000005C
:10485A00000000000000000000000000000000004E
:10486A00000000000000000000000000000000003E
:10487A00000000000000000000000000000000002E
:10488A00000100000000000001000100000000011A
:10489A00000000000000000000000000000000000E
:1048AA0000000000000000000000000000000000FE
:1048BA0000000000000000000000000000000000EE
:1048CA0000000000000000000000000001000100DC
:1048DA0000000000000000000000000000000000CE
:1048EA0000000000000000000000000000000000BE
:1048FA0000000000000000000000000000000000AE
:10490A00000000000000000001000000000000009C
:10491A00010000000000010000000000000000008B
:10492A00000000000000000000000000000000007D
:10493A00000000000000000000000000000000006D
:10494A00000000000000000000000000010000005C
:10495A00000000000000000000000100000000004C
:10496A00000000000000000000000000000000003D
:10497A00000000000000000000000000000000002D
:10498A00000000000000000000000000000000001D
:10499A00000100000000000000000000000000010B
:1049AA0000000000000000000000000000000000FD
:1049BA0000000000000000000000000000000000ED
:1049CA0000000000000000000000000000000000DD
:1049DA0000000000000001000000000000000000CC
:1049EA0000000000010000000000000000000000BC
:1049FA0000000000000000000000000000000000AD
:104A0A00000000000000000000000000000000009C
:104A1A00000000000000000000000001000000008B
:104A2A00000000000000000000010000000000007B
:104A3A00000000000000000000000000000000006C
:104A4A00000000000000000000000000000000005C
:104A5A00000000000000000000000000000000004C
:104A6A00010000000000000000000000000001003A
:104A7A00000000000000000000000000000000002C
:104A8A00000000000000000000000000000000001C
:104A9A00000000000000000000000000000000000C
:104AAA0000000000010000000000010000000000FA
:104ABA0000000000000000000000000000000000EC
:104ACA0000000000000000000000000000000000DC
:104ADA0000000000000000000000000000000000CC
:104AEA0000000000000000000000000001000100BA
:104AFA0000000000000000000000000000000000AC
:104B0A00000000000000000000000000000000009B
:104B1A00000000000000000000000000000000008B
:104B2A00000000000000000000000001000000007A
:104B3A000100010000000000000000000000000069
:104B4A00000000000000000000000000000000005B
:104B5A00000000000000000000000000000000004B
:104B6A00000000000000000000000000000000003B
:104B7A000000000001000100000000000100000028
:104B8A00000000000000000000000000000000001B
:104B9A00000000000000000000000000000000000B
:104BAA0000000000000000000000000000000000FB
:104BBA0000000100000000000100010000000000E8
:104BCA0000000000000000000000000000000000DB
:104BDA0000000000000000000000000000000000CB
:104BEA0000000000000000000000000000000000BB
:104BFA0000000000000000000000000001000100A9
:104C0A00000000000000000000000000000000009A
:104C1A00000000000000000000000000000000008A
:104C2A00000000000000000000000000000000007A
:104C3A000000000000000000000100000000000069
:104C4A000100010000000000000000000000000058
:104C5A00000000000000000000000000000000004A
:104C6A00000000000000000000000000000000003A
:104C7A00000000000000000000000000000000002A
:104C8A000000000001000100000000000000000018
:104C9A00000000000000000000000000000000000A
:104CAA0000000000000000000000000000000000FA
:104CBA0000000000000000000000000000000000EA
:104CCA0001000000000000000100000000000000D8
:104CDA0000000000000000000000000000000000CA
:104CEA0000000000000000000000000000000000BA
:104CFA0001000000000000000000000000000000A9
:104D0A0000000000000000000000000000003173F5
:104D1A0074204E6F64650A5E004D6964204E6F64AC
:104D2A00650A5E00393020446567726565204C6506
:104D3A006674207475726E0A5E0043656E746572DD
:104D4A00206F6620626C6F636B20726561636865B1
:104D5A00640A5E004261636B206F6E206C696E6547
:104D6A000A5E004C656674205475726E0A5E0053C2
:104D7A0074617274204C6F636174696F6E0A5E00AD
:104D8A0046696E69736865640A5E005265642050FC
:104D9A00756C73657300477265656E2050756C7328
:104DAA00657300426C75652050756C73657300619C
:104DBA00636365707465645E0069676E6F72655ED1
:104DCA000072656400677265656E007363616E6E7A
:104DDA0065642D25642D25732100666F72776172D3
:104DEA00642D25642D25642100726F746174652D0C
:104DFA0025642D25632D256321006465627269731C
:104E0A002D25642D256321004572726F7220696E0B
:104E1A00207461736B20636F6D706C6574696F6E5B
:104E2A005E006D696E6F722D25645E006D616A6F3A
:104E3A00722D25645E006E6F2D25645E00536361DA
:104E4A006E2D4572726F725E004572726F722064C7
:104E5A0065636F64696E67207461736B5E00666573
:104E6A007463682D25642D25645E00256420000086
:00000001FF
