:100000000C94C8000C942D070C94E9000C94E900A2
:100010000C94E9000C9495090C9470090C94E90077
:100020000C94E9000C94E9000C94E9000C94E900AC
:100030000C94E9000C94E9000C94E9000C94860FF0
:100040000C94E9000C94E9000C94E9000C94E9008C
:100050000C94E9000C94E9000C94E9000C94E9007C
:100060000C94E9000C943C0B0C94750B0C94E90077
:100070000C94E9000C94E9000C94E9000C94E9005C
:100080000C94E9000C94E9000C94E9000C94E9004C
:100090000C94E9000C94E9000C94E9000C94E9003C
:1000A0000C94E9000C94E9000C94E9000C94E9002C
:1000B0000C94E9000C94E9000C94E9000C94E9001C
:1000C0000C94E9000C94E9000C94E9000C94E9000C
:1000D0000C94E9000C94E9000C94460C0C947F0CF1
:1000E0000C94E900B111B611C411D611DB11E9115C
:1000F000FB1107634236B79BD8A71A39685618AE6A
:10010000BAAB558C1D3CB7CC5763BD6DEDFD753E4C
:10011000F6177231BF000000803F08000000BE9259
:100120002449123EABAAAA2ABECDCCCC4C3E00003C
:100130000080BEABAAAAAA3E00000000BF000000DB
:10014000803F0000000000084178D3BB4387D113F3
:100150003D190E3CC3BD4282AD2B3E68EC8276BE9B
:10016000D98FE1A93E4C80EFFFBE01C4FF7F3F0065
:10017000000000000C94B6110C94B1110C94DB112A
:100180000C94D6110C94E9110C94C4110C94FB112D
:1001900011241FBECFEFD1E2DEBFCDBF00E00CBF08
:1001A00017E1A0E0B2E0E8EDF7E300E00BBF02C02A
:1001B00007900D92A23BB107D9F72BE1A2EBB7E173
:1001C00001C01D92A633B207E1F70E941C150C94E2
:1001D000EA1B0C9400000E9494060E949B060E9459
:1001E00032040E94A7040E9455070E9466070E94DD
:1001F0001D090E9424090E942F090E9436090E94AD
:1002000044090E94F80E0C94340BCF9381E00E94B5
:100210001C126EEE74E182E092E00E94E61882E029
:1002200092E00E943A0B81E00E941C1269EF74E197
:1002300082E092E00E94E61882E092E00E943A0B8F
:100240006FEA8FEA0E940E0B8AE590E00E94CA0ACC
:1002500064E075E182E092E00E94E61882E092E0BC
:100260000E943A0B68EC88EC0E940E0B84EB90E045
:100270000E94B60A6AE175E182E092E00E94E61807
:1002800082E092E00E943A0B0E94CE08C82F0E94A2
:10029000320B0E94D6048C2F0E940305C23519F43C
:1002A0000E94D80E07C0C73419F40E94E00E02C0A5
:1002B0000E94E80E84EB90E00E94C00A64E375E1BE
:1002C00082E092E00E94E61882E092E00E943A0BFF
:1002D0000E94481263E475E182E092E00E94E61811
:1002E00082E092E00E943A0B81E00E941C126EEEC6
:1002F00074E182E092E00E94E61882E092E00E94BF
:100300003A0B81E00E941C126FE475E182E092E0FA
:100310000E94E61882E092E00E943A0B60E675E1E6
:1003200082E092E00E94E61882E092E0CF910C9485
:100330003F057F928F929F92AF92BF92CF92DF92B2
:10034000EF92FF920F931F93CF93DF930E94780D4C
:100350000E94960E782E882309F40FC16BE675E192
:1003600082E092E00E94E61882E092E00E943A0B5E
:100370000E94AF0E882331F10E94EB0FEC010E9426
:10038000AA0EBE010E940914EC010E94AA0E9F93BE
:100390008F938DE795E19F938F9382E092E09F93F7
:1003A0008F930E94011982E092E00E943A0B0E9412
:1003B000AA0E182F092F0F900F900F900F900F90EB
:1003C0000F900AC00E94B20E811102C00E94B50EA9
:1003D000C2E4D0E01BE000E00E94BD0EDF93CF93AB
:1003E00086E995E19F938F9382E092E09F938F93AC
:1003F0000E94011982E092E00E943A0BCE010E9415
:100400006F130F900F900F900F900F900F9083EB42
:10041000A82E85E1B82E92E0E92E92E0F92E27EC85
:10042000C22E25E1D22E0E94EB0FC817D907B1F1D9
:100430000E94EB0F0E942A13982E892E9F938F9370
:10044000BF92AF92FF92EF920E94011982E092E078
:100450000E943A0B0E94EB0F692D782D0E948014A8
:100460000E94741281E00E941C12892D982D0E9416
:10047000F00F8F929F92DF92CF92FF92EF920E94A5
:10048000011982E092E00E943A0B8DB79EB70C965C
:100490000FB6F8949EBF0FBE8DBFC5CFC234D10535
:1004A00009F46BC00F931F9389ED95E19F938F9390
:1004B000C2E0D2E0DF93CF930E940119CE010E94E7
:1004C0003A0B0E9422130E94AF126EEE75E1CE012C
:1004D0000E94E618CE010E943A0B84EB90E00E9445
:1004E000B60A0E94CE080F900F900F900F900F90B9
:1004F0000F90823569F40F931F9382E096E19F93EA
:100500008F93DF93CF930E9401190E94D80E1BC0D6
:10051000873469F40F931F9382E296E19F938F9340
:10052000DF93CF930E9401190E94E00E0CC00F933D
:100530001F9382E496E19F938F93DF93CF930E9462
:1005400001190E94E80E0F900F900F900F900F90DE
:100550000F9082E092E00E943A0B0E94FE0E84EB24
:1005600090E00E94C00A6FE576E182E092E00E948E
:10057000E61882E092E00E943A0B872DDF91CF913E
:100580001F910F91FF90EF90DF90CF90BF90AF90B1
:100590009F908F907F9008950F931F93CF93DF9339
:1005A0000E94990181111092B417C091B417C11122
:1005B00051C00E9406130E94F9128033E1F50E9497
:1005C000EB0F8C010E940613B8010E94091480935E
:1005D0000002909301029F938F9380E796E19F938F
:1005E0008F9302E012E01F930F930E940119C8013C
:1005F0000E943A0B80910002909101020E946F13B9
:1006000081E08093B4170E9406139F938F938FE825
:1006100096E19F938F931F930F930E940119C80136
:100620000E943A0B8DB79EB70C960FB6F8949EBFFA
:100630000FBE8DBFDCC00E9418131092B41760EA81
:1006400076E182E092E00E94E61882E092E00E9469
:100650003A0BCDC00E94EB0F0E942A139093B31760
:100660008093B2170E94EB0F20910002309101029B
:100670008217930709F444C08091B3178F93809138
:10068000B2178F9383EB95E19F938F93C2E0D2E0F3
:10069000DF93CF930E940119CE010E943A0B009183
:1006A000B2171091B3170E94EB0FB8010E9480148B
:1006B0000E94741281E00E941C128091B2179091E6
:1006C000B3170E94F00F81E08093B4178091B317A5
:1006D0008F938091B2178F9387EC95E19F938F93BF
:1006E000DF93CF930E940119CE010E943A0B8DB780
:1006F0009EB70C960FB6F8949EBF0FBE8DBF67C015
:100700008234910509F465C00E9406139F938F936C
:1007100089ED95E19F938F93C2E0D2E0DF93CF9371
:100720000E940119CE010E943A0B0E9422130E94DE
:10073000AF126EEE75E1CE010E94E618CE010E9466
:100740003A0B84EB90E00E94B60A0E94CE080F900C
:100750000F900F900F900F900F90823539F40E94F8
:1007600006139F938F9382E096E10FC0873439F48C
:100770000E9406139F938F9382E296E106C00E9427
:1007800006139F938F9382E496E19F938F93DF9359
:10079000CF930E9401190F900F900F900F900F9020
:1007A0000F9082E092E00E943A0B0E94181384EBB3
:1007B00090E00E94C00A1092B4176FE576E182E0E3
:1007C00092E00E94E61882E092E00E943A0BC0E0BC
:1007D0000EC00E94181365EB76E182E092E00E9461
:1007E000E61882E092E00E943A0B1092B4178C2F28
:1007F000DF91CF911F910F9108950E94EB000E940D
:100800009C106CEC76E182E092E00E94E61882E0B7
:1008100092E00E943A0B0E94780D67ED76E182E04B
:1008200092E00E94E61882E092E00E943A0B0E9459
:10083000CC028823E1F368EE76E182E092E00E9448
:10084000E61882E092E00E943A0B0E94780D0E9426
:10085000960E8823D1F30E94BD0E0E9405010E94CE
:10086000FE0EF3CF87B1876087B987B1806F87B9F4
:1008700088B1887F88B988B18F7088B9089586E675
:100880009EE00197F1F700004098419880E388B915
:10089000429AEFEFF7E43197F1F700C00000429879
:1008A000E6E6FEE03197F1F700004098419888B9FC
:1008B000429AEFEFF7E43197F1F700C00000429859
:1008C000E6E6FEE03197F1F700004098419888B9DC
:1008D000429A8FEF97E40197F1F700C00000429829
:1008E000E6E6FEE03197F1F700004098419880E29B
:1008F00088B9429A8FEF97E40197F1F700C00000A2
:100900004298089598B19F7098B998B1282F207F88
:10091000922B98B940984198429AEFEFF7E43197BB
:10092000F1F700C00000429898B19F7098B998B153
:100930008295807F892B88B940984198429A8FEFA1
:1009400097E40197F1F700C00000429808950E94D3
:100950003F0486E69EE00197F1F7000088E20E94DE
:10096000820481E00E94820486E00E9482048EE07C
:100970000E94820480E80C94820480E80C94820433
:10098000982F862F923059F01CF4913031F0089551
:10099000933039F0943039F00895815805C081546E
:1009A00003C08D5601C08D520C94820481E00C94DA
:1009B0008204CF93C42F0E94C00488B18F7088B97D
:1009C00088B19C2F907F892B88B9409A4198429A90
:1009D0008FEF97E40197F1F700C000004298C295AD
:1009E000C07F88B18F7088B988B1C82BC8B9409AC8
:1009F0004198429A8FEF97E40197F1F700C0000009
:100A00004298CF91089598B19F7098B998B1282FC6
:100A1000207F922B98B9409A4198429AEFEFF7E4E1
:100A20003197F1F700C0000042988295807F98B11D
:100A30009F7098B998B1892B88B9409A4198429A89
:100A40008FEF97E40197F1F700C0000042980895F6
:100A50000F931F93CF93DF93D82FC62F8A01F801EE
:100A600041918F01442331F06C2F8D2F0E94D904C6
:100A7000CF5FF5CFDF91CF911F910F910895CF9365
:100A8000DF93EC018991882319F00E940305FACFC6
:100A9000DF91CF910895EF92FF920F931F93CF9321
:100AA000DF93D82FC62F8A0179010E94C00417FF57
:100AB00009C01195019511094DE26C2F8D2F0E94EF
:100AC000D904CF5FDD2311F0C11103C00E94BD0422
:100AD00004C06C2F8D2F0E94C00485E0E816F1043D
:100AE00009F07FC0C80160E177E20E943515AB01D3
:100AF000405D5F4F5093B6174093B5176C2F8D2F05
:100B00000E94D904CF5FC80168EE73E00E943515DA
:100B1000CB017093C0176093BF176AE070E00E942A
:100B20002115AC01405D5F4F5093B8174093B71744
:100B30006C2F8D2F0E94D904CF5FC80164E670E04E
:100B40000E943515CB017093C0176093BF176AE000
:100B500070E00E942115AC01405D5F4F5093BA17C1
:100B60004093B9176C2F8D2F0E94D904CF5F2AE0D4
:100B700030E0C801B9010E943515CB017093C01750
:100B80006093BF17B9010E942115AC01405D5F4F12
:100B90005093BC174093BB176C2F8D2F0E94D90424
:100BA000CF5FC8016AE070E00E943515AC01405D7E
:100BB0005F4F5093BE174093BD176C2F8D2F0E942F
:100BC000D904CF5F86E0E816F104FCF045E46C2F11
:100BD0008D2FDF91CF911F910F91FF90EF900C948B
:100BE000D90484E0E816F10409F48DCF83E0E81617
:100BF000F10409F4A2CF82E0E816F10409F4B7CFBA
:100C000081E0E816F104F1F6CCCFDF91CF911F918E
:100C10000F91FF90EF9008950F931F93CF93DF9361
:100C20008A01E901882311F0611103C00E94BD040B
:100C300002C00E94C004C530D10509F061C0C801DE
:100C400060E177E20E942115CB01C0969093B61720
:100C50008093B5170E940305C80168EE73E00E94F7
:100C60002115CB017093C0176093BF176AE070E045
:100C70000E942115C0969093B8178093B7170E94D1
:100C80000305C80164E670E00E942115CB01709352
:100C9000C0176093BF176AE070E00E942115C096EC
:100CA0009093BA178093B9170E9403052AE030E0A9
:100CB000C801B9010E942115CB017093C017609340
:100CC000BF17B9010E942115C0969093BC1780935D
:100CD000BB170E940305C8016AE070E00E9421155D
:100CE000C0969093BE178093BD170E940305269768
:100CF000B4F085E4DF91CF911F910F910C9403051F
:100D0000C430D10509F4A8CFC330D10509F4B9CF57
:100D1000C230D10559F2C130D10549F7DCCFDF919E
:100D2000CF911F910F91089510BA11BA1092070137
:100D3000109208010895EAE7F0E0808186688083D8
:100D4000808186788083EBE7F0E08081807B808300
:100D5000ECE7F0E08081807680838081806480830E
:100D600080818062808380B7806880BF08958830EA
:100D700028F090917B00986090937B0090917C008C
:100D80008770892B80937C0080917A0080648093A7
:100D90007A0080917A0084FFFCCF80917900909155
:100DA0007A00906190937A0090917B00977F909366
:100DB0007B0090917C00907E90937C000895682F3A
:100DC00070E080E090E00E9466162FEE39EC43E977
:100DD0005FE30E9461179B01AC0160E070E080E876
:100DE0009FE30E94BE152AE939EF4EE255E40E94C6
:100DF000F41620E030E040E251E40E94F4160E9434
:100E00003016CB016132734010F080E293E0089518
:100E1000CF93DF93C82FD62F842F0E94B7068093DD
:100E2000CE17482F50E023E030E06D2F8C2FDF915C
:100E3000CF910C944B058AB18E6F8AB9589A089558
:100E40000E9432040C941B07F894E9E6F0E08081DC
:100E500082608083E89A789408951F920F920FB66B
:100E60000F9211248F939F93AF93BF938091DB17C1
:100E70009091DC17A091DD17B091DE170196A11DAE
:100E8000B11D8093DB179093DC17A093DD17B0930F
:100E9000DE17BF91AF919F918F910F900FBE0F9072
:100EA0001F9018955C9A5D9A0895F8940E941B070C
:100EB0000E94240778940C9452075E985F980895D6
:100EC0005E9A5F9A08955E985F9A08955E9A5F9819
:100ED00008950E945D071092DB171092DC171092A4
:100EE000DD171092DE172FEF8FE794E0215080403E
:100EF0009040E1F700C000008091DB179091DC1773
:100F0000A091DD17B091DE178093D7179093D81773
:100F1000A093D917B093DA1761E081E00E94C00472
:100F20006AEF76E184E292E00E94E61884E292E0C1
:100F30000E943F054091D7175091D8176091D9175B
:100F40007091DA1725E030E061E082E00E940C0643
:100F50002FEF8FEF9CE2215080409040E1F700C0DE
:100F6000000081E00C9482040E9460071092DB175D
:100F70001092DC171092DD171092DE172FEF8FE71B
:100F800094E0215080409040E1F700C00000809143
:100F9000DB179091DC17A091DD17B091DE178093DD
:100FA000CF179093D017A093D117B093D21761E0C9
:100FB00081E00E94C00465E077E184E292E00E9453
:100FC000E61884E292E00E943F054091CF175091CD
:100FD000D0176091D1177091D21725E030E061E011
:100FE00082E00E940C062FEF8FEF9CE221508040A0
:100FF0009040E1F700C0000081E00C9482040E9460
:1010000063071092DB171092DC171092DD17109215
:10101000DE172FEF8FE794E0215080409040E1F7FA
:1010200000C000008091DB179091DC17A091DD17C4
:10103000B091DE178093D3179093D417A093D51750
:10104000B093D61761E081E00E94C00462E177E1CD
:1010500084E292E00E94E61884E292E00E943F055A
:101060004091D3175091D4176091D5177091D6172E
:1010700025E030E061E082E00E940C062FEF8FEF68
:101080009CE2215080409040E1F700C0000081E0E8
:101090000C9482040E945D071092DB171092DC17FB
:1010A0001092DD171092DE172FEF8FE794E021509A
:1010B00080409040E1F700C000008091DB179091E4
:1010C000DC17A091DD17B091DE178093D7179093AE
:1010D000D817A093D917B093DA176091D7177091EA
:1010E000D8178091D9179091DA1708950E94600758
:1010F0001092DB171092DC171092DD171092DE179A
:101100002FEF8FE794E0215080409040E1F700C03E
:1011100000008091DB179091DC17A091DD17B09152
:10112000DE178093CF179093D017A093D117B09369
:10113000D2176091CF177091D0178091D1179091ED
:10114000D21708950E9463071092DB171092DC17E4
:101150001092DD171092DE172FEF8FE794E02150E9
:1011600080409040E1F700C000008091DB17909133
:10117000DC17A091DD17B091DE178093D317909301
:10118000D417A093D517B093D6176091D317709149
:10119000D4178091D5179091D61708958F929F926A
:1011A000AF92BF92CF92DF92EF92FF920E944A08D5
:1011B0006B017C010E94A2084B015C010E94760831
:1011C00027E0C21626E1D206E104F10430F06230D5
:1011D00022E172078105910500F58C149D04AE048F
:1011E000BF0428F46C157D058E059F05C0F0C8145A
:1011F000D904EA04FB0428F4681579058A059B05DF
:1012000080F086169706A806B90668F4C616D706B3
:10121000E806F90640F487E407C087E505C082E5E3
:1012200003C082E401C080E3FF90EF90DF90CF9095
:10123000BF90AF909F908F90089581B18F6081B9DA
:1012400082B1807F82B90895EAE0F1E0808188610F
:101250008083EBE0F1E080818861808308958DB127
:101260008F7C8DB98EB180638EB90895F8948DB35B
:1012700080638DBBEAE6F0E080818A6080838081B4
:101280008A7F808378940895E1E2F1E010828FEF05
:101290008093250191E0909324011092290180937D
:1012A000280110922B0180932A01A0E2B1E08C91D9
:1012B000806A8C938C918F7A8C938C9181608C93C3
:1012C0008C918D7F8C9380818860808380818F7EDC
:1012D000808380818360808380818B7F8083089579
:1012E0001F920F920FB60F9211248F939F93AF937B
:1012F000BF938091E1179091E217A091E317B0910D
:10130000E4170196A11DB11D8093E1179093E21798
:10131000A093E317B093E417BF91AF919F918F9182
:101320000F900FBE0F901F9018951F920F920FB63F
:101330000F9211248F939F93AF93BF938091E517E2
:101340009091E617A091E717B091E8170196A11DBB
:10135000B11D8093E5179093E617A093E717B0931C
:10136000E817BF91AF919F918F910F900FBE0F9093
:101370001F90189582B1867F82B982B1866082B94A
:10138000089582B1897F82B982B1896082B9089556
:1013900082B1857F82B982B1856082B9089582B1B8
:1013A0008A7F82B982B18A6082B9089582B1887FCA
:1013B00082B9129A089582B1827F82B9119A0895F2
:1013C00082B1817F82B9109A089582B1887F82B9F3
:1013D000139A089582B1807F82B908950F931F9365
:1013E000813099F41092E1171092E2171092E317EE
:1013F0001092E4171092E5171092E6171092E71773
:101400001092E81780E090E029C04091E1175091D8
:10141000E2176091E3177091E4178091E5179091BE
:10142000E617A091E717B091E8178A019B01080F12
:10143000191F2A1F3B1FC901B8010E94661628E424
:1014400031EE42E850E40E94F41620E030E040E043
:101450005FE30E94F4160E943016CB011F910F919A
:101460000895BC0180E090E00E94661628E431EE09
:1014700042E850E40E94BE150E943716CB01A0E05E
:10148000B0E01092E1171092E2171092E317109259
:10149000E4171092E5171092E6171092E7171092D2
:1014A000E8174091E1175091E2176091E3177091AE
:1014B000E417481759076A077B0798F44091E51726
:1014C0005091E6176091E7177091E8174817590790
:1014D0006A077B0730F4E6E6FEE03197F1F700009B
:1014E000E0CF0C94EA090F931F93BC0180E090E0D9
:1014F0000E94661625EE30ED4AEA50E40E94BE15C1
:101500000E9437161092E1171092E2171092E3171B
:101510001092E4171092E5171092E6171092E71751
:101520001092E8170091E1171091E2172091E3174C
:101530003091E417061717072807390798F4009128
:10154000E5171091E6172091E7173091E817061775
:1015500017072807390730F4E6E6FEE03197F1F780
:101560000000E0CF1F910F910C94EA09CF93DF9315
:10157000EC010E94BA09CE01DF91CF910C94730A5D
:10158000CF93DF93EC010E94C109CE01DF91CF918F
:101590000C94730ACF93DF93EC010E94C809CE012B
:1015A000DF91CF910C94310ACF93DF93EC010E942D
:1015B000CF09CE01DF91CF910C94310ACF93DF9305
:1015C000EC010E94D609CE01880F991FDF91CF91BF
:1015D0000C94310ACF93DF93EC010E94DB09CE011A
:1015E000880F991FDF91CF910C94310ACF93DF932D
:1015F000EC010E94E009CE01880F991FDF91CF9185
:101600000C94310ACF93DF93EC010E94E509CE01DF
:10161000880F991FDF91CF910C94310A8093280194
:1016200060932A010895E1E0F1E080818062808387
:10163000E2E0F1E08081806280830895E2E0F1E001
:1016400080818F7D80830895E2E0F1E08081806277
:10165000808308950E94CA0C911102C081110895DF
:101660008FEF08950C94070D87E090E00E94AF0C77
:101670000C94490D0C94200D1F920F920FB60F92EF
:1016800011240BB60F922F933F934F935F938F9339
:101690009F93EF93FF932091C0003091C600287173
:1016A0008091F51890E001968F7799274091F41872
:1016B00050E08417950739F08093F518FC01E85045
:1016C000F74E308301C022E02093F318FF91EF9191
:1016D0009F918F915F914F913F912F910F900BBEF2
:1016E0000F900FBE0F901F9018951F920F920FB67C
:1016F0000F9211240BB60F928F939F93EF93FF934A
:101700009091F7188091F618981779F08091F61853
:1017100090E001968F7799278093F618FC01E8589E
:10172000F64E80818093C60005C08091C1008F7DF8
:101730008093C100FF91EF919F918F910F900BBE0D
:101740000F900FBE0F901F901895F8941092F718F5
:101750001092F6181092F5181092F418789497FFDA
:1017600004C022E02093C0009F779093C50080932F
:10177000C40088E98093C10086E08093C200089588
:10178000F8949091F5188091F418981304C0789407
:1017900080E091E0089578948091F41890E00196AB
:1017A0008F7799278093F418FC01E850F74E208139
:1017B0008091F31890E0982F8827820F911D08954B
:1017C000F8949091F5188091F418981304C07894C7
:1017D00080E091E008957894E091F418F0E031967B
:1017E000EF77FF27E850F74E20818091F31890E0C3
:1017F000982F8827820F911D08952091F71830E0C7
:101800002F5F3F4F2F7733274091F61850E0241772
:101810003507D1F3F901E858F64E80832093F71885
:101820008091C10080628093C1000895CF93DF93BF
:10183000EC018991882319F00E94FD0BFACFDF910A
:10184000CF910895CF93DF93FC018491EF0121960E
:10185000882321F00E94FD0BFE01F7CFDF91CF918D
:101860000895F8948091F5182091F418789490E0F8
:1018700080589F4F821B91098F7799270895F8947C
:101880008091F4188093F518789408951F920F9220
:101890000FB60F9211240BB60F922F933F934F93D5
:1018A0005F938F939F93EF93FF932091300130913B
:1018B000360128718091F01790E001968F77992773
:1018C0004091EF1750E08417950739F08093F01797
:1018D000FC01ED50F84E308301C022E02093EE175A
:1018E000FF91EF919F918F915F914F913F912F9138
:1018F0000F900BBE0F900FBE0F901F9018951F9268
:101900000F920FB60F9211240BB60F928F939F93E5
:10191000EF93FF939091F2178091F117981779F058
:101920008091F11790E001968F7799278093F117B6
:10193000FC01ED58F74E80818093360105C08091FF
:1019400031018F7D80933101FF91EF919F918F91B4
:101950000F900BBE0F900FBE0F901F901895F8942C
:101960001092F2171092F1171092F0171092EF17D1
:10197000789497FF04C022E0209330019F779093E2
:1019800035018093340188E98093310186E08093AA
:1019900032010895F8949091F0178091EF17981301
:1019A00004C0789480E091E0089578948091EF17D6
:1019B00090E001968F7799278093EF17FC01ED5007
:1019C000F84E20818091EE1790E0982F8827820FA3
:1019D000911D0895F8949091F0178091EF17981346
:1019E00004C0789480E091E008957894E091EF1736
:1019F000F0E03196EF77FF27ED50F84E208180918F
:101A0000EE1790E0982F8827820F911D089520915E
:101A1000F21730E02F5F3F4F2F7733274091F117B8
:101A200050E024173507D1F3F901ED58F74E8083C4
:101A30002093F217809131018062809331010895E3
:101A4000CF93DF93EC018991882319F00E94070D51
:101A5000FACFDF91CF910895CF93DF93FC0184916A
:101A6000EF012196882321F00E94070DFE01F7CF98
:101A7000DF91CF910895F8948091F0172091EF179E
:101A8000789490E080589F4F821B91098F77992717
:101A90000895F8948091EF178093F0177894089543
:101AA000F894E1EBF0E0108282E88093B200B898FD
:101AB000A0E7B0E08C9181608C931092B00080819F
:101AC00084608083789408951092F9191092F8191F
:101AD0001092FB191092FA19E1EBF0E0808181601D
:101AE00080830895E1EBF0E080818E7F808308950C
:101AF000CF93DF930E942A0B8F3F09F414C18335E3
:101B000009F062C06EE177E182E492E00E94E6189B
:101B100082E492E00E943A0B2FEF8FE794E021508D
:101B200080409040E1F700C000000E942A0B8F3FE8
:101B300009F4F9C0282F082E000C330B30936902EA
:101B4000209368023F938F938AEA97E19F938F9344
:101B5000C2E4D2E0DF93CF930E940119CE010E942C
:101B60003A0B9FEF2FE784E0915020408040E1F74F
:101B700000C000000E942A0B0F900F900F900F9052
:101B80000F900F908F3F09F4CEC0282F082E000C25
:101B9000330B30936702209366023F938F9380E26A
:101BA00097E19F938F93DF93CF930E940119CE010A
:101BB0000E943A0B0E94640D1092051A1092041AAA
:101BC00081E08093031A55C0863409F0ACC08FEFD2
:101BD0009FE724E0815090402040E1F700C00000E2
:101BE0000E942A0BC82F65E277E182E492E00E940E
:101BF000E61882E492E00E943A0BCD3409F042C02C
:101C000067E277E182E492E00E94E61882E492E0E3
:101C10000E943A0B8FEF9FE724E0815090402040D4
:101C2000E1F700C000000E942A0B8F3F09F47BC03F
:101C3000282F082E000C330B309367022093660286
:101C40003F938F9381E297E19F938F9382E492E099
:101C50009F938F930E94011982E492E00E943A0BB5
:101C60000E94640D81E08093041A1092051A10926C
:101C7000031A8093021A0F900F900F900F900F90FD
:101C80000F9051C0CD3609F04EC06AE277E182E490
:101C900092E00E94E61882E492E00E943A0B8FEFF5
:101CA0009FE724E0815090402040E1F700C0000011
:101CB0000E942A0B8F3FB9F1282F082E000C330BFE
:101CC00030936702209366023F938F9381E297E1FE
:101CD0009F938F9382E492E09F938F930E940119C8
:101CE00082E492E00E943A0B6DE277E182E492E0B6
:101CF0000E94E61882E492E00E943A0B0E94640D72
:101D000081E08093051A1092041A1092031A8093AE
:101D1000021A0F900F900F900F900F900F90DF917D
:101D2000CF910C94490DDF91CF910895CF93C0913D
:101D3000021ACC2361F065E377E182E492E00E942D
:101D4000E61882E492E00E943A0B1092021A8C2F5D
:101D5000CF910895809168029091690208958091D1
:101D6000031A08958091041A08958091051A089520
:101D70008091660290916702089562E477E182E4BF
:101D800092E00E94E61882E492E00C943A0B6BE435
:101D900077E182E492E00E94E61882E492E00E94F9
:101DA0003A0B0C94720D8091F8199091F9190895DD
:101DB0001092011A81E08093001A1092FF19089581
:101DC00081E08093011A1092001A1092FF19089571
:101DD0001092011A1092001A81E08093FF19089561
:101DE000909365028093640208953B9A4398089506
:101DF0000E94500D0C94F50E439A089581E0809353
:101E0000FE190E94FC0E8091031A882309F44BC02E
:101E10008091FF1994E0899F900111249091001AFC
:101E2000892F90E0880F991F822B932B2091011A04
:101E3000822B81309105A1F02CF4892B89F562E584
:101E400077E13BC082309105A1F0049749F580917C
:101E5000F9198F938091F8198F938DE797E111C04D
:101E60008091F9198F938091F8198F938BE697E100
:101E700008C08091F9198F938091F8198F9384E7A6
:101E800097E19F938F9382E492E09F938F930E94B8
:101E900001190F900F900F900F900F900F9011C09D
:101EA00063E877E10AC08091041A81110EC0809125
:101EB000051A81110AC06EE877E182E492E00E947F
:101EC000E61882E492E00C943A0B8091F9198F9312
:101ED0008091F8198F93809165028F9380916402AD
:101EE0008F9382EA97E19F938F9382E492E09F938E
:101EF0008F930E9401198DB79EB708960FB6F8947C
:101F00009EBF0FBE8DBFDDCF439808951F920F92E5
:101F10000FB60F9211240BB60F922F933F934F934E
:101F20005F936F937F938F939F93AF93BF93EF9341
:101F3000FF938091FA199091FB1901969093FB19E8
:101F40008093FA198091FA199091FB19883E934079
:101F500040F18091F8199091F91901969093F9192F
:101F60008093F8191092FB191092FA198091FE19BA
:101F70008823B9F08091FC199091FD199C012F5F85
:101F80003F4F3093FD192093FC19029754F00E94A3
:101F9000840F0E94720D1092FE191092FD1910927A
:101FA000FC1982E88093B200B898FF91EF91BF913D
:101FB000AF919F918F917F916F915F914F913F91E1
:101FC0002F910F900BBE0F900FBE0F901F90189582
:101FD00080916A02089580910B1A90910C1A0895CD
:101FE00090930C1A80930B1A08959C01261B370BB3
:101FF000E4E6E29FC001E39F900D11249A01261BA5
:10200000370BB9010E94351577FD05C0653671059E
:1020100024F4862F089580E0089584E60895CF93F0
:1020200083E00E94B70680931D1A82E00E94B706E3
:1020300080931C1A81E00E94B706C82F80931B1A58
:102040004091131A5091141A60917702709178029E
:1020500080911D1A90E00E94F50F80931A1A40910A
:10206000111A5091121A60917502709176028C2F9C
:1020700090E00E94F50F8093181A40910F1A50912A
:10208000101A609173027091740280911C1A90E092
:102090000E94F50F8093191ACF9108950E940F1096
:1020A00080911D1A90E02091131A3091141A28176C
:1020B000390724F49093141A8093131A209177020D
:1020C000309178028217930724F4909378028093DA
:1020D000770280911C1A90E020910F1A3091101A0B
:1020E0002817390724F49093101A80930F1A20911F
:1020F0007302309174028217930724F49093740250
:102100008093730280911B1A90E02091111A3091F4
:10211000121A2817390724F49093121A8093111A6F
:1021200020917502309176028217930724F49093E0
:10213000760280937502089581E00E94EE090E9464
:10214000CF096DE78DE70E940E0B80E00E94EE093B
:102150008A3591051CF40E944E10F7CF81E00E9451
:10216000EE090E94C80980E00E94EE09843B9105B7
:102170001CF40E944E10F7CF81E00E94EE090E94ED
:10218000CF0980E00E94EE098A3591051CF40E9477
:102190004E10F7CF0C94EA098F929F92AF92BF92A4
:1021A000CF92DF92EF92FF920E940F10E090181AE8
:1021B000F12CC0901A1AD12CB7016C197D09072E89
:1021C000000C880B990B0E9468164B015C018091F2
:1021D000191AB601680F711D6E0D7F1D072E000CB8
:1021E000880B990B0E94681620E030E040E85FE31E
:1021F0000E9452159B01AC01C501B4010E94BE159D
:1022000020E030E04FE753E40E94F4164B015C01FC
:102210009B01AC0160911E1A70911F1A8091201AC7
:102220009091211A0E9451152FE632E143E05BE3C1
:102230000E94F4160E9430166B017C0120E030E011
:1022400040E05FE3C501B4010E94F4160E9430161D
:10225000C60ED71E80921E1A90921F1AA092201AA4
:10226000B092211A68EC70E06C197D09C6018853A0
:102270009F4F6F3F710509F02CF477FF05C060E0B8
:1022800070E002C06FEF70E08F3F910509F02CF411
:1022900097FF05C080E090E002C08FEF90E0FF90D4
:1022A000EF90DF90CF90BF90AF909F908F900C9465
:1022B0000E0BEF92FF920F931F93CF93DF9300E0EB
:1022C00010E0C0E0D0E0E82EF12C0E151F050CF058
:1022D000A7C080911C1A803108F49FC080911D1AFC
:1022E000803108F09AC080911B1A803108F095C0A7
:1022F0000E940F1091E080911D1A8B3008F090E041
:1023000090930A1A81E020911B1A2B3008F080E08C
:102310008093091A41E020911C1A2B3008F040E00C
:102320004093081A990F990F440F492BE42FE82B7B
:10233000E093071A4E2FEE0F550B660B770BFA0141
:102340003197E730F10530F48827EE58FF4F8F4F73
:102350000C9449150E94BA096FEA8DE70E940E0B92
:10236000B8CF0E94D6096DE780E012C00E94BA097A
:102370006AEA8AEA0E940E0B2FEF8FE392E0215067
:1023800080409040E1F746C00E94C8096FEA8DE79F
:102390000E940E0B2FEF8FE392E02150804090407F
:1023A000E1F700C00000C1E0D0E093CF0E94DB095C
:1023B00060E08DE712C00E94BA096FEA8FEA0E94BE
:1023C0000E0B2FEF8FE794E0215080409040E1F713
:1023D00021C00E94CF096DE78FEA0E940E0B2FEFFC
:1023E0008FE392E0215080409040E1F700C0000070
:1023F000C0E0D0E06ECF209719F40E94CF0902C050
:102400000E94C8096DE78DE70E940E0B8FEF97E4DD
:102410000197F1F700C000005CCF0F5F1F4F55CF51
:102420008FE590E00E94B60ADF91CF911F910F9146
:10243000FF90EF900C94EA090F931F93CF93DF93D3
:10244000082F0E94BA09C0E0D0E010E0C017D10701
:10245000D4F40E94CC1080911C1A8D31D0F380915D
:102460001D1A8D3120F480911B1A8D3190F30E943A
:10247000EA0968EC88EC0E940E0B8FE590E00E9460
:10248000B60A2196E3CFDF91CF911F910F91089566
:102490006FEA8FEA0E940E0B81E490E00E94CA0A64
:1024A0006FEA8FEA0E940E0B0E94C8090E940F106B
:1024B00080911C1A8031D0F30C94EA096FEA8FEAFC
:1024C0000E940E0B81E490E00E94D40A6FEA8FEA2A
:1024D0000E940E0B0E94CF090E940F1080911C1ABF
:1024E0008031D0F30C94EA09CF9390916A02891756
:1024F000A1F1803391F1C82F9E3449F01CF495343A
:1025000069F029C0933589F09735B1F024C083353F
:10251000C9F08735F1F08534F1F418C08335B1F096
:10252000873581F08E34B9F414C08E3459F0873574
:1025300069F0853481F40DC08E3441F0833549F063
:10254000853449F48AE590E00E94D40A0E945E1224
:1025500002C00E944812C0936A02CF910895CF939F
:1025600090916A028917C1F18033B1F1C82F9E346E
:1025700049F01CF4953469F02DC0933589F09735F6
:10258000B1F028C08335C9F0873501F1853411F5E4
:1025900018C08335B1F0873581F08E34D9F416C078
:1025A0008E3459F0873569F08534A1F40FC08E342C
:1025B00041F0833559F0853469F48AE590E00E9452
:1025C000D40A8AE590E00E94D40A04C08AE590E02B
:1025D0000E94CA0AC0936A02CF9108959C012150BB
:1025E00031092031310520F4FC01E356FD4F6083B1
:1025F00008959C01215031092031310528F4FC0156
:10260000E356FD4F8081089580E3089580919B02F9
:1026100090919C028131910544F4880F991FFC012F
:10262000E155FD4F8081918108958FEF9FEF0895CF
:1026300080919B0290919C02019690939C028093C2
:102640009B020895E091221AF091231AEF52FD4F58
:1026500080810895880F991FFC01EC5DF54E808103
:1026600091810895CF93DF93FC0120E030E08FEF5C
:102670009FE74FEF5FE7EB01A991BE01A11107C0F2
:10268000A081B1814A175B0714F0C901AD012F5F2A
:102690003F4F32962334310571F7DF91CF91089582
:1026A000CF93DF93EC01FC01EE0FFF1FEC5DF54EC5
:1026B000808191818F3F2FEF920771F00E9450131C
:1026C000DF93CF938EEA97E19F938F930E94ED184B
:1026D0000F900F900F900F90DF91CF9108956F9210
:1026E0007F928F929F92AF92BF92CF92DF92EF92A2
:1026F000FF920F931F93CF93DF93CDB7DEB7C354F1
:10270000D1090FB6F894DEBF0FBECDBFDE01119622
:10271000EAEAFAE12FEF3FE7219331931D924BE173
:10272000E033F407C9F72FEF3FEF3093251A2093DA
:10273000241AFC01EE0FFF1FE655F54E11821082A0
:1027400002E410E08824839463E4962EBE016F5F58
:102750007F4F8AEA9AE10E943213E1E0F0E0EC0F49
:10276000FD1FE80FF91F808224E2622E2AE1722EFB
:10277000989E5001999EB00C1124EAEAFAE1DE011C
:1027800011967D0120E030E0BC01660F771F665591
:10279000754ED7014D917D01411118C0A9014A0D17
:1027A0005B1D4B595C4FDA01DC90DD2079F0DB01D9
:1027B0004D915C914D0D511DC080D1804C155D0532
:1027C0002CF4D3018D939C93518340832F5F3F4F13
:1027D000B2E06B0E711C329623343105D1F60150F4
:1027E000110909F0B3CFCD5BDF4F0FB6F894DEBF10
:1027F0000FBECDBFDF91CF911F910F91FF90EF9052
:10280000DF90CF90BF90AF909F908F907F906F9010
:102810000895CF93DF93EC01CB010E946F13FE016B
:1028200083E0EE0FFF1F8A95E1F7EB52FD4FD08159
:10283000C1815091221A4091231A20E030E068EBC8
:102840007BE081919191DC01AA0FBB1FA655B54E8B
:102850000D90BC91A02DA617B7071CF08D2F9C2FB3
:1028600003C0522F432FBD012F5F3F4F243031054E
:1028700019F0D82FC92FE5CF5093221A4093231A6D
:10288000DF91CF9108959C0162337105C0F58233C9
:102890009105A8F5A3E4A89FF001A99FF00D1124CC
:1028A000EB59FC4FE60FF71F1082A69FC001A79FB0
:1028B000900D1124AC014B595C4FFA01E20FF31F4C
:1028C0001082FB01EE0FFF1FEC5DF54E80819181C0
:1028D0008F3F2FEF920779F0A89F9001A99F300DAD
:1028E00011242B593C4FF901E60FF71F1082FA0112
:1028F000E80FF91F108282E490E00C946F130895A2
:102900000F931F93CF93DF939C01FB01009749F036
:102910008234910501F1309741F06234710569F418
:1029200080C06D33710549F478C0859731F02D333F
:10293000310519F4309709F46EC0C9016EE070E0FA
:102940000E943515EC018A3091055CF4219780F4E2
:10295000C8E0D0E00DC06532710509F467C08AE0B7
:1029600090E065E070E00E943515EC01CC0FDD1FB2
:10297000C90101972EE030E0B9010E9435158B01A5
:10298000000F111F69E070E00E943515060F171F38
:10299000CF01B9010E9435158A3091053CF49C01A4
:1029A0002150310950F428E030E007C065E070E0C4
:1029B0000E9435159C01220F331FCF0101976EE055
:1029C00070E00E943515FB01EE0FFF1F69E070E01B
:1029D0000E9435156E0F7F1F601B710B2C1B3D0B6A
:1029E0006130710521F06F3F8FEF780769F4213076
:1029F0003105A9F02F3F8FEF380789F0613071055D
:102A000051F06F3F7F4F49F02130310569F02F3F82
:102A10003F4F29F40BC083E50AC08EE408C080E371
:102A200006C0859709F083CF85E401C087E5DF9173
:102A3000CF911F910F9108950E94FD0380E090E0D7
:102A40000895AA1BBB1B51E107C0AA1FBB1FA617F5
:102A5000B70710F0A61BB70B881F991F5A95A9F747
:102A600080959095BC01CD01089597FB072E16F433
:102A7000009407D077FD09D00E94211507FC05D0EE
:102A80003EF4909581959F4F0895709561957F4F85
:102A90000895EE0FFF1F881F8BBF0790F691E02D62
:102AA00019945058BB27AA270E9469150C94BA168E
:102AB0000E94AC1638F00E94B31620F039F49F3F04
:102AC00019F426F40C94A9160EF4E095E7FB0C9487
:102AD000A316E92F0E94CB1658F3BA1762077307A3
:102AE0008407950720F079F4A6F50C94ED160EF402
:102AF000E0950B2EBA2FA02D0B01B90190010C010E
:102B0000CA01A0011124FF27591B99F0593F50F425
:102B1000503E68F11A16F040A22F232F342F44277D
:102B2000585FF3CF469537952795A795F040539575
:102B3000C9F77EF41F16BA0B620B730B840BBAF045
:102B40009150A1F0FF0FBB1F661F771F881FC2F7B0
:102B50000EC0BA0F621F731F841F48F487957795C4
:102B60006795B795F7959E3F08F0B0CF9395880F7E
:102B700008F09927EE0F9795879508950E94D21532
:102B80000C94BA160E94B31658F00E94AC1640F08E
:102B900029F45F3F29F00C94A31651110C94EE1602
:102BA0000C94A9160E94CB1668F39923B1F3552310
:102BB00091F3951B550BBB27AA2762177307840750
:102BC00038F09F5F5F4F220F331F441FAA1FA9F3E6
:102BD00035D00E2E3AF0E0E832D091505040E695D4
:102BE000001CCAF72BD0FE2F29D0660F771F881F35
:102BF000BB1F261737074807AB07B0E809F0BB0B28
:102C0000802DBF01FF2793585F4F3AF09E3F51053B
:102C100078F00C94A3160C94EE165F3FE4F3983E04
:102C2000D4F3869577956795B795F7959F5FC9F724
:102C3000880F911D9695879597F90895E1E0660FA5
:102C4000771F881FBB1F621773078407BA0720F01E
:102C5000621B730B840BBA0BEE1F88F7E095089587
:102C60000E9437166894B1110C94EE1608950E94D4
:102C7000D31688F09F5798F0B92F9927B751B0F025
:102C8000E1F0660F771F881F991F1AF0BA95C9F7F0
:102C900014C0B13091F00E94ED16B1E008950C948B
:102CA000ED16672F782F8827B85F39F0B93FCCF33E
:102CB000869577956795B395D9F73EF4909580956D
:102CC000709561957F4F8F4F9F4F0895E89409C08D
:102CD00097FB3EF490958095709561957F4F8F4F4F
:102CE0009F4F9923A9F0F92F96E9BB279395F69565
:102CF000879577956795B795F111F8CFFAF4BB0FE3
:102D000011F460FF1BC06F5F7F4F8F4F9F4F16C046
:102D1000882311F096E911C0772321F09EE8872FD0
:102D2000762F05C0662371F096E8862F70E060E08C
:102D30002AF09A95660F771F881FDAF7880F969505
:102D4000879597F9089597F99F6780E870E060E0AC
:102D500008959FEF80EC089500240A941616170634
:102D600018060906089500240A941216130614067C
:102D700005060895092E0394000C11F4882352F0DF
:102D8000BB0F40F4BF2B11F460FF04C06F5F7F4F97
:102D90008F4F9F4F089557FD9058440F551F59F07E
:102DA0005F3F71F04795880F97FB991F61F09F3F38
:102DB00079F087950895121613061406551FF2CF61
:102DC0004695F1DF08C0161617061806991FF1CFB1
:102DD00086957105610508940895E894BB276627D8
:102DE0007727CB0197F908950E9407170C94BA161C
:102DF0000E94AC1638F00E94B31620F0952311F013
:102E00000C94A3160C94A91611240C94EE160E948F
:102E1000CB1670F3959FC1F3950F50E0551F629F3D
:102E2000F001729FBB27F00DB11D639FAA27F00D23
:102E3000B11DAA1F649F6627B00DA11D661F829F4A
:102E40002227B00DA11D621F739FB00DA11D621F2F
:102E5000839FA00D611D221F749F3327A00D611D4C
:102E6000231F849F600D211D822F762F6A2F11242E
:102E70009F5750409AF0F1F088234AF0EE0FFF1F61
:102E8000BB1F661F771F881F91505040A9F79E3FB8
:102E9000510580F00C94A3160C94EE165F3FE4F3FA
:102EA000983ED4F3869577956795B795F795E7950E
:102EB0009F5FC1F7FE2B880F911D9695879597F917
:102EC0000895FA01EE0FFF1F309621053105A1F19B
:102ED0006115710561F48038BFE39B0749F168947F
:102EE0009038810561F08038BFEF9B0741F099234E
:102EF0004AF5FF3FE1053105210519F1E8940894F1
:102F0000E795D901AA2329F4AB2FBE2FF85FD0F3A0
:102F100010C0FF5F70F4A695E0F7F73950F019F094
:102F2000FF3A38F49F779F930DD00F9007FC90588D
:102F3000089546F00C94A91660E070E080E89FE3E5
:102F400008954FE79F775F934F933F932F930E948E
:102F50005C182F913F914F915F910E94F4160C9451
:102F6000B91729F416F00C94A3160C94ED160C94D2
:102F7000A9160E94D316A8F39638A0F707F80F9267
:102F8000E8942BE33AEA48EB5FE70E940A170F92B6
:102F90000F920F924DB75EB70F920E94A418E2EF06
:102FA000F0E00E94EB174F915F91EF91FF91E59553
:102FB000EE1FFF1F49F0FE57E0684427EE0F441F45
:102FC000FA95E1F74195550B0E941E180F9007FEE8
:102FD0000C9412180895DF93CF931F930F93FF92D1
:102FE000EF92DF927B018C01689406C0DA2EEF012C
:102FF0000E940717FE01E894A5912591359145910E
:103000005591A6F3EF010E946915FE019701A801F1
:10301000DA9469F7DF90EF90FF900F911F91CF91B5
:10302000DF9108959B01AC0160E070E080E89FE3D0
:103030000C94BE150C94A3160C94D8180E94D316A9
:10304000D8F39923C9F3940F511DA3F39150504025
:1030500094F059F0882332F0660F771F881F915043
:103060005040C1F79E3F51052CF7880F911D969552
:10307000879597F908955F3FACF0983E9CF0BB2789
:10308000869577956795B79508F4B1609395C1F7E4
:10309000BB0F58F711F460FFE8CF6F5F7F4F8F4F82
:1030A0009F4FE3CF0C94EE1616F00C94D8180C94A6
:1030B000A91668940C94A3160E94D316A8F399231A
:1030C000C1F3AEF3DF93CF931F930F93FF92C92FFA
:1030D000DD2788232AF02197660F771F881FDAF7EC
:1030E00020E030E040E85FEB9FE3883920F0803E4D
:1030F00038F021968F770E945215EAE1F1E004C082
:103100000E945215E7E4F1E00E94EB178B01BE012B
:10311000EC01FB2E6F5771097595771F880B990B82
:103120000E94681628E132E741E35FE30E94071737
:10313000AF2D9801AE01FF900F911F91CF91DF91BC
:103140000E9469150C94BA16FA01DC01AA0FBB1F84
:103150009B01AC01BF5728F422273327442750781E
:1031600020C0B75190F4AB2F002446953795279592
:10317000011CA395D2F3002071F0220F331F441FCE
:10318000B395DAF30ED00C94511561307105A0E8B7
:103190008A07B94630F49B01AC0166277727882758
:1031A0009078309621F020833183428353830895B1
:1031B0009F3F31F0915020F4879577956795B795AB
:1031C000880F911D9695879597F90895FB01DC016D
:1031D00001900D920020E1F70895CF93DF93CDB7D2
:1031E000DEB7AE014A5F5F4FFA0161917191AF01A5
:1031F0008091321B9091331B0E943019DF91CF9147
:1032000008950F931F93CF93DF93CDB7DEB72E971B
:103210000FB6F894DEBF0FBECDBF0E891F8986E0C2
:103220008C831A8309838FEF9FE79E838D83AE0182
:10323000465E5F4F688D798DCE0101960E943019F0
:10324000EF81F885E00FF11F10822E960FB6F894EB
:10325000DEBF0FBECDBFDF91CF911F910F910895BB
:103260002F923F924F925F926F927F928F929F9296
:10327000AF92BF92CF92DF92EF92FF920F931F9384
:10328000CF93DF93CDB7DEB72B970FB6F894DEBFA1
:103290000FBECDBF6C017B018A01FC011782168233
:1032A000838181FFCCC1CE0101963C01F60193815F
:1032B000F70193FD859193FF81917F01882309F4A4
:1032C000BAC1853239F493FD859193FF81917F01D5
:1032D000853229F4B60190E00E94501BE7CF912C73
:1032E000212C312CFFE1F315D8F08B3279F038F432
:1032F000803279F08332A1F4232D20611DC08D32FC
:1033000061F0803369F4232D216016C0832D826023
:10331000382EE32DE4603E2E2AC0F32DF8601DC048
:1033200037FC2DC020ED280F2A3040F08E32B9F442
:1033300036FC81C1232D2064322E19C036FE06C012
:103340008AE0989E200D1124922E11C0EAE02E9E54
:10335000200D1124222EF32DF0623F2E08C08C3652
:1033600021F4832D8068382E02C0883641F4F7019D
:1033700093FD859193FF81917F018111B3CF982FA8
:103380009F7D9554933028F40C5F1F4F9FE39983E2
:103390000DC0833631F0833771F0833509F059C0A1
:1033A00021C0F801808189830E5F1F4F8824839498
:1033B000912C530113C02801F2E04F0E511CF8016B
:1033C000A080B18036FE03C0692D70E002C06FEFAF
:1033D0007FEFC5010E94451B4C018201F32DFF7751
:1033E0003F2E16C0280122E0420E511CF801A08099
:1033F000B18036FE03C0692D70E002C06FEF7FEF31
:10340000C5010E943A1B4C01F32DF0683F2E82014A
:1034100033FC1BC0822D90E088169906B0F4B601EB
:1034200080E290E00E94501B2A94F4CFF50137FC13
:10343000859137FE81915F01B60190E00E94501B9B
:1034400021102A9421E0821A91088114910471F7C5
:10345000E8C0843611F0893641F5F80137FE07C01F
:1034600060817181828193810C5F1F4F08C06081F0
:103470007181072E000C880B990B0E5F1F4FF32DE7
:10348000FF763F2E97FF09C09095809570956195C6
:103490007F4F8F4F9F4FF0683F2E2AE030E0A3010F
:1034A0000E948C1B882E861845C0853731F4232D49
:1034B0002F7EB22E2AE030E025C0932D997FB92EC1
:1034C0008F36C1F018F4883579F0B5C0803719F01F
:1034D000883721F0B0C0E92FE061BE2EB4FE0DC0E8
:1034E000FB2DF460BF2E09C034FE0AC0292F2660D0
:1034F000B22E06C028E030E005C020E130E002C076
:1035000020E132E0F801B7FE07C06081718182815D
:1035100093810C5F1F4F06C06081718180E090E055
:103520000E5F1F4FA3010E948C1B882E8618FB2D57
:10353000FF773F2E36FE0DC0232D2E7FA22E89143D
:1035400058F434FE0BC032FC09C0832D8E7EA82EA9
:1035500005C0B82CA32C03C0B82C01C0B92CA4FE04
:103560000FC0FE01E80DF11D8081803321F49A2DFA
:10357000997EA92E09C0A2FE06C0B394B39404C0DC
:103580008A2D867809F0B394A3FC11C0A0FE06C072
:10359000B21488F4280C922C9B180EC0B21460F45C
:1035A000B60180E290E00E94501BB394F7CFB214B2
:1035B00018F42B1802C0982C212CA4FE10C0B601C0
:1035C00080E390E00E94501BA2FE17C0A1FC03C044
:1035D00088E790E002C088E590E0B6010CC08A2D33
:1035E000867859F0A1FE02C08BE201C080E2A7FC00
:1035F0008DE2B60190E00E94501B891438F4B601A8
:1036000080E390E00E94501B9A94F7CF8A94F301D4
:10361000E80DF11D8081B60190E00E94501B8110E1
:10362000F5CF222009F442CEB60180E290E00E945C
:10363000501B2A94F6CFF6018681978102C08FEF46
:103640009FEF2B960FB6F894DEBF0FBECDBFDF9174
:10365000CF911F910F91FF90EF90DF90CF90BF908F
:10366000AF909F908F907F906F905F904F903F9022
:103670002F900895FC010590615070400110D8F71B
:10368000809590958E0F9F1F0895FC0161507040AA
:1036900001900110D8F7809590958E0F9F1F089587
:1036A0000F931F93CF93DF93FB01238121FD03C071
:1036B0008FEF9FEF2CC022FF16C0468157812481D7
:1036C00035814217530744F4A081B1819D012F5FDA
:1036D0003F4F318320838C93268137812F5F3F4F6B
:1036E0003783268314C08B01EC01FB010084F18534
:1036F000E02D1995892BE1F6D80116968D919C91B4
:103700001797019617969C938E931697CE01DF918B
:10371000CF911F910F910895FA01AA27283051F1F6
:10372000203181F1E8946F936E7F6E5F7F4F8F4FF2
:103730009F4FAF4FB1E03ED0B4E03CD0670F781F51
:10374000891F9A1FA11D680F791F8A1F911DA11D36
:103750006A0F711D811D911DA11D20D009F468946F
:103760003F912AE0269F11243019305D3193DEF617
:10377000CF010895462F4770405D4193B3E00FD0CD
:10378000C9F7F6CF462F4F70405D4A3318F0495DB8
:1037900031FD4052419302D0A9F7EACFB4E0A6959B
:1037A0009795879577956795BA95C9F700976105BD
:1037B000710508959B01AC010A2E06945795479513
:1037C00037952795BA95C9F7620F731F841F951F08
:0837D000A01D0895F894FFCF3D
:1037D800420048656C6C6F2C204920616D20612087
:1037E80046697265626972642D2D2D2D2D2D2D2D42
:1037F80020560A0048656C6C6F20576F726C642005
:103808004920616D20612046697265626972642091
:10381800560048656C6C6F2C204920616D20612032
:1038280046697265626972642D2D2D2D2D2D2D2D01
:1038380020560A000100010001004E0400050004A2
:10384800000000FF0FFF0FFF0F48656C6C6F2C2006
:103858004920616D20612046697265626972642D34
:103868002D2D2D2D2D2D2D20560A000C00303030F9
:103878003030303030303030303030303030300D63
:1038880000090005000100020006000A000E000FF2
:10389800000B0007000300040008000C00100011D2
:1038A800004553574E0A0002000B0010000A0002A0
:1038B800000B0010000B0004000C0012000C0006A6
:1038C800000D0014000D0008000E0016001800106E
:1038D8000019001E00190012001A0020001A001416
:1038E800001B0022001B0016001C00240026001EDE
:1038F8000027002C002700200028002E0028002286
:103908000029003000290024002A00320034002C4D
:103918000035003A0035002E0036003C00360030F5
:103928000037003E003700320038004000420042B5
:1039380000420042000000000000000000000000FB
:10394800000000000000000000000000000000006F
:10395800000000000000000000000000000000005F
:10396800000000000000000000000000000000004F
:10397800000001000000000000000100000000003D
:10398800000001000000000000000000000000002E
:10399800000000000000000000000000000000001F
:1039A800000000000000000000000000000000000F
:1039B80000000000000000000000000001000100FD
:1039C80000000000000000000000000000000000EF
:1039D80000000000000000000000000000000000DF
:1039E80000000000000000000000000000000000CF
:1039F80000000000000000000000000000000000BF
:103A080001000100000000000001000000000000AB
:103A1800000000000000000000000000000000009E
:103A2800000000000000000000000000000000008E
:103A3800000000000000000000000000000000007E
:103A4800000000000100010000000000000000006C
:103A5800000000000000000000000000000000005E
:103A6800000000000000000000000000000000004E
:103A7800000000000000000000000000000000003E
:103A8800000000000000000001000100000000002C
:103A9800010000000000000000000000000000001D
:103AA800000000000000000000000000000000000E
:103AB80000000000000000000000000000000000FE
:103AC80000000000000000000000000001000100EC
:103AD80000000000000000000000000000000000DE
:103AE80000000000000000000000000000000000CE
:103AF80000000000000000000000000000000000BE
:103B080000000000000000000000000000000000AD
:103B1800010001000000000100000000000000009A
:103B2800000000000000000000000000000000008D
:103B3800000000000000000000000000000000007D
:103B4800000000000000000000000000000000006D
:103B5800000000000100010000000000000000005B
:103B6800000000000000000000000000000000004D
:103B7800000000000000000000000000000000003D
:103B8800000000000000000000000000000000002D
:103B9800000000000000000001000000000001001B
:103BA800000000000000000000000000000000000D
:103BB80000000000000000000000000000000000FD
:103BC80000000000000000000000000000000000ED
:103BD80000000000010000000000000000000000DC
:103BE80000000100000000000000000000000000CC
:103BF80000000000000000000000000000000000BD
:103C080000000000000000000000000000000000AC
:103C1800000000000000000000010000000000009B
:103C2800000000000000000100000000000000008B
:103C3800000000000000000000000000000000007C
:103C4800000000000000000000000000000000006C
:103C5800000000000000000000000000000001005B
:103C6800000000000000000000000000010000004B
:103C7800000000000000000000000000000000003C
:103C8800000000000000000000000000000000002C
:103C9800000000000000000000000000000000001C
:103CA800000000010000000000000000000000000B
:103CB80000010000000000000000000000000000FB
:103CC80000000000000000000000000000000000EC
:103CD80000000000000000000000000000000000DC
:103CE80000000000000000000100000000000000CB
:103CF80000000000000001000000000000000000BB
:103D080000000000000000000000000000000000AB
:103D1800000000000000000000000000000000009B
:103D2800000000000000000000000000010000008A
:103D38000000010000000000000001000000000079
:103D4800000000000000000000000000000000006B
:103D5800000000000000000000000000000000005B
:103D6800000000000000000000000000000000004B
:103D78000000000001000100000000000000000039
:103D8800000000000000000000000000000000002B
:103D9800000000000000000000000000000000001B
:103DA800000000000000000000000000000000000B
:103DB80000000001000000000100010000000000F8
:103DC80000010000000000000000000000000000EA
:103DD80000000000000000000000000000000000DB
:103DE80000000000000000000000000000000000CB
:103DF80000000000000000000000000001000100B9
:103E080000000000000000000000000000000000AA
:103E1800000000000000000000000000000000009A
:103E2800000000000000000000000000000000008A
:103E38000000000000000000000001000000000079
:103E48000100010000000000010000000000000067
:103E5800000000000000000000000000000000005A
:103E6800000000000000000000000000000000004A
:103E7800000000000000000000000000000000003A
:103E88000000000001000100000000000000000028
:103E9800000000000000000000000000000000001A
:103EA800000000000000000000000000000000000A
:103EB80000000000000000000000000000000000FA
:103EC80000010000000000000100010000000001E6
:103ED80000000000000000000000000000000000DA
:103EE80000000000000000000000000000000000CA
:103EF80000000000000000000000000000000000BA
:103F080000000000000000000000000001000100A7
:103F18000000000000000000000000000000000099
:103F28000000000000000000000000000000000089
:103F38000000000000000000000000000000000079
:103F48000000000000000000010000000000000068
:103F58000100000000000100000000000000000057
:103F68000000000000000000000000000000000049
:103F78000000000000000000000000000000000039
:103F88000000000000000000000000000100000028
:103F98000000000000000000000001000000000018
:103FA8000000000000000000000000000000000009
:103FB80000000000000000000000000000000000F9
:103FC80000000000000000000000000000000000E9
:103FD80000010000000000000000000000000001D7
:103FE80000000000000000000000000000000000C9
:103FF80000000000000000000000000000000000B9
:1040080000000000000000000000000000000000A8
:104018000000000000000100000000000000000097
:104028000000000001000000000000000000000087
:104038000000000000000000000000000000000078
:104048000000000000000000000000000000000068
:104058000000000000000000000000010000000057
:104068000000000000000000000100000000000047
:104078000000000000000000000000000000000038
:104088000000000000000000000000000000000028
:104098000000000000000000000000000000000018
:1040A8000100000000000000000000000000010006
:1040B80000000000000000000000000000000000F8
:1040C80000000000000000000000000000000000E8
:1040D80000000000000000000000000000000000D8
:1040E80000000000010000000000010000000000C6
:1040F80000000100000000000000000000000000B7
:1041080000000000000000000000000000000000A7
:104118000000000000000000000000000000000097
:104128000000000000000000000000000100010085
:104138000000000000000000000000000000000077
:104148000000000000000000000000000000000067
:104158000000000000000000000000000000000057
:104168000000000000000000000000010000000046
:104178000100010000000000000100000000000034
:104188000000000000000000000000000000000027
:104198000000000000000000000000000000000017
:1041A8000000000000000000000000000000000007
:1041B80000000000010001000000000000000000F5
:1041C80000000000000000000000000000000000E7
:1041D80000000000000000000000000000000000D7
:1041E80000000000000000000000000000000000C7
:1041F80000000100000000000100010000000000B4
:1042080001000000000000000000000000000000A5
:104218000000000000000000000000000000000096
:104228000000000000000000000000000000000086
:104238000000000000000000000000000100010074
:104248000000000000000000000000000000000066
:104258000000000000000000000000000000000056
:104268000000000000000000000000000000000046
:104278000000000000000000000100000000000035
:104288000100010000000001000000000000000023
:104298000000000000000000000000000000000016
:1042A8000000000000000000000000000000000006
:1042B80000000000000000000000000000000000F6
:1042C80000000000010001000000000000000000E4
:1042D80000000000000000000000000000000000D6
:1042E80000000000000000000000000000000000C6
:1042F80000000000000000000000000000000000B6
:1043080001000000000000000100000000000100A2
:104318000000000000000000000000000000000095
:104328000000000000000100000000000000000084
:104338000000000000000000000000000000000075
:104348000000000001000000000000000000000064
:104358000000010000000000000000000000000054
:104368000000000000000000000000000000000045
:104378000000000000000000000000000000000035
:104388000000000000000000000100000000000024
:104398000000000000000001000000000000000014
:1043A8000000000000000000000000000000000005
:1043B80000000000000000000000000000000000F5
:1043C80000000000000000000000000000000100E4
:1043D80000000000000000000000000001000000D4
:1043E80000000000000000000000000000000000C5
:1043F80000000000000000000000000000000000B5
:1044080000000000000000000000000000000000A4
:104418000000000100000000000000000000000093
:104428000001000000000000000000000000000083
:104438000000000000000000000000000000000074
:104448000000000000000000000000000000000064
:104458000000000000000000010000000000000053
:104468000000000000000100000000000000000043
:104478000000000000000000000000000000000034
:104488000000000000000000000000000000000024
:104498000000000000000000000000000100000013
:1044A8000000010000000000000001000000000002
:1044B80000000000000000000000000000000000F4
:1044C80000000000000000000000000000000000E4
:1044D80000000000000000000000000000000000D4
:1044E80000000000010001000000000000000000C2
:1044F80000000000000000000000000000000000B4
:1045080000000000000000000000000000000000A3
:104518000000000000000000000000000000000093
:104528000000000100000000010001000000000080
:104538000001000000000000000000000000000072
:104548000000000000000000000000000000000063
:104558000000000000000000000000000000000053
:104568000000000000000000000000000100010041
:104578000000000000000000000000000000000033
:104588000000000000000000000000000000000023
:104598000000000000000000000000000000000013
:1045A8000000000000000000000001000000000002
:1045B80001000100000000000100000000000000F0
:1045C80000000000000000000000000000000000E3
:1045D80000000000000000000000000000000000D3
:1045E80000000000000000000000000000000000C3
:1045F80000000000010001000000000000000000B1
:1046080000000000000000000000000000000000A2
:104618000000000000000000000000000000000092
:104628000000000000000000000000000000000082
:10463800000100000000000001000100000000016E
:104648000000000000000000000000000000000062
:104658000000000000000000000000000000000052
:104668000000000000000000000000000000000042
:104678000000000000000000000000000100010030
:104688000000000000000000000000000000000022
:104698000000000000000000000000000000000012
:1046A8000000000000000000000000000000000002
:1046B80000000000000000000100000000000000F1
:1046C80001000000000001000000000000000000E0
:1046D80000000000000000000000000000000000D2
:1046E80000000000000000000000000000000000C2
:1046F80000000000000000000000000001000000B1
:1047080000000000000000000000010000000000A0
:104718000000000000000000000000000000000091
:104728000000000000000000000000000000000081
:104738000000000000000000000000000000000071
:10474800000100000000000000000000000000015F
:104758000000000000000000000000000000000051
:104768000000000000000000000000000000000041
:104778000000000000000000000000000000000031
:104788000000000000000100000000000000000020
:104798000000000001000000000000000000000010
:1047A8000000000000000000000000000000000001
:1047B80000000000000000000000000000000000F1
:1047C80000000000000000000000000100000000E0
:1047D80000000000000000000001000000000000D0
:1047E80000000000000000000000000000000000C1
:1047F80000000000000000000000000000000000B1
:1048080000000000000000000000000000000000A0
:10481800010000000000000000000000000001008E
:104828000000000000000000000000000000000080
:104838000000000000000000000000000000000070
:104848000000000000000000000000000000000060
:10485800000000000100000000000100000000004E
:104868000000000000000000000000000000000040
:104878000000000000000000000000000000000030
:104888000000000000000000000000000000000020
:10489800000000000000000000000000010001000E
:1048A8000000000000000000000000000000000000
:1048B80000000000000000000000000000000000F0
:1048C80000000000000000000000000000000000E0
:1048D80000000000000000000000000100000000CF
:1048E80001000100000000000000000000000000BE
:1048F80000000000000000000000000000000000B0
:10490800000000000000000000000000000000009F
:10491800000000000000000000000000000000008F
:10492800000000000100010000000000010000007C
:10493800000000000000000000000000000000006F
:10494800000000000000000000000000000000005F
:10495800000000000000000000000000000000004F
:10496800000001000000000001000100000000003C
:10497800000000000000000000000000000000002F
:10498800000000000000000000000000000000001F
:10499800000000000000000000000000000000000F
:1049A80000000000000000000000000001000100FD
:1049B80000000000000000000000000000000000EF
:1049C80000000000000000000000000000000000DF
:1049D80000000000000000000000000000000000CF
:1049E80000000000000000000001000000000000BE
:1049F80001000100000000000000000000000000AD
:104A0800000000000000000000000000000000009E
:104A1800000000000000000000000000000000008E
:104A2800000000000000000000000000000000007E
:104A3800000000000100010000000000000000006C
:104A4800000000000000000000000000000000005E
:104A5800000000000000000000000000000000004E
:104A6800000000000000000000000000000000003E
:104A7800010000000000000001000000000000002C
:104A8800000000000000000000000000000000001E
:104A9800000000000000000000000000000000000E
:104AA80001000000000000000000000000000000FD
:104AB800000000000000000000000000000031734A
:104AC80074204E6F64650A5E004D6964204E6F6401
:104AD800650A5E00393020446567726565204C655B
:104AE8006674207475726E0A5E0043656E74657232
:104AF800206F6620626C6F636B2072656163686506
:104B0800640A5E004261636B206F6E206C696E659B
:104B18000A5E004C656674205475726E0A5E005316
:104B280074617274204C6F636174696F6E0A5E0001
:104B380046696E69736865640A5E00436F6D6D61EE
:104B48006E642052656365697665645E00526571BE
:104B580020746F207363616E20506C6F74204E75E3
:104B68003A25640A5E005363616E2064696B73744E
:104B780072612C2044657374206E6F64653A2564F5
:104B88000A5E004D6F76696E6720746F206E6F64E1
:104B9800653A25640A5E0052656163686564206E43
:104BA8006F64653A25640A5E00506C6F74206E75F8
:104BB80020256420726561636865640A5E00526F2F
:104BC800746174696F6E2066696E69736865640ADA
:104BD8005E00506C6F74206E6F3A202564207769F0
:104BE8007468204D616A6F7220496E6A7572790A1D
:104BF8005E00506C6F74206E6F3A202564207769D0
:104C08007468204D696E6F7220496E6A7572790AF0
:104C18005E00506C6F74206E6F3A202564207769AF
:104C28007468204E6F20496E6A7572790A5E00506A
:104C38006C6F74207363616E20636F6D706C5E00BF
:104C48004265666F72652064696B737472612C20AB
:104C580044657374206E6F64653A25640A5E004487
:104C6800657320506C6F74204E753A25640A5E0097
:104C7800506C6F74205363616E20436F6D706C6568
:104C880074650A5E0046696E616C20476F616C202E
:104C9800363620726561636865645E0043616C2026
:104CA800446F6E650A5E00436F6D6D616E642055DA
:104CB80070646174650A5E005461736B32422063EC
:104CC8006F6D706C6574650A5E005265642050757E
:104CD8006C73657300477265656E2050756C7365FB
:104CE8007300426C75652050756C736573005300D2
:104CF8002D25640A0046004D2D006D2D00436D647E
:104D08002052780A0049735F436D643A747275657E
:104D18000A0061636365707465640069676E6F7229
:104D280065004572726F7220696E207461736B2022
:104D3800636F6D706C6574696F6E006D696E6F720C
:104D48002D2564006D616A6F722D2564006E6F2DCC
:104D58002564005363616E2D4572726F720045724F
:104D6800726F72206465636F64696E672074617323
:104D78006B0066657463682D25642D2564002564C1
:024D8800200009
:00000001FF
