:100000000C94B3000C9496040C94D4000C94D4007B
:100010000C94D4000C94FE060C94D9060C94D400D5
:100020000C94D4000C94D4000C94D4000C94D40000
:100030000C94D4000C94D4000C94D4000C94D80CE0
:100040000C94D4000C94D4000C94D4000C94D400E0
:100050000C94D4000C94D4000C94D4000C94D400D0
:100060000C94D4000C94A5080C94DE080C94D400D5
:100070000C94D4000C94D4000C94D4000C94D400B0
:100080000C94D4000C94D4000C94D4000C94D400A0
:100090000C94D4000C94D4000C94D4000C94D40090
:1000A0000C94D4000C94D4000C94D4000C94D40080
:1000B0000C94D4000C94D4000C94D4000C94D40070
:1000C0000C94D4000C94D4000C94D4000C94D40060
:1000D0000C94D4000C94D4000C94AF090C94E8094F
:1000E0000C94D40007634236B79BD8A71A396856D8
:1000F00018AEBAAB558C1D3CB7CC5763BD6DEDFD4A
:10010000753EF6177231BF000000803F0800000006
:10011000BE922449123EABAAAA2ABECDCCCC4C3EFC
:1001200000000080BEABAAAAAA3E00000000BF00EB
:100130000000803F0000000000084178D3BB4387E7
:10014000D1133D190E3CC3BD4282AD2B3E68EC82FB
:1001500076BED98FE1A93E4C80EFFFBE01C4FF7F80
:100160003F000000000011241FBECFEFD1E2DEBF30
:10017000CDBF00E00CBF15E0A0E0B2E0ECE7F8E690
:1001800000E00BBF02C007900D92A038B107D9F76D
:100190002BE0A0E8B5E001C01D92AE31B207E1F757
:1001A0000E94F32B0C943C340C9400000E94FD033D
:1001B0000E9404040E949B010E9410020E94BE043F
:1001C0000E94CF040E9486060E948D060E94980617
:1001D0000E949F060E94AD060E944A0C0C949D0846
:1001E000CF9381E00E949E0E6AE174E084E092E089
:1001F0000E944C3184E092E00E94A30881E00E94BA
:100200009E0E65E274E084E092E00E944C3184E04E
:1002100092E00E94A30861EE81EE0E9477088AE5D1
:1002200090E00E94330860E374E084E092E00E9472
:100230004C3184E092E00E94A30861EE81EE0E94BE
:10024000770884EB90E00E941F0866E474E084E085
:1002500092E00E944C3184E092E00E94A3080E9448
:100260003706C82F0E949B080E943F028C2F0E94D5
:100270006C02C23519F40E948F0B07C0C73419F401
:100280000E94970B02C00E949F0B84EB90E00E949B
:10029000290860E674E084E092E00E944C3184E03A
:1002A00092E00E94A3080E94CA0E6FE674E084E008
:1002B00092E00E944C3184E092E00E94A30881E029
:1002C0000E949E0E6AE174E084E092E00E944C314C
:1002D00084E092E00E94A30881E00E949E0E6BE7FA
:1002E00074E084E092E00E944C3184E092E00E944D
:1002F000A3086CE874E084E092E00E944C3184E052
:1003000092E0CF910C94A8020C946A160E94D60039
:100310000E94E10D0E94E10A0E946A160E94E10A11
:100320000E945B0B8823D1F30E94740B0E94F000A3
:100330000E94500CF3CF87B1876087B987B1806F77
:1003400087B988B1887F88B988B18F7088B90895D6
:1003500086E69EE00197F1F700004098419880E31F
:1003600088B9429AEFEFF7E43197F1F700C0000047
:100370004298E6E6FEE03197F1F700004098419898
:1003800088B9429AEFEFF7E43197F1F700C0000027
:100390004298E6E6FEE03197F1F700004098419878
:1003A00088B9429A8FEF97E40197F1F700C00000F7
:1003B0004298E6E6FEE03197F1F700004098419858
:1003C00080E288B9429A8FEF97E40197F1F700C075
:1003D00000004298089598B19F7098B998B1282F5D
:1003E000207F922B98B940984198429AEFEFF7E41A
:1003F0003197F1F700C00000429898B19F7098B90A
:1004000098B18295807F892B88B940984198429A0B
:100410008FEF97E40197F1F700C00000429808952C
:100420000E94A80186E69EE00197F1F7000088E2AD
:100430000E94EB0181E00E94EB0186E00E94EB014B
:100440008EE00E94EB0180E80C94EB0180E80C94B4
:10045000EB01982F862F923059F01CF4913031F037
:100460000895933039F0943039F00895815805C0DB
:10047000815403C08D5601C08D520C94EB0181E074
:100480000C94EB01CF93C42F0E94290288B18F7086
:1004900088B988B19C2F907F892B88B9409A419860
:1004A000429A8FEF97E40197F1F700C0000042985D
:1004B000C295C07F88B18F7088B988B1C82BC8B980
:1004C000409A4198429A8FEF97E40197F1F700C064
:1004D00000004298CF91089598B19F7098B998B153
:1004E000282F207F922B98B9409A4198429AEFEF9B
:1004F000F7E43197F1F700C0000042988295807FC1
:1005000098B19F7098B998B1892B88B9409A419851
:10051000429A8FEF97E40197F1F700C000004298EC
:1005200008950F931F93CF93DF93D82FC62F8A017F
:10053000F80141918F01442331F06C2F8D2F0E94DF
:100540004202CF5FF5CFDF91CF911F910F910895B8
:10055000CF93DF93EC018991882319F00E946C02FC
:10056000FACFDF91CF910895EF92FF920F931F93EF
:10057000CF93DF93D82FC62F8A0179010E942902D9
:1005800017FF09C01195019511094DE26C2F8D2FB0
:100590000E944202CF5FDD2311F0C11103C00E940F
:1005A000260204C06C2F8D2F0E94290285E0E816D8
:1005B000F10409F07FC0C80160E177E20E940C2CD1
:1005C000AB01405D5F4F50938105409380056C2FD8
:1005D0008D2F0E944202CF5FC80168EE73E00E9437
:1005E0000C2CCB0170938B0560938A056AE070E058
:1005F0000E94F82BAC01405D5F4F50938305409300
:1006000082056C2F8D2F0E944202CF5FC80164E6E5
:1006100070E00E940C2CCB0170938B0560938A05CF
:100620006AE070E00E94F82BAC01405D5F4F509390
:100630008505409384056C2F8D2F0E944202CF5F69
:100640002AE030E0C801B9010E940C2CCB01709364
:100650008B0560938A05B9010E94F82BAC01405DBF
:100660005F4F50938705409386056C2F8D2F0E9416
:100670004202CF5FC8016AE070E00E940C2CAC011E
:10068000405D5F4F50938905409388056C2F8D2FF7
:100690000E944202CF5F86E0E816F104FCF045E4D8
:1006A0006C2F8D2FDF91CF911F910F91FF90EF90C5
:1006B0000C94420284E0E816F10409F48DCF83E043
:1006C000E816F10409F4A2CF82E0E816F10409F477
:1006D000B7CF81E0E816F104F1F6CCCFDF91CF91EE
:1006E0001F910F91FF90EF9008950F931F93CF9359
:1006F000DF938A01E901882311F0611103C00E9490
:10070000260202C00E942902C530D10509F061C04D
:10071000C80160E177E20E94F82BCB01C09690936C
:100720008105809380050E946C02C80168EE73E029
:100730000E94F82BCB0170938B0560938A056AE0C9
:1007400070E00E94F82BC0969093830580938205F9
:100750000E946C02C80164E670E00E94F82BCB0195
:1007600070938B0560938A056AE070E00E94F82B15
:10077000C09690938505809384050E946C022AE0C0
:1007800030E0C801B9010E94F82BCB0170938B05B2
:1007900060938A05B9010E94F82BC0969093870553
:1007A000809386050E946C02C8016AE070E00E9496
:1007B000F82BC09690938905809388050E946C025F
:1007C0002697B4F085E4DF91CF911F910F910C949F
:1007D0006C02C430D10509F4A8CFC330D10509F4A7
:1007E000B9CFC230D10559F2C130D10549F7DCCFBC
:1007F000DF91CF911F910F91089510BA11BA109205
:100800000701109208010895EAE7F0E08081866808
:100810008083808186788083EBE7F0E08081807B35
:100820008083ECE7F0E08081807680838081806443
:10083000808380818062808380B7806880BF0895D4
:10084000883028F090917B00986090937B00909185
:100850007C008770892B80937C0080917A00806473
:1008600080937A0080917A0084FFFCCF8091790098
:1008700090917A00906190937A0090917B00977F9D
:1008800090937B0090917C00907E90937C000895E3
:10089000682F70E080E090E00E943A2D2FEE39EC56
:1008A00043E95FE30E94592E9B01AC0160E070E0D8
:1008B00080E89FE30E94922C2AE939EF4EE255E44A
:1008C0000E94EC2D20E030E040E251E40E94EC2D4B
:1008D0000E94042DCB016132734010F080E293E05E
:1008E0000895CF93DF93C82FD62F842F0E94200422
:1008F00080939905482F50E023E030E06D2F8C2F36
:10090000DF91CF910C94B4028AB18E6F8AB9589A54
:1009100008950E949B010C948404F894E9E6F0E0A9
:10092000808182608083E89A789408951F920F9264
:100930000FB60F9211248F939F93AF93BF93809123
:10094000A6059091A705A091A805B091A9050196CB
:10095000A11DB11D8093A6059093A705A093A8059E
:10096000B093A905BF91AF919F918F910F900FBE4A
:100970000F901F9018955C9A5D9A0895F8940E94C4
:1009800084040E948D0478940C94BB045E985F9854
:1009900008955E9A5F9A08955E985F9A08955E9AA8
:1009A0005F9808950E94C6041092A6051092A705AC
:1009B0001092A8051092A9052FEF8FE794E021501F
:1009C00080409040E1F700C000008091A605909122
:1009D000A705A091A805B091A9058093A2059093C1
:1009E000A305A093A405B093A50561E081E00E9452
:1009F000290267E974E08BE492E00E944C318BE4B9
:100A000092E00E94A8024091A2055091A305609136
:100A1000A4057091A50525E030E061E082E00E9428
:100A200075032FEF8FEF9CE2215080409040E1F75B
:100A300000C0000081E00C94EB010E94C9041092F8
:100A4000A6051092A7051092A8051092A9052FEFF0
:100A50008FE794E0215080409040E1F700C0000013
:100A60008091A6059091A705A091A805B091A90530
:100A700080939A0590939B05A0939C05B0939D0548
:100A800061E081E00E94290262EA74E08BE492E076
:100A90000E944C318BE492E00E94A80240919A059A
:100AA00050919B0560919C0570919D0525E030E07B
:100AB00061E082E00E9475032FEF8FEF9CE22150EE
:100AC00080409040E1F700C0000081E00C94EB0111
:100AD0000E94CC041092A6051092A7051092A805BA
:100AE0001092A9052FEF8FE794E0215080409040AD
:100AF000E1F700C000008091A6059091A705A091A4
:100B0000A805B091A90580939E0590939F05A09399
:100B1000A005B093A10561E081E00E9429026FEA7F
:100B200074E08BE492E00E944C318BE492E00E94EE
:100B3000A80240919E0550919F056091A00570917B
:100B4000A10525E030E061E082E00E9475032FEF0F
:100B50008FEF9CE2215080409040E1F700C0000000
:100B600081E00C94EB010E94C6041092A60510923D
:100B7000A7051092A8051092A9052FEF8FE794E022
:100B8000215080409040E1F700C000008091A60510
:100B90009091A705A091A805B091A9058093A20501
:100BA0009093A305A093A405B093A5056091A20519
:100BB0007091A3058091A4059091A50508950E94C8
:100BC000C9041092A6051092A7051092A8051092CC
:100BD000A9052FEF8FE794E0215080409040E1F786
:100BE00000C000008091A6059091A705A091A805DE
:100BF000B091A90580939A0590939B05A0939C05BD
:100C0000B0939D0560919A0570919B0580919C051C
:100C100090919D0508950E94CC041092A605109213
:100C2000A7051092A8051092A9052FEF8FE794E071
:100C3000215080409040E1F700C000008091A6055F
:100C40009091A705A091A805B091A90580939E0554
:100C500090939F05A093A005B093A10560919E0578
:100C600070919F058091A0059091A10508958F92A4
:100C70009F92AF92BF92CF92DF92EF92FF920E942B
:100C8000B3056B017C010E940B064B015C010E94C5
:100C9000DF0527E0C21626E1D206E104F10430F0B8
:100CA000623022E172078105910500F58C149D04E4
:100CB000AE04BF0428F46C157D058E059F05C0F0B9
:100CC000C814D904EA04FB0428F4681579058A05D8
:100CD0009B0580F086169706A806B90668F4C61626
:100CE000D706E806F90640F487E407C087E505C0A3
:100CF00082E503C082E401C080E3FF90EF90DF90C3
:100D0000CF90BF90AF909F908F90089581B18F60EA
:100D100081B982B1807F82B90895EAE0F1E08081F3
:100D200088618083EBE0F1E08081886180830895B1
:100D30008DB18F7C8DB98EB180638EB90895F89492
:100D40008DB380638DBBEAE6F0E080818A608083AA
:100D500080818A7F808378940895E1E2F1E01082B7
:100D60008FEF8093250191E0909324011092290147
:100D70008093280110922B0180932A01A0E2B1E018
:100D80008C91806A8C938C918F7A8C938C918160FA
:100D90008C938C918D7F8C938081886080838081FF
:100DA0008F7E808380818360808380818B7F80833E
:100DB00008951F920F920FB60F9211248F939F9355
:100DC000AF93BF938091AC059091AD05A091AE0516
:100DD000B091AF050196A11DB11D8093AC05909314
:100DE000AD05A093AE05B093AF05BF91AF919F91B4
:100DF0008F910F900FBE0F901F9018951F920F921A
:100E00000FB60F9211248F939F93AF93BF9380914E
:100E1000B0059091B105A091B205B091B3050196CE
:100E2000A11DB11D8093B0059093B105A093B205AB
:100E3000B093B305BF91AF919F918F910F900FBE6B
:100E40000F901F90189582B1867F82B982B186601B
:100E500082B9089582B1897F82B982B1896082B9ED
:100E6000089582B1857F82B982B1856082B9089583
:100E700082B18A7F82B982B18A6082B9089582B1D3
:100E8000887F82B9129A089582B1827F82B9119ABD
:100E9000089582B1817F82B9109A089582B1887FC6
:100EA00082B9139A089582B1807F82B908950F9311
:100EB0001F93813099F41092AC051092AD051092F9
:100EC000AE051092AF051092B0051092B1051092C8
:100ED000B2051092B30580E090E029C04091AC05C6
:100EE0005091AD056091AE057091AF058091B00550
:100EF0009091B105A091B205B091B3058A019B0113
:100F0000080F191F2A1F3B1FC901B8010E943A2D63
:100F100028E431EE42E850E40E94EC2D20E030E07D
:100F200040E05FE30E94EC2D0E94042DCB011F9155
:100F30000F910895BC0180E090E00E943A2D28E4D2
:100F400031EE42E850E40E94922C0E940B2DCB011E
:100F5000A0E0B0E01092AC051092AD051092AE0585
:100F60001092AF051092B0051092B1051092B20523
:100F70001092B3054091AC055091AD056091AE055E
:100F80007091AF05481759076A077B0798F440919D
:100F9000B0055091B1056091B2057091B305481745
:100FA00059076A077B0730F4E6E6FEE03197F1F770
:100FB0000000E0CF0C9453070F931F93BC0180E017
:100FC00090E00E943A2D25EE30ED4AEA50E40E946E
:100FD000922C0E940B2D1092AC051092AD05109230
:100FE000AE051092AF051092B0051092B1051092A7
:100FF000B2051092B3050091AC051091AD0520919A
:10100000AE053091AF05061717072807390798F482
:101010000091B0051091B1052091B2053091B30552
:10102000061717072807390730F4E6E6FEE0319780
:10103000F1F70000E0CF1F910F910C945307CF936D
:10104000DF93EC010E942307CE01DF91CF910C9436
:10105000DC07CF93DF93EC010E942A07CE01DF91DA
:10106000CF910C94DC07CF93DF93EC010E94310702
:10107000CE01DF91CF910C949A07CF93DF93EC01CF
:101080000E943807CE01DF91CF910C949A07CF933D
:10109000DF93EC010E943F07CE01880F991FDF917B
:1010A000CF910C949A07CF93DF93EC010E944407F1
:1010B000CE01880F991FDF91CF910C949A07CF939F
:1010C000DF93EC010E944907CE01880F991FDF9141
:1010D000CF910C949A07CF93DF93EC010E944E07B7
:1010E000CE01880F991FDF91CF910C949A078093BE
:1010F000280160932A010895E1E0F1E08081806297
:101100008083E2E0F1E08081806280830895E2E004
:10111000F1E080818F7D80830895E2E0F1E08081BD
:101120008062808308950E94330A911102C0811168
:1011300008958FEF08950C94700A87E090E00E9464
:10114000180A0C94B20A0C94890A1F920F920FB6D7
:101150000F9211240BB60F922F933F934F935F93EF
:101160008F939F93EF93FF932091C0003091C6001F
:1011700028718091C00690E001968F779927409161
:10118000BF0650E08417950739F08093C006FC0134
:10119000ED53F94F308301C022E02093BE06FF914A
:1011A000EF919F918F915F914F913F912F910F9070
:1011B0000BBE0F900FBE0F901F9018951F920F92AD
:1011C0000FB60F9211240BB60F928F939F93EF934C
:1011D000FF939091C2068091C106981779F0809193
:1011E000C10690E001968F7799278093C106FC0194
:1011F000ED5BF84F80818093C60005C08091C100EF
:101200008F7D8093C100FF91EF919F918F910F90FF
:101210000BBE0F900FBE0F901F901895F894109270
:10122000C2061092C1061092C0061092BF067894B2
:1012300097FF04C022E02093C0009F779093C500E1
:101240008093C40088E98093C10086E08093C20047
:101250000895F8949091C0068091BF06981304C039
:10126000789480E091E0089578948091BF0690E0B2
:1012700001968F7799278093BF06FC01ED53F94FB4
:1012800020818091BE0690E0982F8827820F911DC3
:101290000895F8949091C0068091BF06981304C0F9
:1012A000789480E091E008957894E091BF06F0E0B2
:1012B0003196EF77FF27ED53F94F20818091BE06DD
:1012C00090E0982F8827820F911D08952091C206E3
:1012D00030E02F5F3F4F2F7733274091C10650E01A
:1012E00024173507D1F3F901ED5BF84F8083209384
:1012F000C2068091C10080628093C1000895CF939F
:10130000DF93EC018991882319F00E946609FACFD6
:10131000DF91CF910895CF93DF93FC018491EF018A
:101320002196882321F00E946609FE01F7CFDF9104
:10133000CF910895F8948091C0062091BF067894CB
:1013400090E080589F4F821B91098F7799270895CD
:10135000F8948091BF068093C006789408951F92F8
:101360000F920FB60F9211240BB60F922F933F934B
:101370004F935F938F939F93EF93FF93209130014F
:101380003091360128718091BB0590E001968F77EE
:1013900099274091BA0550E08417950739F080935A
:1013A000BB05FC01E254FA4F308301C022E02093D8
:1013B000B905FF91EF919F918F915F914F913F916F
:1013C0002F910F900BBE0F900FBE0F901F9018958E
:1013D0001F920F920FB60F9211240BB60F928F939C
:1013E0009F93EF93FF939091BD058091BC05981753
:1013F00079F08091BC0590E001968F7799278093D2
:10140000BC05FC01E25CF94F80818093360105C088
:10141000809131018F7D80933101FF91EF919F91F8
:101420008F910F900BBE0F900FBE0F901F901895CD
:10143000F8941092BD051092BC051092BB05109255
:10144000BA05789497FF04C022E0209330019F777B
:10145000909335018093340188E98093310186E0CF
:10146000809332010895F8949091BB058091BA055C
:10147000981304C0789480E091E008957894809166
:10148000BA0590E001968F7799278093BA05FC0101
:10149000E254FA4F20818091B90590E0982F882777
:1014A000820F911D0895F8949091BB058091BA0523
:1014B000981304C0789480E091E008957894E091C6
:1014C000BA05F0E03196EF77FF27E254FA4F20811A
:1014D0008091B90590E0982F8827820F911D08957B
:1014E0002091BD0530E02F5F3F4F2F77332740918C
:1014F000BC0550E024173507D1F3F901E25CF94F40
:1015000080832093BD0580913101806280933101F9
:101510000895CF93DF93EC018991882319F00E94FD
:10152000700AFACFDF91CF910895CF93DF93FC013A
:101530008491EF012196882321F00E94700AFE0118
:10154000F7CFDF91CF910895F8948091BB0520915A
:10155000BA05789490E080589F4F821B91098F774D
:1015600099270895F8948091BA058093BB057894E3
:101570000895F894E1EBF0E0108282E88093B200E5
:10158000B898A0E7B0E08C9181608C931092B00085
:10159000808184608083789408951092C4071092AB
:1015A000C3071092C6071092C507E1EBF0E08081F7
:1015B000816080830895E1EBF0E080818E7F8083FD
:1015C00008950E949308833551F52FEF8FE794E03B
:1015D000215080409040E1F700C000000E94930835
:1015E00090E090939702809396022FEF8FE794E01C
:1015F000215080409040E1F700C000000E94930815
:1016000090E090939502809394020E94CD0A1092EC
:10161000D0071092CF0781E08093CE0729C086348F
:1016200009F048C02FEF8FE794E0215080409040B0
:10163000E1F700C000000E9493088D34E1F42FEF21
:101640008FE794E0215080409040E1F700C0000017
:101650000E94930890E090939502809394020E94D8
:10166000CD0A81E08093CF071092D0071092CE0769
:101670008093CD0708958D36E9F42FEF8FE794E03E
:10168000215080409040E1F700C000000E94930884
:1016900090E090939502809394020E94CD0A81E09D
:1016A0008093D0071092CF071092CE078093CD077A
:1016B0000C94B20A08958091CD0781111092CD0744
:1016C0000895809196029091970208958091CE0797
:1016D00008958091CF0708958091D0070895809153
:1016E00094029091950208956BEB74E089E692E084
:1016F0000E944C3189E692E00C94A30865EC74E0FA
:1017000089E692E00E944C3189E692E00E94A308AB
:101710000C94DB0A8091C3079091C407089510923E
:10172000CC0781E08093CB071092CA07089581E02F
:101730008093CC071092CB071092CA07089510929D
:10174000CC071092CB0781E08093CA07089590934D
:1017500093028093920208950F931F93CF93DF9388
:10176000CDB7DEB764970FB6F894DEBF0FBECDBF1E
:10177000182F092F6D3419F46DEC74E004C06D3628
:10178000F9F461ED74E0CE0101960E944C31CE0176
:1017900001969F938F930F931F9387ED94E09F93F0
:1017A0008F9389E692E09F938F930E94533189E64D
:1017B00092E00E94A3080FB6F894DEBF0FBECDBF23
:1017C00064960FB6F894DEBF0FBECDBFDF91CF9108
:1017D0001F910F9108957F936F939F938F9386EE40
:1017E00094E09F938F9389E692E09F938F930E945A
:1017F00053318DB79EB708960FB6F8949EBF0FBEB3
:101800008DBF89E692E00C94A308242F042E000CCF
:10181000330B3F934F93262F062E000C330B3F9331
:101820006F939F938F9385EF94E09F938F9389E6B7
:1018300092E09F938F930E9453318DB79EB70A9683
:101840000FB6F8949EBF0FBE8DBF89E692E00C9450
:10185000A308262F062E000C330B3F936F939F9304
:101860008F9386E095E09F938F9389E692E09F9314
:101870008F930E9453318DB79EB708960FB6F89498
:101880009EBF0FBE8DBF89E692E00C94A3083B9AE1
:10189000439808950E94B90A0C94470C439A0895FE
:1018A00081E08093C9070E944E0C8091CE07882367
:1018B00009F44BC08091CA0794E0899F90011124DC
:1018C0009091CB07892F90E0880F991F822B932B43
:1018D0002091CC07822B81309105A1F02CF4892B2B
:1018E00089F564E175E03BC082309105A1F0049771
:1018F00049F58091C4078F938091C3078F9382E449
:1019000095E011C08091C4078F938091C3078F9396
:101910008EE295E008C08091C4078F938091C30741
:101920008F9388E395E09F938F9389E692E09F934E
:101930008F930E9453310F900F900F900F900F9044
:101940000F9011C069E475E00AC08091CF07811142
:101950000EC08091D00781110AC065E575E089E667
:1019600092E00E944C3189E692E00C94A3088091A9
:10197000C4078F938091C3078F93809193028F93B5
:10198000809192028F938AE695E09F938F9389E6E8
:1019900092E09F938F930E9453318DB79EB7089624
:1019A0000FB6F8949EBF0FBE8DBFDDCF439808954C
:1019B0001F920F920FB60F9211240BB60F922F9316
:1019C0003F934F935F936F937F938F939F93AF93C7
:1019D000BF93EF93FF938091C5079091C60701963F
:1019E0009093C6078093C5078091C5079091C6075D
:1019F000883E934040F18091C3079091C4070196BF
:101A00009093C4078093C3071092C6071092C5072E
:101A10008091C9078823B9F08091C7079091C807C2
:101A20009C012F5F3F4F3093C8072093C707029751
:101A300054F00E94D60C0E94DB0A1092C907109243
:101A4000C8071092C70782E88093B200B898FF9148
:101A5000EF91BF91AF919F918F917F916F915F9126
:101A60004F913F912F910F900BBE0F900FBE0F9093
:101A70001F9018959C01261B370BE4E6E29FC001DE
:101A8000E39F900D11249A01261B370BB9010E9488
:101A90000C2C77FD05C06536710524F4862F08955A
:101AA00080E0089584E60895CF9383E00E942004A7
:101AB0008093150B82E00E9420048093140B81E038
:101AC0000E942004C82F8093130B40910B0B509160
:101AD0000C0B6091A8037091A9038091150B90E005
:101AE0000E943A0D8093120B4091090B50910A0B02
:101AF0006091A6037091A7038C2F90E00E943A0D8D
:101B00008093100B4091070B5091080B6091A40338
:101B10007091A5038091140B90E00E943A0D809380
:101B2000110BCF9108950E94540D8091150B90E0F8
:101B300020910B0B30910C0B2817390724F490934C
:101B40000C0B80930B0B2091A8033091A9038217F3
:101B5000930724F49093A9038093A8038091140B16
:101B600090E02091070B3091080B2817390724F4D7
:101B70009093080B8093070B2091A4033091A50349
:101B80008217930724F49093A5038093A403809174
:101B9000130B90E02091090B30910A0B281739079D
:101BA00024F490930A0B8093090B2091A6033091A3
:101BB000A7038217930724F49093A7038093A603A7
:101BC000089581E00E9457070E9438076DE78DE76E
:101BD0000E94770880E00E9457078A3591051CF41F
:101BE0000E94930DF7CF81E00E9457070E943107B2
:101BF00080E00E945707843B91051CF40E94930DDE
:101C0000F7CF81E00E9457070E94380780E00E94CA
:101C100057078A3591051CF40E94930DF7CF0C9459
:101C200053078F929F92AF92BF92CF92DF92EF9223
:101C3000FF920E94540DE090100BF12CC090120BFB
:101C4000D12CB7016C197D09072E000C880B990B5C
:101C50000E943C2D4B015C018091110BB601680F75
:101C6000711D6E0D7F1D072E000C880B990B0E94B5
:101C70003C2D20E030E040E85FE30E94212C9B01F6
:101C8000AC01C501B4010E94922C20E030E04FE786
:101C900053E40E94EC2D4B015C019B01AC0160916F
:101CA000160B7091170B8091180B9091190B0E94D5
:101CB000202C2FE632E143E05BE30E94EC2D0E94F2
:101CC000042D6B017C0120E030E040E05FE3C501C2
:101CD000B4010E94EC2D0E94042DC60ED71E8092E6
:101CE000160B9092170BA092180BB092190B61EE85
:101CF00070E06C197D09C6018F519F4F6F3F7105D0
:101D000009F02CF477FF05C060E070E002C06FEFCF
:101D100070E08F3F910509F02CF497FF05C080E03B
:101D200090E002C08FEF90E0FF90EF90DF90CF90B7
:101D3000BF90AF909F908F900C9477080F931F9354
:101D4000CF93DF93082F0E942307C0E0D0E010E07C
:101D5000C017D107D4F40E94110E8091140B8D315D
:101D6000D0F38091150B8D3120F48091130B8D31C0
:101D700090F30E94530761EE81EE0E9477088FE591
:101D800090E00E941F082196E3CFDF91CF911F9131
:101D90000F91089561EE81EE0E94770881E490E052
:101DA0000E94330861EE81EE0E9477080E9431079D
:101DB0000E94540D8091140B8031D0F30C94530782
:101DC00061EE81EE0E94770881E490E00E943D0878
:101DD00061EE81EE0E9477080E9438070E94540D40
:101DE0008091140B8031D0F30C9453070E94540D52
:101DF0004091150B2091140B275081E090E0223088
:101E000010F080E090E09C01220F331F81E090E011
:101E100059EF540F533010F080E090E0880F991F75
:101E2000880F991F822B2091130B275091E02230AD
:101E300008F090E0892B873031F550E023E030E066
:101E400061E082E00E94B4024091140B50E023E074
:101E500030E065E082E00E94B4024091130B50E054
:101E600023E030E069E082E00E94B4022FEF8FEFC0
:101E700096E8215080409040E1F700C000000E94A9
:101E80003F0281E0089580E008958AE590E00E9495
:101E9000330861EE81EE0C9477088AE590E00E94A9
:101EA0003D0861EE81EE0C9477080E94370682357A
:101EB00021F0873421F08EE608958DE408958DE6B3
:101EC000089594E0299FF0011124ED54F74F808389
:101ED0006183428323830895CF93DF93EC0184E0F1
:101EE00090E00E942B30FC01D183C08313821282C8
:101EF000DF91CF91089584E090E00E942B30FC01A7
:101F000013821282118210820895CF93DF93EC0125
:101F1000CB010E946C0FEA81FB81309729F49B83EF
:101F20008A839983888304C0938382839B838A8373
:101F3000DF91CF910895CF93DF93DC01ED91FC9178
:101F40001197309799F08281938111969C938E938B
:101F5000892B21F413961C921E921297D081C18175
:101F6000CF010E94C3308D2F9C2F02C08FEF9FEFB7
:101F7000DF91CF910895CF93DF93C7E3DAE0DE01DD
:101F8000E981EE2311F1F0E0EE0FFF1FEF50F74F64
:101F90008181282F30E02196AC91B0E0AA0FBB1FC1
:101FA000AF50B74F11964C91119750E0808190E05F
:101FB0006C91861B91090196039748F4C901841B13
:101FC000950B01960397D8F202C081E001C080E032
:101FD000DF91CF9108952F923F924F925F926F922F
:101FE0007F928F929F92AF92BF92CF92DF92EF92A9
:101FF000FF920F931F93CF93DF93CDB7DEB7609718
:102000000FB6F894DEBF0FBECDBF5C017B010E940E
:102010007B0F988B8F870E947B0F8C01D501CD9011
:10202000DC90119712968D909C901397D701ED91AB
:10203000FC911197BE2E12966D917C911397A62E4E
:1020400055E9652E59E0752EA6EE4A2EA9E05A2EC6
:10205000A201930180E090E07901E80EF91ED7011A
:102060001C927A01E80EF91ED7011C920196893064
:10207000910591F7275F3F4F475F5F4FB9E0263EDD
:102080003B0741F7160133246401DD2489E0829D7A
:102090007001839DF00C1124D701A65CBC4FAC0DE0
:1020A000BD1D93E79C939F0133273E832D83AB0196
:1020B000552758874F83829FF001839FF00D11248D
:1020C000E65CFC4FE40FF51F85E68083B1018F8548
:1020D00098890E94850FB601C8010E94850FF701FB
:1020E000EB56F64FEC0DFD1D81E08083AF85B8897E
:1020F0008D919C91892B29F4E7E3FAE08FEF9AE028
:1021000077C08F8598890E949B0FF82E8B87C80116
:102110000E949B0F8C879927B9E0FB9E90011124A8
:10212000F901E65CFC4FE80FF91F4081453621F3C9
:1021300043E9842E43E0942EEBE8F3E0FA83E9834D
:1021400028563D4FA901480F591F5E874D87D4017E
:102150006C91B2E08B0E911CEB856E0F6930E0F54F
:10216000A981BA81EC908C858E0D8930A8F570E03C
:10217000E82EF12C29E0269FF001279FF00D112475
:10218000FC83EB83CF018B56964FAC014E0D5F1D48
:102190005A874987DA018C918130F1F0E65CFC4F77
:1021A000EE0DFF1D80818033B9F08F8598890E94E4
:1021B000850FB701C8010E94850F21E0E985FA85E6
:1021C00020838B819C818A51964FFC01EE0DFF1D6F
:1021D000AD85BE858C918083E981FA813296FA8340
:1021E000E983FBE98F16F3E09F0609F0B0CF7ECFBD
:1021F00011928E179F07E1F780E099E02A2D30E0D9
:102200009B9DA0011124FA01E65CFC4FE20FF31F35
:1022100060816337D1F0E82FF0E0E95CF54FDA0137
:10222000A856BD4FA20FB31F6C9160834A51564F01
:10223000FA01E20FF31FE081F0E0EE0FFF1FEF5015
:10224000F74FB080A1808F5FD9CF8150982FE82FB2
:10225000E91BE91768F4F0E0E95CF54F2081A92F4C
:10226000B0E0A95CB54F3C9130832C939150EFCFF7
:1022700099E0929DD001939DB00D1124A65CBC4FB6
:10228000AC0DBD1D8AE28C932D813E81929FB001E1
:10229000939F700D1124665C7C4FEF81F885E60FEB
:1022A000F71F808380E090E0F301E80FF91F1082B0
:1022B000F201E80FF91F1082019689309105A1F70C
:1022C00039E0630E711C49E0440E511C56EE651650
:1022D00059E0750639F78F8598890E94C330C80187
:1022E00060960FB6F894DEBF0FBECDBFDF91CF91E1
:1022F0001F910F91FF90EF90DF90CF90BF90AF9024
:102300009F908F907F906F905F904F903F902F9015
:102310000C94C330E7E3FAE080E090E021912223BF
:1023200021F00196883C9105C9F708957F928F921C
:102330009F92AF92BF92CF92DF92EF92FF920F9354
:102340001F93CF93DF93CDB7DEB7C054D1090FB63B
:10235000F894DEBF0FBECDBF782E80E4E2EDF3E04F
:10236000DE01119601900D928A95E1F7A090A003ED
:10237000B090A1038090A2039090A30383EBE82E7A
:1023800088E0F82E9E012F5F3F4F690110E000E0CA
:10239000BB249924F7018081871135C08181950183
:1023A000281B3109C9012281A401421B5109889FC0
:1023B000B001899F700D700D1124449FC001459F8D
:1023C000900D900D1124680F791F072E000C880BBB
:1023D000990B0E943C2D0E94AF2EF6016083718301
:1023E00082839383E1E0F0E0EC0FFD1F24E0029F85
:1023F000E00DF11D112420813181428153810E9421
:102400008D2C87FD012F34E0E30EF11C44E0C40E57
:10241000D11C1F5F103109F0BDCF54E0059F800132
:102420001124E1E0F0E0EC0FFD1FE00FF11F20E0D0
:1024300030E048EC52E460817181828193810E9496
:102440008D2C882329F0F801ED54F74F838101C0CA
:102450008FEFC05CDF4F0FB6F894DEBF0FBECDBF6D
:10246000DF91CF911F910F91FF90EF90DF90CF9070
:10247000BF90AF909F908F907F9008953F924F9222
:102480005F926F927F928F929F92AF92BF92CF9204
:10249000DF92EF92FF920F931F93CF93DF93CDB70D
:1024A000DEB728970FB6F894DEBF0FBECDBF809180
:1024B000120490911304A0911404B09115048D831B
:1024C0009E83AF83B8878091160490911704A091E2
:1024D0001804B091190489839A83AB83BC830E944A
:1024E000E10A0E945B0B382E882309F4DAC30E94AC
:1024F000660B8823B1F00E94610B7C018091A003E0
:102500009091A1039E838D838091A2039091A30358
:1025100098878F83D701BB27AA0FBB1FAA0FBB1FAA
:1025200032C00E94690B8823A9F08DE40E949611A5
:10253000E82E8091A0039091A1039E838D838091CA
:10254000A2039091A30398878F8384E0E89ED00133
:10255000112419C00E946C0B882309F44FC08DE62A
:102560000E949611E82E8091A0039091A1039E8372
:102570008D838091A2039091A30398878F8394E029
:10258000E99ED0011124A159B74FEC91F0E0EE0F74
:10259000FF1FED50F74F808190E09A838983119659
:1025A000EC91F0E0EE0FFF1FED50F74F818190E0CE
:1025B0009C838B83BE016F5F7F4FCE0105960E9487
:1025C000EB0F0E948A116C010E946F0B8C01B60107
:1025D000DD0C880B990B0E943C2D21E73DE34AE876
:1025E0005EE30E94922C0E94042D601771071CF07C
:1025F0000E947E0B56C30E94740B01C0E12CA4E024
:10260000EA9E70011124C12CD12C7FEF872E7AE035
:10261000972E19E0F601EE0DFF1DED58F74FE08102
:10262000F0E0EE0FFF1FED50F74F808190E09A83AE
:102630008983818190E09C838B8300E367E7462E4A
:102640002091A0033091A10389819A81281739072D
:1026500051F42091A2033091A3038B819C81281710
:10266000390709F4DFC2BE016F5F7F4FCE010596C7
:102670000E94EB0F0E94BB0F882321F08091380A43
:10268000811111C089819A81189FF001199FF00D65
:102690001124E65CFC4F8B819C81E80FF91F80E3DD
:1026A000808380E0C0C297E3A92E9AE0B92E80E033
:1026B00090E025E6722E3EE6632E43E7542ED501C8
:1026C000ED915D016091A0037091A103EE2319F0DB
:1026D000019769F4B5CF892B09F0B2CF7E836D8362
:1026E0008091A2039091A30398878F83A9CF7E83C3
:1026F0006D834091A2035091A30358874F83F0E06C
:10270000EE0FFF1FEF50F74F208130E0261B370BF5
:10271000818190E0841B950B121613060CF0A5C066
:10272000892B09F078C280919B038E36D9F08737C8
:1027300089F1853609F04AC00E944D0F8091A003AF
:102740009091A103189FF001199FF00D1124E856F4
:10275000FD4F8091A2039091A303E80FF91F8081A0
:1027600042E72DC00E94450F0E94450F8091A003B3
:102770009091A103189FF001199FF00D1124E856C4
:10278000FD4F8091A2039091A303E80FF91F808170
:1027900041E615C00E94450F8091A0039091A103CE
:1027A000189FF001199FF00D1124E856FD4F8091FC
:1027B000A2039091A303E80FF91F80814CE660917A
:1027C0009B0390E00E94050C50929B030E94F60E22
:1027D0008823E9F08091A0039091A103189FF00154
:1027E000199FF00D1124E856FD4F8091A20390919E
:1027F000A303E80FF91F808160919B0390E00E9482
:10280000290C8091A0039091A1030196A7C081E0BB
:102810000E949E0E2091A0033091A1038091A203FB
:102820009091A303A9014F5F5F4F149FF001159F83
:10283000F00D1124E856FD4FE80FF91F608170E09C
:10284000129FA001139F500D11249A0128563D4F4D
:10285000F901E80FF91F808190E00E94EB0B809155
:10286000A0039091A1030196B4C0232B09F4B6C034
:10287000892B09F0D0C180919B038337D9F087372A
:1028800089F1853609F04AC00E94450F8091A00366
:102890009091A103189FF001199FF00D1124E856A3
:1028A000FD4F8091A2039091A303E80FF91F80814F
:1028B0004CE62DC00E94450F0E94450F8091A00359
:1028C0009091A103189FF001199FF00D1124E85673
:1028D000FD4F8091A2039091A303E80FF91F80811F
:1028E00041E615C00E944D0F8091A0039091A10375
:1028F000189FF001199FF00D1124E856FD4F8091AB
:10290000A2039091A303E80FF91F808142E7609131
:102910009B0390E00E94050C60929B030E94F60EC0
:10292000882351F18091A0039091A103189FF00199
:10293000199FF00D1124E856FD4F8091A20390914C
:10294000A303E80FF91F808160919B0390E00E9430
:10295000290C8091A0039091A1030197189FF00189
:10296000199FF00D1124E65CFC4F8091A203909119
:10297000A303E80FF91F26C181E00E949E0E20915B
:10298000A0033091A1038091A2039091A303A90118
:1029900041505109149FF001159FF00D1124E85684
:1029A000FD4FE80FF91F608170E0129FA001139F97
:1029B000500D11249A0128563D4FF901E80FF91FD7
:1029C000808190E00E94EB0B8091A0039091A10385
:1029D00001979093A1038093A0031DC118161906B7
:1029E0000CF0A1C080919B038337D9F0873779F130
:1029F0008E3609F04AC00E944D0F8091A00390913D
:102A0000A103189FF001199FF00D1124E856FD4F06
:102A10008091A2039091A303E80FF91F808142E700
:102A20002DC00E94450F8091A0039091A103189F93
:102A3000F001199FF00D1124E856FD4F8091A2037B
:102A40009091A303E80FF91F80814CE617C00E9404
:102A50004D0F0E944D0F8091A0039091A103189FEC
:102A6000F001199FF00D1124E856FD4F8091A2034B
:102A70009091A303E80FF91F808141E660919B03C9
:102A800090E00E94050C70929B030E94F60E882332
:102A900051F18091A0039091A103189FF001199F1B
:102AA000F00D1124E856FD4F8091A2039091A303ED
:102AB000E80FF91F808160919B0390E00E94290C30
:102AC0008091A0039091A103189FF001199FF00D30
:102AD0001124E65CFC4F8091A2039091A303E80FC0
:102AE000F91F018370C081E00E949E0E2091A00317
:102AF0003091A1038091A2039091A303129FF00152
:102B0000139FF00D1124E856FD4FE80FF91F618166
:102B100070E0808190E00E94EB0B8091A203909185
:102B2000A303019674C097FF76C080919B038E36F5
:102B300009F084C00E94450F8091A0039091A103E9
:102B4000189FF001199FF00D1124E856FD4F809158
:102B5000A2039091A303E80FF91F80814CE66091D6
:102B60009B0390E00E94050C40929B030E94F60E8E
:102B7000882361F18091A0039091A103189FF00137
:102B8000199FF00D1124E856FD4F8091A2039091FA
:102B9000A303E80FF91F808160919B0390E00E94DE
:102BA000290C8091A0039091A103189FF001199F17
:102BB000F00D11248091A2039091A303E80FF91F57
:102BC000E75CFC4F008381E090E027C081E00E9439
:102BD0009E0E2091A0033091A1038091A2039091B9
:102BE000A303129FF001139FF00D1124E856FD4F2F
:102BF000E80FF91FDF0111976C9170E0808190E080
:102C00000E94EB0B8091A2039091A30301979093F4
:102C1000A3038093A20380E090E08A149B0409F050
:102C20004ECD0ECD81E0BFEFCB1ADB0A94E0C91682
:102C3000D104B9F1813009F0EDCC33C08337D9F03C
:102C4000853609F093CF0E94450F0E94450F809171
:102C5000A0039091A103189FF001199FF00D11247A
:102C6000E856FD4F8091A2039091A303E80FF91F4E
:102C7000808141E674CF0E944D0F8091A003909116
:102C8000A103189FF001199FF00D1124E856FD4F84
:102C90008091A2039091A303E80FF91F808142E77E
:102CA0005ECF832D28960FB6F894DEBF0FBECDBF42
:102CB000DF91CF911F910F91FF90EF90DF90CF9018
:102CC000BF90AF909F908F907F906F905F904F904C
:102CD0003F9008952F923F924F925F926F927F9212
:102CE0008F929F92AF92BF92CF92DF92EF92FF921C
:102CF0000F931F93CF93DF93CDB7DEB7A6970FB691
:102D0000F894DEBF0FBECDBF8091120490911304E2
:102D1000A0911404B09115048D8F9E8FAF8FB8A32E
:102D20008091160490911704A0911804B091190491
:102D3000898F9A8FAB8FBC8F8E010F5F1F4F80E101
:102D4000D8011D928A95E9F723EF38E090E0F90168
:102D500080E09083818332968F5F8930D1F72E5E39
:102D60003F4F9F5F993099F78EE68093B30810929A
:102D7000B4081092B5088093B7088093BB0880937D
:102D8000BF088093C3088093C7088093CB088093C3
:102D9000CF088093D3088093D7088093DB08809373
:102DA000DF088093E3088093E7088093EB08809323
:102DB000EF082FE02093B6088FEF8093D107809320
:102DC000D2071092D3078093D4078093D5078093BE
:102DD000D607E1E0E093D7078093D8078093D9071F
:102DE0008093DA0742E04093DB078093DC0780930F
:102DF000DD078093DE0773E07093DF078093E007C1
:102E00008093E1078093E2071092E3078093E40741
:102E10008093E5078093E6071092E707E093E807C1
:102E20008093E907E093EB074093EA078093ED076F
:102E30008093EE074093EF077093F0078093F107BC
:102E40008093F2077093F3078093F4078093F5075C
:102E50008093F6071092F70734E03093F8078093D9
:102E6000F9078093FA07E093FB0755E05093FC07BE
:102E70008093FD078093FE074093FF0766E0609311
:102E8000000880930108809302087093030847E0CC
:102E90004093040880930508809306083093070840
:102EA000809308088093090880930A0830930B08E0
:102EB00050930C0880930D0880930E0850930F08D0
:102EC0006093100880931108809312086093130890
:102ED00040931408809315088093160840931708B0
:102EE000809318088093190880931A0830931B0860
:102EF00038E030931C0880931D0880931E0850937F
:102F00001F089093200880932108809322086093E3
:102F10002308FAE0F093240880932508809326087C
:102F2000409327086BE060932808809329088093DA
:102F30002A0830932B0880932C0880932D088093C7
:102F40002E0830932F089093300880933108809397
:102F5000320890933308F0933408809335088093B7
:102F60003608F09337088093390880933A086093C5
:102F70003B0880933C0880933D0880933E08309343
:102F80003F08ACE0A093400880934108809342083A
:102F9000909343083DE03093440880934508809324
:102FA0004608F0934708FEE0F093480880934908EC
:102FB00080934A0860934B0820934C0880934D08F7
:102FC00080934E08A0934F08809350088093510837
:102FD00080935208A0935308309354088093550867
:102FE0008093560830935708F093580880935908F7
:102FF00080935A08F0935B0820935C0880935D08E7
:1030000080935E0820935F08809360088093610836
:1030100080936208A0936308809364088093650896
:1030200080936608309367088093680880936908E6
:1030300080936A08F0936B0880936C0880936D0806
:1030400080936E0820936F088093700880937108B6
:10305000809372086093730890937408F3E1F0937F
:103060007508E0937608709377083093780875E1D7
:103070007093790860937A0850937B0820937C08BA
:1030800097E190937D0830937E0840937F0881E11B
:103090008093800889E18093810820938208F093CF
:1030A00083083DE13093840845E2409385082BE195
:1030B00020938608709387085FE15093880827E281
:1030C0002093890830938A0890938B0831E23093DB
:1030D0008C0899E290938D0850938E0853E2509398
:1030E0008F08809390088BE2809391083093920828
:1030F0003FE2309393084093940847E34093950848
:103100005DE2509396082093970851E350939808F6
:1031100029E32093990830939A0890939B0833E30E
:1031200030939C089BE390939D0850939E08809356
:103130009F0885E38093A0088DE38093A1083093D6
:10314000A2083FE33093A30831E43093A40859E484
:103150005093A5084093A6082093A70823E4209342
:10316000A8084BE44093A9083093AA089093AB08B1
:1031700095E49093AC083DE43093AD082093AE08FD
:103180009093AF0897E49093B0089FE49093B108B0
:103190008093B20881E00E949E0EE3E7F8E0FCA372
:1031A000EBA31AA309A35801212C312CEBA1FCA1FC
:1031B000E20DF31DE081F0E0EE0FFF1FED50F74F41
:1031C000808190E09A8F898F818190E09C8F8B8F96
:1031D000A9A1BAA18C91882309F4F4C0EBA1FCA1A8
:1031E0003496FCA3EBA329A13AA12F5F3F4F3AA34A
:1031F00029A383EB98E08E179F07B1F6A6960FB62A
:10320000F894DEBF0FBECDBFDF91CF911F910F911C
:10321000FF90EF90DF90CF90BF90AF909F908F90F6
:103220007F906F905F904F903F902F900895ADA149
:10323000BEA1ED91BEA3ADA3EE2309F4F1C0EA94C3
:10324000EF2809F4BFC07E8F6D8F4091A20350918B
:10325000A30358A34F8FF0E0EE0FFF1FEF50F74F7F
:10326000208130E0261B370B818190E0841B950B79
:10327000121613060CF4D7C0232B09F073C51816C9
:10328000190614F00C94712780919B03833711F475
:103290000C946C24873711F00C9456230E944D0F28
:1032A0000E944D0F8091A0039091A103189FF001FF
:1032B000199FF00D1124E856FD4F8091A2039091C3
:1032C000A303E80FF91F808141E660919B0390E022
:1032D0000E94050C85E680939B03AFEFBFE7E6E114
:1032E000A150B040E040E1F700C000000E94F60E9F
:1032F0002091A2033091A303882311F40C947F251D
:103300004091A0035091A103149FC001159F900DFF
:10331000112488569D4FFC01E20FF31F80816091BC
:103320009B0390E00E94290C8091A0039091A1033F
:10333000189FF001199FF00D1124E65CFC4F80915D
:10334000A2039091A303E80FF91F6182EE24E39496
:10335000F12C2FEF3AE08DA19EA12817390709F52E
:103360002091A0033091A103898D9A8D28173907E8
:1033700059F1BE01675E7F4FCE014D960E94EB0F63
:103380000E94BB0F8823D1F18091380A8823B1F1C4
:10339000A7E3BAE0BEA3ADA3E12CF12C0EE6B0E3A7
:1033A0006B2E0E943E126091A0037091A1038823AE
:1033B00009F43DCF7E8F6D8F8091A2039091A3037E
:1033C00098A38F8F19E0CCCF2091A2033091A30353
:1033D0008B8D9C8D2817390761F688E0E7E7F5E0CB
:1033E000DE01519601900D928A95E1F7CE0141964A
:1033F0000E94A8020E943F020C944228898D9A8D57
:1034000029E0289FF001299FF00D1124E65CFC4F74
:103410008B8D9C8DE80FF91F80E380830C944228EC
:10342000EF2841F2CFCF892B11F00C943E288091E8
:103430009B038E3639F0873709F450C2853609F080
:103440006FC32AC10E94450F0E94450F8091A003BF
:103450009091A103189FF001199FF00D1124E856D7
:10346000FD4F8091A2039091A303E80FF91F808183
:1034700041E660919B0390E00E94050CE9E9F9E9BF
:1034800023E0E150F0402040E1F7000083E7809323
:103490009B0336E686EE92E1315080409040E1F7A2
:1034A0000E94F60E811149C3AFEFBFE3E2E0A150E5
:1034B000B040E040E1F700C0000081E00E949E0EB5
:1034C0002091A0033091A1038091A2039091A303C6
:1034D000A9014F5F5F4F149FF001159FF00D11245C
:1034E000E856FD4FE80FF91F608170E0129FA001C0
:1034F000139F500D11249A0128563D4FF901E80FF2
:10350000F91F808190E00E94EB0B8091A0039091C5
:10351000A10301969093A1038093A003189FF0014B
:10352000199FF00D1124E751FD4F8091A203909156
:10353000A303E80FF91F8081893711F00C943E280E
:103540000E94550FD82E0E94CA0E0E94550FC82EF9
:103550000E94CA0EE12CF12C772473942091A003D1
:103560003091A1038091A2039091A303129FF001D7
:10357000139FF00D1124E856FD4FE80FF91F6081ED
:10358000A701460F511D460F511DFA01E153F84F97
:1035900040814F3F49F4FFEFEF1AFF0A22E0E216A5
:1035A000F104E1F60C943E28842E912CF401EE0FE8
:1035B000FF1FEE0FFF1FED54F74FE114F10431F43C
:1035C000D0822183828343836D2D05C0C0822183F5
:1035D000828343836C2DC40101960E94AC0BF501DC
:1035E000E80DF91D70822401440C551C440C551C37
:1035F000A0E0B0E0FD01E40DF51DED58F74FE081CE
:10360000F0E0EE0FFF1FED50F74F608170E0218179
:1036100030E0169F4001179F900C1124F401E856EA
:10362000FD4FE20FF31FE081F0E0EE0FFF1FE153CB
:10363000F84F808190E0418150E08F3F910561F427
:10364000F501E40FF51FE081EE2331F0F401E751BD
:10365000FD4FE20FF31F0083F501E80FF91F808192
:103660004F3F510531F0882389F0F501E40FF51F34
:103670008081882359F0169FC001179F900D112457
:1036800087519D4FFC01E20FF31F00831196A43078
:10369000B10509F0AFCF7FCF0E944D0F8091A003FD
:1036A0009091A103189FF001199FF00D1124E85685
:1036B000FD4F8091A2039091A303E80FF91F808131
:1036C00042E760919B0390E00E94050C83E78093A2
:1036D0009B033FEF8FE796E1315080409040E1F748
:1036E00000C000000E94F60E811127C2AFEFBFE3B9
:1036F000E2E0A150B040E040E1F700C0000081E00E
:103700000E949E0E2091A0033091A1038091A203FC
:103710009091A303A9014F5F5F4F149FF001159F84
:10372000F00D1124E856FD4FE80FF91F608170E09D
:10373000129FA001139F500D11249A0128563D4F4E
:10374000F901E80FF91F808190E00E94EB0B809156
:10375000A0039091A10301969093A1038093A003ED
:10376000189FF001199FF00D1124E751FD4F809132
:10377000A2039091A303E80FF91F8081893711F00C
:103780000C943E280E94550FD82E0E94CA0E0E940B
:10379000550FC82E0E94CA0EE12CF12C7724739489
:1037A0002091A0033091A1038091A2039091A303E3
:1037B000129FF001139FF00D1124E856FD4FE80F02
:1037C000F91F6081A701460F511D460F511DFA01D7
:1037D000E153F84F40814F3F49F4FFEFEF1AFF0AE2
:1037E00022E0E216F104E1F60C943E28842E912C9E
:1037F000F401EE0FFF1FEE0FFF1FED54F74FE11422
:10380000F10431F4D0822183828343836D2D05C07E
:10381000C0822183828343836C2DC40101960E9460
:10382000AC0BF501E80DF91D70822401440C551C08
:10383000440C551CA0E0B0E0FD01E40DF51DED5871
:10384000F74FE081F0E0EE0FFF1FED50F74F608182
:1038500070E0218130E0169F4001179F900C1124E9
:10386000F401E856FD4FE20FF31FE081F0E0EE0FA8
:10387000FF1FE153F84F808190E0418150E08F3F7E
:10388000910561F4F501E40FF51FE081EE2331F0BD
:10389000F401E751FD4FE20FF31F0083F501E80F3C
:1038A000F91F80814F3F510531F0882389F0F501E0
:1038B000E40FF51F8081882359F0169FC001179FE0
:1038C000900D112487519D4FFC01E20FF31F0083DF
:1038D0001196A430B10509F0AFCF7FCF0E94450FFC
:1038E0008091A0039091A103189FF001199FF00D02
:1038F0001124E856FD4F8091A2039091A303E80F95
:10390000F91F80814CE660919B0390E00E94050CBA
:1039100083E780939B033FEF8FE796E13150804030
:103920009040E1F700C000000E94F60E811105C131
:10393000AFEFBFE3E2E0A150B040E040E1F700C0EC
:10394000000081E00E949E0E2091A0033091A1030F
:103950008091A2039091A303A9014F5F5F4F149F31
:10396000F001159FF00D1124E856FD4FE80FF91FE7
:10397000608170E0129FA001139F500D11249A01E5
:1039800028563D4FF901E80FF91F808190E00E9411
:10399000EB0B8091A0039091A10301969093A1035A
:1039A0008093A003189FF001199FF00D1124E75197
:1039B000FD4F8091A2039091A303E80FF91F80812E
:1039C000893711F00C943E280E94550FD82E0E9482
:1039D000CA0E0E94550FC82E0E94CA0EE12CF12C6F
:1039E000772473942091A0033091A1038091A203C6
:1039F0009091A303129FF001139FF00D1124E8563C
:103A0000FD4FE80FF91F6081A701460F511D460FBA
:103A1000511DFA01E153F84F40814F3F49F4FFEF48
:103A2000EF1AFF0A22E0E216F104E1F60C943E28B8
:103A3000842E912CF401EE0FFF1FEE0FFF1FED54AB
:103A4000F74FE114F10431F4D08221838283438360
:103A50006D2D05C0C0822183828343836C2DC401F8
:103A600001960E94AC0BF501E80DF91D708224014E
:103A7000440C551C440C551CA0E0B0E0FD01E40DC5
:103A8000F51DED58F74FE081F0E0EE0FFF1FED5010
:103A9000F74F608170E0218130E0169F4001179F51
:103AA000900C1124F401E856FD4FE20FF31FE08162
:103AB000F0E0EE0FFF1FE153F84F808190E041816D
:103AC00050E08F3F910561F4F501E40FF51FE081AF
:103AD000EE2331F0F401E751FD4FE20FF31F0083B5
:103AE000F501E80FF91F80814F3F510531F0882320
:103AF00089F0F501E40FF51F8081882359F0169FA6
:103B0000C001179F900D112487519D4FFC01E20FBA
:103B1000F31F00831196A430B10509F0AFCF7FCF1A
:103B20003FEF8FE796E1315080409040E1F700C0D1
:103B300000000E94F60E8823E9F08091A003909186
:103B4000A103189FF001199FF00D1124E856FD4FB5
:103B50008091A2039091A303E80FF91F80816091E7
:103B60009B0390E00E94290C8091A0039091A103F7
:103B7000019697C4AFEFBFE3E2E0A150B040E04050
:103B8000E1F700C0000081E00E949E0E2091A0039A
:103B90003091A1038091A2039091A303A9014F5FEB
:103BA0005F4F149FF001159FF00D1124E856FD4F53
:103BB000E80FF91F608170E0129FA001139F500D64
:103BC00011249A0128563D4FF901E80FF91F808111
:103BD00090E00E94EB0B8091A0039091A1030196CD
:103BE0009093A1038093A003189FF001199FF00DFB
:103BF0001124E751FD4F8091A2039091A303E80F98
:103C0000F91F8081893711F00C943E280E94550FCE
:103C1000D82E0E94CA0E0E94550FC82E0E94CA0EAE
:103C2000E12CF12C772473942091A0033091A1030F
:103C30008091A2039091A303129FF001139FF00DB6
:103C40001124E856FD4FE80FF91F6081A701460FC8
:103C5000511D460F511DFA01E153F84F40814F3F6E
:103C600049F4FFEFEF1AFF0A22E0E216F104E1F651
:103C70000C943E28842E912CF401EE0FFF1FEE0FC2
:103C8000FF1FED54F74FE114F10431F4D08221838A
:103C9000828343836D2D05C0C08221838283438349
:103CA0006C2DC40101960E94AC0BF501E80DF91DC5
:103CB00070822401440C551C440C551CA0E0B0E05B
:103CC000FD01E40DF51DED58F74FE081F0E0EE0F3A
:103CD000FF1FED50F74F608170E0218130E0169FAB
:103CE0004001179F900C1124F401E856FD4FE20F9C
:103CF000F31FE081F0E0EE0FFF1FE153F84F8081EA
:103D000090E0418150E08F3F910561F4F501E40FAF
:103D1000F51FE081EE2331F0F401E751FD4FE20F92
:103D2000F31F0083F501E80FF91F80814F3F510514
:103D300031F0882389F0F501E40FF51F8081882395
:103D400059F0169FC001179F900D112487519D4F68
:103D5000FC01E20FF31F00831196A430B10509F0B6
:103D6000AFCF7FCF892B11F00C943E2880919B031D
:103D7000833739F0873709F44AC2853609F068C3BA
:103D800025C10E94450F0E94450F8091A00390918C
:103D9000A103189FF001199FF00D1124E856FD4F63
:103DA0008091A2039091A303E80FF91F808141E65F
:103DB00060919B0390E00E94050C3EE630939B03CC
:103DC0008FEF9FE7A6E181509040A040E1F700C04F
:103DD00000000E94F60E811148C3BFEFEFE3F2E04E
:103DE000B150E040F040E1F700C0000081E00E94E7
:103DF0009E0E2091A0033091A1038091A203909187
:103E0000A303A90141505109149FF001159FF00D22
:103E10001124E856FD4FE80FF91F608170E0129FF2
:103E2000A001139F500D11249A0128563D4FF9010E
:103E3000E80FF91F808190E00E94EB0B8091A003B6
:103E40009091A10301979093A1038093A003189FE1
:103E5000F001199FF00D1124E751FD4F8091A2034D
:103E60009091A303E80FF91F8081893711F00C941A
:103E70003E280E94550FD82E0E94CA0E0E94550F50
:103E8000C82E0E94CA0EE12CF12C77247394209145
:103E9000A0033091A1038091A2039091A303129FEC
:103EA000F001139FF00D1124E856FD4FE80FF91FA4
:103EB0006081A701460F511D460F511DFA01E153C4
:103EC000F84F40814F3F51F42FEFE21AF20A32E0EF
:103ED000E316F10411F40C943E28D9CF842E912CD2
:103EE000F401EE0FFF1FEE0FFF1FED54F74FE1142B
:103EF000F10431F4D0822183828343836D2D05C088
:103F0000C0822183828343836C2DC40101960E9469
:103F1000AC0BF501E80DF91D70822401440C551C11
:103F2000440C551CA0E0B0E0FD01E40DF51DED587A
:103F3000F74FE081F0E0EE0FFF1FED50F74F60818B
:103F400070E0218130E0169F4001179F900C1124F2
:103F5000F401E856FD4FE20FF31FE081F0E0EE0FB1
:103F6000FF1FE153F84F808190E0418150E08F3F87
:103F7000910561F4F501E40FF51FE081EE2331F0C6
:103F8000F401E751FD4FE20FF31F0083F501E80F45
:103F9000F91F80814F3F510531F0882389F0F501E9
:103FA000E40FF51F8081882359F0169FC001179FE9
:103FB000900D112487519D4FFC01E20FF31F0083E8
:103FC0001196A430B10509F0AFCF7ECF0E94450F06
:103FD0008091A0039091A103189FF001199FF00D0B
:103FE0001124E856FD4F8091A2039091A303E80F9E
:103FF000F91F80814CE660919B0390E00E94050CC4
:104000008EE680939B039FEFAFE7B6E19150A0400F
:10401000B040E1F700C000000E94F60E811125C2F9
:10402000EFEFFFE322E0E150F0402040E1F700C075
:10403000000081E00E949E0E2091A0033091A10318
:104040008091A2039091A303A9014F5F5F4F149F3A
:10405000F001159FF00D1124E856FD4FE80FF91FF0
:10406000608170E0129FA001139F500D11249A01EE
:1040700028563D4FF901E80FF91F808190E00E941A
:10408000EB0B8091A0039091A10301979093A10362
:104090008093A003189FF001199FF00D1124E751A0
:1040A000FD4F8091A2039091A303E80FF91F808137
:1040B000893709F0E3C70E94550FD82E0E94CA0E17
:1040C0000E94550FC82E0E94CA0EE12CF12C7724B5
:1040D00073942091A0033091A1038091A203909149
:1040E000A303129FF001139FF00D1124E856FD4F1A
:1040F000E80FF91F6081A701460F511D460F511DA2
:10410000FA01E153F84F40814F3F49F43FEFE31A82
:10411000F30A82E0E816F10409F4B0C7DACF842E7E
:10412000912CF401EE0FFF1FEE0FFF1FED54F74F20
:10413000E114F10431F4D0822183828343836D2D15
:1041400005C0C0822183828343836C2DC401019604
:104150000E94AC0BF501E80DF91D70822401440C9E
:10416000551C440C551CA0E0B0E0FD01E40DF51D0C
:10417000ED58F74FE081F0E0EE0FFF1FED50F74FE5
:10418000608170E0218130E0169F4001179F900C04
:104190001124F401E856FD4FE20FF31FE081F0E037
:1041A000EE0FFF1FE153F84F808190E0418150E016
:1041B0008F3F910561F4F501E40FF51FE081EE23D7
:1041C00031F0F401E751FD4FE20FF31F0083F501D9
:1041D000E80FF91F80814F3F510531F0882389F0A6
:1041E000F501E40FF51F8081882359F0169FC00167
:1041F000179F900D112487519D4FFC01E20FF31F73
:1042000000831196A430B10509F0AFCF7FCF0E9493
:104210004D0F8091A0039091A103189FF001199F69
:10422000F00D1124E856FD4F8091A2039091A30355
:10423000E80FF91F808142E760919B0390E00E94A4
:10424000050C9EE690939B03AFEFBFE7E6E1A1501C
:10425000B040E040E1F700C000000E94F60E81117E
:1042600004C1FFEF2FE332E0F15020403040E1F78E
:1042700000C0000081E00E949E0E2091A0033091BA
:10428000A1038091A2039091A303A9014150510978
:10429000149FF001159FF00D1124E856FD4FE80F13
:1042A000F91F608170E0129FA001139F500D11242F
:1042B0009A0128563D4FF901E80FF91F808190E0DF
:1042C0000E94EB0B8091A0039091A1030197909322
:1042D000A1038093A003189FF001199FF00D1124F2
:1042E000E751FD4F8091A2039091A303E80FF91FBE
:1042F0008081893709F0C2C60E94550FD82E0E94CE
:10430000CA0E0E94550FC82E0E94CA0EE12CF12C35
:10431000772473942091A0033091A1038091A2038C
:104320009091A303129FF001139FF00D1124E85602
:10433000FD4FE80FF91F6081A701460F511D460F81
:10434000511DFA01E153F84F40814F3F49F48FEF7F
:10435000E81AF80A92E0E916F10409F48FC6DACFF8
:10436000842E912CF401EE0FFF1FEE0FFF1FED5472
:10437000F74FE114F10431F4D08221838283438327
:104380006D2D05C0C0822183828343836C2DC401BF
:1043900001960E94AC0BF501E80DF91D7082240115
:1043A000440C551C440C551CA0E0B0E0FD01E40D8C
:1043B000F51DED58F74FE081F0E0EE0FFF1FED50D7
:1043C000F74F608170E0218130E0169F4001179F18
:1043D000900C1124F401E856FD4FE20FF31FE08129
:1043E000F0E0EE0FFF1FE153F84F808190E0418134
:1043F00050E08F3F910561F4F501E40FF51FE08176
:10440000EE2331F0F401E751FD4FE20FF31F00837B
:10441000F501E80FF91F80814F3F510531F08823E6
:1044200089F0F501E40FF51F8081882359F0169F6C
:10443000C001179F900D112487519D4FFC01E20F81
:10444000F31F00831196A430B10509F0AFCF7FCFE1
:10445000AFEFBFE7E6E1A150B040E040E1F700C0B8
:1044600000000E94F60E882351F18091A0039091E4
:10447000A103189FF001199FF00D1124E856FD4F7C
:104480008091A2039091A303E80FF91F80816091AE
:104490009B0390E00E94290C8091A0039091A103BE
:1044A0000197189FF001199FF00D1124E65CFC4F55
:1044B0008091A2039091A303E80FF91F6BC5FFEF52
:1044C0002FE332E0F15020403040E1F700C000001F
:1044D00081E00E949E0E2091A0033091A103809163
:1044E000A2039091A303A90141505109149FF00127
:1044F000159FF00D1124E856FD4FE80FF91F60815C
:1045000070E0129FA001139F500D11249A012856AC
:104510003D4FF901E80FF91F808190E00E94EB0BFD
:104520008091A0039091A10301979093A1038093A0
:10453000A003189FF001199FF00D1124E751FD4FC2
:104540008091A2039091A303E80FF91F808189371E
:1045500009F094C50E94550FD82E0E94CA0E0E94E1
:10456000550FC82E0E94CA0EE12CF12C77247394AB
:104570002091A0033091A1038091A2039091A30305
:10458000129FF001139FF00D1124E856FD4FE80F24
:10459000F91F6081A701460F511D460F511DFA01F9
:1045A000E153F84F40814F3F49F48FEFE81AF80A82
:1045B00092E0E916F10409F461C5DACF842E912C5A
:1045C000F401EE0FFF1FEE0FFF1FED54F74FE11444
:1045D000F10431F4D0822183828343836D2D05C0A1
:1045E000C0822183828343836C2DC40101960E9483
:1045F000AC0BF501E80DF91D70822401440C551C2B
:10460000440C551CA0E0B0E0FD01E40DF51DED5893
:10461000F74FE081F0E0EE0FFF1FED50F74F6081A4
:1046200070E0218130E0169F4001179F900C11240B
:10463000F401E856FD4FE20FF31FE081F0E0EE0FCA
:10464000FF1FE153F84F808190E0418150E08F3FA0
:10465000910561F4F501E40FF51FE081EE2331F0DF
:10466000F401E751FD4FE20FF31F0083F501E80F5E
:10467000F91F80814F3F510531F0882389F0F50102
:10468000E40FF51F8081882359F0169FC001179F02
:10469000900D112487519D4FFC01E20FF31F008301
:1046A0001196A430B10509F0AFCF7FCF8E3609F057
:1046B0000FC30E944D0F8091A0039091A103189FFA
:1046C000F001199FF00D1124E856FD4F8091A203CF
:1046D0009091A303E80FF91F808142E760919B034B
:1046E00090E00E94050C85E680939B03AFEFBFE747
:1046F000E6E1A150B040E040E1F700C000000E94B8
:10470000F60E8111F2C2FFEF2FE332E0F1502040AC
:104710003040E1F700C0000081E00E949E0E209131
:10472000A0033091A1038091A2039091A303129F53
:10473000F001139FF00D1124E856FD4FE80FF91F0B
:10474000618170E0808190E00E94EB0B8091A20378
:104750009091A30301969093A3038093A2034091A9
:10476000A0035091A103149F9001159F300D1124B7
:1047700027513D4FF901E80FF91F8081893709F072
:104780007DC40E94550FD82E0E94CA0E0E94550F5C
:10479000C82E0E94CA0EE12CF12C7724739420912C
:1047A000A0033091A1038091A2039091A303129FD3
:1047B000F001139FF00D1124E856FD4FE80FF91F8B
:1047C0006081A701460F511D460F511DFA01E153AB
:1047D000F84F40814F3F41F48FEFE81AF80A92E01A
:1047E000E916F104E1F64AC4842E912CF401EE0F8F
:1047F000FF1FEE0FFF1FED54F74FE114F10431F4EA
:10480000D0822183828343836D2D05C0C0822183A2
:10481000828343836C2DC40101960E94AC0BF50189
:10482000E80DF91D70822401440C551C440C551CE4
:10483000A0E0B0E0FD01E40DF51DED58F74FE0817B
:10484000F0E0EE0FFF1FED50F74F608170E0218127
:1048500030E0169F4001179F900C1124F401E85698
:10486000FD4FE20FF31FE081F0E0EE0FFF1FE15379
:10487000F84F808190E0418150E08F3F910561F4D5
:10488000F501E40FF51FE081EE2331F0F401E7516B
:10489000FD4FE20FF31F0083F501E80FF91F808140
:1048A0004F3F510531F0882389F0F501E40FF51FE2
:1048B0008081882359F0169FC001179F900D112405
:1048C00087519D4FFC01E20FF31F00831196A43026
:1048D000B10509F0AFCF80CF0E94450F8091A003B2
:1048E0009091A103189FF001199FF00D1124E85633
:1048F000FD4F8091A2039091A303E80FF91F8081DF
:104900004CE660919B0390E00E94050C85E6809345
:104910009B03AFEFBFE7E6E1A150B040E040E1F715
:1049200000C000000E94F60E8111DFC1FFEF2FE3EF
:1049300032E0F15020403040E1F700C0000081E05B
:104940000E949E0E2091A0033091A1038091A203AA
:104950009091A303129FF001139FF00D1124E856CC
:10496000FD4FE80FF91F618170E0808190E00E94A7
:10497000EB0B8091A2039091A30301969093A30364
:104980008093A2034091A0035091A103149F900132
:10499000159F300D112427513D4FF901E80FF91FE4
:1049A0008081893709F06AC30E94550FD82E0E9472
:1049B000CA0E0E94550FC82E0E94CA0EE12CF12C7F
:1049C000772473942091A0033091A1038091A203D6
:1049D0009091A303129FF001139FF00D1124E8564C
:1049E000FD4FE80FF91F6081A701460F511D460FCB
:1049F000511DFA01E153F84F40814F3F41F48FEFD1
:104A0000E81AF80A92E0E916F104E1F637C3842EB9
:104A1000912CF401EE0FFF1FEE0FFF1FED54F74F27
:104A2000E114F10431F4D0822183828343836D2D1C
:104A300005C0C0822183828343836C2DC40101960B
:104A40000E94AC0BF501E80DF91D70822401440CA5
:104A5000551C440C551CA0E0B0E0FD01E40DF51D13
:104A6000ED58F74FE081F0E0EE0FFF1FED50F74FEC
:104A7000608170E0218130E0169F4001179F900C0B
:104A80001124F401E856FD4FE20FF31FE081F0E03E
:104A9000EE0FFF1FE153F84F808190E0418150E01D
:104AA0008F3F910561F4F501E40FF51FE081EE23DE
:104AB00031F0F401E751FD4FE20FF31F0083F501E0
:104AC000E80FF91F80814F3F510531F0882389F0AD
:104AD000F501E40FF51F8081882359F0169FC0016E
:104AE000179F900D112487519D4FFC01E20FF31F7A
:104AF00000831196A430B10509F0AFCF80CF2F5FAE
:104B00003F4F3093A3032093A203FFEF2FE332E044
:104B1000F15020403040E1F700C0000081E00E94E9
:104B20009E0E2091A0033091A1038091A203909149
:104B3000A303129FF001139FF00D1124E856FD4FBF
:104B4000E80FF91F618170E0808190E00E94EB0B1B
:104B50008091A0039091A103189FF001199FF00D7F
:104B60001124E751FD4F8091A2039091A303E80F18
:104B7000F91F8081893709F081C20E94550FD82E14
:104B80000E94CA0E0E94550FC82E0E94CA0EE12C28
:104B9000F12C772473942091A0033091A10380918C
:104BA000A2039091A303129FF001139FF00D112413
:104BB000E856FD4FE80FF91F6081A701460F511D10
:104BC000460F511DFA01E153F84F40814F3F41F428
:104BD0008FEFE81AF80A92E0E916F104E1F64EC206
:104BE000842E912CF401EE0FFF1FEE0FFF1FED54EA
:104BF000F74FE114F10431F4D0822183828343839F
:104C00006D2D05C0C0822183828343836C2DC40136
:104C100001960E94AC0BF501E80DF91D708224018C
:104C2000440C551C440C551CA0E0B0E0FD01E40D03
:104C3000F51DED58F74FE081F0E0EE0FFF1FED504E
:104C4000F74F608170E0218130E0169F4001179F8F
:104C5000900C1124F401E856FD4FE20FF31FE081A0
:104C6000F0E0EE0FFF1FE153F84F808190E04181AB
:104C700050E08F3F910561F4F501E40FF51FE081ED
:104C8000EE2331F0F401E751FD4FE20FF31F0083F3
:104C9000F501E80FF91F80814F3F510531F088235E
:104CA00089F0F501E40FF51F8081882359F0169FE4
:104CB000C001179F900D112487519D4FFC01E20FF9
:104CC000F31F00831196A430B10509F0AFCF80CF58
:104CD000AFEFBFE7E6E1A150B040E040E1F700C030
:104CE00000000E94F60E882399F08091A003909115
:104CF000A103189FF001199FF00D1124E856FD4FF4
:104D00008091A2039091A303E80FF91F0C948E19D0
:104D1000FFEF2FE332E0F15020403040E1F700C0D8
:104D2000000081E00E949E0E2091A0033091A1031B
:104D30008091A2039091A303129FF001139FF00DA5
:104D40001124E856FD4FE80FF91F618170E0808162
:104D500090E00E94EB0B8091A2039091A303019637
:104D60009093A3038093A2034091A0035091A103C9
:104D7000149F9001159F300D112427513D4FF901CB
:104D8000E80FF91F8081893709F078C10E94550F1B
:104D9000D82E0E94CA0E0E94550FC82E0E94CA0E1D
:104DA000E12CF12C772473942091A0033091A1037E
:104DB0008091A2039091A303129FF001139FF00D25
:104DC0001124E856FD4FE80FF91F6081A701460F37
:104DD000511D460F511DFA01E153F84F40814F3FDD
:104DE00041F48FEFE81AF80A92E0E916F104E1F6CF
:104DF00045C1842E912CF401EE0FFF1FEE0FFF1F13
:104E0000ED54F74FE114F10431F4D0822183828311
:104E100043836D2D05C0C0822183828343836C2D23
:104E2000C40101960E94AC0BF501E80DF91D7082DA
:104E30002401440C551C440C551CA0E0B0E0FD01BD
:104E4000E40DF51DED58F74FE081F0E0EE0FFF1F88
:104E5000ED50F74F608170E0218130E0169F4001F6
:104E6000179F900C1124F401E856FD4FE20FF31F39
:104E7000E081F0E0EE0FFF1FE153F84F808190E0FA
:104E8000418150E08F3F910561F4F501E40FF51F7A
:104E9000E081EE2331F0F401E751FD4FE20FF31F03
:104EA0000083F501E80FF91F80814F3F510531F074
:104EB000882389F0F501E40FF51F8081882359F0DC
:104EC000169FC001179F900D112487519D4FFC0123
:104ED000E20FF31F00831196A430B10509F0AFCFA4
:104EE00080CF97FFCBC080919B038E3609F0D5C051
:104EF0000E94450F8091A0039091A103189FF0019B
:104F0000199FF00D1124E856FD4F8091A203909156
:104F1000A303E80FF91F80814CE660919B0390E0AA
:104F20000E94050CA7E7A0939B03BFEFEFE7F6E114
:104F3000B150E040F040E1F700C000000E94F60EE2
:104F4000882359F18091A0039091A103189FF0014B
:104F5000199FF00D1124E856FD4F8091A203909106
:104F6000A303E80FF91F808160919B0390E00E94EA
:104F7000290C8091A0039091A103189FF001199F23
:104F8000F00D11248091A2039091A303E80FF91F63
:104F9000E75CFC4F60820C94A6192FEF3FE382E0A0
:104FA000215030408040E1F700C0000081E00E94C5
:104FB0009E0E2091A0033091A1038091A2039091B5
:104FC000A303129FF001139FF00D1124E856FD4F2B
:104FD000E80FF91FDF0111976C9170E0808190E07C
:104FE0000E94EB0B8091A2039091A30301979093F1
:104FF000A3038093A2034091A0035091A103149FA7
:105000009001159F300D112427513D4FF901E80FF4
:10501000F91F8081893791F50E94550FD82E0E9483
:10502000CA0E0E94550FC82E0E94CA0EE12CF12C08
:10503000772473942091A0033091A1038091A2035F
:105040009091A303129FF001139FF00D1124E856D5
:10505000FD4FE80FF91F6081A701460F511D460F54
:10506000511DFA01E153F84F40814F3FE9F49FEFA2
:10507000E91AF90AA2E0EA16F104E1F6E12CF12CB2
:105080000C94A9199FEF291A390AA4E02A163104B1
:1050900011F00C94D6180C94EE18833709F494C1CF
:1050A000853609F0A7C278C0842E912CF401EE0F4A
:1050B000FF1FEE0FFF1FED54F74FE114F10431F421
:1050C000D0822183828343836D2D05C0C0822183DA
:1050D000828343836C2DC40101960E94AC0BF501C1
:1050E000E80DF91D70822401440C551C440C551C1C
:1050F000A0E0B0E0FD01E40DF51DED58F74FE081B3
:10510000F0E0EE0FFF1FED50F74F608170E021815E
:1051100030E0169F4001179F900C1124F401E856CF
:10512000FD4FE20FF31FE081F0E0EE0FFF1FE153B0
:10513000F84F808190E0418150E08F3F910561F40C
:10514000F501E40FF51FE081EE2331F0F401E751A2
:10515000FD4FE20FF31F0083F501E80FF91F808177
:105160004F3F510531F0882389F0F501E40FF51F19
:105170008081882359F0169FC001179F900D11243C
:1051800087519D4FFC01E20FF31F00831196A4305D
:10519000B10509F0AFCF6BCF0E94450F0E94450FBC
:1051A0008091A0039091A103189FF001199FF00D29
:1051B0001124E856FD4F8091A2039091A303E80FBC
:1051C000F91F808141E660919B0390E00E94050CED
:1051D000B7E7B0939B03EFEFFFE726E1E150F04024
:1051E0002040E1F700C000000E94F60E8111AACE17
:1051F0003FEF8FE392E0315080409040E1F700C0F4
:10520000000081E00E949E0E2091A0033091A10336
:105210008091A2039091A303129FF001139FF00DC0
:105220001124E856FD4FE80FF91FDF0111976C912B
:1052300070E0808190E00E94EB0B8091A20390913E
:10524000A30301979093A3038093A2034091A0032B
:105250005091A103149F9001159F300D11242751E7
:105260003D4FF901E80FF91F8081893709F006CF1A
:105270000E94550FD82E0E94CA0E0E94550FC82EAC
:105280000E94CA0EE12CF12C772473942091A00384
:105290003091A1038091A2039091A303129FF0018A
:1052A000139FF00D1124E856FD4FE80FF91F6081A0
:1052B000A701460F511D460F511DFA01E153F84F4A
:1052C00040814F3F49F4AFEFEA1AFA0AB2E0EB1619
:1052D000F10409F4D3CEDACF842E912CF401EE0F31
:1052E000FF1FEE0FFF1FED54F74FE114F10431F4EF
:1052F000D0822183828343836D2D05C0C0822183A8
:10530000828343836C2DC40101960E94AC0BF5018E
:10531000E80DF91D70822401440C551C440C551CE9
:10532000A0E0B0E0FD01E40DF51DED58F74FE08180
:10533000F0E0EE0FFF1FED50F74F608170E021812C
:1053400030E0169F4001179F900C1124F401E8569D
:10535000FD4FE20FF31FE081F0E0EE0FFF1FE1537E
:10536000F84F808190E0418150E08F3F910561F4DA
:10537000F501E40FF51FE081EE2331F0F401E75170
:10538000FD4FE20FF31F0083F501E80FF91F808145
:105390004F3F510531F0882389F0F501E40FF51FE7
:1053A0008081882359F0169FC001179F900D11240A
:1053B00087519D4FFC01E20FF31F00831196A4302B
:1053C000B10509F0AFCF7FCF0E944D0F8091A003B0
:1053D0009091A103189FF001199FF00D1124E85638
:1053E000FD4F8091A2039091A303E80FF91F8081E4
:1053F00042E760919B0390E00E94050CE7E7E09391
:105400009B03FFEF2FE736E1F15020403040E1F7FA
:1054100000C000000E94F60E811194CD8FEF9FE333
:10542000A2E081509040A040E1F700C0000081E080
:105430000E949E0E2091A0033091A1038091A203AF
:105440009091A303129FF001139FF00D1124E856D1
:10545000FD4FE80FF91FDF0111976C9170E080811B
:1054600090E00E94EB0B8091A2039091A30301971F
:105470009093A3038093A2034091A0035091A103B2
:10548000149F9001159F300D112427513D4FF901B4
:10549000E80FF91F8081893709F0F0CD0E94550F80
:1054A000D82E0E94CA0E0E94550FC82E0E94CA0E06
:1054B000E12CF12C772473942091A0033091A10367
:1054C0008091A2039091A303129FF001139FF00D0E
:1054D0001124E856FD4FE80FF91F6081A701460F20
:1054E000511D460F511DFA01E153F84F40814F3FC6
:1054F00049F4BFEFEB1AFB0AE2E0EE16F10409F4FF
:10550000BDCDDACF842E912CF401EE0FFF1FEE0FEC
:10551000FF1FED54F74FE114F10431F4D0822183E1
:10552000828343836D2D05C0C082218382834383A0
:105530006C2DC40101960E94AC0BF501E80DF91D1C
:1055400070822401440C551C440C551CA0E0B0E0B2
:10555000FD01E40DF51DED58F74FE081F0E0EE0F91
:10556000FF1FED50F74F608170E0218130E0169F02
:105570004001179F900C1124F401E856FD4FE20FF3
:10558000F31FE081F0E0EE0FFF1FE153F84F808141
:1055900090E0418150E08F3F910561F4F501E40F07
:1055A000F51FE081EE2331F0F401E751FD4FE20FEA
:1055B000F31F0083F501E80FF91F80814F3F51056C
:1055C00031F0882389F0F501E40FF51F80818823ED
:1055D00059F0169FC001179F900D112487519D4FC0
:1055E000FC01E20FF31F00831196A430B10509F00E
:1055F000AFCF7FCFFFEF2FE736E1F15020403040B3
:10560000E1F700C000000E94F60E81119BCC8FEFE5
:105610009FE3A2E081509040A040E1F700C000006D
:1056200081E00E949E0E2091A0033091A103809101
:10563000A2039091A303129FF001139FF00D112478
:10564000E856FD4FE80FF91FDF0111976C9170E0EC
:10565000808190E00E94EB0B8091A2039091A303C4
:1056600001979093A3038093A2034091A0035091CC
:10567000A103149F9001159F300D112427513D4F18
:10568000F901E80FF91F8081893709F0F7CC0E94F2
:10569000550FD82E0E94CA0E0E94550FC82E0E9488
:1056A000CA0EE12CF12C772473942091A003309141
:1056B000A1038091A2039091A303129FF001139F75
:1056C000F00D1124E856FD4FE80FF91F6081A70186
:1056D000460F511D460F511DFA01E153F84F40810D
:1056E0004F3F49F4BFEFEB1AFB0AE2E0EE16F1047C
:1056F00009F4C4CCDACF842E912CF401EE0FFF1FF5
:10570000EE0FFF1FED54F74FE114F10431F4D08296
:105710002183828343836D2D05C0C08221838283D0
:1057200043836C2DC40101960E94AC0BF501E80D7A
:10573000F91D70822401440C551C440C551CA0E03A
:10574000B0E0FD01E40DF51DED58F74FE081F0E00C
:10575000EE0FFF1FED50F74F608170E0218130E0C8
:10576000169F4001179F900C1124F401E856FD4F3D
:10577000E20FF31FE081F0E0EE0FFF1FE153F84F5F
:10578000808190E0418150E08F3F910561F4F50107
:10579000E40FF51FE081EE2331F0F401E751FD4FF6
:1057A000E20FF31F0083F501E80FF91F80814F3FDF
:1057B000510531F0882389F0F501E40FF51F808150
:1057C000882359F0169FC001179F900D112487510F
:1057D0009D4FFC01E20FF31F00831196A430B10529
:1057E00009F0AFCF7FCF0E94860180E090E008955E
:1057F000AA1BBB1B51E107C0AA1FBB1FA617B707F7
:1058000010F0A61BB70B881F991F5A95A9F7809512
:105810009095BC01CD01089597FB072E16F40094D6
:1058200007D077FD09D00E94F82B07FC05D03EF485
:10583000909581959F4F0895709561957F4F08953C
:105840005058BB27AA270E94382C0C94B22D0E94D6
:10585000A42D38F00E94AB2D20F039F49F3F19F4AD
:1058600026F40C94A12D0EF4E095E7FB0C949B2DEF
:10587000E92F0E94C32D58F3BA17620773078407F4
:10588000950720F079F4A6F50C94E52D0EF4E0953B
:105890000B2EBA2FA02D0B01B90190010C01CA01EA
:1058A000A0011124FF27591B99F0593F50F4503E95
:1058B00068F11A16F040A22F232F342F4427585F87
:1058C000F3CF469537952795A795F0405395C9F79F
:1058D0007EF41F16BA0B620B730B840BBAF0915057
:1058E000A1F0FF0FBB1F661F771F881FC2F70EC0F6
:1058F000BA0F621F731F841F48F4879577956795C9
:10590000B795F7959E3F08F0B0CF9395880F08F0B4
:105910009927EE0F9795879508950E94772D08F4A3
:1059200081E008950E94A62C0C94B22D0E94AB2D0C
:1059300058F00E94A42D40F029F45F3F29F00C9408
:105940009B2D51110C94E62D0C94A12D0E94C32D7A
:1059500068F39923B1F3552391F3951B550BBB279E
:10596000AA2762177307840738F09F5F5F4F220FE3
:10597000331F441FAA1FA9F335D00E2E3AF0E0E8DA
:1059800032D091505040E695001CCAF72BD0FE2F24
:1059900029D0660F771F881FBB1F261737074807B8
:1059A000AB07B0E809F0BB0B802DBF01FF27935870
:1059B0005F4F3AF09E3F510578F00C949B2D0C946C
:1059C000E62D5F3FE4F3983ED4F38695779567958F
:1059D000B795F7959F5FC9F7880F911D96958795A5
:1059E00097F90895E1E0660F771F881FBB1F6217C4
:1059F00073078407BA0720F0621B730B840BBA0B82
:105A0000EE1F88F7E09508950E940B2D6894B11160
:105A10000C94E62D08950E94CB2D88F09F5798F0A6
:105A2000B92F9927B751B0F0E1F0660F771F881FA3
:105A3000991F1AF0BA95C9F714C0B13091F00E94BD
:105A4000E52DB1E008950C94E52D672F782F882778
:105A5000B85F39F0B93FCCF3869577956795B395E4
:105A6000D9F73EF490958095709561957F4F8F4F53
:105A70009F4F0895E89409C097FB3EF49095809558
:105A8000709561957F4F8F4F9F4F9923A9F0F92F04
:105A900096E9BB279395F695879577956795B79582
:105AA000F111F8CFFAF4BB0F11F460FF1BC06F5F68
:105AB0007F4F8F4F9F4F16C0882311F096E911C07A
:105AC000772321F09EE8872F762F05C0662371F09B
:105AD00096E8862F70E060E02AF09A95660F771FAF
