:100000000C94C8000C94F5040C94E9000C94E900DD
:100010000C94E9000C945D070C9438070C94E900EB
:100020000C94E9000C94E9000C94E9000C94E900AC
:100030000C94E9000C94E9000C94E9000C944E0D2A
:100040000C94E9000C94E9000C94E9000C94E9008C
:100050000C94E9000C94E9000C94E9000C94E9007C
:100060000C94E9000C9404090C943D090C94E900EB
:100070000C94E9000C94E9000C94E9000C94E9005C
:100080000C94E9000C94E9000C94E9000C94E9004C
:100090000C94E9000C94E9000C94E9000C94E9003C
:1000A0000C94E9000C94E9000C94E9000C94E9002C
:1000B0000C94E9000C94E9000C94E9000C94E9001C
:1000C0000C94E9000C94E9000C94E9000C94E9000C
:1000D0000C94E9000C94E9000C940E0A0C94470A65
:1000E0000C94E900740F790F870F990F9E0FAC0FD6
:1000F000BE0F07634236B79BD8A71A39685618AEA9
:10010000BAAB558C1D3CB7CC5763BD6DEDFD753E4C
:10011000F6177231BF000000803F08000000BE9259
:100120002449123EABAAAA2ABECDCCCC4C3E00003C
:100130000080BEABAAAAAA3E00000000BF000000DB
:10014000803F0000000000084178D3BB4387D113F3
:100150003D190E3CC3BD4282AD2B3E68EC8276BE9B
:10016000D98FE1A93E4C80EFFFBE01C4FF7F3F0065
:10017000000000000C94AC0F0C94990F0C94790FB4
:100180000C94870F0C949E0F0C94740F0C94BE0F5C
:1001900011241FBECFEFD1E2DEBFCDBF00E00CBF08
:1001A00017E2A0E0B2E0EEE6F3E300E00BBF02C02E
:1001B00007900D92AE3AB107D9F72BE2AEEAB7E25B
:1001C00001C01D92A633B207E1F70E94E7120C941A
:1001D000B5190C9400000E945C040E9463040E9404
:1001E000FA010E946F020E941D050E942E050E94C6
:1001F000E5060E94EC060E94F7060E94FE060E9499
:100200000C070E94C00C0C94FC08CF9381E00E9464
:10021000DF0F61E776E280E092E00E94B11680E0B5
:1002200092E00E94020981E00E94DF0F6BE776E214
:1002300080E092E00E94B11680E092E00E94020904
:100240006FEA8FEA0E94D6088AE590E00E94920841
:1002500065E876E280E092E00E94B11680E092E0EC
:100260000E94020968EC88EC0E94D60884EB90E0BA
:100270000E947E086AE976E280E092E00E94B11670
:1002800080E092E00E9402090E949606C82F0E9418
:10029000FA080E949E028C2F0E94CB02C23519F4EC
:1002A0000E94A00C07C0C73419F40E94A80C02C019
:1002B0000E94B00C84EB90E00E94880863EB76E229
:1002C00080E092E00E94B11680E092E00E94020974
:1002D0000E940B1061EC76E280E092E00E94B11681
:1002E00080E092E00E94020981E00E94DF0F61E756
:1002F00076E280E092E00E94B11680E092E00E94F7
:10030000020981E00E94DF0F6CEC76E280E092E06F
:100310000E94B11680E092E00E9402096BEE76E244
:1003200080E092E00E94B11680E092E0CF910C94C0
:100330000703CF93DF938091B227811117C00E94EA
:10034000C9100E94BC10803361F4C091B027D091D5
:10035000B1270E94C910BE010E94C7110E942B1133
:1003600023C00E94D4101092B22721C08091B027E0
:100370009091B1270E94E6109093AF278093AE270B
:10038000BC018091B0279091B1270E944B120E942E
:10039000371081E00E94DF0F8091AE279091AF2748
:1003A0009093B1278093B02781E08093B22780E0BB
:1003B000DF91CF9108950E94EB000E945F0E6CEDDB
:1003C00076E280E092E00E94B11680E092E00E9426
:1003D00002090E94400B0E9405010E949E0266EEE7
:1003E00076E280E092E00E94B11680E092E00E9406
:1003F0000703FFCF87B1876087B987B1806F87B95F
:1004000088B1887F88B988B18F7088B9089586E6E9
:100410009EE00197F1F700004098419880E388B989
:10042000429AEFEFF7E43197F1F700C000004298ED
:10043000E6E6FEE03197F1F700004098419888B970
:10044000429AEFEFF7E43197F1F700C000004298CD
:10045000E6E6FEE03197F1F700004098419888B950
:10046000429A8FEF97E40197F1F700C0000042989D
:10047000E6E6FEE03197F1F700004098419880E20F
:1004800088B9429A8FEF97E40197F1F700C0000016
:100490004298089598B19F7098B998B1282F207FFD
:1004A000922B98B940984198429AEFEFF7E4319730
:1004B000F1F700C00000429898B19F7098B998B1C8
:1004C0008295807F892B88B940984198429A8FEF16
:1004D00097E40197F1F700C00000429808950E9448
:1004E000070286E69EE00197F1F7000088E20E948D
:1004F0004A0281E00E944A0286E00E944A028EE09F
:100500000E944A0280E80C944A0280E80C944A0255
:10051000982F862F923059F01CF4913031F00895C5
:10052000933039F0943039F00895815805C08154E2
:1005300003C08D5601C08D520C944A0281E00C9488
:100540004A02CF93C42F0E94880288B18F7088B965
:1005500088B19C2F907F892B88B9409A4198429A04
:100560008FEF97E40197F1F700C000004298C29521
:10057000C07F88B18F7088B988B1C82BC8B9409A3C
:100580004198429A8FEF97E40197F1F700C000007D
:100590004298CF91089598B19F7098B998B1282F3B
:1005A000207F922B98B9409A4198429AEFEFF7E456
:1005B0003197F1F700C0000042988295807F98B192
:1005C0009F7098B998B1892B88B9409A4198429AFE
:1005D0008FEF97E40197F1F700C00000429808956B
:1005E0000F931F93CF93DF93D82FC62F8A01F80163
:1005F00041918F01442331F06C2F8D2F0E94A10275
:10060000CF5FF5CFDF91CF911F910F910895CF93D9
:10061000DF93EC018991882319F00E94CB02FACF75
:10062000DF91CF910895EF92FF920F931F93CF9395
:10063000DF93D82FC62F8A0179010E94880217FF05
:1006400009C01195019511094DE26C2F8D2F0E9463
:10065000A102CF5FDD2311F0C11103C00E9485020A
:1006600004C06C2F8D2F0E94880285E0E816F104EB
:1006700009F07FC0C80160E177E20E940013AB017E
:10068000405D5F4F5093B4274093B3276C2F8D2F5D
:100690000E94A102CF5FC80168EE73E00E940013C0
:1006A000CB017093BE276093BD276AE070E00E9483
:1006B000EC12AC01405D5F4F5093B6274093B527D5
:1006C0006C2F8D2F0E94A102CF5FC80164E670E0FD
:1006D0000E940013CB017093BE276093BD276AE090
:1006E00070E00E94EC12AC01405D5F4F5093B82760
:1006F0004093B7276C2F8D2F0E94A102CF5F2AE075
:1007000030E0C801B9010E940013CB017093BE27ED
:100710006093BD27B9010E94EC12AC01405D5F4FB0
:100720005093BA274093B9276C2F8D2F0E94A102B6
:10073000CF5FC8016AE070E00E940013AC01405D29
:100740005F4F5093BC274093BB276C2F8D2F0E9487
:10075000A102CF5F86E0E816F104FCF045E46C2FBF
:100760008D2FDF91CF911F910F91FF90EF900C94FF
:10077000A10284E0E816F10409F48DCF83E0E816C5
:10078000F10409F4A2CF82E0E816F10409F4B7CF2E
:1007900081E0E816F104F1F6CCCFDF91CF911F9103
:1007A0000F91FF90EF9008950F931F93CF93DF93D6
:1007B0008A01E901882311F0611103C00E948502BA
:1007C00002C00E948802C530D10509F061C0C8018D
:1007D00060E177E20E94EC12CB01C0969093B427BF
:1007E0008093B3270E94CB02C80168EE73E00E9499
:1007F000EC12CB017093BE276093BD276AE070E0D6
:100800000E94EC12C0969093B6278093B5270E9461
:10081000CB02C80164E670E00E94EC12CB01709339
:10082000BE276093BD276AE070E00E94EC12C0967C
:100830009093B8278093B7270E94CB022AE030E03C
:10084000C801B9010E94EC12CB017093BE276093DE
:10085000BD27B9010E94EC12C0969093BA278093ED
:10086000B9270E94CB02C8016AE070E00E94EC1236
:10087000C0969093BC278093BB270E94CB022697FB
:10088000B4F085E4DF91CF911F910F910C94CB02CE
:10089000C430D10509F4A8CFC330D10509F4B9CFCC
:1008A000C230D10559F2C130D10549F7DCCFDF9113
:1008B000CF911F910F91089510BA11BA10920701AC
:1008C000109208010895EAE7F0E08081866880834D
:1008D000808186788083EBE7F0E08081807B808375
:1008E000ECE7F0E080818076808380818064808383
:1008F00080818062808380B7806880BF089588305F
:1009000028F090917B00986090937B0090917C0000
:100910008770892B80937C0080917A00806480931B
:100920007A0080917A0084FFFCCF809179009091C9
:100930007A00906190937A0090917B00977F9093DA
:100940007B0090917C00907E90937C000895682FAE
:1009500070E080E090E00E9431142FEE39EC43E922
:100960005FE30E942C159B01AC0160E070E080E821
:100970009FE30E9489132AE939EF4EE255E40E9471
:10098000BF1420E030E040E251E40E94BF140E9416
:10099000FB13CB016132734010F080E293E00895C5
:1009A000CF93DF93C82FD62F842F0E947F0480938C
:1009B000CC27482F50E023E030E06D2F8C2FDF91C3
:1009C000CF910C9413038AB18E6F8AB9589A089507
:1009D0000E94FA010C94E304F894E9E6F0E08081C7
:1009E00082608083E89A789408951F920F920FB6E0
:1009F0000F9211248F939F93AF93BF938091D92728
:100A00009091DA27A091DB27B091DC270196A11DF8
:100A1000B11D8093D9279093DA27A093DB27B09359
:100A2000DC27BF91AF919F918F910F900FBE0F90D8
:100A30001F9018955C9A5D9A0895F8940E94E304BB
:100A40000E94EC0478940C941A055E985F980895BF
:100A50005E9A5F9A08955E985F9A08955E9A5F988D
:100A600008950E9425051092D9271092DA27109236
:100A7000DB271092DC272FEF8FE794E02150804096
:100A80009040E1F700C000008091D9279091DA27CB
:100A9000A091DB27B091DC278093D5279093D627B0
:100AA000A093D727B093D82761E081E00E94880205
:100AB00065EF76E282E292E00E94B11682E292E075
:100AC0000E9407034091D5275091D6276091D727E0
:100AD0007091D82725E030E061E082E00E94D403E5
:100AE0002FEF8FEF9CE2215080409040E1F700C053
:100AF000000081E00C944A020E9428051092D92738
:100B00001092DA271092DB271092DC272FEF8FE765
:100B100094E0215080409040E1F700C000008091B7
:100B2000D9279091DA27A091DB27B091DC27809319
:100B3000CD279093CE27A093CF27B093D02761E005
:100B400081E00E94880260E077E282E292E00E9407
:100B5000B11682E292E00E9407034091CD275091A6
:100B6000CE276091CF277091D02725E030E061E05B
:100B700082E00E94D4032FEF8FEF9CE2215080404F
:100B80009040E1F700C0000081E00C944A020E940E
:100B90002B051092D9271092DA271092DB2710929A
:100BA000DC272FEF8FE794E0215080409040E1F761
:100BB00000C000008091D9279091DA27A091DB270F
:100BC000B091DC278093D1279093D227A093D3278D
:100BD000B093D42761E081E00E9488026DE077E263
:100BE00082E292E00E94B11682E292E00E94070344
:100BF0004091D1275091D2276091D3277091D4276B
:100C000025E030E061E082E00E94D4032FEF8FEF17
:100C10009CE2215080409040E1F700C0000081E05C
:100C20000C944A020E9425051092D9271092DA27C7
:100C30001092DB271092DC272FEF8FE794E02150F2
:100C400080409040E1F700C000008091D92790914A
:100C5000DA27A091DB27B091DC278093D5279093EA
:100C6000D627A093D727B093D8276091D527709126
:100C7000D6278091D7279091D82708950E942805DC
:100C80001092D9271092DA271092DB271092DC27D6
:100C90002FEF8FE794E0215080409040E1F700C0B3
:100CA00000008091D9279091DA27A091DB27B0919D
:100CB000DC278093CD279093CE27A093CF27B093A6
:100CC000D0276091CD277091CE278091CF2790912A
:100CD000D02708950E942B051092D9271092DA2769
:100CE0001092DB271092DC272FEF8FE794E0215042
:100CF00080409040E1F700C000008091D92790919A
:100D0000DA27A091DB27B091DC278093D12790933D
:100D1000D227A093D327B093D4276091D127709185
:100D2000D2278091D3279091D42708958F929F92B4
:100D3000AF92BF92CF92DF92EF92FF920E94120683
:100D40006B017C010E946A064B015C010E943E0619
:100D500027E0C21626E1D206E104F10430F0623049
:100D600022E172078105910500F58C149D04AE0403
:100D7000BF0428F46C157D058E059F05C0F0C814CE
:100D8000D904EA04FB0428F4681579058A059B0553
:100D900080F086169706A806B90668F4C616D70628
:100DA000E806F90640F487E407C087E505C082E558
:100DB00003C082E401C080E3FF90EF90DF90CF900A
:100DC000BF90AF909F908F90089581B18F6081B94F
:100DD00082B1807F82B90895EAE0F1E08081886184
:100DE0008083EBE0F1E080818861808308958DB19C
:100DF0008F7C8DB98EB180638EB90895F8948DB3D0
:100E000080638DBBEAE6F0E080818A608083808128
:100E10008A7F808378940895E1E2F1E010828FEF79
:100E20008093250191E090932401109229018093F1
:100E3000280110922B0180932A01A0E2B1E08C914D
:100E4000806A8C938C918F7A8C938C9181608C9337
:100E50008C918D7F8C9380818860808380818F7E50
:100E6000808380818360808380818B7F80830895ED
:100E70001F920F920FB60F9211248F939F93AF93EF
:100E8000BF938091DF279091E027A091E127B09157
:100E9000E2270196A11DB11D8093DF279093E027E3
:100EA000A093E127B093E227BF91AF919F918F91DB
:100EB0000F900FBE0F901F9018951F920F920FB6B4
:100EC0000F9211248F939F93AF93BF938091E32749
:100ED0009091E427A091E527B091E6270196A11D06
:100EE000B11D8093E3279093E427A093E527B09367
:100EF000E627BF91AF919F918F910F900FBE0F90FA
:100F00001F90189582B1867F82B982B1866082B9BE
:100F1000089582B1897F82B982B1896082B90895CA
:100F200082B1857F82B982B1856082B9089582B12C
:100F30008A7F82B982B18A6082B9089582B1887F3E
:100F400082B9129A089582B1827F82B9119A089566
:100F500082B1817F82B9109A089582B1887F82B967
:100F6000139A089582B1807F82B908950F931F93D9
:100F7000813099F41092DF271092E0271092E12738
:100F80001092E2271092E3271092E4271092E527AF
:100F90001092E62780E090E029C04091DF27509131
:100FA000E0276091E1277091E2278091E3279091FB
:100FB000E427A091E527B091E6278A019B01080F5D
:100FC000191F2A1F3B1FC901B8010E94311428E4D0
:100FD00031EE42E850E40E94BF1420E030E040E0EF
:100FE0005FE30E94BF140E94FB13CB011F910F917E
:100FF0000895BC0180E090E00E94311428E431EEB5
:1010000042E850E40E9489130E940214CB01A0E040
:10101000B0E01092DF271092E0271092E1271092A3
:10102000E2271092E3271092E4271092E52710920E
:10103000E6274091DF275091E0276091E1277091EA
:10104000E227481759076A077B0798F44091E3277E
:101050005091E4276091E5277091E62748175907DA
:101060006A077B0730F4E6E6FEE03197F1F700000F
:10107000E0CF0C94B2070F931F93BC0180E090E087
:101080000E94311425EE30ED4AEA50E40E948913A3
:101090000E9402141092DF271092E0271092E1279D
:1010A0001092E2271092E3271092E4271092E5278E
:1010B0001092E6270091DF271091E0272091E12789
:1010C0003091E227061717072807390798F400918F
:1010D000E3271091E4272091E5273091E6270617B2
:1010E00017072807390730F4E6E6FEE03197F1F7F5
:1010F0000000E0CF1F910F910C94B207CF93DF93C4
:10110000EC010E948207CE01DF91CF910C943B0845
:10111000CF93DF93EC010E948907CE01DF91CF913D
:101120000C943B08CF93DF93EC010E949007CE0113
:10113000DF91CF910C94F907CF93DF93EC010E94DC
:101140009707CE01DF91CF910C94F907CF93DF93EE
:10115000EC010E949E07CE01880F991FDF91CF916D
:101160000C94F907CF93DF93EC010E94A307CE0103
:10117000880F991FDF91CF910C94F907CF93DF93DC
:10118000EC010E94A807CE01880F991FDF91CF9133
:101190000C94F907CF93DF93EC010E94AD07CE01C9
:1011A000880F991FDF91CF910C94F9078093280144
:1011B00060932A010895E1E0F1E0808180628083FC
:1011C000E2E0F1E08081806280830895E2E0F1E076
:1011D00080818F7D80830895E2E0F1E080818062EC
:1011E000808308950E94920A911102C0811108958E
:1011F0008FEF08950C94CF0A87E090E00E94770A61
:101200000C94110B0C94E80A1F920F920FB60F92D8
:1012100011240BB60F922F933F934F935F938F93AD
:101220009F93EF93FF932091C0003091C6002871E7
:101230008091F32890E001968F7799274091F228CA
:1012400050E08417950739F08093F328FC01EA50A9
:10125000F74D308301C022E02093F128FF91EF91F8
:101260009F918F915F914F913F912F910F900BBE66
:101270000F900FBE0F901F9018951F920F920FB6F0
:101280000F9211240BB60F928F939F93EF93FF93BE
:101290009091F5288091F428981779F08091F4289E
:1012A00090E001968F7799278093F428FC01EA5803
:1012B000F64D80818093C60005C08091C1008F7D6E
:1012C0008093C100FF91EF919F918F910F900BBE82
:1012D0000F900FBE0F901F901895F8941092F5285C
:1012E0001092F4281092F3281092F228789497FF25
:1012F00004C022E02093C0009F779093C5008093A4
:10130000C40088E98093C10086E08093C2000895FC
:10131000F8949091F3288091F228981304C078945F
:1013200080E091E0089578948091F22890E0019611
:101330008F7799278093F228FC01EA50F74D20819E
:101340008091F12890E0982F8827820F911D0895B1
:10135000F8949091F3288091F228981304C078941F
:1013600080E091E008957894E091F228F0E03196E1
:10137000EF77FF27EA50F74D20818091F12890E028
:10138000982F8827820F911D08952091F52830E02D
:101390002F5F3F4F2F7733274091F42850E02417D9
:1013A0003507D1F3F901EA58F64D80832093F528EB
:1013B0008091C10080628093C1000895CF93DF9334
:1013C000EC018991882319F00E94C509FACFDF91B9
:1013D000CF910895CF93DF93FC018491EF01219683
:1013E000882321F00E94C509FE01F7CFDF91CF913C
:1013F0000895F8948091F3282091F228789490E051
:1014000080589F4F821B91098F7799270895F894F0
:101410008091F2288093F328789408951F920F9278
:101420000FB60F9211240BB60F922F933F934F9349
:101430005F938F939F93EF93FF93209130013091AF
:10144000360128718091EE2790E001968F779927D9
:101450004091ED2750E08417950739F08093EE27EF
:10146000FC01EF50F84D308301C022E02093EC27BF
:10147000FF91EF919F918F915F914F913F912F91AC
:101480000F900BBE0F900FBE0F901F9018951F92DC
:101490000F920FB60F9211240BB60F928F939F935A
:1014A000EF93FF939091F0278091EF27981779F0B1
:1014B0008091EF2790E001968F7799278093EF270F
:1014C000FC01EF58F74D80818093360105C0809173
:1014D00031018F7D80933101FF91EF919F918F9129
:1014E0000F900BBE0F900FBE0F901F901895F894A1
:1014F0001092F0271092EF271092EE271092ED270E
:10150000789497FF04C022E0209330019F77909356
:1015100035018093340188E98093310186E080931E
:1015200032010895F8949091EE278091ED27981359
:1015300004C0789480E091E0089578948091ED273C
:1015400090E001968F7799278093ED27FC01EF506B
:10155000F84D20818091EC2790E0982F8827820F0A
:10156000911D0895F8949091EE278091ED2798139E
:1015700004C0789480E091E008957894E091ED279C
:10158000F0E03196EF77FF27EF50F84D2081809102
:10159000EC2790E0982F8827820F911D08952091C5
:1015A000F02730E02F5F3F4F2F7733274091EF2711
:1015B00050E024173507D1F3F901EF58F74D808338
:1015C0002093F0278091310180628093310108954A
:1015D000CF93DF93EC018991882319F00E94CF0A01
:1015E000FACFDF91CF910895CF93DF93FC018491DF
:1015F000EF012196882321F00E94CF0AFE01F7CF48
:10160000DF91CF910895F8948091EE272091ED27F6
:10161000789490E080589F4F821B91098F7799278B
:101620000895F8948091ED278093EE27789408959B
:10163000F894E1EBF0E0108282E88093B200B89871
:10164000A0E7B0E08C9181608C931092B000808113
:1016500084608083789408951092F7291092F62977
:101660001092F9291092F829E1EBF0E08081816075
:1016700080830895E1EBF0E080818E7F8083089580
:10168000CF93DF930E94F2088F3F09F414C1833592
:1016900009F062C069E177E280E492E00E94B1164D
:1016A00080E492E00E9402092FEF8FE794E021503E
:1016B00080409040E1F700C000000E94F2088F3F98
:1016C00009F4F9C0282F082E000C330B3093670261
:1016D000209366023F938F9385EA97E29F938F93BF
:1016E000C0E4D2E0DF93CF930E94CC16CE010E94DB
:1016F00002099FEF2FE784E0915020408040E1F7FE
:1017000000C000000E94F2080F900F900F900F9001
:101710000F900F908F3F09F4CEC0282F082E000C99
:10172000330B30936502209364023F938F938BE1D8
:1017300097E29F938F93DF93CF930E94CC16CE01B5
:101740000E9402090E942C0B1092032A1092022A76
:1017500081E08093012A55C0863409F0ACC08FEF38
:101760009FE724E0815090402040E1F700C0000056
:101770000E94F208C82F60E277E280E492E00E94C3
:10178000B11680E492E00E940209CD3409F042C013
:1017900062E277E280E492E00E94B11680E492E097
:1017A0000E9402098FEF9FE724E081509040204083
:1017B000E1F700C000000E94F2088F3F09F47BC0EF
:1017C000282F082E000C330B3093650220936402FF
:1017D0003F938F938CE197E29F938F9380E492E005
:1017E0009F938F930E94CC1680E492E00E9402099E
:1017F0000E942C0B81E08093022A1092032A1092FF
:10180000012A8093002A0F900F900F900F900F9055
:101810000F9051C0CD3609F04EC065E277E280E40A
:1018200092E00E94B11680E492E00E9402098FEFDC
:101830009FE724E0815090402040E1F700C0000085
:101840000E94F2088F3FB9F1282F082E000C330BAD
:1018500030936502209364023F938F938CE197E26B
:101860009F938F9380E492E09F938F930E94CC1676
:1018700080E492E00E94020968E277E280E492E06C
:101880000E94B11680E492E00E9402090E942C0B93
:1018900081E08093032A1092022A1092012A8093F9
:1018A000002A0F900F900F900F900F900F90DF91E4
:1018B000CF910C94110BDF91CF910895CF93C091EC
:1018C000002ACC2361F060E377E280E492E00E949A
:1018D000B11680E492E00E9402091092002A8C2F37
:1018E000CF9108958091660290916702089580914A
:1018F000012A08958091022A08958091032A08956B
:10190000809164029091650208956DE377E280E42E
:1019100092E00E94B11680E492E00C94020966E421
:1019200077E280E492E00E94B11680E492E00E94A7
:1019300002090C943A0B8091F6299091F7290895A9
:101940001092FF2981E08093FE291092FD290895CD
:1019500081E08093FF291092FE291092FD290895BD
:101960001092FF291092FE2981E08093FD290895AD
:10197000909363028093620208953B9A439808957E
:101980000E94180B0C94BD0C439A089581E080933B
:10199000FC290E94C40C8091012A882309F44BC0C1
:1019A0008091FD2994E0899F900111249091FE2956
:1019B000892F90E0880F991F822B932B2091FF296C
:1019C000822B81309105A1F02CF4892B89F56DE4EF
:1019D00077E23BC082309105A1F0039749F58091F1
:1019E000F7298F938091F6298F9388E797E211C0AA
:1019F0008091F7298F938091F6298F9386E697E25D
:101A000008C08091F7298F938091F6298F938FE6F4
:101A100097E29F938F9380E492E09F938F930E942D
:101A2000CC160F900F900F900F900F900F9011C049
:101A30006EE777E20AC08091022A81110EC0809180
:101A4000032A81110AC069E877E280E492E00E94EB
:101A5000B11680E492E00C9402098091F7298F93EB
:101A60008091F6298F93809163028F938091620217
:101A70008F938DE997E29F938F9380E492E09F93F9
:101A80008F930E94CC168DB79EB708960FB6F89428
:101A90009EBF0FBE8DBFDDCF439808951F920F925A
:101AA0000FB60F9211240BB60F922F933F934F93C3
:101AB0005F936F937F938F939F93AF93BF93EF93B6
:101AC000FF938091F8299091F92901969093F92933
:101AD0008093F8298091F8299091F929883E9340C4
:101AE00040F18091F6299091F72901969093F7297A
:101AF0008093F6291092F9291092F8298091FC29F7
:101B00008823B9F08091FA299091FB299C012F5FDD
:101B10003F4F3093FB292093FA29029754F00E94FB
:101B20004C0D0E943A0B1092FC291092FB29109246
:101B3000FA2982E88093B200B898FF91EF91BF91A3
:101B4000AF919F918F917F916F915F914F913F9155
:101B50002F910F900BBE0F900FBE0F901F901895F6
:101B60008091680208958091092A90910A2A089527
:101B70009C01261B370BE4E6E29FC001E39F900D1A
:101B800011249A01261B370BB9010E94001377FD1F
:101B900005C06536710524F4862F089580E0089508
:101BA00084E60895CF9383E00E947F0480931B2AEC
:101BB00082E00E947F0480931A2A81E00E947F04C1
:101BC000C82F8093192A4091112A5091122A6091AE
:101BD00075027091760280911B2A90E00E94B80DE8
:101BE0008093182A40910F2A5091102A6091730215
:101BF000709174028C2F90E00E94B80D8093162A89
:101C000040910D2A50910E2A6091710270917202DA
:101C100080911A2A90E00E94B80D8093172ACF91E4
:101C200008950E94D20D80911B2A90E02091112AE4
:101C30003091122A2817390724F49093122A80939E
:101C4000112A20917502309176028217930724F4AD
:101C5000909376028093750280911A2A90E02091E9
:101C60000D2A30910E2A2817390724F490930E2A52
:101C700080930D2A2091710230917202821793078E
:101C800024F490937202809371028091192A90E05B
:101C900020910F2A3091102A2817390724F49093A5
:101CA000102A80930F2A20917302309174028217B8
:101CB000930724F49093740280937302089581E053
:101CC0000E94B6070E9497076DE78DE70E94D6082D
:101CD00080E00E94B6078A3591051CF40E94110E1F
:101CE000F7CF81E00E94B6070E94900780E00E9433
:101CF000B607843B91051CF40E94110EF7CF81E0DA
:101D00000E94B6070E94970780E00E94B6078A35B6
:101D100091051CF40E94110EF7CF0C94B2078F921C
:101D20009F92AF92BF92CF92DF92EF92FF920E946A
:101D3000D20DE090162AF12CC090182AD12CB701B0
:101D40006C197D09072E000C880B990B0E94331427
:101D50004B015C018091172AB601680F711D6E0D51
:101D60007F1D072E000C880B990B0E94331420E076
:101D700030E040E85FE30E941D139B01AC01C50108
:101D8000B4010E94891320E030E04FE753E40E9441
:101D9000BF144B015C019B01AC0160911C2A709146
:101DA0001D2A80911E2A90911F2A0E941C132FE643
:101DB00032E143E05BE30E94BF140E94FB136B011E
:101DC0007C0120E030E040E05FE3C501B4010E9407
:101DD000BF140E94FB13C60ED71E80921C2A90923D
:101DE0001D2AA0921E2AB0921F2A68EC70E06C197E
:101DF0007D09C60188539F4F6F3F710509F02CF490
:101E000077FF05C060E070E002C06FEF70E08F3FC9
:101E1000910509F02CF497FF05C080E090E002C026
:101E20008FEF90E0FF90EF90DF90CF90BF90AF905A
:101E30009F908F900C94D608EF92FF920F931F9370
:101E4000CF93DF9300E010E0C0E0D0E0E82EF12C6B
:101E50000E151F050CF0A7C080911A2A803108F4D6
:101E60009FC080911B2A803108F09AC08091192A66
:101E7000803108F095C00E94D20D91E080911B2A1C
:101E80008B3008F090E09093082A81E02091192A85
:101E90002B3008F080E08093072A41E020911A2A35
:101EA0002B3008F040E04093062A990F990F440F19
:101EB000492BE42FE82BE093052A4E2FEE0F550B0C
:101EC000660B770BFA013197E730F10530F488277C
:101ED000EE58FF4F8F4F0C9414130E9482076FEA45
:101EE0008DE70E94D608B8CF0E949E076DE780E07C
:101EF00012C00E9482076AEA8AEA0E94D6082FEF7F
:101F00008FE392E0215080409040E1F746C00E946C
:101F100090076FEA8DE70E94D6082FEF8FE392E0DB
:101F2000215080409040E1F700C00000C1E0D0E0C7
:101F300093CF0E94A30760E08DE712C00E94820742
:101F40006FEA8FEA0E94D6082FEF8FE794E02150C6
:101F500080409040E1F721C00E9497076DE78FEA2B
:101F60000E94D6082FEF8FE392E0215080409040EE
:101F7000E1F700C00000C0E0D0E06ECF209719F478
:101F80000E94970702C00E9490076DE78DE70E94AC
:101F9000D6088FEF97E40197F1F700C000005CCFFF
:101FA0000F5F1F4F55CF8FE590E00E947E08DF91B5
:101FB000CF911F910F91FF90EF900C94B2070F9368
:101FC0001F93CF93DF93082F0E948207C0E0D0E0D9
:101FD00010E0C017D107D4F40E948F0E80911A2A06
:101FE0008D31D0F380911B2A8D3120F48091192AF4
:101FF0008D3190F30E94B20768EC88EC0E94D608FD
:102000008FE590E00E947E082196E3CFDF91CF918B
:102010001F910F9108956FEA8FEA0E94D60885E517
:1020200090E00E9492086FEA8FEA0E94D6080E9410
:1020300090070E94D20D80911A2A8031D0F30C941F
:10204000B2076FEA8FEA0E94D60885E590E00E9409
:102050009C086FEA8FEA0E94D6080E9497070E94A8
:10206000D20D80911A2A8031D0F30C94B207CF930D
:10207000909168028917A1F1803391F1C82F9E34A5
:1020800049F01CF4953469F029C0933589F09735EF
:10209000B1F024C08335C9F08735F1F08534F1F40F
:1020A00018C08335B1F0873581F08E34B9F414C08F
:1020B0008E3459F0873569F0853481F40DC08E3443
:1020C00041F0833549F0853449F48AE590E00E9477
:1020D0009C080E94211002C00E940B10C09368024D
:1020E000CF910895CF93909168028917C1F1803301
:1020F000B1F1C82F9E3449F01CF4953469F02DC01D
:10210000933589F09735B1F028C08335C9F087350C
:1021100001F1853411F518C08335B1F0873581F0B0
:102120008E34D9F416C08E3459F0873569F0853471
:10213000A1F40FC08E3441F0833559F0853469F431
:102140008AE590E00E949C088AE590E00E949C0845
:1021500004C08AE590E00E949208C0936802CF9183
:1021600008959C01215031092031310520F4FC01F2
:10217000E756FD4F608308959C01215031092031BD
:10218000310528F4FC01E756FD4F8081089580E376
:102190000895E091202AF091212AEE0FFF1FE755C4
:1021A000FD4F8081918108958091202A9091212A6C
:1021B00001969093212A8093202A0895E091222A63
:1021C000F091232AE553FD4F80810895880F991FD0
:1021D000FC01EC5DF54D808191810895CF93DF93F3
:1021E000FC0120E030E08FEF9FE74FEF5FE7EB016E
:1021F000A991BE01A11107C0A081B1814A175B0757
:1022000014F0C901AD012F5F3F4F329623343105E1
:1022100071F7DF91CF910895CF93DF93EC01FC012B
:10222000EE0FFF1FEC5DF54D808191818F3F2FEF09
:10223000920771F00E940C11DF93CF9389EA97E225
:102240009F938F930E94B8160F900F900F900F904E
:10225000DF91CF9108956F927F928F929F92AF926C
:10226000BF92CF92DF92EF92FF920F931F93CF9383
:10227000DF93CDB7DEB7C354D1090FB6F894DEBFF4
:102280000FBECDBFDE011196EAEAFAE22FEF3FE77B
:10229000219331931D924BE2E033F407C9F72FEFFE
:1022A0003FEF3093252A2093242AFC01EE0FFF1FD5
:1022B000E655F54D1182108202E410E088248394E3
:1022C00056E8952EBE016F5F7F4F8AEA9AE20E9420
:1022D000EE10E1E0F0E0EC0FFD1FE80FF91F808247
:1022E00024E2622E2AE2722E989E5001999EB00C32
:1022F0001124EAEAFAE2DE0111967D0140E050E0A5
:10230000BC01660F771F6655754DD7012D917D0174
:1023100021111AC09A012A0D3B1D215A3C4FD901A7
:102320002D913C912115310579F0DB01CD90DC90A8
:102330002C0D3D1DC080D1802C153D052CF4D30102
:102340008D939C93318320834E5F5F4FB2E06B0E81
:10235000711C329646385105C1F60150110909F039
:10236000B1CFCD5BDF4F0FB6F894DEBF0FBECDBF50
:10237000DF91CF911F910F91FF90EF90DF90CF9061
:10238000BF90AF909F908F907F906F900895CF9364
:10239000DF93EC01CB010E942B11FE0183E0EE0FD5
:1023A000FF1F8A95E1F7E153FD4FD081C181509124
:1023B000222A4091232A20E030E068EB7BE08191E3
:1023C0009191DC01AA0FBB1FA655B54D0D90BC9194
:1023D000A02DA617B7071CF08D2F9C2F03C0522FDE
:1023E000432FBD012F5F3F4F2430310519F0D82F07
:1023F000C92FE5CF5093222A4093232ADF91CF9112
:1024000008956233710508F045C08233910508F0E4
:1024100041C043E4489FF001499FF00D1124E60FAD
:10242000F71FEE0FFF1FE15AFC4F11821082469FEB
:102430009001479F300D1124D901A80FB91FAA0F91
:10244000BB1FA15ABC4F1D921C92FB01EE0FFF1F38
:10245000EC5DF54D808191818F3F5FEF9507B1F085
:10246000489FF001499FF00D1124E60FF71FEE0F72
:10247000FF1FE15AFC4F11821082F901E80FF91F8A
:10248000EE0FFF1FE15AFC4F1182108282E490E0B0
:102490000C942B1108950F931F93CF93DF939C01FE
:1024A000FB01009749F08234910501F1309741F02A
:1024B0006234710569F480C06D33710549F478C0E8
:1024C000859731F02D33310519F4309709F46EC03A
:1024D000C9016EE070E00E940013EC018A309105A2
:1024E0005CF4219780F4C8E0D0E00DC0653271053E
:1024F00009F467C08AE090E065E070E00E94001394
:10250000EC01CC0FDD1FC90101972EE030E0B901CD
:102510000E9400138B01000F111F69E070E00E9400
:102520000013060F171FCF01B9010E9400138A3054
:1025300091053CF49C012150310950F428E030E031
:1025400007C065E070E00E9400139C01220F331F5A
:10255000CF0101976EE070E00E940013FB01EE0FC7
:10256000FF1F69E070E00E9400136E0F7F1F601B69
:10257000710B2C1B3D0B6130710521F06F3F8FEF0C
:10258000780769F421303105A9F02F3F8FEF380724
:1025900089F06130710551F06F3F7F4F49F0213074
:1025A000310569F02F3F3F4F29F40BC083E50AC086
:1025B0008EE408C080E306C0859709F083CF85E4E8
:1025C00001C087E5DF91CF911F910F9108950E947F
:1025D000DB0180E090E00895AA1BBB1B51E107C01E
:1025E000AA1FBB1FA617B70710F0A61BB70B881FA3
:1025F000991F5A95A9F780959095BC01CD01089532
:1026000097FB072E16F4009407D077FD09D00E949F
:10261000EC1207FC05D03EF4909581959F4F0895EC
:10262000709561957F4F0895EE0FFF1F881F8BBF38
:102630000790F691E02D19945058BB27AA270E94C5
:1026400034130C9485140E94771438F00E947E1481
:1026500020F039F49F3F19F426F40C9474140EF40E
:10266000E095E7FB0C946E14E92F0E94961458F342
:10267000BA17620773078407950720F079F4A6F567
:102680000C94B8140EF4E0950B2EBA2FA02D0B016C
:10269000B90190010C01CA01A0011124FF27591BA7
:1026A00099F0593F50F4503E68F11A16F040A22FAD
:1026B000232F342F4427585FF3CF4695379527951E
:1026C000A795F0405395C9F77EF41F16BA0B620B1D
:1026D000730B840BBAF09150A1F0FF0FBB1F661F64
:1026E000771F881FC2F70EC0BA0F621F731F841FA7
:1026F00048F4879577956795B795F7959E3F08F0CD
:10270000B0CF9395880F08F09927EE0F979587958E
:1027100008950E949D130C9485140E947E1458F015
:102720000E94771440F029F45F3F29F00C946E1456
:1027300051110C94B9140C9474140E94961468F3FB
:102740009923B1F3552391F3951B550BBB27AA276A
:1027500062177307840738F09F5F5F4F220F331FA4
:10276000441FAA1FA9F335D00E2E3AF0E0E832D06C
:1027700091505040E695001CCAF72BD0FE2F29D06F
:10278000660F771F881FBB1F261737074807AB0741
:10279000B0E809F0BB0B802DBF01FF2793585F4FB6
:1027A0003AF09E3F510578F00C946E140C94B914D5
:1027B0005F3FE4F3983ED4F3869577956795B79598
:1027C000F7959F5FC9F7880F911D9695879597F9A3
:1027D0000895E1E0660F771F881FBB1F621773071C
:1027E0008407BA0720F0621B730B840BBA0BEE1F31
:1027F00088F7E09508950E9402146894B1110C9432
:10280000B91408950E949E1488F09F5798F0B92F2C
:102810009927B751B0F0E1F0660F771F881F991F15
:102820001AF0BA95C9F714C0B13091F00E94B814EB
:10283000B1E008950C94B814672F782F8827B85FFB
:1028400039F0B93FCCF3869577956795B395D9F76D
:102850003EF490958095709561957F4F8F4F9F4F77
:102860000895E89409C097FB3EF490958095709583
:1028700061957F4F8F4F9F4F9923A9F0F92F96E9CC
:10288000BB279395F695879577956795B795F11141
:10289000F8CFFAF4BB0F11F460FF1BC06F5F7F4FDE
:1028A0008F4F9F4F16C0882311F096E911C07723F0
:1028B00021F09EE8872F762F05C0662371F096E8F9
:1028C000862F70E060E02AF09A95660F771F881FC8
:1028D000DAF7880F9695879597F9089597F99F6786
:1028E00080E870E060E008959FEF80EC0895002498
:1028F0000A941616170618060906089500240A9465
:1029000012161306140605060895092E0394000CEA
:1029100011F4882352F0BB0F40F4BF2B11F460FF79
:1029200004C06F5F7F4F8F4F9F4F089557FD9058A2
:10293000440F551F59F05F3F71F04795880F97FB83
:10294000991F61F09F3F79F087950895121613063D
:102950001406551FF2CF4695F1DF08C0161617066C
:102960001806991FF1CF86957105610508940895A1
:10297000E894BB2766277727CB0197F908950E9433
:10298000D2140C9485140E94771438F00E947E149F
:1029900020F0952311F00C946E140C9474141124EF
:1029A0000C94B9140E94961470F3959FC1F3950F7F
:1029B00050E0551F629FF001729FBB27F00DB11DC3
:1029C000639FAA27F00DB11DAA1F649F6627B00D53
:1029D000A11D661F829F2227B00DA11D621F739F3C
:1029E000B00DA11D621F839FA00D611D221F749F4A
:1029F0003327A00D611D231F849F600D211D822F91
:102A0000762F6A2F11249F5750409AF0F1F08823B7
:102A10004AF0EE0FFF1FBB1F661F771F881F9150E4
:102A20005040A9F79E3F510580F00C946E140C9411
:102A3000B9145F3FE4F3983ED4F386957795679594
:102A4000B795F795E7959F5FC1F7FE2B880F911D0E
:102A50009695879597F90895FA01EE0FFF1F309626
:102A600021053105A1F16115710561F48038BFE3DD
:102A70009B0749F168949038810561F08038BFEF79
:102A80009B0741F099234AF5FF3FE10531052105F8
:102A900019F1E8940894E795D901AA2329F4AB2FFA
:102AA000BE2FF85FD0F310C0FF5F70F4A695E0F77B
:102AB000F73950F019F0FF3A38F49F779F930DD013
:102AC0000F9007FC9058089546F00C94741460E041
:102AD00070E080E89FE308954FE79F775F934F93FF
:102AE0003F932F930E9427162F913F914F915F9113
:102AF0000E94BF140C94841529F416F00C946E14E3
:102B00000C94B8140C9474140E949E14A8F3963874
:102B1000A0F707F80F92E8942BE33AEA48EB5FE757
:102B20000E94D5140F920F920F924DB75EB70F927D
:102B30000E946F16E2EFF0E00E94B6154F915F9190
:102B4000EF91FF91E595EE1FFF1F49F0FE57E068FA
:102B50004427EE0F441FFA95E1F74195550B0E946B
:102B6000E9150F9007FE0C94DD150895DF93CF93C0
:102B70001F930F93FF92EF92DF927B018C01689479
:102B800006C0DA2EEF010E94D214FE01E894A5914E
:102B90002591359145915591A6F3EF010E9434138B
:102BA000FE019701A801DA9469F7DF90EF90FF909A
:102BB0000F911F91CF91DF9108959B01AC0160E0CF
:102BC00070E080E89FE30C9489130C946E140C94CD
:102BD000A3160E949E14D8F39923C9F3940F511D94
:102BE000A3F39150504094F059F0882332F0660FCF
:102BF000771F881F91505040C1F79E3F51052CF719
:102C0000880F911D9695879597F908955F3FACF0D1
:102C1000983E9CF0BB27869577956795B79508F405
:102C2000B1609395C1F7BB0F58F711F460FFE8CF7F
:102C30006F5F7F4F8F4F9F4FE3CF0C94B91416F007
:102C40000C94A3160C94741468940C946E140E9443
:102C50009E14A8F39923C1F3AEF3DF93CF931F9390
:102C60000F93FF92C92FDD2788232AF02197660F43
:102C7000771F881FDAF720E030E040E85FEB9FE342
:102C8000883920F0803E38F021968F770E941D13FE
:102C9000EAE1F1E004C00E941D13E7E4F1E00E94C4
:102CA000B6158B01BE01EC01FB2E6F5771097595AE
:102CB000771F880B990B0E94331428E132E741E318
:102CC0005FE30E94D214AF2D9801AE01FF900F91E7
:102CD0001F91CF91DF910E9434130C948514FA0157
:102CE000DC01AA0FBB1F9B01AC01BF5728F42227B0
:102CF00033274427507820C0B75190F4AB2F0024DD
:102D0000469537952795011CA395D2F3002071F0C5
:102D1000220F331F441FB395DAF30ED00C941C130B
:102D200061307105A0E88A07B94630F49B01AC0117
:102D30006627772788279078309621F02083318383
:102D40004283538308959F3F31F0915020F487953B
:102D500077956795B795880F911D9695879597F903
:102D60000895FB01DC0101900D920020E1F7089528
:102D7000CF93DF93CDB7DEB7AE014A5F5F4FFA0165
:102D800061917191AF018091322B9091332B0E9410
:102D9000FB16DF91CF9108950F931F93CF93DF938D
:102DA000CDB7DEB72E970FB6F894DEBF0FBECDBFFE
:102DB0000E891F8986E08C831A8309838FEF9FE732
:102DC0009E838D83AE01465E5F4F688D798DCE0107
:102DD00001960E94FB16EF81F885E00FF11F10822B
:102DE0002E960FB6F894DEBF0FBECDBFDF91CF9108
:102DF0001F910F9108952F923F924F925F926F9281
:102E00007F928F929F92AF92BF92CF92DF92EF927A
:102E1000FF920F931F93CF93DF93CDB7DEB72B971E
:102E20000FB6F894DEBF0FBECDBF6C017B018A01E7
:102E3000FC0117821682838181FFCCC1CE010196ED
:102E40003C01F6019381F70193FD859193FF8191F8
:102E50007F01882309F4BAC1853239F493FD859145
:102E600093FF81917F01853229F4B60190E00E94A1
:102E70001B19E7CF912C212C312CFFE1F315D8F051
:102E80008B3279F038F4803279F08332A1F4232D3B
:102E900020611DC08D3261F0803369F4232D2160E3
:102EA00016C0832D8260382EE32DE4603E2E2AC0AA
:102EB000F32DF8601DC037FC2DC020ED280F2A30FF
:102EC00040F08E32B9F436FC81C1232D2064322EBD
:102ED00019C036FE06C08AE0989E200D1124922E5D
:102EE00011C0EAE02E9E200D1124222EF32DF06257
:102EF0003F2E08C08C3621F4832D8068382E02C006
:102F0000883641F4F70193FD859193FF81917F010C
:102F10008111B3CF982F9F7D9554933028F40C5F87
:102F20001F4F9FE399830DC0833631F0833771F0D3
:102F3000833509F059C021C0F801808189830E5F73
:102F40001F4F88248394912C530113C02801F2E071
:102F50004F0E511CF801A080B18036FE03C0692DD0
:102F600070E002C06FEF7FEFC5010E9410194C01A5
:102F70008201F32DFF773F2E16C0280122E0420E7A
:102F8000511CF801A080B18036FE03C0692D70E0AD
:102F900002C06FEF7FEFC5010E9405194C01F32DB0
:102FA000F0683F2E820133FC1BC0822D90E0881612
:102FB0009906B0F4B60180E290E00E941B192A94B1
:102FC000F4CFF50137FC859137FE81915F01B601A1
:102FD00090E00E941B1921102A9421E0821A910886
:102FE0008114910471F7E8C0843611F0893641F5F7
:102FF000F80137FE07C060817181828193810C5F87
:103000001F4F08C060817181072E000C880B990B3F
:103010000E5F1F4FF32DFF763F2E97FF09C090954F
:103020008095709561957F4F8F4F9F4FF0683F2E31
:103030002AE030E0A3010E945719882E861845C067
:10304000853731F4232D2F7EB22E2AE030E025C0C3
:10305000932D997FB92E8F36C1F018F4883579F009
:10306000B5C0803719F0883721F0B0C0E92FE06192
:10307000BE2EB4FE0DC0FB2DF460BF2E09C034FE81
:103080000AC0292F2660B22E06C028E030E005C015
:1030900020E130E002C020E132E0F801B7FE07C0D5
:1030A00060817181828193810C5F1F4F06C06081B6
:1030B000718180E090E00E5F1F4FA3010E945719BD
:1030C000882E8618FB2DFF773F2E36FE0DC0232D50
:1030D0002E7FA22E891458F434FE0BC032FC09C096
:1030E000832D8E7EA82E05C0B82CA32C03C0B82C2F
:1030F00001C0B92CA4FE0FC0FE01E80DF11D8081B6
:10310000803321F49A2D997EA92E09C0A2FE06C013
:10311000B394B39404C08A2D867809F0B394A3FCC9
:1031200011C0A0FE06C0B21488F4280C922C9B1883
:103130000EC0B21460F4B60180E290E00E941B1948
:10314000B394F7CFB21418F42B1802C0982C212C8A
:10315000A4FE10C0B60180E390E00E941B19A2FEFD
:1031600017C0A1FC03C088E790E002C088E590E0AA
:10317000B6010CC08A2D867859F0A1FE02C08BE200
:1031800001C080E2A7FC8DE2B60190E00E941B190D
:10319000891438F4B60180E390E00E941B199A94D8
:1031A000F7CF8A94F301E80DF11D8081B60190E01C
:1031B0000E941B198110F5CF222009F442CEB601DE
:1031C00080E290E00E941B192A94F6CFF6018681D6
:1031D000978102C08FEF9FEF2B960FB6F894DEBF5A
:1031E0000FBECDBFDF91CF911F910F91FF90EF9058
:1031F000DF90CF90BF90AF909F908F907F906F9017
:103200005F904F903F902F900895FC010590615082
:1032100070400110D8F7809590958E0F9F1F0895EC
:10322000FC016150704001900110D8F78095909595
:103230008E0F9F1F08950F931F93CF93DF93FB0172
:10324000238121FD03C08FEF9FEF2CC022FF16C00A
:1032500046815781248135814217530744F4A08168
:10326000B1819D012F5F3F4F318320838C93268155
:1032700037812F5F3F4F3783268314C08B01EC01CA
:10328000FB010084F185E02D1995892BE1F6D80129
:1032900016968D919C911797019617969C938E93F5
:1032A0001697CE01DF91CF911F910F910895FA01EA
:1032B000AA27283051F1203181F1E8946F936E7F75
:1032C0006E5F7F4F8F4F9F4FAF4FB1E03ED0B4E066
:1032D0003CD0670F781F891F9A1FA11D680F791FA7
:1032E0008A1F911DA11D6A0F711D811D911DA11DB8
:1032F00020D009F468943F912AE0269F11243019C8
:10330000305D3193DEF6CF010895462F4770405D62
:103310004193B3E00FD0C9F7F6CF462F4F70405D11
:103320004A3318F0495D31FD4052419302D0A9F76C
:10333000EACFB4E0A6959795879577956795BA9566
:10334000C9F700976105710508959B01AC010A2E2C
:1033500006945795479537952795BA95C9F7620F03
:0E336000731F841F951FA01D0895F894FFCFC2
:10336E0048656C6C6F2C204920616D206120466988
:10337E007265626972642D2D2D2D2D2D2D2D2056E9
:10338E000A0048656C6C6F20576F726C6420492080
:10339E00616D206120466972656269726420560013
:1033AE0048656C6C6F2C204920616D206120466948
:1033BE007265626972642D2D2D2D2D2D2D2D2056A9
:1033CE000A000100010001004E0400050004000087
:1033DE0000FF0FFF0FFF0F48656C6C6F2C2049200C
:1033EE00616D20612046697265626972642D2D2DB2
:1033FE002D2D2D2D2D20560A00303030303030300E
:10340E003030303030303030300D000900050001E2
:10341E0000020006000A000E000F000B000700035A
:10342E0000040008000C00100011004553574E0A0E
:10343E000002000B0010000A0002000B0010000B2F
:10344E000004000C0012000C0006000D0014000D0C
:10345E000008000E0016001800100019001E0019BA
:10346E000012001A0020001A0014001B0022001B7C
:10347E000016001C00240026001E0027002C00272A
:10348E0000200028002E00280022002900300029EC
:10349E000024002A00320034002C0035003A00359A
:1034AE00002E0036003C003600300037003E00375C
:1034BE00003200380040004200420042004200004C
:1034CE0000000000000000000000000000000000EE
:1034DE0000000000000000000000000000000000DE
:1034EE0000000000000000000000000000000000CE
:1034FE0000000000000000000000000000000000BE
:10350E0000000000000000000000000000000000AD
:10351E00000000000000000000000000000000009D
:10352E00000000000000000000000000000000008D
:10353E00000000000000000000010000000000007C
:10354E00000000000000000000010000000000006C
:10355E00000000000000000000010000000000005C
:10356E00000000000000000000000000000000004D
:10357E00000000000000000000000000000000003D
:10358E00000000000000000000000000000000002D
:10359E00000000000000000000000000000000001D
:1035AE00000000000000000000000000000000000D
:1035BE0000000000000000000000000000000000FD
:1035CE0000000000000000000000000000010000EC
:1035DE0000010000000000000000000000000000DC
:1035EE0000000000000000000000000000000000CD
:1035FE0000000000000000000000000000000000BD
:10360E0000000000000000000000000000000000AC
:10361E00000000000000000000000000000000009C
:10362E00000000000000000000000000000000008C
:10363E00000000000000000000000000000000007C
:10364E00000000000000000000000000000000006C
:10365E00000000000001000000010000000000005A
:10366E00000000000000000100000000000000004B
:10367E00000000000000000000000000000000003C
:10368E00000000000000000000000000000000002C
:10369E00000000000000000000000000000000001C
:1036AE00000000000000000000000000000000000C
:1036BE0000000000000000000000000000000000FC
:1036CE0000000000000000000000000000000000EC
:1036DE0000000000000000000000000000010000DB
:1036EE0000010000000000000000000000000000CB
:1036FE0000000000000000000000000000000000BC
:10370E0000000000000000000000000000000000AB
:10371E00000000000000000000000000000000009B
:10372E00000000000000000000000000000000008B
:10373E00000000000000000000000000000000007B
:10374E00000000000000000000000000000000006B
:10375E00000000000000000000000000000000005B
:10376E000000000000010000000100000000000049
:10377E00000000000001000000000000000000003A
:10378E00000000000000000000000000000000002B
:10379E00000000000000000000000000000000001B
:1037AE00000000000000000000000000000000000B
:1037BE0000000000000000000000000000000000FB
:1037CE0000000000000000000000000000000000EB
:1037DE0000000000000000000000000000000000DB
:1037EE0000000000000000000000000000010000CA
:1037FE0000010000000000000000000000000000BA
:10380E0000000000000000000000000000000000AA
:10381E00000000000000000000000000000000009A
:10382E00000000000000000000000000000000008A
:10383E00000000000000000000000000000000007A
:10384E00000000000000000000000000000000006A
:10385E00000000000000000000000000000000005A
:10386E00000000000000000000000000000000004A
:10387E000000000000010000000100000000000038
:10388E000000000100000000000000000000000029
:10389E00000000000000000000000000000000001A
:1038AE00000000000000000000000000000000000A
:1038BE0000000000000000000000000000000000FA
:1038CE0000000000000000000000000000000000EA
:1038DE0000000000000000000000000000000000DA
:1038EE0000000000000000000000000000000000CA
:1038FE0000000000000000000000000000010000B9
:10390E0000010000000000000000000000000000A8
:10391E000000000000000000000000000000000099
:10392E000000000000000000000000000000000089
:10393E000000000000000000000000000000000079
:10394E000000000000000000000000000000000069
:10395E000000000000000000000000000000000059
:10396E000000000000000000000000000000000049
:10397E000000000000000000000000000000000039
:10398E000000000000010000000000000000000028
:10399E000001000000000000000000000000000018
:1039AE000000000000000000000000000000000009
:1039BE0000000000000000000000000000000000F9
:1039CE0000000000000000000000000000000000E9
:1039DE0000000000000000000000000000000000D9
:1039EE0000000000000000000000000000000000C9
:1039FE0000000000000000000000000000010000B8
:103A0E0000000000000000000000000000000000A8
:103A1E000000000000000000000100000000000097
:103A2E000000000000000000000000000000000088
:103A3E000000000000000000000000000000000078
:103A4E000000000000000000000000000000000068
:103A5E000000000000000000000000000000000058
:103A6E000000000000000000000000000000000048
:103A7E000000000000000000000000000000000038
:103A8E000000000000000001000000000000000027
:103A9E000000000000000000000000000000000018
:103AAE000000000100000000000000000000000007
:103ABE0000000000000000000000000000000000F8
:103ACE0000000000000000000000000000000000E8
:103ADE0000000000000000000000000000000000D8
:103AEE0000000000000000000000000000000000C8
:103AFE0000000000000000000000000000000000B8
:103B0E0000000000000000000000000000000000A7
:103B1E000001000000000000000000000000000096
:103B2E000000000000000000000000000001000086
:103B3E000000000000000000000000000000000077
:103B4E000000000000000000000000000000000067
:103B5E000000000000000000000000000000000057
:103B6E000000000000000000000000000000000047
:103B7E000000000000000000000000000000000037
:103B8E000000000000000000000000000000000027
:103B9E000000000000000000000000010000000016
:103BAE000000000000000000000000000000000007
:103BBE0000000000000000010000000000000000F6
:103BCE0000000000000000000000000000000000E7
:103BDE0000000000000000000000000000000000D7
:103BEE0000000000000000000000000000000000C7
:103BFE0000000000000000000000000000000000B7
:103C0E0000000000000000000000000000000000A6
:103C1E000000000000000000000000000000000096
:103C2E000000000000010000000000000000000085
:103C3E000000000000000000000000000000000076
:103C4E000001000000000000000000000000000065
:103C5E000000000000000000000000000000000056
:103C6E000000000000000000000000000000000046
:103C7E000000000000000000000000000000000036
:103C8E000000000000000000000000000000000026
:103C9E000000000000000000000000000000000016
:103CAE000000000000000000000000000001000005
:103CBE0000000000000000000001000000000000F5
:103CCE0000000000000000000001000000000000E5
:103CDE0000000000000000000000000000000000D6
:103CEE0000000000000000000000000000000000C6
:103CFE0000000000000000000000000000000000B6
:103D0E0000000000000000000000000000000000A5
:103D1E000000000000000000000000000000000095
:103D2E000000000000000000000000000000000085
:103D3E000000000000000000000000000001000074
:103D4E000001000000000000000000000000000064
:103D5E000000000000000000000000000000000055
:103D6E000000000000000000000000000000000045
:103D7E000000000000000000000000000000000035
:103D8E000000000000000000000000000000000025
:103D9E000000000000000000000000000000000015
:103DAE000000000000000000000000000000000005
:103DBE0000000000000000000000000100000000F4
:103DCE0000000000000100000001000000000000E3
:103DDE0000000000000000010000000000000000D4
:103DEE0000000000000000000000000000000000C5
:103DFE0000000000000000000000000000000000B5
:103E0E0000000000000000000000000000000000A4
:103E1E000000000000000000000000000000000094
:103E2E000000000000000000000000000000000084
:103E3E000000000000000000000000000000000074
:103E4E000000000000000000000000000001000063
:103E5E000001000000000000000000000000000053
:103E6E000000000000000000000000000000000044
:103E7E000000000000000000000000000000000034
:103E8E000000000000000000000000000000000024
:103E9E000000000000000000000000000000000014
:103EAE000000000000000000000000000000000004
:103EBE0000000000000000000000000000000000F4
:103ECE0000000000000000000001000000000000E3
:103EDE0000000000000100000001000000000000D2
:103EEE0000000000000100000000000000000000C3
:103EFE0000000000000000000000000000000000B4
:103F0E0000000000000000000000000000000000A3
:103F1E000000000000000000000000000000000093
:103F2E000000000000000000000000000000000083
:103F3E000000000000000000000000000000000073
:103F4E000000000000000000000000000000000063
:103F5E000000000000000000000000000001000052
:103F6E000001000000000000000000000000000042
:103F7E000000000000000000000000000000000033
:103F8E000000000000000000000000000000000023
:103F9E000000000000000000000000000000000013
:103FAE000000000000000000000000000000000003
:103FBE0000000000000000000000000000000000F3
:103FCE0000000000000000000000000000000000E3
:103FDE0000000000000000010000000000000000D2
:103FEE0000000000000100000001000000000000C1
:103FFE0000000001000000000000000000000000B2
:10400E0000000000000000000000000000000000A2
:10401E000000000000000000000000000000000092
:10402E000000000000000000000000000000000082
:10403E000000000000000000000000000000000072
:10404E000000000000000000000000000000000062
:10405E000000000000000000000000000000000052
:10406E000000000000000000000000000001000041
:10407E000001000000000000000000000000000031
:10408E000000000000000000000000000000000022
:10409E000000000000000000000000000000000012
:1040AE000000000000000000000000000000000002
:1040BE0000000000000000000000000000000000F2
:1040CE0000000000000000000000000000000000E2
:1040DE0000000000000000000000000000000000D2
:1040EE0000000000000100000000000000000000C1
:1040FE0000000000000100000000000000000000B1
:10410E0000010000000000000000000000000000A0
:10411E000000000000000000000000000000000091
:10412E000000000000000000000000000000000081
:10413E000000000000000000000000000000000071
:10414E000000000000000000000000000000000061
:10415E000000000000000000000000000000000051
:10416E000000000000000000000000000001000040
:10417E000000000000000000000000000000000031
:10418E000000000000000000000100000000000020
:10419E000000000000000000000000000000000011
:1041AE000000000000000000000000000000000001
:1041BE0000000000000000000000000000000000F1
:1041CE0000000000000000000000000000000000E1
:1041DE0000000000000000000000000000000000D1
:1041EE0000000000000000000000000000000000C1
:1041FE0000000000000000010000000000000000B0
:10420E0000000000000000000000000000000000A0
:10421E00000000010000000000000000000000008F
:10422E000000000000000000000000000000000080
:10423E000000000000000000000000000000000070
:10424E000000000000000000000000000000000060
:10425E000000000000000000000000000000000050
:10426E000000000000000000000000000000000040
:10427E000000000000000000000000000000000030
:10428E00000100000000000000000000000000001F
:10429E00000000000000000000000000000100000F
:1042AE000000000000000000000000000000000000
:1042BE0000000000000000000000000000000000F0
:1042CE0000000000000000000000000000000000E0
:1042DE0000000000000000000000000000000000D0
:1042EE0000000000000000000000000000000000C0
:1042FE0000000000000000000000000000000000B0
:10430E00000000000000000000000001000000009E
:10431E00000000000000000000000000000000008F
:10432E00000000000000000100000000000000007E
:10433E00000000000000000000000000000000006F
:10434E00000000000000000000000000000000005F
:10435E00000000000000000000000000000000004F
:10436E00000000000000000000000000000000003F
:10437E00000000000000000000000000000000002F
:10438E00000000000000000000000000000000001F
:10439E00000000000001000000000000000000000E
:1043AE0000000000000000000000000000000000FF
:1043BE0000010000000000000000000000000000EE
:1043CE0000000000000000000000000000000000DF
:1043DE0000000000000000000000000000000000CF
:1043EE0000000000000000000000000000000000BF
:1043FE0000000000000000000000000000000000AF
:10440E00000000000000000000000000000000009E
:10441E00000000000000000000000000000100008D
:10442E00000000000000000000010000000000007D
:10443E00000000000000000000010000000000006D
:10444E00000000000000000000000000000000005E
:10445E00000000000000000000000000000000004E
:10446E00000000000000000000000000000000003E
:10447E00000000000000000000000000000000002E
:10448E00000000000000000000000000000000001E
:10449E00000000000000000000000000000000000E
:1044AE0000000000000000000000000000010000FD
:1044BE0000010000000000000000000000000000ED
:1044CE0000000000000000000000000000000000DE
:1044DE0000000000000000000000000000000000CE
:1044EE0000000000000000000000000000000000BE
:1044FE0000000000000000000000000000000000AE
:10450E00000000000000000000000000000000009D
:10451E00000000000000000000000000000000008D
:10452E00000000000000000000000001000000007C
:10453E00000000000001000000010000000000006B
:10454E00000000000000000100000000000000005C
:10455E00000000000000000000000000000000004D
:10456E00000000000000000000000000000000003D
:10457E00000000000000000000000000000000002D
:10458E00000000000000000000000000000000001D
:10459E00000000000000000000000000000000000D
:1045AE0000000000000000000000000000000000FD
:1045BE0000000000000000000000000000010000EC
:1045CE0000010000000000000000000000000000DC
:1045DE0000000000000000000000000000000000CD
:1045EE0000000000000000000000000000000000BD
:1045FE0000000000000000000000000000000000AD
:10460E00000000000000000000000000000000009C
:10461E00000000000000000000000000000000008C
:10462E00000000000000000000000000000000007C
:10463E00000000000000000000010000000000006B
:10464E00000000000001000000010000000000005A
:10465E00000000000001000000000000000000004B
:10466E00000000000000000000000000000000003C
:10467E00000000000000000000000000000000002C
:10468E00000000000000000000000000000000001C
:10469E00000000000000000000000000000000000C
:1046AE0000000000000000000000000000000000FC
:1046BE0000000000000000000000000000000000EC
:1046CE0000000000000000000000000000010000DB
:1046DE0000010000000000000000000000000000CB
:1046EE0000000000000000000000000000000000BC
:1046FE0000000000000000000000000000000000AC
:10470E00000000000000000000000000000000009B
:10471E00000000000000000000000000000000008B
:10472E00000000000000000000000000000000007B
:10473E00000000000000000000000000000000006B
:10474E00000000000000000100000000000000005A
:10475E000000000000010000000100000000000049
:10476E00000000010000000000000000000000003A
:10477E00000000000000000000000000000000002B
:10478E00000000000000000000000000000000001B
:10479E00000000000000000000000000000000000B
:1047AE0000000000000000000000000000000000FB
:1047BE0000000000000000000000000000000000EB
:1047CE0000000000000000000000000000000000DB
:1047DE0000000000000000000000000000010000CA
:1047EE0000010000000000000000000000000000BA
:1047FE0000000000000000000000000000000000AB
:10480E00000000000000000000000000000000009A
:10481E00000000000000000000000000000000008A
:10482E00000000000000000000000000000000007A
:10483E00000000000000000000000000000000006A
:10484E00000000000000000000000000000000005A
:10485E000000000000010000000000000000000049
:10486E000000000000010000000000000000000039
:10487E000001000000000000000000000000000029
:10488E00000000000000000000000000000000001A
:10489E00000000000000000000000000000000000A
:1048AE0000010000000000000000000000000000F9
:1048BE0000000000000000000000000000000000EA
:1048CE0000000000000000000000000000000000DA
:1048DE0000000000000000000000000000010000C9
:1048EE0000000000000000000000000000000000BA
:1048FE0000000000000000000001000000000000A9
:10490E000000000000000000000000000000000099
:10491E000000000000000000000000000000000089
:10492E000000000000000000000000000000000079
:10493E000000000000000000000000000000000069
:10494E000000000000000000000000000000000059
:10495E000000000000000000000000000000000049
:10496E000000000000000001000000000000000038
:10497E000000000000000000000000000000000029
:10498E000000000100000000000000000000000018
:10499E000000000000000000000000000000000009
:1049AE0000000000000000000000000000000000F9
:1049BE0000000000000000000000000000000000E9
:1049CE0000000000000000000000000000000000D9
:1049DE0000000000000000000000000000000000C9
:1049EE0000000000000000000000000000000000B9
:1049FE0000010000000000000000000000000000A8
:104A0E000000000000000000000000000001000097
:104A1E000000000000000000000000000000000088
:104A2E000000000000000000000000000000000078
:104A3E000000000000000000000000000000000068
:104A4E000000000000000000000000000000000058
:104A5E000000000000000000000000000000000048
:104A6E000000000000000000000000000000000038
:104A7E000000000000000000000000010000000027
:104A8E000000000000000000000000000000000018
:104A9E000000000000000001000000000000000007
:104AAE0000000000000000000000000000000000F8
:104ABE0000000000000000000000000000000000E8
:104ACE0000000000000000000000000000000000D8
:104ADE0000000000000000000000000000000000C8
:104AEE0000000000000000000000000000000000B8
:104AFE0000000000000000000000000000000000A8
:104B0E000000000000010000000000000000000096
:104B1E000000000000000000000000000000000087
:104B2E000001000000000000000000000000000076
:104B3E000000000000000000000000000000000067
:104B4E000000000000000000000000000000000057
:104B5E000000000000000000000000000000000047
:104B6E000000000000000000000000000000000037
:104B7E000000000000000000000000000000000027
:104B8E000000000000000000000000000001000016
:104B9E000000000000000000000100000000000006
:104BAE0000000000000000000001000000000000F6
:104BBE0000000000000000000000000000000000E7
:104BCE0000000000000000000000000000000000D7
:104BDE0000000000000000000000000000000000C7
:104BEE0000000000000000000000000000000000B7
:104BFE0000000000000000000000000000000000A7
:104C0E000000000000000000000000000000000096
:104C1E000000000000000000000000000001000085
:104C2E000001000000000000000000000000000075
:104C3E000000000000000000000000000000000066
:104C4E000000000000000000000000000000000056
:104C5E000000000000000000000000000000000046
:104C6E000000000000000000000000000000000036
:104C7E000000000000000000000000000000000026
:104C8E000000000000000000000000000000000016
:104C9E000000000000000000000000010000000005
:104CAE0000000000000100000001000000000000F4
:104CBE0000000000000000010000000000000000E5
:104CCE0000000000000000000000000000000000D6
:104CDE0000000000000000000000000000000000C6
:104CEE0000000000000000000000000000000000B6
:104CFE0000000000000000000000000000000000A6
:104D0E000000000000000000000000000000000095
:104D1E000000000000000000000000000000000085
:104D2E000000000000000000000000000001000074
:104D3E000001000000000000000000000000000064
:104D4E000000000000000000000000000000000055
:104D5E000000000000000000000000000000000045
:104D6E000000000000000000000000000000000035
:104D7E000000000000000000000000000000000025
:104D8E000000000000000000000000000000000015
:104D9E000000000000000000000000000000000005
:104DAE0000000000000000000001000000000000F4
:104DBE0000000000000100000001000000000000E3
:104DCE0000000000000100000000000000000000D4
:104DDE0000000000000000000000000000000000C5
:104DEE0000000000000000000000000000000000B5
:104DFE0000000000000000000000000000000000A5
:104E0E000000000000000000000000000000000094
:104E1E000000000000000000000000000000000084
:104E2E000000000000000000000000000000000074
:104E3E000000000000000000000000000001000063
:104E4E000001000000000000000000000000000053
:104E5E000000000000000000000000000000000044
:104E6E000000000000000000000000000000000034
:104E7E000000000000000000000000000000000024
:104E8E000000000000000000000000000000000014
:104E9E000000000000000000000000000000000004
:104EAE0000000000000000000000000000000000F4
:104EBE0000000000000000010000000000000000E3
:104ECE0000000000000100000001000000000000D2
:104EDE0000000001000000000000000000000000C3
:104EEE0000000000000000000000000000000000B4
:104EFE0000000000000000000000000000000000A4
:104F0E000000000000000000000000000000000093
:104F1E000000000000000000000000000000000083
:104F2E000000000000000000000000000000000073
:104F3E000000000000000000000000000000000063
:104F4E000000000000000000000000000001000052
:104F5E000001000000000000000000000000000042
:104F6E000000000000000000000000000000000033
:104F7E000000000000000000000000000000000023
:104F8E000000000000000000000000000000000013
:104F9E000000000000000000000000000000000003
:104FAE0000000000000000000000000000000000F3
:104FBE0000000000000000000000000000000000E3
:104FCE0000000000000100000000000000000000D2
:104FDE0000000000000100000000000000000000C2
:104FEE0000010000000000000000000000000000B2
:104FFE0000000000000000000000000000000000A3
:10500E000000000000000000000000000000000092
:10501E000000000000000000000000000000000082
:10502E000000000000000000000000000000000072
:10503E000000000000000000000000000000000062
:10504E000000000000000000000000000001000051
:10505E000000000000000000000000000000000042
:10506E000000000000000000000100000000000031
:10507E000000000000000000000000000000000022
:10508E000000000000000000000000000000000012
:10509E000000000000000000000000000000000002
:1050AE0000000000000000000000000000000000F2
:1050BE0000000000000000000000000000000000E2
:1050CE0000000000000000000000000000000000D2
:1050DE0000000000000000010000000000000000C1
:1050EE0000000000000000000000000000000000B2
:1050FE0000000001000000000000000000000000A1
:10510E000000000000000000000000000000000091
:10511E000000000000000000000000000000000081
:10512E000000000000000000000000000000000071
:10513E000000000000000000000000000000000061
:10514E000000000000000000000000000000000051
:10515E000000000000000000000000000000000041
:10516E000001000000000000000000000000000030
:10517E000000000000000000000000000001000020
:10518E000000000000000000000000000000000011
:10519E000000000000000000000000000000000001
:1051AE0000000000000000000000000000000000F1
:1051BE0000000000000000000000000000000000E1
:1051CE0000000000000000000000000000000000D1
:1051DE0000000000000000000000000000000000C1
:1051EE0000000000000000000000000100000000B0
:1051FE0000000000000000000000000000000000A1
:10520E00000000000000000100000000000000008F
:10521E000000000000000000000000000000000080
:10522E000000000000000000000000000000000070
:10523E000000000000000000000000000000000060
:10524E000000000000000000000000000000000050
:10525E000000000000000000000000000000000040
:10526E000000000000000000000000000000000030
:10527E00000000000001000000000000000000001F
:10528E000000000000000000000000000000000010
:10529E0000010000000000000000000000000000FF
:1052AE0000000000000000000000000000000000F0
:1052BE0000000000000000000000000000000000E0
:1052CE0000000000000000000000000000000000D0
:1052DE0000000000000000000000000000000000C0
:1052EE0000000000000000000000000000000000B0
:1052FE00000000000000000000000000000100009F
:10530E00000000000000000000010000000000008E
:10531E00000000000000000000000000000000007F
:10532E00000000000000000000000000000000006F
:10533E00000000000000000000000000000000005F
:10534E00000000000000000000000000000000004F
:10535E00000000000000000000000000000000003F
:10536E00000000000000000000000000000000002F
:10537E00000000000000000000000000000000001F
:10538E00000000000000000000000000000100000E
:10539E0000010000000000000000000000000000FE
:1053AE0000000000000000000000000000000000EF
:1053BE0000000000000000000000000000000000DF
:1053CE0000000000000000000000000000000000CF
:1053DE0000000000000000000000000000000000BF
:1053EE0000000000000000000000000000000000AF
:1053FE00000000000000000000000000000000009F
:10540E00000000000000000000000001000000008D
:10541E00000000000001000000010000000000007C
:10542E00000000000000000000000000000000006E
:10543E00000000000000000000000000000000005E
:10544E00000000000000000000000000000000004E
:10545E00000000000000000000000000000000003E
:10546E00000000000000000000000000000000002E
:10547E00000000000000000000000000000000001E
:10548E00000000000000000000000000000000000E
:10549E0000000000000000000000000000010000FD
:1054AE0000010000000000000000000000010000EC
:1054BE0000000000000000000000000000000000DE
:1054CE0000000000000000000000000000000000CE
:1054DE0000000000000000000000000000000000BE
:1054EE0000000000000000000000000000000000AE
:1054FE00000000000000000000000000000000009E
:10550E00000000000000000000000000000000008D
:10551E00000000000000000000010000000000007C
:10552E00000000000001000000010000000000006B
:10553E00000000000000000000000000000000005D
:10554E00000000000000000000000000000000004D
:10555E00000000000000000000000000000000003D
:10556E00000000000000000000000000000000002D
:10557E00000000000000000000000000000000001D
:10558E00000000000000000000000000000000000D
:10559E0000000000000000000000000000000000FD
:1055AE0000000000000000000000000000010000EC
:1055BE0000010000000000000000000000000000DC
:1055CE0000000000000000000000000000000000CD
:1055DE0000000000000000000000000000000000BD
:1055EE0000000000000000000000000000000000AD
:1055FE00000000000000000000000000000000009D
:10560E00000000000000000000000000000000008C
:10561E00000000000000000000000000000000007C
:10562E00000000000000000100000000000000006B
:10563E00000000000001000000010000000000005A
:10564E00000000000000000000000000000000004C
:10565E00000000000000000000000000000000003C
:10566E00000000000000000000000000000000002C
:10567E00000000000000000000000000000000001C
:10568E00000000000000000000000000000000000C
:10569E0000000000000000000000000000000000FC
:1056AE0000000000000000000000000000000000EC
:1056BE0000000000000000000000000000010000DB
:1056CE0000010000000000000000000000000000CB
:1056DE0000000000000000000000000000000000BC
:1056EE0000000000000000000000000000000000AC
:1056FE00000000000000000000000000000000009C
:10570E00000000000000000000000000000000008B
:10571E00000000000000000000000000000000007B
:10572E00000000000000000000000000000000006B
:10573E00000000000001000000000000000000005A
:10574E00000000000001000000000000000000004A
:10575E00000000000000000000000000000000003B
:10576E00000000000000000000000000000000002B
:10577E00000000000000000000000000000000001B
:10578E00000000000000000000000000000000000B
:10579E0000000000000100000000000000000000FA
:1057AE0000000000000000000000000000000000EB
:1057BE0000000000000000000000000000000000DB
:1057CE0000000000000000000000000000000000CB
:1057DE0000317374204E6F64650A004D6964204E6B
:1057EE006F64650A00393020446567726565204C28
:1057FE00656674207475726E0A0043656E74657208
:10580E00206F6620626C6F636B20726561636865E2
:10581E00640A004261636B206F6E206C696E650ACC
:10582E00004C656674205475726E0A005374617272
:10583E0074204C6F636174696F6E0A0043616C2053
:10584E00446F6E650A005363616E2046696E69731C
:10585E006865640A005265642050756C7365730048
:10586E00477265656E2050756C73657300426C757A
:10587E00652050756C7365730053002D25640A0006
:10588E0046004D2D006D2D00436D642052780A00A8
:10589E0049735F436D643A747275650A00616363A0
:1058AE0065707465640069676E6F7265004572722B
:1058BE006F7220696E207461736B20636F6D706CF4
:1058CE006574696F6E006D696E6F722D2564006D63
:1058DE00616A6F722D2564006E6F2D25640053630F
:1058EE00616E2D4572726F72004572726F72206416
:1058FE0065636F64696E67207461736B00666574AF
:0E590E0063682D25642D2564002564200000AB
:00000001FF
