:100000000C94C8000C94E7050C94E9000C94E900EA
:100010000C94E9000C944F080C942A080C94E90005
:100020000C94E9000C94E9000C94E9000C94E900AC
:100030000C94E9000C94E9000C94E9000C94400E37
:100040000C94E9000C94E9000C94E9000C94E9008C
:100050000C94E9000C94E9000C94E9000C94E9007C
:100060000C94E9000C94F6090C942F0A0C94E90006
:100070000C94E9000C94E9000C94E9000C94E9005C
:100080000C94E9000C94E9000C94E9000C94E9004C
:100090000C94E9000C94E9000C94E9000C94E9003C
:1000A0000C94E9000C94E9000C94E9000C94E9002C
:1000B0000C94E9000C94E9000C94E9000C94E9001C
:1000C0000C94E9000C94E9000C94E9000C94E9000C
:1000D0000C94E9000C94E9000C94000B0C94390B7F
:1000E0000C94E90066106B1079108B1090109E1024
:1000F000B01007634236B79BD8A71A39685618AEB6
:10010000BAAB558C1D3CB7CC5763BD6DEDFD753E4C
:10011000F6177231BF000000803F08000000BE9259
:100120002449123EABAAAA2ABECDCCCC4C3E00003C
:100130000080BEABAAAAAA3E00000000BF000000DB
:10014000803F0000000000084178D3BB4387D113F3
:100150003D190E3CC3BD4282AD2B3E68EC8276BE9B
:10016000D98FE1A93E4C80EFFFBE01C4FF7F3F0065
:10017000000000000C949E100C948B100C946B10DB
:100180000C9479100C9490100C9466100C94B01090
:1001900011241FBECFEFD1E2DEBFCDBF00E00CBF08
:1001A00017E1A0E0B2E0E2E4F5E300E00BBF02C03B
:1001B00007900D92A435B107D9F72AE1A4E5B7E17C
:1001C00001C01D92AA3DB207E1F70E94D1130C9421
:1001D0009F1A0C9400000E944E050E9455050E9433
:1001E000EC020E9461030E940F060E9420060E94FA
:1001F000D7070E94DE070E94E9070E94F0070E94CD
:10020000FE070E94B20D0C94EE09CF9381E00E948C
:10021000D1106EEE74E182E092E00E949B1782E0C2
:1002200092E00E94F40981E00E94D11069EF74E12C
:1002300082E092E00E949B1782E092E00E94F40923
:100240006FEA8FEA0E94C8098AE590E00E9484095B
:1002500064E075E182E092E00E949B1782E092E008
:100260000E94F40968EC88EC0E94C80984EB90E0D5
:100270000E9470096AE175E182E092E00E949B179A
:1002800082E092E00E94F4090E948807C82F0E9431
:10029000EC090E9490038C2F0E94BD03C23519F413
:1002A0000E94920D07C0C73419F40E949A0D02C033
:1002B0000E94A20D84EB90E00E947A0964E375E14C
:1002C00082E092E00E949B1782E092E00E94F40993
:1002D0000E94FD1063E475E182E092E00E949B17AA
:1002E00082E092E00E94F40981E00E94D1106EEE5B
:1002F00074E182E092E00E949B1782E092E00E940B
:10030000F40981E00E94D1106FE475E182E092E08F
:100310000E949B1782E092E00E94F40960E675E17A
:1003200082E092E00E949B1782E092E0CF910C94D1
:10033000F9030F931F93CF93DF93C0915817C11107
:1003400052C00E94BB110E94AE118033E9F50091AA
:100350005617109157170E94BB11B8010E94BE1288
:1003600080930002909301029F938F938BE695E117
:100370009F938F9302E012E01F930F930E94B61792
:10038000C8010E94F40980910002909101020E942C
:10039000241281E0809358170E94BB119F938F9382
:1003A0008AE895E19F938F931F930F930E94B6174E
:1003B000C8010E94F4098DB79EB70C960FB6F89449
:1003C0009EBF0FBE8DBFD1C00E94CD111092581795
:1003D0006BE975E182E092E00E949B1782E092E077
:1003E0000E94F409C2C080915617909157170E943D
:1003F000DF11809354179093551720915617309121
:10040000571740910002509101022417350709F453
:100410003FC09F938F9380EB95E19F938F93C2E0B2
:10042000D2E0DF93CF930E94B617CE010E94F40969
:1004300060915417709155178091561790915717E6
:100440000E9435130E94291181E00E94D1108091F1
:10045000541790915517809356179093571721E092
:10046000209358179F938F9384EC95E19F938F93DC
:10047000DF93CF930E94B617CE010E94F4098DB787
:100480009EB70C960FB6F8949EBF0FBE8DBF67C087
:100490002234310509F465C00E94BB119F938F93EC
:1004A00086ED95E19F938F93C2E0D2E0DF93CF93E7
:1004B0000E94B617CE010E94F4090E94D7110E9433
:1004C00064116BEE75E1CE010E949B17CE010E9474
:1004D000F40984EB90E00E9470090E9488070F9055
:1004E0000F900F900F900F900F90823539F40E946B
:1004F000BB119F938F938FEF95E10FC0873439F431
:100500000E94BB119F938F938FE196E106C00E94DA
:10051000BB119F938F938FE396E19F938F93DF930C
:10052000CF930E94B6170F900F900F900F900F90DF
:100530000F9082E092E00E94F4090E94CD1184EBBA
:1005400090E00E947A09109258176CE576E182E0FB
:1005500092E00E949B1782E092E00E94F409C0E0C2
:1005600004C00E94CD11109258178C2FDF91CF91AB
:100570001F910F9108950E94EB000E94510F6DE6AC
:1005800076E182E092E00E949B1782E092E00E9476
:10059000F4090E94320C68E776E182E092E00E9462
:1005A0009B1782E092E00E94F40969E876E182E01C
:1005B00092E00E949B1782E092E00E94F4090E9460
:1005C000320C0E94500D8823D1F30E94770D0E94B7
:1005D00005010E94B80DF3CF87B1876087B987B155
:1005E000806F87B988B1887F88B988B18F7088B9E2
:1005F000089586E69EE00197F1F700004098419843
:1006000080E388B9429AEFEFF7E43197F1F700C041
:1006100000004298E6E6FEE03197F1F700004098CE
:10062000419888B9429AEFEFF7E43197F1F700C0AB
:1006300000004298E6E6FEE03197F1F700004098AE
:10064000419888B9429A8FEF97E40197F1F700C07B
:1006500000004298E6E6FEE03197F1F7000040988E
:10066000419880E288B9429A8FEF97E40197F1F7B9
:1006700000C000004298089598B19F7098B998B151
:10068000282F207F922B98B940984198429AEFEFFB
:10069000F7E43197F1F700C00000429898B19F70DD
:1006A00098B998B18295807F892B88B940984198F4
:1006B000429A8FEF97E40197F1F700C0000042984B
:1006C00008950E94F90286E69EE00197F1F7000086
:1006D00088E20E943C0381E00E943C0386E00E9485
:1006E0003C038EE00E943C0380E80C943C0380E8CD
:1006F0000C943C03982F862F923059F01CF49130C3
:1007000031F00895933039F0943039F008958158DC
:1007100005C0815403C08D5601C08D520C943C031A
:1007200081E00C943C03CF93C42F0E947A0388B1DC
:100730008F7088B988B19C2F907F892B88B9409A97
:100740004198429A8FEF97E40197F1F700C00000BB
:100750004298C295C07F88B18F7088B988B1C82B84
:10076000C8B9409A4198429A8FEF97E40197F1F700
:1007700000C000004298CF91089598B19F7098B939
:1007800098B1282F207F922B98B9409A4198429A8D
:10079000EFEFF7E43197F1F700C00000429882953F
:1007A000807F98B19F7098B998B1892B88B9409A89
:1007B0004198429A8FEF97E40197F1F700C000004B
:1007C000429808950F931F93CF93DF93D82FC62F8E
:1007D0008A01F80141918F01442331F06C2F8D2F54
:1007E0000E949303CF5FF5CFDF91CF911F910F91BF
:1007F0000895CF93DF93EC018991882319F00E942B
:10080000BD03FACFDF91CF910895EF92FF920F933E
:100810001F93CF93DF93D82FC62F8A0179010E94AF
:100820007A0317FF09C01195019511094DE26C2F4C
:100830008D2F0E949303CF5FDD2311F0C11103C000
:100840000E94770304C06C2F8D2F0E947A0385E0ED
:10085000E816F10409F07FC0C80160E177E20E9468
:10086000EA13AB01405D5F4F50935A1740935917FD
:100870006C2F8D2F0E949303CF5FC80168EE73E049
:100880000E94EA13CB0170936417609363176AE0C8
:1008900070E00E94D613AC01405D5F4F50935C172F
:1008A00040935B176C2F8D2F0E949303CF5FC8017D
:1008B00064E670E00E94EA13CB01709364176093C2
:1008C00063176AE070E00E94D613AC01405D5F4F91
:1008D00050935E1740935D176C2F8D2F0E949303EA
:1008E000CF5F2AE030E0C801B9010E94EA13CB01D2
:1008F0007093641760936317B9010E94D613AC011B
:10090000405D5F4F5093601740935F176C2F8D2FA2
:100910000E949303CF5FC8016AE070E00E94EA136F
:10092000AC01405D5F4F50936217409361176C2F8D
:100930008D2F0E949303CF5F86E0E816F104FCF050
:1009400045E46C2F8D2FDF91CF911F910F91FF9078
:10095000EF900C94930384E0E816F10409F48DCF32
:1009600083E0E816F10409F4A2CF82E0E816F1046E
:1009700009F4B7CF81E0E816F104F1F6CCCFDF91AE
:10098000CF911F910F91FF90EF9008950F931F93B8
:10099000CF93DF938A01E901882311F0611103C02D
:1009A0000E94770302C00E947A03C530D10509F086
:1009B00061C0C80160E177E20E94D613CB01C09606
:1009C00090935A17809359170E94BD03C80168EE8F
:1009D00073E00E94D613CB01709364176093631782
:1009E0006AE070E00E94D613C09690935C178093E3
:1009F0005B170E94BD03C80164E670E00E94D61335
:100A0000CB0170936417609363176AE070E00E94F3
:100A1000D613C09690935E1780935D170E94BD0316
:100A20002AE030E0C801B9010E94D613CB017093CF
:100A3000641760936317B9010E94D613C096909310
:100A4000601780935F170E94BD03C8016AE070E0E1
:100A50000E94D613C09690936217809361170E94EC
:100A6000BD032697B4F085E4DF91CF911F910F91DC
:100A70000C94BD03C430D10509F4A8CFC330D1050F
:100A800009F4B9CFC230D10559F2C130D10549F7C7
:100A9000DCCFDF91CF911F910F91089510BA11BA59
:100AA00010920701109208010895EAE7F0E08081B2
:100AB00086688083808186788083EBE7F0E08081A0
:100AC000807B8083ECE7F0E080818076808380818A
:100AD0008064808380818062808380B7806880BFEB
:100AE0000895883028F090917B00986090937B0067
:100AF00090917C008770892B80937C0080917A0094
:100B0000806480937A0080917A0084FFFCCF80918A
:100B1000790090917A00906190937A0090917B0097
:100B2000977F90937B0090917C00907E90937C00C7
:100B30000895682F70E080E090E00E941B152FEE72
:100B400039EC43E95FE30E9416169B01AC0160E0BB
:100B500070E080E89FE30E9473142AE939EF4EE2C7
:100B600055E40E94A91520E030E040E251E40E94E3
:100B7000A9150E94E514CB016132734010F080E2A8
:100B800093E00895CF93DF93C82FD62F842F0E9430
:100B9000710580937217482F50E023E030E06D2FED
:100BA0008C2FDF91CF910C9405048AB18E6F8AB996
:100BB000589A08950E94EC020C94D505F894E9E641
:100BC000F0E0808182608083E89A789408951F9293
:100BD0000F920FB60F9211248F939F93AF93BF93F1
:100BE00080917F1790918017A0918117B091821703
:100BF0000196A11DB11D80937F1790938017A0933C
:100C00008117B0938217BF91AF919F918F910F90F1
:100C10000FBE0F901F9018955C9A5D9A0895F894F6
:100C20000E94D5050E94DE0578940C940C065E980F
:100C30005F9808955E9A5F9A08955E985F9A089506
:100C40005E9A5F9808950E94170610927F1710927F
:100C5000801710928117109282172FEF8FE794E080
:100C6000215080409040E1F700C0000080917F1744
:100C700090918017A0918117B091821780937B1774
:100C800090937C17A0937D17B0937E1761E081E06D
:100C90000E947A036BE976E184E292E00E949B175E
:100CA00084E292E00E94F90340917B1750917C17F7
:100CB00060917D1770917E1725E030E061E082E061
:100CC0000E94C6042FEF8FEF9CE22150804090409D
:100CD000E1F700C0000081E00C943C030E941A067A
:100CE00010927F171092801710928117109282171E
:100CF0002FEF8FE794E0215080409040E1F700C053
:100D0000000080917F1790918017A0918117B0917A
:100D100082178093731790937417A0937517B093ED
:100D2000761761E081E00E947A0366EA76E184E268
:100D300092E00E949B1784E292E00E94F9034091A6
:100D4000731750917417609175177091761725E09D
:100D500030E061E082E00E94C6042FEF8FEF9CE25A
:100D6000215080409040E1F700C0000081E00C94E9
:100D70003C030E941D0610927F171092801710925C
:100D80008117109282172FEF8FE794E02150804057
:100D90009040E1F700C0000080917F17909180178C
:100DA000A0918117B091821780937717909378174D
:100DB000A0937917B0937A1761E081E00E947A03DB
:100DC00063EB76E184E292E00E949B1784E292E07A
:100DD0000E94F90340917717509178176091791725
:100DE00070917A1725E030E061E082E00E94C6044D
:100DF0002FEF8FEF9CE2215080409040E1F700C040
:100E0000000081E00C943C030E94170610927F17AB
:100E10001092801710928117109282172FEF8FE790
:100E200094E0215080409040E1F700C000008091A4
:100E30007F1790918017A0918117B09182178093AE
:100E40007B1790937C17A0937D17B0937E176091CA
:100E50007B1770917C1780917D1790917E17089574
:100E60000E941A0610927F17109280171092811715
:100E7000109282172FEF8FE794E02150804090402E
:100E8000E1F700C0000080917F1790918017A0913A
:100E90008117B09182178093731790937417A09362
:100EA0007517B093761760917317709174178091CE
:100EB00075179091761708950E941D0610927F175E
:100EC0001092801710928117109282172FEF8FE7E0
:100ED00094E0215080409040E1F700C000008091F4
:100EE0007F1790918017A0918117B09182178093FE
:100EF000771790937817A0937917B0937A1760912A
:100F00007717709178178091791790917A170895D3
:100F10008F929F92AF92BF92CF92DF92EF92FF9209
:100F20000E9404076B017C010E945C074B015C017D
:100F30000E94300727E0C21626E1D206E104F10440
:100F400030F0623022E172078105910500F58C14C2
:100F50009D04AE04BF0428F46C157D058E059F0525
:100F6000C0F0C814D904EA04FB0428F46815790514
:100F70008A059B0580F086169706A806B90668F4D0
:100F8000C616D706E806F90640F487E407C087E5E9
:100F900005C082E503C082E401C080E3FF90EF90CA
:100FA000DF90CF90BF90AF909F908F90089581B1C8
:100FB0008F6081B982B1807F82B90895EAE0F1E063
:100FC000808188618083EBE0F1E0808188618083AB
:100FD00008958DB18F7C8DB98EB180638EB90895DF
:100FE000F8948DB380638DBBEAE6F0E080818A607F
:100FF000808380818A7F808378940895E1E2F1E0A4
:1010000010828FEF8093250191E09093240110923C
:1010100029018093280110922B0180932A01A0E2DC
:10102000B1E08C91806A8C938C918F7A8C938C91A7
:1010300081608C938C918D7F8C938081886080837C
:1010400080818F7E808380818360808380818B7F9D
:10105000808308951F920F920FB60F9211248F93E1
:101060009F93AF93BF938091851790918617A0911E
:101070008717B09188170196A11DB11D8093851720
:1010800090938617A0938717B0938817BF91AF915D
:101090009F918F910F900FBE0F901F9018951F92E8
:1010A0000F920FB60F9211248F939F93AF93BF931C
:1010B0008091891790918A17A0918B17B0918C1706
:1010C0000196A11DB11D8093891790938A17A09353
:1010D0008B17B0938C17BF91AF919F918F910F9009
:1010E0000FBE0F901F90189582B1867F82B982B192
:1010F000866082B9089582B1897F82B982B18960A0
:1011000082B9089582B1857F82B982B1856082B942
:10111000089582B18A7F82B982B18A6082B90895C6
:1011200082B1887F82B9129A089582B1827F82B992
:10113000119A089582B1817F82B9109A089582B17F
:10114000887F82B9139A089582B1807F82B9089509
:101150000F931F93813099F4109285171092861780
:1011600010928717109288171092891710928A1779
:1011700010928B1710928C1780E090E029C040915C
:101180008517509186176091871770918817809105
:10119000891790918A17A0918B17B0918C178A01AB
:1011A0009B01080F191F2A1F3B1FC901B8010E948C
:1011B0001B1528E431EE42E850E40E94A91520E016
:1011C00030E040E05FE30E94A9150E94E514CB01E6
:1011D0001F910F910895BC0180E090E00E941B15C3
:1011E00028E431EE42E850E40E9473140E94EC14AB
:1011F000CB01A0E0B0E010928517109286171092F4
:101200008717109288171092891710928A171092D8
:101210008B1710928C17409185175091861760910B
:10122000871770918817481759076A077B0798F442
:101230004091891750918A1760918B1770918C1784
:10124000481759076A077B0730F4E6E6FEE0319756
:10125000F1F70000E0CF0C94A4080F931F93BC019A
:1012600080E090E00E941B1525EE30ED4AEA50E444
:101270000E9473140E94EC14109285171092861726
:1012800010928717109288171092891710928A1758
:1012900010928B1710928C1700918517109186175A
:1012A00020918717309188170617170728073907E5
:1012B00098F40091891710918A1720918B1730911B
:1012C0008C17061717072807390730F4E6E6FEE003
:1012D0003197F1F70000E0CF1F910F910C94A40813
:1012E000CF93DF93EC010E947408CE01DF91CF9180
:1012F0000C942D09CF93DF93EC010E947B08CE0163
:10130000DF91CF910C942D09CF93DF93EC010E94D4
:101310008208CE01DF91CF910C94EB08CF93DF933D
:10132000EC010E948908CE01DF91CF910C94EB086B
:10133000CF93DF93EC010E949008CE01880F991F94
:10134000DF91CF910C94EB08CF93DF93EC010E94D7
:101350009508CE01880F991FDF91CF910C94EB086F
:10136000CF93DF93EC010E949A08CE01880F991F5A
:10137000DF91CF910C94EB08CF93DF93EC010E94A7
:101380009F08CE01880F991FDF91CF910C94EB0835
:101390008093280160932A010895E1E0F1E08081C3
:1013A00080628083E2E0F1E0808180628083089542
:1013B000E2E0F1E080818F7D80830895E2E0F1E05A
:1013C00080818062808308950E94840B911102C005
:1013D000811108958FEF08950C94C10B87E090E080
:1013E0000E94690B0C94030C0C94DA0B1F920F9261
:1013F0000FB60F9211240BB60F922F933F934F937A
:101400005F938F939F93EF93FF932091C000309150
:10141000C60028718091991890E001968F779927DE
:101420004091981850E08417950739F080939918E7
:10143000FC01E456F74E308301C022E02093971858
:10144000FF91EF919F918F915F914F913F912F91DC
:101450000F900BBE0F900FBE0F901F9018951F920C
:101460000F920FB60F9211240BB60F928F939F938A
:10147000EF93FF9390919B1880919A18981779F0A9
:1014800080919A1890E001968F77992780939A1807
:10149000FC01E45EF64E80818093C60005C0809119
:1014A000C1008F7D8093C100FF91EF919F918F913B
:1014B0000F900BBE0F900FBE0F901F901895F894D1
:1014C00010929B1810929A181092991810929818CE
:1014D000789497FF04C022E02093C0009F779093F8
:1014E000C5008093C40088E98093C10086E08093A2
:1014F000C2000895F89490919918809198189813C3
:1015000004C0789480E091E00895789480919818D0
:1015100090E001968F77992780939818FC01E45604
:10152000F74E20818091971890E0982F8827820F9E
:10153000911D0895F8949091991880919818981396
:1015400004C0789480E091E008957894E091981830
:10155000F0E03196EF77FF27E456F74E2081809137
:10156000971890E0982F8827820F911D0895209159
:101570009B1830E02F5F3F4F2F77332740919A1809
:1015800050E024173507D1F3F901E45EF64E80836D
:1015900020939B188091C10080628093C1000895C0
:1015A000CF93DF93EC018991882319F00E94B70A49
:1015B000FACFDF91CF910895CF93DF93FC0184910F
:1015C000EF012196882321F00E94B70AFE01F7CF90
:1015D000DF91CF910895F8948091991820919818EF
:1015E000789490E080589F4F821B91098F779927BC
:1015F0000895F89480919818809399187894089594
:101600001F920F920FB60F9211240BB60F922F93C9
:101610003F934F935F938F939F93EF93FF9320910B
:1016200030013091360128718091941790E0019635
:101630008F7799274091931750E08417950739F0D9
:1016400080939417FC01E956F84E308301C022E0E4
:1016500020939217FF91EF919F918F915F914F91FE
:101660003F912F910F900BBE0F900FBE0F901F90C8
:1016700018951F920F920FB60F9211240BB60F926E
:101680008F939F93EF93FF93909196178091951767
:10169000981779F08091951790E001968F779927A8
:1016A00080939517FC01E95EF74E808180933601A7
:1016B00005C0809131018F7D80933101FF91EF91C1
:1016C0009F918F910F900BBE0F900FBE0F901F90A8
:1016D0001895F894109296171092951710929417E7
:1016E00010929317789497FF04C022E02093300162
:1016F0009F77909335018093340188E9809331017D
:1017000086E0809332010895F89490919417809127
:101710009317981304C0789480E091E0089578942A
:101720008091931790E001968F7799278093931774
:10173000FC01E956F84E20818091921790E0982F95
:101740008827820F911D0895F894909194178091A5
:101750009317981304C0789480E091E008957894EA
:10176000E0919317F0E03196EF77FF27E956F84EB6
:1017700020818091921790E0982F8827820F911DE9
:1017800008952091961730E02F5F3F4F2F77332732
:101790004091951750E024173507D1F3F901E95E20
:1017A000F74E808320939617809131018062809359
:1017B00031010895CF93DF93EC018991882319F0CB
:1017C0000E94C10BFACFDF91CF910895CF93DF93A1
:1017D000FC018491EF012196882321F00E94C10B26
:1017E000FE01F7CFDF91CF910895F894809194177F
:1017F00020919317789490E080589F4F821B910915
:101800008F7799270895F894809193178093941770
:1018100078940895F894E1EBF0E0108282E88093E8
:10182000B200B898A0E7B0E08C9181608C931092E0
:10183000B0008081846080837894089510929D190F
:1018400010929C1910929F1910929E19E1EBF0E0F2
:101850008081816080830895E1EBF0E080818E7F5C
:1018600080830895CF93DF930E94E4098F3F09F4AA
:1018700014C1833509F062C06FEB76E182E492E037
:101880000E949B1782E492E00E94F4092FEF8FE7F9
:1018900094E0215080409040E1F700C000000E9499
:1018A000E4098F3F09F4F9C0282F082E000C330BF0
:1018B00030936902209368023F938F938BE497E102
:1018C0009F938F93C2E4D2E0DF93CF930E94B61729
:1018D000CE010E94F4099FEF2FE784E09150204051
:1018E0008040E1F700C000000E94E4090F900F90D3
:1018F0000F900F900F900F908F3F09F4CEC0282FBC
:10190000082E000C330B30936702209366023F933E
:101910008F9381EC96E19F938F93DF93CF930E94F7
:10192000B617CE010E94F4090E941E0C1092A9194C
:101930001092A81981E08093A71955C0863409F048
:10194000ACC08FEF9FE724E0815090402040E1F74A
:1019500000C000000E94E409C82F66EC76E182E432
:1019600092E00E949B1782E492E00E94F409CD3439
:1019700009F042C068EC76E182E492E00E949B1795
:1019800082E492E00E94F4098FEF9FE724E0815007
:1019900090402040E1F700C000000E94E4098F3F22
:1019A00009F47BC0282F082E000C330B30936702FC
:1019B000209366023F938F9382EC96E19F938F93DF
:1019C00082E492E09F938F930E94B61782E492E0A4
:1019D0000E94F4090E941E0C81E08093A8191092C5
:1019E000A9191092A7198093A6190F900F900F9024
:1019F0000F900F900F9051C0CD3609F04EC06BEC98
:101A000076E182E492E00E949B1782E492E00E94D9
:101A1000F4098FEF9FE724E0815090402040E1F7E8
:101A200000C000000E94E4098F3FB9F1282F082E62
:101A3000000C330B30936702209366023F938F9321
:101A400082EC96E19F938F9382E492E09F938F9331
:101A50000E94B61782E492E00E94F4096EEC76E1EF
:101A600082E492E00E949B1782E492E00E94F409D3
:101A70000E941E0C81E08093A9191092A81910925F
:101A8000A7198093A6190F900F900F900F900F90A9
:101A90000F90DF91CF910C94030CDF91CF910895BB
:101AA000CF93C091A619CC2361F066ED76E182E474
:101AB00092E00E949B1782E492E00E94F409109247
:101AC000A6198C2FCF910895809168029091690298
:101AD00008958091A71908958091A819089580917B
:101AE000A91908958091660290916702089563EEA6
:101AF00076E182E492E00E949B1782E492E00C94EB
:101B0000F4096CEE76E182E492E00E949B1782E495
:101B100092E00E94F4090C942C0C80919C199091F5
:101B20009D1908951092A51981E08093A41910922F
:101B3000A319089581E08093A5191092A419109219
:101B4000A31908951092A5191092A41981E0809309
:101B5000A3190895909365028093640208953B9AB7
:101B6000439808950E940A0C0C94AF0D439A08956F
:101B700081E08093A2190E94B60D8091A719882355
:101B800009F44BC08091A31994E0899F900111241E
:101B90009091A419892F90E0880F991F822B932B85
:101BA0002091A519822B81309105A1F02CF4892B6D
:101BB00089F563EF76E13BC082309105A1F0039790
:101BC00049F580919D198F9380919C198F938EE197
:101BD00097E111C080919D198F9380919C198F93EB
:101BE0008CE097E108C080919D198F9380919C199A
:101BF0008F9385E197E19F938F9382E492E09F9387
:101C00008F930E94B6170F900F900F900F900F9028
:101C10000F9011C064E277E10AC08091A819811188
:101C20000EC08091A91981110AC06FE277E182E4A8
:101C300092E00E949B1782E492E00C94F409809158
:101C40009D198F9380919C198F93809165028F933A
:101C5000809164028F9383E497E19F938F9382E452
:101C600092E09F938F930E94B6178DB79EB7089608
:101C70000FB6F8949EBF0FBE8DBFDDCF4398089579
:101C80001F920F920FB60F9211240BB60F922F9343
:101C90003F934F935F936F937F938F939F93AF93F4
:101CA000BF93EF93FF9380919E1990919F19019696
:101CB00090939F1980939E1980919E1990919F19DE
:101CC000883E934040F180919C1990919D19019616
:101CD00090939D1980939C1910929F1910929E19B0
:101CE0008091A2198823B9F08091A0199091A1192F
:101CF0009C012F5F3F4F3093A1192093A0190297A9
:101D000054F00E943E0E0E942C0C1092A2191092C8
:101D1000A1191092A01982E88093B200B898FF919F
:101D2000EF91BF91AF919F918F917F916F915F9153
:101D30004F913F912F910F900BBE0F900FBE0F90C0
:101D40001F90189580916A0208958091AF19909123
:101D5000B01908959C01261B370BE4E6E29FC001F1
:101D6000E39F900D11249A01261B370BB9010E94A5
:101D7000EA1377FD05C06536710524F4862F0895B2
:101D800080E0089584E60895CF9383E00E94710572
:101D90008093C11982E00E9471058093C01981E08F
:101DA0000E947105C82F8093BF194091B7195091B7
:101DB000B81960917702709178028091C11990E012
:101DC0000E94AA0E8093BE194091B5195091B61980
:101DD00060917502709176028C2F90E00E94AA0E9D
:101DE0008093BC194091B3195091B419609173025A
:101DF000709174028091C01990E00E94AA0E8093A5
:101E0000BD19CF9108950E94C40E8091C11990E030
:101E10002091B7193091B8192817390724F49093F5
:101E2000B8198093B7192091770230917802821700
:101E3000930724F490937802809377028091C019DD
:101E400090E02091B3193091B4192817390724F480
:101E50009093B4198093B319209173023091740256
:101E60008217930724F490937402809373028091F5
:101E7000BF1990E02091B5193091B619281739078C
:101E800024F49093B6198093B5192091750230917E
:101E900076028217930724F490937602809375025A
:101EA000089581E00E94A8080E9489086DE78DE7E7
:101EB0000E94C80980E00E94A8088A3591051CF498
:101EC0000E94030FF7CF81E00E94A8080E948208B9
:101ED00080E00E94A808843B91051CF40E94030F37
:101EE000F7CF81E00E94A8080E94890880E00E9444
:101EF000A8088A3591051CF40E94030FF7CF0C94B3
:101F0000A4088F929F92AF92BF92CF92DF92EF92EE
:101F1000FF920E94C40EE090BC19F12CC090BE1933
:101F2000D12CB7016C197D09072E000C880B990B79
:101F30000E941D154B015C018091BD19B601680F0F
:101F4000711D6E0D7F1D072E000C880B990B0E94D2
:101F50001D1520E030E040E85FE30E9407149B017C
:101F6000AC01C501B4010E94731420E030E04FE7DA
:101F700053E40E94A9154B015C019B01AC016091E7
:101F8000C2197091C3198091C4199091C5190E940A
:101F900006142FE632E143E05BE30E94A9150E949C
:101FA000E5146B017C0120E030E040E05FE3C50117
:101FB000B4010E94A9150E94E514C60ED71E809296
:101FC000C2199092C319A092C419B092C51968ECB5
:101FD00070E06C197D09C60188539F4F6F3F7105F2
:101FE00009F02CF477FF05C060E070E002C06FEFED
:101FF00070E08F3F910509F02CF497FF05C080E059
:1020000090E002C08FEF90E0FF90EF90DF90CF90D4
:10201000BF90AF909F908F900C94C809EF92FF9261
:102020000F931F93CF93DF9300E010E0C0E0D0E068
:10203000E82EF12C0E151F050CF0A7C08091C019D9
:10204000803108F49FC08091C119803108F09AC096
:102050008091BF19803108F095C00E94C40E91E0B4
:102060008091C1198B3008F090E09093AE1981E017
:102070002091BF192B3008F080E08093AD1941E02A
:102080002091C0192B3008F040E04093AC19990F13
:10209000990F440F492BE42FE82BE093AB194E2FF7
:1020A000EE0F550B660B770BFA013197E730F10510
:1020B00030F48827EE58FF4F8F4F0C94FE130E9488
:1020C00074086FEA8DE70E94C809B8CF0E94900893
:1020D0006DE780E012C00E9474086AEA8AEA0E94F2
:1020E000C8092FEF8FE392E0215080409040E1F744
:1020F00046C00E9482086FEA8DE70E94C8092FEF50
:102100008FE392E0215080409040E1F700C0000052
:10211000C1E0D0E093CF0E94950860E08DE712C047
:102120000E9474086FEA8FEA0E94C8092FEF8FE7B8
:1021300094E0215080409040E1F721C00E9489083E
:102140006DE78FEA0E94C8092FEF8FE392E02150DC
:1021500080409040E1F700C00000C0E0D0E06ECFCA
:10216000209719F40E94890802C00E9482086DE736
:102170008DE70E94C8098FEF97E40197F1F700C03F
:1021800000005CCF0F5F1F4F55CF8FE590E00E949E
:102190007009DF91CF911F910F91FF90EF900C94F8
:1021A000A4080F931F93CF93DF93082F0E94740806
:1021B000C0E0D0E010E0C017D107D4F40E94810F36
:1021C0008091C0198D31D0F38091C1198D3120F4E7
:1021D0008091BF198D3190F30E94A40868EC88ECBF
:1021E0000E94C8098FE590E00E9470092196E3CF14
:1021F000DF91CF911F910F9108956FEA8FEA0E94AE
:10220000C80981E490E00E9484096FEA8FEA0E9485
:10221000C8090E9482080E94C40E8091C0198031B2
:10222000D0F30C94A4086FEA8FEA0E94C80981E4F5
:1022300090E00E948E096FEA8FEA0E94C8090E940E
:1022400089080E94C40E8091C0198031D0F30C948B
:10225000A408CF9390916A028917A1F1803391F17C
:10226000C82F9E3449F01CF4953469F029C0933589
:1022700089F09735B1F024C08335C9F08735F1F086
:102280008534F1F418C08335B1F0873581F08E3490
:10229000B9F414C08E3459F0873569F0853481F46F
:1022A0000DC08E3441F0833549F0853449F48AE518
:1022B00090E00E948E090E94131102C00E94FD103E
:1022C000C0936A02CF910895CF9390916A028917C3
:1022D000C1F18033B1F1C82F9E3449F01CF495341C
:1022E00069F02DC0933589F09735B1F028C083355A
:1022F000C9F0873501F1853411F518C08335B1F087
:10230000873581F08E34D9F416C08E3459F0873574
:1023100069F08534A1F40FC08E3441F0833559F053
:10232000853469F48AE590E00E948E098AE590E0A0
:102330000E948E0904C08AE590E00E948409C0933F
:102340006A02CF9108959C01215031092031310555
:1023500020F4FC01E356FD4F608308959C01215059
:1023600031092031310528F4FC01E356FD4F80810D
:10237000089580E3089580919B0290919C028131A1
:10238000910544F4880F991FFC01E155FD4F8081B0
:10239000918108958FEF9FEF089580919B02909116
:1023A0009C02019690939C0280939B020895E09179
:1023B000C619F091C719EF52FD4F80810895880F1B
:1023C000991FFC01E853F64E808191810895CF93C7
:1023D000DF93FC0120E030E08FEF9FE74FEF5FE7F6
:1023E000EB01A991BE01A11107C0A081B1814A17DB
:1023F0005B0714F0C901AD012F5F3F4F32962334C4
:10240000310571F7DF91CF910895CF93DF93EC0100
:10241000FC01EE0FFF1FE853F64E808191818F3F44
:102420002FEF920771F00E940512DF93CF938FE494
:1024300097E19F938F930E94A2170F900F900F9098
:102440000F90DF91CF9108956F927F928F929F921C
:10245000AF92BF92CF92DF92EF92FF920F931F93B2
:10246000CF93DF93CDB7DEB7C354D1090FB6F8943D
:10247000DEBF0FBECDBFDE011196EEE4FAE12FEF15
:102480003FE7219331931D924AE1E43DF407C9F7F8
:102490002FEF3FEF3093C9192093C819FC01EE0FBD
:1024A000FF1FE25BF54E1182108202E410E08824E7
:1024B000839463E4962EBE016F5F7F4F8EE49AE1B2
:1024C0000E94E711E1E0F0E0EC0FFD1FE80FF91FBB
:1024D000808228EC622E29E1722E989E5001999EEE
:1024E000B00C1124EEE4FAE1DE0111967D0120E04A
:1024F00030E0BC01660F771F625B754ED7014D91CE
:102500007D01411118C0A9014A0D5B1D4B595C4F5B
:10251000DA01DC90DD2079F0DB014D915C914D0D0D
:10252000511DC080D1804C155D052CF4D3018D93D5
:102530009C93518340832F5F3F4FB2E06B0E711C21
:10254000329623343105D1F60150110909F0B3CF89
:10255000CD5BDF4F0FB6F894DEBF0FBECDBFDF916E
:10256000CF911F910F91FF90EF90DF90CF90BF9090
:10257000AF909F908F907F906F900895CF93DF934F
:10258000EC01CB010E942412FE0183E0EE0FFF1F3D
:102590008A95E1F7EB52FD4FD081C1815091C61968
:1025A0004091C71920E030E068EB7BE08191919188
:1025B000DC01AA0FBB1FA25BB54E0D90BC91A02DF4
:1025C000A617B7071CF08D2F9C2F03C0522F432F47
:1025D000BD012F5F3F4F2430310519F0D82FC92F8F
:1025E000E5CF5093C6194093C719DF91CF91089555
:1025F0009C0162337105C0F582339105A8F5A3E40F
:10260000A89FF001A99FF00D1124EB59FC4FE60F94
:10261000F71F1082A69FC001A79F900D1124AC0147
:102620004B595C4FFA01E20FF31F1082FB01EE0FD2
:10263000FF1FE853F64E808191818F3F2FEF920765
:1026400079F0A89F9001A99F300D11242B593C4F80
:10265000F901E60FF71F1082FA01E80FF91F108247
:1026600082E490E00C94241208950F931F93CF936B
:10267000DF939C01FB01009749F08234910501F141
:10268000309741F06234710569F480C06D33710593
:1026900049F478C0859731F02D33310519F430971E
:1026A00009F46EC0C9016EE070E00E94EA13EC010B
:1026B0008A3091055CF4219780F4C8E0D0E00DC029
:1026C0006532710509F467C08AE090E065E070E06A
:1026D0000E94EA13EC01CC0FDD1FC90101972EE027
:1026E00030E0B9010E94EA138B01000F111F69E06D
:1026F00070E00E94EA13060F171FCF01B9010E9474
:10270000EA138A3091053CF49C012150310950F4C0
:1027100028E030E007C065E070E00E94EA139C0109
:10272000220F331FCF0101976EE070E00E94EA1381
:10273000FB01EE0FFF1F69E070E00E94EA136E0FCD
:102740007F1F601B710B2C1B3D0B6130710521F04D
:102750006F3F8FEF780769F421303105A9F02F3FE3
:102760008FEF380789F06130710551F06F3F7F4F6F
:1027700049F02130310569F02F3F3F4F29F40BC05C
:1027800083E50AC08EE408C080E306C0859709F09F
:1027900083CF85E401C087E5DF91CF911F910F9131
:1027A00008950E94BB0280E090E00895AA1BBB1B25
:1027B00051E107C0AA1FBB1FA617B70710F0A61B41
:1027C000B70B881F991F5A95A9F780959095BC0162
:1027D000CD01089597FB072E16F4009407D077FDDE
:1027E00009D00E94D61307FC05D03EF49095819540
:1027F0009F4F0895709561957F4F0895EE0FFF1FCD
:10280000881F8BBF0790F691E02D19945058BB2775
:10281000AA270E941E140C946F150E94611538F0AF
:102820000E94681520F039F49F3F19F426F40C94A7
:102830005E150EF4E095E7FB0C945815E92F0E9405
:10284000801558F3BA17620773078407950720F0BD
:1028500079F4A6F50C94A2150EF4E0950B2EBA2F80
:10286000A02D0B01B90190010C01CA01A001112496
:10287000FF27591B99F0593F50F4503E68F11A1642
:10288000F040A22F232F342F4427585FF3CF4695D3
:1028900037952795A795F0405395C9F77EF41F16F5
:1028A000BA0B620B730B840BBAF09150A1F0FF0FBF
:1028B000BB1F661F771F881FC2F70EC0BA0F621FAB
:1028C000731F841F48F4879577956795B795F7959B
:1028D0009E3F08F0B0CF9395880F08F09927EE0F30
:1028E0009795879508950E9487140C946F150E9400
:1028F000681558F00E94611540F029F45F3F29F0F7
:102900000C94581551110C94A3150C945E150E944B
:10291000801568F39923B1F3552391F3951B550B5B
:10292000BB27AA2762177307840738F09F5F5F4FA2
:10293000220F331F441FAA1FA9F335D00E2E3AF0E1
:10294000E0E832D091505040E695001CCAF72BD0F9
:10295000FE2F29D0660F771F881FBB1F261737074A
:102960004807AB07B0E809F0BB0B802DBF01FF277C
:1029700093585F4F3AF09E3F510578F00C945815EC
:102980000C94A3155F3FE4F3983ED4F386957795B6
:102990006795B795F7959F5FC9F7880F911D969535
:1029A000879597F90895E1E0660F771F881FBB1F91
:1029B000621773078407BA0720F0621B730B840B3E
:1029C000BA0BEE1F88F7E09508950E94EC14689406
:1029D000B1110C94A31508950E94881588F09F5793
:1029E00098F0B92F9927B751B0F0E1F0660F771F33
:1029F000881F991F1AF0BA95C9F714C0B13091F029
:102A00000E94A215B1E008950C94A215672F782FAB
:102A10008827B85F39F0B93FCCF3869577956795ED
:102A2000B395D9F73EF490958095709561957F4F59
:102A30008F4F9F4F0895E89409C097FB3EF49095FF
:102A40008095709561957F4F8F4F9F4F9923A9F087
:102A5000F92F96E9BB279395F69587957795679516
:102A6000B795F111F8CFFAF4BB0F11F460FF1BC05A
:102A70006F5F7F4F8F4F9F4F16C0882311F096E9ED
:102A800011C0772321F09EE8872F762F05C066239B
:102A900071F096E8862F70E060E02AF09A95660F54
:102AA000771F881FDAF7880F9695879597F908950D
:102AB00097F99F6780E870E060E008959FEF80ECF1
:102AC000089500240A941616170618060906089594
:102AD00000240A9412161306140605060895092EFA
:102AE0000394000C11F4882352F0BB0F40F4BF2B69
:102AF00011F460FF04C06F5F7F4F8F4F9F4F0895A9
:102B000057FD9058440F551F59F05F3F71F047959E
:102B1000880F97FB991F61F09F3F79F08795089583
:102B2000121613061406551FF2CF4695F1DF08C0A2
:102B3000161617061806991FF1CF869571056105BF
:102B400008940895E894BB2766277727CB0197F967
:102B500008950E94BC150C946F150E94611538F001
:102B60000E94681520F0952311F00C9458150C94D0
:102B70005E1511240C94A3150E94801570F3959F87
:102B8000C1F3950F50E0551F629FF001729FBB2764
:102B9000F00DB11D639FAA27F00DB11DAA1F649F00
:102BA0006627B00DA11D661F829F2227B00DA11DB3
:102BB000621F739FB00DA11D621F839FA00D611D39
:102BC000221F749F3327A00D611D231F849F600D5A
:102BD000211D822F762F6A2F11249F5750409AF083
:102BE000F1F088234AF0EE0FFF1FBB1F661F771F0F
:102BF000881F91505040A9F79E3F510580F00C94DA
:102C000058150C94A3155F3FE4F3983ED4F38695D2
:102C100077956795B795F795E7959F5FC1F7FE2B79
:102C2000880F911D9695879597F90895FA01EE0FF3
:102C3000FF1F309621053105A1F16115710561F481
:102C40008038BFE39B0749F168949038810561F0B3
:102C50008038BFEF9B0741F099234AF5FF3FE1051C
:102C60003105210519F1E8940894E795D901AA23C3
:102C700029F4AB2FBE2FF85FD0F310C0FF5F70F4C4
:102C8000A695E0F7F73950F019F0FF3A38F49F773E
:102C90009F930DD00F9007FC9058089546F00C9428
:102CA0005E1560E070E080E89FE308954FE79F774E
:102CB0005F934F933F932F930E9411172F913F9152
:102CC0004F915F910E94A9150C946E1629F416F08D
:102CD0000C9458150C94A2150C945E150E9488153E
:102CE000A8F39638A0F707F80F92E8942BE33AEA96
:102CF00048EB5FE70E94BF150F920F920F924DB7FE
:102D00005EB70F920E945917E2EFF0E00E94A01602
:102D10004F915F91EF91FF91E595EE1FFF1F49F0F5
:102D2000FE57E0684427EE0F441FFA95E1F74195FE
:102D3000550B0E94D3160F9007FE0C94C7160895EA
:102D4000DF93CF931F930F93FF92EF92DF927B015C
:102D50008C01689406C0DA2EEF010E94BC15FE01BA
:102D6000E894A5912591359145915591A6F3EF01F0
:102D70000E941E14FE019701A801DA9469F7DF9002
:102D8000EF90FF900F911F91CF91DF9108959B01DC
:102D9000AC0160E070E080E89FE30C9473140C9445
:102DA00058150C948D170E948815D8F39923C9F3F0
:102DB000940F511DA3F39150504094F059F0882383
:102DC00032F0660F771F881F91505040C1F79E3F29
:102DD00051052CF7880F911D9695879597F90895C1
:102DE0005F3FACF0983E9CF0BB2786957795679542
:102DF000B79508F4B1609395C1F7BB0F58F711F47C
:102E000060FFE8CF6F5F7F4F8F4F9F4FE3CF0C94F2
:102E1000A31516F00C948D170C945E1568940C9401
:102E200058150E948815A8F39923C1F3AEF3DF93D8
:102E3000CF931F930F93FF92C92FDD2788232AF08A
:102E40002197660F771F881FDAF720E030E040E80F
:102E50005FEB9FE3883920F0803E38F021968F7732
:102E60000E940714EAE1F1E004C00E940714E7E4BD
:102E7000F1E00E94A0168B01BE01EC01FB2E6F5702
:102E800071097595771F880B990B0E941D1528E114
:102E900032E741E35FE30E94BC15AF2D9801AE011C
:102EA000FF900F911F91CF91DF910E941E140C94FF
:102EB0006F15FA01DC01AA0FBB1F9B01AC01BF57C4
:102EC00028F4222733274427507820C0B75190F4A4
:102ED000AB2F0024469537952795011CA395D2F377
:102EE000002071F0220F331F441FB395DAF30ED088
:102EF0000C94061461307105A0E88A07B94630F4D5
:102F00009B01AC016627772788279078309621F0BF
:102F1000208331834283538308959F3F31F0915042
:102F200020F4879577956795B795880F911D9695AD
:102F3000879597F90895FB01DC0101900D9200201F
:102F4000E1F70895CF93DF93CDB7DEB7AE014A5FC7
:102F50005F4FFA0161917191AF018091D61A909102
:102F6000D71A0E94E517DF91CF9108950F931F9311
:102F7000CF93DF93CDB7DEB72E970FB6F894DEBFB1
:102F80000FBECDBF0E891F8986E08C831A8309830B
:102F90008FEF9FE79E838D83AE01465E5F4F688D06
:102FA000798DCE0101960E94E517EF81F885E00F3B
:102FB000F11F10822E960FB6F894DEBF0FBECDBF64
:102FC000DF91CF911F910F9108952F923F924F92D1
:102FD0005F926F927F928F929F92AF92BF92CF92A9
:102FE000DF92EF92FF920F931F93CF93DF93CDB7B2
:102FF000DEB72B970FB6F894DEBF0FBECDBF6C01C6
:103000007B018A01FC0117821682838181FFCCC17A
:10301000CE0101963C01F6019381F70193FD859164
:1030200093FF81917F01882309F4BAC1853239F475
:1030300093FD859193FF81917F01853229F4B6013B
:1030400090E00E94051AE7CF912C212C312CFFE152
:10305000F315D8F08B3279F038F4803279F083327E
:10306000A1F4232D20611DC08D3261F0803369F4FD
:10307000232D216016C0832D8260382EE32DE4605D
:103080003E2E2AC0F32DF8601DC037FC2DC020ED68
:10309000280F2A3040F08E32B9F436FC81C1232D3E
:1030A0002064322E19C036FE06C08AE0989E200D9C
:1030B0001124922E11C0EAE02E9E200D1124222E02
:1030C000F32DF0623F2E08C08C3621F4832D8068EA
:1030D000382E02C0883641F4F70193FD859193FFA5
:1030E00081917F018111B3CF982F9F7D95549330AB
:1030F00028F40C5F1F4F9FE399830DC0833631F096
:10310000833771F0833509F059C021C0F8018081FF
:1031100089830E5F1F4F88248394912C530113C021
:103120002801F2E04F0E511CF801A080B18036FE5C
:1031300003C0692D70E002C06FEF7FEFC5010E94F0
:10314000FA194C018201F32DFF773F2E16C028019A
:1031500022E0420E511CF801A080B18036FE03C06F
:10316000692D70E002C06FEF7FEFC5010E94EF197B
:103170004C01F32DF0683F2E820133FC1BC0822DE1
:1031800090E088169906B0F4B60180E290E00E94C3
:10319000051A2A94F4CFF50137FC859137FE819109
:1031A0005F01B60190E00E94051A21102A9421E0E7
:1031B000821A91088114910471F7E8C0843611F0E5
:1031C000893641F5F80137FE07C06081718182813F
:1031D00093810C5F1F4F08C060817181072E000C26
:1031E000880B990B0E5F1F4FF32DFF763F2E97FF35
:1031F00009C090958095709561957F4F8F4F9F4F37
:10320000F0683F2E2AE030E0A3010E94411A882E88
:10321000861845C0853731F4232D2F7EB22E2AE043
:1032200030E025C0932D997FB92E8F36C1F018F468
:10323000883579F0B5C0803719F0883721F0B0C0F3
:10324000E92FE061BE2EB4FE0DC0FB2DF460BF2E51
:1032500009C034FE0AC0292F2660B22E06C028E01D
:1032600030E005C020E130E002C020E132E0F801AA
:10327000B7FE07C060817181828193810C5F1F4F0F
:1032800006C06081718180E090E00E5F1F4FA30156
:103290000E94411A882E8618FB2DFF773F2E36FE9E
:1032A0000DC0232D2E7FA22E891458F434FE0BC09E
:1032B00032FC09C0832D8E7EA82E05C0B82CA32C0D
:1032C00003C0B82C01C0B92CA4FE0FC0FE01E80D4C
:1032D000F11D8081803321F49A2D997EA92E09C099
:1032E000A2FE06C0B394B39404C08A2D867809F078
:1032F000B394A3FC11C0A0FE06C0B21488F4280C3D
:10330000922C9B180EC0B21460F4B60180E290E0DB
:103310000E94051AB394F7CFB21418F42B1802C008
:10332000982C212CA4FE10C0B60180E390E00E94EE
:10333000051AA2FE17C0A1FC03C088E790E002C0F6
:1033400088E590E0B6010CC08A2D867859F0A1FE80
:1033500002C08BE201C080E2A7FC8DE2B60190E0E2
:103360000E94051A891438F4B60180E390E00E94A7
:10337000051A9A94F7CF8A94F301E80DF11D808124
:10338000B60190E00E94051A8110F5CF222009F4C1
:1033900042CEB60180E290E00E94051A2A94F6CF50
:1033A000F6018681978102C08FEF9FEF2B960FB6B3
:1033B000F894DEBF0FBECDBFDF91CF911F910F916B
:1033C000FF90EF90DF90CF90BF90AF909F908F9045
:1033D0007F906F905F904F903F902F900895FC01E9
:1033E0000590615070400110D8F7809590958E0F30
:1033F0009F1F0895FC016150704001900110D8F7A3
:10340000809590958E0F9F1F08950F931F93CF93D4
:10341000DF93FB01238121FD03C08FEF9FEF2CC0C1
:1034200022FF16C0468157812481358142175307F8
:1034300044F4A081B1819D012F5F3F4F31832083F0
:103440008C93268137812F5F3F4F3783268314C0AB
:103450008B01EC01FB010084F185E02D1995892B8E
:10346000E1F6D80116968D919C91179701961796C3
:103470009C938E931697CE01DF91CF911F910F9160
:103480000895FA01AA27283051F1203181F1E894FA
:103490006F936E7F6E5F7F4F8F4F9F4FAF4FB1E047
:1034A0003ED0B4E03CD0670F781F891F9A1FA11D42
:1034B000680F791F8A1F911DA11D6A0F711D811D43
:1034C000911DA11D20D009F468943F912AE0269F08
:1034D00011243019305D3193DEF6CF010895462F67
:1034E0004770405D4193B3E00FD0C9F7F6CF462F48
:1034F0004F70405D4A3318F0495D31FD40524193B1
:1035000002D0A9F7EACFB4E0A6959795879577956D
:103510006795BA95C9F700976105710508959B01F4
:10352000AC010A2E06945795479537952795BA957D
:10353000C9F7620F731F841F951FA01D0895F8948B
:02354000FFCFBB
:10354200420048656C6C6F2C204920616D2061201F
:1035520046697265626972642D2D2D2D2D2D2D2DDA
:1035620020560A0048656C6C6F20576F726C64209D
:103572004920616D2061204669726562697264202A
:10358200560048656C6C6F2C204920616D206120CB
:1035920046697265626972642D2D2D2D2D2D2D2D9A
:1035A20020560A000100010001004E04000500043B
:1035B200000000FF0FFF0FFF0F48656C6C6F2C209F
:1035C2004920616D20612046697265626972642DCD
:1035D2002D2D2D2D2D2D2D20560A000C0030303092
:1035E2003030303030303030303030303030300DFC
:1035F20000090005000100020006000A000E000F8B
:10360200000B0007000300040008000C001000116A
:10361200004553574E0A0002000B0010000A000238
:10362200000B0010000B0004000C0012000C00063E
:10363200000D0014000D0008000E00160018001006
:103642000019001E00190012001A0020001A0014AE
:10365200001B0022001B0016001C00240026001E76
:103662000027002C002700200028002E002800221E
:103672000029003000290024002A00320034002CE6
:103682000035003A0035002E0036003C003600308E
:103692000037003E0037003200380040004200424E
:1036A2000042004200000000000000000000000094
:1036B2000000000000000000000000000000000008
:1036C20000000000000000000000000000000000F8
:1036D20000000000000000000000000000000000E8
:1036E20000000100000000000000010000000000D6
:1036F20000000100000000000000000000000000C7
:1037020000000000000000000000000000000000B7
:1037120000000000000000000000000000000000A7
:103722000000000000000000000000000100010095
:103732000000000000000000000000000000000087
:103742000000000000000000000000000000000077
:103752000000000000000000000000000000000067
:103762000000000000000000000000000000000057
:103772000100010000000000000100000000000044
:103782000000000000000000000000000000000037
:103792000000000000000000000000000000000027
:1037A2000000000000000000000000000000000017
:1037B2000000000001000100000000000000000005
:1037C20000000000000000000000000000000000F7
:1037D20000000000000000000000000000000000E7
:1037E20000000000000000000000000000000000D7
:1037F20000000000000000000100010000000000C5
:1038020001000000000000000000000000000000B5
:1038120000000000000000000000000000000000A6
:103822000000000000000000000000000000000096
:103832000000000000000000000000000100010084
:103842000000000000000000000000000000000076
:103852000000000000000000000000000000000066
:103862000000000000000000000000000000000056
:103872000000000000000000000000000000000046
:103882000100010000000001000000000000000033
:103892000000000000000000000000000000000026
:1038A2000000000000000000000000000000000016
:1038B2000000000000000000000000000000000006
:1038C20000000000010001000000000000000000F4
:1038D20000000000000000000000000000000000E6
:1038E20000000000000000000000000000000000D6
:1038F20000000000000000000000000000000000C6
:1039020000000000000000000100000000000100B3
:1039120000000000000000000000000000000000A5
:103922000000000000000000000000000000000095
:103932000000000000000000000000000000000085
:103942000000000001000000000000000000000074
:103952000000010000000000000000000000000064
:103962000000000000000000000000000000000055
:103972000000000000000000000000000000000045
:103982000000000000000000000100000000000034
:103992000000000000000001000000000000000024
:1039A2000000000000000000000000000000000015
:1039B2000000000000000000000000000000000005
:1039C20000000000000000000000000000000100F4
:1039D20000000000000000000000000001000000E4
:1039E20000000000000000000000000000000000D5
:1039F20000000000000000000000000000000000C5
:103A020000000000000000000000000000000000B4
:103A120000000001000000000000000000000000A3
:103A22000001000000000000000000000000000093
:103A32000000000000000000000000000000000084
:103A42000000000000000000000000000000000074
:103A52000000000000000000010000000000000063
:103A62000000000000000100000000000000000053
:103A72000000000000000000000000000000000044
:103A82000000000000000000000000000000000034
:103A92000000000000000000000000000100000023
:103AA2000000010000000000000001000000000012
:103AB2000000000000000000000000000000000004
:103AC20000000000000000000000000000000000F4
:103AD20000000000000000000000000000000000E4
:103AE20000000000010001000000000000000000D2
:103AF20000000000000000000000000000000000C4
:103B020000000000000000000000000000000000B3
:103B120000000000000000000000000000000000A3
:103B22000000000100000000010001000000000090
:103B32000001000000000000000000000000000082
:103B42000000000000000000000000000000000073
:103B52000000000000000000000000000000000063
:103B62000000000000000000000000000100010051
:103B72000000000000000000000000000000000043
:103B82000000000000000000000000000000000033
:103B92000000000000000000000000000000000023
:103BA2000000000000000000000001000000000012
:103BB2000100010000000000010000000000000000
:103BC20000000000000000000000000000000000F3
:103BD20000000000000000000000000000000000E3
:103BE20000000000000000000000000000000000D3
:103BF20000000000010001000000000000000000C1
:103C020000000000000000000000000000000000B2
:103C120000000000000000000000000000000000A2
:103C22000000000000000000000000000000000092
:103C3200000100000000000001000100000000017E
:103C42000000000000000000000000000000000072
:103C52000000000000000000000000000000000062
:103C62000000000000000000000000000000000052
:103C72000000000000000000000000000100010040
:103C82000000000000000000000000000000000032
:103C92000000000000000000000000000000000022
:103CA2000000000000000000000000000000000012
:103CB2000000000000000000010000000000000001
:103CC20001000000000001000000000000000000F0
:103CD20000000000000000000000000000000000E2
:103CE20000000000000000000000000000000000D2
:103CF20000000000000000000000000001000000C1
:103D020000000000000000000000010000000000B0
:103D120000000000000000000000000000000000A1
:103D22000000000000000000000000000000000091
:103D32000000000000000000000000000000000081
:103D4200000100000000000000000000000000016F
:103D52000000000000000000000000000000000061
:103D62000000000000000000000000000000000051
:103D72000000000000000000000000000000000041
:103D82000000000000000100000000000000000030
:103D92000000000001000000000000000000000020
:103DA2000000000000000000000000000000000011
:103DB2000000000000000000000000000000000001
:103DC20000000000000000000000000100000000F0
:103DD20000000000000000000001000000000000E0
:103DE20000000000000000000000000000000000D1
:103DF20000000000000000000000000000000000C1
:103E020000000000000000000000000000000000B0
:103E1200010000000000000000000000000001009E
:103E22000000000000000000000000000000000090
:103E32000000000000000000000000000000000080
:103E42000000000000000000000000000000000070
:103E5200000000000100000000000100000000005E
:103E6200000001000000000000000000000000004F
:103E72000000000000000000000000000000000040
:103E82000000000000000000000000000000000030
:103E9200000000000000000000000000010001001E
:103EA2000000000000000000000000000000000010
:103EB2000000000000000000000000000000000000
:103EC20000000000000000000000000000000000F0
:103ED20000000000000000000000000100000000DF
:103EE20001000100000000000001000000000000CD
:103EF20000000000000000000000000000000000C0
:103F020000000000000000000000000000000000AF
:103F1200000000000000000000000000000000009F
:103F2200000000000100010000000000000000008D
:103F3200000000000000000000000000000000007F
:103F4200000000000000000000000000000000006F
:103F5200000000000000000000000000000000005F
:103F6200000001000000000001000100000000004C
:103F7200010000000000000000000000000000003E
:103F8200000000000000000000000000000000002F
:103F9200000000000000000000000000000000001F
:103FA200000000000000000000000000010001000D
:103FB20000000000000000000000000000000000FF
:103FC20000000000000000000000000000000000EF
:103FD20000000000000000000000000000000000DF
:103FE20000000000000000000001000000000000CE
:103FF20001000100000000010000000000000000BC
:1040020000000000000000000000000000000000AE
:10401200000000000000000000000000000000009E
:10402200000000000000000000000000000000008E
:10403200000000000100010000000000000000007C
:10404200000000000000000000000000000000006E
:10405200000000000000000000000000000000005E
:10406200000000000000000000000000000000004E
:10407200010000000000000001000000000001003B
:10408200000000000000000000000000000000002E
:10409200000000000000010000000000000000001D
:1040A200000000000000000000000000000000000E
:1040B20000000000010000000000000000000000FD
:1040C20000000100000000000000000000000000ED
:1040D20000000000000000000000000000000000DE
:1040E20000000000000000000000000000000000CE
:1040F20000000000000000000001000000000000BD
:1041020000000000000000010000000000000000AC
:10411200000000000000000000000000000000009D
:10412200000000000000000000000000000000008D
:10413200000000000000000000000000000001007C
:10414200000000000000000000000000010000006C
:10415200000000000000000000000000000000005D
:10416200000000000000000000000000000000004D
:10417200000000000000000000000000000000003D
:10418200000000010000000000000000000000002C
:10419200000100000000000000000000000000001C
:1041A200000000000000000000000000000000000D
:1041B20000000000000000000000000000000000FD
:1041C20000000000000000000100000000000000EC
:1041D20000000000000001000000000000000000DC
:1041E20000000000000000000000000000000000CD
:1041F20000000000000000000000000000000000BD
:1042020000000000000000000000000001000000AB
:10421200000001000000000000000100000000009A
:10422200000000000000000000000000000000008C
:10423200000000000000000000000000000000007C
:10424200000000000000000000000000000000006C
:10425200000000000100010000000000000000005A
:10426200000000000000000000000000000000004C
:10427200000000000000000000000000000000003C
:10428200000000000000000000000000000000002C
:104292000000000100000000010001000000000019
:1042A200000100000000000000000000000000000B
:1042B20000000000000000000000000000000000FC
:1042C20000000000000000000000000000000000EC
:1042D20000000000000000000000000001000100DA
:1042E20000000000000000000000000000000000CC
:1042F20000000000000000000000000000000000BC
:1043020000000000000000000000000000000000AB
:10431200000000000000000000000100000000009A
:104322000100010000000000010000000000000088
:10433200000000000000000000000000000000007B
:10434200000000000000000000000000000000006B
:10435200000000000000000000000000000000005B
:104362000000000001000100000000000000000049
:10437200000000000000000000000000000000003B
:10438200000000000000000000000000000000002B
:10439200000000000000000000000000000000001B
:1043A2000001000000000000010001000000000107
:1043B20000000000000000000000000000000000FB
:1043C20000000000000000000000000000000000EB
:1043D20000000000000000000000000000000000DB
:1043E20000000000000000000000000001000100C9
:1043F20000000000000000000000000000000000BB
:1044020000000000000000000000000000000000AA
:10441200000000000000000000000000000000009A
:104422000000000000000000010000000000000089
:104432000100000000000100000000000000000078
:10444200000000000000000000000000000000006A
:10445200000000000000000000000000000000005A
:104462000000000000000000000000000100000049
:104472000000000000000000000001000000000039
:10448200000000000000000000000000000000002A
:10449200000000000000000000000000000000001A
:1044A200000000000000000000000000000000000A
:1044B20000010000000000000000000000000001F8
:1044C20000000000000000000000000000000000EA
:1044D20000000000000000000000000000000000DA
:1044E20000000000000000000000000000000000CA
:1044F20000000000000001000000000000000000B9
:1045020000000000010000000000000000000000A8
:104512000000000000000000000000000000000099
:104522000000000000000000000000000000000089
:104532000000000000000000000000010000000078
:104542000000000000000000000100000000000068
:104552000000000000000000000000000000000059
:104562000000000000000000000000000000000049
:104572000000000000000000000000000000000039
:104582000100000000000000000000000000010027
:104592000000000000000000000000000000000019
:1045A2000000000000000000000000000000000009
:1045B20000000000000000000000000000000000F9
:1045C20000000000010000000000010000000000E7
:1045D20000000000000000000000000000000000D9
:1045E20000000000000000000000000000000000C9
:1045F20000000000000000000000000000000000B9
:1046020000000000000000000000000001000100A6
:104612000000000000000000000000000000000098
:104622000000000000000000000000000000000088
:104632000000000000000000000000000000000078
:104642000000000000000000000000010000000067
:104652000100010000000000000000000000000056
:104662000000000000000000000000000000000048
:104672000000000000000000000000000000000038
:104682000000000000000000000000000000000028
:104692000000000001000100000000000100000015
:1046A2000000000000000000000000000000000008
:1046B20000000000000000000000000000000000F8
:1046C20000000000000000000000000000000000E8
:1046D20000000100000000000100010000000000D5
:1046E20000000000000000000000000000000000C8
:1046F20000000000000000000000000000000000B8
:1047020000000000000000000000000000000000A7
:104712000000000000000000000000000100010095
:104722000000000000000000000000000000000087
:104732000000000000000000000000000000000077
:104742000000000000000000000000000000000067
:104752000000000000000000000100000000000056
:104762000100010000000000000000000000000045
:104772000000000000000000000000000000000037
:104782000000000000000000000000000000000027
:104792000000000000000000000000000000000017
:1047A2000000000001000100000000000000000005
:1047B20000000000000000000000000000000000F7
:1047C20000000000000000000000000000000000E7
:1047D20000000000000000000000000000000000D7
:1047E20001000000000000000100000000000000C5
:1047F20000000000000000000000000000000000B7
:1048020000000000000000000000000000000000A6
:104812000100000000000000000000000000000095
:1048220000000000000000000000000000003173E2
:1048320074204E6F64650A5E004D6964204E6F6499
:10484200650A5E00393020446567726565204C65F3
:104852006674207475726E0A5E0043656E746572CA
:10486200206F6620626C6F636B207265616368659E
:10487200640A5E004261636B206F6E206C696E6534
:104882000A5E004C656674205475726E0A5E0053AF
:1048920074617274204C6F636174696F6E0A5E009A
:1048A20046696E69736865640A5E004265666F7286
:1048B200652064696B737472612C20446573742083
:1048C2006E6F64653A25640A5E0044657320506C1D
:1048D2006F74204E753A25640A5E00506C6F742026
:1048E2005363616E20436F6D706C6574650A5E0080
:1048F2004D6F76696E6720746F206E6F64653A251E
:10490200640A5E0052656163686564206E6F646567
:104912003A25640A5E00506C6F74206E752025641F
:1049220020726561636865640A5E00526F74617427
:10493200696F6E2066696E69736865640A5E00500D
:104942006C6F74206E6F3A2025642077697468203A
:104952004D616A6F7220496E6A7572790A5E005003
:104962006C6F74206E6F3A2025642077697468201A
:104972004D696E6F7220496E6A7572790A5E0050D7
:104982006C6F74206E6F3A202564207769746820FA
:104992004E6F20496E6A7572790A5E00506C6F74B0
:1049A200207363616E20636F6D706C5E0043616C97
:1049B20020446F6E650A5E00436F6D6D616E642008
:1049C2005570646174650A5E005461736B324220F3
:1049D200636F6D706C6574650A5E00526564205089
:1049E200756C73657300477265656E2050756C73E4
:1049F200657300426C75652050756C736573005366
:104A0200002D25640A0046004D2D006D2D00436DDA
:104A1200642052780A0049735F436D643A74727578
:104A2200650A0061636365707465640069676E6F2F
:104A32007265004572726F7220696E207461736BC9
:104A420020636F6D706C6574696F6E006D696E6F57
:104A5200722D2564006D616A6F722D2564006E6F80
:104A62002D2564005363616E2D4572726F7200458D
:104A720072726F72206465636F64696E672074611D
:104A8200736B0066657463682D25642D25640025AB
:044A9200642000009C
:00000001FF
