:100000000C94C8000C94A5040C94E9000C94E9002D
:100010000C94E9000C940D070C94E8060C94E9008C
:100020000C94E9000C94E9000C94E9000C94E900AC
:100030000C94E9000C94E9000C94E9000C94F30C86
:100040000C94E9000C94E9000C94E9000C94E9008C
:100050000C94E9000C94E9000C94E9000C94E9007C
:100060000C94E9000C94B4080C94ED080C94E9008D
:100070000C94E9000C94E9000C94E9000C94E9005C
:100080000C94E9000C94E9000C94E9000C94E9004C
:100090000C94E9000C94E9000C94E9000C94E9003C
:1000A0000C94E9000C94E9000C94E9000C94E9002C
:1000B0000C94E9000C94E9000C94E9000C94E9001C
:1000C0000C94E9000C94E9000C94E9000C94E9000C
:1000D0000C94E9000C94E9000C94BE090C94F70907
:1000E0000C94E900110F160F240F360F3B0F490F28
:1000F0005B0F07634236B79BD8A71A39685618AE0C
:10010000BAAB558C1D3CB7CC5763BD6DEDFD753E4C
:10011000F6177231BF000000803F08000000BE9259
:100120002449123EABAAAA2ABECDCCCC4C3E00003C
:100130000080BEABAAAAAA3E00000000BF000000DB
:10014000803F0000000000084178D3BB4387D113F3
:100150003D190E3CC3BD4282AD2B3E68EC8276BE9B
:10016000D98FE1A93E4C80EFFFBE01C4FF7F3F0065
:10017000000000000C94240F0C94360F0C94160F02
:100180000C943B0F0C94490F0C945B0F0C94110FC3
:1001900011241FBECFEFD1E2DEBFCDBF00E00CBF08
:1001A00013E0A0E0B2E0E0E2FDE200E00BBF02C03D
:1001B00007900D92A83AB107D9F726E0A8EAB3E074
:1001C00001C01D92A131B207E1F70E94D40F0C9437
:1001D0008E160C9400000E940C040E9413040E94CE
:1001E000AA010E941F020E94CD040E94DE040E9408
:1001F00095060E949C060E94A7060E94AE060E94D9
:10020000BC060E94EB0C0C94AC08CF9381E00E94DA
:100210007C0F60E972E080E092E00E949E1380E033
:1002200092E00E94B20881E00E947C0F69E972E0CE
:1002300080E092E00E949E1380E092E00E94B2086B
:100240006FEA8FEA0E9486088AE590E00E944208E1
:1002500062EA72E080E092E00E949E1380E092E009
:100260000E94B20868EC88EC0E94860884EB90E05B
:100270000E942E0866EB72E080E092E00E949E13DE
:1002800080E092E00E94B2080E944606C82F0E94B9
:10029000AA080E944E028C2F0E947B02C23519F4DC
:1002A0000E94470C07C0C73419F40E944F0C02C0CB
:1002B0000E94570C84EB90E00E9438086EEC72E0CC
:1002C00080E092E00E949E1380E092E00E94B208DB
:1002D0000E94A80F6BED72E080E092E00E949E13F6
:1002E00080E092E00E94B20881E00E947C0F60E909
:1002F00072E080E092E00E949E1380E092E00E9413
:10030000B20881E00E947C0F65EE72E080E092E02E
:100310000E949E1380E092E00E94B20864EF72E0B7
:1003200080E092E00E949E1380E092E0CF910C94D6
:10033000B7020E94EB000E94FC0D0E94F00A0E948E
:10034000130C882331F00E942C0C0E9405010E949E
:10035000640CFFCF87B1876087B987B1806F87B999
:1003600088B1887F88B988B18F7088B9089586E68A
:100370009EE00197F1F700004098419880E388B92A
:10038000429AEFEFF7E43197F1F700C0000042988E
:10039000E6E6FEE03197F1F700004098419888B911
:1003A000429AEFEFF7E43197F1F700C0000042986E
:1003B000E6E6FEE03197F1F700004098419888B9F1
:1003C000429A8FEF97E40197F1F700C0000042983E
:1003D000E6E6FEE03197F1F700004098419880E2B0
:1003E00088B9429A8FEF97E40197F1F700C00000B7
:1003F0004298089598B19F7098B998B1282F207F9E
:10040000922B98B940984198429AEFEFF7E43197D0
:10041000F1F700C00000429898B19F7098B998B168
:100420008295807F892B88B940984198429A8FEFB6
:1004300097E40197F1F700C00000429808950E94E8
:10044000B70186E69EE00197F1F7000088E20E947E
:10045000FA0181E00E94FA0186E00E94FA018EE032
:100460000E94FA0180E80C94FA0180E80C94FA01E9
:10047000982F862F923059F01CF4913031F0089566
:10048000933039F0943039F00895815805C0815483
:1004900003C08D5601C08D520C94FA0181E00C947A
:1004A000FA01CF93C42F0E94380288B18F7088B9A7
:1004B00088B19C2F907F892B88B9409A4198429AA5
:1004C0008FEF97E40197F1F700C000004298C295C2
:1004D000C07F88B18F7088B988B1C82BC8B9409ADD
:1004E0004198429A8FEF97E40197F1F700C000001E
:1004F0004298CF91089598B19F7098B998B1282FDC
:10050000207F922B98B9409A4198429AEFEFF7E4F6
:100510003197F1F700C0000042988295807F98B132
:100520009F7098B998B1892B88B9409A4198429A9E
:100530008FEF97E40197F1F700C00000429808950B
:100540000F931F93CF93DF93D82FC62F8A01F80103
:1005500041918F01442331F06C2F8D2F0E94510265
:10056000CF5FF5CFDF91CF911F910F910895CF937A
:10057000DF93EC018991882319F00E947B02FACF66
:10058000DF91CF910895EF92FF920F931F93CF9336
:10059000DF93D82FC62F8A0179010E94380217FFF6
:1005A00009C01195019511094DE26C2F8D2F0E9404
:1005B0005102CF5FDD2311F0C11103C00E9435024B
:1005C00004C06C2F8D2F0E94380285E0E816F104DC
:1005D00009F07FC0C80160E177E20E94ED0FAB0136
:1005E000405D5F4F5093A9034093A8036C2F8D2F5C
:1005F0000E945102CF5FC80168EE73E00E94ED0FC8
:10060000CB017093B3036093B2036AE070E00E9481
:10061000D90FAC01405D5F4F5093AB034093AA03E9
:100620006C2F8D2F0E945102CF5FC80164E670E0ED
:100630000E94ED0FCB017093B3036093B2036AE0A5
:1006400070E00E94D90FAC01405D5F4F5093AD0345
:100650004093AC036C2F8D2F0E945102CF5F2AE094
:1006600030E0C801B9010E94ED0FCB017093B303D4
:100670006093B203B9010E94D90FAC01405D5F4F96
:100680005093AF034093AE036C2F8D2F0E94510205
:10069000CF5FC8016AE070E00E94ED0FAC01405DE1
:1006A0005F4F5093B1034093B0036C2F8D2F0E9486
:1006B0005102CF5F86E0E816F104FCF045E46C2FB0
:1006C0008D2FDF91CF911F910F91FF90EF900C94A0
:1006D000510284E0E816F10409F48DCF83E0E816B6
:1006E000F10409F4A2CF82E0E816F10409F4B7CFCF
:1006F00081E0E816F104F1F6CCCFDF91CF911F91A4
:100700000F91FF90EF9008950F931F93CF93DF9376
:100710008A01E901882311F0611103C00E943502AA
:1007200002C00E943802C530D10509F061C0C8017D
:1007300060E177E20E94D90FCB01C0969093A903A4
:100740008093A8030E947B02C80168EE73E00E94B8
:10075000D90FCB017093B3036093B2036AE070E0EA
:100760000E94D90FC0969093AB038093AA030E9476
:100770007B02C80164E670E00E94D90FCB01709340
:10078000B3036093B2036AE070E00E94D90FC09691
:100790009093AD038093AC030E947B022AE030E08B
:1007A000C801B9010E94D90FCB017093B3036093C4
:1007B000B203B9010E94D90FC0969093AF03809302
:1007C000AE030E947B02C8016AE070E00E94D90F6C
:1007D000C0969093B1038093B0030E947B0226974A
:1007E000B4F085E4DF91CF911F910F910C947B02BF
:1007F000C430D10509F4A8CFC330D10509F4B9CF6D
:10080000C230D10559F2C130D10549F7DCCFDF91B3
:10081000CF911F910F91089510BA11BA109207014C
:10082000109208010895EAE7F0E0808186688083ED
:10083000808186788083EBE7F0E08081807B808315
:10084000ECE7F0E080818076808380818064808323
:1008500080818062808380B7806880BF08958830FF
:1008600028F090917B00986090937B0090917C00A1
:100870008770892B80937C0080917A0080648093BC
:100880007A0080917A0084FFFCCF8091790090916A
:100890007A00906190937A0090917B00977F90937B
:1008A0007B0090917C00907E90937C000895682F4F
:1008B00070E080E090E00E941E112FEE39EC43E9D9
:1008C0005FE30E9419129B01AC0160E070E080E8D8
:1008D0009FE30E9476102AE939EF4EE255E40E9428
:1008E000AC1120E030E040E251E40E94AC110E94E3
:1008F000E810CB016132734010F080E293E008957C
:10090000CF93DF93C82FD62F842F0E942F0480937C
:10091000C103482F50E023E030E06D2F8C2FDF9192
:10092000CF910C94C3028AB18E6F8AB9589A0895F8
:100930000E94AA010C949304F894E9E6F0E0808107
:1009400082608083E89A789408951F920F920FB680
:100950000F9211248F939F93AF93BF938091CE03F7
:100960009091CF03A091D003B091D1030196A11D26
:10097000B11D8093CE039093CF03A093D003B09387
:10098000D103BF91AF919F918F910F900FBE0F90A8
:100990001F9018955C9A5D9A0895F8940E949304AC
:1009A0000E949C0478940C94CA045E985F98089501
:1009B0005E9A5F9A08955E985F9A08955E9A5F982E
:1009C00008950E94D5041092CE031092CF03109286
:1009D000D0031092D1032FEF8FE794E02150804095
:1009E0009040E1F700C000008091CE039091CF03CA
:1009F000A091D003B091D1038093CA039093CB030D
:100A0000A093CC03B093CD0361E081E00E94380253
:100A10006DEF72E082E292E00E949E1382E292E029
:100A20000E94B7024091CA035091CB036091CC035E
:100A30007091CD0325E030E061E082E00E94840304
:100A40002FEF8FEF9CE2215080409040E1F700C0F3
:100A5000000081E00C94FA010E94D8041092CE03A9
:100A60001092CF031092D0031092D1032FEF8FE793
:100A700094E0215080409040E1F700C00000809158
:100A8000CE039091CF03A091D003B091D103809376
:100A9000C2039093C303A093C403B093C50361E062
:100AA00081E00E94380268E073E082E292E00E94F6
:100AB0009E1382E292E00E94B7024091C2035091DD
:100AC000C3036091C4037091C50325E030E061E089
:100AD00082E00E9484032FEF8FEF9CE22150804040
:100AE0009040E1F700C0000081E00C94FA010E9400
:100AF000DB041092CE031092CF031092D003109219
:100B0000D1032FEF8FE794E0215080409040E1F730
:100B100000C000008091CE039091CF03A091D0033C
:100B2000B091D1038093C6039093C703A093C803E9
:100B3000B093C90361E081E00E94380265E173E08F
:100B400082E292E00E949E1382E292E00E94B7024B
:100B50004091C6035091C7036091C8037091C903C7
:100B600025E030E061E082E00E9484032FEF8FEF08
:100B70009CE2215080409040E1F700C0000081E0FD
:100B80000C94FA010E94D5041092CE031092CF0368
:100B90001092D0031092D1032FEF8FE794E02150F1
:100BA00080409040E1F700C000008091CE0390911A
:100BB000CF03A091D003B091D1038093CA03909347
:100BC000CB03A093CC03B093CD036091CA03709183
:100BD000CB038091CC039091CD0308950E94D8045B
:100BE0001092CE031092CF031092D0031092D10333
:100BF0002FEF8FE794E0215080409040E1F700C054
:100C000000008091CE039091CF03A091D003B091CA
:100C1000D1038093C2039093C303A093C403B09302
:100C2000C5036091C2037091C3038091C403909186
:100C3000C50308950E94DB041092CE031092CF03E7
:100C40001092D0031092D1032FEF8FE794E0215040
:100C500080409040E1F700C000008091CE03909169
:100C6000CF03A091D003B091D1038093C60390939A
:100C7000C703A093C803B093C9036091C6037091E2
:100C8000C7038091C8039091C90308958F929F92E2
:100C9000AF92BF92CF92DF92EF92FF920E94C20575
:100CA0006B017C010E941A064B015C010E94EE055B
:100CB00027E0C21626E1D206E104F10430F06230EA
:100CC00022E172078105910500F58C149D04AE04A4
:100CD000BF0428F46C157D058E059F05C0F0C8146F
:100CE000D904EA04FB0428F4681579058A059B05F4
:100CF00080F086169706A806B90668F4C616D706C9
:100D0000E806F90640F487E407C087E505C082E5F8
:100D100003C082E401C080E3FF90EF90DF90CF90AA
:100D2000BF90AF909F908F90089581B18F6081B9EF
:100D300082B1807F82B90895EAE0F1E08081886124
:100D40008083EBE0F1E080818861808308958DB13C
:100D50008F7C8DB98EB180638EB90895F8948DB370
:100D600080638DBBEAE6F0E080818A6080838081C9
:100D70008A7F808378940895E1E2F1E010828FEF1A
:100D80008093250191E09093240110922901809392
:100D9000280110922B0180932A01A0E2B1E08C91EE
:100DA000806A8C938C918F7A8C938C9181608C93D8
:100DB0008C918D7F8C9380818860808380818F7EF1
:100DC000808380818360808380818B7F808308958E
:100DD0001F920F920FB60F9211248F939F93AF9390
:100DE000BF938091D4039091D503A091D603B09185
:100DF000D7030196A11DB11D8093D4039093D50311
:100E0000A093D603B093D703BF91AF919F918F91D9
:100E10000F900FBE0F901F9018951F920F920FB654
:100E20000F9211248F939F93AF93BF938091D80318
:100E30009091D903A091DA03B091DB030196A11D33
:100E4000B11D8093D8039093D903A093DA03B09394
:100E5000DB03BF91AF919F918F910F900FBE0F90C9
:100E60001F90189582B1867F82B982B1866082B95F
:100E7000089582B1897F82B982B1896082B908956B
:100E800082B1857F82B982B1856082B9089582B1CD
:100E90008A7F82B982B18A6082B9089582B1887FDF
:100EA00082B9129A089582B1827F82B9119A089507
:100EB00082B1817F82B9109A089582B1887F82B908
:100EC000139A089582B1807F82B908950F931F937A
:100ED000813099F41092D4031092D5031092D60366
:100EE0001092D7031092D8031092D9031092DA030C
:100EF0001092DB0380E090E029C04091D403509130
:100F0000D5036091D6037091D7038091D803909157
:100F1000D903A091DA03B091DB038A019B01080F8A
:100F2000191F2A1F3B1FC901B8010E941E1128E486
:100F300031EE42E850E40E94AC1120E030E040E0A5
:100F40005FE30E94AC110E94E810CB011F910F914A
:100F50000895BC0180E090E00E941E1128E431EE6B
:100F600042E850E40E9476100E94EF10CB01A0E00E
:100F7000B0E01092D4031092D5031092D6031092D1
:100F8000D7031092D8031092D9031092DA0310926B
:100F9000DB034091D4035091D5036091D603709147
:100FA000D703481759076A077B0798F44091D8037D
:100FB0005091D9036091DA037091DB034817590708
:100FC0006A077B0730F4E6E6FEE03197F1F70000B0
:100FD000E0CF0C9462070F931F93BC0180E090E078
:100FE0000E941E1125EE30ED4AEA50E40E94761070
:100FF0000E94EF101092D4031092D5031092D603E2
:101000001092D7031092D8031092D9031092DA03EA
:101010001092DB030091D4031091D5032091D603E5
:101020003091D703061717072807390798F400915E
:10103000D8031091D9032091DA033091DB0306170E
:1010400017072807390730F4E6E6FEE03197F1F795
:101050000000E0CF1F910F910C946207CF93DF93B4
:10106000EC010E943207CE01DF91CF910C94EB0787
:10107000CF93DF93EC010E943907CE01DF91CF912E
:101080000C94EB07CF93DF93EC010E944007CE0155
:10109000DF91CF910C94A907CF93DF93EC010E94CD
:1010A0004707CE01DF91CF910C94A907CF93DF932F
:1010B000EC010E944E07CE01880F991FDF91CF915E
:1010C0000C94A907CF93DF93EC010E945307CE0144
:1010D000880F991FDF91CF910C94A907CF93DF93CD
:1010E000EC010E945807CE01880F991FDF91CF9124
:1010F0000C94A907CF93DF93EC010E945D07CE010A
:10110000880F991FDF91CF910C94A9078093280134
:1011100060932A010895E1E0F1E08081806280839C
:10112000E2E0F1E08081806280830895E2E0F1E016
:1011300080818F7D80830895E2E0F1E0808180628C
:10114000808308950E94420A911102C0811108957E
:101150008FEF08950C947F0A87E090E00E94270AA1
:101160000C94C10A0C94980A1F920F920FB60F921A
:1011700011240BB60F922F933F934F935F938F934E
:101180009F93EF93FF932091C0003091C600287188
:101190008091E80490E001968F7799274091E704C9
:1011A00050E08417950739F08093E804FC01E5517D
:1011B000FB4F308301C022E02093E604FF91EF91C2
:1011C0009F918F915F914F913F912F910F900BBE07
:1011D0000F900FBE0F901F9018951F920F920FB691
:1011E0000F9211240BB60F928F939F93EF93FF935F
:1011F0009091EA048091E904981779F08091E904CC
:1012000090E001968F7799278093E904FC01E559D6
:10121000FA4F80818093C60005C08091C1008F7D08
:101220008093C100FF91EF919F918F910F900BBE22
:101230000F900FBE0F901F901895F8941092EA042B
:101240001092E9041092E8041092E704789497FF52
:1012500004C022E02093C0009F779093C500809344
:10126000C40088E98093C10086E08093C20008959D
:10127000F8949091E8048091E704981304C078945E
:1012800080E091E0089578948091E70490E00196E1
:101290008F7799278093E704FC01E551FB4F20816C
:1012A0008091E60490E0982F8827820F911D089581
:1012B000F8949091E8048091E704981304C078941E
:1012C00080E091E008957894E091E704F0E03196B1
:1012D000EF77FF27E551FB4F20818091E60490E0F6
:1012E000982F8827820F911D08952091EA0430E0FD
:1012F0002F5F3F4F2F7733274091E90450E02417A9
:101300003507D1F3F901E559FA4F80832093EA04B8
:101310008091C10080628093C1000895CF93DF93D4
:10132000EC018991882319F00E947509FACFDF91A9
:10133000CF910895CF93DF93FC018491EF01219623
:10134000882321F00E947509FE01F7CFDF91CF912C
:101350000895F8948091E8042091E704789490E04F
:1013600080589F4F821B91098F7799270895F89491
:101370008091E7048093E804789408951F920F9277
:101380000FB60F9211240BB60F922F933F934F93EA
:101390005F938F939F93EF93FF9320913001309150
:1013A000360128718091E30390E001968F779927A9
:1013B0004091E20350E08417950739F08093E303EE
:1013C000FC01EA51FC4F308301C022E02093E1038D
:1013D000FF91EF919F918F915F914F913F912F914D
:1013E0000F900BBE0F900FBE0F901F9018951F927D
:1013F0000F920FB60F9211240BB60F928F939F93FB
:10140000EF93FF939091E5038091E403981779F0AF
:101410008091E40390E001968F7799278093E4030D
:10142000FC01EA59FB4F80818093360105C0809111
:1014300031018F7D80933101FF91EF919F918F91C9
:101440000F900BBE0F900FBE0F901F901895F89441
:101450001092E5031092E4031092E3031092E2036A
:10146000789497FF04C022E0209330019F779093F7
:1014700035018093340188E98093310186E08093BF
:1014800032010895F8949091E3038091E203981358
:1014900004C0789480E091E0089578948091E2030C
:1014A00090E001968F7799278093E203FC01EA513F
:1014B000FC4F20818091E10390E0982F8827820FD4
:1014C000911D0895F8949091E3038091E20398139D
:1014D00004C0789480E091E008957894E091E2036C
:1014E000F0E03196EF77FF27EA51FC4F20818091A1
:1014F000E10390E0982F8827820F911D0895209195
:10150000E50330E02F5F3F4F2F7733274091E4030F
:1015100050E024173507D1F3F901EA59FB4F8083D6
:101520002093E50380913101806280933101089519
:10153000CF93DF93EC018991882319F00E947F0AF1
:10154000FACFDF91CF910895CF93DF93FC0184917F
:10155000EF012196882321F00E947F0AFE01F7CF38
:10156000DF91CF910895F8948091E3032091E203F5
:10157000789490E080589F4F821B91098F7799272C
:101580000895F8948091E2038093E303789408959A
:10159000F894E1EBF0E0108282E88093B200B89812
:1015A000A0E7B0E08C9181608C931092B0008081B4
:1015B00084608083789408951092EC051092EB0576
:1015C0001092EE051092ED05E1EBF0E08081816074
:1015D00080830895E1EBF0E080818E7F8083089521
:1015E000AF92BF92CF92DF92EF92FF920F931F9331
:1015F000CF93DF930E94A208C82F00E313E0D1E04D
:1016000094EAC92E93E0D92E2FE2A22E23E0B22E27
:10161000CF3F09F4FDC061E273E080E492E00E94F4
:101620009E1380E492E00E94B208C33509F05FC0C7
:101630006DE273E080E492E00E949E1380E492E009
:101640000E94B2082FEF8FE794E021508040904035
:10165000E1F700C000000E94A208C82F8F3F09F4E4
:10166000D7C0082E000C990B9093670280936602F6
:101670009F93CF93DF92CF9280E4E82E82E0F82E02
:10168000FF92EF920E94A513C7010E94B2082FEFAC
:101690008FE794E0215080409040E1F700C00000C7
:1016A0000E94A208C82F0F900F900F900F900F90DC
:1016B0000F908F3F09F4ACC0082E000C990B90934B
:1016C0006502809364029F93CF93BF92AF92FF9283
:1016D000EF920E94A513C7010E94B2080E94DC0A83
:1016E0001092F8051092F705D093F60588C0C6341D
:1016F00009F08ECF2FEF8FE794E02150804090408B
:10170000E1F700C000000E94A208C82F64E373E064
:1017100080E492E00E949E1380E492E00E94B2086E
:10172000CD34A9F566E373E080E492E00E949E1355
:1017300080E492E00E94B2082FEF8FE794E02150FE
:1017400080409040E1F700C000000E94A208C82F2E
:101750008F3F09F45DC0082E000C990B9093650231
:10176000809364029F93CF931F930F9380E492E042
:101770009F938F930E94A51380E492E00E94B20889
:101780000E94DC0AD093F7051092F80536C0CD36DA
:1017900009F03ECF69E373E080E492E00E949E137B
:1017A00080E492E00E94B2082FEF8FE794E021508E
:1017B00080409040E1F700C000000E94A208C82FBE
:1017C0008F3F31F1082E000C990B909365028093A6
:1017D00064029F93CF931F930F9380E492E09F93B3
:1017E0008F930E94A51380E492E00E94B2080E94A9
:1017F000DC0AD093F8051092F7051092F605D09305
:10180000F5050F900F900F900F900F900F9000CF55
:10181000DF91CF911F910F91FF90EF90DF90CF90CC
:10182000BF90AF9008958091F50581111092F50554
:101830000895809166029091670208958091F6055F
:1018400008958091F70508958091F8050895809195
:1018500064029091650208956CE373E080E492E085
:101860000E949E1380E492E00C94B20865E473E059
:1018700080E492E00E949E1380E492E00E94B2080D
:101880000C94EA0A8091EB059091EC050895109272
:10189000F40581E08093F3051092F205089581E04C
:1018A0008093F4051092F3051092F20508951092BA
:1018B000F4051092F30581E08093F205089590936A
:1018C000630280936202089581E08093F105809124
:1018D000F605882309F44BC08091F20594E0899FB6
:1018E000900111249091F305892F90E0880F991FA2
:1018F000822B932B2091F405822B81309105A1F04E
:101900002CF4892B89F56CE473E03BC0823091059F
:10191000A1F0039749F58091EC058F938091EB0539
:101920008F9387E793E011C08091EC058F938091AE
:10193000EB058F9385E693E008C08091EC058F93CB
:101940008091EB058F938EE693E09F938F9380E4D5
:1019500092E09F938F930E94A5130F900F900F908A
:101960000F900F900F9011C06DE773E00AC0809147
:10197000F70581110EC08091F80581110AC068E851
:1019800073E080E492E00E949E1380E492E00C9465
:10199000B2088091EC058F938091EB058F93809135
:1019A00063028F93809162028F938CE993E09F93FF
:1019B0008F9380E492E09F938F930E94A5138DB73D
:1019C0009EB708960FB6F8949EBF0FBE8DBFDDCFB1
:1019D0003B9A439808950E94C80A0C94E80C439AD5
:1019E0000895439808951F920F920FB60F921124F5
:1019F0000BB60F922F933F934F935F936F937F9309
:101A00008F939F93AF93BF93EF93FF938091ED05D7
:101A10009091EE0501969093EE058093ED058091EF
:101A2000ED059091EE05883E934040F18091EB05E5
:101A30009091EC0501969093EC058093EB05109244
:101A4000EE051092ED058091F1058823B9F08091A3
:101A5000EF059091F0059C012F5F3F4F3093F0050B
:101A60002093EF05029754F00E94F10C0E94EA0ABD
:101A70001092F1051092F0051092EF0582E8809324
:101A8000B200B898FF91EF91BF91AF919F918F9164
:101A90007F916F915F914F913F912F910F900BBE6E
:101AA0000F900FBE0F901F9018959C01261B370BAF
:101AB000E4E6E29FC001E39F900D11249A01261BEA
:101AC000370BB9010E94ED0F77FD05C06536710532
:101AD00024F4862F089580E0089584E60895CF9336
:101AE00083E00E942F0480930C0682E00E942F0462
:101AF00080930B0681E00E942F04C82F80930A0672
:101B0000409102065091030660916C0270916D0243
:101B100080910C0690E00E94550D8093090640913B
:101B200000065091010660916A0270916B028C2F41
:101B300090E00E94550D809307064091FE0550915C
:101B4000FF05609168027091690280910B0690E038
:101B50000E94550D80930806CF9108950E946F0D45
:101B600080910C0690E02091020630910306281720
:101B7000390724F4909303068093020620916C02A7
:101B800030916D028217930724F490936D02809335
:101B90006C0280910B0690E02091FE053091FF05CC
:101BA0002817390724F49093FF058093FE052091B0
:101BB0006802309169028217930724F490936902B6
:101BC0008093680280910A0690E02091000630918F
:101BD00001062817390724F4909301068093000624
:101BE00020916A0230916B028217930724F490933C
:101BF0006B0280936A02089581E00E9466070E944A
:101C000047076DE78DE70E94860880E00E9466071F
:101C10008A3591051CF40E94AE0DF7CF81E00E9439
:101C200066070E94400780E00E946607843B91059A
:101C30001CF40E94AE0DF7CF81E00E9466070E945F
:101C4000470780E00E9466078A3591051CF40E94D0
:101C5000AE0DF7CF0C9462078F929F92AF92BF9216
:101C6000CF92DF92EF92FF920E946F0DE0900706F5
:101C7000F12CC0900906D12CB7016C197D09072EF3
:101C8000000C880B990B0E9420114B015C01809184
:101C90000806B601680F711D6E0D7F1D072E000C22
:101CA000880B990B0E94201120E030E040E85FE3B0
:101CB0000E940A109B01AC01C501B4010E9476107C
:101CC00020E030E04FE753E40E94AC114B015C018F
:101CD0009B01AC0160910D0670910E0680910F067C
:101CE000909110060E9409102FE632E143E05BE379
:101CF0000E94AC110E94E8106B017C0120E030E0F2
:101D000040E05FE3C501B4010E94AC110E94E810FD
:101D1000C60ED71E80920D0690920E06A0920F0658
:101D2000B092100668EC70E06C197D09C60188530A
:101D30009F4F6F3F710509F02CF477FF05C060E0FD
:101D400070E002C06FEF70E08F3F910509F02CF456
:101D500097FF05C080E090E002C08FEF90E0FF9019
:101D6000EF90DF90CF90BF90AF909F908F900C94AA
:101D70008608EF92FF920F931F93CF93DF9300E0BB
:101D800010E0C0E0D0E0E82EF12C0E151F050CF09D
:101D9000A7C080910B06803108F49FC080910C068B
:101DA000803108F09AC080910A06803108F095C011
:101DB0000E946F0D91E080910C068B3008F090E04E
:101DC0009093FD0581E020910A062B3008F080E019
:101DD0008093FC0541E020910B062B3008F040E099
:101DE0004093FB05990F990F440F492BE42FE82BE3
:101DF000E093FA054E2FEE0F550B660B770BFA01A9
:101E00003197E730F10530F48827EE58FF4F8F4FB8
:101E10000C9401100E9432076FEA8DE70E94860839
:101E2000B8CF0E944E076DE780E012C00E943207D3
:101E30006AEA8AEA0E9486082FEF8FE392E0215037
:101E400080409040E1F746C00E9440076FEA8DE76E
:101E50000E9486082FEF8FE392E02150804090404F
:101E6000E1F700C00000C1E0D0E093CF0E9453072B
:101E700060E08DE712C00E9432076FEA8FEA0E948D
:101E800086082FEF8FE794E0215080409040E1F7E3
:101E900021C00E9447076DE78FEA0E9486082FEF56
:101EA0008FE392E0215080409040E1F700C00000B5
:101EB000C0E0D0E06ECF209719F40E94470702C01F
:101EC0000E9440076DE78DE70E9486088FEF97E438
:101ED0000197F1F700C000005CCF0F5F1F4F55CF97
:101EE0008FE590E00E942E08DF91CF911F910F9116
:101EF000FF90EF900C9462070F931F93CF93DF93A3
:101F0000082F0E943207C0E0D0E010E0C017D107D0
:101F1000D4F40E942C0E80910B068D31D0F3809169
:101F20000C068D3120F480910A068D3190F30E94C9
:101F3000620768EC88EC0E9486088FE590E00E94BA
:101F40002E082196E3CFDF91CF911F910F91089535
:101F50006FEA8FEA0E94860885E590E00E944208B9
:101F60006FEA8FEA0E9486080E9440070E946F0D68
:101F700080910B068031D0F30C9462076FEA8FEAF0
:101F80000E94860885E590E00E944C086FEA8FEA7F
:101F90000E9486080E9447070E946F0D80910B06E1
:101FA0008031D0F30C9462070E94990180E090E0A8
:101FB0000895AA1BBB1B51E107C0AA1FBB1FA61790
:101FC000B70710F0A61BB70B881F991F5A95A9F7E2
:101FD00080959095BC01CD01089597FB072E16F4CE
:101FE000009407D077FD09D00E94D90F07FC05D0D7
:101FF0003EF4909581959F4F0895709561957F4F20
:102000000895EE0FFF1F881F8BBF0790F691E02DFC
:1020100019945058BB27AA270E9421100C947211C2
:102020000E94641138F00E946B1120F039F49F3F38
:1020300019F426F40C9461110EF4E095E7FB0C946E
:102040005B11E92F0E94831158F3BA1762077307D7
:102050008407950720F079F4A6F50C94A5110EF4E9
:10206000E0950B2EBA2FA02D0B01B90190010C01A8
:10207000CA01A0011124FF27591B99F0593F50F4C0
:10208000503E68F11A16F040A22F232F342F442718
:10209000585FF3CF469537952795A795F040539510
:1020A000C9F77EF41F16BA0B620B730B840BBAF0E0
:1020B0009150A1F0FF0FBB1F661F771F881FC2F74B
:1020C0000EC0BA0F621F731F841F48F4879577955F
:1020D0006795B795F7959E3F08F0B0CF9395880F19
:1020E00008F09927EE0F9795879508950E948A101A
:1020F0000C9472110E946B1158F00E94641140F010
:1021000029F45F3F29F00C945B1151110C94A61136
:102110000C9461110E94831168F39923B1F3552344
:1021200091F3951B550BBB27AA27621773078407EA
:1021300038F09F5F5F4F220F331F441FAA1FA9F380
:1021400035D00E2E3AF0E0E832D091505040E6956E
:10215000001CCAF72BD0FE2F29D0660F771F881FCF
:10216000BB1F261737074807AB07B0E809F0BB0BC2
:10217000802DBF01FF2793585F4F3AF09E3F5105D6
:1021800078F00C945B110C94A6115F3FE4F3983E39
:10219000D4F3869577956795B795F7959F5FC9F7BF
:1021A000880F911D9695879597F90895E1E0660F40
:1021B000771F881FBB1F621773078407BA0720F0B9
:1021C000621B730B840BBA0BEE1F88F7E095089522
:1021D0000E94EF106894B1110C94A61108950E940A
:1021E0008B1188F09F5798F0B92F9927B751B0F00D
:1021F000E1F0660F771F881F991F1AF0BA95C9F78B
:1022000014C0B13091F00E94A511B1E008950C9472
:10221000A511672F782F8827B85F39F0B93FCCF325
:10222000869577956795B395D9F73EF49095809507
:10223000709561957F4F8F4F9F4F0895E89409C027
:1022400097FB3EF490958095709561957F4F8F4FE9
:102250009F4F9923A9F0F92F96E9BB279395F695FF
:10226000879577956795B795F111F8CFFAF4BB0F7D
:1022700011F460FF1BC06F5F7F4F8F4F9F4F16C0E1
:10228000882311F096E911C0772321F09EE8872F6B
:10229000762F05C0662371F096E8862F70E060E027
:1022A0002AF09A95660F771F881FDAF7880F9695A0
:1022B000879597F9089597F99F6780E870E060E047
:1022C00008959FEF80EC089500240A9416161706CF
:1022D00018060906089500240A9412161306140617
:1022E00005060895092E0394000C11F4882352F07A
:1022F000BB0F40F4BF2B11F460FF04C06F5F7F4F32
:102300008F4F9F4F089557FD9058440F551F59F018
:102310005F3F71F04795880F97FB991F61F09F3FD2
:1023200079F087950895121613061406551FF2CFFB
:102330004695F1DF08C0161617061806991FF1CF4B
:1023400086957105610508940895E894BB27662772
:102350007727CB0197F908950E94BF110C94721151
:102360000E94641138F00E946B1120F0952311F047
:102370000C945B110C94611111240C94A6110E9411
:10238000831170F3959FC1F3950F50E0551F629F25
:10239000F001729FBB27F00DB11D639FAA27F00DBE
:1023A000B11DAA1F649F6627B00DA11D661F829FE5
:1023B0002227B00DA11D621F739FB00DA11D621FCA
:1023C000839FA00D611D221F749F3327A00D611DE7
:1023D000231F849F600D211D822F762F6A2F1124C9
:1023E0009F5750409AF0F1F088234AF0EE0FFF1FFC
:1023F000BB1F661F771F881F91505040A9F79E3F53
:10240000510580F00C945B110C94A6115F3FE4F32E
:10241000983ED4F3869577956795B795F795E795A8
:102420009F5FC1F7FE2B880F911D9695879597F9B1
:102430000895FA01EE0FFF1F309621053105A1F135
:102440006115710561F48038BFE39B0749F1689419
:102450009038810561F08038BFEF9B0741F09923E8
:102460004AF5FF3FE1053105210519F1E89408948B
:10247000E795D901AA2329F4AB2FBE2FF85FD0F33B
:1024800010C0FF5F70F4A695E0F7F73950F019F02F
:10249000FF3A38F49F779F930DD00F9007FC905828
:1024A000089546F00C94611160E070E080E89FE3CD
:1024B00008954FE79F775F934F933F932F930E9429
:1024C00014132F913F914F915F910E94AC110C9486
:1024D000711229F416F00C945B110C94A5110C9454
:1024E00061110E948B11A8F39638A0F707F80F929C
:1024F000E8942BE33AEA48EB5FE70E94C2110F929F
:102500000F920F924DB75EB70F920E945C13E2EFED
:10251000F0E00E94A3124F915F91EF91FF91E5953A
:10252000EE1FFF1F49F0FE57E0684427EE0F441FDF
:10253000FA95E1F74195550B0E94D6120F9007FED0
:102540000C94CA120895DF93CF931F930F93FF92B9
:10255000EF92DF927B018C01689406C0DA2EEF01C6
:102560000E94BF11FE01E894A591259135914591F6
:102570005591A6F3EF010E942110FE019701A801D9
:10258000DA9469F7DF90EF90FF900F911F91CF9150
:10259000DF9108959B01AC0160E070E080E89FE36B
:1025A0000C9476100C945B110C9490130E948B1178
:1025B000D8F39923C9F3940F511DA3F391505040C0
:1025C00094F059F0882332F0660F771F881F9150DE
:1025D0005040C1F79E3F51052CF7880F911D9695ED
:1025E000879597F908955F3FACF0983E9CF0BB2724
:1025F000869577956795B79508F4B1609395C1F77F
:10260000BB0F58F711F460FFE8CF6F5F7F4F8F4F1C
:102610009F4FE3CF0C94A61116F00C9490130C94DA
:10262000611168940C945B110E948B11A8F399239B
:10263000C1F3AEF3DF93CF931F930F93FF92C92F94
:10264000DD2788232AF02197660F771F881FDAF786
:1026500020E030E040E85FEB9FE3883920F0803EE7
:1026600038F021968F770E940A10EAE1F1E004C069
:102670000E940A10E7E4F1E00E94A3128B01BE0160
:10268000EC01FB2E6F5771097595771F880B990B1D
:102690000E94201128E132E741E35FE30E94BF116D
:1026A000AF2D9801AE01FF900F911F91CF91DF9157
:1026B0000E9421100C947211FA01DC01AA0FBB1FB9
:1026C0009B01AC01BF5728F42227332744275078B9
:1026D00020C0B75190F4AB2F00244695379527952D
:1026E000011CA395D2F3002071F0220F331F441F69
:1026F000B395DAF30ED00C94091061307105A0E89F
:102700008A07B94630F49B01AC01662777278827F2
:102710009078309621F0208331834283538308954B
:102720009F3F31F0915020F4879577956795B79545
:10273000880F911D9695879597F90895FB01DC0107
:1027400001900D920020E1F708950F931F93CF930E
:10275000DF93CDB7DEB72E970FB6F894DEBF0FBE6E
:10276000CDBF0E891F8986E08C831A8309838FEF82
:102770009FE79E838D83AE01465E5F4F688D798DA6
:10278000CE0101960E94D413EF81F885E00FF11F6E
:1027900010822E960FB6F894DEBF0FBECDBFDF912C
:1027A000CF911F910F9108952F923F924F925F9278
:1027B0006F927F928F929F92AF92BF92CF92DF9251
:1027C000EF92FF920F931F93CF93DF93CDB7DEB7B6
:1027D0002B970FB6F894DEBF0FBECDBF6C017B0107
:1027E0008A01FC0117821682838181FFCCC1CE0150
:1027F00001963C01F6019381F70193FD859193FFCA
:1028000081917F01882309F4BAC1853239F493FD9F
:10281000859193FF81917F01853229F4B60190E083
:102820000E94F415E7CF912C212C312CFFE1F315F8
:10283000D8F08B3279F038F4803279F08332A1F419
:10284000232D20611DC08D3261F0803369F4232D6A
:10285000216016C0832D8260382EE32DE4603E2E69
:102860002AC0F32DF8601DC037FC2DC020ED280FC5
:102870002A3040F08E32B9F436FC81C1232D206419
:10288000322E19C036FE06C08AE0989E200D112413
:10289000922E11C0EAE02E9E200D1124222EF32D3F
:1028A000F0623F2E08C08C3621F4832D8068382ECC
:1028B00002C0883641F4F70193FD859193FF819121
:1028C0007F018111B3CF982F9F7D9554933028F4C9
:1028D0000C5F1F4F9FE399830DC0833631F0833720
:1028E00071F0833509F059C021C0F80180818983D6
:1028F0000E5F1F4F88248394912C530113C028012D
:10290000F2E04F0E511CF801A080B18036FE03C0EA
:10291000692D70E002C06FEF7FEFC5010E94E915DD
:102920004C018201F32DFF773F2E16C0280122E0D3
:10293000420E511CF801A080B18036FE03C0692D03
:1029400070E002C06FEF7FEFC5010E94DE154C0101
:10295000F32DF0683F2E820133FC1BC0822D90E0E6
:1029600088169906B0F4B60180E290E00E94F41552
:102970002A94F4CFF50137FC859137FE81915F01F0
:10298000B60190E00E94F41521102A9421E0821AE9
:1029900091088114910471F7E8C0843611F08936EA
:1029A00041F5F80137FE07C0608171818281938112
:1029B0000C5F1F4F08C060817181072E000C880BCF
:1029C000990B0E5F1F4FF32DFF763F2E97FF09C027
:1029D00090958095709561957F4F8F4F9F4FF068D0
:1029E0003F2E2AE030E0A3010E943016882E861880
:1029F00045C0853731F4232D2F7EB22E2AE030E0FA
:102A000025C0932D997FB92E8F36C1F018F48835E3
:102A100079F0B5C0803719F0883721F0B0C0E92FC0
:102A2000E061BE2EB4FE0DC0FB2DF460BF2E09C0C8
:102A300034FE0AC0292F2660B22E06C028E030E0FE
:102A400005C020E130E002C020E132E0F801B7FE2D
:102A500007C060817181828193810C5F1F4F06C026
:102A60006081718180E090E00E5F1F4FA3010E94A2
:102A70003016882E8618FB2DFF773F2E36FE0DC0B0
:102A8000232D2E7FA22E891458F434FE0BC032FC65
:102A900009C0832D8E7EA82E05C0B82CA32C03C0A0
:102AA000B82C01C0B92CA4FE0FC0FE01E80DF11D29
:102AB0008081803321F49A2D997EA92E09C0A2FE2F
:102AC00006C0B394B39404C08A2D867809F0B394F9
:102AD000A3FC11C0A0FE06C0B21488F4280C922CEE
:102AE0009B180EC0B21460F4B60180E290E00E9420
:102AF000F415B394F7CFB21418F42B1802C0982C25
:102B0000212CA4FE10C0B60180E390E00E94F415D1
:102B1000A2FE17C0A1FC03C088E790E002C088E5D0
:102B200090E0B6010CC08A2D867859F0A1FE02C053
:102B30008BE201C080E2A7FC8DE2B60190E00E942A
:102B4000F415891438F4B60180E390E00E94F4157E
:102B50009A94F7CF8A94F301E80DF11D8081B601B4
:102B600090E00E94F4158110F5CF222009F442CEA6
:102B7000B60180E290E00E94F4152A94F6CFF601A7
:102B80008681978102C08FEF9FEF2B960FB6F89446
:102B9000DEBF0FBECDBFDF91CF911F910F91FF9090
:102BA000EF90DF90CF90BF90AF909F908F907F90ED
:102BB0006F905F904F903F902F900895FC0105908B
:102BC000615070400110D8F7809590958E0F9F1F2F
:102BD0000895FC016150704001900110D8F7809574
:102BE00090958E0F9F1F08950F931F93CF93DF93A0
:102BF000FB01238121FD03C08FEF9FEF2CC022FF3B
:102C000016C046815781248135814217530744F409
:102C1000A081B1819D012F5F3F4F318320838C9331
:102C2000268137812F5F3F4F3783268314C08B0166
:102C3000EC01FB010084F185E02D1995892BE1F66B
:102C4000D80116968D919C911797019617969C9393
:102C50008E931697CE01DF91CF911F910F9108951A
:102C6000FA01AA27283051F1203181F1E8946F93BD
:102C70006E7F6E5F7F4F8F4F9F4FAF4FB1E03ED063
:102C8000B4E03CD0670F781F891F9A1FA11D680F01
:102C9000791F8A1F911DA11D6A0F711D811D911D34
:102CA000A11D20D009F468943F912AE0269F1124A9
:102CB0003019305D3193DEF6CF010895462F47700D
:102CC000405D4193B3E00FD0C9F7F6CF462F4F7068
:102CD000405D4A3318F0495D31FD4052419302D0C6
:102CE000A9F7EACFB4E0A69597958795779567956C
:102CF000BA95C9F700976105710508959B01AC016C
:102D00000A2E06945795479537952795BA95C9F792
:102D1000620F731F841F951FA01D0895F894FFCFA5
:102D200048656C6C6F2C204920616D2061204669DC
:102D30007265626972642D2D2D2D2D2D2D2D20563D
:102D40000A0048656C6C6F20576F726C64204920D4
:102D5000616D206120466972656269726420560067
:102D600048656C6C6F2C204920616D20612046699C
:102D70007265626972642D2D2D2D2D2D2D2D2056FD
:102D80000A00010001000100FF0FFF0FFF0F48655F
:102D90006C6C6F2C204920616D2061204669726542
:102DA000626972642D2D2D2D2D2D2D2D20560A009A
:102DB000317374204E6F6465004D6964204E6F64FA
:102DC0006500393020446567726565204C6566741E
:102DD000207475726E0043656E746572206F662094
:102DE000626C6F636B207265616368656400426149
:102DF000636B206F6E206C696E65004C6566742095
:102E00005475726E005374617274204C6F636174F8
:102E1000696F6E0046696E69736865640052656427
:102E20002050756C73657300477265656E20507530
:102E30006C73657300426C75652050756C736573B7
:102E400000436F6D6D5F45535033323A0053002D90
:102E500025640A0046004D2D006D2D0061636365F9
:102E6000707465640069676E6F7265004572726F99
:102E70007220696E207461736B20636F6D706C6576
:102E800074696F6E006D696E6F722D2564006D61DF
:102E90006A6F722D2564006E6F2D25640053636187
:102EA0006E2D4572726F72004572726F722064658A
:102EB000636F64696E67207461736B006665746329
:082EC000682D25642D25640036
:00000001FF
