:100000000C94C8000C942F080C94E9000C94E9009F
:100010000C94E9000C94970A0C94720A0C94E90071
:100020000C94E9000C94E9000C94E9000C94E900AC
:100030000C94E9000C94E9000C94E9000C9468100D
:100040000C94E9000C94E9000C94E9000C94E9008C
:100050000C94E9000C94E9000C94E9000C94E9007C
:100060000C94E9000C943E0C0C94770C0C94E90071
:100070000C94E9000C94E9000C94E9000C94E9005C
:100080000C94E9000C94E9000C94E9000C94E9004C
:100090000C94E9000C94E9000C94E9000C94E9003C
:1000A0000C94E9000C94E9000C94E9000C94E9002C
:1000B0000C94E9000C94E9000C94E9000C94E9001C
:1000C0000C94E9000C94E9000C94E9000C94E9000C
:1000D0000C94E9000C94E9000C94480D0C94810DEB
:1000E0000C94E90093129812A612B812BD12CB120A
:1000F000DD1207634236B79BD8A71A39685618AE87
:10010000BAAB558C1D3CB7CC5763BD6DEDFD753E4C
:10011000F6177231BF000000803F08000000BE9259
:100120002449123EABAAAA2ABECDCCCC4C3E00003C
:100130000080BEABAAAAAA3E00000000BF000000DB
:10014000803F0000000000084178D3BB4387D113F3
:100150003D190E3CC3BD4282AD2B3E68EC8276BE9B
:10016000D98FE1A93E4C80EFFFBE01C4FF7F3F0065
:10017000000000000C9498120C9493120C94BD1281
:100180000C94B8120C94CB120C94A6120C94DD12A1
:1001900011241FBECFEFD1E2DEBFCDBF00E00CBF08
:1001A00018E1A0E0B2E0E2EFFCE300E00BBF02C028
:1001B00007900D92A636B107D9F72CE1A6E6B8E173
:1001C00001C01D92A036B207E1F70E9480170C947F
:1001D000771E0C9400000E9496070E949D070E94C3
:1001E00034050E94A9050E9457080E9468080E94D1
:1001F0001F0A0E94260A0E94310A0E94380A0E94A1
:10020000460A0E94DA0F0C94360CCF9381E00E94CC
:10021000FE1269E175E186E092E00E94731B86E0C0
:1002200092E00E943C0C81E00E94FE1264E275E1C3
:1002300086E092E00E94731B86E092E00E943C0CF4
:100240006FEA8FEA0E94100C8AE590E00E94CC0BC6
:100250006FE275E186E092E00E94731B86E092E017
:100260000E943C0C68EC88EC0E94100C84EB90E03F
:100270000E94B80B65E475E186E092E00E94731B72
:1002800086E092E00E943C0C0E94D009C82F0E9498
:10029000340C0E94D8058C2F0E940506C23519F433
:1002A0000E943D0F07C0C73419F40E94450F02C0D9
:1002B0000E944D0F84EB90E00E94C20B6FE575E148
:1002C00086E092E00E94731B86E092E00E943C0C64
:1002D0000E942A136EE675E186E092E00E94731B8D
:1002E00086E092E00E943C0C81E00E94FE1269E1EF
:1002F00075E186E092E00E94731B86E092E00E9426
:100300003C0C81E00E94FE126AE775E186E092E013
:100310000E94731B86E092E00E943C0C6BE875E142
:1003200086E092E00E94731B86E092E0CF910C94ED
:1003300041067F928F929F92AF92BF92CF92DF92AF
:10034000EF92FF920F931F93CF93DF930E947A0E49
:100350000E94090FF82E882309F4E5C166E975E1CA
:1003600086E092E00E94731B86E092E00E943C0CC3
:100370000E94140F882309F472C00E94CD10EC0172
:100380000E940F0FBE010E9469168C010E940F0F80
:100390009F938F9388EA95E19F938F9336E0C32EC6
:1003A00032E0D32EDF92CF920E948E1BC6010E94B4
:1003B0003C0C0E940F0FEC010E945514BC01990FD8
:1003C000880B990B0E94D1182091020230910302F0
:1003D00040910402509105020E9427180E9499182A
:1003E0005B010E941D0F0F900F900F900F900F90C8
:1003F0000F90A816B9060CF066C00E941D0FE82EDB
:10040000B92E0E945514BF92EF92BC01990F880B30
:10041000990B0E94D1182091020230910302409161
:100420000402509105020E9427180E9499187F9398
:100430006F9381EC95E19F938F93DF92CF920E940F
:100440008E1BC6010E943C0C0E94220F8DB79EB7E6
:1004500008960FB6F8949EBF0FBE8DBF83C00E9452
:10046000170F882399F10E94CD10BC018DE40E94E2
:100470003915EC01CF3F9FEFD90709F46BC00E94FB
:100480005514BC01990F880B990B0E94D11820912B
:1004900002023091030240910402509105020E9431
:1004A00027184B015C010E941D0FBC01990F880B9E
:1004B000990B0E94D1189B01AC01C501B4010E94A7
:1004C000221887FD37C06BED75E13CC00E941A0F02
:1004D000882309F443C00E94CD10BC018DE60E9420
:1004E0003915EC01CF3F8FEFD807A1F10E945514C9
:1004F000BC01990F880B990B0E94D1182091020220
:100500003091030240910402509105020E94271885
:100510004B015C010E941D0FBC01990F880B990BC8
:100520000E94D1189B01AC01C501B4010E942218A0
:1005300087FF06C00E94D0138C010E94220F12C0B8
:1005400064E076E186E092E00E94731B86E092E030
:100550000E943C0C0E942C0FF12CE5C002E410E03C
:10056000CBE0D0E01F930F938DE296E19F938F93A2
:1005700086E092E09F938F930E948E1B86E092E02C
:100580000E943C0CC8010E949F140F900F900F9086
:100590000F900F900F908AE4882E86E1982E96E0B7
:1005A000C92E92E0D92E2EE5A22E26E1B22E0E946F
:1005B000CD1008171907E1F10E94CD100E945A14BE
:1005C000E82E792E9F938F939F928F92DF92CF92F6
:1005D0000E948E1B86E092E00E943C0C0E94CD108F
:1005E0006E2D772D0E94E4160E9456130E94CD10A6
:1005F0006E2D772D0E94990F81E00E94FE128E2DA4
:10060000972D0E94D2107F92EF92BF92AF92DF920D
:10061000CF920E948E1B86E092E00E943C0C8DB728
:100620009EB70C960FB6F8949EBF0FBE8DBFBFCF7E
:100630000234110509F477C0DF93CF9380E796E188
:100640009F938F9306E012E01F930F930E948E1BDF
:10065000C8010E943C0C0E944D140E94911365E851
:1006600076E1C8010E94731BC8010E943C0C84EB18
:1006700090E00E94B80B0E94D0090F900F900F904D
:100680000F900F900F90823589F4DF93CF9389E913
:1006900096E19F938F931F930F930E948E1B6DE49F
:1006A000CE010E94D5130E943D0F23C0873489F4E8
:1006B000DF93CF9389EB96E19F938F931F930F93D3
:1006C0000E948E1B6DE6CE010E94D5130E94450F3D
:1006D00010C0DF93CF9389ED96E19F938F931F9383
:1006E0000F930E948E1B6EE4CE010E94D5130E94D0
:1006F0004D0F0F900F900F900F900F900F9086E07E
:1007000092E00E943C0C0E94E00F84EB90E00E947B
:10071000C20B66EF76E186E092E00E94731B86E0F2
:1007200092E00E943C0C8F2DDF91CF911F910F9191
:10073000FF90EF90DF90CF90BF90AF909F908F9001
:100740007F9008950F931F93CF93DF930E94990199
:10075000811110926818C0916818C11151C00E948F
:1007600031140E9424148033E1F50E94CD108C01D5
:100770000E943114B8010E94691680930002909380
:1007800001029F938F9387E097E19F938F9306E0F9
:1007900012E01F930F930E948E1BC8010E943C0C15
:1007A00080910002909101020E949F1481E0809349
:1007B00068180E9431149F938F9386E297E19F936C
:1007C0008F931F930F930E948E1BC8010E943C0CB5
:1007D0008DB79EB70C960FB6F8949EBF0FBE8DBF17
:1007E00008C10E9443141092681867E377E186E01D
:1007F00092E00E94731B86E092E00E943C0CF9C0DC
:100800000E94CD100E945A14909367188093661826
:100810000E94CD10209100023091010282179307AF
:1008200009F44DC0809167188F93809166188F935B
:100830008AE496E19F938F93C6E0D2E0DF93CF9353
:100840000E948E1BCE010E943C0C009166181091F4
:1008500067180E94CD10B8010E94990F0091661888
:10086000109167180E94CD10B8010E94E4160E94F2
:10087000561381E00E94FE128091661890916718CD
:100880000E94D21081E080936818809167188F933E
:10089000809166188F938EE596E19F938F93DF93F7
:1008A000CF930E948E1BCE010E943C0C8DB79EB749
:1008B0000C960FB6F8949EBF0FBE8DBF8AC08234CF
:1008C000910509F488C00E9431149F938F9380E7AB
:1008D00096E19F938F93C6E0D2E0DF93CF930E947F
:1008E0008E1BCE010E943C0C0E944D140E9491135D
:1008F00065E876E1CE010E94731BCE010E943C0C9C
:1009000084EB90E00E94B80B0E94D0090F900F90EA
:100910000F900F900F900F908235A9F40E94311420
:100920009F938F9389E996E19F938F93DF93CF9362
:100930000E948E1B0E9431146DE40E94D5130E9408
:1009400031146DE416C08734B9F40E9431149F93BA
:100950008F9389EB96E19F938F93DF93CF930E94C0
:100960008E1B0E9431146DE60E94D5130E94311433
:100970006DE60E945A0F11C00E9431149F938F930D
:1009800089ED96E19F938F93DF93CF930E948E1B07
:100990000E9431146EE60E94D5130F900F900F90B5
:1009A0000F900F900F9086E092E00E943C0C0E9406
:1009B000431484EB90E00E94C20B1092681866EF1B
:1009C00076E186E092E00E94731B86E092E00E944E
:1009D0003C0CC0E00EC00E9443146CE477E186E05A
:1009E00092E00E94731B86E092E00E943C0C109201
:1009F00068188C2FDF91CF911F910F9108950E945D
:100A0000EB000E947E1163E677E186E092E00E94AF
:100A1000731B86E092E00E943C0C0E947A0E6EE608
:100A200077E186E092E00E94731B86E092E00E94EC
:100A30003C0C0E94A2038823E1F36FE777E186E094
:100A400092E00E94731B86E092E00E943C0C0E94A0
:100A50007A0E0E94090F8823D1F30E94220F0E9470
:100A600005010E94E00FF3CF87B1876087B987B196
:100A7000806F87B988B1887F88B988B18F7088B94D
:100A8000089586E69EE00197F1F7000040984198AE
:100A900080E388B9429AEFEFF7E43197F1F700C0AD
:100AA00000004298E6E6FEE03197F1F7000040983A
:100AB000419888B9429AEFEFF7E43197F1F700C017
:100AC00000004298E6E6FEE03197F1F7000040981A
:100AD000419888B9429A8FEF97E40197F1F700C0E7
:100AE00000004298E6E6FEE03197F1F700004098FA
:100AF000419880E288B9429A8FEF97E40197F1F725
:100B000000C000004298089598B19F7098B998B1BC
:100B1000282F207F922B98B940984198429AEFEF66
:100B2000F7E43197F1F700C00000429898B19F7048
:100B300098B998B18295807F892B88B9409841985F
:100B4000429A8FEF97E40197F1F700C000004298B6
:100B500008950E94410586E69EE00197F1F70000A6
:100B600088E20E94840581E00E94840586E00E945C
:100B700084058EE00E94840580E80C94840580E85A
:100B80000C948405982F862F923059F01CF49130E4
:100B900031F00895933039F0943039F00895815848
:100BA00005C0815403C08D5601C08D520C9484053C
:100BB00081E00C948405CF93C42F0E94C20588B1B4
:100BC0008F7088B988B19C2F907F892B88B9409A03
:100BD0004198429A8FEF97E40197F1F700C0000027
:100BE0004298C295C07F88B18F7088B988B1C82BF0
:100BF000C8B9409A4198429A8FEF97E40197F1F76C
:100C000000C000004298CF91089598B19F7098B9A4
:100C100098B1282F207F922B98B9409A4198429AF8
:100C2000EFEFF7E43197F1F700C0000042988295AA
:100C3000807F98B19F7098B998B1892B88B9409AF4
:100C40004198429A8FEF97E40197F1F700C00000B6
:100C5000429808950F931F93CF93DF93D82FC62FF9
:100C60008A01F80141918F01442331F06C2F8D2FBF
:100C70000E94DB05CF5FF5CFDF91CF911F910F91E0
:100C80000895CF93DF93EC018991882319F00E9496
:100C90000506FACFDF91CF910895EF92FF920F935F
:100CA0001F93CF93DF93D82FC62F8A0179010E941B
:100CB000C20517FF09C01195019511094DE26C2F6E
:100CC0008D2F0E94DB05CF5FDD2311F0C11103C022
:100CD0000E94BF0504C06C2F8D2F0E94C20585E0C5
:100CE000E816F10409F07FC0C80160E177E20E94D4
:100CF0009917AB01405D5F4F50936A184093691894
:100D00006C2F8D2F0E94DB05CF5FC80168EE73E06A
:100D10000E949917CB0170937418609373186AE05E
:100D200070E00E948517AC01405D5F4F50936C18D6
:100D300040936B186C2F8D2F0E94DB05CF5FC8018D
:100D400064E670E00E949917CB0170937418609369
:100D500073186AE070E00E948517AC01405D5F4F38
:100D600050936E1840936D186C2F8D2F0E94DB05E9
:100D7000CF5F2AE030E0C801B9010E949917CB018A
:100D80007093741860937318B9010E948517AC01B1
:100D9000405D5F4F5093701840936F186C2F8D2FEC
:100DA0000E94DB05CF5FC8016AE070E00E949917DE
:100DB000AC01405D5F4F50937218409371186C2FD7
:100DC0008D2F0E94DB05CF5F86E0E816F104FCF072
:100DD00045E46C2F8D2FDF91CF911F910F91FF90E4
:100DE000EF900C94DB0584E0E816F10409F48DCF54
:100DF00083E0E816F10409F4A2CF82E0E816F104DA
:100E000009F4B7CF81E0E816F104F1F6CCCFDF9119
:100E1000CF911F910F91FF90EF9008950F931F9323
:100E2000CF93DF938A01E901882311F0611103C098
:100E30000E94BF0502C00E94C205C530D10509F05D
:100E400061C0C80160E177E20E948517CB01C096BE
:100E500090936A18809369180E940506C80168EE8D
:100E600073E00E948517CB01709374186093731818
:100E70006AE070E00E948517C09690936C1880938A
:100E80006B180E940506C80164E670E00E94851791
:100E9000CB0170937418609373186AE070E00E943D
:100EA0008517C09690936E1880936D180E94050662
:100EB0002AE030E0C801B9010E948517CB01709388
:100EC000741860937318B9010E948517C0969093A7
:100ED000701880936F180E940506C8016AE070E0E0
:100EE0000E948517C09690937218809371180E9483
:100EF00005062697B4F085E4DF91CF911F910F91FD
:100F00000C940506C430D10509F4A8CFC330D1052F
:100F100009F4B9CFC230D10559F2C130D10549F732
:100F2000DCCFDF91CF911F910F91089510BA11BAC4
:100F300010920701109208010895EAE7F0E080811D
:100F400086688083808186788083EBE7F0E080810B
:100F5000807B8083ECE7F0E08081807680838081F5
:100F60008064808380818062808380B7806880BF56
:100F70000895883028F090917B00986090937B00D2
:100F800090917C008770892B80937C0080917A00FF
:100F9000806480937A0080917A0084FFFCCF8091F6
:100FA000790090917A00906190937A0090917B0003
:100FB000977F90937B0090917C00907E90937C0033
:100FC0000895682F70E080E090E00E94CF182FEE27
:100FD00039EC43E95FE30E94EE199B01AC0160E04C
:100FE00070E080E89FE30E9427182AE939EF4EE27B
:100FF00055E40E94811920E030E040E251E40E9473
:1010000081190E949918CB016132734010F080E27F
:1010100093E00895CF93DF93C82FD62F842F0E949B
:10102000B90780938218482F50E023E030E06D2FFD
:101030008C2FDF91CF910C944D068AB18E6F8AB9B7
:10104000589A08950E9434050C941D08F894E9E616
:10105000F0E0808182608083E89A789408951F92FE
:101060000F920FB60F9211248F939F93AF93BF935C
:1010700080918F1890919018A0919118B09192182A
:101080000196A11DB11D80938F1890939018A09385
:101090009118B0939218BF91AF919F918F910F903B
:1010A0000FBE0F901F9018955C9A5D9A0895F89462
:1010B0000E941D080E94260878940C9454085E989B
:1010C0005F9808955E9A5F9A08955E985F9A089572
:1010D0005E9A5F9808950E945F0810928F18109290
:1010E000901810929118109292182FEF8FE794E0B9
:1010F000215080409040E1F700C0000080918F189F
:1011000090919018A0919118B091921880938B189B
:1011100090938C18A0938D18B0938E1861E081E0A5
:101120000E94C20561E977E18DE492E00E94731BA1
:101130008DE492E00E94410640918B1850918C18EA
:1011400060918D1870918E1825E030E061E082E0AA
:101150000E940E072FEF8FEF9CE2215080409040BD
:10116000E1F700C0000081E00C9484050E94620851
:1011700010928F1810929018109291181092921845
:101180002FEF8FE794E0215080409040E1F700C0BE
:10119000000080918F1890919018A0919118B091B3
:1011A00092188093831890938418A0938518B09315
:1011B000861861E081E00E94C2056CE977E18DE468
:1011C00092E00E94731B8DE492E00E9441064091E0
:1011D000831850918418609185187091861825E0C5
:1011E00030E061E082E00E940E072FEF8FEF9CE27B
:1011F000215080409040E1F700C0000081E00C9455
:1012000084050E94650810928F1810929018109211
:101210009118109292182FEF8FE794E021508040A0
:101220009040E1F700C0000080918F1890919018D5
:10123000A0919118B0919218809387189093881874
:10124000A0938918B0938A1861E081E00E94C205DA
:1012500069EA77E18DE492E00E94731B8DE492E0ED
:101260000E94410640918718509188186091891812
:1012700070918A1825E030E061E082E00E940E075C
:101280002FEF8FEF9CE2215080409040E1F700C0AB
:10129000000081E00C9484050E945F0810928F1872
:1012A0001092901810929118109292182FEF8FE7C9
:1012B00094E0215080409040E1F700C00000809110
:1012C0008F1890919018A0919118B09192188093D6
:1012D0008B1890938C18A0938D18B0938E186091F2
:1012E0008B1870918C1880918D1890918E1808959C
:1012F0000E94620810928F18109290181092911804
:10130000109292182FEF8FE794E021508040904088
:10131000E1F700C0000080918F1890919018A09183
:101320009118B09192188093831890938418A09389
:101330008518B093861860918318709184188091F5
:1013400085189091861808950E94650810928F184C
:101350001092901810929118109292182FEF8FE718
:1013600094E0215080409040E1F700C0000080915F
:101370008F1890919018A0919118B0919218809325
:10138000871890938818A0938918B0938A18609151
:101390008718709188188091891890918A180895FB
:1013A0008F929F92AF92BF92CF92DF92EF92FF9275
:1013B0000E944C096B017C010E94A4094B015C0155
:1013C0000E94780927E0C21626E1D206E104F10462
:1013D00030F0623022E172078105910500F58C142E
:1013E0009D04AE04BF0428F46C157D058E059F0591
:1013F000C0F0C814D904EA04FB0428F46815790580
:101400008A059B0580F086169706A806B90668F43B
:10141000C616D706E806F90640F487E407C087E554
:1014200005C082E503C082E401C080E3FF90EF9035
:10143000DF90CF90BF90AF909F908F90089581B133
:101440008F6081B982B1807F82B90895EAE0F1E0CE
:10145000808188618083EBE0F1E080818861808316
:1014600008958DB18F7C8DB98EB180638EB908954A
:10147000F8948DB380638DBBEAE6F0E080818A60EA
:10148000808380818A7F808378940895E1E2F1E00F
:1014900010828FEF8093250191E0909324011092A8
:1014A00029018093280110922B0180932A01A0E248
:1014B000B1E08C91806A8C938C918F7A8C938C9113
:1014C00081608C938C918D7F8C93808188608083E8
:1014D00080818F7E808380818360808380818B7F09
:1014E000808308951F920F920FB60F9211248F934D
:1014F0009F93AF93BF938091951890919618A09168
:101500009718B09198180196A11DB11D8093951858
:1015100090939618A0939718B0939818BF91AF9195
:101520009F918F910F900FBE0F901F9018951F9253
:101530000F920FB60F9211248F939F93AF93BF9387
:101540008091991890919A18A0919B18B0919C182D
:101550000196A11DB11D8093991890939A18A0939C
:101560009B18B0939C18BF91AF919F918F910F9052
:101570000FBE0F901F90189582B1867F82B982B1FD
:10158000866082B9089582B1897F82B982B189600B
:1015900082B9089582B1857F82B982B1856082B9AE
:1015A000089582B18A7F82B982B18A6082B9089532
:1015B00082B1887F82B9129A089582B1827F82B9FE
:1015C000119A089582B1817F82B9109A089582B1EB
:1015D000887F82B9139A089582B1807F82B9089575
:1015E0000F931F93813099F41092951810929618CA
:1015F00010929718109298181092991810929A18A1
:1016000010929B1810929C1880E090E029C04091A5
:10161000951850919618609197187091981880912C
:10162000991890919A18A0919B18B0919C188A01D2
:101630009B01080F191F2A1F3B1FC901B8010E94F7
:10164000CF1828E431EE42E850E40E94811920E0EE
:1016500030E040E05FE30E9481190E949918CB01BD
:101660001F910F910895BC0180E090E00E94CF1877
:1016700028E431EE42E850E40E9427180E94A018A6
:10168000CB01A0E0B0E0109295181092961810923D
:101690009718109298181092991810929A18109200
:1016A0009B1810929C184091951850919618609133
:1016B000971870919818481759076A077B0798F48C
:1016C0004091991850919A1860919B1870919C18AC
:1016D000481759076A077B0730F4E6E6FEE03197C2
:1016E000F1F70000E0CF0C94EC0A0F931F93BC01BC
:1016F00080E090E00E94CF1825EE30ED4AEA50E4F9
:101700000E9427180E94A0181092951810929618FF
:1017100010929718109298181092991810929A187F
:1017200010929B1810929C18009195181091961881
:10173000209197183091981806171707280739072E
:1017400098F40091991810919A1820919B18309153
:101750009C18061717072807390730F4E6E6FEE05D
:101760003197F1F70000E0CF1F910F910C94EC0A34
:10177000CF93DF93EC010E94BC0ACE01DF91CF91A1
:101780000C94750BCF93DF93EC010E94C30ACE013A
:10179000DF91CF910C94750BCF93DF93EC010E94F6
:1017A000CA0ACE01DF91CF910C94330BCF93DF9314
:1017B000EC010E94D10ACE01DF91CF910C94330B42
:1017C000CF93DF93EC010E94D80ACE01880F991FB6
:1017D000DF91CF910C94330BCF93DF93EC010E94F8
:1017E000DD0ACE01880F991FDF91CF910C94330B46
:1017F000CF93DF93EC010E94E20ACE01880F991F7C
:10180000DF91CF910C94330BCF93DF93EC010E94C7
:10181000E70ACE01880F991FDF91CF910C94330B0B
:101820008093280160932A010895E1E0F1E080812E
:1018300080628083E2E0F1E08081806280830895AD
:10184000E2E0F1E080818F7D80830895E2E0F1E0C5
:1018500080818062808308950E94CC0D911102C026
:10186000811108958FEF08950C94090E87E090E0A0
:101870000E94B10D0C944B0E0C94220E1F920F92ED
:101880000FB60F9211240BB60F922F933F934F93E5
:101890005F938F939F93EF93FF932091C0003091BC
:1018A000C60028718091A91990E001968F77992739
:1018B0004091A81950E08417950739F08093A91931
:1018C000FC01E455F64E308301C022E02093A719B5
:1018D000FF91EF919F918F915F914F913F912F9148
:1018E0000F900BBE0F900FBE0F901F9018951F9278
:1018F0000F920FB60F9211240BB60F928F939F93F6
:10190000EF93FF939091AB198091AA19981779F0F2
:101910008091AA1990E001968F7799278093AA1950
:10192000FC01E45DF54E80818093C60005C0809186
:10193000C1008F7D8093C100FF91EF919F918F91A6
:101940000F900BBE0F900FBE0F901F901895F8943C
:101950001092AB191092AA191092A9191092A819F5
:10196000789497FF04C022E02093C0009F77909363
:10197000C5008093C40088E98093C10086E080930D
:10198000C2000895F8949091A9198091A81998130C
:1019900004C0789480E091E0089578948091A8192B
:1019A00090E001968F7799278093A819FC01E45560
:1019B000F64E20818091A71990E0982F8827820FFA
:1019C000911D0895F8949091A9198091A8199813E0
:1019D00004C0789480E091E008957894E091A8198B
:1019E000F0E03196EF77FF27E455F64E20818091A5
:1019F000A71990E0982F8827820F911D08952091B4
:101A0000AB1930E02F5F3F4F2F7733274091AA1952
:101A100050E024173507D1F3F901E45DF54E8083DA
:101A20002093AB198091C10080628093C10008951A
:101A3000CF93DF93EC018991882319F00E94FF0C6A
:101A4000FACFDF91CF910895CF93DF93FC0184917A
:101A5000EF012196882321F00E94FF0CFE01F7CFB1
:101A6000DF91CF910895F8948091A9192091A81938
:101A7000789490E080589F4F821B91098F77992727
:101A80000895F8948091A8198093A91978940895DD
:101A90001F920F920FB60F9211240BB60F922F9335
:101AA0003F934F935F938F939F93EF93FF93209177
:101AB00030013091360128718091A41890E0019690
:101AC0008F7799274091A31850E08417950739F034
:101AD0008093A418FC01E955F74E308301C022E041
:101AE0002093A218FF91EF919F918F915F914F9159
:101AF0003F912F910F900BBE0F900FBE0F901F9034
:101B000018951F920F920FB60F9211240BB60F92D9
:101B10008F939F93EF93FF939091A6188091A518B0
:101B2000981779F08091A51890E001968F77992702
:101B30008093A518FC01E95DF64E80818093360103
:101B400005C0809131018F7D80933101FF91EF912C
:101B50009F918F910F900BBE0F900FBE0F901F9013
:101B60001895F8941092A6181092A5181092A4181F
:101B70001092A318789497FF04C022E020933001BC
:101B80009F77909335018093340188E980933101E8
:101B900086E0809332010895F8949091A418809182
:101BA000A318981304C0789480E091E00895789485
:101BB0008091A31890E001968F7799278093A318BE
:101BC000FC01E955F74E20818091A21890E0982FF2
:101BD0008827820F911D0895F8949091A418809100
:101BE000A318981304C0789480E091E00895789445
:101BF000E091A318F0E03196EF77FF27E955F74E13
:101C000020818091A21890E0982F8827820F911D43
:101C100008952091A61830E02F5F3F4F2F7733278C
:101C20004091A51850E024173507D1F3F901E95D7B
:101C3000F64E80832093A6188091310180628093B4
:101C400031010895CF93DF93EC018991882319F036
:101C50000E94090EFACFDF91CF910895CF93DF93C1
:101C6000FC018491EF012196882321F00E94090E46
:101C7000FE01F7CFDF91CF910895F8948091A418D9
:101C80002091A318789490E080589F4F821B91096F
:101C90008F7799270895F8948091A3188093A418BA
:101CA00078940895F894E1EBF0E0108282E8809354
:101CB000B200B898A0E7B0E08C9181608C9310924C
:101CC000B000808184608083789408951092AD1A6A
:101CD0001092AC1A1092AF1A1092AE1AE1EBF0E02B
:101CE0008081816080830895E1EBF0E080818E7FC8
:101CF000808308950E942C0C8F3F09F489C083359E
:101D0000A1F52FEF8FE794E0215080409040E1F75C
:101D100000C000000E942C0C8F3F09F479C0082EEF
:101D2000000C990B90939202809391022FEF8FE712
:101D300094E0215080409040E1F700C000000E94F4
:101D40002C0C8F3F09F464C0082E000C990B909363
:101D5000900280938F020E94660E1092B91A109220
:101D6000B81A81E08093B71A2DC0863409F050C0AC
:101D70002FEF8FE794E0215080409040E1F700C0C2
:101D800000000E942C0C8D3401F52FEF8FE794E0BA
:101D9000215080409040E1F700C000000E942C0CD0
:101DA0008F3FB1F1082E000C990B90939002809315
:101DB0008F020E94660E81E08093B81A1092B91AC1
:101DC0001092B71A8093B61A08958D3609F52FEF41
:101DD0008FE794E0215080409040E1F700C0000080
:101DE0000E942C0C8F3FA1F0082E000C990B9093B1
:101DF000900280938F020E94660E81E08093B91A50
:101E00001092B81A1092B71A8093B61A0C944B0E0F
:101E100008958091B61A81111092B61A0895809192
:101E200091029091920208958091B71A089580913D
:101E3000B81A08958091B91A089580918F029091EF
:101E40009002089565EB77E18BE692E00E94731BA8
:101E50008BE692E00C943C0C6FEB77E18BE692E022
:101E60000E94731B8BE692E00E943C0C0C94740E53
:101E70008091AC1A9091AD1A08951092B51A81E034
:101E80008093B41A1092B31A089581E08093B51A22
:101E90001092B41A1092B31A08951092B51A1092B3
:101EA000B41A81E08093B31A089590938E028093C0
:101EB0008D0208950F931F93CF93DF93CDB7DEB7B5
:101EC00064970FB6F894DEBF0FBECDBF182F092F51
:101ED0006D3419F467EC77E104C06D36F9F46BECFE
:101EE00077E1CE0101960E94731BCE0101969F936C
:101EF0008F930F931F9381ED97E19F938F938BE6C1
:101F000092E09F938F930E948E1B8BE692E00E943B
:101F10003C0C0FB6F894DEBF0FBECDBF64960FB673
:101F2000F894DEBF0FBECDBFDF91CF911F910F910F
:101F300008957F936F939F938F9380EE97E19F9384
:101F40008F938BE692E09F938F930E948E1B8DB7A9
:101F50009EB708960FB6F8949EBF0FBE8DBF8BE656
:101F600092E00C943C0C242F042E000C330B3F9376
:101F70004F93262F062E000C330B3F936F939F93A6
:101F80008F938FEE97E19F938F938BE692E09F93D1
:101F90008F930E948E1B8DB79EB70A960FB6F8944A
:101FA0009EBF0FBE8DBF8BE692E00C943C0C3B9A1B
:101FB000439808950E94520E0C94D70F439A0895A7
:101FC00081E08093B21A0E94DE0F8091B71A8823B5
:101FD00009F44BC08091B31A94E0899F90011124B9
:101FE0009091B41A892F90E0880F991F822B932B20
:101FF0002091B51A822B81309105A1F02CF4892B08
:1020000089F560E078E13BC082309105A1F004974A
:1020100049F58091AD1A8F938091AC1A8F938EE21F
:1020200098E111C08091AD1A8F938091AC1A8F9373
:102030008AE198E108C08091AD1A8F938091AC1A23
:102040008F9384E298E19F938F938BE692E09F9326
:102050008F930E948E1B0F900F900F900F900F90F8
:102060000F9011C065E378E10AC08091B81A811120
:102070000EC08091B91A81110AC061E478E18BE643
:1020800092E00E94731B8BE692E00C943C0C8091D2
:10209000AD1A8F938091AC1A8F9380918E028F939B
:1020A00080918D028F9385E598E19F938F938BE6C6
:1020B00092E09F938F930E948E1B8DB79EB70896D8
:1020C0000FB6F8949EBF0FBE8DBFDDCF4398089525
:1020D0001F920F920FB60F9211240BB60F922F93EF
:1020E0003F934F935F936F937F938F939F93AF93A0
:1020F000BF93EF93FF938091AE1A9091AF1A019620
:102100009093AF1A8093AE1A8091AE1A9091AF1A45
:10211000883E934040F18091AC1A9091AD1A01969F
:102120009093AD1A8093AC1A1092AF1A1092AE1A17
:102130008091B21A8823B9F08091B01A9091B11AA7
:102140009C012F5F3F4F3093B11A2093B01A029732
:1021500054F00E9466100E94740E1092B21A1092EF
:10216000B11A1092B01A82E88093B200B898FF9129
:10217000EF91BF91AF919F918F917F916F915F91FF
:102180004F913F912F910F900BBE0F900FBE0F906C
:102190001F9018958091930208958091BF1A909195
:1021A000C01A08959093C01A8093BF1A08959C0195
:1021B000261B370BE4E6E29FC001E39F900D11243C
:1021C0009A01261B370BB9010E94991777FD05C0AC
:1021D0006536710524F4862F089580E0089584E61D
:1021E0000895CF9383E00E94B9078093D11A82E0CB
:1021F0000E94B9078093D01A81E00E94B907C82FC6
:102200008093CF1A4091C71A5091C81A6091A002CA
:102210007091A1028091D11A90E00E94D710809312
:10222000CE1A4091C51A5091C61A60919E027091C3
:102230009F028C2F90E00E94D7108093CC1A40917F
:10224000C31A5091C41A60919C0270919D028091B2
:10225000D01A90E00E94D7108093CD1ACF910895A4
:102260000E94F1108091D11A90E02091C71A30910C
:10227000C81A2817390724F49093C81A8093C71AEC
:102280002091A0023091A1028217930724F4909329
:10229000A1028093A0028091D01A90E02091C31AED
:1022A0003091C41A2817390724F49093C41A8093E4
:1022B000C31A20919C0230919D028217930724F447
:1022C00090939D0280939C028091CF1A90E0209180
:1022D000C51A3091C61A2817390724F49093C61AE4
:1022E0008093C51A20919E0230919F028217930716
:1022F00024F490939F0280939E02089581E00E94AF
:10230000F00A0E94D10A6DE78DE70E94100C80E070
:102310000E94F00A8A3591051CF40E943011F7CF13
:1023200081E00E94F00A0E94CA0A80E00E94F00A3E
:10233000843B91051CF40E943011F7CF81E00E948C
:10234000F00A0E94D10A80E00E94F00A8A359105C5
:102350001CF40E943011F7CF0C94EC0A8F929F92DC
:10236000AF92BF92CF92DF92EF92FF920E94F11054
:10237000E090CC1AF12CC090CE1AD12CB7016C1978
:102380007D09072E000C880B990B0E94D1184B0178
:102390005C018091CD1AB601680F711D6E0D7F1D15
:1023A000072E000C880B990B0E94D11820E030E01A
:1023B00040E85FE30E94B6179B01AC01C501B40180
:1023C0000E94271820E030E04FE753E40E94811973
:1023D0004B015C019B01AC016091D21A7091D31A40
:1023E0008091D41A9091D51A0E94B5172FE632E148
:1023F00043E05BE30E9481190E9499186B017C0104
:1024000020E030E040E05FE3C501B4010E948119A3
:102410000E949918C60ED71E8092D21A9092D31A93
:10242000A092D41AB092D51A68EC70E06C197D09AC
:10243000C60188539F4F6F3F710509F02CF477FF59
:1024400005C060E070E002C06FEF70E08F3F910563
:1024500009F02CF497FF05C080E090E002C08FEFF8
:1024600090E0FF90EF90DF90CF90BF90AF909F9063
:102470008F900C94100CEF92FF920F931F93CF93B9
:10248000DF9300E010E0C0E0D0E0E82EF12C0E1564
:102490001F050CF0A7C08091D01A803108F49FC0AE
:1024A0008091D11A803108F09AC08091CF1A803182
:1024B00008F095C00E94F11091E08091D11A8B3004
:1024C00008F090E09093BE1A81E02091CF1A2B3053
:1024D00008F080E08093BD1A41E02091D01A2B30A3
:1024E00008F040E04093BC1A990F990F440F492B14
:1024F000E42FE82BE093BB1A4E2FEE0F550B660B23
:10250000770BFA013197E730F10530F48827EE5860
:10251000FF4F8F4F0C94AD170E94BC0A6FEA8DE7F6
:102520000E94100CB8CF0E94D80A6DE780E012C05C
:102530000E94BC0A6AEA8AEA0E94100C2FEF8FE31D
:1025400092E0215080409040E1F746C00E94CA0AC4
:102550006FEA8DE70E94100C2FEF8FE392E021507D
:1025600080409040E1F700C00000C1E0D0E093CF90
:102570000E94DD0A60E08DE712C00E94BC0A6FEA8B
:102580008FEA0E94100C2FEF8FE794E021508040DB
:102590009040E1F721C00E94D10A6DE78FEA0E94C6
:1025A000100C2FEF8FE392E0215080409040E1F734
:1025B00000C00000C0E0D0E06ECF209719F40E9468
:1025C000D10A02C00E94CA0A6DE78DE70E94100C72
:1025D0008FEF97E40197F1F700C000005CCF0F5F29
:1025E0001F4F55CF8FE590E00E94B80BDF91CF9140
:1025F0001F910F91FF90EF900C94EC0A0F931F9393
:10260000CF93DF93082F0E94BC0AC0E0D0E010E017
:10261000C017D107D4F40E94AE118091D01A8D3129
:10262000D0F38091D11A8D3120F48091CF1A8D3161
:1026300090F30E94EC0A68EC88EC0E94100C8FE585
:1026400090E00E94B80B2196E3CFDF91CF911F91CC
:102650000F9108956FEA8FEA0E94100C81E490E0D8
:102660000E94CC0B6FEA8FEA0E94100C0E94CA0AEB
:102670000E94F1108091D01A8031D0F30C94EC0AB2
:102680006FEA8FEA0E94100C81E490E00E94D60B62
:102690006FEA8FEA0E94100C0E94D10A0E94F1108A
:1026A0008091D01A8031D0F30C94EC0ACF939091A2
:1026B00093028917A1F1803391F1C82F9E3449F01C
:1026C0001CF4953469F029C0933589F09735B1F041
:1026D00024C08335C9F08735F1F08534F1F418C092
:1026E0008335B1F0873581F08E34B9F414C08E345F
:1026F00059F0873569F0853481F40DC08E3441F08E
:10270000833549F0853449F48AE590E00E94D60B80
:102710000E94401302C00E942A13C0939302CF91DB
:102720000895CF93909193028917C1F18033B1F14D
:10273000C82F9E3449F01CF4953469F02DC09335B0
:1027400089F09735B1F028C08335C9F0873501F19C
:10275000853411F518C08335B1F0873581F08E349A
:10276000D9F416C08E3459F0873569F08534A1F458
:102770000FC08E3441F0833559F0853469F48AE511
:1027800090E00E94D60B8AE590E00E94D60B04C030
:102790008AE590E00E94CC0BC0939302CF910895FC
:1027A0008091481B9091491B08959C01215031094B
:1027B0002031310508F047C0FC01E853FD4F60832C
:1027C0006D34A1F42091461B3091471B2231310515
:1027D000D4F5A9014F5F5F4F5093471B4093461BB1
:1027E000220F331FF901E25EF44E2BC06D36A1F4C7
:1027F0002091441B3091451B2231310524F5A9015C
:102800004F5F5F4F5093451B4093441B220F331F74
:10281000F901E650F54E15C06E34A9F42091421B23
:102820003091431B2231310574F4A9014F5F5F4F92
:102830005093431B4093421B220F331FF901EA526E
:10284000F54E9183808308959C01215031092031F8
:10285000310528F4FC01E853FD4F8081089580E3A1
:1028600008958091C6029091C7028131910544F488
:10287000880F991FFC01E652FD4F808191810895D8
:102880008FEF9FEF08958091C6029091C702019645
:102890009093C7028093C6020895E0914C1BF0917B
:1028A0004D1BE450FD4F808108958091C4029091AA
:1028B000C5020895880F991FFC01E25BF44E8081E8
:1028C00091810895CF93DF93FC0120E030E08FEFFA
:1028D0009FE74FEF5FE7EB01A991BE01A11107C090
:1028E000A081B1814A175B0714F0C901AD012F5FC8
:1028F0003F4F32962334310571F7DF91CF91089520
:10290000CF93DF93EC01FC01EE0FFF1FE25BF44E6F
:10291000808191818F3F2FEF920771F00E94801488
:10292000DF93CF9381E698E19F938F930E947A1B68
:102930000F900F900F900F90DF91CF9108956F92AD
:102940007F928F929F92AF92BF92CF92DF92EF923F
:10295000FF920F931F93CF93DF93CDB7DEB7C3548E
:10296000D1090FB6F894DEBF0FBECDBFDE011196C0
:10297000E4EDFBE12FEF3FE7219331931D924CE112
:10298000EA35F407C9F72FEF3FEF30934F1B209341
:102990004E1BFC01EE0FFF1FEC52F44E1182108211
:1029A00002E410E08824839463E4962EBE016F5FF6
:1029B0007F4F84ED9BE10E946214E1E0F0E0EC0FB8
:1029C000FD1FE80FF91F80822EE4622E2BE1722E8C
:1029D000989E5001999EB00C1124E4EDFBE1DE01BC
:1029E00011967D0120E030E0BC01660F771F6C522C
:1029F000744ED7014D917D01411118C0A9014A0DB6
:102A00005B1D40575C4FDA01DC90DD2079F0DB0183
:102A10004D915C914D0D511DC080D1804C155D05CF
:102A20002CF4D3018D939C93518340832F5F3F4FB0
:102A3000B2E06B0E711C329623343105D1F6015091
:102A4000110909F0B3CFCD5BDF4F0FB6F894DEBFAD
:102A50000FBECDBFDF91CF911F910F91FF90EF90EF
:102A6000DF90CF90BF90AF909F908F907F906F90AE
:102A700008956F927F928F929F92AF92BF92CF9262
:102A8000DF92EF92FF920F931F93CF93DF93C82FA4
:102A9000CB010E949F14CD3409F04FC0E0911E1B62
:102AA000F0911F1B73E0EE0FFF1F7A95E1F7E050E6
:102AB000FD4F20813181C090461BD090471BA090D4
:102AC0004C1BB0904D1B0EE11BE148EB5BE0A0E01E
:102AD000B0E08FEF9FEFAC15BD050CF0D8C0F8014A
:102AE000C191D1918F01FE0163E0EE0FFF1F6A9546
:102AF000E1F7BF0160507D4F3B01490160E070E0AC
:102B0000F301219131913F017901EE0CFF1CF70196
:102B1000EC52F44EE080F180E416F50614F09401D6
:102B200003C05B01A701CE016F5F7F4F6430710569
:102B300011F04901E5CF1196CECFCD3609F050C046
:102B4000E091FA1AF091FB1A73E0EE0FFF1F7A95ED
:102B5000E1F7E050FD4F20813181C090461BD090BD
:102B6000471BB0904C1BA0904D1B0AEF1AE148EB9D
:102B70005BE0A0E0B0E08FEF9FEFAC15BD050CF07F
:102B800052C0F801C191D1918F01FE0163E0EE0FB7
:102B9000FF1F6A95E1F7BF0160507D4F3B0149017E
:102BA00060E070E0F301219131913F017901EE0C79
:102BB000FF1CF701EC52F44EE080F180E416F506BC
:102BC00014F0940104C0B62EA72EA701CE016F5FAA
:102BD0007F4F6430710511F04901E4CF1196CDCFDC
:102BE000CE3409F059C0E091D61AF091D71A73E0AB
:102BF000EE0FFF1F7A95E1F7E050FD4F2081318104
:102C0000C090461BD090471BB0904C1BA0904D1B12
:102C100006ED1AE148EB5BE0A0E0B0E08FEF9FEF3C
:102C2000AC15BD052CF0B0924C1BA0924D1B3AC0C8
:102C3000F801C191D1918F01FE0163E0EE0FFF1FFA
:102C40006A95E1F7BF0160507D4F3B01490160E0AB
:102C500070E0F301219131913F017901EE0CFF1CED
:102C6000F701EC52F44EE080F180E416F50614F022
:102C7000940104C0B62EA72EA701CE016F5F7F4F2F
:102C80006430710511F04901E4CF1196C9CFA092CB
:102C90004C1BB0924D1B06C020E030E048EB5BE0DF
:102CA0008FEF9FEF5093C5024093C4023093491BAE
:102CB0002093481BDF91CF911F910F91FF90EF90D0
:102CC000DF90CF90BF90AF909F908F907F906F904C
:102CD0000895CF93DF93EC01CB010E949F14FE0176
:102CE00083E0EE0FFF1F8A95E1F7E050FD4FD081A2
:102CF000C18170914C1B60914D1B20E030E048EB8E
:102D00005BE081919191DC01AA0FBB1FAC52B44EE4
:102D10000D90BC91A02DA417B5071CF08D2F9C2FF2
:102D200003C0722F632FAD012F5F3F4F2430310559
:102D300019F0D82FC92FE5CF70934C1B60934D1B12
:102D40005093C5024093C402DF91CF9108959C0136
:102D500062337105C0F582339105A8F5A3E4A89FFD
:102D6000F001A99FF00D1124E057FC4FE60FF71F6B
:102D70001082A69FC001A79F900D1124AC0140575F
:102D80005C4FFA01E20FF31F1082FB01EE0FFF1FF1
:102D9000E25BF44E808191818F3F2FEF920779F0B3
:102DA000A89F9001A99F300D112420573C4FF90195
:102DB000E60FF71F1082FA01E80FF91F108282E474
:102DC00090E00C949F1408950F931F93CF93DF937B
:102DD0009C01FB01009749F08234910501F1309785
:102DE00041F06234710569F480C06D33710549F4B6
:102DF00078C0859731F02D33310519F4309709F4F7
:102E00006EC0C9016EE070E00E949917EC018A3033
:102E100091055CF4219780F4C8E0D0E00DC06532E4
:102E2000710509F467C08AE090E065E070E00E94F7
:102E30009917EC01CC0FDD1FC90101972EE030E09E
:102E4000B9010E9499178B01000F111F69E070E012
:102E50000E949917060F171FCF01B9010E949917F9
:102E60008A3091053CF49C012150310950F428E04E
:102E700030E007C065E070E00E9499179C01220FC6
:102E8000331FCF0101976EE070E00E949917FB019C
:102E9000EE0FFF1F69E070E00E9499176E0F7F1F11
:102EA000601B710B2C1B3D0B6130710521F06F3FD6
:102EB0008FEF780769F421303105A9F02F3F8FEFAC
:102EC000380789F06130710551F06F3F7F4F49F04D
:102ED0002130310569F02F3F3F4F29F40BC083E5C6
:102EE0000AC08EE408C080E306C0859709F083CF4E
:102EF00085E401C087E5DF91CF911F910F9108957F
:102F00000E94FF0480E090E00895AA1BBB1B51E1E2
:102F100007C0AA1FBB1FA617B70710F0A61BB70B49
:102F2000881F991F5A95A9F780959095BC01CD01EE
:102F3000089597FB072E16F4009407D077FD09D06B
:102F40000E94851707FC05D03EF4909581959F4F10
:102F50000895709561957F4F0895EE0FFF1F881FAC
:102F60008BBF0790F691E02D19945058BB27AA27E4
:102F70000E94CD170C9447190E94391938F00E940D
:102F8000401920F039F49F3F19F426F40C943619B7
:102F90000EF4E095E7FB0C943019E92F0E945819C4
:102FA00058F3BA17620773078407950720F079F47E
:102FB000A6F50C947A190EF4E0950B2EBA2FA02DDD
:102FC0000B01B90190010C01CA01A0011124FF27D6
:102FD000591B99F0593F50F4503E68F11A16F040D1
:102FE000A22F232F342F4427585FF3CF46953795D0
:102FF0002795A795F0405395C9F77EF41F16BA0B95
:10300000620B730B840BBAF09150A1F0FF0FBB1F42
:10301000661F771F881FC2F70EC0BA0F621F731F8B
:10302000841F48F4879577956795B795F7959E3FE8
:1030300008F0B0CF9395880F08F09927EE0F979579
:10304000879508950E940C1908F481E008950E9464
:103050003B180C9447190E94401958F00E943919E6
:1030600040F029F45F3F29F00C94301951110C9471
:103070007B190C9436190E94581968F39923B1F3FF
:10308000552391F3951B550BBB27AA27621773078E
:10309000840738F09F5F5F4F220F331F441FAA1F22
:1030A000A9F335D00E2E3AF0E0E832D091505040DE
:1030B000E695001CCAF72BD0FE2F29D0660F771F8C
:1030C000881FBB1F261737074807AB07B0E809F072
:1030D000BB0B802DBF01FF2793585F4F3AF09E3FF7
:1030E000510578F00C9430190C947B195F3FE4F390
:1030F000983ED4F3869577956795B795F7959F5F3A
:10310000C9F7880F911D9695879597F90895E1E085
:10311000660F771F881FBB1F621773078407BA07E4
:1031200020F0621B730B840BBA0BEE1F88F7E0953F
:1031300008950E94A0186894B1110C947B19089509
:103140000E94601988F09F5798F0B92F9927B751BE
:10315000B0F0E1F0660F771F881F991F1AF0BA953B
:10316000C9F714C0B13091F00E947A19B1E0089506
:103170000C947A19672F782F8827B85F39F0B93FF8
:10318000CCF3869577956795B395D9F73EF49095EE
:103190008095709561957F4F8F4F9F4F0895E8946C
:1031A00009C097FB3EF490958095709561957F4F8F
:1031B0008F4F9F4F9923A9F0F92F96E9BB2793953D
:1031C000F695879577956795B795F111F8CFFAF44D
:1031D000BB0F11F460FF1BC06F5F7F4F8F4F9F4F7E
:1031E00016C0882311F096E911C0772321F09EE8DC
:1031F000872F762F05C0662371F096E8862F70E042
:1032000060E02AF09A95660F771F881FDAF7880F1B
:103210009695879597F90895990F0008550FAA0B71
:10322000E0E8FEEF16161706E807F907C0F01216D9
:103230001306E407F50798F0621B730B840B950BDC
:1032400039F40A2661F0232B242B252B21F4089531
:103250000A2609F4A140A6958FEF811D811D0895CE
:1032600097F99F6780E870E060E008959FEF80EC39
:10327000089500240A9416161706180609060895DC
:1032800000240A9412161306140605060895092E42
:103290000394000C11F4882352F0BB0F40F4BF2BB1
:1032A00011F460FF04C06F5F7F4F8F4F9F4F0895F1
:1032B00057FD9058440F551F59F05F3F71F04795E7
:1032C000880F97FB991F61F09F3F79F087950895CC
:1032D000121613061406551FF2CF4695F1DF08C0EB
:1032E000161617061806991FF1CF86957105610508
:1032F00008940895E894BB2766277727CB0197F9B0
:1033000008950E9494190C9447190E94391938F0B5
:103310000E94401920F0952311F00C9430190C9460
:10332000361911240C947B190E94581970F3959F3B
:10333000C1F3950F50E0551F629FF001729FBB27AC
:10334000F00DB11D639FAA27F00DB11DAA1F649F48
:103350006627B00DA11D661F829F2227B00DA11DFB
:10336000621F739FB00DA11D621F839FA00D611D81
:10337000221F749F3327A00D611D231F849F600DA2
:10338000211D822F762F6A2F11249F5750409AF0CB
:10339000F1F088234AF0EE0FFF1FBB1F661F771F57
:1033A000881F91505040A9F79E3F510580F00C9422
:1033B00030190C947B195F3FE4F3983ED4F3869563
:1033C00077956795B795F795E7959F5FC1F7FE2BC2
:1033D000880F911D9695879597F90895FA01EE0F3C
:1033E000FF1F309621053105A1F16115710561F4CA
:1033F0008038BFE39B0749F168949038810561F0FC
:103400008038BFEF9B0741F099234AF5FF3FE10564
:103410003105210519F1E8940894E795D901AA230B
:1034200029F4AB2FBE2FF85FD0F310C0FF5F70F40C
:10343000A695E0F7F73950F019F0FF3A38F49F7786
:103440009F930DD00F9007FC9058089546F00C9470
:10345000361960E070E080E89FE308954FE79F77BA
:103460005F934F933F932F930E94E91A2F913F91BF
:103470004F915F910E9481190C94461A29F416F01D
:103480000C9430190C947A190C9436190E94601916
:10349000A8F39638A0F707F80F92E8942BE33AEADE
:1034A00048EB5FE70E9497190F920F920F924DB76A
:1034B0005EB70F920E94311BE2EFF0E00E94781A93
:1034C0004F915F91EF91FF91E595EE1FFF1F49F03E
:1034D000FE57E0684427EE0F441FFA95E1F7419547
:1034E000550B0E94AB1A0F9007FE0C949F1A08957B
:1034F000DF93CF931F930F93FF92EF92DF927B01A5
:103500008C01689406C0DA2EEF010E949419FE0126
:10351000E894A5912591359145915591A6F3EF0138
:103520000E94CD17FE019701A801DA9469F7DF9098
:10353000EF90FF900F911F91CF91DF9108959B0124
:10354000AC0160E070E080E89FE30C9427180C94D5
:1035500030190C94651B0E946019D8F39923C9F3A4
:10356000940F511DA3F39150504094F059F08823CB
:1035700032F0660F771F881F91505040C1F79E3F71
:1035800051052CF7880F911D9695879597F9089509
:103590005F3FACF0983E9CF0BB278695779567958A
:1035A000B79508F4B1609395C1F7BB0F58F711F4C4
:1035B00060FFE8CF6F5F7F4F8F4F9F4FE3CF0C943B
:1035C0007B1916F00C94651B0C94361968940C94B6
:1035D00030190E946019A8F39923C1F3AEF3DF9369
:1035E000CF931F930F93FF92C92FDD2788232AF0D3
:1035F0002197660F771F881FDAF720E030E040E858
:103600005FEB9FE3883920F0803E38F021968F777A
:103610000E94B617EAE1F1E004C00E94B617E7E4A1
:10362000F1E00E94781A8B01BE01EC01FB2E6F576E
:1036300071097595771F880B990B0E94D11828E1A5
:1036400032E741E35FE30E949419AF2D9801AE0188
:10365000FF900F911F91CF91DF910E94CD170C9495
:103660004719FA01DC01AA0FBB1F9B01AC01BF5730
:1036700028F4222733274427507820C0B75190F4EC
:10368000AB2F0024469537952795011CA395D2F3BF
:10369000002071F0220F331F441FB395DAF30ED0D0
:1036A0000C94B51761307105A0E88A07B94630F46B
:1036B0009B01AC016627772788279078309621F008
:1036C000208331834283538308959F3F31F091508B
:1036D00020F4879577956795B795880F911D9695F6
:1036E000879597F90895FB01DC0101900D92002068
:1036F000E1F70895CF93DF93CDB7DEB7AE014A5F10
:103700005F4FFA0161917191AF0180915C1C9091C2
:103710005D1C0E94BD1BDF91CF9108950F931F93F5
:10372000CF93DF93CDB7DEB72E970FB6F894DEBFF9
:103730000FBECDBF0E891F8986E08C831A83098353
:103740008FEF9FE79E838D83AE01465E5F4F688D4E
:10375000798DCE0101960E94BD1BEF81F885E00FA7
:10376000F11F10822E960FB6F894DEBF0FBECDBFAC
:10377000DF91CF911F910F9108952F923F924F9219
:103780005F926F927F928F929F92AF92BF92CF92F1
:10379000DF92EF92FF920F931F93CF93DF93CDB7FA
:1037A000DEB72B970FB6F894DEBF0FBECDBF6C010E
:1037B0007B018A01FC0117821682838181FFCCC1C3
:1037C000CE0101963C01F6019381F70193FD8591AD
:1037D00093FF81917F01882309F4BAC1853239F4BE
:1037E00093FD859193FF81917F01853229F4B60184
:1037F00090E00E94DD1DE7CF912C212C312CFFE1C0
:10380000F315D8F08B3279F038F4803279F08332C6
:10381000A1F4232D20611DC08D3261F0803369F445
:10382000232D216016C0832D8260382EE32DE460A5
:103830003E2E2AC0F32DF8601DC037FC2DC020EDB0
:10384000280F2A3040F08E32B9F436FC81C1232D86
:103850002064322E19C036FE06C08AE0989E200DE4
:103860001124922E11C0EAE02E9E200D1124222E4A
:10387000F32DF0623F2E08C08C3621F4832D806832
:10388000382E02C0883641F4F70193FD859193FFED
:1038900081917F018111B3CF982F9F7D95549330F3
:1038A00028F40C5F1F4F9FE399830DC0833631F0DE
:1038B000833771F0833509F059C021C0F801808148
:1038C00089830E5F1F4F88248394912C530113C06A
:1038D0002801F2E04F0E511CF801A080B18036FEA5
:1038E00003C0692D70E002C06FEF7FEFC5010E9439
:1038F000D21D4C018201F32DFF773F2E16C0280107
:1039000022E0420E511CF801A080B18036FE03C0B7
:10391000692D70E002C06FEF7FEFC5010E94C71DE7
:103920004C01F32DF0683F2E820133FC1BC0822D29
:1039300090E088169906B0F4B60180E290E00E940B
:10394000DD1D2A94F4CFF50137FC859137FE819176
:103950005F01B60190E00E94DD1D21102A9421E054
:10396000821A91088114910471F7E8C0843611F02D
:10397000893641F5F80137FE07C060817181828187
:1039800093810C5F1F4F08C060817181072E000C6E
:10399000880B990B0E5F1F4FF32DFF763F2E97FF7D
:1039A00009C090958095709561957F4F8F4F9F4F7F
:1039B000F0683F2E2AE030E0A3010E94191E882EF5
:1039C000861845C0853731F4232D2F7EB22E2AE08C
:1039D00030E025C0932D997FB92E8F36C1F018F4B1
:1039E000883579F0B5C0803719F0883721F0B0C03C
:1039F000E92FE061BE2EB4FE0DC0FB2DF460BF2E9A
:103A000009C034FE0AC0292F2660B22E06C028E065
:103A100030E005C020E130E002C020E132E0F801F2
:103A2000B7FE07C060817181828193810C5F1F4F57
:103A300006C06081718180E090E00E5F1F4FA3019E
:103A40000E94191E882E8618FB2DFF773F2E36FE0A
:103A50000DC0232D2E7FA22E891458F434FE0BC0E6
:103A600032FC09C0832D8E7EA82E05C0B82CA32C55
:103A700003C0B82C01C0B92CA4FE0FC0FE01E80D94
:103A8000F11D8081803321F49A2D997EA92E09C0E1
:103A9000A2FE06C0B394B39404C08A2D867809F0C0
:103AA000B394A3FC11C0A0FE06C0B21488F4280C85
:103AB000922C9B180EC0B21460F4B60180E290E024
:103AC0000E94DD1DB394F7CFB21418F42B1802C076
:103AD000982C212CA4FE10C0B60180E390E00E9437
:103AE000DD1DA2FE17C0A1FC03C088E790E002C064
:103AF00088E590E0B6010CC08A2D867859F0A1FEC9
:103B000002C08BE201C080E2A7FC8DE2B60190E02A
:103B10000E94DD1D891438F4B60180E390E00E9414
:103B2000DD1D9A94F7CF8A94F301E80DF11D808191
:103B3000B60190E00E94DD1D8110F5CF222009F42E
:103B400042CEB60180E290E00E94DD1D2A94F6CFBD
:103B5000F6018681978102C08FEF9FEF2B960FB6FB
:103B6000F894DEBF0FBECDBFDF91CF911F910F91B3
:103B7000FF90EF90DF90CF90BF90AF909F908F908D
:103B80007F906F905F904F903F902F900895FC0131
:103B90000590615070400110D8F7809590958E0F78
:103BA0009F1F0895FC016150704001900110D8F7EB
:103BB000809590958E0F9F1F08950F931F93CF931D
:103BC000DF93FB01238121FD03C08FEF9FEF2CC00A
:103BD00022FF16C046815781248135814217530741
:103BE00044F4A081B1819D012F5F3F4F3183208339
:103BF0008C93268137812F5F3F4F3783268314C0F4
:103C00008B01EC01FB010084F185E02D1995892BD6
:103C1000E1F6D80116968D919C911797019617960B
:103C20009C938E931697CE01DF91CF911F910F91A8
:103C30000895FA01AA27283051F1203181F1E89442
:103C40006F936E7F6E5F7F4F8F4F9F4FAF4FB1E08F
:103C50003ED0B4E03CD0670F781F891F9A1FA11D8A
:103C6000680F791F8A1F911DA11D6A0F711D811D8B
:103C7000911DA11D20D009F468943F912AE0269F50
:103C800011243019305D3193DEF6CF010895462FAF
:103C90004770405D4193B3E00FD0C9F7F6CF462F90
:103CA0004F70405D4A3318F0495D31FD40524193F9
:103CB00002D0A9F7EACFB4E0A695979587957795B6
:103CC0006795BA95C9F700976105710508959B013D
:103CD000AC010A2E06945795479537952795BA95C6
:103CE000C9F7620F731F841F951FA01D0895F894D4
:023CF000FFCF04
:103CF2004200CDCC4C3E48656C6C6F2C2049206153
:103D02006D20612046697265626972642D2D2D2DC8
:103D12002D2D2D2D2D2D2D2D2D2D2D2D2D2D2D2DD1
:103D22002D2D2D2D2D2D2D2D2D2D2D2D2D2D2D2DC1
:103D32002D2D2D2D2D2D2D2D2D20560A0048656C53
:103D42006C6F20576F726C64204920616D20612076
:103D5200466972656269726420560048656C6C6FD0
:103D62002C204920616D206120466972656269726A
:103D7200642D2D2D2D2D2D2D2D20560A00010001F3
:103D82000001004E0400050004000000FF0FFF0FB9
:103D9200FF0F48656C6C6F2C204920616D206120FB
:103DA20046697265626972642D2D2D2D2D2D2D2D82
:103DB20020560A0010270C003030303030303030BE
:103DC200303030303030303030300D0009000500F6
:103DD2000100020006000A000E000F000B0007009F
:103DE2000300040008000C00100011004553574E58
:103DF2000A0002000B0010000A0002000B00100073
:103E02000B0004000C0012000C0006000D00140050
:103E12000D0008000E0016001800100019001E0008
:103E2200190012001A0020001A0014001B002200C0
:103E32001B0016001C00240026001E0027002C0078
:103E42002700200028002E00280022002900300030
:103E5200290024002A00320034002C0035003A00E8
:103E620035002E0036003C003600300037003E00A0
:103E72003700320038004000420042004200420057
:103E82000000000000000000000000000000000030
:103E92000000000000000000000000000000000020
:103EA2000000000000000000000000000000000010
:103EB20000000000000000000000000000010000FF
:103EC20000000000000100000000000000010000EE
:103ED20000000000000000000000000000000000E0
:103EE20000000000000000000000000000000000D0
:103EF20000000000000000000000000000000000C0
:103F020000000000000000010001000000000000AD
:103F1200000000000000000000000000000000009F
:103F2200000000000000000000000000000000008F
:103F3200000000000000000000000000000000007F
:103F4200000000000000000000000001000100006D
:103F5200000000000100000000000000000000005E
:103F6200000000000000000000000000000000004F
:103F7200000000000000000000000000000000003F
:103F8200000000000000000000000000000000012E
:103F9200000100000000000000000000000000001E
:103FA200000000000000000000000000000000000F
:103FB20000000000000000000000000000000000FF
:103FC20000000000000000000000000000000000EF
:103FD20000000001000100000000000100000000DC
:103FE20000000000000000000000000000000000CF
:103FF20000000000000000000000000000000000BF
:1040020000000000000000000000000000000000AE
:10401200000000000000000100010000000000009C
:10402200000000000000000000000000000000008E
:10403200000000000000000000000000000000007E
:10404200000000000000000000000000000000006E
:10405200000000000000000000000001000100005C
:10406200000001000000000000000000000000004D
:10407200000000000000000000000000000000003E
:10408200000000000000000000000000000000002E
:10409200000000000000000000000000000000011D
:1040A200000100000000000000000000000000000D
:1040B20000000000000000000000000000000000FE
:1040C20000000000000000000000000000000000EE
:1040D20000000000000000000000000000000000DE
:1040E20000000001000000000001000000000000CC
:1040F20000000000000000000000000000000000BE
:1041020000000000000000000000000000000000AD
:10411200000000000000000000000000000000019C
:10412200000000000000000000000000000100008C
:10413200000000000000000000000000000000007D
:10414200000000000000000000000000000000006D
:10415200000000000000000000000000000000005D
:10416200000000000100000000000000000000004C
:10417200000001000000000000000000000000003C
:10418200000000000000000000000000000000002D
:10419200000000000000000000000000000000001D
:1041A200000000000000000000010000000000000C
:1041B20000000000000000010000000000000000FC
:1041C20000000000000000000000000000000000ED
:1041D20000000000000000000000000000000000DD
:1041E20000000000000000000000000000000100CC
:1041F20000000000000000000000000001000000BC
:1042020000000000000000000000000000000000AC
:10421200000000000000000000000000000000009C
:10422200000000000000000000000000000000008C
:10423200000000010000000000000000000000007B
:10424200000100000000000000000000000000006B
:10425200000000000000000000000000000000005C
:10426200000000000000000000000000000000004C
:10427200000000000000000100000000000100003A
:10428200000000000001000000000000000000002B
:10429200000000000000000000000000000000001C
:1042A200000000000000000000000000000000000C
:1042B20000000000000000000000000000000001FB
:1042C20000010000000000000000000000000000EB
:1042D20000000000000000000000000000000000DC
:1042E20000000000000000000000000000000000CC
:1042F20000000000000000000000000000000100BB
:1043020000000001000100000000000001000000A8
:10431200000000000000000000000000000000009B
:10432200000000000000000000000000000000008B
:10433200000000000000000000000000000000007B
:104342000000000000000001000100000000000069
:10435200000000000000000000000000000000005B
:10436200000000000000000000000000000000004B
:10437200000000000000000000000000000000003B
:104382000000000000010000000000010001000028
:10439200000000010000000000000000000000001A
:1043A200000000000000000000000000000000000B
:1043B20000000000000000000000000000000000FB
:1043C20000000000000000000000000000000001EA
:1043D20000010000000000000000000000000000DA
:1043E20000000000000000000000000000000000CB
:1043F20000000000000000000000000000000000BB
:1044020000000000000000000000000001000000A9
:104412000000000100010000000001000000000097
:10442200000000000000000000000000000000008A
:10443200000000000000000000000000000000007A
:10444200000000000000000000000000000000006A
:104452000000000000000001000100000000000058
:10446200000000000000000000000000000000004A
:10447200000000000000000000000000000000003A
:10448200000000000000000000000000000000002A
:104492000000000100000000000000010000000018
:1044A2000001000000000000000000000000000009
:1044B20000000000000000000000000000000000FA
:1044C20000000000000000000000000000000000EA
:1044D20000000000000000010000000000000000D9
:1044E20000000000000100000000000000000000C9
:1044F20000000000000000000000000000000000BA
:1045020000000000000000000000000000000000A9
:104512000000000000000000000000000100000098
:104522000000000000000000000001000000000088
:104532000000000000000000000000000000000079
:104542000000000000000000000000000000000069
:104552000000000000000000000000000000000059
:104562000001000000000000000000000000000147
:104572000000000000000000000000000000000039
:104582000000000000000000000000000000000029
:104592000000000000000000000000000000000019
:1045A2000000000000000100000000000000000008
:1045B20000000000010000000000000000000000F8
:1045C20000000000000000000000000000000000E9
:1045D20000000000000000000000000000000000D9
:1045E20000000000000000000000000100000000C8
:1045F20000000000000000000001000000000000B8
:1046020000000000000000000000000000000000A8
:104612000000000000000000000000000000000098
:104622000000000000000000000000000000000187
:104632000000000000010000000000000001000076
:104642000000000000000000000000000000000068
:104652000000000000000000000000000000000058
:104662000000000000000000000000000000000048
:104672000000000000000001000100000000000036
:104682000000000000000000000000000000000028
:104692000000000000000000000000000000000018
:1046A2000000000000000000000000000000000008
:1046B20000000000000001000000000100010000F5
:1046C20000000000010000000000000000000000E7
:1046D20000000000000000000000000000000000D8
:1046E20000000000000000000000000000000000C8
:1046F20000000000000000000000000000000001B7
:1047020000010000000000000000000000000000A6
:104712000000000000000000000000000000000097
:104722000000000000000000000000000000000087
:104732000000000000000000000000000001000076
:104742000000000100010000000000010000000064
:104752000000000000000000000000000000000057
:104762000000000000000000000000000000000047
:104772000000000000000000000000000000000037
:104782000000000000000001000100000000000025
:104792000000000000000000000000000000000017
:1047A2000000000000000000000000000000000007
:1047B20000000000000000000000000000000000F7
:1047C20000000000010000000000000100010000E4
:1047D20000000100000000000000000000000000D6
:1047E20000000000000000000000000000000000C7
:1047F20000000000000000000000000000000000B7
:1048020000000000000000000000000000000001A5
:104812000001000000000000000000000000000095
:104822000000000000000000000000000000000086
:104832000000000000000000000000000000000076
:104842000000000000000000000000010000000065
:104852000000000100000000000100000000000054
:104862000000000000000000000000000000000046
:104872000001000000000000000000000000000035
:104882000000000000000000000000000000000125
:104892000000000000000000000000000001000015
:1048A2000000000000000000000000000000000006
:1048B20000000000000000000000000000000000F6
:1048C20000000000000000000000000000000000E6
:1048D20000000000010000000000000000000000D5
:1048E20000000100000000000000000000000000C5
:1048F20000000000000000000000000000000000B6
:1049020000000000000000000000000000000000A5
:104912000000000000000000000100000000000094
:104922000000000000000001000000000000000084
:104932000000000000000000000000000000000075
:104942000000000000000000000000000000000065
:104952000000000000000000000000000000010054
:104962000000000000000000000000000100000044
:104972000000000000000000000000000000000035
:104982000000000000000000000000000000000025
:104992000000000000000000000000000000000015
:1049A2000000000100000000000000000000000004
:1049B20000010000000000000000000000000000F4
:1049C20000000000000000000000000000000000E5
:1049D20000000000000000000000000000000000D5
:1049E20000000000000000010000000000010000C3
:1049F20000000000000100000000000000000000B4
:104A020000000000000000000000000000000000A4
:104A12000000000000000000000000000000000094
:104A22000000000000000000000000000000000183
:104A32000001000000000000000000000000000073
:104A42000000000000000000000000000000000064
:104A52000000000000000000000000000000000054
:104A62000000000000000000000000000000010043
:104A72000000000100010000000000000100000031
:104A82000000000000000000000000000000000024
:104A92000000000000000000000000000000000014
:104AA2000000000000000000000000000000000004
:104AB20000000000000000010001000000000000F2
:104AC20000000000000000000000000000000000E4
:104AD20000000000000000000000000000000000D4
:104AE20000000000000000000000000000000000C4
:104AF20000000000000100000000000100010000B1
:104B020000000001000000000000000000000000A2
:104B12000000000000000000000000000000000093
:104B22000000000000000000000000000000000083
:104B32000000000000000000000000000000000172
:104B42000001000000000000000000000000000062
:104B52000000000000000000000000000000000053
:104B62000000000000000000000000000000000043
:104B72000000000000000000000000000100000032
:104B82000000000100010000000001000000000020
:104B92000000000000000000000000000000000013
:104BA2000000000000000000000000000000000003
:104BB20000000000000000000000000000000000F3
:104BC20000000000000000010001000000000000E1
:104BD20000000000000000000000000000000000D3
:104BE20000000000000000000000000000000000C3
:104BF20000000000000000000000000000000000B3
:104C020000000001000000000000000100000000A0
:104C12000001000000000000000000000000000091
:104C22000000000000000000000000000000000082
:104C32000000000000000000000000000000000072
:104C42000000000000000001000000000000000061
:104C52000000000000010000000000000000000051
:104C62000000000000000000000000000000000042
:104C72000000000000000000000000000000000032
:104C82000000000000000000000000000100000021
:104C92000000000000000000000001000000000011
:104CA2000000000000000000000000000000000002
:104CB20000000000000000000000000000000000F2
:104CC20000000000000000000000000000000000E2
:104CD20000010000000000000000000000000001D0
:104CE20000000000000000000000000000000000C2
:104CF20000000000000000000000000000000000B2
:104D020000000000000000000000000000000000A1
:104D12000000000000000100000000000000000090
:104D22000000000001000000000000000000000080
:104D32000000000000000000000000000000000071
:104D42000000000000000000000000000000000061
:104D52000000000000000000000000010000000050
:104D62000000000000000000000100000000000040
:104D72000000000000000000000000000000000031
:104D82000000000000000000000000000000000021
:104D92000000000000000000000000000000000110
:104DA2000000000000010000000000000000000000
:104DB20000000000000000000000000000000000F1
:104DC20000000000000000000000000000000000E1
:104DD20000000000000000000000000000000000D1
:104DE20000000000000000010001000000000000BF
:104DF20000000000000000000000000000000000B1
:104E020000000000000000000000000000000000A0
:104E12000000000000000000000000000000000090
:104E2200000000000000010000000001000100007D
:104E32000000000000000000000000000000000070
:104E42000000000000000000000000000000000060
:104E52000000000000000000000000000000000050
:104E6200000000000000000000000000000000013F
:104E7200000100000000000100000000000000002E
:104E82000000000000000000000000000000000020
:104E92000000000000000000000000000000000010
:104EA20000000000000000000000000000010000FF
:104EB20000000001000100000000000000000000EE
:104EC20000000000000000000000000000000000E0
:104ED20000000000000000000000000000000000D0
:104EE20000000000000000000000000000000000C0
:104EF20000000000000000010001000000000000AE
:104F0200000000000000000000000000000000009F
:104F1200000000000000000000000000000000008F
:104F2200000000000000000000000000000000007F
:104F3200000000000100000000000001000100006C
:104F4200000000000000000000000000000000005F
:104F5200000000000000000000000000000000004F
:104F6200000000000000000000000000000000003F
:104F7200000000000000000000000000000000012E
:104F8200000100000000000000000000000000001E
:104F9200000000000000000000000000000000000F
:104FA20000000000000000000000000000000000FF
:104FB20000000000000000000000000100000000EE
:104FC20000000001000000000000000000000000DE
:104FD20000000000000000000000000000000000CF
:104FE20000000000000000000000000100000000BE
:104FF20000000000000000000000000000000000AF
:10500200000000000000000000317374204E6F6445
:10501200650A5E004D6964204E6F64650A5E003960
:105022003020446567726565204C6566742074752E
:10503200726E0A5E0043656E746572206F6620624E
:105042006C6F636B20726561636865640A5E00421F
:1050520061636B206F6E206C696E650A5E004C6541
:105062006674205475726E0A5E0053746172742005
:105072004C6F636174696F6E0A5E0046696E697394
:105082006865640A5E00436F6D6D616E64205265EF
:105092006365697665645E0052657120746F207382
:1050A20063616E20506C6F74204E753A25640A5EFF
:1050B20000436D64204163637074643A54696D65A2
:1050C2003A202564203C2025645E00436D64205212
:1050D200656A65637465643A2049742077696C6C0B
:1050E200206E6F7420636F6D706C20696E2074691E
:1050F2006D655E00436D642052656A656374656424
:105102003A2069742077696C6C206E6F7420636F2B
:105112006D706C20696E2074696D655E0053636109
:105122006E2064696B737472612C20446573742001
:105132006E6F64653A25640A5E004D6F76696E672C
:1051420020746F206E6F64653A25640A5E005265B2
:105152006163686564206E6F64653A25640A5E0067
:10516200506C6F74206E75202564207265616368CF
:1051720065640A5E00526F746174696F6E206669BD
:105182006E69736865640A5E00506C6F74206E6F9E
:105192003A2025642077697468204D616A6F722015
:1051A200496E6A7572790A5E00506C6F74206E6F78
:1051B2003A2025642077697468204D696E6F7220E9
:1051C200496E6A7572790A5E00506C6F74206E6F58
:1051D2003A2025642077697468204E6F20496E6AF0
:1051E2007572790A5E00506C6F74207363616E2071
:1051F200636F6D706C5E004265666F7265206469F4
:105202006B737472612C2044657374206E6F6465D5
:105212003A25640A5E0044657320506C6F74204E18
:10522200753A25640A5E00506C6F74205363616E98
:1052320020436F6D706C6574650A5E0046696E612D
:105242006C20476F616C2036362072656163686539
:10525200645E0043616C20446F6E650A5E00436FBA
:105262006D6D616E64205570646174650A5E0054F0
:1052720061736B324220636F6D706C6574650A5E98
:10528200005265642050756C7365730047726565E2
:105292006E2050756C73657300426C756520507595
:1052A2006C7365730061636365707465645E006945
:1052B200676E6F72655E0072656400677265656E27
:1052C200007363616E6E65642D25642D25735E0027
:1052D200666F72776172642D25642D25645E00729B
:1052E2006F746174652D25642D25632D25635E0021
:1052F2004572726F7220696E207461736B20636FE6
:105302006D706C6574696F6E5E006D696E6F722D83
:1053120025645E006D616A6F722D25645E006E6F9A
:105322002D25645E005363616E2D4572726F725E4D
:10533200004572726F72206465636F64696E6720E4
:105342007461736B0066657463682D25642D256432
:06535200002564200000AC
:00000001FF
