:100000000C94C8000C94F5050C94E9000C94E900DC
:100010000C94E9000C945D080C9438080C94E900E9
:100020000C94E9000C94E9000C94E9000C94E900AC
:100030000C94E9000C94E9000C94E9000C944E0E29
:100040000C94E9000C94E9000C94E9000C94E9008C
:100050000C94E9000C94E9000C94E9000C94E9007C
:100060000C94E9000C94040A0C943D0A0C94E900E9
:100070000C94E9000C94E9000C94E9000C94E9005C
:100080000C94E9000C94E9000C94E9000C94E9004C
:100090000C94E9000C94E9000C94E9000C94E9003C
:1000A0000C94E9000C94E9000C94E9000C94E9002C
:1000B0000C94E9000C94E9000C94E9000C94E9001C
:1000C0000C94E9000C94E9000C94E9000C94E9000C
:1000D0000C94E9000C94E9000C940E0B0C94470B63
:1000E0000C94E90074107910871099109E10AC10D0
:1000F000BE1007634236B79BD8A71A39685618AEA8
:10010000BAAB558C1D3CB7CC5763BD6DEDFD753E4C
:10011000F6177231BF000000803F08000000BE9259
:100120002449123EABAAAA2ABECDCCCC4C3E00003C
:100130000080BEABAAAAAA3E00000000BF000000DB
:10014000803F0000000000084178D3BB4387D113F3
:100150003D190E3CC3BD4282AD2B3E68EC8276BE9B
:10016000D98FE1A93E4C80EFFFBE01C4FF7F3F0065
:10017000000000000C94AC100C9499100C947910B1
:100180000C9487100C949E100C9474100C94BE1058
:1001900011241FBECFEFD1E2DEBFCDBF00E00CBF08
:1001A00017E1A0E0B2E0EEE5F5E300E00BBF02C02E
:1001B00007900D92AA36B107D9F72AE1AAE6B7E16E
:1001C00001C01D92A03FB207E1F70E94DF130C941B
:1001D000AD1A0C9400000E945C050E9463050E9409
:1001E000FA020E946F030E941D060E942E060E94C2
:1001F000E5070E94EC070E94F7070E94FE070E9495
:100200000C080E94C00D0C94FC09CF9381E00E9461
:10021000DF106EEE74E182E092E00E94A91782E0A6
:1002200092E00E94020A81E00E94DF1069EF74E10F
:1002300082E092E00E94A91782E092E00E94020A06
:100240006FEA8FEA0E94D6098AE590E00E9492093F
:1002500064E075E182E092E00E94A91782E092E0FA
:100260000E94020A68EC88EC0E94D60984EB90E0B8
:100270000E947E096AE175E182E092E00E94A9177E
:1002800082E092E00E94020A0E949607C82F0E9414
:10029000FA090E949E038C2F0E94CB03C23519F4E9
:1002A0000E94A00D07C0C73419F40E94A80D02C017
:1002B0000E94B00D84EB90E00E94880964E375E130
:1002C00082E092E00E94A91782E092E00E94020A76
:1002D0000E940B1163E475E182E092E00E94A9178D
:1002E00082E092E00E94020A81E00E94DF106EEE3E
:1002F00074E182E092E00E94A91782E092E00E94FD
:10030000020A81E00E94DF106FE475E182E092E072
:100310000E94A91782E092E00E94020A60E675E15D
:1003200082E092E00E94A91782E092E0CF910C94C3
:1003300007040F931F93CF93DF93C0916E17C111E2
:1003400052C00E94C9110E94BC118033E9F500918E
:100350006C1710916D170E94C911B8010E94CC1240
:1003600080930002909301029F938F938BE695E117
:100370009F938F9302E012E01F930F930E94C41784
:10038000C8010E94020A80910002909101020E941D
:10039000321281E080936E170E94C9119F938F9350
:1003A0008AE895E19F938F931F930F930E94C41740
:1003B000C8010E94020A8DB79EB70C960FB6F8943A
:1003C0009EBF0FBE8DBFDBC00E94DB1110926E1767
:1003D0006BE975E182E092E00E94A91782E092E069
:1003E0000E94020ACCC080916C1790916D170E94F8
:1003F000ED1180936A1790936B1720916C173091D1
:100400006D1740910002509101022417350709F43D
:100410003FC09F938F9380EB95E19F938F93C2E0B2
:10042000D2E0DF93CF930E94C417CE010E94020A4C
:1004300060916A1770916B1780916C1790916D178E
:100440000E9443130E94371181E00E94DF108091C7
:100450006A1790916B1780936C1790936D1721E03A
:1004600020936E179F938F9384EC95E19F938F93C6
:10047000DF93CF930E94C417CE010E94020A8DB76A
:100480009EB70C960FB6F8949EBF0FBE8DBF67C087
:100490002234310509F465C00E94C9119F938F93DE
:1004A00086ED95E19F938F93C2E0D2E0DF93CF93E7
:1004B0000E94C417CE010E94020A0E94E5110E9408
:1004C00072116BEE75E1CE010E94A917CE010E9458
:1004D000020A84EB90E00E947E090E9496070F902A
:1004E0000F900F900F900F900F90823539F40E946B
:1004F000C9119F938F938FEF95E10FC0873439F423
:100500000E94C9119F938F938FE196E106C00E94CC
:10051000C9119F938F938FE396E19F938F93DF93FE
:10052000CF930E94C4170F900F900F900F900F90D1
:100530000F9082E092E00E94020A0E94DB1184EB9D
:1005400090E00E94880910926E176CE576E182E0D7
:1005500092E00E94A91782E092E00E94020AC0E0A5
:100560000EC00E94DB116DE676E182E092E00E940F
:10057000A91782E092E00E94020A10926E178C2F57
:10058000DF91CF911F910F9108950E94EB000E947F
:100590005F0F64E876E182E092E00E94A91782E0B2
:1005A00092E00E94020A0E94400C6FE876E182E02D
:1005B00092E00E94A91782E092E00E94020A0E9443
:1005C00099018823E1F360EA76E182E092E00E94FB
:1005D000A91782E092E00E94020A0E94400C0E9449
:1005E0005E0D8823D1F30E94850D0E9405010E94B3
:1005F000C60DF3CF87B1876087B987B1806F87B9A0
:1006000088B1887F88B988B18F7088B9089586E6E7
:100610009EE00197F1F700004098419880E388B987
:10062000429AEFEFF7E43197F1F700C000004298EB
:10063000E6E6FEE03197F1F700004098419888B96E
:10064000429AEFEFF7E43197F1F700C000004298CB
:10065000E6E6FEE03197F1F700004098419888B94E
:10066000429A8FEF97E40197F1F700C0000042989B
:10067000E6E6FEE03197F1F700004098419880E20D
:1006800088B9429A8FEF97E40197F1F700C0000014
:100690004298089598B19F7098B998B1282F207FFB
:1006A000922B98B940984198429AEFEFF7E431972E
:1006B000F1F700C00000429898B19F7098B998B1C6
:1006C0008295807F892B88B940984198429A8FEF14
:1006D00097E40197F1F700C00000429808950E9446
:1006E000070386E69EE00197F1F7000088E20E948A
:1006F0004A0381E00E944A0386E00E944A038EE09A
:100700000E944A0380E80C944A0380E80C944A0350
:10071000982F862F923059F01CF4913031F00895C3
:10072000933039F0943039F00895815805C08154E0
:1007300003C08D5601C08D520C944A0381E00C9485
:100740004A03CF93C42F0E94880388B18F7088B961
:1007500088B19C2F907F892B88B9409A4198429A02
:100760008FEF97E40197F1F700C000004298C2951F
:10077000C07F88B18F7088B988B1C82BC8B9409A3A
:100780004198429A8FEF97E40197F1F700C000007B
:100790004298CF91089598B19F7098B998B1282F39
:1007A000207F922B98B9409A4198429AEFEFF7E454
:1007B0003197F1F700C0000042988295807F98B190
:1007C0009F7098B998B1892B88B9409A4198429AFC
:1007D0008FEF97E40197F1F700C000004298089569
:1007E0000F931F93CF93DF93D82FC62F8A01F80161
:1007F00041918F01442331F06C2F8D2F0E94A10372
:10080000CF5FF5CFDF91CF911F910F910895CF93D7
:10081000DF93EC018991882319F00E94CB03FACF72
:10082000DF91CF910895EF92FF920F931F93CF9393
:10083000DF93D82FC62F8A0179010E94880317FF02
:1008400009C01195019511094DE26C2F8D2F0E9461
:10085000A103CF5FDD2311F0C11103C00E94850306
:1008600004C06C2F8D2F0E94880385E0E816F104E8
:1008700009F07FC0C80160E177E20E94F813AB0184
:10088000405D5F4F5093701740936F176C2F8D2F03
:100890000E94A103CF5FC80168EE73E00E94F813C5
:1008A000CB0170937A17609379176AE070E00E9429
:1008B000E413AC01405D5F4F509372174093711782
:1008C0006C2F8D2F0E94A103CF5FC80164E670E0FA
:1008D0000E94F813CB0170937A17609379176AE03E
:1008E00070E00E94E413AC01405D5F4F50937417B9
:1008F000409373176C2F8D2F0E94A103CF5F2AE0C6
:1009000030E0C801B9010E94F813CB0170937A1747
:1009100060937917B9010E94E413AC01405D5F4F09
:1009200050937617409375176C2F8D2F0E94A1035B
:10093000CF5FC8016AE070E00E94F813AC01405D2F
:100940005F4F50937817409377176C2F8D2F0E942D
:10095000A103CF5F86E0E816F104FCF045E46C2FBC
:100960008D2FDF91CF911F910F91FF90EF900C94FD
:10097000A10384E0E816F10409F48DCF83E0E816C2
:10098000F10409F4A2CF82E0E816F10409F4B7CF2C
:1009900081E0E816F104F1F6CCCFDF91CF911F9101
:1009A0000F91FF90EF9008950F931F93CF93DF93D4
:1009B0008A01E901882311F0611103C00E948503B7
:1009C00002C00E948803C530D10509F061C0C8018A
:1009D00060E177E20E94E413CB01C0969093701718
:1009E00080936F170E94CB03C80168EE73E00E94EA
:1009F000E413CB0170937A17609379176AE070E083
:100A00000E94E413C09690937217809371170E940E
:100A1000CB03C80164E670E00E94E413CB0170933D
:100A20007A17609379176AE070E00E94E413C09629
:100A300090937417809373170E94CB032AE030E0E1
:100A4000C801B9010E94E413CB0170937A17609337
:100A50007917B9010E94E413C0969093761780939A
:100A600075170E94CB03C8016AE070E00E94E4138E
:100A7000C09690937817809377170E94CB032697A0
:100A8000B4F085E4DF91CF911F910F910C94CB03CB
:100A9000C430D10509F4A8CFC330D10509F4B9CFCA
:100AA000C230D10559F2C130D10549F7DCCFDF9111
:100AB000CF911F910F91089510BA11BA10920701AA
:100AC000109208010895EAE7F0E08081866880834B
:100AD000808186788083EBE7F0E08081807B808373
:100AE000ECE7F0E080818076808380818064808381
:100AF00080818062808380B7806880BF089588305D
:100B000028F090917B00986090937B0090917C00FE
:100B10008770892B80937C0080917A008064809319
:100B20007A0080917A0084FFFCCF809179009091C7
:100B30007A00906190937A0090917B00977F9093D8
:100B40007B0090917C00907E90937C000895682FAC
:100B500070E080E090E00E9429152FEE39EC43E927
:100B60005FE30E9424169B01AC0160E070E080E826
:100B70009FE30E9481142AE939EF4EE255E40E9476
:100B8000B71520E030E040E251E40E94B7150E9422
:100B9000F314CB016132734010F080E293E00895CA
:100BA000CF93DF93C82FD62F842F0E947F05809389
:100BB0008817482F50E023E030E06D2F8C2FDF9115
:100BC000CF910C9413048AB18E6F8AB9589A089504
:100BD0000E94FA020C94E305F894E9E6F0E08081C3
:100BE00082608083E89A789408951F920F920FB6DE
:100BF0000F9211248F939F93AF93BF93809195177A
:100C000090919617A0919717B09198170196A11DF2
:100C1000B11D8093951790939617A0939717B09353
:100C20009817BF91AF919F918F910F900FBE0F902A
:100C30001F9018955C9A5D9A0895F8940E94E305B8
:100C40000E94EC0578940C941A065E985F980895BB
:100C50005E9A5F9A08955E985F9A08955E9A5F988B
:100C600008950E94250610929517109296171092DB
:100C70009717109298172FEF8FE794E0215080403C
:100C80009040E1F700C00000809195179091961771
:100C9000A0919717B09198178093911790939217FE
:100CA000A0939317B093941761E081E00E948803AA
:100CB00062EB76E184E292E00E94A91784E292E07E
:100CC0000E940704409191175091921760919317D9
:100CD0007091941725E030E061E082E00E94D40436
:100CE0002FEF8FEF9CE2215080409040E1F700C051
:100CF000000081E00C944A030E9428061092951788
:100D00001092961710929717109298172FEF8FE75F
:100D100094E0215080409040E1F700C000008091B5
:100D2000951790919617A0919717B0919817809367
:100D3000891790938A17A0938B17B0938C1761E053
:100D400081E00E9488036DEB76E184E292E00E94EC
:100D5000A91784E292E00E940704409189175091FC
:100D60008A1760918B1770918C1725E030E061E055
:100D700082E00E94D4042FEF8FEF9CE2215080404C
:100D80009040E1F700C0000081E00C944A030E940B
:100D90002B06109295171092961710929717109293
:100DA00098172FEF8FE794E0215080409040E1F7B3
:100DB00000C000008091951790919617A091971709
:100DC000B091981780938D1790938E17A0938F17DB
:100DD000B093901761E081E00E9488036AEC76E1AD
:100DE00084E292E00E94A91784E292E00E94070444
:100DF00040918D1750918E1760918F1770919017B9
:100E000025E030E061E082E00E94D4042FEF8FEF14
:100E10009CE2215080409040E1F700C0000081E05A
:100E20000C944A030E94250610929517109296176B
:100E300010929717109298172FEF8FE794E0215098
:100E400080409040E1F700C000008091951790919C
:100E50009617A0919717B091981780939117909338
:100E60009217A0939317B093941760919117709174
:100E70009217809193179091941708950E942806D5
:100E80001092951710929617109297171092981724
:100E90002FEF8FE794E0215080409040E1F700C0B1
:100EA00000008091951790919617A0919717B09197
:100EB00098178093891790938A17A0938B17B093F4
:100EC0008C176091891770918A1780918B17909178
:100ED0008C1708950E942B06109295171092961762
:100EE00010929717109298172FEF8FE794E02150E8
:100EF00080409040E1F700C00000809195179091EC
:100F00009617A0919717B091981780938D1790938B
:100F10008E17A0938F17B093901760918D177091D3
:100F20008E1780918F179091901708958F929F92AE
:100F3000AF92BF92CF92DF92EF92FF920E94120780
:100F40006B017C010E946A074B015C010E943E0715
:100F500027E0C21626E1D206E104F10430F0623047
:100F600022E172078105910500F58C149D04AE0401
:100F7000BF0428F46C157D058E059F05C0F0C814CC
:100F8000D904EA04FB0428F4681579058A059B0551
:100F900080F086169706A806B90668F4C616D70626
:100FA000E806F90640F487E407C087E505C082E556
:100FB00003C082E401C080E3FF90EF90DF90CF9008
:100FC000BF90AF909F908F90089581B18F6081B94D
:100FD00082B1807F82B90895EAE0F1E08081886182
:100FE0008083EBE0F1E080818861808308958DB19A
:100FF0008F7C8DB98EB180638EB90895F8948DB3CE
:1010000080638DBBEAE6F0E080818A608083808126
:101010008A7F808378940895E1E2F1E010828FEF77
:101020008093250191E090932401109229018093EF
:10103000280110922B0180932A01A0E2B1E08C914B
:10104000806A8C938C918F7A8C938C9181608C9335
:101050008C918D7F8C9380818860808380818F7E4E
:10106000808380818360808380818B7F80830895EB
:101070001F920F920FB60F9211248F939F93AF93ED
:10108000BF9380919B1790919C17A0919D17B09151
:101090009E170196A11DB11D80939B1790939C17DD
:1010A000A0939D17B0939E17BF91AF919F918F9181
:1010B0000F900FBE0F901F9018951F920F920FB6B2
:1010C0000F9211248F939F93AF93BF9380919F179B
:1010D0009091A017A091A117B091A2170196A11D00
:1010E000B11D80939F179093A017A093A117B09361
:1010F000A217BF91AF919F918F910F900FBE0F904C
:101100001F90189582B1867F82B982B1866082B9BC
:10111000089582B1897F82B982B1896082B90895C8
:1011200082B1857F82B982B1856082B9089582B12A
:101130008A7F82B982B18A6082B9089582B1887F3C
:1011400082B9129A089582B1827F82B9119A089564
:1011500082B1817F82B9109A089582B1887F82B965
:10116000139A089582B1807F82B908950F931F93D7
:10117000813099F410929B1710929C1710929D1732
:1011800010929E1710929F171092A0171092A117FD
:101190001092A21780E090E029C040919B175091D7
:1011A0009C1760919D1770919E1780919F17909149
:1011B000A017A091A117B091A2178A019B01080F57
:1011C000191F2A1F3B1FC901B8010E94291528E4D5
:1011D00031EE42E850E40E94B71520E030E040E0F4
:1011E0005FE30E94B7150E94F314CB011F910F918A
:1011F0000895BC0180E090E00E94291528E431EEBA
:1012000042E850E40E9481140E94FA14CB01A0E04D
:10121000B0E010929B1710929C1710929D1710929D
:101220009E1710929F171092A0171092A11710925C
:10123000A21740919B1750919C1760919D17709138
:101240009E17481759076A077B0798F440919F1724
:101250005091A0176091A1177091A21748175907D4
:101260006A077B0730F4E6E6FEE03197F1F700000D
:10127000E0CF0C94B2080F931F93BC0180E090E084
:101280000E94291525EE30ED4AEA50E40E948114AF
:101290000E94FA1410929B1710929C1710929D179F
:1012A00010929E1710929F171092A0171092A117DC
:1012B0001092A21700919B1710919C1720919D17D7
:1012C00030919E17061717072807390798F40091E1
:1012D0009F171091A0172091A1173091A217061700
:1012E00017072807390730F4E6E6FEE03197F1F7F3
:1012F0000000E0CF1F910F910C94B208CF93DF93C1
:10130000EC010E948208CE01DF91CF910C943B0941
:10131000CF93DF93EC010E948908CE01DF91CF913A
:101320000C943B09CF93DF93EC010E949008CE010F
:10133000DF91CF910C94F908CF93DF93EC010E94D9
:101340009708CE01DF91CF910C94F908CF93DF93EA
:10135000EC010E949E08CE01880F991FDF91CF916A
:101360000C94F908CF93DF93EC010E94A308CE01FF
:10137000880F991FDF91CF910C94F908CF93DF93D9
:10138000EC010E94A808CE01880F991FDF91CF9130
:101390000C94F908CF93DF93EC010E94AD08CE01C5
:1013A000880F991FDF91CF910C94F9088093280141
:1013B00060932A010895E1E0F1E0808180628083FA
:1013C000E2E0F1E08081806280830895E2E0F1E074
:1013D00080818F7D80830895E2E0F1E080818062EA
:1013E000808308950E94920B911102C0811108958B
:1013F0008FEF08950C94CF0B87E090E00E94770B5D
:101400000C94110C0C94E80B1F920F920FB60F92D4
:1014100011240BB60F922F933F934F935F938F93AB
:101420009F93EF93FF932091C0003091C6002871E5
:101430008091AF1890E001968F7799274091AE1870
:1014400050E08417950739F08093AF18FC01EE54F3
:10145000F74E308301C022E02093AD18FF91EF9149
:101460009F918F915F914F913F912F910F900BBE64
:101470000F900FBE0F901F9018951F920F920FB6EE
:101480000F9211240BB60F928F939F93EF93FF93BC
:101490009091B1188091B018981779F08091B01898
:1014A00090E001968F7799278093B018FC01EE5C4D
:1014B000F64E80818093C60005C08091C1008F7D6B
:1014C0008093C100FF91EF919F918F910F900BBE80
:1014D0000F900FBE0F901F901895F8941092B118AE
:1014E0001092B0181092AF181092AE18789497FF1F
:1014F00004C022E02093C0009F779093C5008093A2
:10150000C40088E98093C10086E08093C2000895FA
:10151000F8949091AF188091AE18981304C0789405
:1015200080E091E0089578948091AE1890E0019663
:101530008F7799278093AE18FC01EE54F74E2081E7
:101540008091AD1890E0982F8827820F911D089503
:10155000F8949091AF188091AE18981304C07894C5
:1015600080E091E008957894E091AE18F0E0319633
:10157000EF77FF27EE54F74E20818091AD1890E071
:10158000982F8827820F911D08952091B11830E07F
:101590002F5F3F4F2F7733274091B01850E024172B
:1015A0003507D1F3F901EE5CF64E80832093B11834
:1015B0008091C10080628093C1000895CF93DF9332
:1015C000EC018991882319F00E94C50AFACFDF91B6
:1015D000CF910895CF93DF93FC018491EF01219681
:1015E000882321F00E94C50AFE01F7CFDF91CF9139
:1015F0000895F8948091AF182091AE18789490E0F7
:1016000080589F4F821B91098F7799270895F894EE
:101610008091AE188093AF18789408951F920F921E
:101620000FB60F9211240BB60F922F933F934F9347
:101630005F938F939F93EF93FF93209130013091AD
:10164000360128718091AA1790E001968F7799272B
:101650004091A91750E08417950739F08093AA1795
:10166000FC01E355F84E308301C022E02093A81717
:10167000FF91EF919F918F915F914F913F912F91AA
:101680000F900BBE0F900FBE0F901F9018951F92DA
:101690000F920FB60F9211240BB60F928F939F9358
:1016A000EF93FF939091AC178091AB17981779F057
:1016B0008091AB1790E001968F7799278093AB17B5
:1016C000FC01E35DF74E80818093360105C0809177
:1016D00031018F7D80933101FF91EF919F918F9127
:1016E0000F900BBE0F900FBE0F901F901895F8949F
:1016F0001092AC171092AB171092AA171092A9175C
:10170000789497FF04C022E0209330019F77909354
:1017100035018093340188E98093310186E080931C
:1017200032010895F8949091AA178091A9179813FF
:1017300004C0789480E091E0089578948091A9178E
:1017400090E001968F7799278093A917FC01E355C4
:10175000F84E20818091A81790E0982F8827820F5B
:10176000911D0895F8949091AA178091A917981344
:1017700004C0789480E091E008957894E091A917EE
:10178000F0E03196EF77FF27E355F84E2081809106
:10179000A81790E0982F8827820F911D0895209117
:1017A000AC1730E02F5F3F4F2F7733274091AB17B7
:1017B00050E024173507D1F3F901E35DF74E80833C
:1017C0002093AC178091310180628093310108959C
:1017D000CF93DF93EC018991882319F00E94CF0BFE
:1017E000FACFDF91CF910895CF93DF93FC018491DD
:1017F000EF012196882321F00E94CF0BFE01F7CF45
:10180000DF91CF910895F8948091AA172091A9179C
:10181000789490E080589F4F821B91098F77992789
:101820000895F8948091A9178093AA177894089541
:10183000F894E1EBF0E0108282E88093B200B8986F
:10184000A0E7B0E08C9181608C931092B000808111
:1018500084608083789408951092B3191092B2191D
:101860001092B5191092B419E1EBF0E0808181601B
:1018700080830895E1EBF0E080818E7F808308957E
:10188000CF93DF930E94F2098F3F09F414C183358F
:1018900009F062C066ED76E182E492E00E94A91749
:1018A00082E492E00E94020A2FEF8FE794E0215039
:1018B00080409040E1F700C000000E94F2098F3F95
:1018C00009F4F9C0282F082E000C330B309369025D
:1018D000209368023F938F9382E697E19F938F93C3
:1018E000C2E4D2E0DF93CF930E94C417CE010E94DE
:1018F000020A9FEF2FE784E0915020408040E1F7FB
:1019000000C000000E94F2090F900F900F900F90FE
:101910000F900F908F3F09F4CEC0282F082E000C97
:10192000330B30936702209366023F938F9388EDC9
:1019300096E19F938F93DF93CF930E94C417CE01BC
:101940000E94020A0E942C0C1092BF191092BE191C
:1019500081E08093BD1955C0863409F0ACC08FEF8B
:101960009FE724E0815090402040E1F700C0000054
:101970000E94F209C82F6DED76E182E492E00E94A8
:10198000A91782E492E00E94020ACD3409F042C015
:101990006FED76E182E492E00E94A91782E492E082
:1019A0000E94020A8FEF9FE724E081509040204080
:1019B000E1F700C000000E94F2098F3F09F47BC0EC
:1019C000282F082E000C330B3093670220936602F9
:1019D0003F938F9389ED96E19F938F9382E492E0FA
:1019E0009F938F930E94C41782E492E00E94020AA0
:1019F0000E942C0C81E08093BE191092BF191092A6
:101A0000BD198093BC190F900F900F900F900F90FD
:101A10000F9051C0CD3609F04EC062EE76E182E4FF
:101A200092E00E94A91782E492E00E94020A8FEFDE
:101A30009FE724E0815090402040E1F700C0000083
:101A40000E94F2098F3FB9F1282F082E000C330BAA
:101A500030936702209366023F938F9389ED96E15E
:101A60009F938F9382E492E09F938F930E94C41779
:101A700082E492E00E94020A65EE76E182E492E05E
:101A80000E94A91782E492E00E94020A0E942C0C94
:101A900081E08093BF191092BE191092BD198093F6
:101AA000BC190F900F900F900F900F900F90DF9137
:101AB000CF910C94110CDF91CF910895CF93C091E9
:101AC000BC19CC2361F06DEE76E182E492E00E94D5
:101AD000A91782E492E00E94020A1092BC198C2F8E
:101AE000CF91089580916802909169020895809144
:101AF000BD1908958091BE1908958091BF19089568
:101B0000809166029091670208956AEF76E182E41F
:101B100092E00E94A91782E492E00C94020A63E02A
:101B200077E182E492E00E94A91782E492E00E94A9
:101B3000020A0C943A0C8091B2199091B31908954D
:101B40001092BB1981E08093BA191092B9190895C7
:101B500081E08093BB191092BA191092B9190895B7
:101B60001092BB191092BA1981E08093B9190895A7
:101B7000909365028093640208953B9A4398089578
:101B80000E94180C0C94BD0D439A089581E0809337
:101B9000B8190E94C40D8091BD19882309F44BC067
:101BA0008091B91994E0899F900111249091BA19FC
:101BB000892F90E0880F991F822B932B2091BB19BE
:101BC000822B81309105A1F02CF4892B89F56AE0F4
:101BD00077E13BC082309105A1F0039749F58091F0
:101BE000B3198F938091B2198F9385E397E111C058
:101BF0008091B3198F938091B2198F9383E297E10B
:101C000008C08091B3198F938091B2198F938CE2A1
:101C100097E19F938F9382E492E09F938F930E942A
:101C2000C4170F900F900F900F900F900F9011C04E
:101C30006BE377E10AC08091BE1981110EC08091DB
:101C4000BF1981110AC066E477E182E492E00E9444
:101C5000A91782E492E00C94020A8091B3198F9341
:101C60008091B2198F93809165028F938091640265
:101C70008F938AE597E19F938F9382E492E09F93FD
:101C80008F930E94C4178DB79EB708960FB6F8942D
:101C90009EBF0FBE8DBFDDCF439808951F920F9258
:101CA0000FB60F9211240BB60F922F933F934F93C1
:101CB0005F936F937F938F939F93AF93BF93EF93B4
:101CC000FF938091B4199091B51901969093B5192D
:101CD0008093B4198091B4199091B519883E9340BE
:101CE00040F18091B2199091B31901969093B31974
:101CF0008093B2191092B5191092B4198091B81945
:101D00008823B9F08091B6199091B7199C012F5F83
:101D10003F4F3093B7192093B619029754F00E94A1
:101D20004C0E0E943A0C1092B8191092B7191092EA
:101D3000B61982E88093B200B898FF91EF91BF91F5
:101D4000AF919F918F917F916F915F914F913F9153
:101D50002F910F900BBE0F900FBE0F901F901895F4
:101D600080916A0208958091C5199091C6190895CD
:101D70009C01261B370BE4E6E29FC001E39F900D18
:101D800011249A01261B370BB9010E94F81377FD25
:101D900005C06536710524F4862F089580E0089506
:101DA00084E60895CF9383E00E947F058093D7193E
:101DB00082E00E947F058093D61981E00E947F0512
:101DC000C82F8093D5194091CD195091CE196091AB
:101DD0007702709178028091D71990E00E94B80E36
:101DE0008093D4194091CB195091CC196091750210
:101DF000709176028C2F90E00E94B80E8093D219D9
:101E00004091C9195091CA1960917302709174027E
:101E10008091D61990E00E94B80E8093D319CF918B
:101E200008950E94D20E8091D71990E02091CD198B
:101E30003091CE192817390724F49093CE19809346
:101E4000CD1920917702309178028217930724F4FC
:101E500090937802809377028091D61990E0209138
:101E6000C9193091CA192817390724F49093CA194F
:101E70008093C919209173023091740282179307DD
:101E800024F490937402809373028091D51990E0AA
:101E90002091CB193091CC192817390724F490934D
:101EA000CC198093CB19209175023091760282175C
:101EB000930724F49093760280937502089581E04D
:101EC0000E94B6080E9497086DE78DE70E94D60928
:101ED00080E00E94B6088A3591051CF40E94110F1B
:101EE000F7CF81E00E94B6080E94900880E00E942F
:101EF000B608843B91051CF40E94110FF7CF81E0D6
:101F00000E94B6080E94970880E00E94B6088A35B1
:101F100091051CF40E94110FF7CF0C94B2088F9218
:101F20009F92AF92BF92CF92DF92EF92FF920E9468
:101F3000D20EE090D219F12CC090D419D12CB70157
:101F40006C197D09072E000C880B990B0E942B152C
:101F50004B015C018091D319B601680F711D6E0DA4
:101F60007F1D072E000C880B990B0E942B1520E07B
:101F700030E040E85FE30E9415149B01AC01C5010D
:101F8000B4010E94811420E030E04FE753E40E9446
:101F9000B7154B015C019B01AC016091D8197091A0
:101FA000D9198091DA199091DB190E9414142FE647
:101FB00032E143E05BE30E94B7150E94F3146B012A
:101FC0007C0120E030E040E05FE3C501B4010E9405
:101FD000B7150E94F314C60ED71E8092D81990929E
:101FE000D919A092DA19B092DB1968EC70E06C197B
:101FF0007D09C60188539F4F6F3F710509F02CF48E
:1020000077FF05C060E070E002C06FEF70E08F3FC7
:10201000910509F02CF497FF05C080E090E002C024
:102020008FEF90E0FF90EF90DF90CF90BF90AF9058
:102030009F908F900C94D609EF92FF920F931F936D
:10204000CF93DF9300E010E0C0E0D0E0E82EF12C69
:102050000E151F050CF0A7C08091D619803108F429
:102060009FC08091D719803108F09AC08091D5190E
:10207000803108F095C00E94D20E91E08091D7196E
:102080008B3008F090E09093C41981E02091D5192D
:102090002B3008F080E08093C31941E02091D619DD
:1020A0002B3008F040E04093C219990F990F440F6C
:1020B000492BE42FE82BE093C1194E2FEE0F550B5F
:1020C000660B770BFA013197E730F10530F488277A
:1020D000EE58FF4F8F4F0C940C140E9482086FEA49
:1020E0008DE70E94D609B8CF0E949E086DE780E078
:1020F00012C00E9482086AEA8AEA0E94D6092FEF7B
:102100008FE392E0215080409040E1F746C00E946A
:1021100090086FEA8DE70E94D6092FEF8FE392E0D7
:10212000215080409040E1F700C00000C1E0D0E0C5
:1021300093CF0E94A30860E08DE712C00E9482083E
:102140006FEA8FEA0E94D6092FEF8FE794E02150C3
:1021500080409040E1F721C00E9497086DE78FEA28
:102160000E94D6092FEF8FE392E0215080409040EB
:10217000E1F700C00000C0E0D0E06ECF209719F476
:102180000E94970802C00E9490086DE78DE70E94A8
:10219000D6098FEF97E40197F1F700C000005CCFFC
:1021A0000F5F1F4F55CF8FE590E00E947E09DF91B2
:1021B000CF911F910F91FF90EF900C94B2080F9365
:1021C0001F93CF93DF93082F0E948208C0E0D0E0D6
:1021D00010E0C017D107D4F40E948F0F8091D61958
:1021E0008D31D0F38091D7198D3120F48091D5199C
:1021F0008D3190F30E94B20868EC88EC0E94D609F9
:102200008FE590E00E947E092196E3CFDF91CF9188
:102210001F910F9108956FEA8FEA0E94D60981E419
:1022200090E00E9492096FEA8FEA0E94D6090E940C
:1022300090080E94D20E8091D6198031D0F30C9470
:10224000B2086FEA8FEA0E94D60981E490E00E940A
:102250009C096FEA8FEA0E94D6090E9497080E94A3
:10226000D20E8091D6198031D0F30C94B208CF935E
:1022700090916A028917A1F1803391F1C82F9E34A1
:1022800049F01CF4953469F029C0933589F09735ED
:10229000B1F024C08335C9F08735F1F08534F1F40D
:1022A00018C08335B1F0873581F08E34B9F414C08D
:1022B0008E3459F0873569F0853481F40DC08E3441
:1022C00041F0833549F0853449F48AE590E00E9475
:1022D0009C090E94211102C00E940B11C0936A0246
:1022E000CF910895CF9390916A028917C1F18033FD
:1022F000B1F1C82F9E3449F01CF4953469F02DC01B
:10230000933589F09735B1F028C08335C9F087350A
:1023100001F1853411F518C08335B1F0873581F0AE
:102320008E34D9F416C08E3459F0873569F085346F
:10233000A1F40FC08E3441F0833559F0853469F42F
:102340008AE590E00E949C098AE590E00E949C0941
:1023500004C08AE590E00E949209C0936A02CF917E
:1023600008959C01215031092031310520F4FC01F0
:10237000E356FD4F608308959C01215031092031BF
:10238000310528F4FC01E356FD4F8081089580E378
:10239000089580919B0290919C028131910544F4B3
:1023A000880F991FFC01E155FD4F808191810895AF
:1023B0008FEF9FEF089580919B0290919C02019670
:1023C00090939C0280939B020895E091DC19F09118
:1023D000DD19EF52FD4F80810895880F991FFC0190
:1023E000E252F64E808191810895CF93DF93FC01F4
:1023F00020E030E08FEF9FE74FEF5FE7EB01A9911F
:10240000BE01A11107C0A081B1814A175B0714F07A
:10241000C901AD012F5F3F4F32962334310571F76B
:10242000DF91CF910895CF93DF93EC01FC01EE0F84
:10243000FF1FE252F64E808191818F3F2FEF92076E
:1024400071F00E941312DF93CF9386E697E19F937A
:102450008F930E94B0170F900F900F900F90DF9105
:10246000CF9108956F927F928F929F92AF92BF9279
:10247000CF92DF92EF92FF920F931F93CF93DF9350
:10248000CDB7DEB7C354D1090FB6F894DEBF0FBE87
:10249000CDBFDE011196E4E6FAE12FEF3FE721938D
:1024A00031931D924AE1EA3EF407C9F72FEF3FEF5F
:1024B0003093DF192093DE19FC01EE0FFF1FEC595A
:1024C000F54E1182108202E410E08824839463E4C4
:1024D000962EBE016F5F7F4F84E69AE10E94F51150
:1024E000E1E0F0E0EC0FFD1FE80FF91F80822EED18
:1024F000622E29E1722E989E5001999EB00C1124F3
:10250000E4E6FAE1DE0111967D0120E030E0BC0155
:10251000660F771F6C59754ED7014D917D014111A2
:1025200018C0A9014A0D5B1D4B595C4FDA01DC90C4
:10253000DD2079F0DB014D915C914D0D511DC08086
:10254000D1804C155D052CF4D3018D939C93518360
:1025500040832F5F3F4FB2E06B0E711C32962334E5
:102560003105D1F60150110909F0B3CFCD5BDF4F32
:102570000FB6F894DEBF0FBECDBFDF91CF911F9194
:102580000F91FF90EF90DF90CF90BF90AF909F9012
:102590008F907F906F900895CF93DF93EC01CB01E4
:1025A0000E943212FE0183E0EE0FFF1F8A95E1F7D1
:1025B000EB52FD4FD081C1815091DC194091DD1962
:1025C00020E030E068EB7BE081919191DC01AA0F83
:1025D000BB1FAC59B54E0D90BC91A02DA617B707E7
:1025E0001CF08D2F9C2F03C0522F432FBD012F5F56
:1025F0003F4F2430310519F0D82FC92FE5CF509324
:10260000DC194093DD19DF91CF9108959C0162336D
:102610007105C0F582339105A8F5A3E4A89FF001E8
:10262000A99FF00D1124EB59FC4FE60FF71F108204
:10263000A69FC001A79F900D1124AC014B595C4F80
:10264000FA01E20FF31F1082FB01EE0FFF1FE252AF
:10265000F64E808191818F3F2FEF920779F0A89FEE
:102660009001A99F300D11242B593C4FF901E60F21
:10267000F71F1082FA01E80FF91F108282E490E040
:102680000C94321208950F931F93CF93DF939C0104
:10269000FB01009749F08234910501F1309741F038
:1026A0006234710569F480C06D33710549F478C0F6
:1026B000859731F02D33310519F4309709F46EC048
:1026C000C9016EE070E00E94F813EC018A309105B8
:1026D0005CF4219780F4C8E0D0E00DC0653271054C
:1026E00009F467C08AE090E065E070E00E94F813AA
:1026F000EC01CC0FDD1FC90101972EE030E0B901DC
:102700000E94F8138B01000F111F69E070E00E9416
:10271000F813060F171FCF01B9010E94F8138A3072
:1027200091053CF49C012150310950F428E030E03F
:1027300007C065E070E00E94F8139C01220F331F70
:10274000CF0101976EE070E00E94F813FB01EE0FDD
:10275000FF1F69E070E00E94F8136E0F7F1F601B7F
:10276000710B2C1B3D0B6130710521F06F3F8FEF1A
:10277000780769F421303105A9F02F3F8FEF380732
:1027800089F06130710551F06F3F7F4F49F0213082
:10279000310569F02F3F3F4F29F40BC083E50AC094
:1027A0008EE408C080E306C0859709F083CF85E4F6
:1027B00001C087E5DF91CF911F910F9108950E948D
:1027C000C50280E090E00895AA1BBB1B51E107C041
:1027D000AA1FBB1FA617B70710F0A61BB70B881FB1
:1027E000991F5A95A9F780959095BC01CD01089540
:1027F00097FB072E16F4009407D077FD09D00E94AE
:10280000E41307FC05D03EF4909581959F4F089501
:10281000709561957F4F0895EE0FFF1F881F8BBF46
:102820000790F691E02D19945058BB27AA270E94D3
:102830002C140C947D150E946F1538F00E947615AB
:1028400020F039F49F3F19F426F40C946C150EF423
:10285000E095E7FB0C946615E92F0E948E1558F35E
:10286000BA17620773078407950720F079F4A6F575
:102870000C94B0150EF4E0950B2EBA2FA02D0B0181
:10288000B90190010C01CA01A0011124FF27591BB5
:1028900099F0593F50F4503E68F11A16F040A22FBB
:1028A000232F342F4427585FF3CF4695379527952C
:1028B000A795F0405395C9F77EF41F16BA0B620B2B
:1028C000730B840BBAF09150A1F0FF0FBB1F661F72
:1028D000771F881FC2F70EC0BA0F621F731F841FB5
:1028E00048F4879577956795B795F7959E3F08F0DB
:1028F000B0CF9395880F08F09927EE0F979587959D
:1029000008950E9495140C947D150E94761558F038
:102910000E946F1540F029F45F3F29F00C94661572
:1029200051110C94B1150C946C150E948E1568F31E
:102930009923B1F3552391F3951B550BBB27AA2778
:1029400062177307840738F09F5F5F4F220F331FB2
:10295000441FAA1FA9F335D00E2E3AF0E0E832D07A
:1029600091505040E695001CCAF72BD0FE2F29D07D
:10297000660F771F881FBB1F261737074807AB074F
:10298000B0E809F0BB0B802DBF01FF2793585F4FC4
:102990003AF09E3F510578F00C9466150C94B115F1
:1029A0005F3FE4F3983ED4F3869577956795B795A6
:1029B000F7959F5FC9F7880F911D9695879597F9B1
:1029C0000895E1E0660F771F881FBB1F621773072A
:1029D0008407BA0720F0621B730B840BBA0BEE1F3F
:1029E00088F7E09508950E94FA146894B1110C9448
:1029F000B11508950E94961588F09F5798F0B92F49
:102A00009927B751B0F0E1F0660F771F881F991F23
:102A10001AF0BA95C9F714C0B13091F00E94B01500
:102A2000B1E008950C94B015672F782F8827B85F10
:102A300039F0B93FCCF3869577956795B395D9F77B
:102A40003EF490958095709561957F4F8F4F9F4F85
:102A50000895E89409C097FB3EF490958095709591
:102A600061957F4F8F4F9F4F9923A9F0F92F96E9DA
:102A7000BB279395F695879577956795B795F1114F
:102A8000F8CFFAF4BB0F11F460FF1BC06F5F7F4FEC
:102A90008F4F9F4F16C0882311F096E911C07723FE
:102AA00021F09EE8872F762F05C0662371F096E807
:102AB000862F70E060E02AF09A95660F771F881FD6
:102AC000DAF7880F9695879597F9089597F99F6794
:102AD00080E870E060E008959FEF80EC08950024A6
:102AE0000A941616170618060906089500240A9473
:102AF00012161306140605060895092E0394000CF9
:102B000011F4882352F0BB0F40F4BF2B11F460FF87
:102B100004C06F5F7F4F8F4F9F4F089557FD9058B0
:102B2000440F551F59F05F3F71F04795880F97FB91
:102B3000991F61F09F3F79F087950895121613064B
:102B40001406551FF2CF4695F1DF08C0161617067A
:102B50001806991FF1CF86957105610508940895AF
:102B6000E894BB2766277727CB0197F908950E9441
:102B7000CA150C947D150E946F1538F00E947615C9
:102B800020F0952311F00C9466150C946C1511240B
:102B90000C94B1150E948E1570F3959FC1F3950F9B
:102BA00050E0551F629FF001729FBB27F00DB11DD1
:102BB000639FAA27F00DB11DAA1F649F6627B00D61
:102BC000A11D661F829F2227B00DA11D621F739F4A
:102BD000B00DA11D621F839FA00D611D221F749F58
:102BE0003327A00D611D231F849F600D211D822F9F
:102BF000762F6A2F11249F5750409AF0F1F08823C6
:102C00004AF0EE0FFF1FBB1F661F771F881F9150F2
:102C10005040A9F79E3F510580F00C9466150C9426
:102C2000B1155F3FE4F3983ED4F3869577956795A9
:102C3000B795F795E7959F5FC1F7FE2B880F911D1C
:102C40009695879597F90895FA01EE0FFF1F309634
:102C500021053105A1F16115710561F48038BFE3EB
:102C60009B0749F168949038810561F08038BFEF87
:102C70009B0741F099234AF5FF3FE1053105210506
:102C800019F1E8940894E795D901AA2329F4AB2F08
:102C9000BE2FF85FD0F310C0FF5F70F4A695E0F789
:102CA000F73950F019F0FF3A38F49F779F930DD021
:102CB0000F9007FC9058089546F00C946C1560E056
:102CC00070E080E89FE308954FE79F775F934F930D
:102CD0003F932F930E941F172F913F914F915F9128
:102CE0000E94B7150C947C1629F416F00C94661506
:102CF0000C94B0150C946C150E949615A8F3963898
:102D0000A0F707F80F92E8942BE33AEA48EB5FE765
:102D10000E94CD150F920F920F924DB75EB70F9292
:102D20000E946717E2EFF0E00E94AE164F915F91AC
:102D3000EF91FF91E595EE1FFF1F49F0FE57E06808
:102D40004427EE0F441FFA95E1F74195550B0E9479
:102D5000E1160F9007FE0C94D5160895DF93CF93DC
:102D60001F930F93FF92EF92DF927B018C01689487
:102D700006C0DA2EEF010E94CA15FE01E894A59163
:102D80002591359145915591A6F3EF010E942C14A0
:102D9000FE019701A801DA9469F7DF90EF90FF90A8
:102DA0000F911F91CF91DF9108959B01AC0160E0DD
:102DB00070E080E89FE30C9481140C9466150C94E9
:102DC0009B170E949615D8F39923C9F3940F511DB0
:102DD000A3F39150504094F059F0882332F0660FDD
:102DE000771F881F91505040C1F79E3F51052CF727
:102DF000880F911D9695879597F908955F3FACF0E0
:102E0000983E9CF0BB27869577956795B79508F413
:102E1000B1609395C1F7BB0F58F711F460FFE8CF8D
:102E20006F5F7F4F8F4F9F4FE3CF0C94B11516F01C
:102E30000C949B170C946C1568940C9466150E9466
:102E40009615A8F39923C1F3AEF3DF93CF931F93A5
:102E50000F93FF92C92FDD2788232AF02197660F51
:102E6000771F881FDAF720E030E040E85FEB9FE350
:102E7000883920F0803E38F021968F770E94151413
:102E8000EAE1F1E004C00E941514E7E4F1E00E94D9
:102E9000AE168B01BE01EC01FB2E6F5771097595C3
:102EA000771F880B990B0E942B1528E132E741E32D
:102EB0005FE30E94CA15AF2D9801AE01FF900F91FC
:102EC0001F91CF91DF910E942C140C947D15FA0173
:102ED000DC01AA0FBB1F9B01AC01BF5728F42227BE
:102EE00033274427507820C0B75190F4AB2F0024EB
:102EF000469537952795011CA395D2F3002071F0D4
:102F0000220F331F441FB395DAF30ED00C94141420
:102F100061307105A0E88A07B94630F49B01AC0125
:102F20006627772788279078309621F02083318391
:102F30004283538308959F3F31F0915020F4879549
:102F400077956795B795880F911D9695879597F911
:102F50000895FB01DC0101900D920020E1F7089536
:102F6000CF93DF93CDB7DEB7AE014A5F5F4FFA0173
:102F700061917191AF018091EC1A9091ED1A0E94CC
:102F8000F317DF91CF9108950F931F93CF93DF93A2
:102F9000CDB7DEB72E970FB6F894DEBF0FBECDBF0C
:102FA0000E891F8986E08C831A8309838FEF9FE740
:102FB0009E838D83AE01465E5F4F688D798DCE0115
:102FC00001960E94F317EF81F885E00FF11F108240
:102FD0002E960FB6F894DEBF0FBECDBFDF91CF9116
:102FE0001F910F9108952F923F924F925F926F928F
:102FF0007F928F929F92AF92BF92CF92DF92EF9289
:10300000FF920F931F93CF93DF93CDB7DEB72B972C
:103010000FB6F894DEBF0FBECDBF6C017B018A01F5
:10302000FC0117821682838181FFCCC1CE010196FB
:103030003C01F6019381F70193FD859193FF819106
:103040007F01882309F4BAC1853239F493FD859153
:1030500093FF81917F01853229F4B60190E00E94AF
:10306000131AE7CF912C212C312CFFE1F315D8F066
:103070008B3279F038F4803279F08332A1F4232D49
:1030800020611DC08D3261F0803369F4232D2160F1
:1030900016C0832D8260382EE32DE4603E2E2AC0B8
:1030A000F32DF8601DC037FC2DC020ED280F2A300D
:1030B00040F08E32B9F436FC81C1232D2064322ECB
:1030C00019C036FE06C08AE0989E200D1124922E6B
:1030D00011C0EAE02E9E200D1124222EF32DF06265
:1030E0003F2E08C08C3621F4832D8068382E02C014
:1030F000883641F4F70193FD859193FF81917F011B
:103100008111B3CF982F9F7D9554933028F40C5F95
:103110001F4F9FE399830DC0833631F0833771F0E1
:10312000833509F059C021C0F801808189830E5F81
:103130001F4F88248394912C530113C02801F2E07F
:103140004F0E511CF801A080B18036FE03C0692DDE
:1031500070E002C06FEF7FEFC5010E94081A4C01BA
:103160008201F32DFF773F2E16C0280122E0420E88
:10317000511CF801A080B18036FE03C0692D70E0BB
:1031800002C06FEF7FEFC5010E94FD194C01F32DC6
:10319000F0683F2E820133FC1BC0822D90E0881620
:1031A0009906B0F4B60180E290E00E94131A2A94C6
:1031B000F4CFF50137FC859137FE81915F01B601AF
:1031C00090E00E94131A21102A9421E0821A91089B
:1031D0008114910471F7E8C0843611F0893641F505
:1031E000F80137FE07C060817181828193810C5F95
:1031F0001F4F08C060817181072E000C880B990B4E
:103200000E5F1F4FF32DFF763F2E97FF09C090955D
:103210008095709561957F4F8F4F9F4FF0683F2E3F
:103220002AE030E0A3010E944F1A882E861845C07C
:10323000853731F4232D2F7EB22E2AE030E025C0D1
:10324000932D997FB92E8F36C1F018F4883579F017
:10325000B5C0803719F0883721F0B0C0E92FE061A0
:10326000BE2EB4FE0DC0FB2DF460BF2E09C034FE8F
:103270000AC0292F2660B22E06C028E030E005C023
:1032800020E130E002C020E132E0F801B7FE07C0E3
:1032900060817181828193810C5F1F4F06C06081C4
:1032A000718180E090E00E5F1F4FA3010E944F1AD2
:1032B000882E8618FB2DFF773F2E36FE0DC0232D5E
:1032C0002E7FA22E891458F434FE0BC032FC09C0A4
:1032D000832D8E7EA82E05C0B82CA32C03C0B82C3D
:1032E00001C0B92CA4FE0FC0FE01E80DF11D8081C4
:1032F000803321F49A2D997EA92E09C0A2FE06C022
:10330000B394B39404C08A2D867809F0B394A3FCD7
:1033100011C0A0FE06C0B21488F4280C922C9B1891
:103320000EC0B21460F4B60180E290E00E94131A5D
:10333000B394F7CFB21418F42B1802C0982C212C98
:10334000A4FE10C0B60180E390E00E94131AA2FE12
:1033500017C0A1FC03C088E790E002C088E590E0B8
:10336000B6010CC08A2D867859F0A1FE02C08BE20E
:1033700001C080E2A7FC8DE2B60190E00E94131A22
:10338000891438F4B60180E390E00E94131A9A94ED
:10339000F7CF8A94F301E80DF11D8081B60190E02A
:1033A0000E94131A8110F5CF222009F442CEB601F3
:1033B00080E290E00E94131A2A94F6CFF6018681EB
:1033C000978102C08FEF9FEF2B960FB6F894DEBF68
:1033D0000FBECDBFDF91CF911F910F91FF90EF9066
:1033E000DF90CF90BF90AF909F908F907F906F9025
:1033F0005F904F903F902F900895FC010590615091
:1034000070400110D8F7809590958E0F9F1F0895FA
:10341000FC016150704001900110D8F780959095A3
:103420008E0F9F1F08950F931F93CF93DF93FB0180
:10343000238121FD03C08FEF9FEF2CC022FF16C018
:1034400046815781248135814217530744F4A08176
:10345000B1819D012F5F3F4F318320838C93268163
:1034600037812F5F3F4F3783268314C08B01EC01D8
:10347000FB010084F185E02D1995892BE1F6D80137
:1034800016968D919C911797019617969C938E9303
:103490001697CE01DF91CF911F910F910895FA01F8
:1034A000AA27283051F1203181F1E8946F936E7F83
:1034B0006E5F7F4F8F4F9F4FAF4FB1E03ED0B4E074
:1034C0003CD0670F781F891F9A1FA11D680F791FB5
:1034D0008A1F911DA11D6A0F711D811D911DA11DC6
:1034E00020D009F468943F912AE0269F11243019D6
:1034F000305D3193DEF6CF010895462F4770405D71
:103500004193B3E00FD0C9F7F6CF462F4F70405D1F
:103510004A3318F0495D31FD4052419302D0A9F77A
:10352000EACFB4E0A6959795879577956795BA9574
:10353000C9F700976105710508959B01AC010A2E3A
:1035400006945795479537952795BA95C9F7620F11
:0E355000731F841F951FA01D0895F894FFCFD0
:10355E00420048656C6C6F2C204920616D20612003
:10356E0046697265626972642D2D2D2D2D2D2D2DBE
:10357E0020560A0048656C6C6F20576F726C642081
:10358E004920616D2061204669726562697264200E
:10359E00560048656C6C6F2C204920616D206120AF
:1035AE0046697265626972642D2D2D2D2D2D2D2D7E
:1035BE0020560A000100010001004E04000500041F
:1035CE00000000FF0FFF0FFF0F48656C6C6F2C2083
:1035DE004920616D20612046697265626972642DB1
:1035EE002D2D2D2D2D2D2D20560A000C0030303076
:1035FE003030303030303030303030303030300DE0
:10360E0000090005000100020006000A000E000F6E
:10361E00000B0007000300040008000C001000114E
:10362E00004553574E0A0002000B0010000A00021C
:10363E00000B0010000B0004000C0012000C000622
:10364E00000D0014000D0008000E001600180010EA
:10365E000019001E00190012001A0020001A001492
:10366E00001B0022001B0016001C00240026001E5A
:10367E000027002C002700200028002E0028002202
:10368E000029003000290024002A00320034002CCA
:10369E000035003A0035002E0036003C0036003072
:1036AE000037003E00370032003800400042004232
:1036BE000042004200000000000000000000000078
:1036CE0000000000000000000000000000000000EC
:1036DE0000000000000000000000000000000000DC
:1036EE0000000000000000000000000000000000CC
:1036FE0000000100000000000000010000000000BA
:10370E0000000100000000000000000000000000AA
:10371E00000000000000000000000000000000009B
:10372E00000000000000000000000000000000008B
:10373E000000000000000000000000000100010079
:10374E00000000000000000000000000000000006B
:10375E00000000000000000000000000000000005B
:10376E00000000000000000000000000000000004B
:10377E00000000000000000000000000000000003B
:10378E000100010000000000000100000000000028
:10379E00000000000000000000000000000000001B
:1037AE00000000000000000000000000000000000B
:1037BE0000000000000000000000000000000000FB
:1037CE0000000000010001000000000000000000E9
:1037DE0000000000000000000000000000000000DB
:1037EE0000000000000000000000000000000000CB
:1037FE0000000000000000000000000000000000BB
:10380E0000000000000000000100010000000000A8
:10381E000100000000000000000000000000000099
:10382E00000000000000000000000000000000008A
:10383E00000000000000000000000000000000007A
:10384E000000000000000000000000000100010068
:10385E00000000000000000000000000000000005A
:10386E00000000000000000000000000000000004A
:10387E00000000000000000000000000000000003A
:10388E00000000000000000000000000000000002A
:10389E000100010000000001000000000000000017
:1038AE00000000000000000000000000000000000A
:1038BE0000000000000000000000000000000000FA
:1038CE0000000000000000000000000000000000EA
:1038DE0000000000010001000000000000000000D8
:1038EE0000000000000000000000000000000000CA
:1038FE0000000000000000000000000000000000BA
:10390E0000000000000000000000000000000000A9
:10391E000000000000000000010000000000010097
:10392E000000000000000000000000000000000089
:10393E000000000000000000000000000000000079
:10394E000000000000000000000000000000000069
:10395E000000000001000000000000000000000058
:10396E000000010000000000000000000000000048
:10397E000000000000000000000000000000000039
:10398E000000000000000000000000000000000029
:10399E000000000000000000000100000000000018
:1039AE000000000000000001000000000000000008
:1039BE0000000000000000000000000000000000F9
:1039CE0000000000000000000000000000000000E9
:1039DE0000000000000000000000000000000100D8
:1039EE0000000000000000000000000001000000C8
:1039FE0000000000000000000000000000000000B9
:103A0E0000000000000000000000000000000000A8
:103A1E000000000000000000000000000000000098
:103A2E000000000100000000000000000000000087
:103A3E000001000000000000000000000000000077
:103A4E000000000000000000000000000000000068
:103A5E000000000000000000000000000000000058
:103A6E000000000000000000010000000000000047
:103A7E000000000000000100000000000000000037
:103A8E000000000000000000000000000000000028
:103A9E000000000000000000000000000000000018
:103AAE000000000000000000000000000100000007
:103ABE0000000100000000000000010000000000F6
:103ACE0000000000000000000000000000000000E8
:103ADE0000000000000000000000000000000000D8
:103AEE0000000000000000000000000000000000C8
:103AFE0000000000010001000000000000000000B6
:103B0E0000000000000000000000000000000000A7
:103B1E000000000000000000000000000000000097
:103B2E000000000000000000000000000000000087
:103B3E000000000100000000010001000000000074
:103B4E000001000000000000000000000000000066
:103B5E000000000000000000000000000000000057
:103B6E000000000000000000000000000000000047
:103B7E000000000000000000000000000100010035
:103B8E000000000000000000000000000000000027
:103B9E000000000000000000000000000000000017
:103BAE000000000000000000000000000000000007
:103BBE0000000000000000000000010000000000F6
:103BCE0001000100000000000100000000000000E4
:103BDE0000000000000000000000000000000000D7
:103BEE0000000000000000000000000000000000C7
:103BFE0000000000000000000000000000000000B7
:103C0E0000000000010001000000000000000000A4
:103C1E000000000000000000000000000000000096
:103C2E000000000000000000000000000000000086
:103C3E000000000000000000000000000000000076
:103C4E000001000000000000010001000000000162
:103C5E000000000000000000000000000000000056
:103C6E000000000000000000000000000000000046
:103C7E000000000000000000000000000000000036
:103C8E000000000000000000000000000100010024
:103C9E000000000000000000000000000000000016
:103CAE000000000000000000000000000000000006
:103CBE0000000000000000000000000000000000F6
:103CCE0000000000000000000100000000000000E5
:103CDE0001000000000001000000000000000000D4
:103CEE0000000000000000000000000000000000C6
:103CFE0000000000000000000000000000000000B6
:103D0E0000000000000000000000000001000000A4
:103D1E000000000000000000000001000000000094
:103D2E000000000000000000000000000000000085
:103D3E000000000000000000000000000000000075
:103D4E000000000000000000000000000000000065
:103D5E000001000000000000000000000000000153
:103D6E000000000000000000000000000000000045
:103D7E000000000000000000000000000000000035
:103D8E000000000000000000000000000000000025
:103D9E000000000000000100000000000000000014
:103DAE000000000001000000000000000000000004
:103DBE0000000000000000000000000000000000F5
:103DCE0000000000000000000000000000000000E5
:103DDE0000000000000000000000000100000000D4
:103DEE0000000000000000000001000000000000C4
:103DFE0000000000000000000000000000000000B5
:103E0E0000000000000000000000000000000000A4
:103E1E000000000000000000000000000000000094
:103E2E000100000000000000000000000000010082
:103E3E000000000000000000000000000000000074
:103E4E000000000000000000000000000000000064
:103E5E000000000000000000000000000000000054
:103E6E000000000001000000000001000000000042
:103E7E000000010000000000000000000000000033
:103E8E000000000000000000000000000000000024
:103E9E000000000000000000000000000000000014
:103EAE000000000000000000000000000100010002
:103EBE0000000000000000000000000000000000F4
:103ECE0000000000000000000000000000000000E4
:103EDE0000000000000000000000000000000000D4
:103EEE0000000000000000000000000100000000C3
:103EFE0001000100000000000001000000000000B1
:103F0E0000000000000000000000000000000000A3
:103F1E000000000000000000000000000000000093
:103F2E000000000000000000000000000000000083
:103F3E000000000001000100000000000000000071
:103F4E000000000000000000000000000000000063
:103F5E000000000000000000000000000000000053
:103F6E000000000000000000000000000000000043
:103F7E000000010000000000010001000000000030
:103F8E000100000000000000000000000000000022
:103F9E000000000000000000000000000000000013
:103FAE000000000000000000000000000000000003
:103FBE0000000000000000000000000001000100F1
:103FCE0000000000000000000000000000000000E3
:103FDE0000000000000000000000000000000000D3
:103FEE0000000000000000000000000000000000C3
:103FFE0000000000000000000001000000000000B2
:10400E00010001000000000100000000000000009F
:10401E000000000000000000000000000000000092
:10402E000000000000000000000000000000000082
:10403E000000000000000000000000000000000072
:10404E000000000001000100000000000000000060
:10405E000000000000000000000000000000000052
:10406E000000000000000000000000000000000042
:10407E000000000000000000000000000000000032
:10408E00010000000000000001000000000001001F
:10409E000000000000000000000000000000000012
:1040AE000000000000000100000000000000000001
:1040BE0000000000000000000000000000000000F2
:1040CE0000000000010000000000000000000000E1
:1040DE0000000100000000000000000000000000D1
:1040EE0000000000000000000000000000000000C2
:1040FE0000000000000000000000000000000000B2
:10410E0000000000000000000001000000000000A0
:10411E000000000000000001000000000000000090
:10412E000000000000000000000000000000000081
:10413E000000000000000000000000000000000071
:10414E000000000000000000000000000000010060
:10415E000000000000000000000000000100000050
:10416E000000000000000000000000000000000041
:10417E000000000000000000000000000000000031
:10418E000000000000000000000000000000000021
:10419E000000000100000000000000000000000010
:1041AE000001000000000000000000000000000000
:1041BE0000000000000000000000000000000000F1
:1041CE0000000000000000000000000000000000E1
:1041DE0000000000000000000100000000000000D0
:1041EE0000000000000001000000000000000000C0
:1041FE0000000000000000000000000000000000B1
:10420E0000000000000000000000000000000000A0
:10421E00000000000000000000000000010000008F
:10422E00000001000000000000000100000000007E
:10423E000000000000000000000000000000000070
:10424E000000000000000000000000000000000060
:10425E000000000000000000000000000000000050
:10426E00000000000100010000000000000000003E
:10427E000000000000000000000000000000000030
:10428E000000000000000000000000000000000020
:10429E000000000000000000000000000000000010
:1042AE0000000001000000000100010000000000FD
:1042BE0000010000000000000000000000000000EF
:1042CE0000000000000000000000000000000000E0
:1042DE0000000000000000000000000000000000D0
:1042EE0000000000000000000000000001000100BE
:1042FE0000000000000000000000000000000000B0
:10430E00000000000000000000000000000000009F
:10431E00000000000000000000000000000000008F
:10432E00000000000000000000000100000000007E
:10433E00010001000000000001000000000000006C
:10434E00000000000000000000000000000000005F
:10435E00000000000000000000000000000000004F
:10436E00000000000000000000000000000000003F
:10437E00000000000100010000000000000000002D
:10438E00000000000000000000000000000000001F
:10439E00000000000000000000000000000000000F
:1043AE0000000000000000000000000000000000FF
:1043BE0000010000000000000100010000000001EB
:1043CE0000000000000000000000000000000000DF
:1043DE0000000000000000000000000000000000CF
:1043EE0000000000000000000000000000000000BF
:1043FE0000000000000000000000000001000100AD
:10440E00000000000000000000000000000000009E
:10441E00000000000000000000000000000000008E
:10442E00000000000000000000000000000000007E
:10443E00000000000000000001000000000000006D
:10444E00010000000000010000000000000000005C
:10445E00000000000000000000000000000000004E
:10446E00000000000000000000000000000000003E
:10447E00000000000000000000000000010000002D
:10448E00000000000000000000000100000000001D
:10449E00000000000000000000000000000000000E
:1044AE0000000000000000000000000000000000FE
:1044BE0000000000000000000000000000000000EE
:1044CE0000010000000000000000000000000001DC
:1044DE0000000000000000000000000000000000CE
:1044EE0000000000000000000000000000000000BE
:1044FE0000000000000000000000000000000000AE
:10450E00000000000000010000000000000000009C
:10451E00000000000100000000000000000000008C
:10452E00000000000000000000000000000000007D
:10453E00000000000000000000000000000000006D
:10454E00000000000000000000000001000000005C
:10455E00000000000000000000010000000000004C
:10456E00000000000000000000000000000000003D
:10457E00000000000000000000000000000000002D
:10458E00000000000000000000000000000000001D
:10459E00010000000000000000000000000001000B
:1045AE0000000000000000000000000000000000FD
:1045BE0000000000000000000000000000000000ED
:1045CE0000000000000000000000000000000000DD
:1045DE0000000000010000000000010000000000CB
:1045EE0000000000000000000000000000000000BD
:1045FE0000000000000000000000000000000000AD
:10460E00000000000000000000000000000000009C
:10461E00000000000000000000000000010001008A
:10462E00000000000000000000000000000000007C
:10463E00000000000000000000000000000000006C
:10464E00000000000000000000000000000000005C
:10465E00000000000000000000000001000000004B
:10466E00010001000000000000000000000000003A
:10467E00000000000000000000000000000000002C
:10468E00000000000000000000000000000000001C
:10469E00000000000000000000000000000000000C
:1046AE0000000000010001000000000001000000F9
:1046BE0000000000000000000000000000000000EC
:1046CE0000000000000000000000000000000000DC
:1046DE0000000000000000000000000000000000CC
:1046EE0000000100000000000100010000000000B9
:1046FE0000000000000000000000000000000000AC
:10470E00000000000000000000000000000000009B
:10471E00000000000000000000000000000000008B
:10472E000000000000000000000000000100010079
:10473E00000000000000000000000000000000006B
:10474E00000000000000000000000000000000005B
:10475E00000000000000000000000000000000004B
:10476E00000000000000000000010000000000003A
:10477E000100010000000000000000000000000029
:10478E00000000000000000000000000000000001B
:10479E00000000000000000000000000000000000B
:1047AE0000000000000000000000000000000000FB
:1047BE0000000000010001000000000000000000E9
:1047CE0000000000000000000000000000000000DB
:1047DE0000000000000000000000000000000000CB
:1047EE0000000000000000000000000000000000BB
:1047FE0001000000000000000100000000000000A9
:10480E00000000000000000000000000000000009A
:10481E00000000000000000000000000000000008A
:10482E000100000000000000000000000000000079
:10483E0000000000000000000000000000003173C6
:10484E0074204E6F64650A5E004D6964204E6F647D
:10485E00650A5E00393020446567726565204C65D7
:10486E006674207475726E0A5E0043656E746572AE
:10487E00206F6620626C6F636B2072656163686582
:10488E00640A5E004261636B206F6E206C696E6518
:10489E000A5E004C656674205475726E0A5E005393
:1048AE0074617274204C6F636174696F6E0A5E007E
:1048BE0046696E69736865640A5E004265666F726A
:1048CE00652064696B737472612C20446573742067
:1048DE006E6F64653A25640A5E0044657320506C01
:1048EE006F74204E753A25640A5E00506C6F74200A
:1048FE005363616E20436F6D706C6574650A5E0064
:10490E004D6F76696E6720746F206E6F64653A2501
:10491E00640A5E0052656163686564206E6F64654B
:10492E003A25640A5E00506C6F74206E7520256403
:10493E0020726561636865640A5E00526F7461740B
:10494E00696F6E2066696E69736865640A5E0050F1
:10495E006C6F74206E6F3A2025642077697468201E
:10496E004D616A6F7220496E6A7572790A5E0050E7
:10497E006C6F74206E6F3A202564207769746820FE
:10498E004D696E6F7220496E6A7572790A5E0050BB
:10499E006C6F74206E6F3A202564207769746820DE
:1049AE004E6F20496E6A7572790A5E00506C6F7494
:1049BE00207363616E20636F6D706C5E0046696E6E
:1049CE00616C20476F616C203636207265616368BA
:1049DE0065645E0043616C20446F6E650A5E004341
:1049EE006F6D6D616E64205570646174650A5E0052
:1049FE005461736B324220636F6D706C6574650A1F
:104A0E005E005265642050756C7365730047726565
:104A1E00656E2050756C73657300426C7565205021
:104A2E00756C7365730053002D25640A0046004DA6
:104A3E002D006D2D00436D642052780A0049735F7E
:104A4E00436D643A747275650A00616363657074D0
:104A5E0065640069676E6F7265004572726F7220D1
:104A6E00696E207461736B20636F6D706C65746911
:104A7E006F6E006D696E6F722D2564006D616A6FC9
:104A8E00722D2564006E6F2D2564005363616E2DAB
:104A9E004572726F72004572726F72206465636F39
:104AAE0064696E67207461736B0066657463682D4C
:0A4ABE0025642D2564002564200006
:00000001FF
