:100000000C94C8000C94B1040C94E9000C94E90021
:100010000C94E9000C9419070C94F4060C94E90074
:100020000C94E9000C94E9000C94E9000C94E900AC
:100030000C94E9000C94E9000C94E9000C940A0D6E
:100040000C94E9000C94E9000C94E9000C94E9008C
:100050000C94E9000C94E9000C94E9000C94E9007C
:100060000C94E9000C94C0080C94F9080C94E90075
:100070000C94E9000C94E9000C94E9000C94E9005C
:100080000C94E9000C94E9000C94E9000C94E9004C
:100090000C94E9000C94E9000C94E9000C94E9003C
:1000A0000C94E9000C94E9000C94E9000C94E9002C
:1000B0000C94E9000C94E9000C94E9000C94E9001C
:1000C0000C94E9000C94E9000C94E9000C94E9000C
:1000D0000C94E9000C94E9000C94CA090C94030AEE
:1000E0000C94E900280F2D0F3B0F4D0F520F600F9E
:1000F000720F07634236B79BD8A71A39685618AEF5
:10010000BAAB558C1D3CB7CC5763BD6DEDFD753E4C
:10011000F6177231BF000000803F08000000BE9259
:100120002449123EABAAAA2ABECDCCCC4C3E00003C
:100130000080BEABAAAAAA3E00000000BF000000DB
:10014000803F0000000000084178D3BB4387D113F3
:100150003D190E3CC3BD4282AD2B3E68EC8276BE9B
:10016000D98FE1A93E4C80EFFFBE01C4FF7F3F0065
:10017000000000000C943B0F0C944D0F0C942D0FBD
:100180000C94520F0C94600F0C94720F0C94280F67
:1001900011241FBECFEFD1E2DEBFCDBF00E00CBF08
:1001A00017E1A0E0B2E0ECEFF0E300E00BBF02C02B
:1001B00007900D92A835B107D9F72AE1A8E5B7E174
:1001C00001C01D92AB32B207E1F70E94AE110C9450
:1001D0007C180C9400000E9418040E941F040E94C6
:1001E000B6010E942B020E94D9040E94EA040E94D8
:1001F000A1060E94A8060E94B3060E94BA060E94A9
:10020000C8060E947C0C0C94B808CF9381E00E9431
:10021000930F68E176E180E092E00E94781580E03B
:1002200092E00E94BE0881E00E94930F62E276E1B4
:1002300080E092E00E94781580E092E00E94BE0883
:100240006FEA8FEA0E9492088AE590E00E944E08C9
:100250006CE276E180E092E00E94781580E092E026
:100260000E94BE0868EC88EC0E94920884EB90E043
:100270000E943A0861E476E180E092E00E947815FD
:1002800080E092E00E94BE080E945206C82F0E94A1
:10029000B6080E945A028C2F0E948702C23519F4B8
:1002A0000E945C0C07C0C73419F40E94640C02C0A1
:1002B0000E946C0C84EB90E00E9444086AE576E1B1
:1002C00080E092E00E94781580E092E00E94BE08F3
:1002D0000E94BF0F68E676E180E092E00E94781508
:1002E00080E092E00E94BE0881E00E94930F68E1E6
:1002F00076E180E092E00E94781580E092E00E9432
:10030000BE0881E00E94930F63E776E180E092E00F
:100310000E94781580E092E00E94BE0863E876E1D2
:1003200080E092E00E94781580E092E0CF910C94FA
:10033000C3020E94EB000E94130E6DE876E180E09C
:1003400092E00E94781580E092E00E94BE080E9430
:10035000FC0A0E94FC0A0E941A0C8823D1F30E9416
:10036000410C0E9405010E94820CF3CF87B1876087
:1003700087B987B1806F87B988B1887F88B988B11C
:100380008F7088B9089586E69EE00197F1F7000026
:100390004098419880E388B9429AEFEFF7E43197AB
:1003A000F1F700C000004298E6E6FEE03197F1F771
:1003B00000004098419888B9429AEFEFF7E43197EE
:1003C000F1F700C000004298E6E6FEE03197F1F751
:1003D00000004098419888B9429A8FEF97E40197BE
:1003E000F1F700C000004298E6E6FEE03197F1F731
:1003F00000004098419880E288B9429A8FEF97E4D4
:100400000197F1F700C000004298089598B19F70DD
:1004100098B998B1282F207F922B98B9409841988D
:10042000429AEFEFF7E43197F1F700C000004298ED
:1004300098B19F7098B998B18295807F892B88B9BF
:1004400040984198429A8FEF97E40197F1F700C0E6
:100450000000429808950E94C30186E69EE001973D
:10046000F1F7000088E20E94060281E00E94060285
:1004700086E00E9406028EE00E94060280E80C944C
:10048000060280E80C940602982F862F923059F0CD
:100490001CF4913031F00895933039F0943039F0F4
:1004A0000895815805C0815403C08D5601C08D52F6
:1004B0000C94060281E00C940602CF93C42F0E9494
:1004C000440288B18F7088B988B19C2F907F892BA6
:1004D00088B9409A4198429A8FEF97E40197F1F7D3
:1004E00000C000004298C295C07F88B18F7088B963
:1004F00088B1C82BC8B9409A4198429A8FEF97E4C7
:100500000197F1F700C000004298CF91089598B18B
:100510009F7098B998B1282F207F922B98B9409A54
:100520004198429AEFEFF7E43197F1F700C00000ED
:1005300042988295807F98B19F7098B998B1892B25
:1005400088B9409A4198429A8FEF97E40197F1F762
:1005500000C00000429808950F931F93CF93DF933C
:10056000D82FC62F8A01F80141918F01442331F021
:100570006C2F8D2F0E945D02CF5FF5CFDF91CF9161
:100580001F910F910895CF93DF93EC0189918823F8
:1005900019F00E948702FACFDF91CF910895EF9270
:1005A000FF920F931F93CF93DF93D82FC62F8A010B
:1005B00079010E94440217FF09C0119501951109A4
:1005C0004DE26C2F8D2F0E945D02CF5FDD2311F075
:1005D000C11103C00E94410204C06C2F8D2F0E94E4
:1005E000440285E0E816F10409F07FC0C80160E12B
:1005F00077E20E94C711AB01405D5F4F50935917DE
:10060000409358176C2F8D2F0E945D02CF5FC80159
:1006100068EE73E00E94C711CB017093631760937B
:1006200062176AE070E00E94B311AC01405D5F4F59
:1006300050935B1740935A176C2F8D2F0E945D02C9
:10064000CF5FC80164E670E00E94C711CB017093D0
:100650006317609362176AE070E00E94B311AC0107
:10066000405D5F4F50935D1740935C176C2F8D2F4B
:100670000E945D02CF5F2AE030E0C801B9010E940C
:10068000C711CB017093631760936217B9010E9481
:10069000B311AC01405D5F4F50935F1740935E17FD
:1006A0006C2F8D2F0E945D02CF5FC8016AE070E061
:1006B0000E94C711AC01405D5F4F5093611740939A
:1006C00060176C2F8D2F0E945D02CF5F86E0E816C9
:1006D000F104FCF045E46C2F8D2FDF91CF911F9139
:1006E0000F91FF90EF900C945D0284E0E816F10406
:1006F00009F48DCF83E0E816F10409F4A2CF82E07B
:10070000E816F10409F4B7CF81E0E816F104F1F638
:10071000CCCFDF91CF911F910F91FF90EF90089573
:100720000F931F93CF93DF938A01E901882311F080
:10073000611103C00E94410202C00E944402C53000
:10074000D10509F061C0C80160E177E20E94B311F0
:10075000CB01C09690935917809358170E94870237
:10076000C80168EE73E00E94B311CB017093631768
:10077000609362176AE070E00E94B311C096909394
:100780005B1780935A170E948702C80164E670E0E5
:100790000E94B311CB0170936317609362176AE0F4
:1007A00070E00E94B311C09690935D1780935C1720
:1007B0000E9487022AE030E0C801B9010E94B3110B
:1007C000CB017093631760936217B9010E94B31154
:1007D000C09690935F1780935E170E948702C801AE
:1007E0006AE070E00E94B311C09690936117809305
:1007F00060170E9487022697B4F085E4DF91CF91BD
:100800001F910F910C948702C430D10509F4A8CF31
:10081000C330D10509F4B9CFC230D10559F2C13086
:10082000D10549F7DCCFDF91CF911F910F9108954A
:1008300010BA11BA10920701109208010895EAE760
:10084000F0E0808186688083808186788083EBE712
:10085000F0E08081807B8083ECE7F0E0808180762F
:10086000808380818064808380818062808380B780
:10087000806880BF0895883028F090917B00986050
:1008800090937B0090917C008770892B80937C00F3
:1008900080917A00806480937A0080917A0084FF4E
:1008A000FCCF8091790090917A00906190937A00CA
:1008B00090917B00977F90937B0090917C00907E3D
:1008C00090937C000895682F70E080E090E00E9493
:1008D000F8122FEE39EC43E95FE30E94F3139B011A
:1008E000AC0160E070E080E89FE30E9450122AE9CA
:1008F00039EF4EE255E40E94861320E030E040E2FA
:1009000051E40E9486130E94C212CB0161327340EF
:1009100010F080E293E00895CF93DF93C82FD62F95
:10092000842F0E943B0480937117482F50E023E0EE
:1009300030E06D2F8C2FDF91CF910C94CF028AB1D4
:100940008E6F8AB9589A08950E94B6010C949F043C
:10095000F894E9E6F0E0808182608083E89A7894F8
:1009600008951F920F920FB60F9211248F939F93A9
:10097000AF93BF9380917E1790917F17A0918017BE
:10098000B09181170196A11DB11D80937E179093A0
:100990007F17A0938017B0938117BF91AF919F915C
:1009A0008F910F900FBE0F901F9018955C9A5D9AD3
:1009B0000895F8940E949F040E94A80478940C94CF
:1009C000D6045E985F9808955E9A5F9A08955E983F
:1009D0005F9A08955E9A5F9808950E94E1041092CC
:1009E0007E1710927F1710928017109281172FEFA9
:1009F0008FE794E0215080409040E1F700C0000074
:100A000080917E1790917F17A0918017B0918117E8
:100A100080937A1790937B17A0937C17B0937D17E0
:100A200061E081E00E94440267E976E182E292E0BF
:100A30000E94781582E292E00E94C30240917A17E8
:100A400050917B1760917C1770917D1725E030E005
:100A500061E082E00E9490032FEF8FEF9CE2215033
:100A600080409040E1F700C0000081E00C94060255
:100A70000E94E40410927E1710927F171092801744
:100A8000109281172FEF8FE794E021508040904023
:100A9000E1F700C0000080917E1790917F17A09130
:100AA0008017B09181178093721790937317A0935A
:100AB0007417B093751761E081E00E94440262EA06
:100AC00076E182E292E00E94781582E292E00E9452
:100AD000C30240917217509173176091741770910F
:100AE000751725E030E061E082E00E9490032FEF6F
:100AF0008FEF9CE2215080409040E1F700C0000061
:100B000081E00C9406020E94E70410927E17109276
:100B10007F1710928017109281172FEF8FE794E0C4
:100B2000215080409040E1F700C0000080917E1786
:100B300090917F17A0918017B091811780937617BD
:100B400090937717A0937817B093791761E081E0BD
:100B50000E9444026FEA76E182E292E00E947815F8
:100B600082E292E00E94C30240917617509177177B
:100B7000609178177091791725E030E061E082E0AC
:100B80000E9490032FEF8FEF9CE221508040904015
:100B9000E1F700C0000081E00C9406020E94E1042D
:100BA00010927E1710927F17109280171092811763
:100BB0002FEF8FE794E0215080409040E1F700C094
:100BC000000080917E1790917F17A0918017B091BF
:100BD000811780937A1790937B17A0937C17B0931B
:100BE0007D1760917A1770917B1780917C17909197
:100BF0007D1708950E94E40410927E1710927F17CB
:100C000010928017109281172FEF8FE794E02150F8
:100C100080409040E1F700C0000080917E179091E5
:100C20007F17A0918017B0918117809372179093CE
:100C30007317A0937417B093751760917217709122
:100C40007317809174179091751708950E94E704A7
:100C500010927E1710927F171092801710928117B2
:100C60002FEF8FE794E0215080409040E1F700C0E3
:100C7000000080917E1790917F17A0918017B0910E
:100C800081178093761790937717A0937817B09376
:100C900079176091761770917717809178179091F6
:100CA000791708958F929F92AF92BF92CF92DF9261
:100CB000EF92FF920E94CE056B017C010E942606F6
:100CC0004B015C010E94FA0527E0C21626E1D2061C
:100CD000E104F10430F0623022E1720781059105F0
:100CE00000F58C149D04AE04BF0428F46C157D053A
:100CF0008E059F05C0F0C814D904EA04FB0428F44B
:100D0000681579058A059B0580F086169706A80662
:100D1000B90668F4C616D706E806F90640F487E473
:100D200007C087E505C082E503C082E401C080E317
:100D3000FF90EF90DF90CF90BF90AF909F908F90FB
:100D4000089581B18F6081B982B1807F82B90895A1
:100D5000EAE0F1E0808188618083EBE0F1E080816E
:100D60008861808308958DB18F7C8DB98EB1806349
:100D70008EB90895F8948DB380638DBBEAE6F0E0F8
:100D800080818A60808380818A7F808378940895BF
:100D9000E1E2F1E010828FEF8093250191E09093E2
:100DA0002401109229018093280110922B01809335
:100DB0002A01A0E2B1E08C91806A8C938C918F7AA9
:100DC0008C938C9181608C938C918D7F8C9380819E
:100DD0008860808380818F7E808380818360808330
:100DE00080818B7F808308951F920F920FB60F92A0
:100DF00011248F939F93AF93BF9380918417909109
:100E00008517A0918617B09187170196A11DB11D76
:100E10008093841790938517A0938617B0938717B4
:100E2000BF91AF919F918F910F900FBE0F901F9028
:100E300018951F920F920FB60F9211248F939F93C4
:100E4000AF93BF938091881790918917A0918A17CB
:100E5000B0918B170196A11DB11D809388179093B7
:100E60008917A0938A17B0938B17BF91AF919F9169
:100E70008F910F900FBE0F901F90189582B1867FB3
:100E800082B982B1866082B9089582B1897F82B9C0
:100E900082B1896082B9089582B1857F82B982B1B9
:100EA000856082B9089582B18A7F82B982B18A60F1
:100EB00082B9089582B1887F82B9129A089582B169
:100EC000827F82B9119A089582B1817F82B9109A86
:100ED000089582B1887F82B9139A089582B1807F84
:100EE00082B908950F931F93813099F4109284175B
:100EF00010928517109286171092871710928817F4
:100F00001092891710928A1710928B1780E090E048
:100F100029C0409184175091851760918617709170
:100F200087178091881790918917A0918A17B0919F
:100F30008B178A019B01080F191F2A1F3B1FC9012C
:100F4000B8010E94F81228E431EE42E850E40E9411
:100F5000861320E030E040E05FE30E9486130E94A9
:100F6000C212CB011F910F910895BC0180E090E067
:100F70000E94F81228E431EE42E850E40E94501238
:100F80000E94C912CB01A0E0B0E010928417109229
:100F90008517109286171092871710928817109253
:100FA000891710928A1710928B17409184175091CD
:100FB00085176091861770918717481759076A0738
:100FC0007B0798F4409188175091891760918A1790
:100FD00070918B17481759076A077B0730F4E6E6CC
:100FE000FEE03197F1F70000E0CF0C946E070F930D
:100FF0001F93BC0180E090E00E94F81225EE30EDD6
:101000004AEA50E40E9450120E94C91210928417BA
:1010100010928517109286171092871710928817D2
:101020001092891710928A1710928B1700918417CB
:10103000109185172091861730918717061717078B
:101040002807390798F40091881710918917209183
:101050008A1730918B17061717072807390730F4BE
:10106000E6E6FEE03197F1F70000E0CF1F910F9127
:101070000C946E07CF93DF93EC010E943E07CE01E4
:10108000DF91CF910C94F707CF93DF93EC010E948F
:101090004507CE01DF91CF910C94F707CF93DF93F3
:1010A000EC010E944C07CE01DF91CF910C94B50763
:1010B000CF93DF93EC010E945307CE01DF91CF91D4
:1010C0000C94B507CF93DF93EC010E945A07CE0131
:1010D000880F991FDF91CF910C94B507CF93DF93C1
:1010E000EC010E945F07CE01880F991FDF91CF911D
:1010F0000C94B507CF93DF93EC010E946407CE01F7
:10110000880F991FDF91CF910C94B507CF93DF9390
:10111000EC010E946907CE01880F991FDF91CF91E2
:101120000C94B5078093280160932A010895E1E0AB
:10113000F1E0808180628083E2E0F1E08081806282
:1011400080830895E2E0F1E080818F7D80830895BF
:10115000E2E0F1E080818062808308950E944E0A7F
:10116000911102C0811108958FEF08950C948B0A9C
:1011700087E090E00E94330A0C94CD0A0C94A40AF4
:101180001F920F920FB60F9211240BB60F922F934E
:101190003F934F935F938F939F93EF93FF93209190
:1011A000C0003091C60028718091981890E0019697
:1011B0008F7799274091971850E08417950739F059
:1011C00080939818FC01E556F74E308301C022E069
:1011D00020939618FF91EF919F918F915F914F917E
:1011E0003F912F910F900BBE0F900FBE0F901F904D
:1011F00018951F920F920FB60F9211240BB60F92F3
:101200008F939F93EF93FF9390919A1880919918E1
:10121000981779F08091991890E001968F77992727
:1012200080939918FC01E55EF64E80818093C6009C
:1012300005C08091C1008F7D8093C100FF91EF9127
:101240009F918F910F900BBE0F900FBE0F901F902C
:101250001895F89410929A1810929918109298185C
:1012600010929718789497FF04C022E02093C00052
:101270009F779093C5008093C40088E98093C10054
:1012800086E08093C2000895F89490919818809118
:101290009718981304C0789480E091E008957894AA
:1012A0008091971890E001968F77992780939718EF
:1012B000FC01E556F74E20818091961890E0982F1A
:1012C0008827820F911D0895F89490919818809125
:1012D0009718981304C0789480E091E0089578946A
:1012E000E0919718F0E03196EF77FF27E556F74E3B
:1012F00020818091961890E0982F8827820F911D69
:10130000089520919A1830E02F5F3F4F2F773327B1
:101310004091991850E024173507D1F3F901E55EA3
:10132000F64E808320939A188091C100806280934A
:10133000C1000895CF93DF93EC018991882319F0C0
:101340000E948109FACFDF91CF910895CF93DF9367
:10135000FC018491EF012196882321F00E948109EC
:10136000FE01F7CFDF91CF910895F89480919818FE
:1013700020919718789490E080589F4F821B910994
:101380008F7799270895F8948091971880939818EB
:10139000789408951F920F920FB60F9211240BB6F6
:1013A0000F922F933F934F935F938F939F93EF935E
:1013B000FF9320913001309136012871809193176D
:1013C00090E001968F7799274091921750E084170B
:1013D000950739F080939317FC01EA56F84E308355
:1013E00001C022E020939117FF91EF919F918F917F
:1013F0005F914F913F912F910F900BBE0F900FBEB9
:101400000F901F9018951F920F920FB60F921124F4
:101410000BB60F928F939F93EF93FF939091951735
:1014200080919417981779F08091941790E0019625
:101430008F77992780939417FC01EA5EF74E80819D
:101440008093360105C0809131018F7D80933101F9
:10145000FF91EF919F918F910F900BBE0F900FBE58
:101460000F901F901895F89410929517109294175A
:101470001092931710929217789497FF04C022E06D
:10148000209330019F77909335018093340188E950
:101490008093310186E0809332010895F894909111
:1014A000931780919217981304C0789480E091E08C
:1014B000089578948091921790E001968F779927FC
:1014C00080939217FC01EA56F84E20818091911783
:1014D00090E0982F8827820F911D0895F89490919D
:1014E000931780919217981304C0789480E091E04C
:1014F00008957894E0919217F0E03196EF77FF2706
:10150000EA56F84E20818091911790E0982F882715
:10151000820F911D08952091951730E02F5F3F4F66
:101520002F7733274091941750E024173507D1F3D4
:10153000F901EA5EF74E808320939517809131017F
:101540008062809331010895CF93DF93EC018991FC
:10155000882319F00E948B0AFACFDF91CF9108956A
:10156000CF93DF93FC018491EF012196882321F032
:101570000E948B0AFE01F7CFDF91CF910895F89476
:101580008091931720919217789490E080589F4F04
:10159000821B91098F7799270895F894809192176B
:1015A0008093931778940895F894E1EBF0E010821B
:1015B00082E88093B200B898A0E7B0E08C91816097
:1015C0008C931092B0008081846080837894089519
:1015D00010929C1910929B1910929E1910929D19AD
:1015E000E1EBF0E08081816080830895E1EBF0E041
:1015F00080818E7F80830895CF93DF930E94AE0811
:101600008F3F09F414C1833509F062C06BEB76E1BA
:1016100080E492E00E94781580E492E00E94BE0887
:101620002FEF8FE794E0215080409040E1F700C019
:1016300000000E94AE088F3F09F4F9C0282F082E41
:10164000000C330B30936702209366023F938F9315
:1016500087E497E19F938F93C0E4D2E0DF93CF9329
:101660000E949315CE010E94BE089FEF2FE784E0F1
:10167000915020408040E1F700C000000E94AE0879
:101680000F900F900F900F900F900F908F3F09F4D5
:10169000CEC0282F082E000C330B30936502209308
:1016A00064023F938F938DEB96E19F938F93DF932B
:1016B000CF930E949315CE010E94BE080E94E80AB3
:1016C0001092A8191092A71981E08093A61955C00D
:1016D000863409F0ACC08FEF9FE724E08150904042
:1016E0002040E1F700C000000E94AE08C82F62EC65
:1016F00076E180E492E00E94781580E492E00E9416
:10170000BE08CD3409F042C064EC76E180E492E09A
:101710000E94781580E492E00E94BE088FEF9FE758
:1017200024E0815090402040E1F700C000000E947A
:10173000AE088F3F09F47BC0282F082E000C330B16
:1017400030936502209364023F938F938EEB96E172
:101750009F938F9380E492E09F938F930E949315C1
:1017600080E492E00E94BE080E94E80A81E0809333
:10177000A7191092A8191092A6198093A5190F9075
:101780000F900F900F900F900F9051C0CD3609F031
:101790004EC067EC76E180E492E00E94781580E428
:1017A00092E00E94BE088FEF9FE724E081509040B6
:1017B0002040E1F700C000000E94AE088F3FB9F161
:1017C000282F082E000C330B3093650220936402FF
:1017D0003F938F938EEB96E19F938F9380E492E0FB
:1017E0009F938F930E94931580E492E00E94BE081D
:1017F0006AEC76E180E492E00E94781580E492E061
:101800000E94BE080E94E80A81E08093A819109205
:10181000A7191092A6198093A5190F900F900F90F9
:101820000F900F900F90DF91CF910C94CD0ADF9124
:10183000CF910895CF93C091A519CC2361F062EDAB
:1018400076E180E492E00E94781580E492E00E94C4
:10185000BE081092A5198C2FCF9108958091660231
:101860009091670208958091A61908958091A71913
:1018700008958091A819089580916402909165025D
:1018800008956FED76E180E492E00E94781580E49F
:1018900092E00C94BE0868EE76E180E492E00E944B
:1018A000781580E492E00E94BE080C94F60A8091BC
:1018B0009B1990919C1908951092A41981E080932E
:1018C000A3191092A219089581E08093A41910928F
:1018D000A3191092A21908951092A4191092A31995
:1018E00081E08093A219089590936302809362022D
:1018F00008953B9A439808950E94D40A0C94790C59
:10190000439A089581E08093A1190E94800C8091F0
:10191000A619882309F44BC08091A21994E0899FED
:10192000900111249091A319892F90E0880F991F9D
:10193000822B932B2091A419822B81309105A1F049
:101940002CF4892B89F56FEE76E13BC0823091054E
:10195000A1F0039749F580919C198F9380919B1971
:101960008F938AE197E111C080919C198F938091A8
:101970009B198F9388E097E108C080919C198F9301
:1019800080919B198F9381E197E19F938F9380E4DE
:1019900092E09F938F930E9493150F900F900F905A
:1019A0000F900F900F9011C060E277E10AC0809114
:1019B000A71981110EC08091A81981110AC06BE28C
:1019C00077E180E492E00E94781580E492E00C9444
:1019D000BE0880919C198F9380919B198F93809161
:1019E00063028F93809162028F938FE397E19F93BD
:1019F0008F9380E492E09F938F930E9493158DB70D
:101A00009EB708960FB6F8949EBF0FBE8DBFDDCF70
:101A1000439808951F920F920FB60F9211240BB6A0
:101A20000F922F933F934F935F936F937F938F9377
:101A30009F93AF93BF93EF93FF9380919D199091E4
:101A40009E19019690939E1980939D1980919D19DE
:101A500090919E19883E934040F180919B199091FE
:101A60009C19019690939C1980939B1910929E1932
:101A700010929D198091A1198823B9F080919F1926
:101A80009091A0199C012F5F3F4F3093A019209394
:101A90009F19029754F00E94080D0E94F60A1092B6
:101AA000A1191092A01910929F1982E88093B20098
:101AB000B898FF91EF91BF91AF919F918F917F91D6
:101AC0006F915F914F913F912F910F900BBE0F90AF
:101AD0000FBE0F901F9018959C01261B370BE4E654
:101AE000E29FC001E39F900D11249A01261B370B42
:101AF000B9010E94C71177FD05C06536710524F450
:101B0000862F089580E0089584E60895CF9383E0BA
:101B10000E943B048093BC1982E00E943B048093A6
:101B2000BB1981E00E943B04C82F8093BA194091F1
:101B3000B2195091B31960916C0270916D0280914D
:101B4000BC1990E00E946C0D8093B9194091B019B6
:101B50005091B11960916A0270916B028C2F90E0E4
:101B60000E946C0D8093B7194091AE195091AF1936
:101B700060916802709169028091BB1990E00E94A7
:101B80006C0D8093B819CF9108950E94860D8091B5
:101B9000BC1990E02091B2193091B3192817390778
:101BA00024F49093B3198093B21920916C02309170
:101BB0006D028217930724F490936D0280936C0258
:101BC0008091BB1990E02091AE193091AF19281780
:101BD000390724F49093AF198093AE1920916802CD
:101BE000309169028217930724F4909369028093DD
:101BF00068028091BA1990E02091B0193091B11922
:101C00002817390724F49093B1198093B0192091C3
:101C10006A0230916B028217930724F490936B024F
:101C200080936A02089581E00E9472070E94530720
:101C30006DE78DE70E94920880E00E9472078A3566
:101C400091051CF40E94C50DF7CF81E00E94720738
:101C50000E944C0780E00E947207843B91051CF4AF
:101C60000E94C50DF7CF81E00E9472070E945307C2
:101C700080E00E9472078A3591051CF40E94C50D10
:101C8000F7CF0C946E078F929F92AF92BF92CF9234
:101C9000DF92EF92FF920E94860DE090B719F12C2F
:101CA000C090B919D12CB7016C197D09072E000C11
:101CB000880B990B0E94FA124B015C018091B819B4
:101CC000B601680F711D6E0D7F1D072E000C880B6D
:101CD000990B0E94FA1220E030E040E85FE30E9496
:101CE000E4119B01AC01C501B4010E94501220E037
:101CF00030E04FE753E40E9486134B015C019B01E7
:101D0000AC016091BD197091BE198091BF1990917D
:101D1000C0190E94E3112FE632E143E05BE30E9429
:101D200086130E94C2126B017C0120E030E040E08B
:101D30005FE3C501B4010E9486130E94C212C60E61
:101D4000D71E8092BD199092BE19A092BF19B09271
:101D5000C01968EC70E06C197D09C60188539F4F6B
:101D60006F3F710509F02CF477FF05C060E070E06B
:101D700002C06FEF70E08F3F910509F02CF497FFE0
:101D800005C080E090E002C08FEF90E0FF90EF9000
:101D9000DF90CF90BF90AF909F908F900C9492085F
:101DA000EF92FF920F931F93CF93DF9300E010E029
:101DB000C0E0D0E0E82EF12C0E151F050CF0A7C0F6
:101DC0008091BB19803108F49FC08091BC1980318B
:101DD00008F09AC08091BA19803108F095C00E942D
:101DE000860D91E08091BC198B3008F090E09093C3
:101DF000AD1981E02091BA192B3008F080E0809372
:101E0000AC1941E02091BB192B3008F040E0409321
:101E1000AB19990F990F440F492BE42FE82BE0934E
:101E2000AA194E2FEE0F550B660B770BFA0131975F
:101E3000E730F10530F48827EE58FF4F8F4F0C94B0
:101E4000DB110E943E076FEA8DE70E949208B8CF2F
:101E50000E945A076DE780E012C00E943E076AEABE
:101E60008AEA0E9492082FEF8FE392E0215080408F
:101E70009040E1F746C00E944C076FEA8DE70E9450
:101E800092082FEF8FE392E0215080409040E1F7DD
:101E900000C00000C1E0D0E093CF0E945F0760E087
:101EA0008DE712C00E943E076FEA8FEA0E949208F7
:101EB0002FEF8FE794E0215080409040E1F721C060
:101EC0000E9453076DE78FEA0E9492082FEF8FE37D
:101ED00092E0215080409040E1F700C00000C0E057
:101EE000D0E06ECF209719F40E94530702C00E94E1
:101EF0004C076DE78DE70E9492088FEF97E40197FA
:101F0000F1F700C000005CCF0F5F1F4F55CF8FE58A
:101F100090E00E943A08DF91CF911F910F91FF90BE
:101F2000EF900C946E070F931F93CF93DF93082FBE
:101F30000E943E07C0E0D0E010E0C017D107D4F403
:101F40000E94430E8091BB198D31D0F38091BC1952
:101F50008D3120F48091BA198D3190F30E946E0773
:101F600068EC88EC0E9492088FE590E00E943A08A5
:101F70002196E3CFDF91CF911F910F9108956FEAE2
:101F80008FEA0E94920885E590E00E944E086FEA71
:101F90008FEA0E9492080E944C070E94860D809151
:101FA000BB198031D0F30C946E076FEA8FEA0E9460
:101FB000920885E590E00E9458086FEA8FEA0E9437
:101FC00092080E9453070E94860D8091BB198031B0
:101FD000D0F30C946E07CF93DF93FC0120E030E048
:101FE0008FEF9FE74FEF5FE7EB01A991BE01A111D2
:101FF00007C0A081B1814A175B0714F0C901AD0188
:102000002F5F3F4F32962233310571F7DF91CF9129
:102010000895CF93DF93EC01FC01EE0FFF1FEF5308
:10202000F64E808191818F3F2FEF920771F00E94D1
:102030000910DF93CF938BE497E19F938F930E94D6
:102040007F150F900F900F900F90DF91CF91089513
:102050002F923F924F925F926F927F928F929F92B8
:10206000AF92BF92CF92DF92EF92FF920F931F93A6
:10207000CF93DF93CDB7DEB7C859D1090FB6F89427
:10208000DEBF0FBECDBF4C018E010B591F4FD801D3
:10209000FE0131968FEF9FE7819391931D92E01798
:1020A000F107D1F78FEF9FEF9093C2198093C11979
:1020B000FB01EE0FFF1F21E030E02C0F3D1FE20F70
:1020C000F31F1182108241E3E42EF12C2224239489
:1020D00054E6352E280132E3430E511CB801CE01DF
:1020E00001960E94EB0FF801E80FF91F2082389E3D
:1020F000F001399EF00D11249F01280D391DC9569C
:10210000DF4F39832883C759D04061EC79E1DE0184
:102110001196A8013C01660C771C6A0E7B1EFA0121
:102120002191AF01211126C0C956DF4FE881F98105
:10213000C759D0402081318121153105D9F0F301F3
:10214000A080B1802A0D3B1DCD90DC9011972C15FD
:102150003D0584F4FB0191838083C956DF4FE881FC
:10216000F981C759D04020813181A20EB31E11964A
:10217000BC92AE92C956DF4F28813981C759D040F1
:102180002E5F3F4FC956DF4F39832883C759D04050
:102190006E5F7F4F12964415550509F631E0E31A3C
:1021A000F10809F09BCFC856DF4F0FB6F894DEBF99
:1021B0000FBECDBFDF91CF911F910F91FF90EF9098
:1021C000DF90CF90BF90AF909F908F907F906F9057
:1021D0005F904F903F902F9008956233710520F5E6
:1021E0008233910508F522E3289FF001299FF00D25
:1021F0001124E60FF71FEE0FFF1FE057FD4F11826E
:102200001082269FF001279FF00D1124E80FF91F7F
:10221000EE0FFF1FE057FD4F1182108261E370E067
:1022200080E992E00C9428100895EF92FF920F93AA
:102230001F93CF93DF93009759F081339105B1F04D
:102240006115710509F478C061337105C1F404C0EA
:102250006430710531F467C08530910509F470C0B0
:1022600057C06530710509F06BC063C06D327105F0
:1022700009F45FC06C32710509F062C054C0EC0112
:102280002197615071099E01D7FF02C0295F3F4F1E
:10229000790193E0F594E7949A95E1F79B0177FF34
:1022A00002C0295F3F4F83E0359527958A95E1F776
:1022B00008E010E0CB01B8010E94C711FC01CE017B
:1022C000B8010E94C711AF01481B590BCA012E1952
:1022D0003F094130510521F08F3F5FEF950761F4D1
:1022E0002130310569F12F3F4FEF340749F181303B
:1022F0009105F9F00196B9F02130310531F02F3F09
:102300003F4FF1F48BEB96E122C081E597E11FC0CE
:1023100084309105A9F08C32910541F08D9781F4BC
:102320006133710569F485E597E111C06133710589
:1023300039F48FE497E10BC08530910521F4F3CF98
:1023400083E597E104C08430910599F3E4CFDF91F0
:10235000CF911F910F91FF90EF9008950E949901E6
:1023600080E090E00895AA1BBB1B51E107C0AA1FA3
:10237000BB1FA617B70710F0A61BB70B881F991F26
:102380005A95A9F780959095BC01CD01089597FBCA
:10239000072E16F4009407D077FD09D00E94B311E0
:1023A00007FC05D03EF4909581959F4F0895709558
:1023B00061957F4F0895EE0FFF1F881F8BBF079019
:1023C000F691E02D19945058BB27AA270E94FB11C3
:1023D0000C944C130E943E1338F00E94451320F0D9
:1023E00039F49F3F19F426F40C943B130EF4E09556
:1023F000E7FB0C943513E92F0E945D1358F3BA17CD
:10240000620773078407950720F079F4A6F50C940A
:102410007F130EF4E0950B2EBA2FA02D0B01B901FE
:1024200090010C01CA01A0011124FF27591B99F04A
:10243000593F50F4503E68F11A16F040A22F232F56
:10244000342F4427585FF3CF469537952795A795A6
:10245000F0405395C9F77EF41F16BA0B620B730B4D
:10246000840BBAF09150A1F0FF0FBB1F661F771FBE
:10247000881FC2F70EC0BA0F621F731F841F48F473
:10248000879577956795B795F7959E3F08F0B0CFFC
:102490009395880F08F09927EE0F979587950895E3
:1024A0000E9464120C944C130E94451358F00E9431
:1024B0003E1340F029F45F3F29F00C94351351117D
:1024C0000C9480130C943B130E945D1368F39923C2
:1024D000B1F3552391F3951B550BBB27AA27621720
:1024E0007307840738F09F5F5F4F220F331F441F2D
:1024F000AA1FA9F335D00E2E3AF0E0E832D0915061
:102500005040E695001CCAF72BD0FE2F29D0660F4D
:10251000771F881FBB1F261737074807AB07B0E890
:1025200009F0BB0B802DBF01FF2793585F4F3AF096
:102530009E3F510578F00C9435130C9480135F3F47
:10254000E4F3983ED4F3869577956795B795F7951C
:102550009F5FC9F7880F911D9695879597F9089504
:10256000E1E0660F771F881FBB1F621773078407A0
:10257000BA0720F0621B730B840BBA0BEE1F88F7AF
:10258000E09508950E94C9126894B1110C948013CB
:1025900008950E94651388F09F5798F0B92F9927E6
:1025A000B751B0F0E1F0660F771F881F991F1AF03E
:1025B000BA95C9F714C0B13091F00E947F13B1E011
:1025C00008950C947F13672F782F8827B85F39F010
:1025D000B93FCCF3869577956795B395D9F73EF4D7
:1025E00090958095709561957F4F8F4F9F4F08957F
:1025F000E89409C097FB3EF490958095709561959D
:102600007F4F8F4F9F4F9923A9F0F92F96E9BB2752
:102610009395F695879577956795B795F111F8CFCE
:10262000FAF4BB0F11F460FF1BC06F5F7F4F8F4F39
:102630009F4F16C0882311F096E911C0772321F02F
:102640009EE8872F762F05C0662371F096E8862FC7
:1026500070E060E02AF09A95660F771F881FDAF71E
:10266000880F9695879597F9089597F99F6780E861
:1026700070E060E008959FEF80EC089500240A94D4
:102680001616170618060906089500240A9412164D
:102690001306140605060895092E0394000C11F480
:1026A000882352F0BB0F40F4BF2B11F460FF04C02D
:1026B0006F5F7F4F8F4F9F4F089557FD9058440F86
:1026C000551F59F05F3F71F04795880F97FB991F91
:1026D00061F09F3F79F0879508951216130614064E
:1026E000551FF2CF4695F1DF08C0161617061806DB
:1026F000991FF1CF86957105610508940895E894B6
:10270000BB2766277727CB0197F908950E94991375
:102710000C944C130E943E1338F00E94451320F095
:10272000952311F00C9435130C943B1311240C9445
:1027300080130E945D1370F3959FC1F3950F50E0D5
:10274000551F629FF001729FBB27F00DB11D639F63
:10275000AA27F00DB11DAA1F649F6627B00DA11D09
:10276000661F829F2227B00DA11D621F739FB00DAF
:10277000A11D621F839FA00D611D221F749F33271F
:10278000A00D611D231F849F600D211D822F762FB8
:102790006A2F11249F5750409AF0F1F088234AF095
:1027A000EE0FFF1FBB1F661F771F881F9150504001
:1027B000A9F79E3F510580F00C9435130C948013BB
:1027C0005F3FE4F3983ED4F3869577956795B79588
:1027D000F795E7959F5FC1F7FE2B880F911D9695A2
:1027E000879597F90895FA01EE0FFF1F309621059E
:1027F0003105A1F16115710561F48038BFE39B07D4
:1028000049F168949038810561F08038BFEF9B07EB
:1028100041F099234AF5FF3FE1053105210519F102
:10282000E8940894E795D901AA2329F4AB2FBE2F89
:10283000F85FD0F310C0FF5F70F4A695E0F7F739AA
:1028400050F019F0FF3A38F49F779F930DD00F9016
:1028500007FC9058089546F00C943B1360E070E03C
:1028600080E89FE308954FE79F775F934F933F93EF
:102870002F930E94EE142F913F914F915F910E94F0
:1028800086130C944B1429F416F00C9435130C9405
:102890007F130C943B130E946513A8F39638A0F79E
:1028A00007F80F92E8942BE33AEA48EB5FE70E94BF
:1028B0009C130F920F920F924DB75EB70F920E942A
:1028C0003615E2EFF0E00E947D144F915F91EF9199
:1028D000FF91E595EE1FFF1F49F0FE57E068442782
:1028E000EE0F441FFA95E1F74195550B0E94B01485
:1028F0000F9007FE0C94A4140895DF93CF931F93B9
:102900000F93FF92EF92DF927B018C01689406C0D7
:10291000DA2EEF010E949913FE01E894A59125910A
:10292000359145915591A6F3EF010E94FB11FE01EF
:102930009701A801DA9469F7DF90EF90FF900F916B
:102940001F91CF91DF9108959B01AC0160E070E091
:1029500080E89FE30C9450120C9435130C946A1584
:102960000E946513D8F39923C9F3940F511DA3F363
:102970009150504094F059F0882332F0660F771F41
:10298000881F91505040C1F79E3F51052CF7880F8A
:10299000911D9695879597F908955F3FACF0983E05
:1029A0009CF0BB27869577956795B79508F4B1603D
:1029B0009395C1F7BB0F58F711F460FFE8CF6F5F35
:1029C0007F4F8F4F9F4FE3CF0C94801316F00C94E2
:1029D0006A150C943B1368940C9435130E9465138C
:1029E000A8F39923C1F3AEF3DF93CF931F930F9313
:1029F000FF92C92FDD2788232AF02197660F771FC2
:102A0000881FDAF720E030E040E85FEB9FE3883989
:102A100020F0803E38F021968F770E94E411EAE1A1
:102A2000F1E004C00E94E411E7E4F1E00E947D14AB
:102A30008B01BE01EC01FB2E6F5771097595771F55
:102A4000880B990B0E94FA1228E132E741E35FE319
:102A50000E949913AF2D9801AE01FF900F911F9125
:102A6000CF91DF910E94FB110C944C13FA01DC0111
:102A7000AA0FBB1F9B01AC01BF5728F422273327A5
:102A80004427507820C0B75190F4AB2F00244695CE
:102A900037952795011CA395D2F3002071F0220FE2
:102AA000331F441FB395DAF30ED00C94E311613059
:102AB0007105A0E88A07B94630F49B01AC0166278E
:102AC000772788279078309621F0208331834283BE
:102AD000538308959F3F31F0915020F48795779567
:102AE0006795B795880F911D9695879597F90895E5
:102AF000FB01DC0101900D920020E1F70895CF93D6
:102B0000DF93CDB7DEB7AE014A5F5F4FFA01619147
:102B10007191AF018091271A9091281A0E94C215D5
:102B2000DF91CF9108950F931F93CF93DF93CDB78C
:102B3000DEB72E970FB6F894DEBF0FBECDBF0E895D
:102B40001F8986E08C831A8309838FEF9FE79E831A
:102B50008D83AE01465E5F4F688D798DCE01019603
:102B60000E94C215EF81F885E00FF11F10822E96AA
:102B70000FB6F894DEBF0FBECDBFDF91CF911F918E
:102B80000F9108952F923F924F925F926F927F9292
:102B90008F929F92AF92BF92CF92DF92EF92FF926D
:102BA0000F931F93CF93DF93CDB7DEB72B970FB65D
:102BB000F894DEBF0FBECDBF6C017B018A01FC0122
:102BC00017821682838181FFCCC1CE0101963C0120
:102BD000F6019381F70193FD859193FF81917F0128
:102BE000882309F4BAC1853239F493FD859193FFA6
:102BF00081917F01853229F4B60190E00E94E217AD
:102C0000E7CF912C212C312CFFE1F315D8F08B323A
:102C100079F038F4803279F08332A1F4232D2061E9
:102C20001DC08D3261F0803369F4232D216016C000
:102C3000832D8260382EE32DE4603E2E2AC0F32DD2
:102C4000F8601DC037FC2DC020ED280F2A3040F061
:102C50008E32B9F436FC81C1232D2064322E19C086
:102C600036FE06C08AE0989E200D1124922E11C0D7
:102C7000EAE02E9E200D1124222EF32DF0623F2E2D
:102C800008C08C3621F4832D8068382E02C0883627
:102C900041F4F70193FD859193FF81917F018111AB
:102CA000B3CF982F9F7D9554933028F40C5F1F4F1E
:102CB0009FE399830DC0833631F0833771F08335FC
:102CC00009F059C021C0F801808189830E5F1F4F30
:102CD00088248394912C530113C02801F2E04F0EF5
:102CE000511CF801A080B18036FE03C0692D70E050
:102CF00002C06FEF7FEFC5010E94D7174C01820120
:102D0000F32DFF773F2E16C0280122E0420E511C02
:102D1000F801A080B18036FE03C0692D70E002C0CA
:102D20006FEF7FEFC5010E94CC174C01F32DF068C7
:102D30003F2E820133FC1BC0822D90E0881699063D
:102D4000B0F4B60180E290E00E94E2172A94F4CF3A
:102D5000F50137FC859137FE81915F01B60190E066
:102D60000E94E21721102A9421E0821A910881140E
:102D7000910471F7E8C0843611F0893641F5F80105
:102D800037FE07C060817181828193810C5F1F4F84
:102D900008C060817181072E000C880B990B0E5FB3
:102DA0001F4FF32DFF763F2E97FF09C0909580951A
:102DB000709561957F4F8F4F9F4FF0683F2E2AE0AF
:102DC00030E0A3010E941E18882E861845C0853762
:102DD00031F4232D2F7EB22E2AE030E025C0932D32
:102DE000997FB92E8F36C1F018F4883579F0B5C0C7
:102DF000803719F0883721F0B0C0E92FE061BE2E8E
:102E0000B4FE0DC0FB2DF460BF2E09C034FE0AC015
:102E1000292F2660B22E06C028E030E005C020E150
:102E200030E002C020E132E0F801B7FE07C0608167
:102E30007181828193810C5F1F4F06C06081718117
:102E400080E090E00E5F1F4FA3010E941E18882EA5
:102E50008618FB2DFF773F2E36FE0DC0232D2E7FCB
:102E6000A22E891458F434FE0BC032FC09C0832D05
:102E70008E7EA82E05C0B82CA32C03C0B82C01C090
:102E8000B92CA4FE0FC0FE01E80DF11D8081803336
:102E900021F49A2D997EA92E09C0A2FE06C0B394F2
:102EA000B39404C08A2D867809F0B394A3FC11C0B2
:102EB000A0FE06C0B21488F4280C922C9B180EC0F9
:102EC000B21460F4B60180E290E00E94E217B3947D
:102ED000F7CFB21418F42B1802C0982C212CA4FEA2
:102EE00010C0B60180E390E00E94E217A2FE17C076
:102EF000A1FC03C088E790E002C088E590E0B6013D
:102F00000CC08A2D867859F0A1FE02C08BE201C068
:102F100080E2A7FC8DE2B60190E00E94E2178914DE
:102F200038F4B60180E390E00E94E2179A94F7CF5C
:102F30008A94F301E80DF11D8081B60190E00E94B2
:102F4000E2178110F5CF222009F442CEB60180E2CB
:102F500090E00E94E2172A94F6CFF60186819781CD
:102F600002C08FEF9FEF2B960FB6F894DEBF0FBE17
:102F7000CDBFDF91CF911F910F91FF90EF90DF9028
:102F8000CF90BF90AF909F908F907F906F905F9009
:102F90004F903F902F900895FC0105906150704034
:102FA0000110D8F7809590958E0F9F1F0895FC0112
:102FB0006150704001900110D8F7809590958E0F68
:102FC0009F1F08950F931F93CF93DF93FB012381DE
:102FD00021FD03C08FEF9FEF2CC022FF16C046815A
:102FE0005781248135814217530744F4A081B18170
:102FF0009D012F5F3F4F318320838C932681378142
:103000002F5F3F4F3783268314C08B01EC01FB01F8
:103010000084F185E02D1995892BE1F6D8011696EB
:103020008D919C911797019617969C938E93169766
:10303000CE01DF91CF911F910F910895FA01AA2738
:10304000283051F1203181F1E8946F936E7F6E5FEB
:103050007F4F8F4F9F4FAF4FB1E03ED0B4E03CD099
:10306000670F781F891F9A1FA11D680F791F8A1F7C
:10307000911DA11D6A0F711D811D911DA11D20D0E3
:1030800009F468943F912AE0269F11243019305D9D
:103090003193DEF6CF010895462F4770405D41938E
:1030A000B3E00FD0C9F7F6CF462F4F70405D4A33DB
:1030B00018F0495D31FD4052419302D0A9F7EACFA3
:1030C000B4E0A6959795879577956795BA95C9F7D2
:1030D00000976105710508959B01AC010A2E0694C5
:1030E0005795479537952795BA95C9F7620F731F7E
:0C30F000841F951FA01D0895F894FFCFC9
:1030FC0048656C6C6F2C204920616D2061204669FD
:10310C007265626972642D2D2D2D2D2D2D2D20565D
:10311C000A0048656C6C6F20576F726C64204920F4
:10312C00616D206120466972656269726420560087
:10313C0048656C6C6F2C204920616D2061204669BC
:10314C007265626972642D2D2D2D2D2D2D2D20561D
:10315C000A00010001000100FF0FFF0FFF0F48657F
:10316C006C6C6F2C204920616D2061204669726562
:10317C00626972642D2D2D2D2D2D2D2D20560A00BA
:10318C000000000000000000050005000000000029
:10319C000000000000000000000000000000000023
:1031AC000000000000000000000000000000000013
:1031BC000000000000000000000000000000000003
:1031CC0000000000000000000000000000000000F3
:1031DC0000000000000000000000000000000000E3
:1031EC0000000000000000000A00000000000000C9
:1031FC000000000000000A000000000000000000B9
:10320C0000000000000000000000000000000000B2
:10321C0000000000000000000000000000000000A2
:10322C000000000000000000000000000000000092
:10323C000000000000000000000000000000000082
:10324C00000000000000000000000A0000000A005E
:10325C000000000000000000000000000A00000058
:10326C000000000000000000000000000000000052
:10327C000000000000000000000000000000000042
:10328C000000000000000000000000000000000032
:10329C000000000000000000000000000000000022
:1032AC000000000000000000000000000000000012
:1032BC000A0000000A0000000000000000000000EE
:1032CC0000000A00000000000000000000000000E8
:1032DC0000000000000000000000000000000000E2
:1032EC0000000000000000000000000000000000D2
:1032FC0000000000000000000000000000000000C2
:10330C0000000000000000000000000000000000B1
:10331C000500000000000A0000000A000000000088
:10332C0000000000000000000A0000000000000087
:10333C000000000000000000000000000000000081
:10334C000000000000000000000000000000000071
:10335C000000000000000000000000000000000061
:10336C000000000000000000000000000000000051
:10337C00000000000500000000000000000000003C
:10338C000A000000000000000000000000000A001D
:10339C000000000000000000000000000000000021
:1033AC000000000000000000000000000000000011
:1033BC000000000000000000000000000000000001
:1033CC0000000000000000000000000000000000F1
:1033DC0000000000000000000000000000000000E1
:1033EC0000000A0000000A000000000000000000BD
:1033FC00000000000A0000000000000000000000B7
:10340C0000000000000000000000000000000000B0
:10341C0000000000000000000000000000000000A0
:10342C000000000000000000000000000000000090
:10343C000000000000000000000000000000000080
:10344C0000000000000000000A0000000A0000005C
:10345C00000000000000000000000A000000000056
:10346C000000000000000000000000000000000050
:10347C000000000000000000000000000000000040
:10348C000000000000000000000000000000000030
:10349C000000000000000000000000000000000020
:1034AC0000000000000000000000000000000A0006
:1034BC000000000000000000000000000000000000
:1034CC000A000000000000000000000000000000E6
:1034DC0000000000000000000000000000000000E0
:1034EC0000000000000000000000000000000000D0
:1034FC0000000000000000000000000000000000C0
:10350C000000000000000A000000000000000000A5
:10351C0000000000000000000A0000000000000095
:10352C000000000000000A00000000000000000085
:10353C00000000000000000000000000000000007F
:10354C00000000000000000000000000000000006F
:10355C00000000000000000000000000000000005F
:10356C000000000000000000000000000A00000045
:10357C00000000000000000000000A0000000A002B
:10358C000000000000000000000000000A00000025
:10359C00000000000000000000000000000000001F
:1035AC00000000000000000000000000000000000F
:1035BC0000000000000000000000000000000000FF
:1035CC0000000000000000000000000000000000EF
:1035DC0000000A00000000000000000000000000D5
:1035EC000A0000000A0000000000000000000000BB
:1035FC0000000A00000000000000000000000000B5
:10360C0000000000000000000000000000000000AE
:10361C00000000000000000000000000000000009E
:10362C00000000000000000000000000000000008E
:10363C0000000000000000000A0000000000000074
:10364C000000000000000A0000000A00000000005A
:10365C0000000000000000000A0000000000000054
:10366C00000000000000000000000000000000004E
:10367C00000000000000000000000000000000003E
:10368C00000000000000000000000000000000002E
:10369C0000000000000000000000000000000A0014
:1036AC000000000000000000000000000A00000004
:1036BC000A000000000000000000000000000A00EA
:1036CC0000000000000000000000000000000000EE
:1036DC0000000000000000000000000000000000DE
:1036EC0000000000000000000000000000000000CE
:1036FC0000000000000000000000000000000000BE
:10370C00000000000A0000000000000000000000A3
:10371C0000000A0000000A00000000000000000089
:10372C00000000000A000000000000000000000083
:10373C00000000000000000000000000000000007D
:10374C00000000000000000000000000000000006D
:10375C00000000000000000000000000000000005D
:10376C00000000000000000000000A000000000043
:10377C0000000000000000000A0000000A00000029
:10378C00000000000000000000000A000000000023
:10379C00000000000000000000000000000000001D
:1037AC00000000000000000000000000000000000D
:1037BC0000000000000000000000000000000000FD
:1037CC0000000000000000000000000000000000ED
:1037DC000A000000000000000000000000000A00C9
:1037EC0000000000000000000000000000000000CD
:1037FC000A000000000000000000000000000000B3
:10380C0000000000000000000000000000000000AC
:10381C00000000000000000000000000000000009C
:10382C00000000000000000000000000000000008C
:10383C000000000000000A00000000000000000072
:10384C0000000000000000000A0000000000000062
:10385C000000000000000A00000000000000000052
:10386C00000000000000000000000000000000004C
:10387C00000000000000000000000000000000003C
:10388C00000000000000000000000000000000002C
:10389C000000000000000000000000000A00000012
:1038AC00000000000000000000000A0000000A00F8
:1038BC000000000000000000000000000A000000F2
:1038CC0000000000000000000000000000000000EC
:1038DC0000000000000000000000000000000000DC
:1038EC0000000000000000000000000000000000CC
:1038FC0000000000000000000000000000000000BC
:10390C0000000A00000000000000000000000000A1
:10391C000A0000000A000000000000000000000087
:10392C0000000A0000000000000000000000000081
:10393C00000000000000000000000000000000007B
:10394C00000000000000000000000000000000006B
:10395C00000000000000000000000000000000005B
:10396C0000000000000000000A0000000000000041
:10397C000000000000000A0000000A000000000027
:10398C0000000000000000000A0000000000000021
:10399C00000000000000000000000000000000001B
:1039AC00000000000000000000000000000000000B
:1039BC0000000000000000000000000000000000FB
:1039CC0000000000000000000000000000000A00E1
:1039DC000000000000000000000000000A000000D1
:1039EC000A000000000000000000000000000A00B7
:1039FC0000000000000000000000000000000000BB
:103A0C0000000000000000000000000000000000AA
:103A1C00000000000000000000000000000000009A
:103A2C00000000000000000000000000000000008A
:103A3C00000000000A000000000000000000000070
:103A4C0000000A0000000A00000000000000000056
:103A5C00000000000A000000000000000000000050
:103A6C00000000000000000000000000000000004A
:103A7C00000000000000000000000000000000003A
:103A8C00000000000000000000000000000000002A
:103A9C00000000000000000000000A000000000010
:103AAC0000000000000000000A0000000A000000F6
:103ABC00000000000000000000000A0000000000F0
:103ACC0000000000000000000000000000000000EA
:103ADC0000000000000000000000000000000000DA
:103AEC0000000000000000000000000000000000CA
:103AFC0000000000000000000000000000000000BA
:103B0C000A000000000000000000000000000A0095
:103B1C000000000000000000000000000000000099
:103B2C000A0000000000000000000000000000007F
:103B3C000000000000000000000000000000000079
:103B4C000000000000000000000000000000000069
:103B5C000000000000000000000000000000000059
:103B6C000000000000000A0000000000000000003F
:103B7C0000000000000000000A000000000000002F
:103B8C000000000000000A0000000000000000001F
:103B9C000000000000000000000000000000000019
:103BAC000000000000000000000000000000000009
:103BBC0000000000000000000000000000000000F9
:103BCC000000000000000000000000000A000000DF
:103BDC00000000000000000000000A0000000A00C5
:103BEC000000000000000000000000000A000000BF
:103BFC0000000000000000000000000000000000B9
:103C0C0000000000000000000000000000000000A8
:103C1C000000000000000000000000000000000098
:103C2C000000000000000000000000000000000088
:103C3C0000000A000000000000000000000000006E
:103C4C000A0000000A000000000000000000000054
:103C5C0000000A000000000000000000000000004E
:103C6C000000000000000000000000000000000048
:103C7C000000000000000000000000000000000038
:103C8C000000000000000000000000000000000028
:103C9C0000000000000000000A000000000000000E
:103CAC000000000000000A0000000A0000000000F4
:103CBC0000000000000000000A00000000000000EE
:103CCC0000000000000000000000000000000000E8
:103CDC0000000000000000000000000000000000D8
:103CEC0000000000000000000000000000000000C8
:103CFC0000000000000000000000000000000A00AE
:103D0C000000000000000000000000000A0000009D
:103D1C000A000000000000000000000000000A0083
:103D2C000000000000000000000000000000000087
:103D3C000000000000000000000000000000000077
:103D4C000000000000000000000000000000000067
:103D5C000000000000000000000000000000000057
:103D6C00000000000A00000000000000000000003D
:103D7C0000000A0000000A00000000000000000023
:103D8C00000000000A00000000000000000000001D
:103D9C000000000000000000000000000000000017
:103DAC000000000000000000000000000000000007
:103DBC0000000000000000000000000000000000F7
:103DCC00000000000000000000000A0000000000DD
:103DDC0000000000000000000A0000000A000000C3
:103DEC00000000000000000000000A0000000000BD
:103DFC0000000000000000000000000000000000B7
:103E0C0000000000000000000000000000000000A6
:103E1C000000000000000000000000000000000096
:103E2C000000000000000000000000000000000086
:103E3C000A000000000000000000000000000A0062
:103E4C000000000000000000000000000000000066
:103E5C000A0000000000000000000000000000004C
:103E6C000000000000000000000000000000000046
:103E7C000000000000000000000000000000000036
:103E8C000000000000000000000000000000000026
:103E9C000000000000000A0000000000000000000C
:103EAC0000000000000000000A00000000000000FC
:103EBC000000000000000A000000000000000000EC
:103ECC0000000000000000000000000000000000E6
:103EDC0000000000000000000000000000000000D6
:103EEC0000000000000000000000000000000000C6
:103EFC000000000000000000000000000A000000AC
:103F0C00000000000000000000000A0000000A0091
:103F1C000000000000000000000000000A0000008B
:103F2C000000000000000000000000000000000085
:103F3C000000000000000000000000000000000075
:103F4C000000000000000000000000000000000065
:103F5C000000000000000000000000000000000055
:103F6C0000000A000000000000000000000000003B
:103F7C000A0000000A000000000000000000000021
:103F8C0000000A000000000000000000000000001B
:103F9C000000000000000000000000000000000015
:103FAC000000000000000000000000000000000005
:103FBC0000000000000000000000000000000000F5
:103FCC0000000000000000000A00000000000000DB
:103FDC000000000000000A0000000A0000000000C1
:103FEC0000000000000000000A00000000000000BB
:103FFC0000000000000000000000000000000000B5
:10400C0000000000000000000000000000000000A4
:10401C000000000000000000000000000000000094
:10402C0000000000000000000000000000000A007A
:10403C000000000000000000000000000A0000006A
:10404C000A000000000000000000000000000A0050
:10405C000000000000000000000000000000000054
:10406C000000000000000000000000000000000044
:10407C000000000000000000000000000000000034
:10408C000000000000000000000000000000000024
:10409C00000000000A00000000000000000000000A
:1040AC0000000A0000000A000000000000000000F0
:1040BC00000000000A0000000000000000000000EA
:1040CC0000000000000000000000000000000000E4
:1040DC0000000000000000000000000000000000D4
:1040EC0000000000000000000000000000000000C4
:1040FC00000000000000000000000A0000000000AA
:10410C0000000000000000000A0000000A0000008F
:10411C00000000000000000000000A000000000089
:10412C000000000000000000000000000000000083
:10413C000000000000000000000000000000000073
:10414C000000000000000000000000000000000063
:10415C000000000000000000000000000000000053
:10416C000A000000000000000000000000000A002F
:10417C000000000000000000000000000000000033
:10418C000A00000000000000000000000000000019
:10419C000000000000000000000000000000000013
:1041AC000000000000000000000000000000000003
:1041BC0000000000000000000000000000000000F3
:1041CC000000000000000A000000000000000000D9
:1041DC0000000000000000000A00000000000000C9
:1041EC0000000000000000000000000000000000C3
:1041FC0000000000000000000000000000000000B3
:10420C0000000000000000000000000000000000A2
:10421C000000000000000000000000000000000092
:10422C000000000000000000000000000A00000078
:10423C00000000000000000000000A0000000A005E
:10424C000000000000000000000000000000000062
:10425C000000000000000000000000000000000052
:10426C000000000000000000000000000000000042
:10427C000000000000000000000000000000000032
:10428C000000000000000000000000000000000022
:10429C0000000A0000000000000000000000000008
:1042AC000A0000000A0000000000000000000000EE
:1042BC0000000000000000000000000000000000F2
:1042CC0000000000000000000000000000000000E2
:1042DC0000000000000000000000000000000000D2
:1042EC0000000000000000000000000000000000C2
:1042FC0000000000000000000A00000000000000A8
:10430C000000000000000A00000000000000000097
:10431C00000005000000000000000000000000008C
:10432C000000000000000000000000000000000081
:10433C000000000000000000000000000000000071
:10434C000000000000000000000000000000000061
:10435C0000000000000000000000000000000A0047
:10436C000000000000000000000000000000000041
:10437C000A00000000000500000000000000000022
:10438C000000000000000000000000000000000021
:10439C000000000000000000000000000000000011
:1043AC000000000000000000000000000000000001
:1043BC0000000000000000000000000000000000F1
:1043CC00000000000A0000000000000000000000D7
:1043DC0000000A0000000A000000000000000000BD
:1043EC0000000000000000000000000000000000C1
:1043FC0000000000000000000000000000000000B1
:10440C0000000000000000000000000000000000A0
:10441C000000000000000000000000000000000090
:10442C00000000000000000000000A000000000076
:10443C0000000000000000000A0000000A0000005C
:10444C000000000000000000000000000000000060
:10445C000000000000000000000000000000000050
:10446C000000000000000000000000000000000040
:10447C000000000000000000000000000000000030
:10448C000000000000000000000000000000000020
:10449C000A000000000000000000000000000A00FC
:1044AC000000000000000000000000000000000000
:1044BC0000000000000000000000000000000000F0
:1044CC0000000000000000000000000000000000E0
:1044DC0000000000000000000000000000000000D0
:1044EC0000000000000000000000000000000000C0
:1044FC0000000000000000000000000005000500A6
:10450C000000000000000000317374204E6F6465E1
:10451C000A004D6964204E6F64650A0039302044EE
:10452C006567726565204C656674207475726E0AD9
:10453C000043656E746572206F6620626C6F636BEE
:10454C0020726561636865640A004261636B206F69
:10455C006E206C696E650A004C6566742054757229
:10456C006E0A005374617274204C6F636174696FCE
:10457C006E0A0046696E69736865640A0043616C73
:10458C0020446F6E650A005265642050756C73652B
:10459C007300477265656E2050756C7365730042CD
:1045AC006C75652050756C7365730053002D256414
:1045BC000A0046004D2D006D2D00436D642052788D
:1045CC000A0049735F436D643A747275650A006141
:1045DC00636365707465640069676E6F726500452E
:1045EC0072726F7220696E207461736B20636F6DD1
:1045FC00706C6574696F6E006D696E6F722D2564D9
:10460C00006D616A6F722D2564006E6F2D2564003C
:10461C005363616E2D4572726F72004572726F72C8
:10462C00206465636F64696E67207461736B0066E8
:10463C00657463682D25642D256400256420004570
:08464C00004E00300057000091
:00000001FF
