:100000000C94C8000C94E3050C94E9000C94E900EE
:100010000C94E9000C944B080C9426080C94E9000D
:100020000C94E9000C94E9000C94E9000C94E900AC
:100030000C94E9000C94E9000C94E9000C943C0E3B
:100040000C94E9000C94E9000C94E9000C94E9008C
:100050000C94E9000C94E9000C94E9000C94E9007C
:100060000C94E9000C94F2090C942B0A0C94E9000E
:100070000C94E9000C94E9000C94E9000C94E9005C
:100080000C94E9000C94E9000C94E9000C94E9004C
:100090000C94E9000C94E9000C94E9000C94E9003C
:1000A0000C94E9000C94E9000C94E9000C94E9002C
:1000B0000C94E9000C94E9000C94E9000C94E9001C
:1000C0000C94E9000C94E9000C94E9000C94E9000C
:1000D0000C94E9000C94E9000C94FC0A0C94350B88
:1000E0000C94E90062106710751087108C109A103C
:1000F000AC1007634236B79BD8A71A39685618AEBA
:10010000BAAB558C1D3CB7CC5763BD6DEDFD753E4C
:10011000F6177231BF000000803F08000000BE9259
:100120002449123EABAAAA2ABECDCCCC4C3E00003C
:100130000080BEABAAAAAA3E00000000BF000000DB
:10014000803F0000000000084178D3BB4387D113F3
:100150003D190E3CC3BD4282AD2B3E68EC8276BE9B
:10016000D98FE1A93E4C80EFFFBE01C4FF7F3F0065
:10017000000000000C949A100C9487100C946710E7
:100180000C9475100C948C100C9462100C94AC10A0
:1001900011241FBECFEFD1E2DEBFCDBF00E00CBF08
:1001A00017E1A0E0B2E0ECE2F5E300E00BBF02C033
:1001B00007900D92A634B107D9F72AE1A6E4B7E17A
:1001C00001C01D92AE3CB207E1F70E94C6130C9429
:1001D000941A0C9400000E944A050E9451050E9446
:1001E000E8020E945D030E940B060E941C060E940A
:1001F000D3070E94DA070E94E5070E94EC070E94DD
:10020000FA070E94AE0D0C94EA09CF9381E00E9498
:10021000CD106AEE74E182E092E00E94901782E0D5
:1002200092E00E94F00981E00E94CD1065EF74E138
:1002300082E092E00E94901782E092E00E94F00932
:100240006FEA8FEA0E94C4098AE590E00E94800963
:1002500060E075E182E092E00E94901782E092E017
:100260000E94F00968EC88EC0E94C40984EB90E0DD
:100270000E946C0966E175E182E092E00E949017AD
:1002800082E092E00E94F0090E948407C82F0E9439
:10029000E8090E948C038C2F0E94B903C23519F41F
:1002A0000E948E0D07C0C73419F40E94960D02C03B
:1002B0000E949E0D84EB90E00E94760960E375E158
:1002C00082E092E00E94901782E092E00E94F009A2
:1002D0000E94F9106FE375E182E092E00E949017AE
:1002E00082E092E00E94F00981E00E94CD106AEE67
:1002F00074E182E092E00E94901782E092E00E9416
:10030000F00981E00E94CD106BE475E182E092E09B
:100310000E94901782E092E00E94F0096CE575E17E
:1003200082E092E00E94901782E092E0CF910C94DC
:10033000F5031F93CF93DF9367E675E182E092E0C8
:100340000E94901782E092E00E94F00910914A17F3
:10035000111152C00E94B7110E94AA118033E9F511
:10036000C0914817D09149170E94B711BE010E9451
:10037000B31280930002909301029F938F9384E7BE
:1003800095E19F938F93C2E0D2E0DF93CF930E94D9
:10039000AB17CE010E94F0098091000290910102FA
:1003A0000E94191281E080934A170E94B7119F930F
:1003B0008F9382E995E19F938F93DF93CF930E9470
:1003C000AB17CE010E94F0098DB79EB70C960FB601
:1003D000F8949EBF0FBE8DBFD9C00E94C21110926B
:1003E0004A1762EA75E182E092E00E94901782E08B
:1003F00092E00E94F009CAC0809148179091491775
:100400000E94D41180934617909347179F938F9320
:1004100087EB95E19F938F93C2E0D2E0DF93CF9378
:100420000E94AB17CE010E94F0098091481790916D
:1004300049170F900F900F900F900F900F902091F1
:100440000002309101028217930751F16091461723
:10045000709147170E942A130E94251181E00E9483
:10046000CD1080914617909147178093481790932D
:10047000491721E020934A179F938F938AEC95E1C7
:100480009F938F93DF93CF930E94AB17CE010E946F
:10049000F0090F900F900F900F900F900F9075C074
:1004A0000E94B7118234910509F465C00E94B7110A
:1004B0009F938F938BED95E19F938F93DF93CF93D2
:1004C0000E94AB1782E092E00E94F0090E94CC11DA
:1004D0000E9460116FEE75E182E092E00E94901739
:1004E00082E092E00E94F00984EB90E00E946C09A7
:1004F0000E9484070F900F900F900F900F900F9015
:10050000823539F40E94B7119F938F9383E096E16F
:100510000FC0873439F40E94B7119F938F9383E201
:1005200096E106C00E94B7119F938F9383E496E1F2
:100530009F938F93DF93CF930E94AB170F900F90F1
:100540000F900F900F900F9082E092E00E94F009C0
:100550000E94C21184EB90E00E94760910924A1723
:1005600060E676E182E092E00E94901782E092E0FD
:100570000E94F0090AC00E94B7118234910529F443
:100580000E94C21110924A1701C010E0812FDF9122
:10059000CF911F9108950E94EB000E944D0F62E7DA
:1005A00076E182E092E00E94901782E092E00E9461
:1005B000F0090E942E0C6DE776E182E092E00E9445
:1005C000901782E092E00E94F0090E949901FDCF0D
:1005D00087B1876087B987B1806F87B988B1887F15
:1005E00088B988B18F7088B9089586E69EE0019732
:1005F000F1F700004098419880E388B9429AEFEF04
:10060000F7E43197F1F700C000004298E6E6FEE01B
:100610003197F1F700004098419888B9429AEFEF7E
:10062000F7E43197F1F700C000004298E6E6FEE0FB
:100630003197F1F700004098419888B9429A8FEFBE
:1006400097E40197F1F700C000004298E6E6FEE06B
:100650003197F1F700004098419880E288B9429ABA
:100660008FEF97E40197F1F700C0000042980895DA
:1006700098B19F7098B998B1282F207F922B98B984
:1006800040984198429AEFEFF7E43197F1F700C0B4
:100690000000429898B19F7098B998B18295807F78
:1006A000892B88B940984198429A8FEF97E4019737
:1006B000F1F700C00000429808950E94F50286E616
:1006C0009EE00197F1F7000088E20E94380381E084
:1006D0000E94380386E00E9438038EE00E943803AF
:1006E00080E80C94380380E80C943803982F862F08
:1006F000923059F01CF4913031F00895933039F074
:10070000943039F00895815805C0815403C08D5646
:1007100001C08D520C94380381E00C943803CF93C0
:10072000C42F0E94760388B18F7088B988B19C2F3E
:10073000907F892B88B9409A4198429A8FEF97E42D
:100740000197F1F700C000004298C295C07F88B1C0
:100750008F7088B988B1C82BC8B9409A4198429A1D
:100760008FEF97E40197F1F700C000004298CF9116
:10077000089598B19F7098B998B1282F207F922B37
:1007800098B9409A4198429AEFEFF7E43197F1F720
:1007900000C0000042988295807F98B19F7098B900
:1007A00098B1892B88B9409A4198429A8FEF97E483
:1007B0000197F1F700C00000429808950F931F932E
:1007C000CF93DF93D82FC62F8A01F80141918F0173
:1007D000442331F06C2F8D2F0E948F03CF5FF5CF14
:1007E000DF91CF911F910F910895CF93DF93EC018B
:1007F0008991882319F00E94B903FACFDF91CF9134
:100800000895EF92FF920F931F93CF93DF93D82F0A
:10081000C62F8A0179010E94760317FF09C011953E
:10082000019511094DE26C2F8D2F0E948F03CF5F30
:10083000DD2311F0C11103C00E94730304C06C2FAB
:100840008D2F0E94760385E0E816F10409F07FC041
:10085000C80160E177E20E94DF13AB01405D5F4FAA
:1008600050934C1740934B176C2F8D2F0E948F0382
:10087000CF5FC80168EE73E00E94DF13CB01709375
:100880005617609355176AE070E00E94CB13AC01D5
:10089000405D5F4F50934E1740934D176C2F8D2F37
:1008A0000E948F03CF5FC80164E670E00E94DF13EF
:1008B000CB0170935617609355176AE070E00E9461
:1008C000CB13AC01405D5F4F5093501740934F17CF
:1008D0006C2F8D2F0E948F03CF5F2AE030E0C8017C
:1008E000B9010E94DF13CB0170935617609355171F
:1008F000B9010E94CB13AC01405D5F4F509352177A
:10090000409351176C2F8D2F0E948F03CF5FC8012A
:100910006AE070E00E94DF13AC01405D5F4F5093CE
:100920005417409353176C2F8D2F0E948F03CF5F66
:1009300086E0E816F104FCF045E46C2F8D2FDF9182
:10094000CF911F910F91FF90EF900C948F0384E053
:10095000E816F10409F48DCF83E0E816F10409F4F8
:10096000A2CF82E0E816F10409F4B7CF81E0E816DF
:10097000F104F1F6CCCFDF91CF911F910F91FF9051
:10098000EF9008950F931F93CF93DF938A01E901AE
:10099000882311F0611103C00E94730302C00E94FA
:1009A0007603C530D10509F061C0C80160E177E286
:1009B0000E94CB13CB01C09690934C1780934B179A
:1009C0000E94B903C80168EE73E00E94CB13CB010B
:1009D00070935617609355176AE070E00E94CB132E
:1009E000C09690934E1780934D170E94B903C8018B
:1009F00064E670E00E94CB13CB01709356176093AE
:100A000055176AE070E00E94CB13C0969093501780
:100A100080934F170E94B9032AE030E0C801B90162
:100A20000E94CB13CB017093561760935517B901F1
:100A30000E94CB13C09690935217809351170E9437
:100A4000B903C8016AE070E00E94CB13C09690938E
:100A50005417809353170E94B9032697B4F085E486
:100A6000DF91CF911F910F910C94B903C430D10540
:100A700009F4A8CFC330D10509F4B9CFC230D105EC
:100A800059F2C130D10549F7DCCFDF91CF911F91E9
:100A90000F91089510BA11BA10920701109208012F
:100AA0000895EAE7F0E08081866880838081867817
:100AB0008083EBE7F0E08081807B8083ECE7F0E0EF
:100AC0008081807680838081806480838081806261
:100AD000808380B7806880BF0895883028F0909127
:100AE0007B00986090937B0090917C008770892BAD
:100AF00080937C0080917A00806480937A0080915A
:100B00007A0084FFFCCF8091790090917A00906107
:100B100090937A0090917B00977F90937B009091C7
:100B20007C00907E90937C000895682F70E080E0B8
:100B300090E00E9410152FEE39EC43E95FE30E942C
:100B40000B169B01AC0160E070E080E89FE30E941F
:100B500068142AE939EF4EE255E40E949E1520E020
:100B600030E040E251E40E949E150E94DA14CB016D
:100B70006132734010F080E293E00895CF93DF93E9
:100B8000C82FD62F842F0E946D0580936417482F9D
:100B900050E023E030E06D2F8C2FDF91CF910C944B
:100BA00001048AB18E6F8AB9589A08950E94E802AA
:100BB0000C94D105F894E9E6F0E0808182608083AE
:100BC000E89A789408951F920F920FB60F9211240D
:100BD0008F939F93AF93BF938091711790917217EA
:100BE000A0917317B09174170196A11DB11D809348
:100BF000711790937217A0937317B0937417BF91E6
:100C0000AF919F918F910F900FBE0F901F901895ED
:100C10005C9A5D9A0895F8940E94D1050E94DA05C5
:100C200078940C9408065E985F9808955E9A5F9A8F
:100C300008955E985F9A08955E9A5F9808950E945D
:100C40001306109271171092721710927317109268
:100C500074172FEF8FE794E0215080409040E1F728
:100C600000C000008091711790917217A0917317C6
:100C7000B091741780936D1790936E17A0936F17B0
:100C8000B093701761E081E00E9476036EE876E130
:100C900084E292E00E94901784E292E00E94F503C1
:100CA00040916D1750916E1760916F17709170178A
:100CB00025E030E061E082E00E94C2042FEF8FEF78
:100CC0009CE2215080409040E1F700C0000081E0AC
:100CD0000C9438030E941606109271171092721726
:100CE00010927317109274172FEF8FE794E0215032
:100CF00080409040E1F700C0000080917117909112
:100D00007217A0917317B091741780936517909321
:100D10006617A0936717B093681761E081E00E949F
:100D2000760369E976E184E292E00E94901784E21A
:100D300092E00E94F503409165175091661760910B
:100D400067177091681725E030E061E082E00E944B
:100D5000C2042FEF8FEF9CE2215080409040E1F7DA
:100D600000C0000081E00C9438030E941906109224
:100D700071171092721710927317109274172FEF49
:100D80008FE794E0215080409040E1F700C00000E0
:100D90008091711790917217A0917317B091741789
:100DA0008093691790936A17A0936B17B0936C1791
:100DB00061E081E00E94760366EA76E184E292E0F7
:100DC0000E94901784E292E00E94F5034091691717
:100DD00050916A1760916B1770916C1725E030E0A5
:100DE00061E082E00E94C2042FEF8FEF9CE221506D
:100DF00080409040E1F700C0000081E00C9438038F
:100E00000E941306109271171092721710927317A6
:100E1000109274172FEF8FE794E02150804090409C
:100E2000E1F700C000008091711790917217A091B6
:100E30007317B091741780936D1790936E17A093EA
:100E40006F17B093701760916D1770916E17809146
:100E50006F179091701708950E94160610927117DF
:100E60001092721710927317109274172FEF8FE76A
:100E700094E0215080409040E1F700C00000809154
:100E8000711790917217A0917317B0917417809396
:100E9000651790936617A0936717B09368176091D2
:100EA000651770916617809167179091681708957C
:100EB0000E941906109271171092721710927317F0
:100EC000109274172FEF8FE794E0215080409040EC
:100ED000E1F700C000008091711790917217A09106
:100EE0007317B09174178093691790936A17A09342
:100EF0006B17B0936C176091691770916A178091A6
:100F00006B1790916C1708958F929F92AF92BF923A
:100F1000CF92DF92EF92FF920E9400076B017C015B
:100F20000E9458074B015C010E942C0727E0C21663
:100F300026E1D206E104F10430F0623022E17207CA
:100F40008105910500F58C149D04AE04BF0428F4BE
:100F50006C157D058E059F05C0F0C814D904EA0400
:100F6000FB0428F4681579058A059B0580F0861630
:100F70009706A806B90668F4C616D706E806F90665
:100F800040F487E407C087E505C082E503C082E43A
:100F900001C080E3FF90EF90DF90CF90BF90AF90C3
:100FA0009F908F90089581B18F6081B982B1807FC9
:100FB00082B90895EAE0F1E0808188618083EBE006
:100FC000F1E080818861808308958DB18F7C8DB937
:100FD0008EB180638EB90895F8948DB380638DBB14
:100FE000EAE6F0E080818A60808380818A7F808366
:100FF00078940895E1E2F1E010828FEF809325016B
:1010000091E090932401109229018093280110927D
:101010002B0180932A01A0E2B1E08C91806A8C932D
:101020008C918F7A8C938C9181608C938C918D7F35
:101030008C9380818860808380818F7E8083808193
:101040008360808380818B7F808308951F920F92BD
:101050000FB60F9211248F939F93AF93BF938091FC
:10106000771790917817A0917917B0917A17019618
:10107000A11DB11D8093771790937817A0937917CE
:10108000B0937A17BF91AF919F918F910F900FBE40
:101090000F901F9018951F920F920FB60F92112468
:1010A0008F939F93AF93BF9380917B1790917C1701
:1010B000A0917D17B0917E170196A11DB11D80935F
:1010C0007B1790937C17A0937D17B0937E17BF91E9
:1010D000AF919F918F910F900FBE0F901F90189519
:1010E00082B1867F82B982B1866082B9089582B169
:1010F000897F82B982B1896082B9089582B1857F82
:1011000082B982B1856082B9089582B18A7F82B93D
:1011100082B18A6082B9089582B1887F82B9129AB9
:10112000089582B1827F82B9119A089582B1817F38
:1011300082B9109A089582B1887F82B9139A08956E
:1011400082B1807F82B908950F931F93813099F403
:1011500010927717109278171092791710927A17C9
:1011600010927B1710927C1710927D1710927E17A9
:1011700080E090E029C040917717509178176091F6
:10118000791770917A1780917B1790917C17A091B5
:101190007D17B0917E178A019B01080F191F2A1F26
:1011A0003B1FC901B8010E94101528E431EE42E846
:1011B00050E40E949E1520E030E040E05FE30E9492
:1011C0009E150E94DA14CB011F910F910895BC0166
:1011D00080E090E00E94101528E431EE42E850E4EF
:1011E0000E9468140E94E114CB01A0E0B0E01092CC
:1011F0007717109278171092791710927A17109229
:101200007B1710927C1710927D1710927E174091D9
:101210007717509178176091791770917A1748175E
:1012200059076A077B0798F440917B1750917C1708
:1012300060917D1770917E17481759076A077B07E1
:1012400030F4E6E6FEE03197F1F70000E0CF0C94D1
:10125000A0080F931F93BC0180E090E00E9410153E
:1012600025EE30ED4AEA50E40E9468140E94E11431
:1012700010927717109278171092791710927A17A8
:1012800010927B1710927C1710927D1710927E1788
:1012900000917717109178172091791730917A176C
:1012A000061717072807390798F400917B17109144
:1012B0007C1720917D1730917E1706171707280796
:1012C000390730F4E6E6FEE03197F1F70000E0CFB1
:1012D0001F910F910C94A008CF93DF93EC010E9413
:1012E0007008CE01DF91CF910C942909CF93DF9341
:1012F000EC010E947708CE01DF91CF910C9429096F
:10130000CF93DF93EC010E947E08CE01DF91CF9155
:101310000C94E708CF93DF93EC010E948508CE017F
:10132000DF91CF910C94E708CF93DF93EC010E94FB
:101330008C08CE01880F991FDF91CF910C94E7089C
:10134000CF93DF93EC010E949108CE01880F991F83
:10135000DF91CF910C94E708CF93DF93EC010E94CB
:101360009608CE01880F991FDF91CF910C94E70862
:10137000CF93DF93EC010E949B08CE01880F991F49
:10138000DF91CF910C94E7088093280160932A01A4
:101390000895E1E0F1E0808180628083E2E0F1E0A5
:1013A0008081806280830895E2E0F1E080818F7D1A
:1013B00080830895E2E0F1E0808180628083089577
:1013C0000E94800B911102C0811108958FEF089542
:1013D0000C94BD0B87E090E00E94650B0C94FF0B12
:1013E0000C94D60B1F920F920FB60F9211240BB6CE
:1013F0000F922F933F934F935F938F939F93EF930E
:10140000FF932091C0003091C600287180918B1805
:1014100090E001968F77992740918A1850E08417C1
:10142000950739F080938B18FC01E257F74E308313
:1014300001C022E020938918FF91EF919F918F9135
:101440005F914F913F912F910F900BBE0F900FBE68
:101450000F901F9018951F920F920FB60F921124A4
:101460000BB60F928F939F93EF93FF9390918D18EC
:1014700080918C18981779F080918C1890E00196E3
:101480008F77992780938C18FC01E25FF64E80815C
:101490008093C60005C08091C1008F7D8093C100FC
:1014A000FF91EF919F918F910F900BBE0F900FBE08
:1014B0000F901F901895F89410928D1810928C1818
:1014C00010928B1810928A18789497FF04C022E02B
:1014D0002093C0009F779093C5008093C40088E953
:1014E0008093C10086E08093C2000895F8949091A3
:1014F0008B1880918A18981304C0789480E091E04A
:101500000895789480918A1890E001968F779927B2
:1015100080938A18FC01E257F74E20818091891848
:1015200090E0982F8827820F911D0895F89490914C
:101530008B1880918A18981304C0789480E091E009
:1015400008957894E0918A18F0E03196EF77FF27BC
:10155000E257F74E20818091891890E0982F8827D4
:10156000820F911D089520918D1830E02F5F3F4F1D
:101570002F77332740918C1850E024173507D1F38B
:10158000F901E25FF64E808320938D188091C100AF
:1015900080628093C1000895CF93DF93EC0189911D
:1015A000882319F00E94B30AFACFDF91CF910895F2
:1015B000CF93DF93FC018491EF012196882321F0E2
:1015C0000E94B30AFE01F7CFDF91CF910895F894FE
:1015D00080918B1820918A18789490E080589F4FC2
:1015E000821B91098F7799270895F89480918A1822
:1015F00080938B18789408951F920F920FB60F92D4
:1016000011240BB60F922F933F934F935F938F93B9
:101610009F93EF93FF932091300130913601287111
:101620008091861790E001968F77992740918517D2
:1016300050E08417950739F080938617FC01E7572F
:10164000F84E308301C022E020938417FF91EF9180
:101650009F918F915F914F913F912F910F900BBE72
:101660000F900FBE0F901F9018951F920F920FB6FC
:101670000F9211240BB60F928F939F93EF93FF93CA
:101680009091881780918717981779F08091871724
:1016900090E001968F77992780938717FC01E75F89
:1016A000F74E80818093360105C0809131018F7D96
:1016B00080933101FF91EF919F918F910F900BBE1D
:1016C0000F900FBE0F901F901895F89410928817E6
:1016D000109287171092861710928517789497FFAB
:1016E00004C022E0209330019F77909335018093CE
:1016F000340188E98093310186E0809332010895B6
:10170000F8949091861780918517981304C0789467
:1017100080E091E0089578948091851790E001969B
:101720008F77992780938517FC01E757F84E208122
:101730008091841790E0982F8827820F911D08953B
:10174000F8949091861780918517981304C0789427
:1017500080E091E008957894E0918517F0E031966B
:10176000EF77FF27E757F84E20818091841790E0AC
:10177000982F8827820F911D08952091881730E0B7
:101780002F5F3F4F2F7733274091871750E0241763
:101790003507D1F3F901E75FF74E8083209388176F
:1017A000809131018062809331010895CF93DF935E
:1017B000EC018991882319F00E94BD0BFACFDF91CB
:1017C000CF910895CF93DF93FC018491EF0121968F
:1017D000882321F00E94BD0BFE01F7CFDF91CF914E
:1017E0000895F8948091861720918517789490E059
:1017F00080589F4F821B91098F7799270895F894FD
:10180000809185178093861778940895F894E1EB7A
:10181000F0E0108282E88093B200B898A0E7B0E0D0
:101820008C9181608C931092B00080818460808361
:101830007894089510928F1910928E191092911920
:1018400010929019E1EBF0E080818160808308952F
:10185000E1EBF0E080818E7F80830895CF93DF936A
:101860000E94E0098F3F09F414C1833509F062C07A
:1018700062EB76E182E492E00E94901782E492E0CB
:101880000E94F0092FEF8FE794E0215080409040B4
:10189000E1F700C000000E94E0098F3F09F4F9C0A1
:1018A000282F082E000C330B309369022093680216
:1018B0003F938F938EE397E19F938F93C2E4D2E09F
:1018C000DF93CF930E94AB17CE010E94F0099FEFE8
:1018D0002FE784E0915020408040E1F700C00000F5
:1018E0000E94E0090F900F900F900F900F900F90B3
:1018F0008F3F09F4CEC0282F082E000C330B3093F5
:101900006702209366023F938F9384EB96E19F9347
:101910008F93DF93CF930E94AB17CE010E94F00903
:101920000E941A0C10929B1910929A1981E08093D0
:10193000991955C0863409F0ACC08FEF9FE724E0B9
:10194000815090402040E1F700C000000E94E00973
:10195000C82F69EB76E182E492E00E94901782E45E
:1019600092E00E94F009CD3409F042C06BEB76E1C1
:1019700082E492E00E94901782E492E00E94F009D3
:101980008FEF9FE724E0815090402040E1F700C0B6
:1019900000000E94E0098F3F09F47BC0282F082E29
:1019A000000C330B30936702209366023F938F93B2
:1019B00085EB96E19F938F9382E492E09F938F93C0
:1019C0000E94AB1782E492E00E94F0090E941A0C78
:1019D00081E080939A1910929B1910929919809323
:1019E00098190F900F900F900F900F900F9051C07B
:1019F000CD3609F04EC06EEB76E182E492E00E94B3
:101A0000901782E492E00E94F0098FEF9FE724E0B4
:101A1000815090402040E1F700C000000E94E009A2
:101A20008F3FB9F1282F082E000C330B309367023B
:101A3000209366023F938F9385EB96E19F938F935C
:101A400082E492E09F938F930E94AB1782E492E02E
:101A50000E94F00961EC76E182E492E00E94901726
:101A600082E492E00E94F0090E941A0C81E08093C7
:101A70009B1910929A1910929919809398190F90A6
:101A80000F900F900F900F900F90DF91CF910C94CB
:101A9000FF0BDF91CF910895CF93C0919819CC237C
:101AA00061F069EC76E182E492E00E94901782E4B2
:101AB00092E00E94F009109298198C2FCF9108950E
:101AC0008091680290916902089580919919089512
:101AD00080919A19089580919B19089580916602CA
:101AE00090916702089566ED76E182E492E00E94AB
:101AF000901782E492E00C94F0096FED76E182E4B5
:101B000092E00E94901782E492E00E94F0090C9407
:101B1000280C80918E1990918F1908951092971921
:101B200081E08093961910929519089581E0809331
:101B30009719109296191092951908951092971965
:101B40001092961981E080939519089590936502FB
:101B50008093640208953B9A439808950E94060C6E
:101B60000C94AB0D439A089581E0809394190E94E0
:101B7000B20D80919919882309F44BC08091951971
:101B800094E0899F9001112490919619892F90E0FB
:101B9000880F991F822B932B20919719822B8130CC
:101BA0009105A1F02CF4892B89F566EE76E13BC016
:101BB00082309105A1F0039749F580918F198F9399
:101BC00080918E198F9381E197E111C080918F19D7
:101BD0008F9380918E198F938FEF96E108C080913B
:101BE0008F198F9380918E198F9388E097E19F933F
:101BF0008F9382E492E09F938F930E94AB170F9094
:101C00000F900F900F900F900F9011C067E177E148
:101C10000AC080919A1981110EC080919B1981117F
:101C20000AC062E277E182E492E00E94901782E4C7
:101C300092E00C94F00980918F198F9380918E1906
:101C40008F93809165028F93809164028F9386E3D6
:101C500097E19F938F9382E492E09F938F930E94EA
:101C6000AB178DB79EB708960FB6F8949EBF0FBE00
:101C70008DBFDDCF439808951F920F920FB60F923C
:101C800011240BB60F922F933F934F935F936F9353
:101C90007F938F939F93AF93BF93EF93FF93809125
:101CA00090199091911901969093911980939019A0
:101CB0008091901990919119883E934040F18091C4
:101CC0008E1990918F19019690938F1980938E1988
:101CD0001092911910929019809194198823B9F05B
:101CE00080919219909193199C012F5F3F4F3093EF
:101CF000931920939219029754F00E943A0E0E9471
:101D0000280C10929419109293191092921982E84B
:101D10008093B200B898FF91EF91BF91AF919F91DE
:101D20008F917F916F915F914F913F912F910F9084
:101D30000BBE0F900FBE0F901F90189580916A02F6
:101D400008958091A1199091A21908959C01261BD4
:101D5000370BE4E6E29FC001E39F900D11249A0146
:101D6000261B370BB9010E94DF1377FD05C06536CE
:101D7000710524F4862F089580E0089584E608957F
:101D8000CF9383E00E946D058093B31982E00E9497
:101D90006D058093B21981E00E946D05C82F809374
:101DA000B1194091A9195091AA19609177027091C7
:101DB00078028091B31990E00E94A60E8093B0192A
:101DC0004091A7195091A8196091750270917602FF
:101DD0008C2F90E00E94A60E8093AE194091A51919
:101DE0005091A61960917302709174028091B2199A
:101DF00090E00E94A60E8093AF19CF9108950E94A3
:101E0000C00E8091B31990E02091A9193091AA19C0
:101E10002817390724F49093AA198093A9192091BF
:101E20007702309178028217930724F49093780216
:101E3000809377028091B21990E02091A51930919A
:101E4000A6192817390724F49093A6198093A51989
:101E500020917302309174028217930724F49093B7
:101E60007402809373028091B11990E02091A719B8
:101E70003091A8192817390724F49093A819809352
:101E8000A71920917502309176028217930724F4E6
:101E90009093760280937502089581E00E94A408D1
:101EA0000E9485086DE78DE70E94C40980E00E94CA
:101EB000A4088A3591051CF40E94FF0EF7CF81E03B
:101EC0000E94A4080E947E0880E00E94A408843B2F
:101ED00091051CF40E94FF0EF7CF81E00E94A40838
:101EE0000E94850880E00E94A4088A3591051CF4B0
:101EF0000E94FF0EF7CF0C94A0088F929F92AF9292
:101F0000BF92CF92DF92EF92FF920E94C00EE090BC
:101F1000AE19F12CC090B019D12CB7016C197D0904
:101F2000072E000C880B990B0E9412154B015C01C7
:101F30008091AF19B601680F711D6E0D7F1D072EC0
:101F4000000C880B990B0E94121520E030E040E84D
:101F50005FE30E94FC139B01AC01C501B4010E9428
:101F6000681420E030E04FE753E40E949E154B01D7
:101F70005C019B01AC016091B4197091B51980911D
:101F8000B6199091B7190E94FB132FE632E143E096
:101F90005BE30E949E150E94DA146B017C0120E035
:101FA00030E040E05FE3C501B4010E949E150E944D
:101FB000DA14C60ED71E8092B4199092B519A09269
:101FC000B619B092B71968EC70E06C197D09C601BA
:101FD00088539F4F6F3F710509F02CF477FF05C0C0
:101FE00060E070E002C06FEF70E08F3F910509F094
:101FF0002CF497FF05C080E090E002C08FEF90E0E6
:10200000FF90EF90DF90CF90BF90AF909F908F9018
:102010000C94C409EF92FF920F931F93CF93DF9319
:1020200000E010E0C0E0D0E0E82EF12C0E151F0516
:102030000CF0A7C08091B219803108F49FC0809144
:10204000B319803108F09AC08091B119803108F03D
:1020500095C00E94C00E91E08091B3198B3008F0BA
:1020600090E09093A01981E02091B1192B3008F0F5
:1020700080E080939F1941E02091B2192B3008F045
:1020800040E040939E19990F990F440F492BE42F7C
:10209000E82BE0939D194E2FEE0F550B660B770B37
:1020A000FA013197E730F10530F48827EE58FF4FF9
:1020B0008F4F0C94F3130E9470086FEA8DE70E9413
:1020C000C409B8CF0E948C086DE780E012C00E945E
:1020D00070086AEA8AEA0E94C4092FEF8FE392E04F
:1020E000215080409040E1F746C00E947E086FEA90
:1020F0008DE70E94C4092FEF8FE392E021508040CA
:102100009040E1F700C00000C1E0D0E093CF0E9412
:10211000910860E08DE712C00E9470086FEA8FEAB4
:102120000E94C4092FEF8FE794E021508040904037
:10213000E1F721C00E9485086DE78FEA0E94C4097B
:102140002FEF8FE392E0215080409040E1F700C0F4
:102150000000C0E0D0E06ECF209719F40E948508FF
:1021600002C00E947E086DE78DE70E94C4098FEFD0
:1021700097E40197F1F700C000005CCF0F5F1F4F9D
:1021800055CF8FE590E00E946C09DF91CF911F91B0
:102190000F91FF90EF900C94A0080F931F93CF9393
:1021A000DF93082F0E947008C0E0D0E010E0C01755
:1021B000D107D4F40E947D0F8091B2198D31D0F3F4
:1021C0008091B3198D3120F48091B1198D3190F344
:1021D0000E94A00868EC88EC0E94C4098FE590E09A
:1021E0000E946C092196E3CFDF91CF911F910F914F
:1021F00008956FEA8FEA0E94C40985E590E00E9485
:1022000080096FEA8FEA0E94C4090E947E080E943A
:10221000C00E8091B2198031D0F30C94A0086FEAFF
:102220008FEA0E94C40985E590E00E948A096FEA5E
:102230008FEA0E94C4090E9485080E94C00E809106
:10224000B2198031D0F30C94A008CF9390916A0218
:102250008917A1F1803391F1C82F9E3449F01CF405
:10226000953469F029C0933589F09735B1F024C0D1
:102270008335C9F08735F1F08534F1F418C0833522
:10228000B1F0873581F08E34B9F414C08E3459F032
:10229000873569F0853481F40DC08E3441F0833583
:1022A00049F0853449F48AE590E00E948A090E9449
:1022B0000F1102C00E94F910C0936A02CF910895D5
:1022C000CF9390916A028917C1F18033B1F1C82F81
:1022D0009E3449F01CF4953469F02DC0933589F093
:1022E0009735B1F028C08335C9F0873501F18534C1
:1022F00011F518C08335B1F0873581F08E34D9F4EB
:1023000016C08E3459F0873569F08534A1F40FC0BA
:102310008E3441F0833559F0853469F48AE590E0D4
:102320000E948A098AE590E00E948A0904C08AE531
:1023300090E00E948009C0936A02CF9108959C01A9
:10234000215031092031310520F4FC01E556FD4FC3
:10235000608308959C01215031092031310528F412
:10236000FC01E556FD4F8081089580E30895E091DA
:10237000B819F091B919EE0FFF1FE555FD4F808197
:10238000918108958091B8199091B919019690930F
:10239000B9198093B8190895E091BA19F091BB1951
:1023A000E353FD4F80810895880F991FFC01E45489
:1023B000F64E808191810895CF93DF93FC0120E058
:1023C00030E08FEF9FE74FEF5FE7EB01A991BE0190
:1023D000A11107C0A081B1814A175B0714F0C901A0
:1023E000AD012F5F3F4F32962334310571F7DF91F6
:1023F000CF910895CF93DF93EC01FC01EE0FFF1F07
:10240000E454F64E808191818F3F2FEF920771F057
:102410000E94FA11DF93CF9382E497E19F938F9309
:102420000E9497170F900F900F900F90DF91CF9110
:1024300008956F927F928F929F92AF92BF92CF92A8
:10244000DF92EF92FF920F931F93CF93DF93CDB75D
:10245000DEB7C354D1090FB6F894DEBF0FBECDBFAF
:10246000DE011196E2E4FAE12FEF3FE72193319389
:102470001D924AE1E83CF407C9F72FEF3FEF309394
:10248000BD192093BC19FC01EE0FFF1FEE5BF54E4A
:102490001182108202E410E08824839463E4962E73
:1024A000BE016F5F7F4F82E49AE10E94DC11E1E0A0
:1024B000F0E0EC0FFD1FE80FF91F80822CEB622E7D
:1024C00029E1722E989E5001999EB00C1124E2E4ED
:1024D000FAE1DE0111967D0120E030E0BC01660FDB
:1024E000771F6E5B754ED7014D917D01411118C06C
:1024F000A9014A0D5B1D4F595C4FDA01DC90DD20CC
:1025000079F0DB014D915C914D0D511DC080D18062
:102510004C155D052CF4D3018D939C93518340831E
:102520002F5F3F4FB2E06B0E711C329623343105A2
:10253000D1F60150110909F0B3CFCD5BDF4F0FB6D3
:10254000F894DEBF0FBECDBFDF91CF911F910F91E9
:10255000FF90EF90DF90CF90BF90AF909F908F90C3
:102560007F906F900895CF93DF93EC01CB010E9491
:102570001912FE0183E0EE0FFF1F8A95E1F7EF527B
:10258000FD4FD081C1815091BA194091BB1920E013
:1025900030E068EB7BE081919191DC01AA0FBB1FD9
:1025A000AE5BB54E0D90BC91A02DA617B7071CF0E1
:1025B0008D2F9C2F03C0522F432FBD012F5F3F4F04
:1025C0002430310519F0D82FC92FE5CF5093BA190F
:1025D0004093BB19DF91CF9108959C01623371053F
:1025E000C0F582339105A8F5A3E4A89FF001A99F47
:1025F000F00D1124EF59FC4FE60FF71F1082A69F34
:10260000C001A79F900D1124AC014F595C4FFA01F6
:10261000E20FF31F1082FB01EE0FFF1FE454F64E92
:10262000808191818F3F2FEF920779F0A89F9001D1
:10263000A99F300D11242F593C4FF901E60FF71FC8
:102640001082FA01E80FF91F108282E490E00C94E6
:10265000191208950F931F93CF93DF939C01FB01F1
:10266000009749F08234910501F1309741F06234CE
:10267000710569F480C06D33710549F478C08597A0
:1026800031F02D33310519F4309709F46EC0C901CA
:102690006EE070E00E94DF13EC018A3091055CF47B
:1026A000219780F4C8E0D0E00DC06532710509F4CF
:1026B00067C08AE090E065E070E00E94DF13EC0103
:1026C000CC0FDD1FC90101972EE030E0B9010E9457
:1026D000DF138B01000F111F69E070E00E94DF1310
:1026E000060F171FCF01B9010E94DF138A30910531
:1026F0003CF49C012150310950F428E030E007C03F
:1027000065E070E00E94DF139C01220F331FCF01B0
:1027100001976EE070E00E94DF13FB01EE0FFF1FD8
:1027200069E070E00E94DF136E0F7F1F601B710B6A
:102730002C1B3D0B6130710521F06F3F8FEF780747
:1027400069F421303105A9F02F3F8FEF380789F068
:102750006130710551F06F3F7F4F49F021303105F5
:1027600069F02F3F3F4F29F40BC083E50AC08EE488
:1027700008C080E306C0859709F083CF85E401C0D7
:1027800087E5DF91CF911F910F9108950E94CB02B1
:1027900080E090E00895AA1BBB1B51E107C0AA1F6F
:1027A000BB1FA617B70710F0A61BB70B881F991FF2
:1027B0005A95A9F780959095BC01CD01089597FB96
:1027C000072E16F4009407D077FD09D00E94CB1392
:1027D00007FC05D03EF4909581959F4F0895709524
:1027E00061957F4F0895EE0FFF1F881F8BBF0790E5
:1027F000F691E02D19945058BB27AA270E94131474
:102800000C9464150E94561538F00E945D1520F056
:1028100039F49F3F19F426F40C9453150EF4E09507
:10282000E7FB0C944D15E92F0E94751558F3BA1764
:10283000620773078407950720F079F4A6F50C94D6
:1028400097150EF4E0950B2EBA2FA02D0B01B901B0
:1028500090010C01CA01A0011124FF27591B99F016
:10286000593F50F4503E68F11A16F040A22F232F22
:10287000342F4427585FF3CF469537952795A79572
:10288000F0405395C9F77EF41F16BA0B620B730B19
:10289000840BBAF09150A1F0FF0FBB1F661F771F8A
:1028A000881FC2F70EC0BA0F621F731F841F48F43F
:1028B000879577956795B795F7959E3F08F0B0CFC8
:1028C0009395880F08F09927EE0F979587950895AF
:1028D0000E947C140C9464150E945D1558F00E94AF
:1028E000561540F029F45F3F29F00C944D15511115
:1028F0000C9498150C9453150E94751568F3992340
:10290000B1F3552391F3951B550BBB27AA276217EB
:102910007307840738F09F5F5F4F220F331F441FF8
:10292000AA1FA9F335D00E2E3AF0E0E832D091502C
:102930005040E695001CCAF72BD0FE2F29D0660F19
:10294000771F881FBB1F261737074807AB07B0E85C
:1029500009F0BB0B802DBF01FF2793585F4F3AF062
:102960009E3F510578F00C944D150C9498155F3FDF
:10297000E4F3983ED4F3869577956795B795F795E8
:102980009F5FC9F7880F911D9695879597F90895D0
:10299000E1E0660F771F881FBB1F6217730784076C
:1029A000BA0720F0621B730B840BBA0BEE1F88F77B
:1029B000E09508950E94E1146894B1110C94981563
:1029C00008950E947D1588F09F5798F0B92F992798
:1029D000B751B0F0E1F0660F771F881F991F1AF00A
:1029E000BA95C9F714C0B13091F00E949715B1E0C3
:1029F00008950C949715672F782F8827B85F39F0C2
:102A0000B93FCCF3869577956795B395D9F73EF4A2
:102A100090958095709561957F4F8F4F9F4F08954A
:102A2000E89409C097FB3EF4909580957095619568
:102A30007F4F8F4F9F4F9923A9F0F92F96E9BB271E
:102A40009395F695879577956795B795F111F8CF9A
:102A5000FAF4BB0F11F460FF1BC06F5F7F4F8F4F05
:102A60009F4F16C0882311F096E911C0772321F0FB
:102A70009EE8872F762F05C0662371F096E8862F93
:102A800070E060E02AF09A95660F771F881FDAF7EA
:102A9000880F9695879597F9089597F99F6780E82D
:102AA00070E060E008959FEF80EC089500240A94A0
:102AB0001616170618060906089500240A94121619
:102AC0001306140605060895092E0394000C11F44C
:102AD000882352F0BB0F40F4BF2B11F460FF04C0F9
:102AE0006F5F7F4F8F4F9F4F089557FD9058440F52
:102AF000551F59F05F3F71F04795880F97FB991F5D
:102B000061F09F3F79F08795089512161306140619
:102B1000551FF2CF4695F1DF08C0161617061806A6
:102B2000991FF1CF86957105610508940895E89481
:102B3000BB2766277727CB0197F908950E94B11527
:102B40000C9464150E94561538F00E945D1520F013
:102B5000952311F00C944D150C94531511240C94DD
:102B600098150E94751570F3959FC1F3950F50E06D
:102B7000551F629FF001729FBB27F00DB11D639F2F
:102B8000AA27F00DB11DAA1F649F6627B00DA11DD5
:102B9000661F829F2227B00DA11D621F739FB00D7B
:102BA000A11D621F839FA00D611D221F749F3327EB
:102BB000A00D611D231F849F600D211D822F762F84
:102BC0006A2F11249F5750409AF0F1F088234AF061
:102BD000EE0FFF1FBB1F661F771F881F91505040CD
:102BE000A9F79E3F510580F00C944D150C94981553
:102BF0005F3FE4F3983ED4F3869577956795B79554
:102C0000F795E7959F5FC1F7FE2B880F911D96956D
:102C1000879597F90895FA01EE0FFF1F3096210569
:102C20003105A1F16115710561F48038BFE39B079F
:102C300049F168949038810561F08038BFEF9B07B7
:102C400041F099234AF5FF3FE1053105210519F1CE
:102C5000E8940894E795D901AA2329F4AB2FBE2F55
:102C6000F85FD0F310C0FF5F70F4A695E0F7F73976
:102C700050F019F0FF3A38F49F779F930DD00F90E2
:102C800007FC9058089546F00C94531560E070E0EE
:102C900080E89FE308954FE79F775F934F933F93BB
:102CA0002F930E9406172F913F914F915F910E94A1
:102CB0009E150C94631629F416F00C944D150C9483
:102CC00097150C9453150E947D15A8F39638A0F71C
:102CD00007F80F92E8942BE33AEA48EB5FE70E948B
:102CE000B4150F920F920F924DB75EB70F920E94DC
:102CF0004E17E2EFF0E00E9495164F915F91EF9131
:102D0000FF91E595EE1FFF1F49F0FE57E06844274D
:102D1000EE0F441FFA95E1F74195550B0E94C81636
:102D20000F9007FE0C94BC160895DF93CF931F936A
:102D30000F93FF92EF92DF927B018C01689406C0A3
:102D4000DA2EEF010E94B115FE01E894A5912591BC
:102D5000359145915591A6F3EF010E941314FE01A0
:102D60009701A801DA9469F7DF90EF90FF900F9137
:102D70001F91CF91DF9108959B01AC0160E070E05D
:102D800080E89FE30C9468140C944D150C94821702
:102D90000E947D15D8F39923C9F3940F511DA3F315
:102DA0009150504094F059F0882332F0660F771F0D
:102DB000881F91505040C1F79E3F51052CF7880F56
:102DC000911D9695879597F908955F3FACF0983ED1
:102DD0009CF0BB27869577956795B79508F4B16009
:102DE0009395C1F7BB0F58F711F460FFE8CF6F5F01
:102DF0007F4F8F4F9F4FE3CF0C94981516F00C9494
:102E000082170C94531568940C944D150E947D15EF
:102E1000A8F39923C1F3AEF3DF93CF931F930F93DE
:102E2000FF92C92FDD2788232AF02197660F771F8D
:102E3000881FDAF720E030E040E85FEB9FE3883955
:102E400020F0803E38F021968F770E94FC13EAE153
:102E5000F1E004C00E94FC13E7E4F1E00E94951643
:102E60008B01BE01EC01FB2E6F5771097595771F21
:102E7000880B990B0E94121528E132E741E35FE3CA
:102E80000E94B115AF2D9801AE01FF900F911F91D7
:102E9000CF91DF910E9413140C946415FA01DC01A8
:102EA000AA0FBB1F9B01AC01BF5728F42227332771
:102EB0004427507820C0B75190F4AB2F002446959A
:102EC00037952795011CA395D2F3002071F0220FAE
:102ED000331F441FB395DAF30ED00C94FB1361300B
:102EE0007105A0E88A07B94630F49B01AC0166275A
:102EF000772788279078309621F02083318342838A
:102F0000538308959F3F31F0915020F48795779532
:102F10006795B795880F911D9695879597F90895B0
:102F2000FB01DC0101900D920020E1F70895CF93A1
:102F3000DF93CDB7DEB7AE014A5F5F4FFA01619113
:102F40007191AF018091CA1A9091CB1A0E94DA1741
:102F5000DF91CF9108950F931F93CF93DF93CDB758
:102F6000DEB72E970FB6F894DEBF0FBECDBF0E8929
:102F70001F8986E08C831A8309838FEF9FE79E83E6
:102F80008D83AE01465E5F4F688D798DCE010196CF
:102F90000E94DA17EF81F885E00FF11F10822E965C
:102FA0000FB6F894DEBF0FBECDBFDF91CF911F915A
:102FB0000F9108952F923F924F925F926F927F925E
:102FC0008F929F92AF92BF92CF92DF92EF92FF9239
:102FD0000F931F93CF93DF93CDB7DEB72B970FB629
:102FE000F894DEBF0FBECDBF6C017B018A01FC01EE
:102FF00017821682838181FFCCC1CE0101963C01EC
:10300000F6019381F70193FD859193FF81917F01F3
:10301000882309F4BAC1853239F493FD859193FF71
:1030200081917F01853229F4B60190E00E94FA195E
:10303000E7CF912C212C312CFFE1F315D8F08B3206
:1030400079F038F4803279F08332A1F4232D2061B5
:103050001DC08D3261F0803369F4232D216016C0CC
:10306000832D8260382EE32DE4603E2E2AC0F32D9E
:10307000F8601DC037FC2DC020ED280F2A3040F02D
:103080008E32B9F436FC81C1232D2064322E19C052
:1030900036FE06C08AE0989E200D1124922E11C0A3
:1030A000EAE02E9E200D1124222EF32DF0623F2EF9
:1030B00008C08C3621F4832D8068382E02C08836F3
:1030C00041F4F70193FD859193FF81917F01811177
:1030D000B3CF982F9F7D9554933028F40C5F1F4FEA
:1030E0009FE399830DC0833631F0833771F08335C8
:1030F00009F059C021C0F801808189830E5F1F4FFC
:1031000088248394912C530113C02801F2E04F0EC0
:10311000511CF801A080B18036FE03C0692D70E01B
:1031200002C06FEF7FEFC5010E94EF194C018201D1
:10313000F32DFF773F2E16C0280122E0420E511CCE
:10314000F801A080B18036FE03C0692D70E002C096
:103150006FEF7FEFC5010E94E4194C01F32DF06879
:103160003F2E820133FC1BC0822D90E08816990609
:10317000B0F4B60180E290E00E94FA192A94F4CFEC
:10318000F50137FC859137FE81915F01B60190E032
:103190000E94FA1921102A9421E0821A91088114C0
:1031A000910471F7E8C0843611F0893641F5F801D1
:1031B00037FE07C060817181828193810C5F1F4F50
:1031C00008C060817181072E000C880B990B0E5F7F
:1031D0001F4FF32DFF763F2E97FF09C090958095E6
:1031E000709561957F4F8F4F9F4FF0683F2E2AE07B
:1031F00030E0A3010E94361A882E861845C0853714
:1032000031F4232D2F7EB22E2AE030E025C0932DFD
:10321000997FB92E8F36C1F018F4883579F0B5C092
:10322000803719F0883721F0B0C0E92FE061BE2E59
:10323000B4FE0DC0FB2DF460BF2E09C034FE0AC0E1
:10324000292F2660B22E06C028E030E005C020E11C
:1032500030E002C020E132E0F801B7FE07C0608133
:103260007181828193810C5F1F4F06C060817181E3
:1032700080E090E00E5F1F4FA3010E94361A882E57
:103280008618FB2DFF773F2E36FE0DC0232D2E7F97
:10329000A22E891458F434FE0BC032FC09C0832DD1
:1032A0008E7EA82E05C0B82CA32C03C0B82C01C05C
:1032B000B92CA4FE0FC0FE01E80DF11D8081803302
:1032C00021F49A2D997EA92E09C0A2FE06C0B394BE
:1032D000B39404C08A2D867809F0B394A3FC11C07E
:1032E000A0FE06C0B21488F4280C922C9B180EC0C5
:1032F000B21460F4B60180E290E00E94FA19B3942F
:10330000F7CFB21418F42B1802C0982C212CA4FE6D
:1033100010C0B60180E390E00E94FA19A2FE17C027
:10332000A1FC03C088E790E002C088E590E0B60108
:103330000CC08A2D867859F0A1FE02C08BE201C034
:1033400080E2A7FC8DE2B60190E00E94FA19891490
:1033500038F4B60180E390E00E94FA199A94F7CF0E
:103360008A94F301E80DF11D8081B60190E00E947E
:10337000FA198110F5CF222009F442CEB60180E27D
:1033800090E00E94FA192A94F6CFF601868197817F
:1033900002C08FEF9FEF2B960FB6F894DEBF0FBEE3
:1033A000CDBFDF91CF911F910F91FF90EF90DF90F4
:1033B000CF90BF90AF909F908F907F906F905F90D5
:1033C0004F903F902F900895FC0105906150704000
:1033D0000110D8F7809590958E0F9F1F0895FC01DE
:1033E0006150704001900110D8F7809590958E0F34
:1033F0009F1F08950F931F93CF93DF93FB012381AA
:1034000021FD03C08FEF9FEF2CC022FF16C0468125
:103410005781248135814217530744F4A081B1813B
:103420009D012F5F3F4F318320838C93268137810D
:103430002F5F3F4F3783268314C08B01EC01FB01C4
:103440000084F185E02D1995892BE1F6D8011696B7
:103450008D919C911797019617969C938E93169732
:10346000CE01DF91CF911F910F910895FA01AA2704
:10347000283051F1203181F1E8946F936E7F6E5FB7
:103480007F4F8F4F9F4FAF4FB1E03ED0B4E03CD065
:10349000670F781F891F9A1FA11D680F791F8A1F48
:1034A000911DA11D6A0F711D811D911DA11D20D0AF
:1034B00009F468943F912AE0269F11243019305D69
:1034C0003193DEF6CF010895462F4770405D41935A
:1034D000B3E00FD0C9F7F6CF462F4F70405D4A33A7
:1034E00018F0495D31FD4052419302D0A9F7EACF6F
:1034F000B4E0A6959795879577956795BA95C9F79E
:1035000000976105710508959B01AC010A2E069490
:103510005795479537952795BA95C9F7620F731F49
:0C352000841F951FA01D0895F894FFCF94
:10352C00420048656C6C6F2C204920616D20612035
:10353C0046697265626972642D2D2D2D2D2D2D2DF0
:10354C0020560A0048656C6C6F20576F726C6420B3
:10355C004920616D20612046697265626972642040
:10356C00560048656C6C6F2C204920616D206120E1
:10357C0046697265626972642D2D2D2D2D2D2D2DB0
:10358C0020560A000100010001004E040005000451
:10359C00000000FF0FFF0FFF0F48656C6C6F2C20B5
:1035AC004920616D20612046697265626972642DE3
:1035BC002D2D2D2D2D2D2D20560A00303030303054
:1035CC0030303030303030303030300D00090005C4
:1035DC00000100020006000A000E000F000B00079D
:1035EC00000300040008000C0010001100455357A4
:1035FC004E0A0002000B0010000A0002000B001023
:10360C00000B0004000C0012000C0006000D00144E
:10361C00000D0008000E0016001800100019001E06
:10362C0000190012001A0020001A0014001B0022BE
:10363C00001B0016001C00240026001E0027002C76
:10364C00002700200028002E00280022002900302E
:10365C0000290024002A00320034002C0035003AE6
:10366C000035002E0036003C003600300037003E9E
:10367C000037003200380040004200420042004255
:10368C00000000000000000000000000000000002E
:10369C00000000000000000000000000000000001E
:1036AC00000000000000000000000000000000000E
:1036BC0000000000000000000000000000000100FD
:1036CC0000000000000001000000000000000100EC
:1036DC0000000000000000000000000000000000DE
:1036EC0000000000000000000000000000000000CE
:1036FC0000000000000000000000000000000000BE
:10370C0000000000000000000100010000000000AB
:10371C00000000000000000000000000000000009D
:10372C00000000000000000000000000000000008D
:10373C00000000000000000000000000000000007D
:10374C00000000000000000000000000010001006B
:10375C00000000000001000000000000000000005C
:10376C00000000000000000000000000000000004D
:10377C00000000000000000000000000000000003D
:10378C00000000000000000000000000000000002D
:10379C00010001000000000000000000000000001B
:1037AC00000000000000000000000000000000000D
:1037BC0000000000000000000000000000000000FD
:1037CC0000000000000000000000000000000000ED
:1037DC0000000000010001000000000001000000DA
:1037EC0000000000000000000000000000000000CD
:1037FC0000000000000000000000000000000000BD
:10380C0000000000000000000000000000000000AC
:10381C00000000000000000001000100000000009A
:10382C00000000000000000000000000000000008C
:10383C00000000000000000000000000000000007C
:10384C00000000000000000000000000000000006C
:10385C00000000000000000000000000010001005A
:10386C00000000010000000000000000000000004B
:10387C00000000000000000000000000000000003C
:10388C00000000000000000000000000000000002C
:10389C00000000000000000000000000000000001C
:1038AC00010001000000000000000000000000000A
:1038BC0000000000000000000000000000000000FC
:1038CC0000000000000000000000000000000000EC
:1038DC0000000000000000000000000000000000DC
:1038EC0000000000010000000000010000000000CA
:1038FC0000000000000000000000000000000000BC
:10390C0000000000000000000000000000000000AB
:10391C00000000000000000000000000000000009B
:10392C000100000000000000000000000000010089
:10393C00000000000000000000000000000000007B
:10394C00000000000000000000000000000000006B
:10395C00000000000000000000000000000000005B
:10396C00000000000001000000000000000000004A
:10397C00000000010000000000000000000000003A
:10398C00000000000000000000000000000000002B
:10399C00000000000000000000000000000000001B
:1039AC00000000000000000000000100000000000A
:1039BC0000000000000000000100000000000000FA
:1039CC0000000000000000000000000000000000EB
:1039DC0000000000000000000000000000000000DB
:1039EC0000000000000000000000000000000001CA
:1039FC0000000000000000000000000000010000BA
:103A0C0000000000000000000000000000000000AA
:103A1C00000000000000000000000000000000009A
:103A2C00000000000000000000000000000000008A
:103A3C000000000001000000000000000000000079
:103A4C000000010000000000000000000000000069
:103A5C00000000000000000000000000000000005A
:103A6C00000000000000000000000000000000004A
:103A7C000000000000000000010000000000010038
:103A8C000000000000000100000000000000000029
:103A9C00000000000000000000000000000000001A
:103AAC00000000000000000000000000000000000A
:103ABC0000000000000000000000000000000000FA
:103ACC0001000100000000000000000000000000E8
:103ADC0000000000000000000000000000000000DA
:103AEC0000000000000000000000000000000000CA
:103AFC0000000000000000000000000000000001B9
:103B0C0000000000010001000000000000010000A6
:103B1C000000000000000000000000000000000099
:103B2C000000000000000000000000000000000089
:103B3C000000000000000000000000000000000079
:103B4C000000000000000000010001000000000067
:103B5C000000000000000000000000000000000059
:103B6C000000000000000000000000000000000049
:103B7C000000000000000000000000000000000039
:103B8C000000000000000100000000000100010026
:103B9C000000000001000000000000000000000018
:103BAC000000000000000000000000000000000009
:103BBC0000000000000000000000000000000000F9
:103BCC0000000000000000000000000000000000E9
:103BDC0001000100000000000000000000000000D7
:103BEC0000000000000000000000000000000000C9
:103BFC0000000000000000000000000000000000B9
:103C0C0000000000000000000000000000010000A7
:103C1C000000000001000100000000010000000095
:103C2C000000000000000000000000000000000088
:103C3C000000000000000000000000000000000078
:103C4C000000000000000000000000000000000068
:103C5C000000000000000000010001000000000056
:103C6C000000000000000000000000000000000048
:103C7C000000000000000000000000000000000038
:103C8C000000000000000000000000000000000028
:103C9C000000000001000000000000000100000016
:103CAC000000010000000000000000000000000007
:103CBC0000000000000000000000000000000000F8
:103CCC0000000000000000000000000000000000E8
:103CDC0000000000000000000100000000000000D7
:103CEC0000000000000001000000000000000000C7
:103CFC0000000000000000000000000000000000B8
:103D0C0000000000000000000000000000000000A7
:103D1C000000000000000000000000000001000096
:103D2C000000000000000000000000010000000086
:103D3C000000000000000000000000000000000077
:103D4C000000000000000000000000000000000067
:103D5C000000000000000000000000000000000057
:103D6C000000010000000000000000000000000046
:103D7C000100000000000000000000000000000036
:103D8C000000000000000000000000000000000027
:103D9C000000000000000000000000000000000017
:103DAC000000000000000001000000000000000006
:103DBC0000000000000100000000000000000000F6
:103DCC0000000000000000000000000000000000E7
:103DDC0000000000000000000000000000000000D7
:103DEC0000000000000000000000000001000000C6
:103DFC0000000000000000000000010000000000B6
:103E0C0000000000000000000000000000000000A6
:103E1C000000000000000000000000000000000096
:103E2C000000000000000000000000000000000086
:103E3C000100000000000100000000000000010073
:103E4C000000000000000000000000000000000066
:103E5C000000000000000000000000000000000056
:103E6C000000000000000000000000000000000046
:103E7C000000000000000000010001000000000034
:103E8C000000000000000000000000000000000026
:103E9C000000000000000000000000000000000016
:103EAC000000000000000000000000000000000006
:103EBC0000000000000000010000000001000100F3
:103ECC0000000000000100000000000000000000E5
:103EDC0000000000000000000000000000000000D6
:103EEC0000000000000000000000000000000000C6
:103EFC0000000000000000000000000000000000B6
:103F0C0001000100000000000000000000000000A3
:103F1C000000000000000000000000000000000095
:103F2C000000000000000000000000000000000085
:103F3C000000000000000000000000000000010074
:103F4C000000000001000100000000000100000062
:103F5C000000000000000000000000000000000055
:103F6C000000000000000000000000000000000045
:103F7C000000000000000000000000000000000035
:103F8C000000000000000000010001000000000023
:103F9C000000000000000000000000000000000015
:103FAC000000000000000000000000000000000005
:103FBC0000000000000000000000000000000000F5
:103FCC0000000000000100000000000001000100E2
:103FDC0000000001000000000000000000000000D4
:103FEC0000000000000000000000000000000000C5
:103FFC0000000000000000000000000000000000B5
:10400C0000000000000000000000000000000000A4
:10401C000100010000000000000000000000000092
:10402C000000000000000000000000000000000084
:10403C000000000000000000000000000000000074
:10404C000000000000000000000000000100000063
:10405C000000000001000000000001000000000052
:10406C000000000000000000000000000000000044
:10407C000000010000000000000000000000000033
:10408C000000000000000000000000000000000024
:10409C000100000000000000000000000000010012
:1040AC000000000000000000000000000000000004
:1040BC0000000000000000000000000000000000F4
:1040CC0000000000000000000000000000000000E4
:1040DC0000000000000100000000000000000000D3
:1040EC0000000001000000000000000000000000C3
:1040FC0000000000000000000000000000000000B4
:10410C0000000000000000000000000000000000A3
:10411C000000000000000000000001000000000092
:10412C000000000000000000010000000000000082
:10413C000000000000000000000000000000000073
:10414C000000000000000000000000000000000063
:10415C000000000000000000000000000000000152
:10416C000000000000000000000000000001000042
:10417C000000000000000000000000000000000033
:10418C000000000000000000000000000000000023
:10419C000000000000000000000000000000000013
:1041AC000000000001000000000000000000000002
:1041BC0000000100000000000000000000000000F2
:1041CC0000000000000000000000000000000000E3
:1041DC0000000000000000000000000000000000D3
:1041EC0000000000000000000100000000000100C1
:1041FC0000000000000001000000000000000000B2
:10420C0000000000000000000000000000000000A2
:10421C000000000000000000000000000000000092
:10422C000000000000000000000000000000000082
:10423C000100010000000000000000000000000070
:10424C000000000000000000000000000000000062
:10425C000000000000000000000000000000000052
:10426C000000000000000000000000000000000141
:10427C00000000000100010000000000000100002F
:10428C000000000000000000000000000000000022
:10429C000000000000000000000000000000000012
:1042AC000000000000000000000000000000000002
:1042BC0000000000000000000100010000000000F0
:1042CC0000000000000000000000000000000000E2
:1042DC0000000000000000000000000000000000D2
:1042EC0000000000000000000000000000000000C2
:1042FC0000000000000001000000000001000100AF
:10430C0000000000010000000000000000000000A0
:10431C000000000000000000000000000000000091
:10432C000000000000000000000000000000000081
:10433C000000000000000000000000000000000071
:10434C00010001000000000000000000000000005F
:10435C000000000000000000000000000000000051
:10436C000000000000000000000000000000000041
:10437C000000000000000000000000000001000030
:10438C00000000000100010000000001000000001E
:10439C000000000000000000000000000000000011
:1043AC000000000000000000000000000000000001
:1043BC0000000000000000000000000000000000F1
:1043CC0000000000000000000100010000000000DF
:1043DC0000000000000000000000000000000000D1
:1043EC0000000000000000000000000000000000C1
:1043FC0000000000000000000000000000000000B1
:10440C00000000000100000000000000010000009E
:10441C00000001000000000000000000000000008F
:10442C000000000000000000000000000000000080
:10443C000000000000000000000000000000000070
:10444C00000000000000000001000000000000005F
:10445C00000000000000010000000000000000004F
:10446C000000000000000000000000000000000040
:10447C000000000000000000000000000000000030
:10448C00000000000000000000000000000100001F
:10449C00000000000000000000000001000000000F
:1044AC000000000000000000000000000000000000
:1044BC0000000000000000000000000000000000F0
:1044CC0000000000000000000000000000000000E0
:1044DC0000000100000000000000000000000000CF
:1044EC0001000000000000000000000000000000BF
:1044FC0000000000000000000000000000000000B0
:10450C00000000000000000000000000000000009F
:10451C00000000000000000100000000000000008E
:10452C00000000000001000000000000000000007E
:10453C00000000000000000000000000000000006F
:10454C00000000000000000000000000000000005F
:10455C00000000000000000000000000010000004E
:10456C00000000000000000000000100000000003E
:10457C00000000000000000000000000000000002F
:10458C00000000000000000000000000000000001F
:10459C00000000000000000000000000000000000F
:1045AC0001000000000001000000000000000000FD
:1045BC0000000000000000000000000000000000EF
:1045CC0000000000000000000000000000000000DF
:1045DC0000000000000000000000000000000000CF
:1045EC0000000000000000000100010000000000BD
:1045FC0000000000000000000000000000000000AF
:10460C00000000000000000000000000000000009E
:10461C00000000000000000000000000000000008E
:10462C00000000000000000100000000010001007B
:10463C00000000000000000000000000000000006E
:10464C00000000000000000000000000000000005E
:10465C00000000000000000000000000000000004E
:10466C00000000000000000000000000000000003E
:10467C00010001000000000001000000000000002B
:10468C00000000000000000000000000000000001E
:10469C00000000000000000000000000000000000E
:1046AC0000000000000000000000000000000100FD
:1046BC0000000000010001000000000000000000EC
:1046CC0000000000000000000000000000000000DE
:1046DC0000000000000000000000000000000000CE
:1046EC0000000000000000000000000000000000BE
:1046FC0000000000000000000100010000000000AC
:10470C00000000000000000000000000000000009D
:10471C00000000000000000000000000000000008D
:10472C00000000000000000000000000000000007D
:10473C00000000000001000000000000010001006A
:10474C00000000000000000000000000000000005D
:10475C00000000000000000000000000000000004D
:10476C00000000000000000000000000000000003D
:10477C00000000000000000000000000000000002D
:10478C00010001000000000000000000000000001B
:10479C00000000000000000000000000000000000D
:1047AC0000000000000000000000000000000000FD
:1047BC0000000000000000000000000001000000EC
:1047CC0000000000010000000000000000000000DC
:1047DC0000000000000000000000000000000000CD
:1047EC0000000000000000000000000001000000BC
:1047FC0000000000000000000000000000000000AD
:10480C0000000000000000000000317374204E6FA7
:10481C0064650A5E004D6964204E6F64650A5E0033
:10482C00393020446567726565204C656674207468
:10483C0075726E0A5E0043656E746572206F662039
:10484C00626C6F636B20726561636865640A5E00FD
:10485C004261636B206F6E206C696E650A5E004C62
:10486C00656674205475726E0A5E005374617274BE
:10487C00204C6F636174696F6E0A5E0046696E69E5
:10488C00736865640A5E00496E205461736B203254
:10489C00420A5E004265666F72652064696B7374D0
:1048AC0072612C2044657374206E6F64653A2564C4
:1048BC000A0044657320506C6F74204E753A256461
:1048CC000A00506C6F74205363616E20436F6D70DF
:1048DC006C6574650A5E004D6F76696E6720746F47
:1048EC00206E6F64653A25640A00526561636865E1
:1048FC0064206E6F64653A25640A00506C6F7420F6
:10490C006E7520256420726561636865640A0052C7
:10491C006F746174696F6E2066696E697368656423
:10492C000A5E00426C6F636B206E6F3A2025642028
:10493C0077697468204D616A6F7220496E6A75726E
:10494C00790A00426C6F636B206E6F3A20256420ED
:10495C0077697468204D696E6F7220496E6A757242
:10496C00790A00426C6F636B206E6F3A20256420CD
:10497C0077697468204E6F20496E6A7572790A00E7
:10498C00506C6F74207363616E20636F6D706C5E1E
:10499C005E0043616C20446F6E650A5E00436F6D70
:1049AC006D616E64205570646174650A5E005265B9
:1049BC00642050756C73657300477265656E20508A
:1049CC00756C73657300426C75652050756C7365FE
:1049DC00730053002D25640A0046004D2D006D2DEB
:1049EC0000436D642052780A0049735F436D643A4A
:1049FC00747275650A00616363657074656400693F
:104A0C00676E6F7265004572726F7220696E2074EA
:104A1C0061736B20636F6D706C6574696F6E006D84
:104A2C00696E6F722D2564006D616A6F722D25643D
:104A3C00006E6F2D2564005363616E2D4572726F8D
:104A4C0072004572726F72206465636F64696E6781
:104A5C00207461736B0066657463682D25642D2565
:064A6C0064002564200037
:00000001FF
