:100000000C94C8000C940B060C94E9000C94E900C5
:100010000C94E9000C9473080C944E080C94E900BD
:100020000C94E9000C94E9000C94E9000C94E900AC
:100030000C94E9000C94E9000C94E9000C944D0E2A
:100040000C94E9000C94E9000C94E9000C94E9008C
:100050000C94E9000C94E9000C94E9000C94E9007C
:100060000C94E9000C941A0A0C94530A0C94E900BD
:100070000C94E9000C94E9000C94E9000C94E9005C
:100080000C94E9000C94E9000C94E9000C94E9004C
:100090000C94E9000C94E9000C94E9000C94E9003C
:1000A0000C94E9000C94E9000C94E9000C94E9002C
:1000B0000C94E9000C94E9000C94E9000C94E9001C
:1000C0000C94E9000C94E9000C94E9000C94E9000C
:1000D0000C94E9000C94E9000C94240B0C945D0B37
:1000E0000C94E90078107D108B109D10A210B010B8
:1000F000C21007634236B79BD8A71A39685618AEA4
:10010000BAAB558C1D3CB7CC5763BD6DEDFD753E4C
:10011000F6177231BF000000803F08000000BE9259
:100120002449123EABAAAA2ABECDCCCC4C3E00003C
:100130000080BEABAAAAAA3E00000000BF000000DB
:10014000803F0000000000084178D3BB4387D113F3
:100150003D190E3CC3BD4282AD2B3E68EC8276BE9B
:10016000D98FE1A93E4C80EFFFBE01C4FF7F3F0065
:10017000000000000C947D100C9478100C94A210D8
:100180000C949D100C94B0100C948B100C94C21015
:1001900011241FBECFEFD1E2DEBFCDBF00E00CBF08
:1001A00016E1A0E0B2E0E6E9F8E300E00BBF02C030
:1001B00007900D92A038B107D9F72AE1A0E8B6E17F
:1001C00001C01D92A938B207E1F70E947B150C947B
:1001D000491C0C9400000E9472050E9479050E943F
:1001E00010030E9485030E9433060E9444060E9469
:1001F000FB070E9402080E940D080E9414080E943A
:1002000022080E94BF0D0C94120ACF9381E00E9435
:10021000E3106EE175E186E092E00E94451986E008
:1002200092E00E94180A81E00E94E31069E275E101
:1002300086E092E00E94451986E092E00E94180A4A
:100240006FEA8FEA0E94EC098AE590E00E94A80913
:1002500064E375E186E092E00E94451986E092E051
:100260000E94180A68EC88EC0E94EC0984EB90E08C
:100270000E9494096AE475E186E092E00E944519C3
:1002800086E092E00E94180A0E94AC07C82F0E94E4
:10029000100A0E94B4038C2F0E94E103C23519F4A6
:1002A0000E94040D07C0C73419F40E940C0D02C04F
:1002B0000E94140D84EB90E00E949E0964E675E1B3
:1002C00086E092E00E94451986E092E00E94180ABA
:1002D0000E94171163E775E186E092E00E944519DC
:1002E00086E092E00E94180A81E00E94E3106EE12D
:1002F00075E186E092E00E94451986E092E00E9456
:10030000180A81E00E94E3106FE775E186E092E051
:100310000E94451986E092E00E94180A60E975E1A2
:1003200086E092E00E94451986E092E0CF910C941D
:100330001D04DF92EF92FF920F931F93CF93DF93F1
:100340000E94560C0E94D00CD82E882309F4B8C005
:100350000E94DB0C882339F10E94B20EEC010E944E
:10036000D60CBE010E9463148C010E94D60CEC01D5
:100370000E944212BC01990F880B990B0E94C7166C
:100380002091020230910302409104025091050233
:100390000E941D160E948F167B010E94E40CE81635
:1003A000F906E4F10FC00E94DE0C882371F00E9470
:1003B000B20EBC018DE40E942613EC01CF3F8FEFFB
:1003C000D80761F40E94F30C7BC00E94E10C8823E3
:1003D00041F10E94B20EBC018DE6EDCF0E944212A7
:1003E000BC01990F880B990B0E94C716209102023D
:1003F0003091030240910402509105020E941D16A3
:100400000E948F168B010E94E40C08171907D4F67E
:100410000E94BD118C01CE010E941C0D0E94E90CAE
:1004200004C002E410E0CBE0D0E0C8010E948C12CE
:100430000E94B20E08171907C1F00E94B20E0E9466
:1004400047127C010E94B20EB7010E94DF140E9485
:1004500043110E94B20EB7010E94600D81E00E941C
:10046000E310C7010E94B70EE3CF0234110541F13A
:100470000E943A120E947E1184EB90E00E9494093F
:100480000E94AC07823539F46DE4CE010E94C2119E
:100490000E94040D0FC0873439F46DE6CE010E942E
:1004A000C2110E940C0D06C06EE4CE010E94C21162
:1004B0000E94140D0E94C50D84EB90E00E949E09DD
:1004C0008D2DDF91CF911F910F91FF90EF90DF90D5
:1004D00008950F931F93CF93DF930E949901811189
:1004E00010928216C0918216C11119C00E941E126C
:1004F0000E941112803309F072C00E94B20E8C016A
:100500000E941E12B8010E9463149093010280930E
:1005100000020E948C1281E08093821664C00E94C7
:10052000B20E0E94471290938116809380160E940B
:10053000B20E20910002309101028217930709F157
:10054000C0918016D09181160E94B20EBE010E9409
:10055000600DC0918016D09181160E94B20EBE012E
:100560000E94DF140E94431181E00E94E3108091F9
:100570008016909181160E94B70E81E080938216BA
:100580002CC08234910559F10E943A120E947E11CA
:1005900084EB90E00E9494090E94AC07823549F4F4
:1005A0000E941E126DE40E94C2110E941E126DE490
:1005B0000AC0873451F40E941E126DE60E94C211D7
:1005C0000E941E126DE60E94210D0E94301284EBE3
:1005D00090E00E949E0910928216C0E004C00E9422
:1005E0003012109282168C2FDF91CF911F910F91B4
:1005F00008950E94EB000E94630F0E94560C0E9417
:1006000069028823E1F30E94560C0E94D00C8823D3
:10061000D1F30E94E90C0E9405010E94C50DF3CFA1
:1006200087B1876087B987B1806F87B988B1887FC4
:1006300088B988B18F7088B9089586E69EE00197E1
:10064000F1F700004098419880E388B9429AEFEFB3
:10065000F7E43197F1F700C000004298E6E6FEE0CB
:100660003197F1F700004098419888B9429AEFEF2E
:10067000F7E43197F1F700C000004298E6E6FEE0AB
:100680003197F1F700004098419888B9429A8FEF6E
:1006900097E40197F1F700C000004298E6E6FEE01B
:1006A0003197F1F700004098419880E288B9429A6A
:1006B0008FEF97E40197F1F700C00000429808958A
:1006C00098B19F7098B998B1282F207F922B98B934
:1006D00040984198429AEFEFF7E43197F1F700C064
:1006E0000000429898B19F7098B998B18295807F28
:1006F000892B88B940984198429A8FEF97E40197E7
:10070000F1F700C00000429808950E941D0386E69C
:100710009EE00197F1F7000088E20E94600381E00B
:100720000E94600386E00E9460038EE00E946003E6
:1007300080E80C94600380E80C946003982F862F67
:10074000923059F01CF4913031F00895933039F023
:10075000943039F00895815805C0815403C08D56F6
:1007600001C08D520C94600381E00C946003CF9320
:10077000C42F0E949E0388B18F7088B988B19C2FC6
:10078000907F892B88B9409A4198429A8FEF97E4DD
:100790000197F1F700C000004298C295C07F88B170
:1007A0008F7088B988B1C82BC8B9409A4198429ACD
:1007B0008FEF97E40197F1F700C000004298CF91C6
:1007C000089598B19F7098B998B1282F207F922BE7
:1007D00098B9409A4198429AEFEFF7E43197F1F7D0
:1007E00000C0000042988295807F98B19F7098B9B0
:1007F00098B1892B88B9409A4198429A8FEF97E433
:100800000197F1F700C00000429808950F931F93DD
:10081000CF93DF93D82FC62F8A01F80141918F0122
:10082000442331F06C2F8D2F0E94B703CF5FF5CF9B
:10083000DF91CF911F910F910895CF93DF93EC013A
:100840008991882319F00E94E103FACFDF91CF91BB
:100850000895EF92FF920F931F93CF93DF93D82FBA
:10086000C62F8A0179010E949E0317FF09C01195C6
:10087000019511094DE26C2F8D2F0E94B703CF5FB8
:10088000DD2311F0C11103C00E949B0304C06C2F33
:100890008D2F0E949E0385E0E816F10409F07FC0C9
:1008A000C80160E177E20E949415AB01405D5F4FA3
:1008B00050938416409383166C2F8D2F0E94B7039C
:1008C000CF5FC80168EE73E00E949415CB0170936E
:1008D0008E1660938D166AE070E00E948015AC0160
:1008E000405D5F4F50938616409385166C2F8D2F79
:1008F0000E94B703CF5FC80164E670E00E949415C0
:10090000CB0170938E1660938D166AE070E00E94A2
:100910008015AC01405D5F4F509388164093871659
:100920006C2F8D2F0E94B703CF5F2AE030E0C80103
:10093000B9010E949415CB0170938E1660938D16A9
:10094000B9010E948015AC01405D5F4F50938A163B
:10095000409389166C2F8D2F0E94B703CF5FC8017B
:100960006AE070E00E949415AC01405D5F4F5093C7
:100970008C1640938B166C2F8D2F0E94B703CF5F80
:1009800086E0E816F104FCF045E46C2F8D2FDF9132
:10099000CF911F910F91FF90EF900C94B70384E0DB
:1009A000E816F10409F48DCF83E0E816F10409F4A8
:1009B000A2CF82E0E816F10409F4B7CF81E0E8168F
:1009C000F104F1F6CCCFDF91CF911F910F91FF9001
:1009D000EF9008950F931F93CF93DF938A01E9015E
:1009E000882311F0611103C00E949B0302C00E9482
:1009F0009E03C530D10509F061C0C80160E177E20E
:100A00000E948015CB01C096909384168093831624
:100A10000E94E103C80168EE73E00E948015CB01DB
:100A200070938E1660938D166AE070E00E948015B8
:100A3000C09690938616809385160E94E103C801A4
:100A400064E670E00E948015CB0170938E1660936F
:100A50008D166AE070E00E948015C096909388160B
:100A6000809387160E94E1032AE030E0C801B901B3
:100A70000E948015CB0170938E1660938D16B9017C
:100A80000E948015C09690938A16809389160E94C2
:100A9000E103C8016AE070E00E948015C09690935F
:100AA0008C1680938B160E94E1032697B4F085E4A0
:100AB000DF91CF911F910F910C94E103C430D105C8
:100AC00009F4A8CFC330D10509F4B9CFC230D1059C
:100AD00059F2C130D10549F7DCCFDF91CF911F9199
:100AE0000F91089510BA11BA1092070110920801DF
:100AF0000895EAE7F0E080818668808380818678C7
:100B00008083EBE7F0E08081807B8083ECE7F0E09E
:100B10008081807680838081806480838081806210
:100B2000808380B7806880BF0895883028F09091D6
:100B30007B00986090937B0090917C008770892B5C
:100B400080937C0080917A00806480937A00809109
:100B50007A0084FFFCCF8091790090917A009061B7
:100B600090937A0090917B00977F90937B00909177
:100B70007C00907E90937C000895682F70E080E068
:100B800090E00E94C5162FEE39EC43E95FE30E9426
:100B9000C0179B01AC0160E070E080E89FE30E9419
:100BA0001D162AE939EF4EE255E40E94531720E062
:100BB00030E040E251E40E9453170E948F16CB01AF
:100BC0006132734010F080E293E00895CF93DF9399
:100BD000C82FD62F842F0E94950580939C16482FEE
:100BE00050E023E030E06D2F8C2FDF91CF910C94FB
:100BF00029048AB18E6F8AB9589A08950E94100309
:100C00000C94F905F894E9E6F0E080818260808335
:100C1000E89A789408951F920F920FB60F921124BC
:100C20008F939F93AF93BF938091A9169091AA162B
:100C3000A091AB16B091AC160196A11DB11D809389
:100C4000A9169093AA16A093AB16B093AC16BF91B9
:100C5000AF919F918F910F900FBE0F901F9018959D
:100C60005C9A5D9A0895F8940E94F9050E94020624
:100C700078940C9430065E985F9808955E9A5F9A17
:100C800008955E985F9A08955E9A5F9808950E940D
:100C90003B061092A9161092AA161092AB1610924B
:100CA000AC162FEF8FE794E0215080409040E1F7A1
:100CB00000C000008091A9169091AA16A091AB16D1
:100CC000B091AC168093A5169093A616A093A71684
:100CD000B093A81661E081E00E949E036BE975E184
:100CE0008DE492E00E9445198DE492E00E941D047B
:100CF0004091A5165091A6166091A7167091A8165E
:100D000025E030E061E082E00E94EA042FEF8FEFFF
:100D10009CE2215080409040E1F700C0000081E05B
:100D20000C9460030E943E061092A9161092AA1617
:100D30001092AB161092AC162FEF8FE794E0215073
:100D400080409040E1F700C000008091A91690918A
:100D5000AA16A091AB16B091AC1680939D169093F5
:100D60009E16A0939F16B093A01661E081E00E94AA
:100D70009E0366EA75E18DE492E00E9445198DE4D8
:100D800092E00E941D0440919D1650919E16609124
:100D90009F167091A01625E030E061E082E00E948D
:100DA000EA042FEF8FEF9CE2215080409040E1F762
:100DB00000C0000081E00C9460030E944106109284
:100DC000A9161092AA161092AB161092AC162FEF1D
:100DD0008FE794E0215080409040E1F700C0000090
:100DE0008091A9169091AA16A091AB16B091AC165D
:100DF0008093A1169093A216A093A316B093A41665
:100E000061E081E00E949E0363EB75E18DE492E076
:100E10000E9445198DE492E00E941D044091A116A4
:100E20005091A2166091A3167091A41625E030E0AF
:100E300061E082E00E94EA042FEF8FEF9CE22150F4
:100E400080409040E1F700C0000081E00C94600316
:100E50000E943B061092A9161092AA161092AB1689
:100E60001092AC162FEF8FE794E021508040904015
:100E7000E1F700C000008091A9169091AA16A091F8
:100E8000AB16B091AC168093A5169093A616A093BE
:100E9000A716B093A8166091A5167091A61680911A
:100EA000A7169091A81608950E943E061092A916C2
:100EB0001092AA161092AB161092AC162FEF8FE775
:100EC00094E0215080409040E1F700C00000809104
:100ED000A9169091AA16A091AB16B091AC1680936A
:100EE0009D1690939E16A0939F16B093A0166091A6
:100EF0009D1670919E1680919F169091A016089550
:100F00000E9441061092A9161092AA161092AB16D2
:100F10001092AC162FEF8FE794E021508040904064
:100F2000E1F700C000008091A9169091AA16A09147
:100F3000AB16B091AC168093A1169093A216A09315
:100F4000A316B093A4166091A1167091A216809179
:100F5000A3169091A41608958F929F92AF92BF927C
:100F6000CF92DF92EF92FF920E9428076B017C01E3
:100F70000E9480074B015C010E94540727E0C216C3
:100F800026E1D206E104F10430F0623022E172077A
:100F90008105910500F58C149D04AE04BF0428F46E
:100FA0006C157D058E059F05C0F0C814D904EA04B0
:100FB000FB0428F4681579058A059B0580F08616E0
:100FC0009706A806B90668F4C616D706E806F90615
:100FD00040F487E407C087E505C082E503C082E4EA
:100FE00001C080E3FF90EF90DF90CF90BF90AF9073
:100FF0009F908F90089581B18F6081B982B1807F79
:1010000082B90895EAE0F1E0808188618083EBE0B5
:10101000F1E080818861808308958DB18F7C8DB9E6
:101020008EB180638EB90895F8948DB380638DBBC3
:10103000EAE6F0E080818A60808380818A7F808315
:1010400078940895E1E2F1E010828FEF809325011A
:1010500091E090932401109229018093280110922D
:101060002B0180932A01A0E2B1E08C91806A8C93DD
:101070008C918F7A8C938C9181608C938C918D7FE5
:101080008C9380818860808380818F7E8083808143
:101090008360808380818B7F808308951F920F926D
:1010A0000FB60F9211248F939F93AF93BF938091AC
:1010B000AF169091B016A091B116B091B2160196EC
:1010C000A11DB11D8093AF169093B016A093B116D9
:1010D000B093B216BF91AF919F918F910F900FBEB9
:1010E0000F901F9018951F920F920FB60F92112418
:1010F0008F939F93AF93BF938091B3169091B41643
:10110000A091B516B091B6160196A11DB11D8093A0
:10111000B3169093B416A093B516B093B616BF91BC
:10112000AF919F918F910F900FBE0F901F901895C8
:1011300082B1867F82B982B1866082B9089582B118
:10114000897F82B982B1896082B9089582B1857F31
:1011500082B982B1856082B9089582B18A7F82B9ED
:1011600082B18A6082B9089582B1887F82B9129A69
:10117000089582B1827F82B9119A089582B1817FE8
:1011800082B9109A089582B1887F82B9139A08951E
:1011900082B1807F82B908950F931F93813099F4B3
:1011A0001092AF161092B0161092B1161092B2169D
:1011B0001092B3161092B4161092B5161092B6167D
:1011C00080E090E029C04091AF165091B016609138
:1011D000B1167091B2168091B3169091B416A09189
:1011E000B516B091B6168A019B01080F191F2A1F68
:1011F0003B1FC901B8010E94C51628E431EE42E840
:1012000050E40E94531720E030E040E05FE30E948A
:1012100053170E948F16CB011F910F910895BC01A7
:1012200080E090E00E94C51628E431EE42E850E4E8
:101230000E941D160E949616CB01A0E0B0E010920D
:10124000AF161092B0161092B1161092B2161092FC
:10125000B3161092B4161092B5161092B6164091AD
:10126000AF165091B0166091B1167091B216481732
:1012700059076A077B0798F44091B3165091B4164A
:101280006091B5167091B616481759076A077B0723
:1012900030F4E6E6FEE03197F1F70000E0CF0C9481
:1012A000C8080F931F93BC0180E090E00E94C51610
:1012B00025EE30ED4AEA50E40E941D160E94961673
:1012C0001092AF161092B0161092B1161092B2167C
:1012D0001092B3161092B4161092B5161092B6165C
:1012E0000091AF161091B0162091B1163091B21640
:1012F000061717072807390798F40091B3161091BD
:10130000B4162091B5163091B616061717072807A0
:10131000390730F4E6E6FEE03197F1F70000E0CF60
:101320001F910F910C94C808CF93DF93EC010E949A
:101330009808CE01DF91CF910C945109CF93DF93A0
:10134000EC010E949F08CE01DF91CF910C945109CE
:10135000CF93DF93EC010E94A608CE01DF91CF91DD
:101360000C940F09CF93DF93EC010E94AD08CE01DE
:10137000DF91CF910C940F09CF93DF93EC010E9482
:10138000B408CE01880F991FDF91CF910C940F09FB
:10139000CF93DF93EC010E94B908CE01880F991F0B
:1013A000DF91CF910C940F09CF93DF93EC010E9452
:1013B000BE08CE01880F991FDF91CF910C940F09C1
:1013C000CF93DF93EC010E94C308CE01880F991FD1
:1013D000DF91CF910C940F098093280160932A012B
:1013E0000895E1E0F1E0808180628083E2E0F1E055
:1013F0008081806280830895E2E0F1E080818F7DCA
:1014000080830895E2E0F1E0808180628083089526
:101410000E94A80B911102C0811108958FEF0895C9
:101420000C94E50B87E090E00E948D0B0C94270C48
:101430000C94FE0B1F920F920FB60F9211240BB655
:101440000F922F933F934F935F938F939F93EF93BD
:10145000FF932091C0003091C60028718091C3177E
:1014600090E001968F7799274091C21750E084173A
:10147000950739F08093C317FC01EA53F84E308387
:1014800001C022E02093C117FF91EF919F918F91AE
:101490005F914F913F912F910F900BBE0F900FBE18
:1014A0000F901F9018951F920F920FB60F92112454
:1014B0000BB60F928F939F93EF93FF939091C51765
:1014C0008091C417981779F08091C41790E0019625
:1014D0008F7799278093C417FC01EA5BF74E8081D0
:1014E0008093C60005C08091C1008F7D8093C100AC
:1014F000FF91EF919F918F910F900BBE0F900FBEB8
:101500000F901F901895F8941092C5171092C41759
:101510001092C3171092C217789497FF04C022E06C
:101520002093C0009F779093C5008093C40088E902
:101530008093C10086E08093C2000895F894909152
:10154000C3178091C217981304C0789480E091E08B
:10155000089578948091C21790E001968F7799272B
:101560008093C217FC01EA53F84E20818091C11785
:1015700090E0982F8827820F911D0895F8949091FC
:10158000C3178091C217981304C0789480E091E04B
:1015900008957894E091C217F0E03196EF77FF2735
:1015A000EA53F84E20818091C11790E0982F882748
:1015B000820F911D08952091C51730E02F5F3F4F96
:1015C0002F7733274091C41750E024173507D1F304
:1015D000F901EA5BF74E80832093C5178091C10023
:1015E00080628093C1000895CF93DF93EC018991CD
:1015F000882319F00E94DB0AFACFDF91CF9108957A
:10160000CF93DF93FC018491EF012196882321F091
:101610000E94DB0AFE01F7CFDF91CF910895F89485
:101620008091C3172091C217789490E080589F4F03
:10163000821B91098F7799270895F8948091C2179A
:101640008093C317789408951F920F920FB60F924C
:1016500011240BB60F922F933F934F935F938F9369
:101660009F93EF93FF9320913001309136012871C1
:101670008091BE1690E001968F7799274091BD1614
:1016800050E08417950739F08093BE16FC01EF53A4
:10169000F94E308301C022E02093BC16FF91EF91F8
:1016A0009F918F915F914F913F912F910F900BBE22
:1016B0000F900FBE0F901F9018951F920F920FB6AC
:1016C0000F9211240BB60F928F939F93EF93FF937A
:1016D0009091C0168091BF16981779F08091BF162F
:1016E00090E001968F7799278093BF16FC01EF5BFE
:1016F000F84E80818093360105C0809131018F7D45
:1017000080933101FF91EF919F918F910F900BBECC
:101710000F900FBE0F901F901895F8941092C0165E
:101720001092BF161092BE161092BD16789497FFB5
:1017300004C022E0209330019F779093350180937D
:10174000340188E98093310186E080933201089565
:10175000F8949091BE168091BD16981304C07894A9
:1017600080E091E0089578948091BD1690E0019614
:101770008F7799278093BD16FC01EF53F94E208196
:101780008091BC1690E0982F8827820F911D0895B4
:10179000F8949091BE168091BD16981304C0789469
:1017A00080E091E008957894E091BD16F0E03196E4
:1017B000EF77FF27EF53F94E20818091BC1690E020
:1017C000982F8827820F911D08952091C01630E030
:1017D0002F5F3F4F2F7733274091BF1650E02417DC
:1017E0003507D1F3F901EF5BF84E80832093C016E3
:1017F000809131018062809331010895CF93DF930E
:10180000EC018991882319F00E94E50BFACFDF9152
:10181000CF910895CF93DF93FC018491EF0121963E
:10182000882321F00E94E50BFE01F7CFDF91CF91D5
:101830000895F8948091BE162091BD16789490E09A
:1018400080589F4F821B91098F7799270895F894AC
:101850008091BD168093BE1678940895F894E1EBBC
:10186000F0E0108282E88093B200B898A0E7B0E080
:101870008C9181608C931092B00080818460808311
:10188000789408951092C7181092C6181092C9182B
:101890001092C818E1EBF0E08081816080830895A8
:1018A000E1EBF0E080818E7F808308950E94080A3A
:1018B000833551F52FEF8FE794E021508040904021
:1018C000E1F700C000000E94080A90E0909399029E
:1018D000809398022FEF8FE794E021508040904052
:1018E000E1F700C000000E94080A90E09093970280
:1018F000809396020E94420C1092D3181092D21834
:1019000081E08093D11829C0863409F048C02FEFB8
:101910008FE794E0215080409040E1F700C0000044
:101920000E94080A8D34E1F42FEF8FE794E02150F4
:1019300080409040E1F700C000000E94080A90E05B
:1019400090939702809396020E94420C81E08093CC
:10195000D2181092D3181092D1188093D0180895ED
:101960008D36E9F42FEF8FE794E0215080409040CE
:10197000E1F700C000000E94080A90E090939702EF
:10198000809396020E94420C81E08093D3181092BB
:10199000D2181092D1188093D0180C94270C089567
:1019A0008091D01881111092D018089580919802DA
:1019B0009091990208958091D11808958091D2183C
:1019C00008958091D318089580919602909197027E
:1019D00008956FEB75E18BE692E00E9445198BE666
:1019E00092E00C94180A69EC75E18BE692E00E9493
:1019F00045198BE692E00E94180A0C94500C8091D5
:101A0000C6189091C71808951092CF1881E080935E
:101A1000CE181092CD18089581E08093CF181092BF
:101A2000CE181092CD1808951092CF181092CE189B
:101A300081E08093CD18089590939502809394024D
:101A400008950F931F93CF93DF93CDB7DEB76497BD
:101A50000FB6F894DEBF0FBECDBF182F092F6D341F
:101A600019F461ED75E104C06D36F9F465ED75E1C9
:101A7000CE0101960E944519CE0101969F938F9346
:101A80000F931F938BED95E19F938F938BE692E0DD
:101A90009F938F930E9460198BE692E00E94180A30
:101AA0000FB6F894DEBF0FBECDBF64960FB6F894A4
:101AB000DEBF0FBECDBFDF91CF911F910F91089573
:101AC0007F936F939F938F938AEE95E19F938F936C
:101AD0008BE692E09F938F930E9460198DB79EB71B
:101AE00008960FB6F8949EBF0FBE8DBF8BE692E0AE
:101AF0000C94180A242F042E000C330B3F934F93A1
:101B0000262F062E000C330B3F936F939F938F93DA
:101B100089EF95E19F938F938BE692E09F938F934C
:101B20000E9460198DB79EB70A960FB6F8949EBFB3
:101B30000FBE8DBF8BE692E00C94180A262F062E5E
:101B4000000C330B3F936F939F938F938AE096E142
:101B50009F938F938BE692E09F938F930E946019DF
:101B60008DB79EB708960FB6F8949EBF0FBE8DBF77
:101B70008BE692E00C94180A3B9A439808950E94D1
:101B80002E0C0C94BC0D439A089581E08093CC18E0
:101B90000E94C30D8091D118882309F44BC0809115
:101BA000CD1894E0899F900111249091CE18892F2F
:101BB00090E0880F991F822B932B2091CF18822BB6
:101BC00081309105A1F02CF4892B89F568E176E14B
:101BD0003BC082309105A1F0049749F58091C71868
:101BE0008F938091C6188F9386E496E111C08091FF
:101BF000C7188F938091C6188F9382E396E108C02F
:101C00008091C7188F938091C6188F938CE396E1CB
:101C10009F938F938BE692E09F938F930E9460191E
:101C20000F900F900F900F900F900F9011C06DE4D8
:101C300076E10AC08091D21881110EC08091D3182C
:101C400081110AC069E576E18BE692E00E944519B0
:101C50008BE692E00C94180A8091C7188F938091BC
:101C6000C6188F93809195028F93809194028F93E1
:101C70008EE696E19F938F938BE692E09F938F93EE
:101C80000E9460198DB79EB708960FB6F8949EBF54
:101C90000FBE8DBFDDCF439808951F920F920FB6F0
:101CA0000F9211240BB60F922F933F934F935F9394
:101CB0006F937F938F939F93AF93BF93EF93FF9314
:101CC0008091C8189091C91801969093C918809373
:101CD000C8188091C8189091C918883E934040F167
:101CE0008091C6189091C71801969093C718809359
:101CF000C6181092C9181092C8188091CC18882361
:101D0000B9F08091CA189091CB189C012F5F3F4F7A
:101D10003093CB182093CA18029754F00E944B0EB0
:101D20000E94500C1092CC181092CB181092CA1826
:101D300082E88093B200B898FF91EF91BF91AF9184
:101D40009F918F917F916F915F914F913F912F91D3
:101D50000F900BBE0F900FBE0F901F9018958091A3
:101D60009A0208958091DA189091DB180895909363
:101D7000DB188093DA1808959C01261B370BE4E6E4
:101D8000E29FC001E39F900D11249A01261B370B9F
:101D9000B9010E94941577FD05C06536710524F4DC
:101DA000862F089580E0089584E60895CF9383E018
:101DB0000E9495058093EC1882E00E94950580931F
:101DC000EB1881E00E949505C82F8093EA18409196
:101DD000E2185091E3186091A7027091A8028091D7
:101DE000EC1890E00E94BC0E8093E9184091E01836
:101DF0005091E1186091A5027091A6028C2F90E09D
:101E00000E94BC0E8093E7184091DE185091DF18B5
:101E10006091A3027091A4028091EB1890E00E945F
:101E2000BC0E8093E818CF9108950E94D60E809141
:101E3000EC1890E02091E2183091E3182817390748
:101E400024F49093E3188093E2182091A702309134
:101E5000A8028217930724F49093A8028093A70204
:101E60008091EB1890E02091DE183091DF18281750
:101E7000390724F49093DF188093DE182091A30291
:101E80003091A4028217930724F49093A4028093C4
:101E9000A3028091EA1890E02091E0183091E118B7
:101EA0002817390724F49093E1188093E0182091C3
:101EB000A5023091A6028217930724F49093A602FC
:101EC0008093A502089581E00E94CC080E94AD088D
:101ED0006DE78DE70E94EC0980E00E94CC088A350E
:101EE00091051CF40E94150FF7CF81E00E94CC08E9
:101EF0000E94A60880E00E94CC08843B91051CF457
:101F00000E94150FF7CF81E00E94CC080E94AD0817
:101F100080E00E94CC088A3591051CF40E94150FC0
:101F2000F7CF0C94C8088F929F92AF92BF92CF9236
:101F3000DF92EF92FF920E94D60EE090E718F12C0C
:101F4000C090E918D12CB7016C197D09072E000C3F
:101F5000880B990B0E94C7164B015C018091E81811
:101F6000B601680F711D6E0D7F1D072E000C880BCA
:101F7000990B0E94C71620E030E040E85FE30E9422
:101F8000B1159B01AC01C501B4010E941D1620E0F2
:101F900030E04FE753E40E9453174B015C019B0173
:101FA000AC016091ED187091EE188091EF1890914E
:101FB000F0180E94B0152FE632E143E05BE30E9487
:101FC00053170E948F166B017C0120E030E040E047
:101FD0005FE3C501B4010E9453170E948F16C60E1D
:101FE000D71E8092ED189092EE18A092EF18B09242
:101FF000F01868EC70E06C197D09C60188539F4F9A
:102000006F3F710509F02CF477FF05C060E070E0C8
:1020100002C06FEF70E08F3F910509F02CF497FF3D
:1020200005C080E090E002C08FEF90E0FF90EF905D
:10203000DF90CF90BF90AF909F908F900C94EC0961
:10204000EF92FF920F931F93CF93DF9300E010E086
:10205000C0E0D0E0E82EF12C0E151F050CF0A7C053
:102060008091EB18803108F49FC08091EC1880318A
:1020700008F09AC08091EA18803108F095C00E945B
:10208000D60E91E08091EC188B3008F090E09093A0
:10209000D91881E02091EA182B3008F080E0809375
:1020A000D81841E02091EB182B3008F040E0409325
:1020B000D718990F990F440F492BE42FE82BE09381
:1020C000D6184E2FEE0F550B660B770BFA01319792
:1020D000E730F10530F48827EE58FF4F8F4F0C940E
:1020E000A8150E9498086FEA8DE70E94EC09B8CF06
:1020F0000E94B4086DE780E012C00E9498086AEA66
:102100008AEA0E94EC092FEF8FE392E02150804091
:102110009040E1F746C00E94A6086FEA8DE70E9452
:10212000EC092FEF8FE392E0215080409040E1F7DF
:1021300000C00000C1E0D0E093CF0E94B90860E089
:102140008DE712C00E9498086FEA8FEA0E94EC099E
:102150002FEF8FE794E0215080409040E1F721C0BD
:102160000E94AD086DE78FEA0E94EC092FEF8FE324
:1021700092E0215080409040E1F700C00000C0E0B4
:10218000D0E06ECF209719F40E94AD0802C00E94E3
:10219000A6086DE78DE70E94EC098FEF97E40197A1
:1021A000F1F700C000005CCF0F5F1F4F55CF8FE5E8
:1021B00090E00E949409DF91CF911F910F91FF90C1
:1021C000EF900C94C8080F931F93CF93DF93082FC1
:1021D0000E949808C0E0D0E010E0C017D107E4F4F6
:1021E0000E94930F8091EB188D31D0F38091EC1801
:1021F0008D3120F48091EA188D3190F30E94C80847
:102200001092D41868EC88EC0E94EC098FE590E0FD
:102210000E9494092196E1CFDF91CF911F910F91F8
:1022200008958091D41881111092D41808956FEAFE
:102230008FEA0E94EC0981E490E00E94A8096FEA0D
:102240008FEA0E94EC090E94A6080E94D60E809197
:10225000EB188031D0F30C94C8086FEA8FEA0E9423
:10226000EC0981E490E00E94B2096FEA8FEA0E94D3
:10227000EC090E94AD080E94D60E8091EB188031C7
:10228000D0F30C94C808CF9390919A028917A1F1CA
:10229000803391F1C82F9E3449F01CF4953469F0D5
:1022A00029C0933589F09735B1F024C08335C9F042
:1022B0008735F1F08534F1F418C08335B1F08735F6
:1022C00081F08E34B9F414C08E3459F0873569F03A
:1022D000853481F40DC08E3441F0833549F0853466
:1022E00049F48AE590E00E94B2090E942D1102C0D3
:1022F0000E941711C0939A02CF910895CF939091A5
:102300009A028917C1F18033B1F1C82F9E3449F088
:102310001CF4953469F02DC0933589F09735B1F0F0
:1023200028C08335C9F0873501F1853411F518C00F
:102330008335B1F0873581F08E34D9F416C08E34F0
:1023400059F0873569F08534A1F40FC08E3441F01F
:10235000833559F0853469F48AE590E00E94B2092A
:102360008AE590E00E94B20904C08AE590E00E94EC
:10237000A809C0939A02CF91089580916F19909106
:10238000701908959C01215031092031310508F060
:1023900047C0FC01E353FD4F60836D34A1F42091ED
:1023A0006D1930916E1922313105D4F5A9014F5FB5
:1023B0005F4F50936E1940936D19220F331FF9012F
:1023C000EF5BF64E2BC06D36A1F420916B19309166
:1023D0006C192231310524F5A9014F5F5F4F5093ED
:1023E0006C1940936B19220F331FF901E75EF64E0B
:1023F00015C06E34A9F42091691930916A192231FF
:10240000310574F4A9014F5F5F4F50936A194093EF
:102410006919220F331FF901EF50F74E9183808322
:1024200008959C01215031092031310528F4FC0127
:10243000E353FD4F8081089580E3089580917319DF
:10244000909174198131910544F4880F991FFC0112
:10245000E152FD4F8081918108958FEF9FEF0895A4
:1024600080917319909174190196909374198093C7
:1024700073190895E0917519F0917619EF5FFC4F8B
:10248000808108958091CB029091CC020895880FAD
:10249000991FFC01E958F64E808191810895CF93F0
:1024A000DF93FC0120E030E08FEF9FE74FEF5FE725
:1024B000EB01A991BE01A11107C0A081B1814A170A
:1024C0005B0714F0C901AD012F5F3F4F32962334F3
:1024D000310571F7DF91CF910895CF93DF93EC0130
:1024E000FC01EE0FFF1FE958F64E808191818F3F6E
:1024F0002FEF920771F00E946D12DF93CF938BE75D
:1025000096E19F938F930E944C190F900F900F901C
:102510000F90DF91CF9108956F927F928F929F924B
:10252000AF92BF92CF92DF92EF92FF920F931F93E1
:10253000CF93DF93CDB7DEB7C354D1090FB6F8946C
:10254000DEBF0FBECDBFDE011196EDEFF9E12FEF3B
:102550003FE7219331931D924AE1E338F407C9F72D
:102560002FEF3FEF3093781920937719FC01EE0F8E
:10257000FF1FE350F64E1182108202E410E088241F
:10258000839463E4962EBE016F5F7F4F8DEF99E1D8
:102590000E944F12E1E0F0E0EC0FFD1FE80FF91F81
:1025A000808227E7622E29E1722E989E5001999E23
:1025B000B00C1124EDEFF9E1DE0111967D0120E070
:1025C00030E0BC01660F771F6350764ED7014D9106
:1025D0007D01411118C0A9014A0D5B1D4B565C4F8E
:1025E000DA01DC90DD2079F0DB014D915C914D0D3D
:1025F000511DC080D1804C155D052CF4D3018D9305
:102600009C93518340832F5F3F4FB2E06B0E711C50
:10261000329623343105D1F60150110909F0B3CFB8
:10262000CD5BDF4F0FB6F894DEBF0FBECDBFDF919D
:10263000CF911F910F91FF90EF90DF90CF90BF90BF
:10264000AF909F908F907F906F9008954F925F9280
:102650006F927F928F929F92AF92BF92CF92DF92B2
:10266000EF92FF920F931F93CF93DF93C82FCB016D
:102670000E948C12CD3409F058C0E0914119F091BC
:10268000421993E0EE0FFF1F9A95E1F7EB5FFC4FC5
:1026900020813181C0916D19D0916E191C161D06D3
:1026A0000CF0FEC0C0907519D090761901E419E1C4
:1026B00048EB5BE060E070E0AA24AA94BB24BA94E3
:1026C000F801A191B1918F01FD0183E0EE0FFF1F91
:1026D0008A95E1F7CF018B5F9C4F3C01490180E077
:1026E00090E0F301219131913F017901EE0CFF1C43
:1026F000F701E350F64EE080F180E416F50614F0A1
:10270000940103C06C01A7015D010196843091051D
:1027100011F04901E6CF6F5F7F4FC617D70781F6EB
:10272000C0927519D0927619B1C0CD3609F053C058
:10273000E0911919F0911A1923E0EE0FFF1F2A9565
:10274000E1F7EB5FFC4F2081318100916B19109113
:102750006C19101611060CF0A3C08090751990909A
:10276000761999E1492E99E1592E48EB5BE0A0E0FA
:10277000B0E0AA24AA94BB24BA94F201C191D191E9
:102780002F01FE0183E0EE0FFF1F8A95E1F7CF01D5
:102790008B5F9C4F3C0160E070E0F301E190F190B1
:1027A0003F016701CC0CDD1CC6018350964EFC0135
:1027B000C080D180C416D50624F44B01A601970130
:1027C0005E016F5F7F4F6430710539F711960A170C
:1027D0001B0799F64EC0CE3409F050C0E091F118B5
:1027E000F091F21893E0EE0FFF1F9A95E1F7EB5F7F
:1027F000FC4F20813181C0906919D0906A191C1456
:102800001D040CF04DC0809075199090761901EF61
:1028100018E148EB5BE060E070E0AA24AA94BB24D6
:10282000BA94F801A191B1918F01FD0183E0EE0FFF
:10283000FF1F8A95E1F7EB5FFC4F80E090E0E190AD
:10284000F190E701CC0FDD1FC350D64E0990D8811F
:10285000C02DC417D50724F44C01AE0197015D01CA
:1028600001968430910559F76F5F7F4FC616D706E2
:10287000C1F6809275199092761908C020E030E078
:1028800048EB5BE0AA24AA94BB24BA945093CC02F0
:102890004093CB023093701920936F19C50102C089
:1028A0008FEF9FEFDF91CF911F910F91FF90EF90EE
:1028B000DF90CF90BF90AF909F908F907F906F9060
:1028C0005F904F900895CF93DF93EC01CB010E946E
:1028D0008C12FE0183E0EE0FFF1F8A95E1F7EB5F9C
:1028E000FC4FD081C181709175196091761920E0FB
:1028F00030E048EB5BE081919191DC01AA0FBB1FB6
:10290000A350B64E0D90BC91A02DA417B5071CF096
:102910008D2F9C2F03C0722F632FAD012F5F3F4F70
:102920002430310519F0D82FC92FE5CF70937519D0
:10293000609376195093CC024093CB02DF91CF91F4
:102940000895CF9362337105C0F582339105A8F5E0
:10295000C3E4C89FF001C99FF00D1124EB56FC4F52
:10296000E60FF71F1082C69F9001C79F300D1124FC
:10297000D901AB56BC4FFD01E80FF91F1082FB01D6
:10298000EE0FFF1FE958F64E208131812F3F8FEF68
:10299000380779F0C29FC001C39F900D11248B5658
:1029A0009C4FFC01E60FF71F1082FD01E20FF31FA1
:1029B0001082CA01CF910C948C12CF9108950F937D
:1029C0001F93CF93DF939C01FB01009749F0823462
:1029D000910501F1309741F06234710569F480C0CE
:1029E0006D33710549F478C0859731F02D33310589
:1029F00019F4309709F46EC0C9016EE070E00E94CE
:102A00009415EC018A3091055CF4219780F4C8E0BC
:102A1000D0E00DC06532710509F467C08AE090E02E
:102A200065E070E00E949415EC01CC0FDD1FC90138
:102A300001972EE030E0B9010E9494158B01000F40
:102A4000111F69E070E00E949415060F171FCF0157
:102A5000B9010E9494158A3091053CF49C012150E3
:102A6000310950F428E030E007C065E070E00E94D2
:102A700094159C01220F331FCF0101976EE070E087
:102A80000E949415FB01EE0FFF1F69E070E00E94A9
:102A900094156E0F7F1F601B710B2C1B3D0B61305B
:102AA000710521F06F3F8FEF780769F42130310510
:102AB000A9F02F3F8FEF380789F06130710551F091
:102AC0006F3F7F4F49F02130310569F02F3F3F4F75
:102AD00029F40BC083E50AC08EE408C080E306C079
:102AE000859709F083CF85E401C087E5DF91CF9119
:102AF0001F910F9108950E94F90280E090E00895DF
:102B0000AA1BBB1B51E107C0AA1FBB1FA617B70713
:102B100010F0A61BB70B881F991F5A95A9F780952F
:102B20009095BC01CD01089597FB072E16F40094F3
:102B300007D077FD09D00E94801507FC05D03EF430
:102B4000909581959F4F0895709561957F4F089559
:102B5000EE0FFF1F881F8BBF0790F691E02D199491
:102B60005058BB27AA270E94C8150C9419170E9419
:102B70000B1738F00E94121720F039F49F3F19F418
:102B800026F40C9408170EF4E095E7FB0C9402175A
:102B9000E92F0E942A1758F3BA17620773078407B0
:102BA000950720F079F4A6F50C944C170EF4E095F7
:102BB0000B2EBA2FA02D0B01B90190010C01CA01F7
:102BC000A0011124FF27591B99F0593F50F4503EA2
:102BD00068F11A16F040A22F232F342F4427585F94
:102BE000F3CF469537952795A795F0405395C9F7AC
:102BF0007EF41F16BA0B620B730B840BBAF0915064
:102C0000A1F0FF0FBB1F661F771F881FC2F70EC002
:102C1000BA0F621F731F841F48F4879577956795D5
:102C2000B795F7959E3F08F0B0CF9395880F08F0C1
:102C30009927EE0F9795879508950E9431160C9469
:102C400019170E94121758F00E940B1740F029F430
:102C50005F3F29F00C94021751110C944D170C94FE
:102C600008170E942A1768F39923B1F3552391F3AB
:102C7000951B550BBB27AA2762177307840738F0EB
:102C80009F5F5F4F220F331F441FAA1FA9F335D048
:102C90000E2E3AF0E0E832D091505040E695001CFC
:102CA000CAF72BD0FE2F29D0660F771F881FBB1FB6
:102CB000261737074807AB07B0E809F0BB0B802D94
:102CC000BF01FF2793585F4F3AF09E3F510578F0C0
:102CD0000C9402170C944D175F3FE4F3983ED4F325
:102CE000869577956795B795F7959F5FC9F7880F94
:102CF000911D9695879597F90895E1E0660F771FE6
:102D0000881FBB1F621773078407BA0720F0621B76
:102D1000730B840BBA0BEE1F88F7E09508950E94A1
:102D200096166894B1110C944D1708950E943217AD
:102D300088F09F5798F0B92F9927B751B0F0E1F07C
:102D4000660F771F881F991F1AF0BA95C9F714C02C
:102D5000B13091F00E944C17B1E008950C944C17DB
:102D6000672F782F8827B85F39F0B93FCCF3869565
:102D700077956795B395D9F73EF4909580957095C2
:102D800061957F4F8F4F9F4F0895E89409C097FB3F
:102D90003EF490958095709561957F4F8F4F9F4F32
:102DA0009923A9F0F92F96E9BB279395F695879576
:102DB00077956795B795F111F8CFFAF4BB0F11F439
:102DC00060FF1BC06F5F7F4F8F4F9F4F16C08823E0
:102DD00011F096E911C0772321F09EE8872F762F16
:102DE00005C0662371F096E8862F70E060E02AF057
:102DF0009A95660F771F881FDAF7880F9695879543
:102E000097F9089597F99F6780E870E060E008956A
:102E10009FEF80EC089500240A94161617061806F2
:102E20000906089500240A941216130614060506CE
:102E30000895092E0394000C11F4882352F0BB0F5F
:102E400040F4BF2B11F460FF04C06F5F7F4F8F4FC2
:102E50009F4F089557FD9058440F551F59F05F3FFD
:102E600071F04795880F97FB991F61F09F3F79F0AC
:102E700087950895121613061406551FF2CF46952E
:102E8000F1DF08C0161617061806991FF1CF8695B0
:102E90007105610508940895E894BB276627772794
:102EA000CB0197F908950E9466170C9419170E9498
:102EB0000B1738F00E94121720F0952311F00C9494
:102EC00002170C94081711240C944D170E942A170E
:102ED00070F3959FC1F3950F50E0551F629FF0016D
:102EE000729FBB27F00DB11D639FAA27F00DB11D86
:102EF000AA1F649F6627B00DA11D661F829F22270F
:102F0000B00DA11D621F739FB00DA11D621F839F95
:102F1000A00D611D221F749F3327A00D611D231F6B
:102F2000849F600D211D822F762F6A2F11249F57B9
:102F300050409AF0F1F088234AF0EE0FFF1FBB1FBC
:102F4000661F771F881F91505040A9F79E3F51057B
:102F500080F00C9402170C944D175F3FE4F3983EF9
:102F6000D4F3869577956795B795F795E7959F5F25
:102F7000C1F7FE2B880F911D9695879597F90895B7
:102F8000FA01EE0FFF1F309621053105A1F1611501
:102F9000710561F48038BFE39B0749F1689490386C
:102FA000810561F08038BFEF9B0741F099234AF516
:102FB000FF3FE1053105210519F1E8940894E795F3
:102FC000D901AA2329F4AB2FBE2FF85FD0F310C08C
:102FD000FF5F70F4A695E0F7F73950F019F0FF3A6B
:102FE00038F49F779F930DD00F9007FC9058089569
:102FF00046F00C94081760E070E080E89FE30895C5
:103000004FE79F775F934F933F932F930E94BB1897
:103010002F913F914F915F910E9453170C94181874
:1030200029F416F00C9402170C944C170C94081702
:103030000E943217A8F39638A0F707F80F92E89489
:103040002BE33AEA48EB5FE70E9469170F920F9271
:103050000F924DB75EB70F920E940319E2EFF0E0B6
:103060000E944A184F915F91EF91FF91E595EE1FF5
:10307000FF1F49F0FE57E0684427EE0F441FFA9502
:10308000E1F74195550B0E947D180F9007FE0C94B7
:1030900071180895DF93CF931F930F93FF92EF92D0
:1030A000DF927B018C01689406C0DA2EEF010E944A
:1030B0006617FE01E894A5912591359145915591AA
:1030C000A6F3EF010E94C815FE019701A801DA944A
:1030D00069F7DF90EF90FF900F911F91CF91DF91F3
:1030E00008959B01AC0160E070E080E89FE30C94E0
:1030F0001D160C9402170C9437190E943217D8F33E
:103100009923C9F3940F511DA3F39150504094F0AB
:1031100059F0882332F0660F771F881F9150504076
:10312000C1F79E3F51052CF7880F911D9695879505
:1031300097F908955F3FACF0983E9CF0BB278695C9
:1031400077956795B79508F4B1609395C1F7BB0F74
:1031500058F711F460FFE8CF6F5F7F4F8F4F9F4F9D
:10316000E3CF0C944D1716F00C9437190C940817F4
:1031700068940C9402170E943217A8F39923C1F3A4
:10318000AEF3DF93CF931F930F93FF92C92FDD27E9
:1031900088232AF02197660F771F881FDAF720E02F
:1031A00030E040E85FEB9FE3883920F0803E38F064
:1031B00021968F770E94B115EAE1F1E004C00E94E8
:1031C000B115E7E4F1E00E944A188B01BE01EC0161
:1031D000FB2E6F5771097595771F880B990B0E940D
:1031E000C71628E132E741E35FE30E946617AF2D7F
:1031F0009801AE01FF900F911F91CF91DF910E9436
:10320000C8150C941917FA01DC01AA0FBB1F9B010A
:10321000AC01BF5728F4222733274427507820C019
:10322000B75190F4AB2F0024469537952795011C94
:10323000A395D2F3002071F0220F331F441FB395E2
:10324000DAF30ED00C94B01561307105A0E88A074E
:10325000B94630F49B01AC01662777278827907820
:10326000309621F0208331834283538308959F3F1A
:1032700031F0915020F4879577956795B795880F31
:10328000911D9695879597F90895FB01DC010190B2
:103290000D920020E1F70895CF93DF93CDB7DEB70D
:1032A000AE014A5F5F4FFA0161917191AF01809168
:1032B000851A9091861A0E948F19DF91CF910895F7
:1032C0000F931F93CF93DF93CDB7DEB72E970FB633
:1032D000F894DEBF0FBECDBF0E891F8986E08C83B8
:1032E0001A8309838FEF9FE79E838D83AE01465E2D
:1032F0005F4F688D798DCE0101960E948F19EF8105
:10330000F885E00FF11F10822E960FB6F894DEBFFD
:103310000FBECDBFDF91CF911F910F9108952F92D6
:103320003F924F925F926F927F928F929F92AF9255
:10333000BF92CF92DF92EF92FF920F931F93CF93A2
:10334000DF93CDB7DEB72B970FB6F894DEBF0FBE75
:10335000CDBF6C017B018A01FC011782168283813B
:1033600081FFCCC1CE0101963C01F6019381F701AA
:1033700093FD859193FF81917F01882309F4BAC160
:10338000853239F493FD859193FF81917F018532D8
:1033900029F4B60190E00E94AF1BE7CF912C212CBD
:1033A000312CFFE1F315D8F08B3279F038F480320C
:1033B00079F08332A1F4232D20611DC08D3261F09C
:1033C000803369F4232D216016C0832D8260382E4E
:1033D000E32DE4603E2E2AC0F32DF8601DC037FCBB
:1033E0002DC020ED280F2A3040F08E32B9F436FC83
:1033F00081C1232D2064322E19C036FE06C08AE01A
:10340000989E200D1124922E11C0EAE02E9E200DD0
:103410001124222EF32DF0623F2E08C08C3621F4A9
:10342000832D8068382E02C0883641F4F70193FD61
:10343000859193FF81917F018111B3CF982F9F7D5B
:103440009554933028F40C5F1F4F9FE399830DC070
:10345000833631F0833771F0833509F059C021C0CC
:10346000F801808189830E5F1F4F88248394912CFB
:10347000530113C02801F2E04F0E511CF801A08047
:10348000B18036FE03C0692D70E002C06FEF7FEFA0
:10349000C5010E94A41B4C018201F32DFF773F2E32
:1034A00016C0280122E0420E511CF801A080B18014
:1034B00036FE03C0692D70E002C06FEF7FEFC501DB
:1034C0000E94991B4C01F32DF0683F2E820133FCC2
:1034D0001BC0822D90E088169906B0F4B60180E2F8
:1034E00090E00E94AF1B2A94F4CFF50137FC859140
:1034F00037FE81915F01B60190E00E94AF1B211061
:103500002A9421E0821A91088114910471F7E8C08D
:10351000843611F0893641F5F80137FE07C0608125
:103520007181828193810C5F1F4F08C0608171811E
:10353000072E000C880B990B0E5F1F4FF32DFF76A3
:103540003F2E97FF09C090958095709561957F4FAC
:103550008F4F9F4FF0683F2E2AE030E0A3010E947A
:10356000EB1B882E861845C0853731F4232D2F7E1E
:10357000B22E2AE030E025C0932D997FB92E8F36E8
:10358000C1F018F4883579F0B5C0803719F0883764
:1035900021F0B0C0E92FE061BE2EB4FE0DC0FB2DBE
:1035A000F460BF2E09C034FE0AC0292F2660B22E57
:1035B00006C028E030E005C020E130E002C020E194
:1035C00032E0F801B7FE07C060817181828193818A
:1035D0000C5F1F4F06C06081718180E090E00E5F3C
:1035E0001F4FA3010E94EB1B882E8618FB2DFF772F
:1035F0003F2E36FE0DC0232D2E7FA22E891458F4A7
:1036000034FE0BC032FC09C0832D8E7EA82E05C06F
:10361000B82CA32C03C0B82C01C0B92CA4FE0FC039
:10362000FE01E80DF11D8081803321F49A2D997EF1
:10363000A92E09C0A2FE06C0B394B39404C08A2D7B
:10364000867809F0B394A3FC11C0A0FE06C0B214A2
:1036500088F4280C922C9B180EC0B21460F4B601AA
:1036600080E290E00E94AF1BB394F7CFB21418F43D
:103670002B1802C0982C212CA4FE10C0B60180E3A8
:1036800090E00E94AF1BA2FE17C0A1FC03C088E718
:1036900090E002C088E590E0B6010CC08A2D8678E3
:1036A00059F0A1FE02C08BE201C080E2A7FC8DE2CE
:1036B000B60190E00E94AF1B891438F4B60180E394
:1036C00090E00E94AF1B9A94F7CF8A94F301E80D23
:1036D000F11D8081B60190E00E94AF1B8110F5CFF3
:1036E000222009F442CEB60180E290E00E94AF1B96
:1036F0002A94F6CFF6018681978102C08FEF9FEF63
:103700002B960FB6F894DEBF0FBECDBFDF91CF91E1
:103710001F910F91FF90EF90DF90CF90BF90AF90EF
:103720009F908F907F906F905F904F903F902F90E1
:103730000895FC010590615070400110D8F7809504
:1037400090958E0F9F1F0895FC016150704001906D
:103750000110D8F7809590958E0F9F1F08950F93B5
:103760001F93CF93DF93FB01238121FD03C08FEFD4
:103770009FEF2CC022FF16C04681578124813581DE
:103780004217530744F4A081B1819D012F5F3F4F41
:10379000318320838C93268137812F5F3F4F37837E
:1037A000268314C08B01EC01FB010084F185E02D20
:1037B0001995892BE1F6D80116968D919C91179752
:1037C000019617969C938E931697CE01DF91CF9119
:1037D0001F910F910895FA01AA27283051F1203145
:1037E00081F1E8946F936E7F6E5F7F4F8F4F9F4F95
:1037F000AF4FB1E03ED0B4E03CD0670F781F891FD7
:103800009A1FA11D680F791F8A1F911DA11D6A0FA4
:10381000711D811D911DA11D20D009F468943F9157
:103820002AE0269F11243019305D3193DEF6CF0156
:103830000895462F4770405D4193B3E00FD0C9F71C
:10384000F6CF462F4F70405D4A3318F0495D31FD89
:103850004052419302D0A9F7EACFB4E0A6959795DC
:10386000879577956795BA95C9F7009761057105B2
:1038700008959B01AC010A2E0694579547953795FC
:103880002795BA95C9F7620F731F841F951FA01D56
:063890000895F894FFCF3B
:103896004200713D8A3E48656C6C6F2C2049206160
:1038A6006D20612046697265626972642D2D2D2D29
:1038B6002D2D2D2D2D2D2D2D2D2D2D2D2D2D2D2D32
:1038C6002D2D2D2D2D2D2D2D2D2D2D2D2D2D2D2D22
:1038D6002D2D2D2D2D2D2D2D2D20560A0048656CB4
:1038E6006C6F20576F726C64204920616D206120D7
:1038F600466972656269726420560048656C6C6F31
:103906002C204920616D20612046697265626972CA
:10391600642D2D2D2D2D2D2D2D2D2D2D2D2D2D2D9A
:1039260020560A000100010001004E0400050004B3
:10393600000000FF0FFF0FFF0F48656C6C6F2C2017
:103946004920616D20612046697265626972642D45
:103956002D2D2D2D2D2D2D20560A001027303030DF
:103966003030303030303030303030303030300D74
:1039760000090005000100020006000A000E000F03
:10398600000B0007000300040008000C00100011E3
:10399600004553574E0A0002000B0010000A0002B1
:1039A600000B0010000B0004000C0012000C0006B7
:1039B600000D0014000D0008000E0016001800107F
:1039C6000019001E00190012001A0020001A001427
:1039D600001B0022001B0016001C00240026001EEF
:1039E6000027002C002700200028002E0028002297
:1039F6000029003000290024002A00320034002C5F
:103A06000035003A0035002E0036003C0036003006
:103A16000037003E003700320038004000420042C6
:103A2600004200420000000000000000000000000C
:103A36000000000000000000000000000000000080
:103A46000000000000000000000000000000000070
:103A56000000000000000000000000000000000060
:103A6600000001000000000000000100000000004E
:103A7600000001000000000000000000000000003F
:103A86000000000000000000000000000000000030
:103A96000000000000000000000000000000000020
:103AA600000000000000000000000000010001000E
:103AB6000000000000000000000000000000000000
:103AC60000000000000000000000000000000000F0
:103AD60000000000000000000000000000000000E0
:103AE60000000000000000000000000000000000D0
:103AF60001000100000000000001000000000000BD
:103B060000000000000000000000000000000000AF
:103B1600000000000000000000000000000000009F
:103B2600000000000000000000000000000000008F
:103B3600000000000100010000000000000000007D
:103B4600000000000000000000000000000000006F
:103B5600000000000000000000000000000000005F
:103B6600000000000000000000000000000000004F
:103B7600000000000000000001000100000000003D
:103B8600010000000000000000000000000000002E
:103B9600000000000000000000000000000000001F
:103BA600000000000000000000000000000000000F
:103BB60000000000000000000000000001000100FD
:103BC60000000000000000000000000000000000EF
:103BD60000000000000000000000000000000000DF
:103BE60000000000000000000000000000000000CF
:103BF60000000000000000000000000000000000BF
:103C060001000100000000010000000000000000AB
:103C1600000000000000000000000000000000009E
:103C2600000000000000000000000000000000008E
:103C3600000000000000000000000000000000007E
:103C4600000000000100010000000000000000006C
:103C5600000000000000000000000000000000005E
:103C6600000000000000000000000000000000004E
:103C7600000000000000000000000000000000003E
:103C8600000000000000000001000000000001002C
:103C9600000000000000000000000000000000001E
:103CA600000000000000000000000000000000000E
:103CB60000000000000000000000000000000000FE
:103CC60000000000010000000000000000000000ED
:103CD60000000100000000000000000000000000DD
:103CE60000000000000000000000000000000000CE
:103CF60000000000000000000000000000000000BE
:103D060000000000000000000001000000000000AC
:103D1600000000000000000100000000000000009C
:103D2600000000000000000000000000000000008D
:103D3600000000000000000000000000000000007D
:103D4600000000000000000000000000000001006C
:103D5600000000000000000000000000010000005C
:103D6600000000000000000000000000000000004D
:103D7600000000000000000000000000000000003D
:103D8600000000000000000000000000000000002D
:103D9600000000010000000000000000000000001C
:103DA600000100000000000000000000000000000C
:103DB60000000000000000000000000000000000FD
:103DC60000000000000000000000000000000000ED
:103DD60000000000000000000100000000000000DC
:103DE60000000000000001000000000000000000CC
:103DF60000000000000000000000000000000000BD
:103E060000000000000000000000000000000000AC
:103E1600000000000000000000000000010000009B
:103E2600000001000000000000000100000000008A
:103E3600000000000000000000000000000000007C
:103E4600000000000000000000000000000000006C
:103E5600000000000000000000000000000000005C
:103E6600000000000100010000000000000000004A
:103E7600000000000000000000000000000000003C
:103E8600000000000000000000000000000000002C
:103E9600000000000000000000000000000000001C
:103EA6000000000100000000010001000000000009
:103EB60000010000000000000000000000000000FB
:103EC60000000000000000000000000000000000EC
:103ED60000000000000000000000000000000000DC
:103EE60000000000000000000000000001000100CA
:103EF60000000000000000000000000000000000BC
:103F060000000000000000000000000000000000AB
:103F1600000000000000000000000000000000009B
:103F2600000000000000000000000100000000008A
:103F36000100010000000000010000000000000078
:103F4600000000000000000000000000000000006B
:103F5600000000000000000000000000000000005B
:103F6600000000000000000000000000000000004B
:103F76000000000001000100000000000000000039
:103F8600000000000000000000000000000000002B
:103F9600000000000000000000000000000000001B
:103FA600000000000000000000000000000000000B
:103FB60000010000000000000100010000000001F7
:103FC60000000000000000000000000000000000EB
:103FD60000000000000000000000000000000000DB
:103FE60000000000000000000000000000000000CB
:103FF60000000000000000000000000001000100B9
:1040060000000000000000000000000000000000AA
:10401600000000000000000000000000000000009A
:10402600000000000000000000000000000000008A
:104036000000000000000000010000000000000079
:104046000100000000000100000000000000000068
:10405600000000000000000000000000000000005A
:10406600000000000000000000000000000000004A
:104076000000000000000000000000000100000039
:104086000000000000000000000001000000000029
:10409600000000000000000000000000000000001A
:1040A600000000000000000000000000000000000A
:1040B60000000000000000000000000000000000FA
:1040C60000010000000000000000000000000001E8
:1040D60000000000000000000000000000000000DA
:1040E60000000000000000000000000000000000CA
:1040F60000000000000000000000000000000000BA
:1041060000000000000001000000000000000000A8
:104116000000000001000000000000000000000098
:104126000000000000000000000000000000000089
:104136000000000000000000000000000000000079
:104146000000000000000000000000010000000068
:104156000000000000000000000100000000000058
:104166000000000000000000000000000000000049
:104176000000000000000000000000000000000039
:104186000000000000000000000000000000000029
:104196000100000000000000000000000000010017
:1041A6000000000000000000000000000000000009
:1041B60000000000000000000000000000000000F9
:1041C60000000000000000000000000000000000E9
:1041D60000000000010000000000010000000000D7
:1041E60000000100000000000000000000000000C8
:1041F60000000000000000000000000000000000B9
:1042060000000000000000000000000000000000A8
:104216000000000000000000000000000100010096
:104226000000000000000000000000000000000088
:104236000000000000000000000000000000000078
:104246000000000000000000000000000000000068
:104256000000000000000000000000010000000057
:104266000100010000000000000100000000000045
:104276000000000000000000000000000000000038
:104286000000000000000000000000000000000028
:104296000000000000000000000000000000000018
:1042A6000000000001000100000000000000000006
:1042B60000000000000000000000000000000000F8
:1042C60000000000000000000000000000000000E8
:1042D60000000000000000000000000000000000D8
:1042E60000000100000000000100010000000000C5
:1042F60001000000000000000000000000000000B7
:1043060000000000000000000000000000000000A7
:104316000000000000000000000000000000000097
:104326000000000000000000000000000100010085
:104336000000000000000000000000000000000077
:104346000000000000000000000000000000000067
:104356000000000000000000000000000000000057
:104366000000000000000000000100000000000046
:104376000100010000000001000000000000000034
:104386000000000000000000000000000000000027
:104396000000000000000000000000000000000017
:1043A6000000000000000000000000000000000007
:1043B60000000000010001000000000000000000F5
:1043C60000000000000000000000000000000000E7
:1043D60000000000000000000000000000000000D7
:1043E60000000000000000000000000000000000C7
:1043F60001000000000000000100000000000100B4
:1044060000000000000000000000000000000000A6
:104416000000000000000100000000000000000095
:104426000000000000000000000000000000000086
:104436000000000001000000000000000000000075
:104446000000010000000000000000000000000065
:104456000000000000000000000000000000000056
:104466000000000000000000000000000000000046
:104476000000000000000000000100000000000035
:104486000000000000000001000000000000000025
:104496000000000000000000000000000000000016
:1044A6000000000000000000000000000000000006
:1044B60000000000000000000000000000000100F5
:1044C60000000000000000000000000001000000E5
:1044D60000000000000000000000000000000000D6
:1044E60000000000000000000000000000000000C6
:1044F60000000000000000000000000000000000B6
:1045060000000001000000000000000000000000A4
:104516000001000000000000000000000000000094
:104526000000000000000000000000000000000085
:104536000000000000000000000000000000000075
:104546000000000000000000010000000000000064
:104556000000000000000100000000000000000054
:104566000000000000000000000000000000000045
:104576000000000000000000000000000000000035
:104586000000000000000000000000000100000024
:104596000000010000000000000001000000000013
:1045A6000000000000000000000000000000000005
:1045B60000000000000000000000000000000000F5
:1045C60000000000000000000000000000000000E5
:1045D60000000000010001000000000000000000D3
:1045E60000000000000000000000000000000000C5
:1045F60000000000000000000000000000000000B5
:1046060000000000000000000000000000000000A4
:104616000000000100000000010001000000000091
:104626000001000000000000000000000000000083
:104636000000000000000000000000000000000074
:104646000000000000000000000000000000000064
:104656000000000000000000000000000100010052
:104666000000000000000000000000000000000044
:104676000000000000000000000000000000000034
:104686000000000000000000000000000000000024
:104696000000000000000000000001000000000013
:1046A6000100010000000000010000000000000001
:1046B60000000000000000000000000000000000F4
:1046C60000000000000000000000000000000000E4
:1046D60000000000000000000000000000000000D4
:1046E60000000000010001000000000000000000C2
:1046F60000000000000000000000000000000000B4
:1047060000000000000000000000000000000000A3
:104716000000000000000000000000000000000093
:10472600000100000000000001000100000000017F
:104736000000000000000000000000000000000073
:104746000000000000000000000000000000000063
:104756000000000000000000000000000000000053
:104766000000000000000000000000000100010041
:104776000000000000000000000000000000000033
:104786000000000000000000000000000000000023
:104796000000000000000000000000000000000013
:1047A6000000000000000000010000000000000002
:1047B60001000000000001000000000000000000F1
:1047C60000000000000000000000000000000000E3
:1047D60000000000000000000000000000000000D3
:1047E60000000000000000000000000001000000C2
:1047F60000000000000000000000010000000000B2
:1048060000000000000000000000000000000000A2
:104816000000000000000000000000000000000092
:104826000000000000000000000000000000000082
:104836000001000000000000000000000000000170
:104846000000000000000000000000000000000062
:104856000000000000000000000000000000000052
:104866000000000000000000000000000000000042
:104876000000000000000100000000000000000031
:104886000000000001000000000000000000000021
:104896000000000000000000000000000000000012
:1048A6000000000000000000000000000000000002
:1048B60000000000000000000000000100000000F1
:1048C60000000000000000000001000000000000E1
:1048D60000000000000000000000000000000000D2
:1048E60000000000000000000000000000000000C2
:1048F60000000000000000000000000000000000B2
:10490600010000000000000000000000000001009F
:104916000000000000000000000000000000000091
:104926000000000000000000000000000000000081
:104936000000000000000000000000000000000071
:10494600000000000100000000000100000000005F
:104956000000000000000000000000000000000051
:104966000000000000000000000000000000000041
:104976000000000000000000000000000000000031
:10498600000000000000000000000000010001001F
:104996000000000000000000000000000000000011
:1049A6000000000000000000000000000000000001
:1049B60000000000000000000000000000000000F1
:1049C60000000000000000000000000100000000E0
:1049D60001000100000000000000000000000000CF
:1049E60000000000000000000000000000000000C1
:1049F60000000000000000000000000000000000B1
:104A060000000000000000000000000000000000A0
:104A1600000000000100010000000000010000008D
:104A26000000000000000000000000000000000080
:104A36000000000000000000000000000000000070
:104A46000000000000000000000000000000000060
:104A5600000001000000000001000100000000004D
:104A66000000000000000000000000000000000040
:104A76000000000000000000000000000000000030
:104A86000000000000000000000000000000000020
:104A9600000000000000000000000000010001000E
:104AA6000000000000000000000000000000000000
:104AB60000000000000000000000000000000000F0
:104AC60000000000000000000000000000000000E0
:104AD60000000000000000000001000000000000CF
:104AE60001000100000000000000000000000000BE
:104AF60000000000000000000000000000000000B0
:104B0600000000000000000000000000000000009F
:104B1600000000000000000000000000000000008F
:104B2600000000000100010000000000000000007D
:104B3600000000000000000000000000000000006F
:104B4600000000000000000000000000000000005F
:104B5600000000000000000000000000000000004F
:104B6600010000000000000001000000000000003D
:104B7600000000000000000000000000000000002F
:104B8600000000000000000000000000000000001F
:104B9600010000000000000000000000000000000E
:104BA600000000000000000000000000000031735B
:104BB60074204E6F64650A5E004D6964204E6F6412
:104BC600650A5E00393020446567726565204C656C
:104BD6006674207475726E0A5E0043656E74657243
:104BE600206F6620626C6F636B2072656163686517
:104BF600640A5E004261636B206F6E206C696E65AD
:104C06000A5E004C656674205475726E0A5E005327
:104C160074617274204C6F636174696F6E0A5E0012
:104C260046696E69736865640A5E00526564205061
:104C3600756C73657300477265656E2050756C738D
:104C4600657300426C75652050756C736573006101
:104C5600636365707465645E0069676E6F72655E36
:104C66000072656400677265656E007363616E6EDF
:104C760065642D25642D25732100666F7277617238
:104C8600642D25642D25642100726F746174652D71
:104C960025642D25632D2563210064656272697381
:104CA6002D25642D256321004572726F7220696E71
:104CB600207461736B20636F6D706C6574696F6EC1
:104CC6005E006D696E6F722D25645E006D616A6FA0
:104CD600722D25645E006E6F2D25645E0053636140
:104CE6006E2D4572726F725E004572726F7220642D
:104CF60065636F64696E67207461736B5E006665D9
:104D06007463682D25642D25645E002564200000EB
:00000001FF
